:100000000C942F070C9457070C9457070C94570720
:100010000C9457070C9457070C9457070C949C1E8C
:100020000C9457070C9457070C9485220C94891F45
:100030000C94BA230C9457070C945B1E0C9457072E
:100040000C94B02A0C9457070C9466280C949828AA
:100050000C9457070C94B61B0C9457070C94570735
:100060000C9457070C9457076364696E6F7073752F
:1000700078585B0020726561644572726F723D3022
:10008000780020435243206572726F72003A4F52DB
:100090002D00204352433D002D50453A002D424350
:1000A0003A002D58583A002D53423A003A20002E7B
:1000B000005420005220004520002A205265667519
:1000C00073696E6720746F20777269746520706140
:1000D000636B6574207768696C65207072657669FA
:1000E0006F7573207061636B6574207761736E2721
:1000F000742066696E69736865642C20666C75731C
:1001000068696E6720777269746520616374696FCE
:100110006E002A2053757270726973653A20726599
:100120006365697665642030304678337820706185
:10013000636B6574206F662073697A6520002064A4
:10014000657465637465642C20737769746368698A
:100150006E6720636F6E74726F6C2066756E637469
:10016000696F6E616C6974792063616E20626520CD
:100170007377697463686564206F6E20287573698E
:100180006E67204C31290020646574656374656472
:100190002C20636F6E74726F6C2066756E63746969
:1001A0006F6E616C6974792077696C6C207265730D
:1001B00074617274002A204E6F20617578696C69D1
:1001C00061727920636F6E74726F6C6C65722061FE
:1001D0006E73776572696E6720746F2061646472F4
:1001E000657373203078002064657465637465649A
:1001F000002A205761726E696E673A20616E6F74D3
:1002000068657220617578696C6961727920636FC5
:100210006E74726F6C6C657220697320616E737797
:100220006572696E6720746F2061646472657373B0
:10023000203078002A205265667573696E672074D5
:100240006F20777269746520636F756E7465722DA7
:1002500072657175657374207061636B6574207766
:1002600068696C652070726576696F75732070615E
:10027000636B6574207761736E27742066696E699D
:1002800073686564002A20465F6D61782073657429
:1002900020746F20002A205761726E696E673A20C1
:1002A00055706F6E2041546D65676120726573747F
:1002B00061727420617578696C6961727920636F0D
:1002C0006E74726F6C6C65722066756E6374696FA4
:1002D0006E616C69747920616E6420636F756E74F1
:1002E000657220726571756573742066756E6374CE
:1002F000696F6E616C6974792077696C6C207265C6
:100300006D61696E207377697463686564206F66D8
:1003100066002A20537769746368696E6720636F8B
:100320006E74726F6C2066756E6374696F6E616C4B
:10033000697479206F6666002A2053776974636850
:10034000696E6720636F756E746572207265717572
:100350006573742066756E6374696F6E206F666670
:10036000002A205741524E494E473A20746F6F2061
:100370006D616E792072656164206572726F72734F
:1003800020646574656374656400203F2000E2802A
:10039000BE5C5F005F2FE280BE005F5F5F00E280B7
:1003A000BEE280BEE280BE002D582D002020206CD1
:1003B0007720202000202020706520202000202091
:1003C0002050452020200020202062632020200093
:1003D0002020204243202020002020207362202063
:1003E0002000202020534220202000202020626571
:1003F00020202000202020424520202000632000D3
:100400004320002A20526563656976656420706127
:10041000636B6574206C6F6E676572207468616EC3
:100420002052425F53495A45002A20436F6D6D6147
:100430006E64206E6F7420756E64657273746F6F76
:10044000643A20002A20436F6E74726F6C5F696497
:10045000206973203078002A20436F6E74726F6CAD
:100460005F69642073657420746F203078002A20DF
:10047000434F4E54524F4C5F494420697320616C86
:1004800072656164792030783030002A20596F75A8
:10049000206D6179207769736820746F2072652DF3
:1004A00074727920696E20612066657720736563B8
:1004B0006F6E64732028616E64207065726861706D
:1004C0007320737769746368206F74686572206144
:1004D0007578696C6961727920636F6E74726F6C84
:1004E0006C657273206F666629002A204E6F206645
:1004F000726565206164647265737320666F722033
:10050000636F6E74726F6C6C657220666F756E646B
:100510002028796574292E20436F6E74726F6C20C9
:1005200066756E6374696F6E616C697479206E6F45
:100530007420656E61626C6564002A20436F6E747E
:10054000726F6C5F4944203078463020737570704C
:100550006F727465642C206E6F20617578696C69A8
:1005600061727920636F6E74726F6C6C6572206655
:100570006F756E6420666F7220307846302C207361
:100580007769746368696E6720636F6E74726F6CED
:100590002066756E6374696F6E616C697479206F23
:1005A0006E2030784630206F6E002A20434F4E5424
:1005B000524F4C5F494420697320616C72656164DD
:1005C00079203078002A204572726F7273706572DC
:1005D0006D697474656420286572726F722062752B
:1005E000646765742920746F6F206C6F773B20639C
:1005F0006F6E74726F6C2066756E6374696F6E6176
:100600006C6974792063616E6E6F7420656E6162CF
:100610006C6564002A205363686564756C696E6755
:1006200020617474656D707420746F2072657374CA
:10063000617274204461696B696E002A207265736F
:10064000746172744461696B696E20776169746961
:100650006E6720746F2072656365697665207361CB
:100660006D706C65207061796C6F6164002A207216
:100670006573746172744461696B696E20616C7238
:1006800065616479207363686564756C6564002ACC
:1006900020696E736572744D65737361676520615F
:1006A0006C7265616479207363686564756C6564F8
:1006B000002A20526573657474696E672041546D19
:1006C000656761202E2E2E2E002A205265667573D6
:1006D000696E6720746F207772697465207061633A
:1006E0006B6574207768696C652070726576696FD8
:1006F0007573207061636B6574207761736E277406
:100700002066696E6973686564002A2052656675A3
:1007100073696E6720746F20777269746520656DE8
:10072000707479207061636B6574002A2057726958
:1007300074696E673A20002D2076616C69642064CC
:10074000617461206D697373696E672C20777269BB
:10075000746520736B6970706564002A2057726934
:1007600074696E67206E6578742034304678333053
:1007700020736C6F743A20002A20696E736572745E
:100780004D65737361676520286F7220726573749D
:100790006172744461696B696E2920616C72656174
:1007A0006479207363686564756C6564007365744F
:1007B00020746F20002A204563686F2000736574E1
:1007C00020746F20002A20536F6674776172652D44
:1007D00073636F7065200073657420746F20002A46
:1007E0002044656C617954696D656F757420007380
:1007F000657420746F20005B757365206F662064DC
:10080000656C61792030206F722031206E6F74200A
:100810007265636F6D6D656E6465642C20696E63CF
:1008200072656173696E6720746F20325D20002AE3
:100830002044656C6179200073657420746F20001A
:100840002A20566572626F736520003078007365E8
:100850007420746F20002A204372635F66656564AC
:10086000200030780073657420746F20002A2043C4
:1008700072635F67656E2000206E723A2000207000
:10088000743A203078002A2049676E6F72696E676B
:1008900020696E737472756374696F6E2C2065784D
:1008A000706563746564203320617267756D656E71
:1008B00074732C2072656365697665643A20002A3A
:1008C0002043757272656E746C79206E6F2077723A
:1008D00069746520627564676574206C6566740070
:1008E00020746F2076616C7565203078002070610F
:1008F000796C6F6164206279746520002A20496EEA
:100900006974696174696E672077726974652066BD
:100910006F72207061636B65742D7479706520301F
:10092000780077725F76616C20666F7220706179F3
:100930006C6F6164206279746520313720286661AC
:100940006E2D6D6F646529206D757374206265204E
:10095000696E2072616E676520307830302D307896
:1009600030330077725F76616C20666F7220706141
:10097000796C6F6164206279746520342F38202887
:1009800066616E2D737065656420636F6F6C696E50
:10099000672F68656174696E6729206D75737420AF
:1009A000626520696E2072616E6765203078313132
:1009B0002D307835310077725F76616C20666F720A
:1009C000207061796C6F6164206279746520322FC8
:1009D0003620287461726765742D74656D702063AC
:1009E0006F6F6C696E672F68656174696E67292027
:1009F0006D75737420626520696E2072616E676523
:100A000020307831302D307832300077725F766167
:100A10006C20666F72207061796C6F6164206279FE
:100A20007465203120286F7065726174696E672D5E
:100A30006D6F646529206D75737420626520696E21
:100A40002072616E676520307836302D3078363709
:100A50000077725F76616C20666F72207061796CCE
:100A60006F6164206279746520302028737461742A
:100A7000757329206D7573742062652030206F7244
:100A80002031002A2077725F76616C203E2030781A
:100A900046463A20002A2077725F6E7220696E7691
:100AA000616C69642C2073686F756C6420626520CA
:100AB000302C20312C20322C20342C20362C203885
:100AC00020286F7220666F72207061636B657420DE
:100AD0007479706520307833423A203136206F7255
:100AE000203137293A2000206973206E6F7420303E
:100AF000783338206F722030783342002A207772A2
:100B00005F70743A203078002A2050726576696FE1
:100B1000757320706172616D65746572207772699A
:100B2000746520616374696F6E207374696C6C20E6
:100B300062757379002A20436F6D6D616E64207257
:100B400065717569726573206F7065726174696F24
:100B50006E20617320617578696C696172792063B8
:100B60006F6E74726F6C6C657220284C3129002A8C
:100B70002052656365697665643A20002A20456DD8
:100B8000707479206C696E6520726563656976653D
:100B900064002A2052656365697665643A20220004
:100BA0002A204C696E6520746F6F206C6F6E672C05
:100BB000206C61737420706172743A20002A2046A0
:100BC00069727374206C696E652069676E6F7265F7
:100BD000643A202D3E003C2D002A204C696E652091
:100BE000746F6F206C6F6E672C207465726D696E08
:100BF000617465642C2069676E6F7265643A202D9C
:100C00003E003C2D002A204C696E6520746F6F20D9
:100C10006C6F6E672C2069676E6F7265642C20693B
:100C2000676E6F72696E672072656D61696E64656B
:100C3000723A202D3E00502020202020202020200D
:100C4000005220002A205265616479207365747512
:100C500070002A2053455249414C53504545443D6C
:100C6000002A204350555F53504545443D002A20FB
:100C7000566572626F736974793D002A204630337D
:100C80005844454C41593D002A20463033304445B4
:100C90004C41593D002A20436F756E746572726530
:100CA00070656174696E67726571756573743D0016
:100CB0002A20434F4E54524F4C5F49445F444546AF
:100CC00041554C543D3078002A20436F6E74726F4A
:100CD0006C5F49443D3078002A20503150322D4518
:100CE00053502D696E746572666163652041546D61
:100CF000656761487749442076312E002028706F5F
:100D00007765722D6F6E2D726573657429002028CA
:100D10006578742D72657365742900202862726F7E
:100D2000776E2D6F75742D646574656374656429C1
:100D3000002A2052657365742063617573653A20DB
:100D40004D435553523D0020464459510020462DF5
:100D500073657269657300204E4557503150324CAF
:100D6000494200202B636F6E74726F6C0031353A0C
:100D700031313A35340020004A756C20333120324D
:100D8000303233002A20436F6D70696C6564200037
:100D90002A20503150324D6F6E69746F722D76304B
:100DA0002E392E3431002A20454550524F4D2073A4
:100DB0006967206D69736D617463682C20696E6961
:100DC0007469616C697A696E6720454550524F4D70
:100DD000002A20454550524F4D20736967206D61B0
:100DE000746368002A20636865636B696E672045D9
:100DF0004550524F4D00000000090003020000045E
:100E000005080000000000000000000000010204CE
:100E1000081020408001020408102001020408107C
:100E2000204080400404040404040404020202027A
:100E30000202030303030303020203000000002372
:100E4000002600290000000000250028002B0000DB
:100E5000000000240027002A0000C8282F0A1124BF
:100E60001FBECFEFD8E0DEBFCDBF11E0A0E0B1E004
:100E7000E4EBFDE502C005900D92A236B107D9F76B
:100E800024E0A2E6B1E001C01D92A734B207E1F769
:100E900017E0CEE2D7E004C02197FE010E94582B54
:100EA000CD32D107C9F70E94A12A0C94CD2E0C9403
:100EB00000001F93CF93DF93EC01162F0E94802E2A
:100EC000181739F0612FCE01DF91CF911F910C944B
:100ED000882EDF91CF911F9108950C94802ECF9290
:100EE000DF92EF92FF920F931F93CF93DF93809146
:100EF0001201882331F064EE7DE081EA93E00E94E4
:100F000068298CE1E82E81E0F82E670100E110E00D
:100F1000C1E0C8010E946D07F60121916F01022E08
:100F2000000C330B91E08217130609F090E0C923FF
:100F30000F5F1F4F0931110561F78091120188235E
:100F4000E9F161ED7DE081EA93E00E9431296C2FA7
:100F500070E04AE050E081EA93E00E942C2AC1113F
:100F60002FC080911201882331F066EA7DE081EA8A
:100F700093E00E946829C0E1D0E0F70161917F0110
:100F8000CE010E9459072196C931D105B1F760E021
:100F900090E080E00E94590760E081E090E00E94CC
:100FA000590763E082E090E0DF91CF911F910F91AC
:100FB000FF90EF90DF90CF900C945907CC23D9F29B
:100FC000DF91CF911F910F91FF90EF90DF90CF9025
:100FD000089560E97DE081EA93E00E94682964E871
:100FE0007DE081EA93E00E94312968E77DE081EAB3
:100FF00093E00E94312966E77DE081EA93E00E9458
:1010000031296DE67DE081EA93E00E94312963E6B3
:101010007DE081EA93E00E94312967E57DE081EA85
:1010200093E00E9431296DE47DE081EA93E00E9423
:10103000312967E47DE081EA93E00E94312981EA69
:1010400093E00E94642961E37DE081EA93E00E94DD
:1010500031294AE050E06091490281EA93E00E9420
:101060005D2A8091490282FF06C06BE17DE081EA42
:1010700093E00E9431298091490281FF06C06EE011
:101080007DE081EA93E00E9431298091490280FF4E
:1010900006C06CEF7CE081EA93E00E94312981EA8E
:1010A00093E00E94642968ED7CE081EA93E00E946D
:1010B00031294AE050E06091710181EA93E00E9499
:1010C000642A68EC7CE081EA93E00E94312940E1E7
:1010D00050E060914C0281EA93E00E94642A60EB48
:1010E0007CE081EA93E00E94312940E150E070E029
:1010F00060E081EA93E00E942C2A65E97CE081EAC5
:1011000093E00E9431294AE050E060914A0281EA6E
:1011100093E00E94642A68E87CE081EA93E00E9400
:1011200031294AE050E064E670E081EA93E00E94F1
:101130002C2A6BE77CE081EA93E00E9431294AE0A7
:1011400050E06EE170E081EA93E00E942C2A6EE6A6
:101150007CE081EA93E00E9431294AE050E060910E
:10116000120181EA93E00E94642A61E67CE081EA50
:1011700093E00E9431292AE030E040E052E16AE742
:1011800070E081EA93E00E943E2A62E57CE081EA19
:1011900093E00E9431292AE030E040E950ED63E01D
:1011A00070E081EA93E00C943E2AEF92FF920F9355
:1011B0001F9384B78093490214BE62E084E00E94CA
:1011C0007B2661E083E00E947B2660E083E00E9452
:1011D000B72684E00E94E5267C0161E083E00E945E
:1011E000B72684E00E94E5268C0160E084E00E943E
:1011F0007B2660E083E00E947B26EF2831F48FEFAE
:10120000012B09F082E080937101809171018111BD
:1012100049C083E080937E0010927B0088B1836098
:1012200088B981EC80937C0086ED80937A00809170
:101230007A0086FDFCCF209178008091790090E0C3
:10124000982F8827820F911D9093700180936F01D2
:1012500088B18C7F88B987EC80937C0086ED809381
:101260007A0080917A0086FDFCCF209178008091F1
:10127000790090E0982F8827820F911D909370013C
:1012800080936F0188B188B910927E0080916F01C0
:101290009091700181529340873C910518F481E050
:1012A0008093710126E040E950ED63E070E081EA4F
:1012B00093E00E94E8270E94E9070E946F0790E0F0
:1012C00080E00E946D0780934C0281E090E00E94D4
:1012D0006D0780934A0282E090E00E946D07809340
:1012E000120180917101EE24E394823029F0E12C07
:1012F00007E026E0813011F001E020E041E08111BB
:1013000001C040E060E875E280E090E00E94591D75
:1013100080910C010E94822280914D020E947F22C6
:1013200080910D0190910E010E943D1F60E08EE4BE
:1013300092E00E94531D64E47CE081EA93E01F91F7
:101340000F91FF90EF900C9468297F936F9326E2A2
:1013500031E03F932F939F938F930E946C2B0F90BC
:101360000F900F900F900F900F9008957F936F93B1
:1013700029E231E03F932F939F938F930E946C2B30
:101380000F900F900F900F900F900F900895EF9285
:10139000FF920F931F93CF93DF93F82ED92FE62E52
:1013A00080911201882331F061E47CE081EA93E0CE
:1013B0000E9431298091120180FF06C066E37CE023
:1013C00081EA93E00E943129C0916E010F2D1D2FFB
:1013D000E00EF12EF11CE016F10629F1F801D19191
:1013E0008F01D03128F460E381EA93E00E945D2907
:1013F00040E150E06D2F81EA93E00E945D2A309138
:101400000201332341F328E08C2F90E095958795D6
:10141000CD27C0FF06C0C32FC827D6952150A1F7FE
:10142000DACFC82FFACF80910201882371F0C03142
:1014300028F460E381EA93E00E945D2940E150E0F6
:101440006C2F81EA93E00E945D2A81EA93E0DF91AC
:10145000CF911F910F91FF90EF900C9464290C9401
:101460006F252F923F924F925F926F927F928F9251
:101470009F92AF92BF92CF92DF92EF92FF920F9323
:101480001F93CF93DF93CDB7DEB76C970FB6F89469
:10149000DEBF0FBECDBF90917101923049F48091B3
:1014A0006801813009F464C060F1823009F46AC0D7
:1014B0008091680181110C94D51A81EA93E00E9411
:1014C00028278C0197FF02C00C94D51A80917201D5
:1014D000E0910301F09104010A30110511F40C941C
:1014E000891A833610F00C948D1A9F012F5F3F4F9D
:1014F000309304012093030100838F5F8093720176
:10150000D7CF1C992AC081E08093680161E08EE406
:1015100092E00E944D1D60E08EE492E00E94531D17
:1015200081EA93E00E9444286C960FB6F894DEBFDF
:101530000FBECDBFDF91CF911F910F91FF90EF9024
:10154000DF90CF90BF90AF909F908F907F906F90E3
:101550005F904F903F902F9008951D99A9CF909341
:10156000680160E08EE492E00E944D1D61E0D4CFFE
:101570001D99DACF9093680161E08EE492E00E94B9
:10158000531DD2CF1D9BD0CF109268012EEC31E0BD
:1015900030930401209303011092720110926401B0
:1015A0008093000126E040E950ED63E070E081EABD
:1015B00093E00E94E82760E08EE492E00E94531DD1
:1015C00061E08EE492E00E944D1D0E94E907ACCFDD
:1015D00081112AC080916801811106C069ED7BE00C
:1015E00081EA93E00E94312980916801811106C04F
:1015F0006EEC71E081EA93E00E94552980916801C8
:10160000811105C06F2D81EA93E00E945D298091D0
:101610006801811106C066ED7BE081EA93E00E94DB
:10162000682981E080936401109200010C94CD1A26
:101630001082882381F0A82FB0E0A353BE4F9C9165
:101640009D3049F48150809372013197F0930401E9
:10165000E09303011082809100018230A1F5809116
:101660006801811106C06DEB7BE081EA93E00E9486
:10167000312980916801909172019A3098F46EEC52
:1016800071E08111D1CF81EA93E00E9455298091C8
:1016900068018111C9CF61E371E081EA93E00E94A2
:1016A0007A29C2CF1092D701811106C06EEC71E089
:1016B00081EA93E00E945529809168018111B4CF9D
:1016C0006DE271E0E0CF8130C9F480916401811155
:1016D000ABCF80916801811106C060EA7BE081EAAE
:1016E00093E00E9431298091680181119ACF6EECBC
:1016F00071E081EA93E00E947A2993CF80911201F0
:10170000813011F08430F1F480916801811106C0BC
:1017100062E97BE081EA93E00E94312980916801CF
:10172000811106C06EEC71E081EA93E00E945529B8
:1017300080916801811106C064E371E081EA93E061
:101740000E947A2983ED91E0909304018093030134
:1017500044E050E066E371E08EEC91E00E945E2B85
:101760006C01892B11F00C94CD1A8091D201873530
:1017700009F462C40CF0FFC08B3409F41CC10CF0F6
:1017800072C0863409F405C1E4F4882309F4C0C1A9
:101790008A3209F4D2C180916801811106C069E2E0
:1017A00074E081EA93E00E943129809168018111FF
:1017B0000C94CD1A6091030170910401615071097C
:1017C000D7C1873409F4A0C3883429F78091120166
:1017D000882351F080916801811106C066E578E0A8
:1017E00081EA93E00E943129BE016B5E7F4F8091B8
:1017F0000301909104010E94B609019799F48D8923
:1018000080936E0180911201882311F40C94CD1AFB
:1018100080916801811106C06EE478E081EA93E06E
:101820000E94312980916801811106C06BE478E043
:1018300081EA93E00E9431298091680190916E01C4
:10184000903138F4811105C060E381EA93E00E9491
:101850005D298091680140E150E060916E01811145
:101860000C94CD1A9DC3843509F4C1C00CF03FC05F
:101870008C3409F412C58F3409F08DCF8091120198
:10188000882351F080916801811106C06FED77E0E7
:1018900081EA93E00E9431296DE071E080910301BB
:1018A000909104010E94A5090197B9F480910D015E
:1018B00090910E010E943D1F80911201882311F426
:1018C0000C94CD1A8091680181110C94CD1A67EDAA
:1018D00077E081EA93E00E943129809168018111CB
:1018E0000C94CD1A60910D0170910E01C4C1853523
:1018F00009F45CC3863509F04ECF809168018111EF
:1019000006C060E478E081EA93E00E943129BE01DC
:10191000695E7F4F80910301909104010E94A509A7
:101920000197C9F48F89988D059720F084E090E0A5
:10193000988F8F8B80916801811106C068E378E0F1
:1019400081EA93E00E9431296F896093120182E05D
:1019500090E00E94590780916801811108C04AE017
:1019600050E06091120181EA93E00E94642A0E9493
:10197000E9070C94CD1A8C3609F48FC46CF58736C0
:1019800009F4C2C294F4883509F482C0863609F09D
:1019900002CF80914C028111F1C08091680165E312
:1019A0007BE081110C94CD1AC2C0883609F40ECFA9
:1019B0008B3609F0F0CE80916801811106C061EB91
:1019C00076E081EA93E00E946829E0916C01F09151
:1019D0006D0109950C94CD1A853709F4E7C20CF016
:1019E0004FC08F3609F44ACF843709F0D4CE8091A6
:1019F0001201882351F080916801811106C06FE2C5
:101A000078E081EA93E00E9431296FE071E08091F3
:101A10000301909104010E94A509019739F5809175
:101A20000F0190911001029780F482E090E0909372
:101A3000100180930F0180916801811106C067EF4A
:101A400077E081EA93E00E94312980911201882396
:101A500011F40C94CD1A8091680181110C94CD1A67
:101A60006FEE77E081EA93E00E943129809168016E
:101A700060910F017091100181110C94CD1AFBC07F
:101A8000873709F4D9C20CF438CF883709F083CEF0
:101A900080911201882351F080916801811106C064
:101AA00065EB77E081EA93E00E943129BE01695E2F
:101AB0007F4F80910301909104010E94A50981301C
:101AC0009105E1F42F89388D232B11F0988F8F8B9E
:101AD0008F8980930C010E948222809112018823B9
:101AE00011F40C94CD1A8091680181110C94CD1AD7
:101AF0006DEA77E081EA93E00E94312980916801E4
:101B000081110C94CD1A4AE050E060910C0148C25A
:101B100080911201813021F0843011F00C94CD1AA3
:101B2000809168016CE77BE081110C94CD1A81EA09
:101B300093E00E9468290C94CD1A809112018130A3
:101B400021F0843011F00C94CD1A8091680181113C
:101B500006C06FE67BE081EA93E00E943129809124
:101B60006801609103017091040181110C94CD1AF8
:101B700081EA93E00E947A290C94CD1A8091480260
:101B8000882341F08091680168E07BE081110C942A
:101B9000CD1ACDCF80E492E09F938F9384E492E0BE
:101BA0009F938F9386E492E09F938F938BE391E0D2
:101BB0009F938F9383ED91E09F938F930E946C2B63
:101BC0009C019C8B8B8B0FB6F894DEBF0FBECDBFF4
:101BD000909168012330310509F047C18091460298
:101BE0008833F1F08B33E1F0911106C06CEF7AE0AD
:101BF00081EA93E00E94312980916801811108C037
:101C000040E150E06091460281EA93E00E945D2A43
:101C10008091680167EE7AE081110C94CD1A87CF2C
:101C200020914402309145022231310598F4F901A6
:101C3000EB7FE330F10571F02530310559F0A90152
:101C4000495051094730510528F020313105D9F468
:101C50008833E1F4911106C065E97AE081EA93E006
:101C60000E9431298091680160914402709145027F
:101C700081110C94CD1A4AE050E081EA93E00E9471
:101C80007C2A0C94CD1A2131310511F34091400288
:101C90005091410260914202709143024F3F5105C1
:101CA00061057105F1F0E8F0911106C063E87AE092
:101CB00081EA93E00E9431298091680181110C949E
:101CC000CD1A4091400250914102609142027091C0
:101CD00043022AE030E081EA93E00E948E2A0C94CD
:101CE000CD1A2115310561F44230510561057105A8
:101CF00008F455C061E57AE091110C94CD1A17CF24
:101D00002130310581F4405651096109710948308B
:101D100051056105710508F442C06BE07AE091114C
:101D20000C94CD1A04CF329799F46A017B01EAE052
:101D3000CE1AD108E108F108F5E1CF16D104E1048B
:101D4000F10430F066EB79E091110C94CD1AEFCEEE
:101D50002430310519F02830310599F46A017B01EE
:101D600081E1C81AD108E108F108E1E4CE16D104F6
:101D7000E104F10430F091110C94CD1A63E679E09E
:101D8000D6CE2131310559F4443051056105710534
:101D900030F062E279E091110C94CD1AC8CE8091B6
:101DA0000A01882309F45BC08F3F19F081508093AA
:101DB0000A0181E080934802911106C06CEF78E03F
:101DC00081EA93E00E94312980916801811108C065
:101DD00040E150E06091460281EA93E00E945D2A72
:101DE00080916801811106C06DEE78E081EA93E090
:101DF0000E9431298091680181110AC060914402DA
:101E0000709145024AE050E081EA93E00E94762A10
:101E100080916801811106C060EE78E081EA93E06C
:101E20000E9431298091680181110EC040914002C9
:101E300050914102609142027091430220E130E0F2
:101E400081EA93E00E94502A8091680181110C94EC
:101E5000CD1A81EA93E00E9464290C94CD1A6FEBAD
:101E600078E091110C94CD1A62CE911106C066E80B
:101E700078E081EA93E00E9431296B897C89809126
:101E80006801811106C04AE050E081EA93E00E94B7
:101E9000252A809168012B893C8912161306A4F427
:101EA000811106C06EE778E081EA93E00E94312953
:101EB00080916801811108C040E150E060914602C4
:101EC00081EA93E00E945D2A809168012B893C8918
:101ED000223031050CF4B8CF811106C068E778E0F4
:101EE00081EA93E00E9431298091680181110C946C
:101EF000CD1A60914402709145024AE050E081EAB7
:101F000093E00E94762AA0CF80911201882351F09D
:101F100080916801811106C06DE678E081EA93E066
:101F20000E943129BE016B5E7F4F80910301909129
:101F300004010E94B609019799F48D8980930201EA
:101F400080911201882311F40C94CD1A80916801BC
:101F5000811106C065E678E081EA93E00E943129AC
:101F600080916801811106C062E678E081EA93E021
:101F70000E9431298091680190910201903138F4DA
:101F8000811105C060E381EA93E00E945D298091A0
:101F9000680140E150E06091020181110C94CD1A7A
:101FA00081EA93E00E94642A0C94CD1A8091120178
:101FB000882351F080916801811106C065EC77E0BB
:101FC00081EA93E00E943129BE01695E7F4F8091D2
:101FD0000301909104010E94A5090197E1F48F8902
:101FE00080934D02823018F081E080934D02809101
:101FF0004D020E947F2280911201882311F40C94DB
:10200000CD1A80916801811112C06DEB77E081EAF1
:1020100093E00E94312980916801811108C04AE053
:1020200050E060914D0281EA93E00E94642A88ECBE
:10203000809301010C94CD1A80914C02882309F4FD
:1020400083C080915002811104C080915202882384
:1020500041F08091680168E777E081110C94CD1A16
:1020600066CD80911201882351F080916801811121
:1020700006C06BE577E081EA93E00E943129109277
:102080004F02109251028E010D5E1F4F7E01F1E151
:10209000EF0EF11CF5E4CF2EF1E0DF2EBB24B3945C
:1020A0001F930F93FF92EF92DF92CF9280910401E2
:1020B0008F93809103018F930E946C2B0FB6F8943D
:1020C000DEBF0FBECDBF019761F080916801909196
:1020D00050029111BBCE67E377E081110C94CD1AC9
:1020E00026CD29893A8980914F028F5F80934F02D4
:1020F000B092500280910301909104014B895C8958
:10210000840F951F90930401809303018091120125
:10211000882331F2809168012031310544F4811126
:1021200006C06BE471E081EA93E00E94552980913A
:1021300068018111B5CF69897A8940E150E081EA6F
:1021400093E00E94252AACCF80911201882351F0A0
:1021500080916801811106C06BE277E081EA93E02B
:102160000E94312905EB11E07E0183E1E80EF11CAC
:102170005E0191E1A90EB11CE5E48E2EE1E09E2EF8
:10218000FF92EF92BF92AF929F928F928091040143
:102190008F93809103018F930E946C2B0FB6F8945C
:1021A000DEBF0FBECDBF0197B1F529893A89FFEF98
:1021B000CF1ADF0AF80121938F01809103019091DA
:1021C00004014B895C89840F951F909304018093CF
:1021D0000301809112018823C9F0809168012031A8
:1021E000310544F4811106C06BE471E081EA93E0AB
:1021F0000E94552980916801811108C069897A89F6
:1022000040E150E081EA93E00E94252A39E1C316BB
:10221000D10409F0B5CF80911201811118C00E943C
:10222000421F882329F1C114D104D1F020910F015C
:1022300030911001E0906E01009102014C2D65EB90
:1022400071E08EE492E00E940A260C94CD1A8091EF
:1022500068018111E4CF81EA93E00E946429DFCF15
:10226000809168016AE077E081110C94CD1A5FCC0F
:1022700080916801811106C069EC76E081EA93E003
:102280000E946829809153028F3F11F40C94CD1A5B
:102290008F5F809353020C94CD1ABE01695E7F4F0D
:1022A00083ED91E00E94A509019709F0D8C08F89BC
:1022B000988D8336910549F580916801909150027F
:1022C000992331F06FE876E081110C94CD1A2FCC70
:1022D00090915202992331F06DE676E081110C94D1
:1022E000CD1A25CC90915102911106C06BE376E096
:1022F00081110C94CD1A1BCC91E09093520264E1B1
:1023000076E081110C94CD1A12CC8630910510F430
:10231000049711F4188E1F8A8F89988D80FF86C0CC
:102320008091680190910901953030F465EC75E079
:1023300081110C94CD1AFBCB90914C02992311F191
:10234000811106C06AEA75E081EA93E00E943129B2
:1023500080916801811108C040E150E060914C0219
:1023600081EA93E00E94642A8F89988D029710F089
:102370000C94CD1A60914C0290E080E00E945907C5
:102380000C94CD1A909105019530E9F5811106C0A4
:102390006AE375E081EA93E00E94682980EF809308
:1023A0004C028F89988D21E08530910509F420E059
:1023B0002093110160EF029708F44CC08091120144
:1023C000882311F40C94CD1A8091680167E574E0BC
:1023D000882309F44FC08091680190914C0290319C
:1023E00040F4811106C06BE471E081EA93E00E9441
:1023F00055298091680140E150E060914C028111C3
:102400000C94CD1ACDCD811106C06AEE74E081EA3C
:1024100093E00E946829809168018111CFCF6BE819
:1024200074E081EA93E00E946829C8CF20914C02B1
:10243000211108C0809168016EE674E081110C944E
:10244000CD1A75CB10924C0210924802029708F0F8
:10245000B5CF60E090E080E00E945907AFCF809157
:10246000680190911201992309F4B5CF8111B3CF7E
:1024700064E474E081EA93E00E943129ACCF80915A
:102480004D028823A1F080910101882019F0863047
:1024900008F07CC090919401903409F074C0909140
:1024A0009501903F09F06FC0833308F06FC08091B1
:1024B00001018F5F893C08F054C2809301011092A2
:1024C000A402882D8F7309F450C241145104610491
:1024D000710409F46DC3809156028F3F29F08F5F1C
:1024E000809356028092550280910901882309F455
:1024F0005FC381508093090181115AC380916801A3
:10250000811106C061E673E081EA93E00E946829C8
:1025100080914A02882351F080916801811106C0A0
:1025200068E373E081EA93E00E94682980914C029D
:10253000882351F080916801811106C062E173E047
:1025400081EA93E00E94682910924C0210924A029C
:1025500010924B0280916801811106C065E972E01A
:1025600081EA93E00E94682960914C0290E080E04B
:102570000E94590760914A0281E090E00E94590749
:102580001092480215C3873908F491CF90915F02E9
:10259000911105C09091A102903F09F488CF855018
:1025A0008093010180916801882009F47DC060E07A
:1025B00074E0882309F47CC080919401803148F450
:1025C00080916801811105C060E381EA93E00E9477
:1025D0005D2980916801811108C040E150E060915F
:1025E000940181EA93E00E945D2A809195018031F7
:1025F00048F480916801811105C060E381EA93E0AD
:102600000E945D2980916801811108C040E150E07D
:102610006091950181EA93E00E945D2A8091960184
:10262000803148F480916801811105C060E381EA3E
:1026300093E00E945D2980916801811108C040E10A
:1026400050E06091960181EA93E00E945D2A8091BA
:102650006801811105C060E281EA93E00E945D2972
:102660008091A102803F49F100915F02802F90E0AC
:102670009A8F898FF92CA98DBA8DA457BD4FEC91F3
:1026800080916801E75FE93008F064C0F0E0E55B45
:10269000FC4E0C94582BA5137E13A01396138C1389
:1026A00060139B1391138713811186CF6DEF73E035
:1026B00081EA93E00E9431297FCF1A8E198EDACFFA
:1026C00064EF73E08823F1F0E98DFA8D3196FA8F8B
:1026D000E98F769711F41A8E198E80915F02298DF9
:1026E0003A8D8217130609F0C6CF809168018111D7
:1026F000DECE81EA93E00E946429D9CE6BEE73E0CE
:102700008111E2CF81EA93E00E943129DDCF62EEB0
:1027100073E08111D9CFF6CF69ED73E08111D4CF89
:10272000F1CF60ED73E08111CFCFECCF67EC73E0B8
:102730008111CACFE7CF6EEB73E08111C5CFE2CF35
:1027400065EB73E08111C0CFDDCF8111BDCF6CEAA5
:1027500073E0D8CF1C91107E0C910F71298C3A8CAC
:10276000220C331CF1104BC0103439F4811105C018
:1027700060E281EA93E00E945D29F101E05AFD4F99
:10278000E080F1808091620190916301E81AF90A7A
:1027900043E0F694E7944A95E1F79AE0E916F104EC
:1027A00098F480916801811105C060E281EA93E0AC
:1027B0000E945D2980916801811121C060E281EA57
:1027C00093E00E945D2904C0E4E6EE16F10490F364
:1027D00080916801811113C04AE050E0B70181EA9D
:1027E00093E00E94762A80916801103409F49CC716
:1027F000811105C06AE381EA93E00E945D29F1013D
:10280000E05AFD4F80819181909363018093620132
:1028100080916801103689F148F4112301F11034D8
:1028200009F48BC760E281115DC069C0103A21F0E4
:10283000103C11F01038B1F70A3008F04BC00230EC
:1028400008F472C081114EC0802F8250990BBC01D8
:102850004AE050E081EA93E00E94252A54C08111A9
:1028600005C06FE381EA93E00E945D2980916801D1
:102870006AE973E081116CC06FC0033140F403302A
:10288000D0F4013070F481110FC060E205C0053151
:10289000D0F760E5811108C081EA93E00E945D29CC
:1028A00003C063E58823C1F38091680164E973E0A4
:1028B00081114EC051C08111F7CF202F2350330B0F
:1028C000B901759567954AE050E081EA93E00E946E
:1028D000252AEACF0A3081F00B3009F0A3CF65E456
:1028E000882369F0103601F308F039C7112309F481
:1028F000BDCF103469F528C760E58111F3CF81EAB7
:1029000093E00E945D29103679F2809168011136BA
:1029100078F4112309F4AACF103409F415C78111F2
:1029200017C06AE873E018C08111DCCF63E5E7CF18
:10293000103A51F0103C09F407C7103881F76EE9DE
:1029400073E0882349F004C080916801882311F066
:10295000F12CBACE68EA73E081EA93E00E94312953
:10296000F7CF38EC30930101AACD8091940181100A
:102970001FC19AE0C916D1040CF066C0811134C0A1
:102980008091950190E1980F923010F08F3F49F4BB
:1029900090919601903329F4909167019F5F9093F5
:1029A0006701807F803F01F180916701909166010E
:1029B0009817C0F48093660180916801811106C068
:1029C00065E872E081EA93E00E9431298091680114
:1029D000811108C04AE050E06091660181EA93E00D
:1029E0000E94642A1092670180914B02882309F4A7
:1029F000DAC0F5E0CF16D1040CF4DAC0909194015E
:102A0000911120C0E0919501EF3F21F09E2F9E7F14
:102A1000903FC1F4909196019033A1F4E370F0E0FF
:102A2000EB5FFE4F9081953069F4209167019091A2
:102A30006601291307C090916501992339F19150DE
:102A400090936501912C52C08111CECF8091950158
:102A5000811196CF80919601823109F091CF8091BA
:102A60009A0180933F0290910B01891709F488CF56
:102A700090914A02992339F090914B02911103C031
:102A8000E1E0E0934B0280930B017ACF1092B50105
:102A90001092B60198EB9093B70181508093B801E2
:102AA0000E94421F882309F46BC0E0906E010091E0
:102AB00002012EE130E044E065EB71E08EE492E04B
:102AC0000E940A2680914B028F5F80934B028730D1
:102AD00011F410924B0280914C02882339F08091BE
:102AE0006601813019F483E080936501809194013F
:102AF000803409F07FC080919501982F9E7F903F90
:102B000019F08F3F09F054C0909196019073903363
:102B100009F04EC029813A812C31310508F048C0B6
:102B2000E82FE370F0E0EB5FFE4F108290914C02D3
:102B300089133EC080916801811106C061EF71E088
:102B400081EA93E00E94312980916801811108C0D7
:102B500040E150E06091950181EA93E00E945D2A96
:102B600080916801811106C067EE71E081EA93E00F
:102B70000E94682910924C0260E090E080E0FECC58
:102B800080916801811106C064E372E081EA93E0FC
:102B90000E946829809153028F3F09F493CF8F5F81
:102BA000809353028FCF25E0C216D1040CF04ACF98
:102BB000809194019091500291118CC18111CBC5EB
:102BC00080919501811109C080919601823129F48B
:102BD000C0924F0231E030935102809195018111F2
:102BE00087C1809196018F3109F082C195E0909361
:102BF0006A017EC18111DCCFE09195018E2F8E7F1D
:102C0000803FB1F680919601982F9073903381F6B2
:102C10009110CECF8033A9F5E370F0E0EB5FFE4F6B
:102C20008081853074F58F5F8083853051F5809188
:102C30006801811106C065EB71E081EA93E00E94B2
:102C4000312980916801811108C040E150E0609114
:102C5000950181EA93E00E945D2A809168012091AC
:102C6000950190914C02291387C0811106C067E835
:102C700071E081EA93E00E9468291092500210925C
:102C8000520290914C02992341F0E92FE370F0E059
:102C9000EB5FFE4F80818530B1F020915002809132
:102CA0009401211105C020915202222309F486CFFC
:102CB000E92FE370F0E0EB5FFE4F2081253009F053
:102CC00077CF811175CF80919501981371CF80E4F2
:102CD0008093B5019093B601809196018093B701DE
:102CE00080910201882309F450C0C60101974A97D8
:102CF000ACF080916801811106C062E171E081EA67
:102D000093E00E94312980916801811107C04AE057
:102D100050E0B60181EA93E00E942C2A809196014E
:102D2000873309F459C098F594E6292E312C13E025
:102D3000803309F03DCF0E94421F882309F4B7C0B9
:102D4000E0906E01009102019101412F65EB71E06D
:102D50008EE492E00E940A2680914702209131027F
:102D600030913202820F932F911D90933202809303
:102D70003102109247021CCF811183CF6EE371E0C4
:102D800081EA93E00E9468297CCFC601B0CF8B33E3
:102D900089F18C3309F00CCF81E0909111019111F0
:102DA00001C080E01092B8011092B90190914802E0
:102DB000992381F0209146022C3361F4E091440282
:102DC000F0914502EB54FE4F209140022383915035
:102DD0009093480215E007C081E090911101911194
:102DE00001C080E013E02EE1222E312C882309F46B
:102DF000DFCEA1CF81E090911101911101C080E05F
:102E00001092C2011092C3011092C4011092C50128
:102E10001092C6011092C701909197019170909302
:102E2000B80190919901977090669093B901909133
:102E30009B019093BA011092BB0190919D019076F5
:102E400091619093BC011092BD0190919F0190936C
:102E5000BE011092BF019091A10190769161909373
:102E6000C0019091A2019F779093C1019091A80118
:102E70009093C8019091A90193709093C901109209
:102E8000CA0190914802992381F0209146022B3388
:102E900061F4E0914402F0914502EB54FE4F209121
:102EA0004002238391509093480216E19CCF809179
:102EB0006801811106C06AEB70E081EA93E00E942C
:102EC0006829809153028F3F09F453CF8F5F80931D
:102ED00053024FCF803409F036C1809195018111A2
:102EE00007C080919601803119F485E080936B01D1
:102EF000882009F43BC18091680167EB70E088236A
:102F000009F440C18091120180FD03C0882009F4BA
:102F100063C080916801811106C061EB70E081EAB5
:102F200093E00E94312989819A818031974248F447
:102F300080916801811105C060E281EA93E00E94FE
:102F40005D2989819A8120916801883E33E0930749
:102F500008F01DC1211105C060E381EA93E00E94E1
:102F60005D2980916801811106C06FEA70E081EAF5
:102F700093E00E94312989819A818436910548F431
:102F800080916801811105C060E381EA93E00E94AD
:102F90005D2989819A810A9748F48091680181119D
:102FA00005C060E381EA93E00E945D298091680199
:102FB000811108C069817A814AE050E081EA93E09A
:102FC0000E94762A80916801811106C06CEA70E047
:102FD00081EA93E00E94312980911201843018F037
:102FE000882009F45FC304E911E0760181E0E81A62
:102FF000F108809168019801245931402C153D0554
:103000000CF0DAC090911201992361F0F5019081E2
:1030100090FF08C0811106C067EA70E081EA93E082
:103020000E94312980911201882371F0F50180817D
:1030300081FF0AC080916801811106C062EA70E0D8
:1030400081EA93E00E94312980911201882371F076
:10305000F501808185FF0AC080916801811106C059
:103060006DE970E081EA93E00E94312980911201BC
:10307000882371F0F501808182FF0AC08091680188
:10308000811106C068E970E081EA93E00E9431296D
:10309000F80191908F01809102018823A9F080911D
:1030A0001201813089F48B8D9C8D8E0F9F1FE81645
:1030B000F90651F480916801811126C262E970E03D
:1030C00081EA93E00E943129FFE0F91548F08091F0
:1030D0006801811110C060E381EA93E00E945D29DC
:1030E00080916801811107C040E150E0692D81EABB
:1030F00093E00E945D2A80911201882371F0F5010E
:10310000808183FF0AC080916801811106C06DE84B
:1031100070E081EA93E00E943129809112018823B6
:1031200071F0F501808184FF0AC0809168018111EE
:1031300006C062E870E081EA93E00E943129FFEF67
:10314000AF1ABF0A56CF882309F447CD803809F05B
:10315000CFCE809195018111CBCE8091960188319F
:1031600009F0C6CEE5E0E0936901C2CE809112017C
:103170008150833008F0C6CE809168018111C2CEA3
:1031800064EB70E081EA93E00E943129BBCE21110B
:103190000AC068EE73E00E94222B4AE050E081EA08
:1031A00093E00E94762A89819A8168EE73E00E94FA
:1031B000222B9A838983D5CE882089F1811106C07C
:1031C00064E770E081EA93E00E9431292FE028153E
:1031D00048F080916801811105C060E381EA93E0C5
:1031E0000E945D2980916801811105C060E381EA38
:1031F00093E00E945D2980916801811105C060E320
:1032000081EA93E00E945D298091680181114AC2A0
:1032100040E150E0682D81EA93E00E945D2A8091B0
:10322000680181113FC281EA93E00E9464293AC299
:1032300080916B01853008F472C010926B0110927E
:10324000B5011092B6018DE08093B70180917101B4
:10325000882309F450C1CE0101966C01FE01399614
:103260007F018E01055F1F4F9E012B5F3F4FAE0117
:10327000435F5F4FBE01615F7F4F8EE492E00E942B
:10328000ED1C8F8598899093B8018093B9018D8545
:103290009E859093BA018093BB018D819E812F8181
:1032A00038853093BC012093BD019093BE0180937B
:1032B000BF018B859C859093C0018093C101898556
:1032C0009A859093C2018093C30189819A812B8151
:1032D0003C813093C4012093C5019093C601809333
:1032E000C701809111018093C80190914C02911106
:1032F00001C080E08093C901809166018093CA017A
:103300001092CB0180916801811109C08091120156
:10331000843028F467E185EB91E00E94C709809131
:103320006A01853008F458C010926A011092B50104
:103330001092B6018EE08093B7017092B80160924E
:10334000B9015092BA014092BB011092BC018AE7C8
:103350008093BD0182E18093BE011092BF018091F4
:1033600053028093C00180914A028093C1018091F1
:103370004B028093C201809154028093C3018091DB
:1033800048028093C401809146028093C5018091D8
:103390004402909145029093C6018093C7018091A9
:1033A00040029091410220914202309143023093B9
:1033B000C8012093C9019093CA018093CB018091E9
:1033C0006801811109C080911201843028F467E1FD
:1033D00085EB91E00E94C70980916901853010F466
:1033E0000C94940A109269011092B5011092B601E2
:1033F0008FE08093B7018DE58093B801E0901201D2
:10340000E092B901809149028093BA0180910A014A
:103410008093BB01809109018093BC0180913102AE
:10342000909132029093BD018093BE0180910F0173
:10343000909110019093BF018093C00180910D0184
:1034400090910E019093C1018093C201809171010E
:103450008093C30190E080E00E946D078093C401D7
:1034600082E090E00E946D078093C50181E090E0CA
:103470000E946D078093C6018CE1C82E81E0D82E92
:1034800000E110E0FF24F394C8010E946D07F601EB
:1034900021916F01022E000C330B91E0821713066D
:1034A00009F090E0F9220F5F1F4F0931110561F714
:1034B000F092C70180914D028093C801809156021D
:1034C0008093C901809155028093CA0180914C027A
:1034D0008093CB018091680181110C94940AF3E0F0
:1034E000FE1510F40C94940A67E185EB91E00E94BC
:1034F000C7090C94940AE8EBF1E088EC91E0119292
:103500008E179F07E1F7EDCE2FE0291508F4F7CDD0
:10351000DECD833611F00C94180BF290108280915E
:1035200064010A30110511F40C94E80A811132C0CB
:1035300080916801811106C065E07CE081EA93E03A
:103540000E94312980916801811106C06EEC71E002
:1035500081EA93E00E94552980916801811105C09C
:103560006F2D81EA93E00E945D29809168018111AD
:1035700007C04AE050E0B80181EA93E00E94252AA2
:1035800080916801811106C062E07CE081EA93E0ED
:103590000E94682981E0809300018EEC91E0909375
:1035A000040180930301109272018EE492E00E9464
:1035B00049262B013C0180913B0290913C02A09155
:1035C0003D02B0913E0284159505A605B705BCF4F1
:1035D00080916B018F5F80936B0180916A018F5F97
:1035E00080936A01809169018F5F809369014092A5
:1035F0003B0250923C0260923D0270923E028091EA
:10360000370290913802A0913902B0913A02AC0190
:10361000BD01415F514F6F4F7F4F44155505660502
:1036200077059CF420910A01243618F42F5F20932B
:103630000A01805F914FAF4FBF4F80933702909345
:103640003802A0933902B0933A02809133029091EC
:103650003402A0913502B0913602AC01BD01415F48
:10366000514F6F4F7F4F44155505660577059CF404
:1036700020910901243118F42F5F20930901805F04
:10368000914FAF4FBF4F8093330290933402A0937A
:103690003502B093360284E991E09C012095309583
:1036A0003C8F2B8F8EE492E00E945525982E882324
:1036B00009F4BECDC0906E01E090020101E223E763
:1036C00031E0AE014F5F5F4F64E971E08EE492E05C
:1036D0000E9487256C01812C8297B4F0809168014B
:1036E000811106C063E074E081EA93E00E946829DA
:1036F000809154028F3F19F08F5F8093540271E2E2
:10370000C72ED12C88248A9463E7A62E61E0B62EBA
:10371000F501CF01835791408C159D0514F00C9451
:103720003F128191882AF5CFF101E05AFD4F2081A7
:1037300031813093630120936201811105C060E201
:1037400081EA93E00E945D29809168016EE873E050
:103750008111FEC801C9803409F0F8CCBECB103A03
:1037600009F4F2C8103C09F0F3C8EECF1F920F9293
:103770000FB60F921124CF92DF92EF92FF922F9308
:103780003F934F935F936F937F938F939F93AF93E9
:10379000BF93809178002091790030E0322F22276A
:1037A000820F932F911DB0E0A0E0209117012223FA
:1037B00009F493C01092170120919D0320937C007F
:1037C00020918F03309190032F5F3F4F30939003F0
:1037D00020938F034091890350918A0360918B035A
:1037E00070918C03840F951FA61FB71F80938903C8
:1037F00090938A03A0938B03B0938C03A901542F59
:1038000044275295507F452B09F051C040918503C4
:10381000509186036091870370918803480F591F68
:103820006A1F7B1F40938503509386036093870331
:1038300070938803C0901A01D0901B01F12CE12CE9
:103840008C159D05AE05BF0520F490931B01809358
:103850001A01C0909B03D0909C03F12CE12CC81658
:10386000D906EA06FB0620F490939C0380939B0301
:103870001092890310928A0310928B0310928C038A
:10388000A4E0220F331FAA95E1F7232B81F4409384
:103890009703509398036093990370939A0310923F
:1038A00085031092860310928703109288038EED91
:1038B00080937A00BF91AF919F918F917F916F918B
:1038C0005F914F913F912F91FF90EF90DF90CF90BC
:1038D0000F900FBE0F901F90189521E020931701B5
:1038E00020919E0320937C0020918D0330918E03C4
:1038F0002F5F3F4F30938E0320938D0340918103C0
:10390000509182036091830370918403840F951F0B
:10391000A61FB71F8093810390938203A093830314
:10392000B0938403A901542F44275295507F452B0F
:1039300009F0BDCF40917D0350917E0360917F03DC
:1039400070918003480F591F6A1F7B1F40937D03AE
:1039500050937E0360937F0370938003C09018019F
:10396000D0901901F12CE12C8C159D05AE05BF05F9
:1039700020F49093190180931801C0909503D09082
:103980009603F12CE12CC816D906EA06FB0620F4B2
:103990009093960380939503109281031092820373
:1039A000109283031092840384E0220F331F8A95C0
:1039B000E1F7232B09F07BCF4093910350939203BF
:1039C000609393037093940310927D0310927E038F
:1039D00010927F03109280036ACFCF92DF92EF9212
:1039E000FF920F931F938091A003882309F44EC088
:1039F00086E880937A0080911A0190911B01FB0167
:103A00009183808380919B0390919C03FA01918321
:103A100080838091970390919803A0919903B0912E
:103A20009A03F90180839183A283B3838091180163
:103A300090911901F8019183808380919503909171
:103A40009603F70191838083809191039091920373
:103A5000A0919303B0919403F60180839183A28394
:103A6000B38380EF9FE390931B0180931A01109220
:103A70009C0310929B03909319018093180110925C
:103A80009603109295038EE880937A001F910F9110
:103A9000FF90EF90DF90CF900895662311F0429A47
:103AA000089542980895662311F05B9A08955B98F3
:103AB00008958F929F92AF92BF92EF920F93CF9300
:103AC000DF934B015C01D42FC22F96958795779594
:103AD00067957E5E85489F4FA50194010E94362B15
:103AE00030937C0320937B03B90176956795CB01D6
:103AF000820F931F90937A0380937903C901F3E0B7
:103B000096958795FA95E1F7860F971F909378031E
:103B1000809377035695479537952795309376038D
:103B200020937503C901880F991F280F391F3093FF
:103B300074032093730361E082E00E947B2661E0BE
:103B400086E00E947B2661E085E00E947B2661E0A2
:103B500083E00E947B26E0929F03429A80919F031C
:103B6000882309F4A4C05E9880919F03882309F4F8
:103B7000A0C05D985B9A62E088E00E947B2661E0CD
:103B800089E00E94B72661E089E00E947B261092BE
:103B9000B3021092B2021092720310926D038FEF73
:103BA00080936C0310926B0310920603109205032E
:103BB000109200031092FF021092B1021092B00214
:103BC00082E084BD94E095BD99EF97BD1092AB0261
:103BD0001092AC021092AD021092AE021092A702A7
:103BE0001092A8021092A9021092AA0216BC21E01B
:103BF00023BD85BB80936E008093B00023E02093AB
:103C0000B1009093B30083BD1092B2001092B30242
:103C10001092B20287BB8093700010926F001092D6
:103C2000800081E880938100809181008F7B809368
:103C3000810080918000806C809380008091820060
:103C400080688093820080E286BB80916F008062F2
:103C500080936F00D093A003DD2301F18C2F806C43
:103C600080939E03802F806C80939D0321E030E041
:103C7000C90101C0880FCA95EAF701C0220F0A9551
:103C8000EAF7822B8F7380937E0080919E0380934E
:103C90007C0010927B008EED80937A00DF91CF91B3
:103CA0000F91EF90BF90AF909F908F9008955E9A84
:103CB0005BCF5D9A5FCF1F920F920FB60F921124C8
:103CC0008F939F93AF93BF938091A7029091A80287
:103CD000A091A902B091AA020896A11DB11D8093DE
:103CE000A7029093A802A093A902B093AA02809180
:103CF000AF028F5F8093AF028D37A8F01092AF02B2
:103D00008091AB029091AC02A091AD02B091AE0255
:103D10000196A11DB11D8093AB029093AC02A093BC
:103D2000AD02B093AE02BF91AF919F918F910F9072
:103D30000FBE0F901F9018951F920F920FB60F9203
:103D400011242F933F938F939F938091B202909170
:103D5000B302019649F08091B2029091B3020196AC
:103D60009093B3028093B20280910603833609F0E8
:103D70006FC02091B2023091B3028091B002909155
:103D8000B10228173907C1F02091B2023091B30275
:103D90008091B0029091B1022817390708F458C0F9
:103DA0002091B2023091B3028091150190911601D9
:103DB0002817390708F44CC081E08093060320914E
:103DC0007303309174038091A502882321F08091C0
:103DD000A40291E0811190E09093A6028091A60246
:103DE000882351F081E08093A40210925F0280EF5B
:103DF0008093A1021092A30290916F009F7D9093F7
:103E00006F0090916F009B7F90936F0010927000F5
:103E10008091840090918500820F931F9093890078
:103E200080938800809180008F7B806880938000E1
:103E3000809181008F7B80938100B19A80916F0087
:103E4000826080936F0080919F03882351F05D987A
:103E50009F918F913F912F910F900FBE0F901F90C8
:103E600018955D9AF5CF8230910510F482E090E0CC
:103E700090935E0280935D02089590931601809363
:103E8000150108952091FF029091000381E029130C
:103E900080E00895909100039F5F993108F090E0D1
:103EA0002091FF022917E1F36FB7F89420910603E0
:103EB00040915D0250915E022223A9F0292F30E04B
:103EC000F901EA51FD4F8083220F331FF901EC54B1
:103ED000FD4F5183408310925E0210925D029093D9
:103EE00000036FBF08958093040380930203109230
:103EF000010310925C0210925B0283E6809306033A
:103F00005093B1024093B00210925E0210925D0293
:103F1000E8CF1F920F920FB60F9211242F933F9369
:103F20004F935F936F937F938F939F93EF93FF9341
:103F30008091060340918400509185006091880033
:103F4000709189005B98843108F0AFC120917503AE
:103F500030917603260F371F309389002093880015
:103F600093B1917080FFE8C020918000206C209375
:103F7000800020918100206420938100813009F02D
:103F80005EC02091B2023091B30230935A02209366
:103F9000590210927000911192C010925B0293B17D
:103FA0009170B59B59C1209186003091870040E205
:103FB00046BB992309F432C19091A602992359F185
:103FC0009091A202911104C09091A302911123C07B
:103FD000E0915F02F0E0EE0FFF1FE05AFD4F3183EA
:103FE0002083E0915F02F0E0E457FD4F982F906648
:103FF000908390915F029F5F90935F02963111F4DE
:1040000010925F029091A302992329F09091A2024D
:1040100091509093A202809305038F5F80930603D3
:10402000FF91EF919F918F917F916F915F914F9150
:104030003F912F910F900FBE0F901F9018958331D5
:1040400069F422E023BD1092B20061E070E0709349
:10405000B3026093B20227BB209370002091030348
:10406000291709F49CCF90915B02926090935B02B8
:104070009091A602992309F492CF9091A2029111F6
:1040800004C09091A30291118ACF9091A302911143
:1040900006C091E09093A3029BE09093A202E0916E
:1040A0005F02F0E0EE0FFF1FE05AFD4F51834083A7
:1040B000E0915F02F0E0E457FD4F9CEF28C0809351
:1040C0005B029091A602992309F469CF9091A20214
:1040D000911104C09091A302911161CF9091A3021C
:1040E000911106C091E09093A3029BE09093A202ED
:1040F000E0915F02F0E0EE0FFF1FE05AFD4F5183A9
:104100004083E0915F02F0E0E457FD4F9FEF908322
:1041100090915F029F5F90935F02963111F410922D
:104120005F029091A302992309F439CF9091A202E2
:1041300091509093A20233CF823108F05FC020915A
:104140000403622F617020FD0BC0209180002F7B43
:10415000206820938000209181002F7B2093810094
:10416000209101032627209301032091040330E0CE
:10417000359527952093040391113DC090915B02E2
:10418000906290935B029091A6029923A1F1909185
:10419000A202911104C09091A30291112CC09091A0
:1041A000A302911106C091E09093A3029BE090932B
:1041B000A202E0915F02F0E0EE0FFF1FE05AFD4F18
:1041C00051834083E0915F02F0E0E457FD4F9EEFA2
:1041D000908390915F029F5F90935F02963111F4FC
:1041E00010925F029091A302992329F09091A2026C
:1041F00091509093A20260930303D1CE609101038A
:104200006111BACF209180002F7B2068209380001D
:10421000209181002F7B20938100AECF9091A60248
:10422000992309F4F8CE9091A202911104C09091C3
:10423000A3029111F0CEE0915F02F0E0EE0FFF1FBC
:10424000E05AFD4F31832083E0915F02F0E0E457B4
:10425000FD4F982F9064CCCE9111DDCE9091A602A7
:10426000992309F4D8CE9091A202911104C09091A3
:10427000A3029111D0CE9091A302911106C091E0BA
:104280009093A3029BE09093A202E0915F02F0E082
:10429000EE0FFF1FE05AFD4F51834083E0915F0214
:1042A000F0E0E457FD4F97EFA3CE93B19170B59B2B
:1042B000C3C0409186005091870030E236BB9923FD
:1042C00009F4A2C09091A602992351F19091A20203
:1042D000911104C09091A302911122C0E0915F025C
:1042E000F0E0EE0FFF1FE05AFD4F518340838066E0
:1042F000E0915F02F0E0E457FD4F808380915F0220
:104300008F5F80935F02863111F410925F0280917B
:10431000A302882329F08091A20281508093A202F7
:1043200080915B02882329F05B9A8091000380933F
:10433000FF0280911401882339F1E0916D0321E09F
:104340002E0F293108F020E080916B03821709F4C9
:104350009CC0822F90E030910203FC01EE5AFC4F8A
:1043600030834091590250915A02FC01EE0FFF1F19
:10437000E95FFC4F5183408330915B02875C9C4F27
:10438000FC01308320936D03909100038091FF0224
:10439000981709F4AAC08F5F893108F080E08093F4
:1043A000FF0290E0FC01EA51FD4F3081309304039D
:1043B00030930203880F991FFC01EC54FD4F80815C
:1043C000918110925C02109201038230910508F0F5
:1043D00067C080918800909189002091730330918B
:1043E0007403820F931F90938900809388008091BB
:1043F00080008F7B806880938000809181008F7B1C
:104400008093810081E00ACE9091A602992309F45D
:1044100087CF9091A202911104C09091A3029111B3
:104420007FCFE0915F02F0E0EE0FFF1FE05AFD4FFB
:104430005183408380645CCF911172CF8091A6023A
:10444000882309F46DCF8091A202811104C080916C
:10445000A302811165CF8091A302811106C081E082
:104460008093A3028BE08093A202E0915F02F0E0D0
:10447000EE0FFF1FE05AFD4F51834083E0915F0232
:10448000F0E0E457FD4F87EF38CF20916D03E22F26
:10449000F0E0E75CFC4F8081886080835B9A74CF9A
:1044A00033E6309306039093B1028093B00280917B
:1044B0006F008D7F80936F00809181008F7B809350
:1044C000810080E286BB80916F00806280936F00E4
:1044D000E22FF0E0E75CFC4F808180688083809170
:1044E0009F03882329F05D9A9BCD10920603DFCFAE
:1044F0005D9896CD809106038111FCCF089580933D
:10450000A50208958093140108951F920F920FB68B
:104510000F9211242F933F934F935F936F937F9349
:104520008F939F93EF93FF932091860030918700A4
:104530008091840090918500809172038111D0C098
:1045400090919F03992309F451C05E9890919F0325
:10455000992309F44DC05D9A5B9890916C039F3F3D
:1045600039F090916C0390936D039FEF90936C03DF
:104570004091B2025091B30250935A0240935902B3
:10458000109270004091790350917A03420F531FAB
:1045900050936F0340936E0392E0909372031092D6
:1045A000700350938B0040938A0094E096BB9091E7
:1045B0006F00946090936F008111A9C09091A40244
:1045C0009111A5C09091A5029093A6029091A60288
:1045D000992309F49CC091E09093A40210925F0289
:1045E00090EF9093A1021092A30291C05E9AAECF79
:1045F0005D98B2CF9091A602992351F19091A202B9
:10460000911104C09091A302911122C0E0915F0228
:10461000F0E0EE0FFF1FE05AFD4F31832083806AE8
:10462000E0915F02F0E0E457FD4F808380915F02EC
:104630008F5F80935F02863111F410925F02809148
:10464000A302882329F08091A20281508093A202C4
:10465000FF91EF919F918F917F916F915F914F911A
:104660003F912F910F900FBE0F901F9018958A3099
:1046700009F04DC040916E0350916F0360917B0330
:1046800070917C03460F571F50936F0340936E0346
:1046900050938B0040938A0094E096BB9BE01DC032
:1046A0004091710350E055954795409371034091B7
:1046B0006E0350916F0360917B0370917C03460FF2
:1046C000571F50936F0340936E0350938B0040939A
:1046D0008A0094E096BB91E0980F9093720317C004
:1046E0004091570250915802B901641B750B4091DB
:1046F0007703509178036417750708F47BCF8A30ED
:1047000008F0B5CF823060F6813009F426CF909161
:10471000A602992351F19091A202911104C09091A7
:10472000A302911122C0E0915F02F0E0EE0FFF1FA3
:10473000E05AFD4F31832083806CE0915F02F0E00E
:10474000E457FD4F808380915F028F5F80935F020B
:10475000863111F410925F028091A302882329F020
:104760008091A20281508093A2023093580220933C
:1047700057026ECF1F920F920FB60F9211242F93F4
:104780003F934F935F936F937F938F939F93AF93D9
:10479000BF93EF93FF9340918A0050918B0020913B
:1047A000840030918500809172038A30B8F58230A0
:1047B00008F0F9C0813009F4C4C09091A602992391
:1047C00009F4DEC09091A202911104C09091A3025D
:1047D0009111D6C0E0915F02F0E0EE0FFF1FE05AAA
:1047E000FD4F318320838068E0915F02F0E0E45761
:1047F000FD4F808380915F028F5F80935F028631DF
:1048000011F410925F028091A302882309F4B8C0CA
:104810008091A20281508093A202B2C08A3009F432
:10482000E4C08B3051F66091130170E06F5F7F4FF1
:10483000A0917B03B0917C036A9FF0016B9FF00D08
:104840007A9FF00D112460916E0370916F036E0FCB
:104850007F1F70938B0060938A0091E090937203A6
:1048600090916D039F5F993108F090E060916B0328
:10487000691709F4C1C0E92FF0E060917103DF010D
:10488000AE5ABC4F6C936091590270915A02DF018D
:10489000AA0FBB1FA95FBC4F11967C936E93E75C78
:1048A000FC4F1082609170036623D9F160816460CF
:1048B00060836091A6026623A1F16091A20261115A
:1048C00004C06091A30261112CC06091A302611128
:1048D00006C061E06093A3026BE06093A202E091E6
:1048E0005F02F0E0EE0FFF1FE05AFD4F518340835F
:1048F000E0915F02F0E0E457FD4F4DEF40834091BF
:104900005F024F5F40935F02463111F410925F02E5
:104910004091A302442329F04091A20241504093C8
:10492000A20290936C0392E093BD1092B20041E01A
:1049300050E05093B3024093B20297BB9093700043
:104940003CCF80916F008B7F80936F001092720339
:1049500080916C038F3F79F080916C0380936D039D
:10496000E0916D03F0E0E75CFC4F8081806880831C
:104970008FEF80936C0380919F03882391F05E9A60
:10498000FF91EF91BF91AF919F918F917F916F9127
:104990005F914F913F912F910F900FBE0F901F90FD
:1049A00018955E98EDCF90917103969590689093CD
:1049B00071039091700390589093700391E0980F59
:1049C0009093720340916E0350916F0360917B034B
:1049D00070917C03460F571F50936F0340936E03F3
:1049E00050938B0040938A00E8CE909170039058CA
:1049F000909370039BE0E4CFE0916D03F0E0E75CFF
:104A0000FC4F9081986090835B9A90916D0389CF61
:104A100080916D03E0916B038E1761F0EF5FE931D8
:104A200008F0E0E0F0E0EE0FFF1FE95FFC4F80814F
:104A30009181089590E080E0089580916D03E09168
:104A40006B038E1749F0EF5FE93108F0E0E0F0E02A
:104A5000E75CFC4F8081089580E0089580916D03AC
:104A600090916B03891761F09F5F993108F090E096
:104A7000E92FF0E0EE5AFC4F808190936B0308958C
:104A800080E0089520916D0390916B03291728F021
:104A900081E0291309C080E007C030E0275E3F4F66
:104AA00081E092171306B9F3089520916D03809168
:104AB0006B03821769F08F5F893108F080E0E82F7F
:104AC000F0E0E75CFC4F908197FFF3CF81E0089521
:104AD00080E0089580916B0380936D030895CF93D8
:104AE000DF93CFE6D0E088818B7F888388818F7DBC
:104AF00088830E946A250E947A2288818D7F88831C
:104B00001092700010926E00DF91CF9108952F9255
:104B10003F924F925F926F927F928F929F92AF924D
:104B2000BF92CF92EF920F93CF93DF935C013B0143
:104B30002A014901C0E0202F2150330B1401220E1D
:104B4000331EC5010E9442258823D9F3C5010E9466
:104B50001D25D82F8114910441F0982F9F77C017FD
:104B600028F5F401EC0FF11D9083C11106C0C501B9
:104B70000E940825F20191838083C5010E942E25A1
:104B8000D7FF19C0EE2009F442C0C01748F5EC2F3A
:104B9000F0E0D301AE0FBF1F8C938C1509F1E80D27
:104BA000F91D8081806180835B9A1AC0F101808148
:104BB000892B8083DACFC01720F4F301EC0FF11DAD
:104BC0008083EE2069F098E02C2D30E03595279514
:104BD000C826C0FE1AC0CE2CC22686959150A1F7D9
:104BE000CF5FD7FFAECF8C2F90E0DF91CF910F91A9
:104BF000EF90CF90BF90AF909F908F907F906F90ED
:104C00005F904F903F902F900895C22EE6CFC0172F
:104C1000A0F2E6CFCF92DF92EF920F931F93CF9344
:104C2000DF93D62E172FC42EC9010E94331FCD2D1E
:104C3000D12FCC0EDD2ED11CCC16DD06B1F0199192
:104C4000812F0E944A1F0023B9F328E08E2D90E0A7
:104C500095958795E126E0FE06C0E02EE82616959C
:104C60002150A1F7E9CFE82EFACF002351F08E2D85
:104C7000DF91CF911F910F91EF90DF90CF900C9427
:104C80004A1FDF91CF911F910F91EF90DF90CF904E
:104C900008956091AB027091AC028091AD02909149
:104CA000AE020895843081F028F48230E9F0833038
:104CB000F9F00895883071F0893091F08530B9F4B9
:104CC000809180008F7D03C0809180008F778093DA
:104CD000800008958091B0008F778093B000089590
:104CE0008091B0008F7DF9CF84B58F7784BD089512
:104CF00084B58F7DFBCFCF93DF9390E0FC01E35F22
:104D0000F14F24918C5D914FFC0184918823C9F06F
:104D100090E0880F991FFC01E15BF14FA591B491E0
:104D2000FC01EB5BF14FC591D49161110DC09FB7B0
:104D3000F8948C91209582238C9388812823288352
:104D40009FBFDF91CF910895623051F49FB7F894DF
:104D50003C91822F809583238C93E8812E2BEFCF7B
:104D60008FB7F894EC912E2B2C938FBFEACF1F9323
:104D7000CF93DF93282F30E0F901EA50F24F84916E
:104D8000F901E35FF14FD491F901EC5DF14FC4916A
:104D9000CC23A9F0162F81110E945226EC2FF0E0AF
:104DA000EE0FFF1FEB5BF14FA591B4918FB7F89415
:104DB000EC91111108C0D095DE23DC938FBFDF91F9
:104DC000CF911F910895DE2BF8CFCF93DF93282F3B
:104DD00030E0F901EA50F24F8491F901E35FF14FBD
:104DE000D491F901EC5DF14FC491CC23A1F0811174
:104DF0000E945226EC2FF0E0EE0FFF1FE55CF14F12
:104E0000A591B491EC91ED2381E090E009F480E06C
:104E1000DF91CF91089580E090E0FACFFC01918D71
:104E2000228D892F90E0805C9F4F821B91098F73A8
:104E300099270895FC01918D828D981731F0828D0C
:104E4000E80FF11D858D90E008958FEF9FEF089595
:104E5000FC01918D828D981761F0A28DAE0FBF2F4E
:104E6000B11D5D968C91928D9F5F9F73928F90E0A4
:104E700008958FEF9FEF0895FC01538D448D252FEA
:104E800030E0842F90E0821B930B541710F0CF96E4
:104E90000895019708958EEB98E2892B49F080E000
:104EA00090E0892B29F00E94BE2881110C9400000B
:104EB0000895FC01A48DA80FB92FB11DA35ABF4FAF
:104EC0002C91848D90E001968F739927848FA68909
:104ED000B7892C93A089B1898C91837080648C935D
:104EE000938D848D981306C00288F389E02D80810C
:104EF0008F7D80830895CF93DF93EC01888D882385
:104F0000B9F0AA89BB89E889F9898C9185FD03C02C
:104F1000808186FD0DC00FB607FCF7CF8C9185FF11
:104F2000F2CF808185FFEDCFCE010E945927E9CFD6
:104F3000DF91CF910895EF92FF920F931F93CF933C
:104F4000DF93EC0181E0888F9B8D8C8D98131AC0C4
:104F5000E889F989808185FF15C09FB7F894EE89AB
:104F6000FF896083E889F989808183708064808308
:104F70009FBF81E090E0DF91CF911F910F91FF9053
:104F8000EF900895F62E0B8D10E00F5F1F4F0F73FB
:104F90001127E02E8C8D8E110CC00FB607FCFACFB6
:104FA000E889F989808185FFF5CFCE010E945927D4
:104FB000F1CFEB8DEC0FFD2FF11DE35AFF4FF08287
:104FC0009FB7F8940B8FEA89FB8980818062CFCFED
:104FD000CF92DF92EF92FF921F93CF93DF93EC017A
:104FE0006A017B01122F60E874E88EE190E0A7016E
:104FF00096010E94362B21503109410951095695DD
:10500000479537952795E889F98982E080832115AE
:1050100080E1380798F0E889F989108260E472E449
:105020008FE090E0A70196010E94362B21503109B4
:10503000410951095695479537952795EC85FD858A
:105040003083EE85FF852083188EEC89FD891083DF
:10505000EA89FB89808180618083EA89FB8980817C
:1050600088608083EA89FB89808180688083EA89FF
:10507000FB8980818F7D8083DF91CF911F91FF908D
:10508000EF90DF90CF900895CF93DF93EC01E8810C
:10509000F9810680F781E02D0995EA89FB898081F5
:1050A0008F7E8083EA89FB898081877F8083EA897C
:1050B000FB8980818F778083EA89FB8980818F7D5E
:1050C00080838A8D898FDF91CF9108951F920F92EF
:1050D0000FB60F9211242F938F939F93EF93FF930B
:1050E000E091B103F091B2038081E091B703F091B8
:1050F000B80382FD1BC090818091BA038F5F8F73CC
:105100002091BB03821741F0E091BA03F0E0EF5524
:10511000FC4F958F8093BA03FF91EF919F918F91F0
:105120002F910F900FBE0F901F9018958081F4CF94
:105130001F920F920FB60F9211242F933F934F930C
:105140005F936F937F938F939F93AF93BF93EF93EF
:10515000FF9381EA93E00E945927FF91EF91BF915D
:10516000AF919F918F917F916F915F914F913F91FF
:105170002F910F900FBE0F901F90189581EA93E02A
:105180000E940E2721E0892B09F420E0822F089548
:10519000E1EAF3E01382128288EE93E0A0E0B0E04F
:1051A00084839583A683B78381E591E0918380838F
:1051B00085EC90E09587848784EC90E097878687DC
:1051C00080EC90E0918B808B81EC90E0938B828BD4
:1051D00082EC90E0958B848B86EC90E0978B868BAD
:1051E000118E128E138E148E0895AF92BF92CF92AD
:1051F000DF92EF92FF920F931F93CF93DF936C0197
:105200007B018B01040F151FEB015E01AE18BF0877
:10521000C017D10759F06991D601ED91FC91019029
:10522000F081E02DC6010995892B79F7C501DF9141
:10523000CF911F910F91FF90EF90DF90CF90BF9093
:10524000AF900895FB0101900020E9F73197AF017D
:10525000461B570BDC01ED91FC910280F381E02DA0
:105260000994EF92FF920F931F93CF93DF938C01DA
:105270007B01D0E0C0E0F701EC0FFD1F64916623D5
:1052800061F0D801ED91FC910190F081E02DC80111
:105290000995892B11F02196EECFCE01DF91CF91A8
:1052A0001F910F91FF90EF9008956115710511F016
:1052B0000C94222990E080E00895DC01ED91FC91AE
:1052C0000190F081E02D09946FE571E00C942229A2
:1052D0000F931F93CF93DF93EC010E9431298C0130
:1052E000CE010E946429800F911FDF91CF911F9101
:1052F0000F9108950F931F93CF93DF938C01D0E00C
:10530000C0E06115710519F00E942229EC01C80165
:105310000E9464298C0F9D1FDF91CF911F910F91E7
:1053200008958F929F92AF92BF92EF92FF920F9348
:105330001F93CF93DF93CDB7DEB7A1970FB6F89445
:10534000DEBF0FBECDBF7C01FA01CB0119A2223016
:1053500008F42AE08E010F5D1F4F822E912CB12C94
:10536000A12CBF01A50194010E94362BF901CA01AD
:105370006A300CF5605DD8016E938D01232B242BD0
:10538000252B79F790E080E0109721F0BD01C7014F
:105390000E942229A1960FB6F894DEBF0FBECDBFA2
:1053A000DF91CF911F910F91FF90EF90BF90AF9041
:1053B0009F908F900895695CDECFCF92DF92EF923D
:1053C000FF920F931F93CF93DF932115310581F443
:1053D000DC01ED91FC910190F081E02D642FDF91D3
:1053E000CF911F910F91FF90EF90DF90CF90099494
:1053F0002A30310501F52AE077FF1DC06A017B01E3
:10540000EC016DE20E945D298C0144275527BA0109
:105410004C195D096E097F092AE0CE010E9491298D
:10542000800F911FDF91CF911F910F91FF90EF900F
:10543000DF90CF900895DF91CF911F910F91FF9052
:10544000EF90DF90CF900C9491299A01AB01770FE8
:10545000660B770B0C94DD290F931F93CF93DF938B
:10546000EC010E94252A8C01CE010E946429800F44
:10547000911FDF91CF911F910F9108950F931F936B
:10548000CF93DF93EC010E94DD298C01CE010E94B5
:105490006429800F911FDF91CF911F910F91089583
:1054A0002115310541F4DC01ED91FC910190F08171
:1054B000E02D642F09940C9491299A01462F50E015
:1054C00070E060E00C94502A0F931F93CF93DF930A
:1054D000EC010E945D2A8C01CE010E946429800F9C
:1054E000911FDF91CF911F910F9108959A01AB0108
:1054F00070E060E00C94502A0F931F93CF93DF93DA
:10550000EC010E94762A8C01CE010E946429800F52
:10551000911FDF91CF911F910F9108950F931F93CA
:10552000CF93DF93EC010E94502A8C01CE010E94A0
:105530006429800F911FDF91CF911F910F910895E2
:1055400008950E94FA2A0E94A02A0E94D508CBE45E
:10555000D7E20E94310A2097E1F30E944B27F9CF4E
:105560001F920F920FB60F9211242F933F938F9398
:105570009F93AF93BF938091430490914404A09173
:105580004504B09146043091420426E0230F2D37A4
:1055900068F129E8230F0396A11DB11D2093420451
:1055A0008093430490934404A0934504B09346042D
:1055B00080913E0490913F04A0914004B091410439
:1055C0000196A11DB11D80933E0490933F04A093CA
:1055D0004004B0934104BF91AF919F918F913F914F
:1055E0002F910F900FBE0F901F9018950296A11D3E
:1055F000B11DD4CF789484B5836084BD85B58360B4
:1056000085BDEEE6F0E0808181608083E1E8F0E036
:1056100082E08083808181608083E0E8F0E08081A7
:1056200081608083E1EBF0E0808184608083E0EB47
:10563000F0E080818160808386E880937A00109218
:10564000C1000895AA1BBB1B51E107C0AA1FBB1FC5
:10565000A617B70710F0A61BB70B881F991F5A95FE
:10566000A9F780959095BC01CD010895A1E21A2E6D
:10567000AA1BBB1BFD010DC0AA1FBB1FEE1FFF1FF6
:10568000A217B307E407F50720F0A21BB30BE40B46
:10569000F50B661F771F881F991F1A9469F760958D
:1056A0007095809590959B01AC01BD01CF01089547
:1056B000EE0FFF1F0590F491E02D0994FB01DC0132
:1056C0004150504030F08D910190801919F4002024
:1056D000B9F7881B990B0895AEE0B0E0E2E7FBE272
:1056E0000C94A62E85E08C838B899C899A83898370
:1056F000AE01495E5F4F6D897E89CE0101960E94A1
:10570000102D2E96E2E00C94C22E20FD09C0FC0163
:1057100023FD05C022FF02C073836283518340834F
:10572000089544FD17C046FD1DC0DB01FC01AA0F12
:10573000BB1FEE1FFF1F1094D1F76A0F7B1F8E1F38
:105740009F1F660F771F881F991F620F711D811D94
:10575000911D089533E0660F771F881F991F315000
:10576000D1F7F3CF34E0F7CF0F931F93CF93DF93AD
:105770008C01C8010E94292EEC0197FD08C00E94EF
:10578000152E892BB1F7B801CE010E94652ECE01EE
:10579000DF91CF911F910F9108958F929F92AF92B9
:1057A000BF92EF92FF920F931F93CF93DF938C01E1
:1057B000D62F7A01B22E0E94292E9C0133272B323C
:1057C000310529F02D323105A9F46894B7F8D1508C
:1057D00061F480E0DF91CF911F910F91FF90EF90E6
:1057E000BF90AF909F908F900895C8010E94292E7E
:1057F00097FDEFCFCB2DCD7F2B2D2073F9F4803388
:10580000E9F4AA24AA94AD0E89F0C8010E94292EB9
:1058100097FD0CC0282F2F7D283561F4C264D2502B
:1058200029F0C8010E94292E97FF08C0812C912CD5
:1058300054011BC0B6FE2BC0C260DA2D812C912C06
:10584000540120ED280F283028F1C4FD09C02A306A
:1058500008F1C6FF05C02F7D3FEE320F3630C8F08D
:10586000B8010E94652EC1FFB4CFC7FF08C0B09435
:10587000A09490948094811C911CA11CB11C2C2F8D
:10588000B501A401C7010E94852B81E0A3CFC261AD
:10589000D4CF27504C2FC501B4010E94912B4B014E
:1058A0005C01C260D15009F3C8010E94292E97FF04
:1058B000C8CFD9CFA0E2B0E0E0E6FCE20C949B2E8A
:1058C0005C01962E7A01CE0101966C0180E2F60110
:1058D00011928A95E9F7F501B381890130E020E062
:1058E000712C812CA0E041E050E0F801B3FD8591DE
:1058F000B3FF8191982F8F01811107C010E000E064
:10590000C801A096EDE00C94B72E8E3519F4211540
:10591000310541F1A21713064CF48D3549F18D3252
:1059200029F4811006C0882483941DC0882009F4BE
:1059300064C0E92FE695E695E695EC0DFD2DF11D89
:10594000892F8770BA0101C0660F8A95EAF78081B6
:10595000682B6083791651F0971510F49F5FE9CF9B
:105960009150E7CFA1E02F5F3F4FBFCF812CFBCFFE
:10597000882019F08E8180628E83AA2359F0F60167
:105980009E012F5D3F4F8081809580833196E21785
:10599000F307C9F788248394C5010E94292E97FD37
:1059A00016C0E82FE695E695E695EC0DFD2DF11D68
:1059B000208130E0AC014770552702C0359527950E
:1059C0004A95E2F720FD06C0B5010E94652E8820A9
:1059D00069F094CFE114F10429F0F7018083C70145
:1059E00001967C019A94812C9110D6CFE114F10498
:1059F00009F486CFF701108283CFE82FE695E6956C
:105A0000E695EC0DFD2DF11D982F9770BA0101C0A0
:105A1000660F9A95EAF79081692B6083782EA3CF61
:105A2000B0E0A0E0E6E1FDE20C94992E6C01EB0100
:105A30005A01FC0117821682512CF601E380FE0107
:105A4000E3FC8591E3FE8191182FEF018823E9F0B3
:105A500090E00E94152E892B21F0C6010E94B42BE4
:105A6000ECCF153241F4FE01E3FC1591E3FE1191F8
:105A7000EF01153269F4C6010E94292E97FD8EC0F0
:105A80001817D9F2B6010E94652E852D90E08AC0C4
:105A900000E01A3231F4E3FC1591E3FE1191EF01BD
:105AA00001E0F12C20ED210F2A3048F101FF37C031
:105AB000FF2059F31836B1F11C3609F43DC011230B
:105AC00021F3612F70E088E690E00E941E2E892B62
:105AD000E1F2912C812C00FD06C0F50180809180BF
