:100000000C94260A0C944E0A0C944E0A0C944E0A38
:100010000C944E0A0C944E0A0C944E0A0C945523E0
:100020000C944E0A0C944E0A0C9431270C943C24E8
:100030000C9453280C944E0A0C9414230C944E0ADE
:100040000C94E32E0C944E0A0C94992C0C94CB2C0B
:100050000C944E0A0C948D200C944E0A0C944E0A6B
:100060000C944E0A0C944E0A6364696E6F7073753B
:1000700078585B0020435243206572726F72003AD9
:100080004F522D003000204352433D002D50453A41
:10009000002D42433A002D58583A002D53423A0061
:1000A0003A2000300030002E0030002000542000A4
:1000B0005220004520002A205265667573696E67DC
:1000C00020746F207772697465207061636B65744A
:1000D000207768696C652070726576696F7573202A
:1000E0007061636B6574207761736E277420666935
:1000F0006E69736865642C20666C757368696E67D9
:1001000020777269746520616374696F6E002A20BC
:1001100053757270726973653A20726563656976AA
:10012000656420303046783378207061636B657485
:10013000206F662073697A652000206465746563AA
:100140007465642C20737769746368696E672063D3
:100150006F6E74726F6C2066756E6374696F6E611A
:100160006C6974792063616E2062652073776974AD
:1001700063686564206F6E20287573696E67204C14
:100180003129002064657465637465642C20636F95
:100190006E74726F6C2066756E6374696F6E616CDD
:1001A0006974792077696C6C2072657374617274FC
:1001B000002A204E6F20617578696C696172792020
:1001C000636F6E74726F6C6C657220616E737765AD
:1001D00072696E6720746F20616464726573732046
:1001E000307800206465746563746564002A205764
:1001F00061726E696E673A20616E6F746865722015
:10020000617578696C6961727920636F6E74726F61
:100210006C6C657220697320616E73776572696EAC
:100220006720746F20616464726573732030780096
:100230002A205265667573696E6720746F20777225
:1002400069746520636F756E7465722D7265717562
:10025000657374207061636B6574207768696C6581
:100260002070726576696F7573207061636B657459
:10027000207761736E27742066696E6973686564A0
:10028000002A205761726E696E673A2055706F6E52
:100290002041546D656761207265737461727420CA
:1002A000617578696C6961727920636F6E74726FC1
:1002B0006C6C65722066756E6374696F6E616C69D3
:1002C000747920616E6420636F756E74657220723C
:1002D0006571756573742066756E6374696F6E61A0
:1002E0006C6974792077696C6C2072656D61696ED8
:1002F000207377697463686564206F6666002A20DE
:10030000537769746368696E6720636F6E74726F88
:100310006C2066756E6374696F6E616C69747920A8
:100320006F6666002A20537769746368696E672078
:10033000636F756E74657220726571756573742074
:1003400066756E6374696F6E206F6666002A20574B
:1003500041524E494E473A20746F6F206D616E795D
:100360002072656164206572726F727320646574B7
:100370006563746564002020206C772020200020B5
:1003800020207065202020002020205045202020A3
:1003900000202020626320202000202020424320D3
:1003A00020200020202073622020200020202053C5
:1003B00042202020002020206265202020002020D4
:1003C000204245202020002A205265636569766519
:1003D00064207061636B6574206C6F6E676572205A
:1003E0007468616E2052425F53495A45002A204387
:1003F0006F6D6D616E64206E6F7420756E646572D2
:1004000073746F6F643A20003A206E6F204448572F
:100410002D77726974652D726571756573742070BE
:10042000656E64696E6700207374696C6C2070651A
:100430006E64696E67003A204448572D777269747C
:10044000652D7265717565737420746F2076616CAB
:100450007565203078002A2043757272656E746C61
:1004600079206E6F207772697465206275646765A4
:1004700074206C6566740030002077696C6C2062B3
:10048000652073657420746F203078002A204967D6
:100490006E6F726564202D2057726974696E6720D3
:1004A000746F207468697320706172616D65746522
:1004B0007220616C72656164792070656E64696E2A
:1004C000672062792033352D72657175657374000C
:1004D0002A2049676E6F726564202D2057726974F7
:1004E000696E6720746F207468697320706172612F
:1004F0006D6574657220616C7265616479207065E8
:100500006E64696E6720627920452D72657175652C
:10051000737400300030003078002A20444857704F
:100520006172616D333520003A206E6F2033412DAA
:1005300077726974652D7265717565737420706565
:100540006E64696E6700207374696C6C2070656EF0
:1005500064696E67003A2033412D77726974652DA6
:100560007265717565737420746F2076616C756542
:10057000203078003A2063757272656E746C792051
:100580006E6F207772697465206275646765742088
:100590006C6566740030003A2077696C6C20626587
:1005A0002073657420746F203078003A2077726968
:1005B000746520636F6D6D616E642069676E6F7224
:1005C0006564202D20452D77726974652D726571E3
:1005D000756573742069732070656E64696E670059
:1005E0003000300030003078002A20506172616D98
:1005F000334120003A206E6F2033362D77726974B4
:10060000652D726571756573742070656E64696EB1
:100610006700207374696C6C2070656E64696E6726
:10062000003A2033362D77726974652D72657175C5
:1006300065737420746F2076616C75652030780066
:100640002A2043757272656E746C79206E6F207704
:100650007269746520627564676574206C65667480
:10066000003000300030002077696C6C206265201B
:1006700073657420746F2030780020777269746518
:1006800020636F6D6D616E642069676E6F72656463
:10069000202D20452D77726974652D726571756501
:1006A00073742069732070656E64696E6700300032
:1006B000300030003078002A20506172616D33368E
:1006C00020003A206E6F2033352D77726974652DC6
:1006D000726571756573742070656E64696E67000C
:1006E0002070656E64696E67003A2033352D77722D
:1006F0006974652D7265717565737420746F2076E9
:10070000616C7565203078002A2043757272656EC1
:10071000746C79206E6F20777269746520627564DD
:10072000676574206C6566740030002077696C6CB6
:100730002062652073657420746F203078003A2041
:10074000777269746520636F6D6D616E642069678F
:100750006E6F726564202D204448572D777269743E
:10076000652D726571756573742069732070656E8F
:1007700064696E67003A20777269746520636F6DF3
:100780006D616E642069676E6F726564202D20450F
:100790002D77726974652D72657175657374206942
:1007A000732070656E64696E670030003000300041
:1007B0003078002A20506172616D3335200030009E
:1007C0003000300030780073657420746F20002A88
:1007D0002043616E6E6F74206368616E6765207080
:1007E0006172616D33412D3277726974652077686B
:1007F000696C652070726576696F757320726571BA
:1008000075657374207374696C6C2070656E6469AF
:100810006E67002A20506172616D33412D3257722C
:100820006974652000300030003000307800736556
:100830007420746F20002A2043616E6E6F742063F1
:1008400068616E676520706172616D33362D327735
:1008500072697465207768696C6520707265766965
:100860006F75732072657175657374207374696C2C
:100870006C2070656E64696E67002A205061726139
:100880006D33362D325772697465200030003000A8
:10089000300030780073657420746F20002A204384
:1008A000616E6E6F74206368616E6765207061723F
:1008B000616D33352D327772697465207768696CA4
:1008C000652070726576696F7573207265717565E4
:1008D0007374207374696C6C2070656E64696E67E4
:1008E000002A20506172616D33352D325772697460
:1008F0006520002A20436F756E746572726571758C
:1009000065737420697320002A20436F756E7465C7
:1009100072726570656174696E6772657175657311
:100920007420697320002A20416C6C20636F756EFF
:100930007465722D72657175657374732073746F4D
:1009400070706564002A2053696E676C6520636F60
:10095000756E746572207265717565737420637944
:10096000636C6520696E69746961746564002A202E
:1009700053696E676C652052657065746974697639
:10098000652072657175657374696E67206F662086
:10099000636F756E7465722076616C756573207710
:1009A000617320616C72656164792061637469763A
:1009B00065002A20537769746368696E67207265E1
:1009C0007065746974697665207265717565737494
:1009D000696E67206F6620636F756E746572732031
:1009E0006F66662C2073696E676C6520636F756E29
:1009F000746572206379636C6520696E69617465E2
:100A000064002A20537769746368696E6720726591
:100A10007065746974697665207265717565737443
:100A2000696E67206F6620636F756E7465727320E0
:100A30006F66662C20776173207374696C6C20611B
:100A400063746976652C206E6F206E6577206379FC
:100A5000636C6520696E6961746564002A20507258
:100A60006576696F75732073696E676C6520636F57
:100A7000756E7465722072657175657374206E6F22
:100A8000742066696E697368656420796574002AEC
:100A90002052657065746974697665207265717538
:100AA000657374696E67206F6620636F756E746519
:100AB000722076616C75657320696E697469617402
:100AC0006564002A205265706574697469766520D2
:100AD00072657175657374696E67206F6620636FE8
:100AE000756E7465722076616C75657320776173BD
:100AF00020616C7265616479206163746976650058
:100B00002A204572726F72737065726D69747465B4
:100B10006420746F6F206C6F773B20636F6E74720C
:100B20006F6C2066756E6374696E616C6974792090
:100B30006E6F7420656E61626C6564002A20436F7D
:100B40006E74726F6C5F6964206973203078002A5C
:100B500020436F6E74726F6C5F69642073657420DC
:100B6000746F203078002A20434F4E54524F4C5F10
:100B7000494420697320616C726561647920307822
:100B80003030002A20596F75206D617920776973A4
:100B90006820746F2072652D74727920696E2061EF
:100BA00020666577207365636F6E64732028616EBD
:100BB000642070657268617073207377697463680C
:100BC00020617578696C6961727920636F6E7472E7
:100BD0006F6C6C657273206F666629002A204E6FF9
:100BE0002066726565206164647265737320666F48
:100BF0007220636F6E74726F6C6C657220666F75B5
:100C00006E642028796574292E20436F6E74726F8C
:100C10006C2066756E6374696F6E616C697479209F
:100C20006E6F7420656E61626C6564002A20436F8C
:100C30006E74726F6C5F4944203078463120737552
:100C400070706F727465642C206E6F2061757869A6
:100C50006C6961727920636F6E74726F6C6C65720F
:100C600020666F756E6420666F7220307846312C76
:100C700020737769746368696E6720636F6E74723E
:100C80006F6C2066756E6374696F6E616C697479E0
:100C9000206F6E2030784631206F6E002A20436F1F
:100CA0006E74726F6C5F49442030784630207375E3
:100CB00070706F727465642C206E6F206175786936
:100CC0006C6961727920636F6E74726F6C6C65729F
:100CD00020666F756E6420666F7220307846302C07
:100CE00020737769746368696E6720636F6E7472CE
:100CF0006F6C2066756E6374696F6E616C69747970
:100D0000206F6E2030784630206F6E002A20434FCF
:100D10004E54524F4C5F494420697320616C726598
:100D2000616479203078002A204572726F72737086
:100D300065726D697474656420286572726F7220C3
:100D40006275646765742920746F6F206C6F773BE0
:100D500020636F6E74726F6C2066756E6374696F5A
:100D60006E616C6974792063616E6E6F7420656E5C
:100D700061626C6564002A20526573657474696EE3
:100D800067202E2E2E2E002A205265667573696EFE
:100D90006720746F207772697465207061636B657A
:100DA00074207768696C652070726576696F7573F9
:100DB000207061636B6574207761736E27742066A1
:100DC000696E6973686564002A2052656675736987
:100DD0006E6720746F20777269746520656D70741A
:100DE00079207061636B6574002A20577269746999
:100DF0006E673A20002A2057726974652072656612
:100E0000757365643B20636F6E74726F6C6C657292
:100E1000206973206F6E0073657420746F20002A40
:100E2000204563686F200073657420746F20002A6A
:100E300020536F6674776172652D73636F706520E0
:100E40000073657420746F20002A2044656C6179FA
:100E500054696D656F7574200073657420746F201C
:100E6000005B757365206F662064656C6179203066
:100E7000206F722031206E6F74207265636F6D6D0C
:100E8000656E6465642C20696E6372656173696E5A
:100E90006720746F20325D20002A2044656C6179E0
:100EA00020002A20503150322D4553502D496E7468
:100EB0006572666163652068774944200020287068
:100EC0006F7765722D6F6E2D7265736574290020C2
:100ED000286578742D726573657429002028627204
:100EE0006F776E2D6F75742D6465746563746564BA
:100EF00029002A2052657365742063617573653A11
:100F0000204D435553523D0020452D736572696550
:100F100073002A204E4557503150324C4942002030
:100F2000002A20436F6D70696C656420002A205090
:100F30003150324D6F6E69746F722D76302E392EAE
:100F400032340073657420746F20002A2056657255
:100F5000626F736520003000307800736574207410
:100F60006F20002A204372635F666565642000304D
:100F70000030780073657420746F20002A2043725B
:100F8000635F67656E2000206E723A203078002023
:100F900070743A203078002A2049676E6F72696E4B
:100FA0006720696E737472756374696F6E2C206547
:100FB00078706563746564203320617267756D6550
:100FC0006E74732C2072656365697665643A2000DF
:100FD0002A2043757272656E746C79206E6F20776B
:100FE0007269746520627564676574206C656674E7
:100FF0000020746F2076616C756520307800207059
:101000006172616D65746572206E72203078002A9D
:1010100020496E6974696174696E672070617261DC
:101020006D6574657220777269746520666F7220D1
:101030007061636B65742D74797065203078002A57
:101040002049676E6F726564202D2057726974693C
:101050006E6720746F207468697320706172616DAF
:101060006574657220616C72656164792070656E6B
:1010700064696E672062792033415F7265717565BE
:101080007374002A2049676E6F726564202D2057A3
:10109000726974696E6720746F2074686973207058
:1010A0006172616D6574657220616C7265616479ED
:1010B0002070656E64696E672062792033365F72D6
:1010C000657175657374002A2049676E6F72656477
:1010D000202D2057726974696E6720746F207468C0
:1010E000697320706172616D6574657220616C72E4
:1010F000656164792070656E64696E67206279202D
:1011000033355F72657175657374002A2049676EA7
:101110006F726564202D2057726974696E67207440
:101120006F207468697320706172616D6574657297
:1011300020616C72656164792070656E64696E67A8
:101140002062792044485733355F72657175657345
:1011500074002076616C756520697320002A205028
:101160006172616D657465722076616C756520745D
:101170006F6F206C6172676520666F7220706163AB
:101180006B657420747970653B2023627974657394
:1011900020697320002A2077725F6E72203E2065DE
:1011A000787065637465643A20307800206F7574D8
:1011B000206F662072616E676520307833352D3080
:1011C000783344002A2077725F70743A20307800B8
:1011D0002A2050726576696F757320706172616D37
:1011E0006574657220777269746520616374696FD4
:1011F0006E207374696C6C2062757379002A2052BA
:10120000656365697665643A20002A20456D7074CF
:1012100079206C696E652072656365697665640026
:101220002A2052656365697665643A2022002A2087
:101230004C696E6520746F6F206C6F6E672C206C2C
:1012400061737420706172743A2000300030005075
:10125000202020202020202020005220002A205260
:1012600065616479207365747570002A204E455756
:10127000503150324C4942002A20463033584445C0
:101280004C41593D002A204630333044454C4159A9
:101290003D002A20434F4E54524F4C5F49445F4417
:1012A000454641554C543D3078002A20534552491B
:1012B000414C53504545443D002A204350555F530F
:1012C000504545443D002028706F7765722D6F6E44
:1012D0002D7265736574290020286578742D7265F8
:1012E0007365742900202862726F776E2D6F757494
:1012F0002D646574656374656429002A20526573E2
:1013000065742063617573653A204D435553523DB2
:10131000002A20436F756E74657272657065617422
:10132000696E67726571756573743D002A20566534
:1013300072626F736974793D002A20436F6E747214
:101340006F6C5F49443D3078002A20503150322D77
:101350004553502D696E74657266616365206877C8
:101360004944200020452D73657269657300202B68
:10137000636F6E74726F6C0020002A20436F6D7073
:10138000696C656420002A20503150324D6F6E69BF
:10139000746F722D76302E392E3234002A002A20B6
:1013A000454550524F4D20736967206D69736D61DB
:1013B0007463682C20696E697469616C697A696EFE
:1013C0006720454550524F4D002A20454550524F09
:1013D0004D20736967206D61746368002A2063681B
:1013E00065636B696E6720454550524F4D000000A4
:1013F00000090003020000040508000000000000CE
:1014000000000000000102040810204080010204D6
:101410000810200102040810204080400404040445
:10142000040404040202020202020303030303038E
:1014300002020300000000250028002B000000002D
:1014400000240027002A0000FB2CAF0C11241FBE33
:10145000CFEFD8E0DEBFCDBF12E0A0E0B1E0EAE11F
:10146000F6E602C005900D92A032B107D9F725E04B
:10147000A0E2B2E001C01D92AB30B207E1F71AE082
:10148000C5E2DAE004C02197FE010E948B2FC4322E
:10149000D107C9F70E94D42E0C9400330C9400009D
:1014A0001F93CF93DF93EC01162F0E94B3321817CE
:1014B00039F0612FCE01DF91CF911F910C94BB3297
:1014C000DF91CF911F9108950C94B332CF92DF92A8
:1014D000EF92FF920F931F93CF93DF9380911701A9
:1014E000882331F06CED73E185E694E00E949B2D3A
:1014F00080E2E82E81E0F82E670100E110E0C1E013
:10150000C8010E94640AF60121916F01022E000CAD
:10151000330B91E08217130609F090E0C9230F5FA7
:101520001F4F0931110561F7809117018823E9F1F7
:1015300069EC73E185E694E00E94642D6C2F70E005
:101540004AE050E085E694E00E945F2EC1112FC072
:1015500080911701882331F06EE973E185E694E00C
:101560000E949B2DC0E1D0E0F70161917F01CE0187
:101570000E94500A2196C931D105B1F760E090E090
:1015800080E00E94500A60E081E090E00E94500AF2
:1015900063E082E090E0DF91CF911F910F91FF9087
:1015A000EF90DF90CF900C94500ACC23D9F2DF91CA
:1015B000CF911F910F91FF90EF90DF90CF90089502
:1015C0000F93CF9384B78093120314BE83B185FB2E
:1015D000882780F991E089278093290226E040E955
:1015E00050ED63E070E085E694E00E94472C6CE9E2
:1015F00073E185E694E00E949B2D66E873E185E641
:1016000094E00E949B2D6AE773E185E694E00E94D6
:10161000642D6AE271E085E694E00E94882D68E717
:1016200073E185E694E00E94642D66E371E085E64F
:1016300094E00E94882D6EE673E185E694E00E94B6
:10164000642D64E673E185E694E00E94642D85E6EE
:1016500094E00E94972D69E473E185E694E00E948E
:10166000642D4AE050E06091290285E694E00E94F2
:10167000972E0E94660A90E080E00E94640A8093A0
:10168000150382E090E00E94640AC82F809317013E
:1016900081E090E00E94640A80931303CC2309F454
:1016A000AEC069E373E185E694E00E94642D40E1F9
:1016B00050E06091150385E694E00E94972E6CE25D
:1016C00073E185E694E00E94642D4AE050E0609169
:1016D000170185E694E00E94972E61E173E185E6AB
:1016E00094E00E94642D4AE050E06091130385E687
:1016F00094E00E94972E6BEF72E185E694E00E94E1
:10170000642D4AE050E06091120385E694E00E9467
:10171000902E8091120382FF06C065EE72E185E68D
:1017200094E00E94642D8091120381FF06C068ED51
:1017300072E185E694E00E94642D8091120380FF9F
:1017400006C066EC72E185E694E00E94642D85E6B1
:1017500094E00E94972D69EB72E185E694E00E9487
:10176000642D2AE030E040E052E16AE770E085E66F
:1017700094E00E94712E6AEA72E185E694E00E948C
:10178000642D2AE030E040E950ED63E070E085E64A
:1017900094E00E94712E62E972E185E694E00E9475
:1017A000642D40E150E070E060E085E694E00E9446
:1017B0005F2E65E872E185E694E00E94642D4AE0C0
:1017C00050E064E670E085E694E00E945F2E68E7F2
:1017D00072E185E694E00E94642D4AE050E06EE1FB
:1017E00070E085E694E00E94582E85E694E00E9421
:1017F000972D6BE672E185E694E00E949B2D41E017
:1018000080912902811101C040E007E026E060E8F4
:1018100075E280E090E00E942422809112010E94F3
:101820002E27809116030E942B27809113019091FF
:1018300014010E94F0236DE572E185E694E0CF91FA
:101840000F910C949B2D7F936F932FE331E03F9387
:101850002F939F938F930E949F2F0F900F900F9025
:101860000F900F900F9008957F936F9322E431E0D3
:101870003F932F939F938F930E949F2F0F900F90D2
:101880000F900F900F900F900895EF92FF920F938B
:101890001F93CF93DF93F82ED92FE62E8091170157
:1018A000882331F06AE572E185E694E00E94642DB8
:1018B0008091170180FF06C06FE472E185E694E035
:1018C0000E94642DC09128020F2D1D2FE00EF12ED5
:1018D000F11CE016F10631F1F801D1918F01D03100
:1018E00030F46DE472E185E694E00E94642D40E1FD
:1018F00050E06D2F85E694E00E94902E3091020119
:10190000332339F328E08C2F90E095958795CD27E8
:10191000C0FF06C0C32FC827D6952150A1F7D9CF45
:10192000C82FFACF80910201882379F0C03130F4BA
:101930006BE472E185E694E00E94642D40E150E0A2
:101940006C2F85E694E00E94902E85E694E0DF916E
:10195000CF911F910F91FF90EF900C94972D0C94C5
:10196000FE292F923F924F925F926F927F928F92B9
:101970009F92AF92BF92CF92DF92EF92FF920F931E
:101980001F93CF93DF93CDB7DEB7A4970FB6F8942C
:10199000DEBF0FBECDBF85E694E00E948E2B8C018A
:1019A00097FF02C00C94BA1F80912A02E0910301B4
:1019B000F09104010A30110511F40C94821F833652
:1019C00010F00C94861F9F012F5F3F4F309304014E
:1019D0002093030100838F5F80932A02DCCF811163
:1019E0001AC06AE771E085E694E00E94882D6DE8F0
:1019F00072E085E694E00E94882D6F2D85E694E0E4
:101A00000E94902D67E771E085E694E00E94AD2D7D
:101A100081E080932202109200010C94B21F108288
:101A2000882381F0A82FB0E0A457BD4F9C919D3032
:101A300049F4815080932A023197F0930401E09396
:101A40000301108210910001123029F3113099F432
:101A5000809122028111DFCF6EE272E185E694E08F
:101A60000E94642D6DE872E085E694E00E94AD2D41
:101A700010932202D0CF80911701813011F0843071
:101A800091F460E272E185E694E00E94642D6DE8D5
:101A900072E085E694E00E94882D63EA71E085E6B5
:101AA00094E00E94AD2D82E992E09093040180932E
:101AB000030144E050E065EA71E08DE892E00E94A5
:101AC000912F6C01892B11F00C94B21F809191021F
:101AD000893511F40C948C160CF0FEC18E3409F487
:101AE00040C30CF001C1873409F4A7C20CF057C001
:101AF0008A3209F43EC484F4882309F42AC46DEEC2
:101B000073E085E694E00E94642D6091030170917A
:101B10000401615071093FC4833409F46FC78534EF
:101B200071F78091070360ED71E181111CC48FEFA3
:101B300092E09F938F9383E093E09F938F9385E050
:101B400093E09F938F938AEA91E09F938F9382E92A
:101B500092E09F938F930E949F2F9C8B8B8B0FB64D
:101B6000F894DEBF0FBECDBF039709F00FC580917B
:101B700005039BEC980F993008F413C464EC71E1F1
:101B800085E694E00E94642D40E150E060910503F9
:101B900085E694E00E94902E6CEA71E1E4C38B34F8
:101BA00009F490C2E4F5883409F0A9CF80911701B7
:101BB000882331F063E67FE085E694E00E94642D9F
:101BC000BE016B5E7F4F80910301909104010E94E2
:101BD000340C019779F48D89809328028091170144
:101BE000882311F40C94B21F6BE57FE085E694E046
:101BF0000E94642D68E57FE085E694E00E94642DF4
:101C000080912802803130F466E57FE085E694E03B
:101C10000E94642D40E150E06091280246C28C345D
:101C200009F45BC28D3409F06ACF809117018823D3
:101C300031F063E178E085E694E00E94642DBE0116
:101C40006B5E7F4F80910301909104010E94340CE0
:101C50000197C1F4809109036FEC77E0811183C390
:101C60008D899E8990930D0180930C0180911701BD
:101C7000882311F40C94B21F67EC77E085E694E0BA
:101C80000E94642D64EC77E085E694E00E94642D68
:101C900080910C0190910D01409730F462EC77E057
:101CA00085E694E00E94642D80910C0190910D01D5
:101CB0008F3F910509F030F460EC77E085E694E021
:101CC0000E94642D80910C0190910D01811590412D
:101CD00030F46EEB77E085E694E00E94642D60912D
:101CE0000C0170910D0178C3843509F4D5C20CF054
:101CF000B6C0803509F4FDC60CF412C5813509F46F
:101D000057C7823509F0FBCE80911701882331F047
:101D100067EB76E085E694E00E94642D64EB76E064
:101D200085E694E00E94642D80910E0190910F0150
:101D3000409730F462EB76E085E694E00E94642DF3
:101D400080910E0190910F018F3F910509F030F4C1
:101D500060EB76E085E694E00E94642D80910E01B0
:101D600090910F018115904130F46EEA76E085E69E
:101D700094E00E94642D60910E0170910F0140E18A
:101D800050E085E694E00E94AF2EBE016B5E7F4F6F
:101D900080910301909104010E94340C019709F095
:101DA00086C780910503863389F42091030330911F
:101DB000040380910E0190910F012817390731F427
:101DC000809107036AE776E08111CDC280910A0114
:101DD000882309F469C7815080930A0181E08093C8
:101DE0000C038D899E8990930B0380930A03809145
:101DF0001701882311F40C94B21F67E676E085E69C
:101E000094E00E94642D80910A0390910B03409707
:101E100030F465E676E085E694E00E94642D8091DA
:101E20000A0390910B038F3F910509F030F463E6AC
:101E300076E085E694E00E94642D80910A039091FB
:101E40000B038115904130F461E676E085E694E07D
:101E50000E94642D60910A0370910B03BDC2863508
:101E600009F4CBC30CF487C4873509F45DC2883507
:101E700009F045CE80911701882331F06FE17EE0B3
:101E800085E694E00E94642DBE01695E7F4F8091DB
:101E90000301909104010E94230C81309105B9F453
:101EA0002F89388D232B11F0988F8F8B8F898093FA
:101EB00012010E942E2780911701882311F40C949F
:101EC000B21F67E17EE085E694E00E94642D4AE05F
:101ED00050E060911201E9C08F3609F421C40CF082
:101EE000CBC1883609F462CE0CF0E5C0833609F424
:101EF00085C50CF09CC08A3509F001CE8091170190
:101F0000882331F063EB77E085E694E00E94642D4E
:101F100060EB77E085E694E00E94642D80911001EB
:101F200090911101409730F46EEA77E085E694E0F5
:101F30000E94642D80911001909111018F3F9105B5
:101F400009F030F46CEA77E085E694E00E94642DB5
:101F500080911001909111018115904130F46AEA4D
:101F600077E085E694E00E94642D60911001709105
:101F7000110140E150E085E694E00E94AF2EBE01E1
:101F80006B5E7F4F80910301909104010E94340C9D
:101F9000019709F06FC68091100190911101209175
:101FA0000503253369F420910303309104032817B6
:101FB000390731F42091070365E777E02111D3C198
:101FC0008034910531F4809111036EE377E0811143
:101FD000CAC180910A01882309F449C681508093BF
:101FE0000A0181E080930F038D899E8990930E03EF
:101FF00080930D0380911701882311F40C94B21F74
:102000006BE277E085E694E00E94642D80910D03F9
:1020100090910E03409730F469E277E085E694E012
:102020000E94642D60910D0370910E03D5C1853619
:1020300009F477CD873609F062CD809117018823A6
:1020400031F06CE77FE085E694E00E94642DBE01EC
:102050006B5E7F4F80910301909104010E94340CCC
:10206000019779F48D89809302018091170188236B
:1020700011F40C94B21F64E77FE085E694E00E94BF
:10208000642D61E77FE085E694E00E94642D8091F5
:102090000201803130F46FE67FE085E694E00E9433
:1020A000642D40E150E06091020185E694E00E94D9
:1020B000972E0C94B21F8C3681F00CF04CC08B36EE
:1020C00009F01DCD66E77DE085E694E00E949B2D3A
:1020D000E0912602F09127020995BE01695E7F4FCB
:1020E00080910301909104010E94230C019709F053
:1020F0007DC48F89988D049710F0188E1F8A8F8960
:10210000988D80FF60C48091090167E27DE0853091
:1021100008F429C180911503882309F403C46CE0F5
:102120007DE085E694E00E94642D40E150E06091FE
:10213000150385E694E00E94972E8F89988D02976B
:1021400010F00C94B21F6091150390E080E00E94A3
:10215000500A0C94B21F8D3609F467CD8E3609F003
:10216000CECC80911701882331F069EE75E085E6C9
:1021700094E00E94642D66EE75E085E694E00E948E
:10218000642D80910C0190910D01409730F464EE24
:1021900075E085E694E00E94642D80910C01909199
:1021A0000D018F3F910509F030F462EE75E085E690
:1021B00094E00E94642D80910C0190910D01811595
:1021C000904130F460EE75E085E694E00E94642D65
:1021D00060910C0170910D0140E150E085E694E0C2
:1021E0000E94AF2EBE016B5E7F4F809103019091E4
:1021F00004010E94340C019709F076C58091050313
:102200008A3389F4209103033091040380910C01F7
:1022100090910D012817390731F4809107036BEA7B
:1022200075E08111A0C080910A01882309F459C585
:10223000815080930A0181E0809309038D89809306
:10224000080380911701882311F40C94B21F67E9E9
:1022500075E085E694E00E94642D8091080380314A
:1022600030F465E975E085E694E00E94642D40E174
:1022700050E06091080319CF853709F47CC20CF057
:1022800049C0813709F494C40CF433C4823709F48B
:102290003BCD843709F033CC80911701882331F08E
:1022A00069E97EE085E694E00E94642D65E171E0D5
:1022B00080910301909104010E94230C0197F1F495
:1022C0008091150190911601029760F482E090E0F0
:1022D000909316018093150161E67EE085E694E017
:1022E0000E94642D80911701882311F40C94B21F71
:1022F00069E57EE085E694E00E94642D6091150119
:10230000709116014AE050E085E694E00E94AF2EFD
:102310000C94B21F883709F4ADCDA4F4863709F4C4
:102320006CC1873709F0EBCB8091170190911503B1
:10233000992309F46AC265EF7DE0882311F40C94B7
:10234000B21F11C0893709F4E7C48A3709F4D6CD22
:10235000D6CB80911701813021F0843011F00C949C
:10236000B21F6AE072E185E694E00E949B2D0C9416
:10237000B21F80911701813021F0843011F00C944C
:10238000B21F6DEF71E185E694E00E94642D6091CB
:1023900003017091040185E694E00E94AD2D0C9438
:1023A000B21F2091030330910403482F4553550B6E
:1023B000FA01EE0FFF1FE750FE4F40815181421797
:1023C000530768F465E971E185E694E00E94642DA5
:1023D000609103037091040340E150E095CFEAEC73
:1023E000E80FE83008F04CC0F0E0E750FE4E0C94E7
:1023F0008B2F01123C123E123E12401201123C126F
:102400003E1212E058E0159FF00111244091FF02A6
:1024100050910003609101037091020304C076950E
:10242000679557954795EA95D2F7452B462B472B4D
:1024300049F16DE571E185E694E00E94642D4AE082
:1024400050E0612F85E694E00E94902E62E571E1F4
:1024500085E694E00E94642D4091FF0250910003B4
:10246000609101037091020320E130E085E694E081
:102470000E94C12E0C94B21F13E0C4CF14E0C2CF4F
:1024800011E0C0CF853309F059C02034310531F453
:10249000809111036BE071E1811165CF8091100192
:1024A000909111012817390731F480910F0367ECDF
:1024B00070E1811158CF80910A01882309F463C02B
:1024C000815080930A0181E0809307036FE070E1FF
:1024D00085E694E00E94642D40E150E060910503A0
:1024E00085E694E00E94902E6EEF7FE085E694E012
:1024F0000E94642D609103037091040340E150E059
:1025000085E694E00E94A92E61EF7FE085E694E0E5
:102510000E94642D4091FF025091000360910103DD
:102520007091020320E130E085E694E00E94832E62
:1025300085E694E00E94972D0C94B21F863381F4B7
:1025400080910E0190910F012817390709F0B3CF40
:1025500080910C0363E870E1882309F4ACCF03CFCA
:102560008A3309F0A8CF80910C0190910D012817B2
:10257000390709F0A0CF809109036FE370E1882348
:1025800009F499CFF0CE60ED7FE0EDCE67E97FE012
:1025900085E694E00E94642D6B897C894AE050E0D6
:1025A00085E694E00E94582E8B899C89181619069E
:1025B00074F46FE87FE085E694E00E94642D40E1CA
:1025C00050E06091050385E694E00E94902E8B898F
:1025D0009C8902970CF4ACCF67E87FE085E694E035
:1025E0000E94642D609103037091040340E150E068
:1025F00085E694E00E94A92E9BCF6BE47FE085E600
:1026000094E00E94642DBE01695E7F4F80910301BA
:10261000909104010E94230C0197A9F48F89988D51
:10262000059720F084E090E0988F8F8B63E47FE043
:1026300085E694E00E94642D6F896093170182E023
:1026400090E00E94500A4AE050E06091170185E650
:1026500094E00E94972E6DE27FE085E694E00E9470
:102660009B2D61E27FE085E694E00E94642D6AE2A2
:1026700071E085E694E00E94882D6FE17FE085E6B9
:1026800094E00E94642D66E371E085E694E00E9488
:10269000AD2D62E17FE085E694E00E94642D68E064
:1026A0007FE085E694E00E949B2D62EF7EE085E668
:1026B00094E00E94642D4AE050E06091120385E6A8
:1026C00094E00E94902E8091120382FF06C06CED70
:1026D0007EE085E694E00E94642D8091120381FFE4
:1026E00006C06FEC7EE085E694E00E94642D809148
:1026F000120380FF06C06DEB7EE085E694E00E9449
:10270000642D85E694E00E94972D62EA7EE085E6DE
:1027100094E00E94642D4AE050E060912902C5CC0B
:1027200080911701882331F069E47EE085E694E02A
:102730000E94642D63E171E0809103019091040196
:102740000E94230C019791F4809113019091140140
:102750000E94F02380911701882311F40C94B21F7A
:1027600061E47EE085E694E00E94642D60911301AF
:1027700070911401C7CD80911701882331F06FE269
:102780007EE085E694E00E94642DCE0147969F93FB
:102790008F9384EB91E09F938F93809104018F93AB
:1027A000809103018F930E949F2F9C8B8B8B0F90A6
:1027B0000F900F900F900F900F9018161906C4F4F9
:1027C0008F8980931603823018F081E0809316037E
:1027D000809116030E942B2780911701882311F402
:1027E0000C94B21F67E27EE085E694E00E94642DBF
:1027F0004AE050E06091160385E694E00E94972E2F
:1028000088EC809301010C94B21F882331F069EEAB
:102810007DE085E694E00E94642D0DE612E05E0105
:1028200093E1A90EB11C4E01A1E18A0E911C8DEB22
:10283000682E81E0782EBF92AF929F928F927F9206
:102840006F92809104018F93809103018F930E9476
:102850009F2F0FB6F894DEBF0FBECDBF019771F565
:1028600029893A89FFEFCF1ADF0AD8012D938D010C
:1028700080910301909104014B895C89840F951F1D
:10288000909304018093030180911701882389F0BC
:102890002031310534F46DE371E085E694E00E9467
:1028A000882D69897A8940E150E085E694E00E94AC
:1028B000582E80E2C816D10409F0BDCF80911701CF
:1028C000882321F085E694E00E94972D0E94F5234D
:1028D0008823B9F0C114D10489F0209115013091F9
:1028E0001601E0902802009102014C2D6DE672E085
:1028F00087E193E00E94992A0C94B21F68EC7DE076
:1029000032CD67E87DE085E694E00E949B2D8091C2
:1029100019038F3F11F40C94B21F8F5F809319033A
:102920000C94B21F80910701853049F56CE97CE079
:1029300085E694E00E949B2D80EF809315038F899C
:10294000988D60EF029768F1809117016FE47BE04A
:10295000882311F40C94B21F85E694E00E94642D44
:1029600080911503803130F46DE371E085E694E0E9
:102970000E94882D40E150E06091150396CB809134
:102980000801853099F46CE27CE085E694E00E94D1
:102990009B2D81EF809315038F89988D61EF0297AE
:1029A00098F690E080E00E94500ACECF6CED7BE07C
:1029B00085E694E00E949B2D63E87BE085E694E049
:1029C0000E949B2DC1CF20911503211108C066E6FE
:1029D0007BE085E694E00E94642D0C94B21F109277
:1029E0001503029708F0B0CF60E0DBCF80911701AC
:1029F000882309F4B5CF6CE37BE0AECFBE01695EFE
:102A00007F4F82E992E00E94230C019709F058C0A1
:102A10008F89988D82309105D8F08091090160E00E
:102A20007BE0853008F49FCC8091130363EC7AE05F
:102A3000811199CC81E0809313036FE87AE085E6F9
:102A400094E00E949B2D6091130381E090E07FCB86
:102A5000019779F5209114033091130381E090E000
:102A6000332311F090E080E050E0822395236CE561
:102A70007AE0892B09F077CC332389F01092130385
:102A800062E07AE021116FCC62EB79E085E694E0B8
:102A90000E949B2D81E0809314030C94B21F6EE67C
:102AA00079E0211160CC81E08093140365E479E042
:102AB0005ACC109213031092140366E279E0BFCF50
:102AC00068E079E085E694E00E94642D4AE050E0F9
:102AD0006091130385E694E00E94972E63EF78E0FF
:102AE00085E694E00E94642D4AE050E06091140372
:102AF000DCCA80911701882331F061EE78E085E629
:102B000094E00E94642DBE016B5E7F4F80910301B3
:102B1000909104010E94340C0197C1F480910F033D
:102B20006DE978E081111FCC8D899E899093110108
:102B30008093100180911701882311F40C94B21F27
:102B400065E978E085E694E00E94642D62E978E02A
:102B500085E694E00E94642D80911001909111010E
:102B6000409730F460E978E085E694E00E94642DB7
:102B700080911001909111018F3F910509F030F47F
:102B80006EE878E085E694E00E94642D8091100163
:102B9000909111018115904130F46CE878E085E660
:102BA00094E00E94642D609110017091110114CC89
:102BB00080911701882331F06AE778E085E694E098
:102BC0000E94642DBE016B5E7F4F80910301909146
:102BD00004010E94340C0197C1F480910C0366E358
:102BE00078E08111C0CB8D899E8990930F018093ED
:102BF0000E0180911701882311F40C94B21F6EE22C
:102C000078E085E694E00E94642D6BE278E085E64A
:102C100094E00E94642D80910E0190910F014097E5
:102C200030F469E278E085E694E00E94642D8091BA
:102C30000E0190910F018F3F910509F030F467E28A
:102C400078E085E694E00E94642D80910E019091D9
:102C50000F018115904130F465E278E085E694E05B
:102C60000E94642D60910E0170910F01B5CB68E058
:102C700077E079CB80910F0362EC76E0882309F44A
:102C800072CB69EE76E085E694E00E949B2D609120
:102C90000D0370910E0340E150E085E694E00E9440
:102CA000AF2E60EE76E05FCB60E476E05CCB8091A7
:102CB0000C0364EF75E0882309F455CB61E276E0FC
:102CC00085E694E00E949B2D60910A0370910B03AE
:102CD00040E150E085E694E00E94AF2E62E176E0AC
:102CE00042CB64E775E03FCB8091090368E275E071
:102CF000882309F438CB65E575E085E694E00E9409
:102D00009B2D40E150E06091080385E694E00E942D
:102D1000972E66E475E027CB80911701882331F068
:102D20006AE175E085E694E00E94642D67E175E054
:102D300085E694E00E94642D65E175E085E694E007
:102D40000E94642D63E175E085E694E00E94642DA5
:102D500040E150E060E470E085E694E00E945F2E80
:102D6000BE01695E7F4F80910301909104010E9432
:102D7000230C019709F049C080910503853369F45C
:102D800080910303909104038034910531F4809184
:102D9000070360ED74E08111E6CA80911001909103
:102DA00011018034910531F480910F036CE874E0D7
:102DB0008111D9CA80910A01882321F18150809321
:102DC0000A0181E0809311038F8980931003809121
:102DD0001701882311F40C94B21F69E774E085E6AB
:102DE00094E00E94642D80911003803130F467E7F5
:102DF00074E085E694E00E94642D4AE050E0609122
:102E0000100353C966E574E0AECA80910F0368E011
:102E100074E0882309F4A7CA66E374E085E694E0C9
:102E20000E949B2D60910D0370910E0340E150E0D4
:102E300085E694E00E94AF2E67E274E094CA809128
:102E400016038823A1F080910101FF2019F086303C
:102E500008F069C190914C02903409F061C19091E1
:102E60004D02903F09F05CC1833308F05CC1809152
:102E700001018F5F893C08F0C1C28093010110926B
:102E800069038F2D8F7709F4BBC24114510461048B
:102E9000710409F444C080911B038F3F29F08F5FB8
:102EA00080931B03F0921A03809109018823B9F1E2
:102EB000815080930901811132C06DE473E085E691
:102EC00094E00E949B2D80911303882331F064E2EB
:102ED00073E085E694E00E949B2D80911503882382
:102EE00031F06EEF72E085E694E00E949B2D109227
:102EF0001503109213031092140361E872E085E643
:102F000094E00E949B2D6091150390E080E00E9468
:102F1000500A6091130381E090E00E94500A809172
:102F20004C02803469F480914D02811109C0809176
:102F30004E02803111F00C94812085E080932502AF
:102F400063EB70E0F11007C080911701815083306E
:102F500030F460EB70E085E694E00E94642D80918F
:102F6000170180FD03C0FF2009F447C06DEA70E03F
:102F700085E694E00E94642D89819A818031974290
:102F800030F46BEA70E085E694E00E94642D89815C
:102F90009A81883EE3E09E0708F010C669EA70E077
:102FA00085E694E00E94642D67EA70E085E694E08F
:102FB0000E94642D89819A818436910530F465EAF6
:102FC00070E085E694E00E94642D89819A810A97D9
:102FD00030F463EA70E085E694E00E94642D698134
:102FE0007A814AE050E085E694E00E94A92E60EAEA
:102FF00070E085E694E00E94642D80911701843092
:1030000008F0EFC59CE4C92E92E0D92E5401F1E0FE
:10301000AF1AB108C6018C549240881599050CF07E
:10302000E4C580911701882351F0D1018C9180FF74
:1030300006C06BE970E085E694E00E94642D809103
:103040001701882351F0F101808181FF06C066E9F4
:1030500070E085E694E00E94642D8091170188233A
:1030600051F0D1018C9185FF06C061E970E085E6E1
:1030700094E00E94642D80911701882351F0F101A2
:10308000808182FF06C06CE870E085E694E00E94D3
:10309000642DD6010D916D0180910201882389F084
:1030A00080911701813069F48BA19CA18A0F9B1F2D
:1030B0008A159B0531F466E870E085E694E00E948D
:1030C000642D003130F464E870E085E694E00E94FD
:1030D000642D40E150E0602F85E694E00E94902E40
:1030E00080911701882351F0F101808183FF06C090
:1030F0006FE770E085E694E00E94642D80911701EF
:10310000882351F0D1018C9184FF06C064E770E000
:1031100085E694E00E94642DBFEF2B1A3B0A7ACF1C
:10312000873908F4A4CE90912403911105C09091A1
:103130006603903F09F49BCE85508093010163ECB8
:1031400071E0F11002C066EC71E085E694E00E9447
:10315000882D80914C02803128F460E385E694E06C
:103160000E94902D40E150E060914C0285E694E091
:103170000E94902E80914D02803128F460E385E614
:1031800094E00E94902D40E150E060914D0285E670
:1031900094E00E94902E80914E02803128F460E3EA
:1031A00085E694E00E94902D40E150E060914E024F
:1031B00085E694E00E94902E60E285E694E00E940D
:1031C000902D80916603B12CA12C803F19F0A09026
:1031D0002403B12CDA8CD501AF5ABC4FEC91E75FD8
:1031E000E93008F03FC0F0E0E850F74E0C948B2F28
:1031F0002F191A192C1926192019011929192319FF
:103200001D196EEB73E085E694E00E94642DFFEFDC
:10321000AF1ABF0A26E1A216B10411F4B12CA12CF9
:10322000809124038A151B04B1F685E694E00E9480
:10323000972D1DCE65EB73E0E6CF6CEA73E0E3CF2C
:1032400063EA73E0E0CF6AE973E0DDCF61E973E040
:10325000DACF68E873E0D7CF6FE773E0D4CF66E7E3
:1032600073E0D1CF0C91007E6C916F71698FF50185
:10327000EE0FFF1FF8A3EF8FD1103AC0003429F4EE
:1032800060E285E694E00E94902DEF8DF8A1EB5D61
:10329000FC4FC080D1808091200290912102C81AF9
:1032A000D90AF3E0D694C794FA95E1F7FAE0CF167D
:1032B000D10458F460E285E694E00E94902D60E22B
:1032C00085E694E00E94902D04C024E6C216D10445
:1032D000B0F34AE050E0B60185E694E00E94A92EE2
:1032E000003409F403C76AE385E694E00E94902D58
:1032F000EF8DF8A1EB5DFC4F8081918190932102CD
:10330000809320020036C9F168F4002371F1003483
:1033100009F05CC060E285E694E00E94902D61EEC9
:1033200071E066C0003A29F0003C19F0003809F05D
:103330004DC0998D9A3008F042C063E5923008F490
:1033400046C0E98DE250FF0BBF014AE050E085E640
:1033500094E00E94582E003679F1F0F5002351F0E8
:103360000034E9F267EE71E043C06FE385E694E074
:103370000E94902D67ED71E03BC0398D333138F4F8
:10338000333070F463E5313030F460E204C0498DCD
:1033900060E54531D0F785E694E00E94902D0CC0A1
:1033A000898D8350990BBC01759567954AE050E073
:1033B00085E694E00E94582E6BED71E019C0A98D4E
:1033C00060E5AA3021F065E4AB3009F060E285E603
:1033D00094E00E94902DBFCF69EC71E0003A41F07B
:1033E000003C09F49CCF6DEC71E0003809F0BACFD5
:1033F00085E694E00E94882DD12C09CF88EC3DCD44
:1034000090914C02F1108BCD3AE083169104FCF0C0
:1034100091111DC080914D02811119C080914E0201
:103420008231A9F4809152028093FE0220910B0117
:10343000821769F020911303222339F0209114039D
:10344000211103C021E02093140380930B0180918C
:103450000701853009F0A0C080911403882309F486
:103460009BC045E0841691040CF459CD911199C08C
:1034700090914D02903F09F094C090914E0290338C
:1034800009F08FC0982F9370913009F080C010928E
:103490006D0210926E0298EB90936F0290E09595FA
:1034A000879595958795809370020E94F523D82E75
:1034B000882309F45DC0E0902802009102012EE10A
:1034C00030E044E06DE672E087E193E00E94992AE3
:1034D000DA8E809114038F5F863109F45AC080938D
:1034E000140380914C02803409F05DC080914D023C
:1034F000982F9E7F903F09F012CD90914E02292F78
:103500002073203309F00BCDA82FA170AD8F1E8E34
:10351000903329F4ED8DFE8DEB5FFE4F10822981F3
:103520003A812C31310508F0FECCED8DFE8DE95F3E
:10353000FE4F1082909115038913F5CC6DEE71E06A
:1035400085E694E00E94642D40E150E060914D02D8
:1035500085E694E00E94902E63EE71E085E694E0AB
:103560000E949B2D1092150360E090E080E0D5CC86
:1035700060E372E085E694E00E949B2D8091190340
:103580008F3F09F4A6CF8F5F80931903A2CF1A8EC5
:10359000A0CF10921403A5CF55E0851691040CF42A
:1035A000BECC1A8E9ECF8111BACC80914D02982F3D
:1035B0009E7F903F09F0C8CC90914E02292F207336
:1035C000203309F0C1CCBA8DB111BECC903399F53E
:1035D00081708B8F1C8EEB8DFC8DEB5FFE4F80819D
:1035E000823014F48F5F8083EB8DFC8DE95FFE4F9A
:1035F0008081853004F58F5F80838530E1F461EB55
:1036000071E085E694E00E94642D40E150E0609115
:103610004D0285E694E00E94902E90914D0280919B
:10362000150363E871E0981711F06AE371E085E62D
:1036300094E00E949B2D80911503882309F46FCCA0
:10364000E82FE170E9A31AA2E9A1FAA1E95FFE4F10
:103650009081953009F063CC90914D0289135FCC35
:1036600090E490936D0280936E0280914E0280935D
:103670006F02809102016401F1E0CF1AD10881113B
:1036800016C0640121E28216910489F46EE071E0B3
:1036900085E694E00E94642D4AE050E061E270E02B
:1036A00085E694E00E945F2E40E2C42ED12CE0918A
:1036B0004E02E053EF3008F032CCF0E0EE59F44E19
:1036C0000C948B2F711BA51BDF1B8F178F17EF1B04
:1036D000531CA71CD21C011D181D5F1D8C1DA31D92
:1036E000BA1D23E0822F90E08C159D0534F4835998
:1036F0009D4FDC011C922F5FF5CF8091110381114A
:1037000004C080910F03882319F081E08093740234
:1037100080910C03882319F081E0809375028091D9
:103720000903882319F081E08093790280910703CF
:10373000882339F0E0910503F0E0E15CFD4F81E082
:10374000808324E6A22EB12C19C023E0822F90E0C2
:103750008C159D0554F4FC01E359FD4F845B9D4F8E
:10376000DC018C9180832F5FF1CF84EB8093740216
:1037700080E1809375023EE1A32EB12C0E94F523D7
:10378000882309F408C2E090280200910201950103
:103790004C2D6DE672E087E193E00E94992A8091BA
:1037A00006032091F0023091F102820F932F911DB8
:1037B0009093F1028093F00210920603B0CB23E0C5
:1037C000822F90E08C159D05B4F6FC01E359FD4F66
:1037D000845B9D4FDC018C9180832F5FF1CF23E0D0
:1037E000822F90E08C159D0534F483599D4FFC0188
:1037F00010832F5FF5CF80910703882309F451C010
:1038000090910503953309F04CC0209103039091EA
:10381000040320937002909371029091FF029093A1
:10382000720281508093070381E080930603E6E0F3
:10383000809111038823B9F0AE2FB0E0A359BD4F9A
:1038400080E48C93A1E0AE0FB0E0A359BD4F1C9271
:10385000A2E0AE0FB0E0ED5FA359BD4F8091100321
:103860008C931092110380910F03882309F483CF66
:103870009091100180911101AE2FB0E0A359BD4F7E
:103880009C93A1E0AE0FB0E0A359BD4F8C93EE5FC7
:10389000F0E0E359FD4F80910D03808310920F03F8
:1038A0006ACFE3E0C5CF23E0822F90E08C159D0521
:1038B00034F483599D4FDC011C932F5FF5CF809129
:1038C0000703882309F441C0909105039633E9F575
:1038D000209103039091040320937002909371024E
:1038E0002091FF0290910003209372029093730243
:1038F00081508093070381E080930603E7E0809185
:103900000C03882309F437CF90910E0180910F01A9
:10391000AE2FB0E0A359BD4F9C93A1E0AE0FB0E035
:10392000A359BD4F8C9390910A0380910B03A2E0A1
:10393000AE0FB0E0A359BD4F9C93ED5FF0E0E359AB
:10394000FD4F808310920C0316CFE3E0D8CF23E025
:10395000822F90E08C159D0534F483599D4FFC0116
:1039600010832F5FF5CF80910703882309F403CFDD
:1039700090910503973309F0FECE209103039091B7
:10398000040320937002909371023091FF02209102
:10399000000390910103309372022093730290937D
:1039A0007402B3C023E0822F90E08C159D0534F49F
:1039B00083599D4FDC011C932F5FF5CF8091070346
:1039C000882309F4D8CE90910503983309F0D3CE1B
:1039D000209103039091040320937002909371024D
:1039E0004091FF0230910003209101039091020366
:1039F0004093720230937302209374029093750285
:103A000084C023E0822F90E08C159D0534F4835907
:103A10009D4FFC0110832F5FF5CF80910703882312
:103A200009F4A9CE90910503993309F0A4CED0CF23
:103A300023E0822F90E08C159D0534F483599D4F2F
:103A4000DC011C932F5FF5CF809107038823A9F138
:103A5000909105039A3389F5209103039091040313
:103A600020937002909371029091FF0290937202E2
:103A700081508093070381E080930603E6E0809104
:103A80000903882309F477CE90910C0180910D01F0
:103A9000AE2FB0E0A359BD4F9C93A1E0AE0FB0E0B4
:103AA000A359BD4F8C93EE5FF0E0E359FD4F809139
:103AB00008038083109209035ECEE3E0E0CF23E0A9
:103AC000822F90E08C159D0534F483599D4FFC01A5
:103AD00010832F5FF5CF80910703882309F44BCE25
:103AE000909105039B3309F046CE209103039091FA
:103AF000040320937002909371022091FF02909131
:103B00000003209372029093730281508093070305
:103B100081E0809306032FCE23E0822F90E08C1566
:103B20009D0534F483599D4FDC011C932F5FF5CF25
:103B300080910703882309F41ECE909105039C33DE
:103B400009F019CE1ACF23E0822F90E08C159D0545
:103B500034F483599D4FFC0110832F5FF5CF809182
:103B60000703882309F407CE909105039D3309F0DC
:103B700002CE2ECF80914F028093700224E0822FDC
:103B800090E08C159D050CF0F6CD83599D4FDC011E
:103B90001C932F5FF4CF66EB70E085E694E00E9403
:103BA0009B2D809119038F3F09F406CE8F5F809380
:103BB000190302CE85E080932402C2C968EE73E047
:103BC0000E94552F4AE050E085E694E00E94A92E1D
:103BD00089819A8168EE73E00E94552F9A838983C8
:103BE000E3C9FF2009F444C20DCAFF20F9F06BEECF
:103BF00071E085E694E00E94882DEFE0EF1528F053
:103C000060E385E694E00E94902D60E385E694E011
:103C10000E94902D60E385E694E00E94902D40E1A3
:103C200050E06F2D85E694E00E94902E85E694E0AA
:103C30000E94972D1DC280912502853008F467C02F
:103C40001092250210926D0210926E028DE0809308
:103C50006F0280912902E0E7F2E0882309F44CC169
:103C60009E012F5F3F4F6901AE01475F5F4F7A01B1
:103C70008E01055F1F4F2C5F3F4F4C5F5F4FBE01B2
:103C8000615F7F4F87E193E00E94C4218F8598890F
:103C900090937002809371028D859E85909372023D
:103CA000809373028D819E812F81388530937402B9
:103CB0002093750290937602809377028B859C8582
:103CC000909378028093790289859A8590937A02FD
:103CD00080937B0289819A812B813C8130937C0285
:103CE00020937D0290937E0280937F021092800247
:103CF0001092810210928202109283028091170129
:103D0000843028F467E18DE692E00E94450C8091B2
:103D10002402853008F454C01092240210926D02DF
:103D200010926E028EE080936F0270927002609229
:103D300071025092720240927302109274028AE7EA
:103D40008093750282E180937602109277028091CF
:103D500019038093780280911303809379028091F4
:103D6000140380937A028091180380937B028091E0
:103D7000070380937C028091050380937D028091EC
:103D800003039091040390937E0280937F028091BD
:103D9000FF029091000320910103309102033093C0
:103DA000800220938102909382028093830280910B
:103DB0001701843028F467E18DE692E00E94450CFB
:103DC00080912302853008F47EC010922302109265
:103DD0006D0210926E028FE080936F028DE38093EC
:103DE0007002B0901701B09271028091120380931B
:103DF000720280910A01809373028091090180937D
:103E000074028091F0029091F10290937502809378
:103E1000760280911501909116019093770280931C
:103E2000780280911301909114019093790280930C
:103E30007A028091290280937B0290E080E00E94C8
:103E4000640A80937C0282E090E00E94640A80937E
:103E50007D0281E090E00E94640A80937E0280E20D
:103E6000C82E81E0D82E00E110E0FF24F394C801B1
:103E70000E94640AD6012D916D01022E000C330BB5
:103E800091E08217130609F090E0F9220F5F1F4FAF
:103E90000931110561F7F0927F0210928002809142
:103EA0001B038093810280911A0380938202809188
:103EB000150380938302B3E0BB1528F067E18DE61C
:103EC00092E00E94450CA4960FB6F894DEBF0FBE98
:103ED000CDBFDF91CF911F910F91FF90EF90DF90B9
:103EE000CF90BF90AF909F908F907F906F905F909A
:103EF0004F903F902F900895119252E0E438F507CB
:103F0000D9F7FCCE833611F00C940F0DF29010828D
:103F1000809122020A30110511F40C94EF0C8111EA
:103F20001EC066E471E085E694E00E94882D6DE88D
:103F300072E085E694E00E94882D6F2D85E694E07E
:103F40000E94902D4AE050E0B80185E694E00E947E
:103F5000582E67E771E085E694E00E94AD2D81E080
:103F6000809300018DE892E0909304018093030117
:103F700010922A0287E193E00E94D82A2B013C018B
:103F80008091FA029091FB02A091FC02B091FD0297
:103F900084159505A605B705BCF4809125028F5FB1
:103FA00080932502809124028F5F80932402809168
:103FB00023028F5F809323024092FA025092FB0209
:103FC0006092FC027092FD028091F6029091F702DD
:103FD000A091F802B091F902AC01BD01415F514FCF
:103FE0006F4F7F4F44155505660577059CF420916A
:103FF0000A01243618F42F5F20930A01805F914F45
:10400000AF4FBF4F8093F6029093F702A093F80250
:10401000B093F9028091F2029091F302A091F40220
:10402000B091F502AC01BD01415F514F6F4F7F4F21
:1040300044155505660577059CF420910901243146
:1040400018F42F5F20930901805F914FAF4FBF4F4E
:104050008093F2029093F302A093F402B093F502DE
:104060001FEF8CE492E0DC01A095B095BCA3ABA35C
:1040700087E193E00E94E4298A8F882309F4DBCD4D
:10408000C0902802E090020101E22BE232E0AE0192
:104090004F5F5F4F6CE472E087E193E00E94162A65
:1040A0004C01F12C829794F067EC73E085E694E084
:1040B0000E949B2D809118038F3F19F08F5F809392
:1040C000180301E2802E912CFF24FA94BBE22B2EE0
:1040D000B2E03B2EF101CF018B5292408815990539
:1040E00014F00C941F178191F82AF5CFEF8DF8A1E9
:1040F000EB5DFC4F8081918190932102809320029F
:1041000009C9813109F456CD823111F00C94A01700
:1041100085E0809323020C94A0171F920F920FB694
:104120000F921124CF92DF92EF92FF922F933F9341
:104130004F935F936F937F938F939F93AF93BF93AF
:10414000809178002091790030E0322F2227820F71
:10415000932F911DB0E0A0E020911B01222309F4D0
:1041600093C010921B012091620420937C00209147
:104170005404309155042F5F3F4F309355042093E2
:10418000540440914E0450914F046091500470913A
:104190005104840F951FA61FB71F80934E04909360
:1041A0004F04A0935004B0935104A901542F442705
:1041B0005295507F452B09F051C040914A045091CF
:1041C0004B0460914C0470914D04480F591F6A1FB5
:1041D0007B1F40934A0450934B0460934C047093AC
:1041E0004D04C0901E01D0901F01F12CE12C8C15C4
:1041F0009D05AE05BF0520F490931F0180931E011D
:10420000C0906004D0906104F12CE12CC816D9064E
:10421000EA06FB0620F490936104809360041092F8
:104220004E0410924F041092500410925104A4E0D6
:10423000220F331FAA95E1F7232B81F440935C04EE
:1042400050935D0460935E0470935F0410924A047F
:1042500010924B0410924C0410924D048EED8093FA
:104260007A00BF91AF919F918F917F916F915F91F4
:104270004F913F912F91FF90EF90DF90CF900F9053
:104280000FBE0F901F90189521E020931B012091E5
:10429000630420937C0020915204309153042F5FDB
:1042A0003F4F309353042093520440914604509161
:1042B00047046091480470914904840F951FA61F1C
:1042C000B71F8093460490934704A0934804B0938B
:1042D0004904A901542F44275295507F452B09F0DA
:1042E000BDCF4091420450914304609144047091C9
:1042F0004504480F591F6A1F7B1F40934204509387
:1043000043046093440470934504C0901C01D09012
:104310001D01F12CE12C8C159D05AE05BF0520F487
:1043200090931D0180931C01C0905A04D0905B04AF
:10433000F12CE12CC816D906EA06FB0620F490936E
:104340005B0480935A041092460410924704109222
:1043500048041092490484E0220F331F8A95E1F744
:10436000232B09F07BCF409356045093570460935E
:10437000580470935904109242041092430410920E
:104380004404109245046ACFCF92DF92EF92FF92DD
:104390000F931F9380916404882309F44EC086E82C
:1043A00080937A0080911E0190911F01FB019183FF
:1043B00080838091600490916104FA0191838083ED
:1043C00080915C0490915D04A0915E04B0915F04C3
:1043D000F90180839183A283B38380911C01909122
:1043E0001D01F8019183808380915A0490915B04B0
:1043F000F701918380838091560490915704A09196
:104400005804B0915904F60180839183A283B38349
:1044100080EF9FE390931F0180931E01109261042F
:104420001092600490931D0180931C0110925B0414
:1044300010925A048EE880937A001F910F91FF909A
:10444000EF90DF90CF900895CF92DF92EF92FF929E
:104450000F93CF93DF936B017C01D42FC22F9695DE
:104460008795779567957E5E85489F4FA701960152
:104470000E94692F3093410420934004B90176953E
:104480006795CB01820F931F90933F0480933E0466
:10449000C901F3E096958795FA95E1F7860F971F86
:1044A00090933D0480933C04569547953795279506
:1044B00030933B0420933A04C901880F991F280FB9
:1044C000391F309339042093380461E082E00E9460
:1044D0000A2B61E086E00E940A2B61E085E00E94E1
:1044E0000A2B61E083E00E940A2B429A5E9A5D9A51
:1044F0005B9A62E088E00E940A2B61E089E00E94FA
:10450000462B61E089E00E940A2B109278031092FA
:10451000770310923704109232048FEF80933104A6
:10452000109230041092CB031092CA031092C5036C
:104530001092C403109276031092750382E084BD3A
:1045400094E095BD99EF97BD10927003109271039E
:10455000109272031092730310926C0310926D0309
:1045600010926E0310926F0316BC21E023BD85BB31
:1045700080936E008093B00023E02093B10090936D
:10458000B30083BD1092B2001092780310927703AB
:1045900087BB8093700010926F001092800081E8BA
:1045A00080938100809181008F7B80938100809136
:1045B0008000806C8093800080918200806880936E
:1045C000820080E286BB80916F00806280936F00E2
:1045D000D0936404DD2301F18C2F806C80936304FD
:1045E000802F806C8093620421E030E0C90101C01B
:1045F000880FCA95EAF701C0220F0A95EAF7822BC5
:104600008F7380937E008091630480937C0010926E
:104610007B008EED80937A00DF91CF910F91FF9018
:10462000EF90DF90CF9008951F920F920FB60F92E8
:1046300011248F939F93AF93BF9380916C039091BC
:104640006D03A0916E03B0916F030896A11DB11D7B
:1046500080936C0390936D03A0936E03B0936F03EC
:10466000809174038F5F809374038D37A8F010924C
:1046700074038091700390917103A0917203B091C3
:1046800073030196A11DB11D809370039093710374
:10469000A0937203B0937303BF91AF919F918F91D9
:1046A0000F900FBE0F901F9018951F920F920FB68C
:1046B0000F9211242F933F938F939F9380917703B1
:1046C00090917803019649F0809177039091780357
:1046D000019690937803809377038091CB03833680
:1046E00009F06BC0209177033091780380917503B6
:1046F0009091760328173907C1F020917703309104
:10470000780380917503909176032817390708F490
:1047100054C02091770330917803809119019091D2
:104720001A012817390708F448C081E08093CB03A9
:10473000209138043091390480916A03882321F054
:104740008091690391E0811190E090936B038091D7
:104750006B03882351F081E0809369031092240356
:1047600080EF809366031092680390916F009F7DA5
:1047700090936F0090916F009B7F90936F001092C9
:1047800070008091840090918500820F931F909318
:10479000890080938800809180008F7B806880935F
:1047A0008000809181008F7B80938100B19A8091FD
:1047B0006F00826080936F005D9A9F918F913F910F
:1047C0002F910F900FBE0F901F901895823091057A
:1047D00010F482E090E090932303809322030895E5
:1047E00090931A018093190108952091C403909128
:1047F000C50381E0291380E008959091C5039F5F70
:10480000993108F090E02091C4032917E1F36FB7C4
:10481000F8942091CB03409122035091230322234B
:10482000A9F0292F30E0F901E555FC4F8083220FD4
:10483000331FF901E758FC4F518340831092230343
:10484000109222039093C5036FBF08958093C9030C
:104850008093C7031092C603109221031092200385
:1048600083E68093CB0350937603409375031092B5
:10487000230310922203E8CF1F920F920FB60F92DC
:1048800011242F933F934F935F936F937F938F9355
:104890009F93EF93FF938091CB03409184005091BD
:1048A00085006091880070918900843108F0AFC163
:1048B00020913A0430913B04260F371F3093890032
:1048C0002093880093B1917080FFE8C02091800010
:1048D000206C20938000209181002064209381002F
:1048E000813009F05EC020917703309178033093D6
:1048F0001F0320931E0310927000911192C010921A
:10490000200393B19170B59B59C1209186003091DD
:10491000870040E246BB992309F432C190916B03B2
:10492000992359F190916703911104C09091680304
:10493000911123C0E0912403F0E0EE0FFF1FEB5D27
:10494000FC4F31832083E0912403F0E0EF5AFC4FC9
:10495000982F90669083909124039F5F90932403F7
:10496000963111F41092240390916803992329F051
:10497000909167039150909367038093CA038F5F70
:104980008093CB03FF91EF919F918F917F916F91D6
:104990005F914F913F912F910F900FBE0F901F90FD
:1049A0001895833169F422E023BD1092B20061E0D2
:1049B00070E0709378036093770327BB20937000B7
:1049C0002091C803291709F49CCF9091200392608D
:1049D0009093200390916B03992309F492CF9091C7
:1049E0006703911104C09091680391118ACF90914F
:1049F0006803911106C091E0909368039BE0909347
:104A00006703E0912403F0E0EE0FFF1FEB5DFC4F26
:104A100051834083E0912403F0E0EF5AFC4F9CEF78
:104A200028C08093200390916B03992309F469CFE8
:104A300090916703911104C090916803911161CF27
:104A400090916803911106C091E0909368039BE0F8
:104A500090936703E0912403F0E0EE0FFF1FEB5DFE
:104A6000FC4F51834083E0912403F0E0EF5AFC4F68
:104A70009FEF9083909124039F5F9093240396313E
:104A800011F41092240390916803992309F439CF0B
:104A90009091670391509093670333CF823108F070
:104AA0005FC02091C903622F617020FD0BC020916F
:104AB00080002F7B206820938000209181002F7B35
:104AC000209381002091C60326272093C6032091BE
:104AD000C90330E0359527952093C90391113DC056
:104AE0009091200390629093200390916B039923FF
:104AF000A1F190916703911104C090916803911105
:104B00002CC090916803911106C091E090936803C6
:104B10009BE090936703E0912403F0E0EE0FFF1F0A
:104B2000EB5DFC4F51834083E0912403F0E0EF5AAA
:104B3000FC4F9EEF9083909124039F5F90932403FA
:104B4000963111F41092240390916803992329F06F
:104B5000909167039150909367036093C803D1CEFF
:104B60006091C6036111BACF209180002F7B20682D
:104B700020938000209181002F7B20938100AECF75
:104B800090916B03992309F4F8CE909167039111EA
:104B900004C0909168039111F0CEE0912403F0E0FD
:104BA000EE0FFF1FEB5DFC4F31832083E091240368
:104BB000F0E0EF5AFC4F982F9064CCCE9111DDCEEF
:104BC00090916B03992309F4D8CE909167039111CA
:104BD00004C0909168039111D0CE90916803911117
:104BE00006C091E0909368039BE090936703E09187
:104BF0002403F0E0EE0FFF1FEB5DFC4F5183408379
:104C0000E0912403F0E0EF5AFC4F97EFA3CE93B16D
:104C10009170B59BC3C0409186005091870030E2EF
:104C200036BB992309F4A2C090916B03992351F1EB
:104C300090916703911104C090916803911122C073
:104C4000E0912403F0E0EE0FFF1FEB5DFC4F51837A
:104C500040838066E0912403F0E0EF5AFC4F8083AC
:104C6000809124038F5F80932403863111F4109286
:104C7000240380916803882329F080916703815081
:104C80008093670380912003882329F05B9A8091A9
:104C9000C5038093C40380911801882339F1E09102
:104CA000320421E02E0F293108F020E080913004F9
:104CB000821709F49CC0822F90E03091C703FC0159
:104CC000E95EFB4F308340911E0350911F03FC01AE
:104CD000EE0FFF1FE453FC4F5183408330912003BC
:104CE00082509C4FFC013083209332049091C50385
:104CF0008091C403981709F4A6C08F5F893108F02A
:104D000080E08093C40390E0FC01E555FC4F3081C6
:104D10003093C9033093C703880F991FFC01E758EC
:104D2000FC4F80819181109221031092C603823042
:104D3000910508F067C080918800909189002091CA
:104D4000380430913904820F931F90938900809327
:104D50008800809180008F7B8068809380008091A4
:104D600081008F7B8093810081E00ACE90916B035C
:104D7000992309F487CF90916703911104C0909112
:104D8000680391117FCFE0912403F0E0EE0FFF1F45
:104D9000EB5DFC4F5183408380645CCF911172CFF7
:104DA00080916B03882309F46DCF80916703811193
:104DB00004C080916803811165CF809168038111DF
:104DC00006C081E0809368038BE080936703E091E5
:104DD0002403F0E0EE0FFF1FEB5DFC4F5183408397
:104DE000E0912403F0E0EF5AFC4F87EF38CF209199
:104DF0003204E22FF0E0E250FC4F80818860808333
:104E00005B9A74CF33E63093CB0390937603809311
:104E1000750380916F008D7F80936F00809181007A
:104E20008F7B8093810080E286BB80916F008062DF
:104E300080936F00E22FF0E0E250FC4F80818068A9
:104E400080835D989FCD1092CB03E3CF8091CB03FD
:104E50008111FCCF089580936A030895809318010F
:104E600008951F920F920FB60F9211242F933F9324
:104E70004F935F936F937F938F939F93EF93FF93E2
:104E80002091860030918700809184009091850068
:104E9000809137048111D3C05E9A5D985B989091A0
:104EA00031049F3F39F090913104909332049FEF89
:104EB00090933104409177035091780350931F03EE
:104EC00040931E031092700040913E0450913F04A5
:104ED000420F531F509334044093330492E0909355
:104EE00037041092350450938B0040938A0094E06D
:104EF00096BB90916F00946090936F00811116C0E3
:104F000090916903911112C090916A0390936B0381
:104F100090916B03992351F091E090936903109263
:104F2000240390EF909366031092680390916B03B3
:104F3000992351F190916703911104C090916803F6
:104F4000911122C0E0912403F0E0EE0FFF1FEB5D12
:104F5000FC4F31832083806CE0912403F0E0EF5A12
:104F6000FC4F8083809124038F5F809324038631DC
:104F700011F41092240380916803882329F0809112
:104F8000670381508093670330931D0320931C03B4
:104F90002EC090916B03992351F190916703911169
:104FA00004C090916803911122C0E0912403F0E0C5
:104FB000EE0FFF1FEB5DFC4F31832083806AE09191
:104FC0002403F0E0EF5AFC4F8083809124038F5F2D
:104FD00080932403863111F4109224038091680396
:104FE000882329F080916703815080936703FF91A4
:104FF000EF919F918F917F916F915F914F913F9131
:105000002F910F900FBE0F901F9018958A3009F0C6
:105010008DCF4091330450913404609140047091DD
:105020004104460F571F5093340440933304509368
:105030008B0040938A0094E096BB9BE031C0409186
:105040001C0350911D03B901641B750B40913C0476
:1050500050913D046417750708F49BCF823008F423
:105060001ECF8A3098F64091360450E0559547950A
:1050700040933604409133045091340460914004CD
:1050800070914104460F571F5093340440933304EA
:1050900050938B0040938A0094E096BB91E0980F68
:1050A0009093370443CF1F920F920FB60F921124A3
:1050B0002F933F934F935F936F937F938F939F9320
:1050C000AF93BF93EF93FF9360918A0070918B0031
:1050D000409184005091850090913704913061F5A2
:1050E00080916F008B7F80936F00109237048091C6
:1050F00031048F3F79F08091310480933204E09144
:105100003204F0E0E250FC4F8081806880838FEFB2
:10511000809331045E98FF91EF91BF91AF919F9181
:105120008F917F916F915F914F913F912F910F9050
:105130000FBE0F901F901895A0913304B0913404C6
:1051400020914004309141049B3009F0BEC08AE0B8
:10515000829FF001839FF00D1124EA0FFB1FF09353
:105160008B00E0938A0081E08093370480913204C1
:105170008F5F893108F080E020913004281709F40E
:1051800059C0E82FF0E020913604DF01A95EBB4F43
:105190002C9320911E0330911F03DF01AA0FBB1F28
:1051A000A453BC4F11963C932E93E250FC4F1082B7
:1051B00020913504222309F4B8C020812460208383
:1051C00020916B032223A1F120916703211104C0D8
:1051D0002091680321112CC020916803211106C081
:1051E00021E0209368032BE020936703E0912403E0
:1051F000F0E0EE0FFF1FEB5DFC4F71836083E091E9
:105200002403F0E0EF5AFC4F2DEF2083209124037C
:105210002F5F20932403263111F410922403209150
:105220006803222329F0209167032150209367030C
:105230005B9A0BC0E0913204F0E0E250FC4F8081B9
:10524000886080835B9A809132048093310482E08D
:1052500083BD1092B20021E030E0309378032093B8
:10526000770387BB8093700080916B03882309F4D8
:1052700052CF80916703811104C08091680381112E
:105280004ACFE0912403F0E0EE0FFF1FEB5DFC4FEF
:10529000518340839068E0912403F0E0EF5AFC4F83
:1052A0009083809124038F5F80932403863111F4CF
:1052B0001092240380916803882309F42CCF8091F5
:1052C000670381508093670326CF8091350460E89F
:1052D000680F2A0F3B1F9A3099F4609335046BE0F6
:1052E00060933704309334042093330430938B005D
:1052F00020938A00803811F05B9AB6CF5B98B4CFC8
:1053000080913604869580688093360460933504D6
:1053100081E0890F80933704309334042093330461
:1053200030938B0020938A009FCF5B988ECF809123
:105330003204E09130048E1761F0EF5FE93108F03C
:10534000E0E0F0E0EE0FFF1FE453FC4F808191811D
:10535000089590E080E0089580913204E091300457
:105360008E1749F0EF5FE93108F0E0E0F0E0E2503D
:10537000FC4F8081089580E00895809132049091DF
:105380003004891761F09F5F993108F090E0E92FB0
:10539000F0E0E95EFB4F808190933004089580E057
:1053A00008952091320490913004291728F081E06B
:1053B000291309C080E007C030E0275E3F4F81E03D
:1053C00092171306B9F308952091320480913004A6
:1053D000821769F08F5F893108F080E0E82FF0E0F4
:1053E000E250FC4F908197FFF3CF81E0089580E079
:1053F000089580913004809332040895CF93DF9311
:10540000CFE6D0E088818B7F888388818F7D8883F9
:105410000E94F9290E94262788818D7F8883109217
:10542000700010926E00DF91CF9108952F923F92FD
:105430004F925F926F927F928F929F92AF92BF92A4
:10544000CF92EF920F93CF93DF935C013B012A0140
:105450004901C0E0202F2150330B1401220E331ECE
:10546000C5010E94D1298823D9F3C5010E94AC2926
:10547000D82F8114910441F0982F9F77C01728F5F9
:10548000F401EC0FF11D9083C11106C0C5010E940B
:105490009729F20191838083C5010E94BD29D7FF1E
:1054A00019C0EE2009F442C0C01748F5EC2FF0E017
:1054B000D301AE0FBF1F8C938C1509F1E80DF91DB8
:1054C0008081806180835B9A1AC0F1018081892B81
:1054D0008083DACFC01720F4F301EC0FF11D808335
:1054E000EE2069F098E02C2D30E035952795C82600
:1054F000C0FE1AC0CE2CC22686959150A1F7CF5F70
:10550000D7FFAECF8C2F90E0DF91CF910F91EF902E
:10551000CF90BF90AF909F908F907F906F905F9053
:105520004F903F902F900895C22EE6CFC017A0F263
:10553000E6CFCF92DF92EF920F931F93CF93DF933B
:10554000D62E172FC42EC9010E94E623CD2DD12FB0
:10555000CC0EDD2ED11CCC16DD06B1F01991812FB9
:105560000E94FD230023B9F328E08E2D90E095954D
:105570008795E126E0FE06C0E02EE826169521502C
:10558000A1F7E9CFE82EFACF002351F08E2DDF915D
:10559000CF911F910F91EF90DF90CF900C94FD234E
:1055A000DF91CF911F910F91EF90DF90CF900895F1
:1055B00060917003709171038091720390917303F5
:1055C0000895843081F028F48230E9F08330F9F0D6
:1055D0000895883071F0893091F08530B9F4809168
:1055E00080008F7D03C0809180008F778093800042
:1055F00008958091B0008F778093B00008958091D6
:10560000B0008F7DF9CF84B58F7784BD089584B5C0
:105610008F7DFBCFCF93DF9390E0FC01EB5FFB4EE0
:105620002491845E9B4EFC0184918823C9F090E014
:10563000880F991FFC01E35CFB4EA591B491FC011E
:10564000ED5CFB4EC591D49161110DC09FB7F894EC
:105650008C91209582238C938881282328839FBF57
:10566000DF91CF910895623051F49FB7F8943C9147
:10567000822F809583238C93E8812E2BEFCF8FB7D9
:10568000F894EC912E2B2C938FBFEACF1F93CF93DE
:10569000DF93282F30E0F901E251FC4E8491F901AB
:1056A000EB5FFB4ED491F901E45EFB4EC491CC2339
:1056B000A9F0162F81110E94E12AEC2FF0E0EE0FE5
:1056C000FF1FED5CFB4EA591B4918FB7F894EC9160
:1056D000111108C0D095DE23DC938FBFDF91CF91ED
:1056E0001F910895DE2BF8CFFC01918D228D892F1B
:1056F00090E0805C9F4F821B91098F7399270895DA
:10570000FC01918D828D981731F0828DE80FF11D8B
:10571000858D90E008958FEF9FEF0895FC01918DA6
:10572000828D981761F0A28DAE0FBF2FB11D5D96CF
:105730008C91928D9F5F9F73928F90E008958FEF71
:105740009FEF0895FC01538D448D252F30E0842F69
:1057500090E0821B930B541710F0CF960895019799
:10576000089581EF9CE2892B49F080E090E0892B3D
:1057700029F00E94F12C81110C9400000895FC0185
:10578000A48DA80FB92FB11DA35ABF4F2C91848DA2
:1057900090E001968F739927848FA689B7892C93FF
:1057A000A089B1898C9180648C93938D848D98139A
:1057B00006C00288F389E02D80818F7D8083089563
:1057C000CF93DF93EC01888D8823B9F0AA89BB8938
:1057D000E889F9898C9185FD03C0808186FD0DC023
:1057E0000FB607FCF7CF8C9185FFF2CF808185FF44
:1057F000EDCFCE010E94BF2BE9CFDF91CF9108956D
:10580000EF92FF920F931F93CF93DF93EC0181E010
:10581000888F9B8D8C8D981316C0E889F9898081BB
:1058200085FF11C0EE89FF896083E889F98980814D
:105830008064808381E090E0DF91CF911F910F9190
:10584000FF90EF900895F62E0B8D10E00F5F1F4F25
:105850000F731127E02E8C8D8E110CC00FB607FC34
:10586000FACFE889F989808185FFF5CFCE010E94C2
:10587000BF2BF1CFEB8DEC0FFD2FF11DE35AFF4F46
:10588000F0820B8FEA89FB8980818062D2CFCF9230
:10589000DF92EF92FF921F93CF93DF93EC016A01A7
:1058A0007B01122F60E874E88EE190E0A701960179
:1058B0000E94692F21503109410951095695479598
:1058C00037952795E889F98982E08083211580E161
:1058D000380798F0E889F989108260E472E48FE073
:1058E00090E0A70196010E94692F215031094109DA
:1058F00051095695479537952795EC85FD85308359
:10590000EE85FF852083188EEC89FD891083EA8956
:10591000FB89808188698083EA89FB8980818F7D0A
:105920008083DF91CF911F91FF90EF90DF90CF9018
:1059300008951F920F920FB60F9211242F938F93F9
:105940009F93EF93FF93E0917504F091760480812B
:10595000E0917B04F0917C0482FD1BC090818091DA
:105960007E048F5F8F7320917F04821741F0E09156
:105970007E04F0E0EB59FB4F958F80937E04FF91FE
:10598000EF919F918F912F910F900FBE0F901F90CD
:1059900018958081F4CF1F920F920FB60F921124A9
:1059A0002F933F934F935F936F937F938F939F9327
:1059B000AF93BF93EF93FF9385E694E00E94BF2BD4
:1059C000FF91EF91BF91AF919F918F917F916F91D7
:1059D0005F914F913F912F910F900FBE0F901F90AD
:1059E000189585E694E00E94742B21E0892B09F438
:1059F00020E0822F0895E5E6F4E01382128288EE1B
:105A000093E0A0E0B0E084839583A683B7838FE022
:105A100092E09183808385EC90E09587848784EC85
:105A200090E09787868780EC90E0918B808B81EC6B
:105A300090E0938B828B82EC90E0958B848B86EC4C
:105A400090E0978B868B118E128E138E148E089594
:105A5000AF92BF92CF92DF92EF92FF920F931F937C
:105A6000CF93DF936C017B018B01040F151FEB01BA
:105A70005E01AE18BF08C017D10759F06991D60171
:105A8000ED91FC910190F081E02DC6010995892BE3
:105A900079F7C501DF91CF911F910F91FF90EF90A2
:105AA000DF90CF90BF90AF900895FB010190002050
:105AB000E9F73197AF01461B570BDC01ED91FC91E3
:105AC0000280F381E02D0994EF92FF920F931F93D0
:105AD000CF93DF938C017B01D0E0C0E0F701EC0FA6
