:100000000C9471020C9499020C9499020C9499022C
:100010000C9499020C9499020C9499020C94171068
:100020000C9499020C9499020C94C6130C9404112C
:100030000C9489150C9499020C94D60F0C94990287
:100040000C947E180C9499020C94621B0C94941BD3
:100050000C9499020C94310D0C9499020C94990211
:100060000C9499020C9499026364696E6F707375B5
:1000700078585B0020435243206572726F72003AD9
:100080004F522D002D55433A002D50453A002D4238
:10009000433A002D58583A002D53423A003A200076
:1000A0002E00542000522000452000203F2000E276
:1000B00080BE5C5F005F2FE280BE005F5F5F00E29A
:1000C00080BEE280BEE280BE002D582D00202020A0
:1000D0006C77202020002020207065202020002028
:1000E0002020504520202000202020626320202056
:1000F0000020202042432020200020202073622066
:100100002020002020205342202020002020206298
:100110006520202000202020424520202000632050
:10012000004320002A20536B697070696E67206954
:100130006E697469616C207061636B6574207769A6
:10014000746820726561646572726F72203D203040
:1001500078002A20416C7761797320736B69707025
:10016000696E67206669727374207061636B657471
:100170002069662064656C7461203D3D20302C2030
:10018000726561646572726F72203D203078002A5A
:10019000205265636569766564207061636B657480
:1001A000206C6F6E676572207468616E2052425FCA
:1001B00053495A45002A20436F6D6D616E64206E6D
:1001C0006F7420756E64657273746F6F643A20008B
:1001D0002A20526573657474696E672041546D6599
:1001E0006761202E2E2E2E002A20526566757369B7
:1001F0006E6720746F207772697465207061636B1D
:100200006574207768696C652070726576696F75B2
:1002100073207061636B6574207761736E2774203F
:1002200066696E6973686564002A20526566757335
:10023000696E6720746F20777269746520656D70D0
:100240007479207061636B6574002A205772697439
:10025000696E673A200073657420746F20002A204D
:10026000416C6C6F772028626974732070617573BC
:100270006529200073657420746F20002A20536F55
:100280006674776172652D73636F706520007365A6
:100290007420746F20002A2044656C617954696D64
:1002A000656F7574200073657420746F20005B7532
:1002B0007365206F662064656C61792030206F72F1
:1002C0002031206E6F74207265636F6D6D656E6492
:1002D00065642C20696E6372656173696E67207452
:1002E0006F20325D20002A2044656C617920007304
:1002F000657420746F20002A204572726F72206D21
:1003000061736B202848697461636869206465665D
:1003100061756C7420307833422C2050453D2B3071
:100320007830342C2055433D2B307834302C206FDE
:1003300074686572206272616E647320307837462B
:100340002920002A204C696E6520746F6F206C6F25
:100350006E672C207465726D696E61746564002A25
:10036000204C696E6520746F6F206C6F6E672C2057
:1003700069676E6F72656400522050202020202033
:1003800020202020002A2052656164792073657442
:100390007570002A204572726F72206D61736B3D1B
:1003A0003078002A20416C6C6F773D002A20503154
:1003B00050324D5154542062726964676520415433
:1003C0006D656761487749442076312E002028709A
:1003D0006F7765722D6F6E2D7265736574290020BD
:1003E000286578742D7265736574290020286272FF
:1003F0006F776E2D6F757429002A205265736574AE
:100400002063617573653A204D435553523D00207A
:10041000482D73657269657300204E455750315001
:10042000324C494200206D6F64656C6E7220002072
:100430006272616E64200031353A35333A313800EA
:1004400020004D6179203138203230323400206371
:100450006F6D70696C65642000503150324D6F6E65
:1004600069746F722076302E392E3436002A20457A
:100470004550524F4D20696E69740000000009001C
:100480000302000004050800000000000000000056
:10049000000001020408102040800102040810201E
:1004A00001020408102040804004040404040404F1
:1004B0000402020202020203030303030302020313
:1004C0000000000023002600290000000000250095
:1004D00028002B0000000000240027002A00C41B75
:1004E0003B0511241FBECFEFD8E0DEBFCDBF11E02A
:1004F000A0E0B1E0E2EBF4E402C005900D92A03779
:10050000B107D9F726E0A0E7B1E001C01D92A537F9
:10051000B207E1F712E0C0E7D2E004C02197FE0184
:100520000E94D71ECF36D107C9F70E94671D0C94D1
:100530004C220C9400001F93CF93DF93EC01162FF5
:100540000E94FF21181739F0612FCE01DF91CF9162
:100550001F910C940722DF91CF911F9108950C9465
:10056000FF21CF92DF92EF92FF921F93CF93DF9301
:1005700086E1E82E81E0F82E6701C0E1D0E011E0CD
:10058000CE010E94AF02F60121916F01022E000CF4
:10059000330B91E08217130609F090E0192321969E
:1005A000C631D10569F711112BC06DE674E088EDF5
:1005B00095E00E94641CC0E1D0E0F70161917F01E9
:1005C000CE010E949B022196C631D105B1F760E0B1
:1005D00090E080E00E949B0260E081E090E00E9459
:1005E0009B0262E083E090E00E949B0260E084E076
:1005F00090E00E949B0264E186E090E00E949B02F2
:1006000085E090E00E94AF028F3F29F46BE385E024
:1006100090E00E949B0289E090E00E94AF028F3F31
:1006200029F460E089E090E00E949B0289E090E07C
:100630000E94AF0281110CC061E089E090E0DF917F
:10064000CF911F91FF90EF90DF90CF900C949B0281
:10065000DF91CF911F91FF90EF90DF90CF900895A1
:10066000882331F06DE171E088ED95E00E94761C01
:100670006FE271E088ED95E00E94511C69E574E03D
:1006800088ED95E00E942D1C6EE474E088ED95E005
:100690000E942D1C62E474E088ED95E00E942D1C00
:1006A00060E474E088ED95E00E942D1C67E374E03F
:1006B00088ED95E00E942D1C6FE274E088ED95E0D6
:1006C0000E942D1C4AE050E060910B0188ED95E0FE
:1006D0000E94351D65E274E088ED95E00E942D1CB6
:1006E0004AE050E06091DF0288ED95E00E94351D00
:1006F00069E174E088ED95E00E942D1C6FE074E0E4
:1007000088ED95E00E942D1C88ED95E00E94601C0C
:1007100069EF73E088ED95E00E942D1C4AE050E0FF
:100720006091D90288ED95E00E94351D8091D90233
:1007300082FF06C06CEE73E088ED95E00E942D1CF0
:100740008091D90281FF06C06FED73E088ED95E0DE
:100750000E942D1C8091D90280FF06C06DEC73E0D1
:1007600088ED95E00E942D1C88ED95E00E94601CAC
:100770006CEA73E088ED95E00E942D1C4AE050E0A1
:1007800060917A0188ED95E00E943C1D63EA73E078
:1007900088ED95E00E942D1C4AE050E06091050133
:1007A00088ED95E00E943C1D63E973E088ED95E0DB
:1007B0000E942D1C80910601803128F460E388EDB1
:1007C00095E00E94591C40E150E06091060188EDDF
:1007D00095E00C943C1DEF92FF920F931F9384B70A
:1007E0008093D90214BE62E084E00E94771961E030
:1007F00083E00E94771960E083E00E94B31984E0EF
:100800000E94E1197C0161E083E00E94B31984E059
:100810000E94E1198C0160E084E00E94771960E099
:1008200083E00E947719EF2831F48FEF012B09F054
:1008300082E080937A0180917A01811149C083E03E
:1008400080937E0010927B0088B1836088B981EC30
:1008500080937C0086ED80937A0080917A0086FDFB
:10086000FCCF209178008091790090E0982F882724
:10087000820F911D909379018093780188B18C7FCC
:1008800088B987EC80937C0086ED80937A00809114
:100890007A0086FDFCCF209178008091790090E06D
:1008A000982F8827820F911D90937901809378016A
:1008B00088B188B910927E00809178019091790179
:1008C00081529340873C910518F481E080937A012E
:1008D00026E040E950ED63E070E088ED95E00E948D
:1008E000E41A0E94B10286E090E00E94AF02809379
:1008F000050185E090E00E94AF028093060183E04D
:1009000090E00E94AF02082F80930B0184E090E0FA
:100910000E94AF028093DF020F3F41F462E083E068
:1009200090E00E949B0282E080930B018091DF02A5
:100930008F3F39F460E084E090E00E949B021092C7
:10094000DF0281E00E94300380917A01EE24E3947B
:10095000823029F0E12C07E026E0813011F001E03F
:1009600020E041E0811101C040E060E875E280E0F4
:1009700090E00E94D40E81E00E94C3138091050193
:100980000E94C013809106010E94BD138091DA027B
:100990000E94BA1380910701909108010E94B8103B
:1009A00060E08BED92E00E94CE0E65E873E088ED8A
:1009B00095E01F910F91FF90EF900C94641C7F9332
:1009C0006F9322E331E03F932F939F938F930E9485
:1009D000EB1E0F900F900F900F900F900F900895B7
:1009E0007F936F9325E331E03F932F939F938F93F2
:1009F0000E94EB1E0F900F900F900F900F900F9092
:100A00000895FF920F931F93CF93DF932091770167
:100A100021112BC0062F192FF82E68E773E088EDFF
:100A200095E00E942D1CCF2DD12F0C0F1D2F111DD5
:100A30000C171D0789F0F9908FE08F1528F060E3FF
:100A400088ED95E00E94591C40E150E06F2D88ED43
:100A500095E00E94351DECCF88ED95E0DF91CF91B8
:100A60001F910F91FF900C94601CDF91CF911F910B
:100A70000F91FF9008950C948F172F923F924F92F1
:100A80005F926F927F928F929F92AF92BF92CF921E
:100A9000DF92EF92FF920F931F93CF93DF93CDB727
:100AA000DEB766970FB6F894DEBF0FBECDBF90914C
:100AB0007A01923049F480917701813009F45DC068
:100AC00038F1823009F463C080917701811155C7F4
:100AD00088ED95E00E94241A9C0197FD4EC79091E5
:100AE0007B01E0910301F09104012A30310509F402
:100AF00022C7963908F022C7AF014F5F5F4F50936E
:100B000004014093030120839F5F90937B01DCCF1E
:100B10001C9918C081E08093770161E08BED92E031
:100B20000E94C80E60E08BED92E00E94CE0E69E359
:100B300071E088ED95E00E94761C88ED95E00E94BA
:100B4000401BC2CF1D99C0CF9093770160E08BED21
:100B500092E00E94C80E61E08BED92E00E94CE0E02
:100B600069E371E088ED95E00E94761C6AE070E030
:100B700080E090E00E94ED18E0CF1D99A5CF909302
:100B8000770161E08BED92E00E94CE0E9DCF1D9B20
:100B90009BCF109277012FE332E030930401209332
:100BA000030110927B01109272018093000126E0F4
:100BB00040E950ED63E070E088ED95E00E94E41AB2
:100BC00060E08BED92E00E94CE0E61E08BED92E052
:100BD0000E94C80E81E00E94300376CF81110DC0C3
:100BE00080917701811106C063E473E088ED95E0A0
:100BF0000E94641C81E08093720110920001B5C6CE
:100C00001082992361F0A92FB0E0A25CBD4F8C91B6
:100C10008D3029F4915090937B013197108280910F
:100C20000001823051F3813029F4809172018111E9
:100C3000E4CFE0CF84E492E0909304018093030139
:100C400044E050E06AE471E08FE392E00E94DD1E30
:100C50006C01892B09F089C680914302873509F41C
:100C600095C10CF066C08B3409F42AC214F58A329F
:100C700009F47BC6853409F4B5C0882309F475C628
:100C800080917701811106C065EB71E088ED95E0F8
:100C90000E942D1C80917701811167C6609103012C
:100CA000709104016150710988ED95E00E94761CF5
:100CB0005CC6843509F4E5C094F58F3409F780915A
:100CC0007701811106C066E972E088ED95E00E9427
:100CD0002D1C67E071E080910301909104010E9456
:100CE000DF04019799F480910701909108010E9417
:100CF000B81080917701811106C06EE872E088ED2E
:100D000095E00E942D1C89E0809374018091770109
:100D100081112BC66091070170910801F2C08535E1
:100D200009F4F6C0863509F0ABCF80E00E943003AD
:100D30001CC6843709F4A5C00CF048C0853609F4F8
:100D400051C0ECF5883509F09BCF80917701811176
:100D500006C06EE572E088ED95E00E942D1CBE0194
:100D60006B5E7F4F80910301909104010E94DF042C
:100D70000197E1F48D89809305018D3418F08CE49E
:100D800080930501809105010E94C0138091770135
:100D9000811106C066E572E088ED95E00E942D1C89
:100DA0006091050186E090E00E949B0280917701AE
:100DB0008111DBC54AE050E0609105015DC08B36D2
:100DC00009F47EC18F3609F47ACF5ACF863709F4F9
:100DD000ACCF0CF49DC0873709F4D8C0883709F42C
:100DE000B4CF4ECF80917701811106C067EF72E0DA
:100DF00088ED95E00E942D1CBE016B5E7F4F8091B7
:100E00000301909104010E94F0040197B1F48D89CF
:100E10008F77809306010E94BD1380917701811125
:100E200006C06FEE72E088ED95E00E942D1C609187
:100E3000060185E090E00E949B028091770181117C
:100E400006C06FE471E088ED95E00E94511C80912E
:100E5000770190910601903138F4811105C060E36B
:100E600088ED95E00E94591C8091770140E150E0A7
:100E700060910601811179C588ED95E00E943C1DC5
:100E800074C580917701811106C066EE72E088ED2D
:100E900095E00E942D1C69E071E080910301909122
:100EA00004010E94DF04019721F5809177012091D0
:100EB000090130910A012230310570F422E030E05E
:100EC00030930A0120930901811110C06EEA72E08B
:100ED00088ED95E00E942D1C80917701811106C05C
:100EE00066EA72E088ED95E00E942D1C89E080930F
:100EF0007401809177016091090170910A0181115B
:100F000034C54AE050E088ED95E00E94541D2DC59F
:100F100080917701811106C06CE772E088ED95E061
:100F20000E942D1CBE016B5E7F4F8091030190914A
:100F300004010E94DF040197C9F48D898093DA02CD
:100F400099E090937401823018F081E08093DA0286
:100F50008091DA020E94BA1380917701811112C048
:100F600064E772E088ED95E00E942D1C8091770186
:100F7000811108C04AE050E06091DA0288ED95E006
:100F80000E943C1D88EC80930201EFC480917701A0
:100F9000811106C06AE472E088ED95E00E942D1C84
:100FA0000EEF11E07E0133E1E30EF11C5E0181E101
:100FB000A80EB11C62E5862E61E0962EFF92EF929C
:100FC000BF92AF929F928F92809104018F938091F4
:100FD00003018F930E94EB1E0FB6F894DEBF0FBE85
:100FE000CDBF019791F529893A89FFEFCF1ADF0A22
:100FF000F80121938F0180910301909104014B89A5
:101000005C89840F951F9093040180930301203124
:10101000310554F480917701811106C068E571E0D3
:1010200088ED95E00E94511C80917701811108C0E4
:1010300069897A8940E150E088ED95E00E94211DA0
:1010400021E4C216D10409F0B9CF80917701811152
:1010500004C088ED95E00E94601C0E94BD108823AA
:10106000E1F0C114D10471F02091090130910A011D
:10107000E12C00E04C2D6EEF71E08BED92E00E94D0
:10108000361873C48091770181116FC469E272E0F0
:1010900088ED95E00E94641C68C4809177018111FD
:1010A00006C068EE71E088ED95E00E94641C8091B6
:1010B000DC028F3F09F459C48F5F8093DC0255C472
:1010C00080917701811106C060ED71E088ED95E0B7
:1010D0000E94641CE0917501F0917601099545C468
:1010E0009091010180917701992309F4F5C09A301C
:1010F00009F0E5C029813A81232B09F0E0C062E5BF
:1011000071E0882309F4E1C080917701811107C063
:1011100040E150E0632D88ED95E00E943C1D8091F8
:101120000101815080930101809174018530E8F1C3
:10113000109274011092FE011092FF018EE08093D4
:1011400000021092010289E0809302028EE28093F5
:10115000030280917A018093040280910B018093B5
:1011600005028091DF02809306028091DA0280936B
:1011700007028CE7809308028091090190910A018F
:101180009093090280930A028091070190910801CF
:1011900090930B0280930C028091D90280930D02F0
:1011A00060E18EEF91E00E9401058091730185302E
:1011B00008F46CC0109273011092FE011092FF01AE
:1011C0008FE0809300028091DE0280930102809183
:1011D000DD028093020280910601809303028091D8
:1011E000050180930402E5E0F2E0119222E0EF3085
:1011F000F207D9F710920D0210920E0270920F02B0
:1012000060921002509211024092120280917A0173
:101210008823B9F1CE0101966C01FE0139967F0158
:101220008E01055F1F4F9E012B5F3F4FAE01435F55
:101230005F4FBE01615F7F4F8BED92E00E94680EB1
:101240006D817E818F8198850E94A61D2DE434E3F7
:1012500041E558E30E94341E0E94771D645E60934E
:10126000130269817A818B819C810E94A61D29E4E9
:1012700031E147E157E30E94341E0E94771D6093DD
:10128000140267E18EEF91E00E94010566960FB6A9
:10129000F894DEBF0FBECDBFDF91CF911F910F91AC
:1012A000FF90EF90DF90CF90BF90AF909F908F9086
:1012B0007F906F905F904F903F902F9008953320D4
:1012C00049F0811121CF64E271E088ED95E00E9440
:1012D0002D1C1ACF109201019091DA02992309F482
:1012E000AFC09091E902911105C090912B03903FFE
:1012F00009F4A6C090910201955090930201332009
:1013000009F47AC061E271E0882309F479C0809120
:10131000BD01803148F480917701811105C060E3FF
:1013200088ED95E00E94591C80917701811108C0D9
:1013300040E150E06091BD0188ED95E00E94351DCF
:101340008091BE01803148F480917701811105C000
:1013500060E388ED95E00E94591C8091770181112E
:1013600008C040E150E06091BE0188ED95E00E9428
:10137000351D8091BF01803148F480917701811142
:1013800005C060E388ED95E00E94591C80917701CB
:10139000811108C040E150E06091BF0188ED95E007
:1013A0000E94351D80917701811105C060E288EDB2
:1013B00095E00E94591C80912B03F12CE12C803F79
:1013C00019F0E090E902F12CD701AA5EBC4FEC9134
:1013D00080917701E75FE93008F073C1F0E0ED50EC
:1013E000F64F0C94D71E5C0B350B570B4D0B430B74
:1013F000050A520B480B3E0B811189CF6EE171E05B
:1014000088ED95E00E942D1C82CF65E171E0882374
:1014100009F42FC1FFEFEF1AFF0A26E1E216F104EB
:1014200011F4F12CE12C8091E9028E151F0461F674
:1014300080917701811104C088ED95E00E94601CC5
:10144000809102018F5F893C08F04BC280930201BA
:1014500010922E0390917701332009F461C2411458
:1014600051046104710449F08091DE028F3F29F03C
:101470008F5F8093DE023092DD02911110C068EA26
:1014800070E088ED95E00E942D1C8091770181111C
:1014900006C062EA70E088ED95E00E942D1C89810B
:1014A0009A818031974248F480917701811105C07B
:1014B00060E288ED95E00E94591C89819A81209113
:1014C0007701883EE3E09E0708F00EC2211105C0B7
:1014D00060E388ED95E00E94591C809177018111AD
:1014E00006C060EA70E088ED95E00E942D1C8981BD
:1014F0009A818436910548F480917701811105C065
:1015000060E388ED95E00E94591C89819A810A97D1
:1015100048F480917701811105C060E388ED95E082
:101520000E94591C80917701811108C069817A81DC
:101530004AE050E088ED95E00E944E1D80917701D1
:10154000811106C06DE970E088ED95E00E942D1CC8
:101550008DEBE82E81E0F82E0CE711E08091770109
:1015600098012C573140281539050CF0D2C168017B
:10157000F801908190FF08C0811106C068E970E011
:1015800088ED95E00E942D1CF801808181FF0AC042
:1015900080917701811106C063E970E088ED95E0E4
:1015A0000E942D1CF801808185FF0AC0809177017F
:1015B000811106C06EE870E088ED95E00E942D1C58
:1015C000F801808182FF0AC080917701811106C0F5
:1015D00069E870E088ED95E00E942D1CF80180819B
:1015E00086FF0AC080917701811106C064E870E02F
:1015F00088ED95E00E942D1CF701B1907F01FFE07E
:10160000FB1548F080917701811105C060E388EDFA
:1016100095E00E94591C80917701811107C040E13B
:1016200050E06B2D88ED95E00E94351DF80180811A
:1016300083FF0AC080917701811106C06FE770E0D7
:1016400088ED95E00E942D1C0F5F1F4FF6018081F1
:1016500084FF84CF80917701811180CF64E770E0AF
:1016600088ED95E00E942D1C79CF8111D3CE6CE0DE
:1016700071E088ED95E00E942D1CCCCE63E071E016
:101680008111C8CEF6CF6AEF70E08111C3CEF1CFE1
:1016900061EF70E08111BECEECCF68EE70E0811199
:1016A000B9CEE7CF6FED70E08111B4CEE2CF66ED39
:1016B00070E08111AFCEDDCF6DEC70E08111AACE6C
:1016C000D8CF1C91107E0C910F716701CC0CDD1CE2
:1016D000B1104BC0103439F4811105C060E288EDBF
:1016E00095E00E94591CF601E651FD4FA080B180A3
:1016F0008091700190917101A81AB90A23E0B69403
:10170000A7942A95E1F72AE0A216B10498F48091F3
:101710007701811105C060E288ED95E00E94591CB7
:1017200080917701811121C060E288ED95E00E94EF
:10173000591C04C034E6A316B10490F380917701DC
:10174000811113C04AE050E0B50188ED95E00E9498
:101750004E1D80917701103409F46CC1811105C0D0
:101760006AE388ED95E00E94591CF601E651FD4FB1
:1017700080819181909371018093700180917701B4
:101780001036E1F1A0F4112359F1103409F45BC1D2
:10179000882309F489C0103809F48FC008F0C5C047
:1017A000103409F457C1103609F071C03EC0103A28
:1017B00021F0103C11F0103859F70A3008F04BC0F6
:1017C000023008F46BC081114DC0E02FE250FF0BD6
:1017D000BF014AE050E088ED95E00E94211D4EC017
:1017E000811105C06FE388ED95E00E94591C80913E
:1017F00077016BEB70E081116BC06EC0033140F478
:101800000330D0F4013070F481110FC060E205C0E4
:101810000531D0F760E5811108C088ED95E00E94A0
:10182000591C03C063E58823C1F38091770165EB00
:1018300070E081114DC050C08111F7CF802F8350CF
:10184000990BBC01759567954AE050E088ED95E0ED
:101850000E94211DEACF0A3051F00B3019F565E4E2
:10186000882341F0103A81F1103C91F5F3C060E516
:101870008111F8CF88ED95E00E94591C1036A9F22D
:10188000A8F4112309F4B3CF103409F4E3C0809114
:10189000770181111DC06BEA70E01EC08111E2CF9B
:1018A00063E5E8CF8111DECF60E2E4CF103A61F06A
:1018B000103C09F4CFC0103851F7809177016FEBDD
:1018C00070E0811105C008C080917701882311F074
:1018D000B12CA0CD69EC70E088ED95E00E942D1C44
:1018E000F7CF20920201B4CD21110AC068EE73E057
:1018F0000E94A11E4AE050E088ED95E00E944E1D36
:1019000089819A8168EE73E00E94A11E9A8389837F
:10191000E4CD811159C088ED95E00E94601C54C04F
:101920009111BDCD65EA70E0ACCD103A89F2103C62
:1019300009F0ADCF8FC0963909F062C93197108296
:10194000809172012A30310509F448C981110AC019
:1019500080917701811106C06FE573E088ED95E015
:101960000E94641C81E0809300018FE392E09093D9
:1019700004018093030110927B018BED92E00E94A1
:1019800075182B013C018091D5029091D602A0914F
:10199000D702B091D80284159505A605B70594F431
:1019A000809174018F5F80937401809173018F5FC8
:1019B000809373014092D5025092D6026092D70272
:1019C0007092D80258EC252E8BED92E00E9475178C
:1019D000B82E882309F4A8CBC12CE12C01E42CE714
:1019E00031E0AE014F5F5F4F6DEB71E08BED92E048
:1019F0000E94A7174C01312C823491057CF0809114
:101A00007701811106C06FE871E088ED95E00E94D2
:101A1000641C41E4842E912C33243A94ECE7F1E0E9
:101A2000CF018C579140881599050CF059CB8191C5
:101A3000382AF6CFF601E651FD4F208131813093EF
:101A4000710120937001811105C060E288ED95E07D
:101A50000E94591C809177016FEA70E0811138CFA4
:101A60003BCF1F920F920FB60F921124CF92DF92AD
:101A7000EF92FF922F933F934F935F936F937F93D8
:101A80008F939F93AF93BF938091780020917900BB
:101A900030E0322F2227820F932F911DB0E0A0E07B
:101AA00020911101222309F493C010921101209179
:101AB000CB0520937C002091BD053091BE052F5FA2
:101AC0003F4F3093BE052093BD054091B70550911F
:101AD000B8056091B9057091BA05840F951FA61FCE
:101AE000B71F8093B7059093B805A093B905B0933D
:101AF000BA05A901542F44275295507F452B09F070
:101B000051C04091B3055091B4056091B5057091F5
:101B1000B605480F591F6A1F7B1F4093B3055093AA
:101B2000B4056093B5057093B605C0901401D090CC
:101B30001501F12CE12C8C159D05AE05BF0520F497
:101B40009093150180931401C090C905D090CA05E7
:101B5000F12CE12CC816D906EA06FB0620F4909376
:101B6000CA058093C9051092B7051092B805109266
:101B7000B9051092BA05A4E0220F331FAA95E1F728
:101B8000232B81F44093C5055093C6056093C70588
:101B90007093C8051092B3051092B4051092B50564
:101BA0001092B6058EED80937A00BF91AF919F9110
:101BB0008F917F916F915F914F913F912F91FF9006
:101BC000EF90DF90CF900F900FBE0F901F90189561
:101BD00021E0209311012091CC0520937C002091DD
:101BE000BB053091BC052F5F3F4F3093BC05209360
:101BF000BB054091AF055091B0056091B105709162
:101C0000B205840F951FA61FB71F8093AF05909351
:101C1000B005A093B105B093B205A901542F442794
:101C20005295507F452B09F0BDCF4091AB055091A7
:101C3000AC056091AD057091AE05480F591F6A1F44
:101C40007B1F4093AB055093AC056093AD0570933B
:101C5000AE05C0901201D0901301F12CE12C8C152F
:101C60009D05AE05BF0520F49093130180931201EA
:101C7000C090C305D090C405F12CE12CC816D9063C
:101C8000EA06FB0620F49093C4058093C3051092E6
:101C9000AF051092B0051092B1051092B20584E024
:101CA000220F331F8A95E1F7232B09F07BCF409356
:101CB000BF055093C0056093C1057093C205109293
:101CC000AB051092AC051092AD051092AE056ACF2F
:101CD000CF92DF92EF92FF920F931F938091CE05E8
:101CE000882309F44EC086E880937A00809114011D
:101CF00090911501FB01918380838091C90590919A
:101D0000CA05FA01918380838091C5059091C6052B
:101D1000A091C705B091C805F90180839183A28382
:101D2000B3838091120190911301F8019183808314
:101D30008091C3059091C405F701918380838091C0
:101D4000BF059091C005A091C105B091C205F601F3
:101D500080839183A283B38380EF9FE390931501E7
:101D6000809314011092CA051092C9059093130133
:101D7000809312011092C4051092C3058EE88093DF
:101D80007A001F910F91FF90EF90DF90CF90089510
:101D9000662311F0429A089542980895662311F03F
:101DA0005B9A08955B9808958F929F92AF92BF922D
:101DB000EF920F93CF93DF934B015C01D42FC22F8F
:101DC00096958795779567957E5E85489F4FA50187
:101DD00094010E94B51E3093AA052093A905B9016C
:101DE00076956795CB01820F931F9093A8058093FA
:101DF000A705C901F3E096958795FA95E1F7860F57
:101E0000971F9093A6058093A505569547953795FE
:101E100027953093A4052093A305C901880F991F26
:101E2000280F391F3093A2052093A10561E082E0BD
:101E30000E94771961E086E00E94771961E085E0F1
:101E40000E94771961E083E00E947719E092CD0546
:101E5000429A8091CD05882309F4A4C05E988091B0
:101E6000CD05882309F4A0C05D985B9A62E088E004
:101E70000E94771961E089E00E94B31961E089E06E
:101E80000E94771910923D0310923C031092A00516
:101E900010929B058FEF80939A05109299051092EE
:101EA00044041092430410923E0410923D04109298
:101EB0003B0310923A0382E084BD94E095BD99EF14
:101EC00097BD10923503109236031092370310928B
:101ED00038031092310310923203109233031092A0
:101EE000340316BC21E023BD85BB80936E00809334
:101EF000B00023E02093B1009093B30083BD109213
:101F0000B20010923D0310923C0387BB8093700097
:101F100010926F001092800081E880938100809180
:101F200081008F7B8093810080918000806C809302
:101F300080008091820080688093820080E286BB6E
:101F400080916F00806280936F00D093CE05DD2377
:101F500001F18C2F806C8093CC05802F806C809356
:101F6000CB0521E030E0C90101C0880FCA95EAF72E
:101F700001C0220F0A95EAF7822B8F7380937E00AF
:101F80008091CC0580937C0010927B008EED809335
:101F90007A00DF91CF910F91EF90BF90AF909F901B
:101FA0008F9008955E9A5BCF5D9A5FCF1F920F92DC
:101FB0000FB60F9211248F939F93AF93BF9380918D
:101FC000310390913203A0913303B091340308960A
:101FD000A11DB11D8093310390933203A09333036D
:101FE000B0933403809139038F5F809339038D3729
:101FF000A8F0109239038091350390913603A09197
:102000003703B09138030196A11DB11D80933503AC
:1020100090933603A0933703B0933803BF91AF91E9
:102020009F918F910F900FBE0F901F9018951F9248
:102030000F920FB60F9211242F933F938F939F937C
:1020400080913C0390913D03019649F080913C03BF
:1020500090913D03019690933D0380933C038091C2
:102060004404833609F06FC020913C0330913D0356
:1020700080913A0390913B0328173907C1F02091D2
:102080003C0330913D0380913A0390913B03281724
:10209000390708F458C020913C0330913D038091EA
:1020A0000F01909110012817390708F44CC081E006
:1020B000809344042091A1053091A20580912F03C3
:1020C000882321F080912E0391E0811190E090937C
:1020D000300380913003882351F081E080932E03F8
:1020E0001092E90280EF80932B0310922D039091C0
:1020F0006F009F7D90936F0090916F009B7F9093F6
:102100006F00109270008091840090918500820F82
:10211000931F9093890080938800809180008F7B2B
:10212000806880938000809181008F7B8093810004
:10213000B19A80916F00826080936F008091CD058D
:10214000882351F05D989F918F913F912F910F902F
:102150000FBE0F901F9018955D9AF5CF82309105B4
:1021600010F482E090E09093E8028093E7020895F3
:102170009093100180930F01089520913D04909158
:102180003E0481E0291380E0089590913E049F5F12
:10219000953508F090E020913D042917E1F36FB7E1
:1021A000F894209144044091E7025091E8022223E0
:1021B000A9F0292F30E0F901E851FC4F8083220F6C
:1021C000331FF901E25CFC4F518340831092E80217
:1021D0001092E70290933E046FBF089580934204EB
:1021E0008093400410923F041092E6021092E502A0
:1021F00083E68093440450933B0340933A03109248
:10220000E8021092E702E8CF1F920F920FB60F92EA
:1022100011242F933F934F935F936F937F938F93EB
:102220009F93EF93FF9380914404409184005091D9
:10223000850060918800709189005B98843108F076
:102240006FC12091A3053091A405260F371F30934D
:1022500089002093880093B180FFE9C0917020919C
:102260008000206C209380002091810020642093C6
:102270008100813009F05EC020913C0330913D0324
:102280003093E4022093E30210927000911192C007
:102290001092E50293B19170B59B19C1209186000F
:1022A0003091870040E246BB992309F4F2C0909137
:1022B0003003992359F190912C03911104C090910E
:1022C0002D03911123C0E091E902F0E0EE0FFF1F12
:1022D000E651FD4F31832083E091E902F0E0EA5EB0
:1022E000FC4F982F906690839091E9029F5F9093A6
:1022F000E902963111F41092E90290912D0399238D
:1023000029F090912C03915090932C0380934304D7
:102310008F5F80934404FF91EF919F918F917F9104
:102320006F915F914F913F912F910F900FBE0F9042
:102330001F901895833169F422E023BD1092B200FA
:1023400061E070E070933D0360933C0327BB2093F2
:10235000700020914104291709F49CCF9091E50267
:1023600092609093E50290913003992309F492CF03
:1023700090912C03911104C090912D0391118ACF5B
:1023800090912D03911106C091E090932D039BE055
:1023900090932C03E091E902F0E0EE0FFF1FE6516D
:1023A000FD4F51834083E091E902F0E0EA5EFC4F8B
:1023B0009CEF28C08093E50290913003992309F4A3
:1023C00069CF90912C03911104C090912D0391112C
:1023D00061CF90912D03911106C091E090932D0350
:1023E0009BE090932C03E091E902F0E0EE0FFF1FD9
:1023F000E651FD4F51834083E091E902F0E0EA5E4F
:10240000FC4F9FEF90839091E9029F5F9093E902C8
:10241000963111F41092E90290912D03992309F459
:1024200039CF90912C03915090932C0333CF82316C
:1024300000F590914204692F617090FD0BC090915E
:1024400080009F7B906890938000909181009F7B9B
:102450009093810090913F04962790933F042091A0
:10246000420430E03595279520934204609341045F
:1024700011CF60913F046111F9CF909180009F7B53
:10248000906890938000909181009F7B9093810051
:10249000EDCF90913003992309F438CF90912C031C
:1024A000911104C090912D03911130CFE091E90278
:1024B000F0E0EE0FFF1FE651FD4F31832083E091E6
:1024C000E902F0E0EA5EFC4F982F90640CCF911186
:1024D0001DCF90913003992309F418CF90912C03CC
:1024E000911104C090912D03911110CF90912D0363
:1024F000911106C091E090932D039BE090932C03E3
:10250000E091E902F0E0EE0FFF1FE651FD4F51832D
:102510004083E091E902F0E0EA5EFC4F97EFE3CE02
:1025200093B19170B59BC3C04091860050918700D4
:1025300030E236BB992309F4A2C09091300399236D
:1025400051F190912C03911104C090912D039111A0
:1025500022C0E091E902F0E0EE0FFF1FE651FD4FCF
:10256000518340838066E091E902F0E0EA5EFC4F2F
:1025700080838091E9028F5F8093E902863111F4B4
:102580001092E90280912D03882329F080912C0379
:10259000815080932C038091E502882329F05B9A77
:1025A00080913E0480933D0480910E01882339F18F
:1025B000E0919B0521E02E0F253508F020E0809169
:1025C0009905821709F49CC0822F90E03091400455
:1025D000FC01EC5BFA4F30834091E3025091E4023E
:1025E000FC01EE0FFF1FEB5BFB4F518340833091EB
:1025F000E50281519B4FFC01308320939B05909114
:102600003E0480913D04981709F4AAC08F5F853578
:1026100008F080E080933D0490E0FC01E851FC4F1D
:1026200030813093420430934004880F991FFC019D
:10263000E25CFC4F808191811092E60210923F048F
:102640008230910508F067C08091880090918900E0
:102650002091A1053091A205820F931F90938900CC
:1026600080938800809180008F7B806880938000B9
:10267000809181008F7B8093810081E04ACE909190
:102680003003992309F487CF90912C03911104C052
:1026900090912D0391117FCFE091E902F0E0EE0FD0
:1026A000FF1FE651FD4F5183408380645CCF911141
:1026B00072CF80913003882309F46DCF80912C0371
:1026C000811104C080912D03811165CF80912D036C
:1026D000811106C081E080932D038BE080932C0351
:1026E000E091E902F0E0EE0FFF1FE651FD4F51834C
:1026F0004083E091E902F0E0EA5EFC4F87EF38CFDB
:1027000020919B05E22FF0E0E151FB4F8081886032
:1027100080835B9A74CF33E63093440490933B03F9
:1027200080933A0380916F008D7F80936F0080913A
:1027300081008F7B8093810080E286BB80916F0057
:10274000806280936F00E22FF0E0E151FB4F8081C7
:10275000806880838091CD05882329F05D9ADBCD48
:1027600010924404DFCF5D98D6CD8091440481114E
:10277000FCCF089580932F03089580930C01089552
:1027800080930D01089580930E0108951F920F927A
:102790000FB60F9211242F933F934F935F936F9334
:1027A0007F938F939F93EF93FF93209186003091B7
:1027B000870080918400909185008091A00581110F
:1027C0005DC19091CD05992309F454C05E98909114
:1027D000CD05992309F450C05D9A5B9890E49093DD
:1027E000E00290919A059F3F39F090919A0590935D
:1027F0009B059FEF90939A0540913C0350913D03B8
:102800005093E4024093E302109270004091A705B8
:102810005091A805420F531F50939D0540939C056E
:1028200092E09093A00510929E0550938B004093E8
:102830008A0094E096BB90916F00946090936F0033
:10284000811134C190912E03911130C190912F03C9
:102850009093300390913003992309F427C191E0BC
:1028600090932E031092E90290EF90932B03109215
:102870002D031CC15E9AABCF5D98AFCF9091300312
:10288000992351F190912C03911104C090912D0343
:10289000911122C0E091E902F0E0EE0FFF1FE65136
:1028A000FD4F31832083806AE091E902F0E0EA5E27
:1028B000FC4F80838091E9028F5F8093E90286312B
:1028C00011F41092E90280912D03882329F0809160
:1028D0002C03815080932C03FF91EF919F918F9156
:1028E0007F916F915F914F913F912F910F900FBE0C
:1028F0000F901F9018958B3009F49AC008F477C098
:102900008C3009F0D3C040910D0150E04F5F5F4F14
:10291000E091A905F091AA054E9FB0014F9F700D5F
:102920005E9F700D112440919C0550919D05460FAE
:10293000571F50938B0040938A0094E096BB91E020
:102940009093A00590919B059F5F953508F090E0CE
:1029500040919905491709F485C0492F50E0FA01C3
:10296000EC5BFA4F6FEF60836091E3027091E402D9
:10297000FA01EE0FFF1FEB5BFB4F718360836091E9
:10298000E00241515B4FFA01608390939A051092E7
:10299000E00292E093BD1092B20041E050E050930B
:1029A0003D0340933C0397BB909370007FC04091E0
:1029B0009F0550E05595479540939F0540919C0594
:1029C00050919D056091A9057091AA05460F571F6A
:1029D00050939D0540939C0550938B0040938A0033
:1029E00094E096BB91E0980F9093A0055FC0909102
:1029F000E002992339F040919F0550E055954795A5
:102A000040939F0540919C0550919D056091A905BB
:102A10007091AA05460F571F50939D0540939C0542
:102A200050938B0040938A0094E096BB9BE0DCCFF0
:102A30001092E0024091A9055091AA05440F551F3C
:102A400060919C0570919D05460F571F50939D0501
:102A500040939C0550938B0040938A0094E096BB72
:102A60009CE0C2CFE0919B05F0E0E151FB4F9081EB
:102A7000986090835B9A90919B0587CF4091E1028B
:102A80005091E202B901641B750B4091A50550916C
:102A9000A6056417750708F4F1CE8A3008F02BCF2D
:102AA000823008F084CF813009F498CE90913003C1
:102AB000992351F190912C03911104C090912D0311
:102AC000911122C0E091E902F0E0EE0FFF1FE65104
:102AD000FD4F31832083806CE091E902F0E0EA5EF3
:102AE000FC4F80838091E9028F5F8093E9028631F9
:102AF00011F41092E90280912D03882329F080912E
:102B00002C03815080932C033093E2022093E10246
:102B1000E3CE1F920F920FB60F9211242F933F9383
:102B20004F935F936F937F938F939F93AF93BF93D5
:102B3000CF93DF93EF93FF9340918A0050918B00E6
:102B400020918400309185006091A005EFEFE60FA1
:102B5000EC3008F068C0F0E0E055FA4E0C94D71E57
:102B6000BC15F015F215F215F215F215F215F21565
:102B7000F21543166E16071780916F008B7F8093B6
:102B80006F001092A00580919A058F3F79F0809197
:102B90009A0580939B05E0919B05F0E0E151FB4F86
:102BA0008081806880838FEF80939A058091CD0526
:102BB0008823A1F05E9AFF91EF91DF91CF91BF91B1
:102BC000AF919F918F917F916F915F914F913F91C5
:102BD0002F910F900FBE0F901F9018955E98EBCF1E
:102BE0001092E00280919F058695806880939F05F2
:102BF00080919E05805880939E0581E0860F80938A
:102C0000A00580919C0590919D054091A90550914A
:102C1000AA05840F951F90939D0580939C05909322
:102C20008B0080938A0080913003882321F2809169
:102C30002C03811104C080912D038111BCCFE09140
:102C4000E902F0E0EE0FFF1FE651FD4F31832083D4
:102C50006068E091E902F0E0EA5EFC4F60838091F9
:102C6000E9028F5F8093E902863111F41092E90244
:102C700080912D03882309F49ECF80912C038150ED
:102C800080932C0398CF8091E002882331F08091CB
:102C90009F058695806880939F0540919E0580E8FA
:102CA000840F80939E058BE08093A00580919C0506
:102CB00090919D05E091A905F091AA058E0F9F1FA7
:102CC00090939D0580939C0590938B0080938A0040
:102CD000403811F05B9AA7CF5B98A5CF8091E002B6
:102CE000882309F494C080919E05882309F48AC042
:102CF000805880939E0580E0E0910D0171E0872768
:102D000090E00196E80FF92FF11DA091A905B0916F
:102D1000AA05EA9FC001EB9F900DFA9F900D112428
:102D2000E0919C05F0919D058E0F9F1F90938B0065
:102D300080938A007093A00580919B058F5F8535F5
:102D400008F080E090919905981709F462C0E82F87
:102D5000F0E090919F05DF01AC5BBA4F9C93C0916E
:102D6000E302D091E402DF01AA0FBB1FAB5BBB4FB4
:102D70001196DC93CE939091E002E151FB4F90834A
:102D800090919E05992309F461C09081946090838D
:102D9000909130039923A1F190912C03911104C0DB
:102DA00090912D0391112CC090912D03911106C08B
:102DB00091E090932D039BE090932C03E091E90226
:102DC000F0E0EE0FFF1FE651FD4F51834083E0918D
:102DD000E902F0E0EA5EFC4F9DEF90839091E902FA
:102DE0009F5F9093E902963111F41092E90290915D
:102DF0002D03992329F090912C03915090932C034B
:102E00005B9A12C080919F05880F80939F0581E097
:102E100073CFE0919B05F0E0E151FB4F808188602A
:102E200080835B9A80919B0580939A051092E002C3
:102E300082E083BD1092B20041E050E050933D0328
:102E400040933C0387BB80937000EDCE5B98ECCF42
:102E500080919B05E09199058E1761F0EF5FE53554
:102E600008F0E0E0F0E0EE0FFF1FEB5BFB4F80812E
:102E70009181089590E080E0089580919B05E09114
:102E800099058E1749F0EF5FE53508F0E0E0F0E0D6
:102E9000E151FB4F8081089580E0089580919B056A
:102EA00090919905891761F09F5F953508F090E042
:102EB000E92FF0E0EC5BFA4F80819093990508953B
:102EC00080E0089520919B0590919905291728F09D
:102ED00081E0291309C080E007C030E02B5A3F4F42
:102EE00081E092171306B9F3089520919B05809114
:102EF0009905821769F08F5F853508F080E0E82F2B
:102F0000F0E0E151FB4F908197FFF3CF81E008950E
:102F100080E008958091990580939B050895CF9353
:102F2000DF93CFE6D0E088818B7F888388818F7D97
:102F300088830E948A170E94B51388818D7F8883B9
:102F40001092700010926E00DF91CF9108952F9231
:102F50003F924F925F926F927F928F929F92AF9229
:102F6000BF92CF92EF920F931F93CF93DF935C01A9
:102F70003B012A0149011FEFC0E0202F2150330BF4
:102F80001401220E331EC11708F058C0C5010E945B
:102F900062178823C1F3C5010E943D17D82F811401
:102FA000910449F080910C01C01730F5F401EC0F49
:102FB000F11D8D238083C11106C0C5010E94281711
:102FC000F20191838083C5010E944E17D7FF1AC07A
:102FD000EE2009F448C0C01750F5EC2FF0E0D30103
:102FE000AE0FBF1F8C938C1511F1E80DF91D808178
:102FF000806180835B9A1BC0982F9D23F1018081A3
:10300000892BD8CFC01720F4F301EC0FF11D80837A
:10301000EE2069F098E02C2D30E035952795C826F4
:10302000C0FE1FC0CE2CC22686959150A1F7CF5F5F
:10303000C33011F4F3011281D7FFA5CF8C2F90E09C
:10304000DF91CF911F910F91EF90CF90BF90AF90F4
:103050009F908F907F906F905F904F903F902F90B8
:103060000895C22EE1CFC01778F2E1CFCF92DF9260
:10307000EF920F931F93CF93DF93D62E172FC42E6B
:10308000C9010E94AE10CD2DD12FCC0EDD2ED11C4A
:10309000CC16DD06B1F01991812F0E94C5100023D6
:1030A000B9F328E08E2D90E095958795E126E0FE16
:1030B00006C0E02EE82616952150A1F7E9CFE82EAC
:1030C000FACF002351F08E2DDF91CF911F910F91F8
:1030D000EF90DF90CF900C94C510DF91CF911F91AE
:1030E0000F91EF90DF90CF9008956091350370912C
:1030F0003603809137039091380308951F920F9201
:103100000FB60F9211242F933F938F939F93AF93FA
:10311000BF938091D4059091D505A091D605B0912B
:10312000D7053091D30526E0230F2D3768F129E824
:10313000230F0396A11DB11D2093D3058093D405C1
:103140009093D505A093D605B093D7058091CF0570
:103150009091D005A091D105B091D2050196A11D05
:10316000B11D8093CF059093D005A093D105B09366
:10317000D205BF91AF919F918F913F912F910F9069
:103180000FBE0F901F9018950296A11DB11DD4CFB0
:103190003FB7F8948091CF059091D005A091D105CB
:1031A000B091D20526B5A89B05C02F3F19F0019616
:1031B000A11DB11D3FBFBA2FA92F982F8827BC0191
:1031C000CD01620F711D811D911D43E0660F771FB8
:1031D000881F991F4A95D1F708958F929F92AF92B9
:1031E000BF92CF92DF92EF92FF926B017C010E941F
:1031F000C8184B015C01C114D104E104F104E9F0E9
:103200000E94761D0E94C818681979098A099B09CD
:10321000683E73408105910570F321E0C21AD10820
:10322000E108F10888EE880E83E0981EA11CB11C0D
:10323000C114D104E104F10429F7FF90EF90DF906D
:10324000CF90BF90AF909F908F900895789484B561
:10325000836084BD85B5836085BDEEE6F0E0808146
:1032600081608083E1E8F0E082E08083808181609A
:103270008083E0E8F0E0808181608083E1EBF0E032
:10328000808184608083E0EBF0E0808181608083D6
:1032900086E880937A001092C1000895843081F00E
:1032A00028F48230E9F08330F9F00895883071F025
:1032B000893091F08530B9F4809180008F7D03C012
:1032C000809180008F778093800008958091B00076
:1032D0008F778093B00008958091B0008F7DF9CFF3
:1032E00084B58F7784BD089584B58F7DFBCFCF9350
:1032F000DF9390E0FC01EE56FB4F249187559B4FE6
:10330000FC0184918823C9F090E0880F991FFC018B
:10331000EC52FB4FA591B491FC01E653FB4FC591D4
:10332000D49161110DC09FB7F8948C9120958223A0
:103330008C938881282328839FBFDF91CF910895A4
:10334000623051F49FB7F8943C91822F809583238B
:103350008C93E8812E2BEFCF8FB7F894EC912E2B26
:103360002C938FBFEACF1F93CF93DF93282F30E0AA
:10337000F901E558FB4F8491F901EE56FB4FD491CA
:10338000F901E755FB4FC491CC23A9F0162F811109
:103390000E944E19EC2FF0E0EE0FFF1FE653FB4F9B
:1033A000A591B4918FB7F894EC91111108C0D09504
:1033B000DE23DC938FBFDF91CF911F910895DE2B29
:1033C000F8CFCF93DF93282F30E0F901E558FB4F7A
:1033D0008491F901EE56FB4FD491F901E755FB4F6B
:1033E000C491CC23A1F081110E944E19EC2FF0E082
:1033F000EE0FFF1FE054FB4FA591B491EC91ED232C
:1034000081E090E009F480E0DF91CF91089580E0C1
:1034100090E0FACFFC01918D228D892F90E0805CA5
:103420009F4F821B91098F7399270895FC01918DFD
:10343000828D981731F0828DE80FF11D858D90E017
:1034400008958FEF9FEF0895FC01918D828D98175D
:1034500061F0A28DAE0FBF2FB11D5D968C91928D44
:103460009F5F9F73928F90E008958FEF9FEF089575
:10347000FC01538D448D252F30E0842F90E0821B7A
:10348000930B541710F0CF960895019708958AEB87
:103490009BE1892B49F080E090E0892B29F00E9484
:1034A000BA1B81110C9400000895FC01A48DA80F93
:1034B000B92FB11DA35ABF4F2C91848D90E0019676
:1034C0008F739927848FA689B7892C93A089B18996
:1034D0008C91837080648C93938D848D981306C037
:1034E0000288F389E02D80818F7D80830895CF93BA
:1034F000DF93EC01888D8823B9F0AA89BB89E8891C
:10350000F9898C9185FD03C0808186FD0DC00FB6C1
:1035100007FCF7CF8C9185FFF2CF808185FFEDCF3F
:10352000CE010E94551AE9CFDF91CF910895EF9215
:10353000FF920F931F93CF93DF93EC0181E0888F6D
:103540009B8D8C8D98131AC0E889F989808185FF3D
:1035500015C09FB7F894EE89FF896083E889F989DF
:1035600080818370806480839FBF81E090E0DF91E1
:10357000CF911F910F91FF90EF900895F62E0B8D34
:1035800010E00F5F1F4F0F731127E02E8C8D8E11EF
:103590000CC00FB607FCFACFE889F989808185FF56
:1035A000F5CFCE010E94551AF1CFEB8DEC0FFD2F18
:1035B000F11DE35AFF4FF0829FB7F8940B8FEA8911
:1035C000FB8980818062CFCFCF92DF92EF92FF9212
:1035D0001F93CF93DF93EC016A017B01122F60E808
:1035E00074E88EE190E0A70196010E94B51E21507B
:1035F0003109410951095695479537952795E8892D
:10360000F98982E08083211580E1380798F0E88904
:10361000F989108260E472E48FE090E0A7019601DE
:103620000E94B51E2150310941095109569547950F
:1036300037952795EC85FD853083EE85FF852083C2
:10364000188EEC89FD891083EA89FB89808180616D
:103650008083EA89FB89808188608083EA89FB898D
:10366000808180688083EA89FB8980818F7D808367
:10367000DF91CF911F91FF90EF90DF90CF90089551
:10368000CF93DF93EC01E881F9810680F781E02D8B
:103690000995EA89FB8980818F7E8083EA89FB898D
:1036A0008081877F8083EA89FB8980818F7780830F
:1036B000EA89FB8980818F7D80838A8D898FDF9164
:1036C000CF9108951F920F920FB60F9211242F934E
:1036D0008F939F93EF93FF93E091E805F091E905B5
:1036E0008081E091EE05F091EF0582FD1BC0908195
:1036F0008091F1058F5F8F732091F205821741F061
:10370000E091F105F0E0E852FA4F958F8093F105D2
:10371000FF91EF919F918F912F910F900FBE0F907E
:103720001F9018958081F4CF1F920F920FB60F92C1
:1037300011242F933F934F935F936F937F938F93B6
:103740009F93AF93BF93EF93FF9388ED95E00E9413
:10375000551AFF91EF91BF91AF919F918F917F91FA
:103760006F915F914F913F912F910F900FBE0F90EE
:103770001F90189588ED95E00E940A1A21E0892B88
:1037800009F420E0822F0895E8EDF5E0138212821B
:1037900088EE93E0A0E0B0E084839583A683B783AE
:1037A0008EE591E09183808385EC90E09587848716
:1037B00084EC90E09787868780EC90E0918B808BFB
:1037C00081EC90E0938B828B82EC90E0958B848BE4
:1037D00086EC90E0978B868B118E128E138E148E52
:1037E0000895AF92BF92CF92DF92EF92FF920F9324
:1037F0001F93CF93DF936C017B018B01040F151F87
:10380000EB015E01AE18BF08C017D10759F06991EE
:10381000D601ED91FC910190F081E02DC601099552
:10382000892B79F7C501DF91CF911F910F91FF90FF
:10383000EF90DF90CF90BF90AF900895FB01019083
:103840000020E9F73197AF01461B570BDC01ED91E2
:10385000FC910280F381E02D0994EF92FF920F9387
:103860001F93CF93DF938C017B01D0E0C0E0F70181
:10387000EC0FFD1F6491662361F0D801ED91FC917E
:103880000190F081E02DC8010995892B11F0219656
:10389000EECFCE01DF91CF911F910F91FF90EF906E
:1038A00008956115710511F00C941E1C90E080E0E4
:1038B0000895DC01ED91FC910190F081E02D0994D7
:1038C0006CE671E00C941E1C0F931F93CF93DF9353
:1038D000EC010E942D1C8C01CE010E94601C800F07
:1038E000911FDF91CF911F910F9108950F931F9317
:1038F000CF93DF938C01D0E0C0E06115710519F022
:103900000E941E1CEC01C8010E94601C8C0F9D1FB0
:10391000DF91CF911F910F9108958F929F92AF9257
:10392000BF92EF92FF920F931F93CF93DF93CDB788
:10393000DEB7A1970FB6F894DEBF0FBECDBF7C01F6
:10394000FA01CB0119A2223008F42AE08E010F5DA2
:103950001F4F822E912CB12CA12CBF01A5019401E7
:103960000E94B51EF901CA016A300CF5605DD801EC
:103970006E938D01232B242B252B79F790E080E08B
:10398000109721F0BD01C7010E941E1CA1960FB621
:10399000F894DEBF0FBECDBFDF91CF911F910F9185
:1039A000FF90EF90BF90AF909F908F900895695CCB
:1039B000DECFCF92DF92EF92FF920F931F93CF93C0
:1039C000DF932115310581F4DC01ED91FC9101902B
:1039D000F081E02D642FDF91CF911F910F91FF9027
:1039E000EF90DF90CF9009942A30310501F52AE05D
:1039F00077FF1DC06A017B01EC016DE20E94591C3A
:103A00008C0144275527BA014C195D096E097F09BD
:103A10002AE0CE010E948D1C800F911FDF91CF9173
:103A20001F910F91FF90EF90DF90CF900895DF915D
:103A3000CF911F910F91FF90EF90DF90CF900C945A
:103A40008D1C9A01AB01770F660B770B0C94D91C78
:103A50002115310541F4DC01ED91FC910190F081DB
:103A6000E02D642F09940C948D1C9A01462F50E090
:103A700070E060E00C94281D0F931F93CF93DF93A9
:103A8000EC010E94351D8C01CE010E94601C800F4C
:103A9000911FDF91CF911F910F9108959A01AB0172
:103AA00070E060E00C94281D0F931F93CF93DF9379
:103AB000EC010E944E1D8C01CE010E94601C800F03
:103AC000911FDF91CF911F910F91089508950E944A
:103AD00026190E94661D0E94EB03C7E4DAE10E94EA
:103AE0003D052097E1F30E94471AF9CF08950E94FF
:103AF000131E88F09F5798F0B92F9927B751B0F04F
:103B0000E1F0660F771F881F991F1AF0BA95C9F761
:103B100014C0B13091F00E942D1EB1E008950C94B4
:103B20002D1E672F782F8827B85F39F0B93FCCF367
:103B3000869577956795B395D9F73EF490958095DE
:103B4000709561957F4F8F4F9F4F0895E89409C0FE
:103B500097FB3EF490958095709561957F4F8F4FC0
:103B60009F4F9923A9F0F92F96E9BB279395F695D6
:103B7000879577956795B795F111F8CFFAF4BB0F54
:103B800011F460FF1BC06F5F7F4F8F4F9F4F16C0B8
:103B9000882311F096E911C0772321F09EE8872F42
:103BA000762F05C0662371F096E8862F70E060E0FE
:103BB0002AF09A95660F771F881FDAF7880F969577
:103BC000879597F9089597F99F6780E870E060E01E
:103BD00008959FEF80EC089500240A9416161706A6
:103BE00018060906089500240A94121613061406EE
:103BF00005060895092E0394000C11F4882352F051
:103C0000BB0F40F4BF2B11F460FF04C06F5F7F4F08
:103C10008F4F9F4F089557FD9058440F551F59F0EF
:103C20005F3F71F04795880F97FB991F61F09F3FA9
:103C300079F087950895121613061406551FF2CFD2
:103C40004695F1DF08C0161617061806991FF1CF22
:103C500086957105610508940895E894BB27662749
:103C60007727CB0197F908950E94471E0C94FA1DFF
:103C70000E94EC1D38F00E94F31D20F0952311F0F6
:103C80000C94E31D0C94E91D11240C942E1E0E942B
:103C90000B1E70F3959FC1F3950F50E0551F629F67
:103CA000F001729FBB27F00DB11D639FAA27F00D95
:103CB000B11DAA1F649F6627B00DA11D661F829FBC
:103CC0002227B00DA11D621F739FB00DA11D621FA1
:103CD000839FA00D611D221F749F3327A00D611DBE
:103CE000231F849F600D211D822F762F6A2F1124A0
:103CF0009F5750409AF0F1F088234AF0EE0FFF1FD3
:103D0000BB1F661F771F881F91505040A9F79E3F29
:103D1000510580F00C94E31D0C942E1E5F3FE4F3DC
:103D2000983ED4F3869577956795B795F795E7957F
:103D30009F5FC1F7FE2B880F911D9695879597F988
:103D40000895AA1BBB1B51E107C0AA1FBB1FA617E2
:103D5000B70710F0A61BB70B881F991F5A95A9F734
:103D600080959095BC01CD010895A1E21A2EAA1B61
:103D7000BB1BFD010DC0AA1FBB1FEE1FFF1FA2171B
:103D8000B307E407F50720F0A21BB30BE40BF50B18
:103D9000661F771F881F991F1A9469F760957095A1
:103DA000809590959B01AC01BD01CF010895EE0F68
:103DB000FF1F0590F491E02D0994FB01DC014150B7
:103DC000504030F08D910190801919F40020B9F71E
:103DD000881B990B0895AEE0B0E0E1EFFEE10C9492
:103DE000252285E08C838B899C899A838983AE0107
:103DF000495E5F4F6D897E89CE0101960E948F20BA
:103E00002E96E2E00C94412220FD09C0FC0123FD26
:103E100005C022FF02C073836283518340830895EB
:103E200044FD17C046FD1DC0DB01FC01AA0FBB1FEE
:103E3000EE1FFF1F1094D1F76A0F7B1F8E1F9F1F6D
:103E4000660F771F881F991F620F711D811D911DBD
:103E5000089533E0660F771F881F991F3150D1F7FF
:103E6000F3CF34E0F7CF0F931F93CF93DF938C0101
:103E7000C8010E94A821EC0197FD08C00E9494216E
:103E8000892BB1F7B801CE010E94E421CE01DF9168
:103E9000CF911F910F9108958F929F92AF92BF92F1
:103EA000EF92FF920F931F93CF93DF938C01D62F46
:103EB0007A01B22E0E94A8219C0133272B323105B2
:103EC00029F02D323105A9F46894B7F8D15061F486
:103ED00080E0DF91CF911F910F91FF90EF90BF9005
:103EE000AF909F908F900895C8010E94A82197FDE0
:103EF000EFCFCB2DCD7F2B2D2073F9F48033E9F458
:103F0000AA24AA94AD0E89F0C8010E94A82197FDA9
:103F10000CC0282F2F7D283561F4C264D25029F0BF
:103F2000C8010E94A82197FF08C0812C912C540140
:103F30001BC0B6FE2BC0C260DA2D812C912C54011F
:103F400020ED280F283028F1C4FD09C02A3008F1DF
:103F5000C6FF05C02F7D3FEE320F3630C8F0B801E6
:103F60000E94E421C1FFB4CFC7FF08C0B094A09461
:103F700090948094811C911CA11CB11C2C2FB50124
:103F8000A401C7010E94041F81E0A3CFC261D4CF66
:103F900027504C2FC501B4010E94101F4B015C013A
:103FA000C260D15009F3C8010E94A82197FFC8CF71
:103FB000D9CFA0E2B0E0EFEDFFE10C941A225C0152
:103FC000962E7A01CE0101966C0180E2F6011192E3
:103FD0008A95E9F7F501B381890130E020E0712C81
:103FE000812CA0E041E050E0F801B3FD8591B3FFE2
:103FF0008191982F8F01811107C010E000E0C80166
:10400000A096EDE00C9436228E3519F42115310579
:1040100041F1A21713064CF48D3549F18D3229F484
:10402000811006C0882483941DC0882009F464C0D0
:10403000E92FE695E695E695EC0DFD2DF11D892F0E
:104040008770BA0101C0660F8A95EAF78081682BF4
:104050006083791651F0971510F49F5FE9CF915066
:10406000E7CFA1E02F5F3F4FBFCF812CFBCF882050
:1040700019F08E8180628E83AA2359F0F6019E0189
:104080002F5D3F4F8081809580833196E217F30743
:10409000C9F788248394C5010E94A82197FD16C002
:1040A000E82FE695E695E695EC0DFD2DF11D2081B6
:1040B00030E0AC014770552702C0359527954A95E9
:1040C000E2F720FD06C0B5010E94E421882069F0D6
:1040D00094CFE114F10429F0F7018083C701019620
:1040E0007C019A94812C9110D6CFE114F10409F44B
:1040F00086CFF701108283CFE82FE695E695E69507
:10410000EC0DFD2DF11D982F9770BA0101C0660FBF
:104110009A95EAF79081692B6083782EA3CFB0E05F
:10412000A0E0E5E9F0E20C9418226C01EB015A01E1
:10413000FC0117821682512CF601E380FE01E3FC9C
:104140008591E3FE8191182FEF018823E9F090E03B
:104150000E949421892B21F0C6010E94331FECCFCD
:10416000153241F4FE01E3FC1591E3FE1191EF01DC
:10417000153269F4C6010E94A82197FD8EC0181758
:10418000D9F2B6010E94E421852D90E08AC000E0BA
:104190001A3231F4E3FC1591E3FE1191EF0101E0D5
:1041A000F12C20ED210F2A3048F101FF37C0FF200C
:1041B00059F31836B1F11C3609F43DC0112321F32F
:1041C000612F70E088E690E00E949D21892BE1F24A
:1041D000912C812C00FD06C0F50180809180C501E5
:1041E00002965C011E3679F5F6014681578170E032
:1041F00060E0202FC4010E94041F9ECF02606F2D3B
:1042000070E090E080E040E20E94101FF62EFE0178
:10421000E3FC1591E3FE1191EF01C3CFFF24FA9463
:10422000C8CFFE01E3FC1591E3FE1191EF011836B2
:1042300009F0C4CF08600460FE01E3FC1591E3FEC1
:104240001191EF01BBCF1336C1F401FD02C0FF2471
:10425000F394C6010E94A82197FD1FC08114910408
:1042600029F0F4018083C40101964C01FA94F11005
:10427000F0CF00FD61CF53945FCF1B35B9F49E01A1
:10428000A4016F2DC6010E94D91FEC01892B89F76B
:10429000F6018381807309F477CF8FEF9FEF511080
:1042A00073CFCDB7DEB7EFE00C943422C6010E9485
:1042B000331F97FDF2CF1F36A9F130F4143641F0C9
:1042C000193639F0006405C01337B9F01537D1F746
:1042D0000062202FA4016F2DC6010E944C1F811186
:1042E000C8CFD6CF8114910429F0F4016082C401B3
:1042F00001964C01FA94FF2071F0C6010E94A8219A
:104300003C0197FD08C00E949421892B59F3B60106
:10431000C3010E94E4218114910409F4AACFF4019D
:104320001082A7CF0061D5CF91110C94FC2180326F
:1043300019F089508550C8F70895FC0105900616BC
:1043400021F00020D9F7C00108953197CF010895D9
:10435000CF93DF93EC012B8120FF1AC026FF0CC006
:104360002F7B2B838E819F8101969F838E838A81F1
:1043700090E0DF91CF91089522FF18C0E881F98184
:104380008081082E000C990B009729F420622B8362
:104390008FEF9FEFEECF3196F983E8832E813F8137
:1043A0002F5F3F4F3F832E839927E3CFEA85FB851D
:1043B000099597FFF3CF2B81019621F080E2822BA4
:1043C0008B83E6CF80E1FBCFFB01238120FF11C06F
:1043D00026FD0FC08F3F980771F082832F7D2064E8
:1043E00023832681378121503109378326839927FA
:1043F00008958FEF9FEF0895992788270895F999D9
:10440000FECF92BD81BDF89A992780B50895262FD9
:10441000F999FECF1FBA92BD81BD20BD0FB6F894A9
:10442000FA9AF99A0FBE019608952F923F924F92F1
:104430005F926F927F928F929F92AF92BF92CF9234
:10444000DF92EF92FF920F931F93CF93DF93CDB73D
:10445000DEB7CA1BDB0B0FB6F894DEBF0FBECDBFB5
:1044600009942A88398848885F846E847D848C8486
:104470009B84AA84B984C884DF80EE80FD800C818F
:104480001B81AA81B981CE0FD11D0FB6F894DEBF72
:104490000FBECDBFED01089512E0C0E7D2E004C029
:1044A000FE010E94D71E2196C137D107C9F7F894A3
:0244B000FFCF3C
:1044B200020AC83F02143BC4093200023B1401C481
:1044C2000901F03FF03F503150322D48002A202898
:1044D200746F2062652069676E6F72656429002AB5
:1044E2002000256400253478002A20506175736904
:1044F2006E672073657269616C0031503250003012
:104502007800253278256E00300000000000971AEE
:10451200F11B381A771A0A1A241A161A0D0A000001
:00000001FF
