:100000000C944A0B0C94720B0C94720B0C94720BA4
:100010000C94720B0C94720B0C94720B0C942F2D8D
:100020000C94720B0C94720B0C9418310C941C2EC3
:100030000C944D320C94720B0C94EE2C0C94720BAD
:100040000C9443390C94720B0C94F9360C942B37A6
:100050000C94720B0C94492A0C94720B0C94720B36
:100060000C94720B0C94720B6364696E6F707375F1
:1000700078585B0020726561644572726F723D3022
:10008000780020435243206572726F72003A4F52DB
:100090002D00204352433D002D50453A002D424350
:1000A0003A002D58583A002D53423A003A20002E7B
:1000B000005420005220004520002A205265667519
:1000C00073696E6720746F20777269746520706140
:1000D000636B6574207768696C65207072657669FA
:1000E0006F7573207061636B6574207761736E2721
:1000F000742066696E69736865642C20666C75731C
:1001000068696E6720777269746520616374696FCE
:100110006E002A20417474656D707420746F2072B3
:10012000657374617274204461696B696E002A2082
:10013000496E7365727420757365722D7370656393
:100140006966696564206D657373616765002A205F
:1001500053757270726973653A207265636569766A
:10016000656420303046783378207061636B657445
:10017000206F662073697A6520002064657465636A
:100180007465642C20737769746368696E67206393
:100190006F6E74726F6C2066756E6374696F6E61DA
:1001A0006C6974792063616E20626520737769746D
:1001B00063686564206F6E20287573696E67204CD4
:1001C0003129002064657465637465642C20636F55
:1001D0006E74726F6C2066756E6374696F6E616C9D
:1001E0006974792077696C6C2072657374617274BC
:1001F000002A204E6F20617578696C6961727920E0
:10020000636F6E74726F6C6C657220616E7377656C
:1002100072696E6720746F20616464726573732005
:10022000307800206465746563746564002A205723
:1002300061726E696E673A20616E6F7468657220D4
:10024000617578696C6961727920636F6E74726F21
:100250006C6C657220697320616E73776572696E6C
:100260006720746F20616464726573732030780056
:100270002A205265667573696E6720746F207772E5
:1002800069746520636F756E7465722D7265717522
:10029000657374207061636B6574207768696C6541
:1002A0002070726576696F7573207061636B657419
:1002B000207761736E27742066696E697368656460
:1002C000002A205761726E696E673A2055706F6E12
:1002D0002041546D6567612072657374617274208A
:1002E000617578696C6961727920636F6E74726F81
:1002F0006C6C65722066756E6374696F6E616C6993
:10030000747920616E6420636F756E7465722072FB
:100310006571756573742066756E6374696F6E615F
:100320006C6974792077696C6C2072656D61696E97
:10033000207377697463686564206F6666002A209D
:10034000537769746368696E6720636F6E74726F48
:100350006C2066756E6374696F6E616C6974792068
:100360006F6666002A20537769746368696E672038
:10037000636F756E74657220726571756573742034
:1003800066756E6374696F6E206F6666002A20570B
:1003900041524E494E473A20746F6F206D616E791D
:1003A0002072656164206572726F72732064657477
:1003B000656374656400203F2000E280BE5C5F00DE
:1003C0005F2FE280BE005F5F5F00E280BEE280BE22
:1003D000E280BE002D582D002020206C77202020A8
:1003E0000020202070652020200020202050452063
:1003F0002020002020206263202020002020204296
:100400004320202000202020736220202000202074
:100410002053422020200020202062652020200040
:100420002020204245202020006320004320002A75
:10043000205265636569766564207061636B6574DD
:10044000206C6F6E676572207468616E2052425F27
:1004500053495A45002A20436F6D6D616E64206ECA
:100460006F7420756E64657273746F6F643A2000E8
:100470003A206E6F204448572D77726974652D724B
:100480006571756573742070656E64696E670020B0
:100490007374696C6C2070656E64696E67003A20D5
:1004A0004448572D77726974652D7265717565734F
:1004B0007420746F2076616C7565203078002A2076
:1004C00043757272656E746C79206E6F20777269F5
:1004D000746520627564676574206C6566740020BD
:1004E00077696C6C2062652073657420746F2030AE
:1004F00078002A2049676E6F726564202D2057723C
:100500006974696E6720746F207468697320706104
:1005100072616D6574657220616C726561647920C9
:1005200070656E64696E672062792033352D72655F
:100530007175657374002A2049676E6F7265642057
:100540002D2057726974696E6720746F2074686912
:100550007320706172616D6574657220616C726583
:100560006164792070656E64696E672062792045E8
:100570002D72657175657374003078002A204448C7
:1005800057706172616D333520002A20436F6D6DA5
:10059000616E64207265717569726573206F706534
:1005A000726174696F6E20617320617578696C691E
:1005B00061727920636F6E74726F6C6C6572202843
:1005C0004C3129003A206E6F2033412D77726974C7
:1005D000652D726571756573742070656E64696EE2
:1005E0006700207374696C6C2070656E64696E6757
:1005F000003A2033412D77726974652D72657175EB
:1006000065737420746F2076616C75652030780096
:100610003A2063757272656E746C79206E6F207704
:100620007269746520627564676574206C656674B0
:10063000003A2077696C6C206265207365742074C1
:100640006F203078003A20777269746520636F6D8F
:100650006D616E642069676E6F726564202D204540
:100660002D77726974652D72657175657374206973
:10067000732070656E64696E67003078002A2050C0
:100680006172616D334120002A20436F6D6D616E90
:1006900064207265717569726573206F706572612F
:1006A00074696F6E20617320617578696C6961721D
:1006B0007920636F6E74726F6C6C657220284C3198
:1006C00029003A206E6F2033362D77726974652DBC
:1006D000726571756573742070656E64696E67000C
:1006E000207374696C6C2070656E64696E67003A83
:1006F0002033362D77726974652D72657175657357
:100700007420746F2076616C7565203078002A2023
:1007100043757272656E746C79206E6F20777269A2
:10072000746520627564676574206C65667400206A
:1007300077696C6C2062652073657420746F20305B
:10074000780020777269746520636F6D6D616E64E7
:100750002069676E6F726564202D20452D77726960
:1007600074652D7265717565737420697320706589
:100770006E64696E67003078002A20506172616D86
:10078000333620002A20436F6D6D616E64207265E0
:10079000717569726573206F7065726174696F6ECF
:1007A00020617320617578696C6961727920636F6B
:1007B0006E74726F6C6C657220284C3129003A207F
:1007C0006E6F2033352D77726974652D7265717582
:1007D0006573742070656E64696E67002070656E65
:1007E00064696E67003A2033352D77726974652D20
:1007F0007265717565737420746F2076616C7565B0
:10080000203078002A2043757272656E746C7920EE
:100810006E6F2077726974652062756467657420F5
:100820006C656674002077696C6C20626520736566
:100830007420746F203078003A20777269746520D4
:10084000636F6D6D616E642069676E6F72656420A1
:100850002D204448572D77726974652D7265717526
:100860006573742069732070656E64696E67003A01
:1008700020777269746520636F6D6D616E642069A5
:10088000676E6F726564202D20452D7772697465DF
:100890002D726571756573742069732070656E645F
:1008A000696E67003078002A20506172616D3335BF
:1008B00020002A20436F6D6D616E64207265717532
:1008C00069726573206F7065726174696F6E206103
:1008D0007320617578696C6961727920636F6E74D9
:1008E000726F6C6C657220284C312900307800736F
:1008F000657420746F20002A2043616E6E6F74202F
:100900006368616E676520706172616D33412D327D
:100910007772697465207768696C65207072657696
:10092000696F75732072657175657374207374696E
:100930006C6C2070656E64696E67002A205061726D
:10094000616D33412D325772697465200030780033
:1009500073657420746F20002A2043616E6E6F747B
:10096000206368616E676520706172616D33362D3A
:10097000327772697465207768696C65207072657A
:1009800076696F7573207265717565737420737401
:10099000696C6C2070656E64696E67002A20506116
:1009A00072616D33362D325772697465200030786C
:1009B0000073657420746F20002A2043616E6E6F8F
:1009C00074206368616E676520706172616D333594
:1009D0002D327772697465207768696C6520707252
:1009E0006576696F757320726571756573742073B0
:1009F00074696C6C2070656E64696E67002A2050A3
:100A00006172616D33352D32577269746520002A29
:100A100020436F756E7465727265717565737420AD
:100A2000697320002A20436F756E74657272657059
:100A3000656174696E677265717565737420697339
:100A400020002A20416C6C20636F756E7465722DD6
:100A500072657175657374732073746F70706564FB
:100A6000002A2053696E676C6520636F756E74652C
:100A7000722072657175657374206379636C65208B
:100A8000696E69746961746564002A2053696E67D0
:100A90006C6520526570657469746976652072654D
:100AA0007175657374696E67206F6620636F756E0C
:100AB0007465722076616C7565732077617320614F
:100AC0006C726561647920616374697665002A20BF
:100AD000537769746368696E6720726570657469BD
:100AE000746976652072657175657374696E6720C7
:100AF0006F6620636F756E74657273206F66662C07
:100B00002073696E676C6520636F756E7465722003
:100B10006379636C6520696E6961746564002A207D
:100B2000537769746368696E67207265706574696C
:100B3000746976652072657175657374696E672076
:100B40006F6620636F756E74657273206F66662CB6
:100B500020776173207374696C6C206163746976AB
:100B6000652C206E6F206E6577206379636C65203D
:100B7000696E6961746564002A2050726576696FD8
:100B800075732073696E676C6520636F756E74652D
:100B9000722072657175657374206E6F742066695A
:100BA0006E697368656420796574002A20526570E7
:100BB00065746974697665207265717565737469A9
:100BC0006E67206F6620636F756E74657220766144
:100BD0006C75657320696E69746961746564002A57
:100BE00020526570657469746976652072657175E7
:100BF000657374696E67206F6620636F756E7465C8
:100C0000722076616C7565732077617320616C72F8
:100C10006561647920616374697665002A20457294
:100C2000726F72737065726D697474656420746F2D
:100C30006F206C6F773B20636F6E74726F6C2066F1
:100C4000756E6374696E616C697479206E6F74205F
:100C5000656E61626C6564002A20436F6E74726F0A
:100C60006C5F6964206973203078002A20436F6EBE
:100C700074726F6C5F69642073657420746F2030C8
:100C800078002A20434F4E54524F4C5F494420690C
:100C90007320616C72656164792030783030002A8D
:100CA00020596F75206D6179207769736820746FA2
:100CB0002072652D74727920696E206120666577D7
:100CC000207365636F6E64732028616E64207065A5
:100CD000726861707320737769746368206F7468D9
:100CE000657220617578696C6961727920636F6ED5
:100CF00074726F6C6C657273206F666629002A20AF
:100D00004E6F20667265652061646472657373203E
:100D1000666F7220636F6E74726F6C6C65722066A2
:100D20006F756E642028796574292E20436F6E7468
:100D3000726F6C2066756E6374696F6E616C697436
:100D400079206E6F7420656E61626C6564002A2084
:100D5000436F6E74726F6C5F494420307846312067
:100D6000737570706F727465642C206E6F2061757E
:100D700078696C6961727920636F6E74726F6C6CE4
:100D8000657220666F756E6420666F7220307846DB
:100D9000312C20737769746368696E6720636F6EA6
:100DA00074726F6C2066756E6374696F6E616C69C6
:100DB0007479206F6E2030784631206F6E002A20C3
:100DC000436F6E74726F6C5F4944203078463020F8
:100DD000737570706F727465642C206E6F2061750E
:100DE00078696C6961727920636F6E74726F6C6C74
:100DF000657220666F756E6420666F72203078466B
:100E0000302C20737769746368696E6720636F6E36
:100E100074726F6C2066756E6374696F6E616C6955
:100E20007479206F6E2030784630206F6E002A2053
:100E3000434F4E54524F4C5F494420697320616CBC
:100E40007265616479203078002A204572726F7271
:100E5000737065726D697474656420286572726F51
:100E600072206275646765742920746F6F206C6FDF
:100E7000773B20636F6E74726F6C2066756E63745F
:100E8000696F6E616C6974792063616E6E6F742036
:100E9000656E61626C6564002A20536368656475E1
:100EA0006C696E6720617474656D707420746F2056
:100EB00072657374617274204461696B696E002A93
:100EC00020726573746172744461696B696E207716
:100ED000616974696E6720746F20726563656976F5
:100EE000652073616D706C65207061796C6F6164F1
:100EF000002A20726573746172744461696B696E53
:100F000020616C7265616479207363686564756CD7
:100F10006564002A20696E736572744D6573736130
:100F2000676520616C7265616479207363686564CC
:100F3000756C6564002A20526573657474696E6708
:100F40002041546D656761202E2E2E2E002A2052DE
:100F500065667573696E6720746F20777269746552
:100F6000207061636B6574207768696C65207072AE
:100F70006576696F7573207061636B657420776146
:100F8000736E27742066696E6973686564002A2031
:100F90005265667573696E6720746F207772697425
:100FA0006520656D707479207061636B6574002ACB
:100FB0002057726974696E673A20002D2076616C43
:100FC00069642064617461206D697373696E672C54
:100FD00020777269746520736B6970706564002A8C
:100FE0002057726974696E67206E6578742034309A
:100FF0004630333020736C6F743A20002A20696EBB
:10100000736572744D65737361676520286F722014
:10101000726573746172744461696B696E292061D1
:101020006C7265616479207363686564756C65646E
:101030000073657420746F20002A204563686F2058
:101040000073657420746F20002A20536F667477D4
:101050006172652D73636F70652000736574207411
:101060006F20002A2044656C617954696D656F7545
:1010700074200073657420746F20005B75736520A5
:101080006F662064656C61792030206F722031209A
:101090006E6F74207265636F6D6D656E6465642C30
:1010A00020696E6372656173696E6720746F2032A8
:1010B0005D20002A2044656C6179200073657420EE
:1010C000746F20002A20566572626F7365200030AD
:1010D000780073657420746F20002A204372635F68
:1010E00066656564200030780073657420746F2035
:1010F000002A204372635F67656E2000206E723A9B
:10110000203078002070743A203078002A20496717
:101110006E6F72696E6720696E737472756374693D
:101120006F6E2C2065787065637465642033206170
:101130007267756D656E74732C2072656365697670
:1011400065643A20002A2043757272656E746C796A
:10115000206E6F20777269746520627564676574AC
:10116000206C6566740020746F2076616C75652054
:1011700030780020706172616D65746572206E72E6
:10118000203078002A20496E6974696174696E673D
:1011900020706172616D6574657220777269746523
:1011A00020666F72207061636B65742D7479706551
:1011B000203078002A2049676E6F726564202D20E8
:1011C00057726974696E6720746F20746869732040
:1011D000706172616D6574657220616C72656164C5
:1011E000792070656E64696E672062792033415F93
:1011F00072657175657374002A2049676E6F726538
:1012000064202D2057726974696E6720746F207492
:1012100068697320706172616D6574657220616CBC
:1012200072656164792070656E64696E67206279A9
:101230002033365F72657175657374002A204967C3
:101240006E6F726564202D2057726974696E672015
:10125000746F207468697320706172616D65746564
:101260007220616C72656164792070656E64696E6C
:10127000672062792033355F72657175657374001C
:101280002A2049676E6F726564202D205772697439
:10129000696E6720746F2074686973207061726171
:1012A0006D6574657220616C72656164792070652A
:1012B0006E64696E672062792044485733355F72E7
:1012C000657175657374002076616C75652069734E
:1012D00020002A20506172616D657465722076610C
:1012E0006C756520746F6F206C6172676520666F26
:1012F00072207061636B657420747970653B202384
:10130000627974657320697320002A2077725F6E9A
:1013100072203E2065787065637465643A20307889
:1013200000206F7574206F662072616E67652030D3
:101330007833352D30783344002A2077725F70740B
:101340003A203078002A2050726576696F757320D4
:10135000706172616D657465722077726974652061
:10136000616374696F6E207374696C6C206275734D
:1013700079002A20436F6D6D616E6420726571750E
:1013800069726573206F7065726174696F6E206138
:101390007320617578696C6961727920636F6E740E
:1013A000726F6C6C657220284C3129002A205265BE
:1013B0006365697665643A20002A20456D7074790A
:1013C000206C696E65207265636569766564002AC4
:1013D0002052656365697665643A2022002A204CB4
:1013E000696E6520746F6F206C6F6E672C206C6166
:1013F000737420706172743A20002A2046697273F7
:1014000074206C696E652069676E6F7265643A203E
:101410002D3E003C2D002A204C696E6520746F6FB4
:10142000206C6F6E672C207465726D696E617465D7
:10143000642C2069676E6F7265643A202D3E003C13
:101440002D002A204C696E6520746F6F206C6F6EC2
:10145000672C2069676E6F7265642C2069676E6FF8
:1014600072696E672072656D61696E6465723A209B
:101470002D3E00502020202020202020200052201F
:10148000002A205265616479207365747570002AA2
:101490002053455249414C53504545443D002A2074
:1014A0004350555F53504545443D002A20566572D0
:1014B000626F736974793D002A2046303358444581
:1014C0004C41593D002A204630333044454C415967
:1014D0003D002A20436F756E746572726570656198
:1014E00074696E67726571756573743D002A204377
:1014F0004F4E54524F4C5F49445F44454641554C12
:10150000543D3078002A20436F6E74726F6C5F49CF
:10151000443D3078002A20503150322D4553502D13
:10152000696E746572666163652041546D656761BB
:10153000487749442076312E002028706F776572F5
:101540002D6F6E2D7265736574290020286578747F
:101550002D72657365742900202862726F776E2D75
:101560006F75742D646574656374656429002A2041
:1015700052657365742063617573653A204D4355F8
:1015800053523D0020452D73657269657300204EEE
:101590004557503150324C494200202B636F6E74D6
:1015A000726F6C0032323A35383A35330020004AD7
:1015B000756C2031312032303233002A20436F6D78
:1015C00070696C656420002A20503150324D6F6E76
:1015D00069746F722D76302E392E3430002A2045F2
:1015E0004550524F4D20736967206D69736D61746A
:1015F00063682C20696E697469616C697A696E67C9
:1016000020454550524F4D002A20454550524F4DE0
:1016100020736967206D61746368002A20636865C0
:10162000636B696E6720454550524F4D00000000C6
:10163000090003020000040508000000000000008B
:10164000000000000102040810204080010204088C
:101650001020010204081020408040040404040407
:10166000040404020202020202030303030303024E
:1016700002030000000023002600290000000000F3
:10168000250028002B0000000000240027002A006D
:101690005B37440E11241FBECFEFD8E0DEBFCDBFB5
:1016A00011E0A0E0B1E0EAEDFAE702C005900D928A
:1016B000AC3FB107D9F725E0ACEFB1E001C01D9216
:1016C000A930B207E1F71BE0C9E4DBE004C02197D1
:1016D000FE010E94EB39C834D107C9F70E943439A2
:1016E0000C94603D0C9400001F93CF93DF93EC01AA
:1016F000162F0E94133D181739F0612FCE01DF918C
:10170000CF911F910C941B3DDF91CF911F910895B4
:101710000C94133DCF92DF92EF92FF920F931F93A1
:10172000CF93DF9380911801882331F06BE176E14C
:1017300083E694E00E94FB3782E2E82E81E0F82EF7
:10174000670100E110E0C1E0C8010E94880BF601CA
:1017500021916F01022E000C330B91E082171306CA
:1017600009F090E0C9230F5F1F4F0931110561F7A0
:10177000809118018823E9F168E076E183E694E03E
:101780000E94C4376C2F70E04AE050E083E694E09A
:101790000E94BF38C1112FC080911801882331F0F9
:1017A0006DED75E183E694E00E94FB37C0E1D0E087
:1017B000F70161917F01CE010E94740B2196C9311E
:1017C000D105B1F760E090E080E00E94740B60E02A
:1017D00081E090E00E94740B63E082E090E0DF9192
:1017E000CF911F910F91FF90EF90DF90CF900C94CD
:1017F000740BCC23D9F2DF91CF911F910F91FF9001
:10180000EF90DF90CF90089567EC75E183E694E068
:101810000E94FB376BEB75E183E694E00E94C437CE
:101820006FEA75E183E694E00E94C4376DEA75E1E2
:1018300083E694E00E94C43764EA75E183E694E0AD
:101840000E94C4376AE975E183E694E00E94C437D8
:101850006EE875E183E694E00E94C43764E875E1C0
:1018600083E694E00E94C43783E694E00E94F73751
:101870006EE675E183E694E00E94C4374AE050E0EA
:101880006091EA0283E694E00E94F0388091EA02D7
:1018900082FF06C068E575E183E694E00E94C437E4
:1018A0008091EA0281FF06C06BE475E183E694E073
:1018B0000E94C4378091EA0280FF06C069E375E1A7
:1018C00083E694E00E94C43783E694E00E94F737F1
:1018D00065E175E183E694E00E94C4374AE050E098
:1018E0006091080283E694E00E94F73865E075E1B4
:1018F00083E694E00E94C43740E150E06091ED023D
:1019000083E694E00E94F7386DEE74E183E694E09C
:101910000E94C43740E150E070E060E083E694E06C
:101920000E94BF3862ED74E183E694E00E94C43700
:101930004AE050E06091EB0283E694E00E94F738C1
:1019400065EC74E183E694E00E94C4374AE050E01D
:1019500064E670E083E694E00E94BF3868EB74E1CF
:1019600083E694E00E94C4374AE050E06EE170E004
:1019700083E694E00E94BF386BEA74E183E694E06A
:101980000E94C4374AE050E06091180183E694E079
:101990000E94F7386EE974E183E694E00E94C43750
:1019A0002AE030E040E052E16AE770E083E694E04C
:1019B0000E94D1386FE874E183E694E00E94C43756
:1019C0002AE030E040E950ED63E070E083E694E027
:1019D0000C94D138EF92FF920F931F9384B78093AA
:1019E000EA0214BE62E084E00E940E3561E083E00A
:1019F0000E940E3560E083E00E944A3584E00E9438
:101A000078357C0161E083E00E944A3584E00E94E1
:101A100078358C0160E084E00E940E3560E083E060
:101A20000E940E35EF2831F48FEF012B09F082E090
:101A30008093080280910802811149C083E080935D
:101A40007E0010927B0088B1836088B981EC80931E
:101A50007C0086ED80937A0080917A0086FDFCCF31
:101A6000209178008091790090E0982F8827820F4C
:101A7000911D909307028093060288B18C7F88B9EC
:101A800087EC80937C0086ED80937A0080917A00C9
:101A900086FDFCCF209178008091790090E0982F0E
:101AA0008827820F911D909307028093060288B1C8
:101AB00088B910927E0080910602909107028152AF
:101AC0009340873C910518F481E08093080226E05A
:101AD00040E950ED63E070E083E694E00E947B36DD
:101AE0000E94040C0E948A0B90E080E00E94880B08
:101AF0008093ED0281E090E00E94880B8093EB02DE
:101B000082E090E00E94880B809318018091080287
:101B1000EE24E394823029F0E12C07E026E08130C6
:101B200011F001E020E041E0811101C040E060E8F7
:101B300075E280E090E00E94EC2B809112010E94FF
:101B400015318091EE020E94123180911301909123
:101B500014010E94D02D60E08FEE92E00E94E62BEF
:101B600061E874E183E694E01F910F91FF90EF909C
:101B70000C94FB377F936F932CE231E03F932F93CC
:101B80009F938F930E94FF390F900F900F900F90AB
:101B90000F900F9008957F936F932FE231E03F9362
:101BA0002F939F938F930E94FF390F900F900F9068
:101BB0000F900F900F900895EF92FF920F931F9345
:101BC000CF93DF93F82ED92FE62E8091180188232A
:101BD00031F06EE774E183E694E00E94C4378091AF
:101BE000180180FF06C063E774E183E694E00E9479
:101BF000C437C09105020F2D1D2FE00EF12EF11CF0
:101C0000E016F10629F1F801D1918F01D03128F4C5
:101C100060E383E694E00E94F03740E150E06D2FEE
:101C200083E694E00E94F03830910201332341F3BF
:101C300028E08C2F90E095958795CD27C0FF06C0B2
:101C4000C32FC827D6952150A1F7DACFC82FFACFD6
:101C500080910201882371F0C03128F460E383E6AB
:101C600094E00E94F03740E150E06C2F83E694E06E
:101C70000E94F03883E694E0DF91CF911F910F919D
:101C8000FF90EF900C94F7370C9402342F923F9210
:101C90004F925F926F927F928F929F92AF92BF927C
:101CA000CF92DF92EF92FF920F931F93CF93DF9328
:101CB000CDB7DEB7A4970FB6F894DEBF0FBECDBF89
:101CC00090910802923049F48091FF01813009F42B
:101CD00064C060F1823009F46AC08091FF01811113
:101CE0000C945C2983E694E00E94BB358C0197FF3D
:101CF00002C00C945C2980910902E0910301F091EB
:101D000004010A30110511F40C941029833610F0E7
:101D10000C9414299F012F5F3F4F309304012093AF
:101D2000030100838F5F80930902D7CF1C992AC0DB
:101D300081E08093FF0161E08FEE92E00E94E02B52
:101D400060E08FEE92E00E94E62B83E694E00E9432
:101D5000D736A4960FB6F894DEBF0FBECDBFDF9185
:101D6000CF911F910F91FF90EF90DF90CF90BF9098
:101D7000AF909F908F907F906F905F904F903F902B
:101D80002F9008951D99A9CF9093FF0160E08FEEE9
:101D900092E00E94E02B61E0D4CF1D99DACF9093BE
:101DA000FF0161E08FEE92E00E94E62BD2CF1D9BF7
:101DB000D0CF1092FF0125E632E03093040120934A
:101DC0000301109209021092FE018093000126E0A7
:101DD00040E950ED63E070E083E694E00E947B36DA
:101DE00060E08FEE92E00E94E62B61E08FEE92E0E1
:101DF0000E94E02B0E94040CACCF81112AC080917C
:101E0000FF01811106C066E174E183E694E00E945F
:101E1000C4378091FF01811106C065E672E083E658
:101E200094E00E94E8378091FF01811105C06F2D79
:101E300083E694E00E94F0378091FF01811106C093
:101E400063E174E183E694E00E94FB3781E08093D4
:101E5000FE01109200010C9454291082882381F015
:101E6000A82FB0E0AC59BD4F9C919D3049F48150F2
:101E7000809309023197F0930401E09303011082EB
:101E8000809100018230A1F58091FF01811106C08F
:101E90006AEF73E183E694E00E94C4378091FF010A
:101EA000909109029A3098F465E672E08111D1CFE1
:101EB00083E694E00E94E8378091FF018111C9CF49
:101EC00067E371E083E694E00E940D38C2CF109280
:101ED0006E02811106C065E672E083E694E00E941E
:101EE000E8378091FF018111B4CF63E371E0E0CF67
:101EF0008130C9F48091FE018111ABCF8091FF0147
:101F0000811106C06DED73E183E694E00E94C43751
:101F10008091FF0181119ACF65E672E083E694E03B
:101F20000E940D3893CF80911801813011F08430D8
:101F3000F1F48091FF01811106C06FEC73E183E63B
:101F400094E00E94C4378091FF01811106C065E6CC
:101F500072E083E694E00E94E8378091FF018111EE
:101F600006C06AE371E083E694E00E940D388AE6D9
:101F700092E0909304018093030144E050E06CE30D
:101F800071E085E692E00E94F1396C01892B11F035
:101F90000C94542980916902893511F40C94A41D84
:101FA0000CF041C18E3409F4D7C10CF0C9C087349C
:101FB00009F462C1C4F58A3209F482C2F4F48823B8
:101FC00009F469C28091FF01811106C065E574E0E2
:101FD00083E694E00E94C4378091FF0181110C9444
:101FE000542960910301709104016150710983E6E5
:101FF00094E00E940D380C945429833409F4C6C728
:10200000853401F78091ED0281117BC28091FF013F
:1020100081110C94542962E773E183E694E00E94F5
:10202000FB370C9454298B3409F47FC10CF054C055
:10203000883441F680911801882351F08091FF0186
:10204000811106C06AED70E183E694E00E94C43716
:10205000BE016B5E7F4F80910301909104010E944D
:10206000CB0D019799F48D89809305028091180119
:10207000882311F40C9454298091FF01811106C02A
:1020800062ED70E183E694E00E94C4378091FF0125
:10209000811106C06FEC70E183E694E00E94C437C2
:1020A0008091FF0190910502903138F4811105C0B3
:1020B00060E383E694E00E94F0378091FF01811194
:1020C0000C94542940E150E06091050283E694E0CD
:1020D0000E94F7380C9454298C3409F407C68D34C7
:1020E00009F070CF80911801882351F08091FF0191
:1020F000811106C06BE379E083E694E00E94C43767
:10210000BE016B5E7F4F80910301909104010E949C
:10211000CB0D019711F00C94CD198091E102882329
:1021200011F40C94B7198091FF0181110C9454297A
:1021300067EF78E083E694E00E94FB370C94542923
:10214000843509F42BC1FCF4803511F40C949F18EC
:102150000CF41BC4813511F40C942B19823509F051
:1021600031CF8091FF019091ED0291110C94431BAE
:1021700081110C94542964E877E083E694E00E948E
:10218000FB370C945429863509F4C1C30CF43DC4C3
:10219000873509F45DC1883509F014CF80911801A5
:1021A000882351F08091FF01811106C069E370E13D
:1021B00083E694E00E94C437BE01695E7F4F809140
:1021C0000301909104010E94BA0D81309105E1F460
:1021D0002F89388D232B11F0988F8F8B8F898093C7
:1021E00012010E94153180911801882311F40C947A
:1021F00054298091FF0181110C94542961E370E10D
:1022000083E694E00E94C4378091FF0181110C9411
:1022100054294AE050E06091120183E694E00E9464
:10222000F7380C9454298F3609F4AFC30CF0A6C0CC
:10223000883609F4FFCE0CF071C0833609F4A6C6C7
:10224000ACF48A3509F0BECE8091FF019091ED0289
:1022500091110C94191A81110C94542962EB78E0B5
:1022600083E694E00E94FB370C945429853609F4E8
:10227000C9CE873609F0A6CE80911801882351F087
:102280008091FF01811106C061EF70E183E694E067
:102290000E94C437BE016B5E7F4F80910301909115
:1022A00004010E94CB0D019799F48D89809302015E
:1022B00080911801882311F40C9454298091FF0116
:1022C000811106C069EE70E183E694E00E94C43794
:1022D0008091FF01811106C066EE70E183E694E013
:1022E0000E94C4378091FF0190910201903138F42F
:1022F000811105C060E383E694E00E94F03780918D
:10230000FF0181110C94542940E150E060910201D9
:1023100083E694E00E94F7380C9454298C3609F433
:10232000E5C4A4F48B3609F04DCE8091FF018111F4
:1023300006C065E37FE083E694E00E94FB37E0910E
:102340000302F091040209950C9454298D3609F486
:10235000C9CE8E3609F036CE8091FF019091ED0204
:1023600091110C949C1C81110C94542968E876E01E
:1023700083E694E00E94FB370C945429853709F4D6
:1023800044C30CF05BC0813709F465C70CF4D7C6B1
:10239000823709F4E6CE843709F014CE8091180113
:1023A000882351F08091FF01811106C063EB70E139
:1023B00083E694E00E94C43765E171E080910301F7
:1023C000909104010E94BA0D019739F58091150191
:1023D00090911601029780F482E090E090931601AC
:1023E000809315018091FF01811106C06BE770E1B8
:1023F00083E694E00E94C43780911801882311F489
:102400000C9454298091FF0181110C94542963E7A5
:1024100070E183E694E00E94C4378091FF0181114E
:102420000C94542960911501709116014AE050E016
:1024300083E694E00E940F390C945429883709F4FC
:10244000ADCE0CF5863709F462C2873709F0BACDF4
:102450008091ED02882309F49BC3809112038111BE
:1024600005C080911403882309F415C38091FF01EE
:1024700081110C9454296CEF7FE083E694E00E9474
:10248000FB370C945429893711F40C94A41D8A3716
:1024900009F4DACE97CD80911801813021F0843093
:1024A00011F00C9454298091FF0181110C9454294E
:1024B00069EB73E183E694E00E94FB370C945429A6
:1024C00080911801813021F0843011F00C9454294E
:1024D0008091FF01811106C06CEA73E183E694E00C
:1024E0000E94C4378091FF0181110C94542960919E
:1024F00003017091040183E694E00E940D380C946E
:1025000054298091DF02882369F08091FF018111B5
:102510000C94542965E473E183E694E00E94FB3750
:102520000C94542987ED92E09F938F938BED92E06A
:102530009F938F938DED92E09F938F9381E491E031
:102540009F938F938AE692E09F938F930E94FF3927
:102550009C019C8B8B8B0FB6F894DEBF0FBECDBF5A
:102560009091FF012330310509F082C18091DD0295
:102570002BEC280F293008F1911106C069E373E1B3
:1025800083E694E00E94C4378091FF01811108C066
:1025900040E150E06091DD0283E694E00E94F03873
:1025A0008091FF0181110C94542961E273E183E66B
:1025B00094E00E94FB370C9454292091DB02309167
:1025C000DC024901B12CA12CA82FA553BB0BFD01A6
:1025D000EE0FFF1FEE0FFF1FEE53FE4F40815181A4
:1025E00062817381481559056A057B05C8F491110C
:1025F00006C06AE073E183E694E00E94C4378091EC
:10260000FF0181110C9454296091DB027091DC026E
:1026100040E150E083E694E00E940F390C94542985
:10262000EAECE80FE83008F05BC0F0E0E65EFC4E54
:102630000C94EB3922136C136E136E137013221368
:102640006C136E1312E0B8E01B9FF001112440914F
:10265000D7025091D8026091D9027091DA0204C079
:102660007695679557954795EA95D2F7452B462B72
:10267000472BC1F1911106C062ED72E183E694E04F
:102680000E94C4378091FF01811107C04AE050E0E9
:10269000612F83E694E00E94F0388091FF01811160
:1026A00006C067EC72E183E694E00E94C437809133
:1026B000FF0181110C9454294091D7025091D80206
:1026C0006091D9027091DA0220E130E083E694E073
:1026D0000E9421390C94542913E0B5CF14E0B3CFF4
:1026E00011E0B1CF853349F52034310579F480917B
:1026F000E902882359F091110C94542960E872E1A1
:1027000083E694E00E94FB370C9454294091100119
:10271000509111012417350709F03FC08091E7025D
:102720008823D9F191110C9454296CE372E183E66A
:1027300094E00E94FB370C9454298633B1F4409105
:102740000E0150910F012417350739F58091E402ED
:10275000882319F191110C94542968EF71E183E6F3
:1027600094E00E94FB370C9454298A33B1F44091D1
:102770000C0150910D012417350779F48091E10285
:10278000882359F091110C94542964EB71E183E68C
:1027900094E00E94FB370C94542980910A0188230D
:1027A00009F45BC08F3F19F0815080930A0181E0EA
:1027B0008093DF02911106C064E871E183E694E042
:1027C0000E94C4378091FF01811108C040E150E0B0
:1027D0006091DD0283E694E00E94F0388091FF0171
:1027E000811106C063E771E183E694E00E94C4377B
:1027F0008091FF0181110AC06091DB027091DC02BF
:1028000040E150E083E694E00E9409398091FF01A5
:10281000811106C066E671E183E694E00E94C43748
:102820008091FF0181110EC04091D7025091D802D2
:102830006091D9027091DA0220E130E083E694E001
:102840000E94E3388091FF0181110C94542983E6A2
:1028500094E00E94F7370C94542991110C94542958
:1028600065E471E183E694E00E94FB370C945429FF
:10287000911106C06CE071E183E694E00E94C437D8
:102880006B897C898091FF01811106C04AE050E08C
:1028900083E694E00E94B8388091FF012B893C893F
:1028A00012161306A4F4811106C064E071E183E6F8
:1028B00094E00E94C4378091FF01811108C040E17B
:1028C00050E06091DD0283E694E00E94F038809150
:1028D000FF012B893C89223031050CF4B3CF8111E3
:1028E00006C06CEF70E183E694E00E94C4378091EB
:1028F000FF0181110C9454296091DB027091DC027C
:1029000040E150E083E694E00E9409399BCF80913A
:10291000FF01811106C064EC70E183E694E00E943F
:10292000C437BE01695E7F4F80910301909104011D
:102930000E94BA0D0197C9F48F89988D059720F0F0
:1029400084E090E0988F8F8B8091FF01811106C009
:102950006CEB70E183E694E00E94C4376F8960936A
:10296000180182E090E00E94740B8091FF018111B8
:1029700008C04AE050E06091180183E694E00E94AC
:10298000F7380E94040C0C94542980911801882374
:1029900051F08091FF01811106C063E670E183E68A
:1029A00094E00E94C43763E171E08091030190914B
:1029B00004010E94BA0D0197B9F48091130190911E
:1029C00014010E94D02D80911801882311F40C94D9
:1029D00054298091FF0181110C9454296BE570E119
:1029E00083E694E00E94C4378091FF0181110C942A
:1029F000542960911301709114014AE050E083E67C
:102A000094E00E940F390C94542980911801882376
:102A100051F08091FF01811106C069E470E183E605
:102A200094E00E94C437BE01695E7F4F809103012C
:102A3000909104010E94BA0D0197E1F48F8980936F
:102A4000EE02823018F081E08093EE028091EE0277
:102A50000E94123180911801882311F40C9454299A
:102A60008091FF01811112C061E470E183E694E07E
:102A70000E94C4378091FF01811108C04AE050E0F4
:102A80006091EE0283E694E00E94F73888EC809330
:102A900001010C94542980911801882351F08091F0
:102AA000FF01811106C06FED7FE083E694E00E9494
:102AB000C4371092F002109213038E010D5E1F4F67
:102AC0006E01E1E1CE0ED11C9CE4A92E91E0B92E5D
:102AD000FF24F3941F930F93DF92CF92BF92AF9294
:102AE000809104018F93809103018F930E94FF399D
:102AF0000FB6F894DEBF0FBECDBF019789F080916D
:102B0000FF019091120391119FCE81110C945429D1
:102B10006BEB7FE083E694E00E94FB370C94542932
:102B200089899A89E091F00221E02E0F2093F0022A
:102B3000F0E0EF50FD4F8083F092120320910301EB
:102B4000309104014B895C89240F351F30930401B7
:102B50002093030120911801222309F4BBCF209177
:102B6000FF01409744F4211106C062E571E083E65D
:102B700094E00E94E8378091FF018111ABCF698911
:102B80007A8940E150E083E694E00E94B838A2CF11
:102B900080911801882351F08091FF01811106C0B6
:102BA0006FEA7FE083E694E00E94C4370CE412E011
:102BB0005E0143E1A40EB11C4E0151E1850E911C52
:102BC0008CE4682E81E0782EBF92AF929F928F9214
:102BD0007F926F92809104018F93809103018F9374
:102BE0000E94FF390FB6F894DEBF0FBECDBF01972C
:102BF000B1F529893A89BFEFCB1ADB0AF801219395
:102C00008F0180910301909104014B895C89840FAD
:102C1000951F9093040180930301809118018823EC
:102C2000C9F02031310554F48091FF01811106C0B3
:102C300062E571E083E694E00E94E8378091FF014D
:102C4000811108C069897A8940E150E083E694E007
:102C50000E94B83839E1C316D10409F0B5CF80918C
:102C60001801811118C00E94D52D882351F1C1147B
:102C7000D104D1F02091150130911601E0900502A8
:102C8000009102014C2D6CE472E08FEE92E00E9404
:102C90009D340C9454298091FF018111E4CF83E687
:102CA00094E00E94F737DFCF8091FF0181110C94EF
:102CB00054296EE87FE083E694E00E94FB370C9491
:102CC00054298091FF01811106C06DE47FE083E605
:102CD00094E00E94FB37809115038F3F11F40C9410
:102CE00054298F5F809315030C945429BE01695EAB
:102CF0007F4F8AE692E00E94BA0D019709F01BC14E
:102D00008F89988D8336910509F03DC08091FF0130
:102D100090911203992359F081110C94542963E185
:102D20007FE083E694E00E94FB370C945429909155
:102D30001403992359F081110C94542961EF7EE01A
:102D400083E694E00E94FB370C945429909113037E
:102D500091110BC081110C9454296FEB7EE083E636
:102D600094E00E94FB370C94542991E09093140353
:102D700081110C94542968E97EE083E694E00E9476
:102D8000FB370C945429049710F0188E1F8A8F89F2
:102D9000988D80FFAEC08091FF0190910901953020
:102DA00058F481110C94542969E47EE083E694E0A0
:102DB0000E94FB370C9454299091ED02992311F154
:102DC000811106C06EE27EE083E694E00E94C43783
:102DD0008091FF01811108C040E150E06091ED0257
:102DE00083E694E00E94F7388F89988D029710F05F
:102DF0000C9454296091ED0290E080E00E94740BE5
:102E00000C94542990910701953009F045C0811127
:102E100006C06EEB7DE083E694E00E94FB3780EF16
:102E20008093ED028F89988D21E08530910509F41A
:102E300020E02093170160EF029708F442C08091D0
:102E40001801882311F40C9454298091FF018111F9
:102E500006C06BE67CE083E694E00E94C437809174
:102E6000FF019091ED02903140F4811106C062E5BE
:102E700071E083E694E00E94E8378091FF018111C0
:102E80000C94542940E150E06091ED0283E694E017
:102E90000E94F7380C945429909108019530B1F4B0
:102EA000811106C06EE47DE083E694E00E94FB376A
:102EB00081EF8093ED028F89988D61EF029708F082
:102EC000BECF90E080E00E94740BB9CF811106C0A4
:102ED0006EEF7CE083E694E00E94FB378091FF0177
:102EE0008111ADCF6FE97CE083E694E00E94FB376F
:102EF000A6CF2091ED0221110DC08091FF0181111B
:102F00000C94542962E87CE083E694E00E94FB374D
:102F10000C9454291092ED021092E7021092E402F0
:102F20001092E1021092E9021092DF02029708F07B
:102F300086CF60E0C6CF8091FF0190911801992360
:102F400041F0811106C068E57CE083E694E00E94D0
:102F5000C4378091FF019091ED02903140F48111CE
:102F600006C062E571E083E694E00E94E837809154
:102F7000FF0181110C94542940E150E06091ED0271
:102F800083E694E00E94F7380C945429BE01695EF0
:102F90007F4F8AE692E00E94BA0D2091FF010197CF
:102FA00009F0A0C08F89988D8230910588F18091B9
:102FB0000901853058F421110C9454296CE17CE00E
:102FC00083E694E00E94FB370C9454298091EB0235
:102FD000882359F021110C9454296FED7BE083E68E
:102FE00094E00E94FB370C94542981E08093EB021B
:102FF000211106C06BEA7BE083E694E00E94FB3778
:103000006091EB0281E090E00E94740B0C945429D3
:10301000019709F053C03091EC024091EB0281E03E
:1030200090E0442311F090E080E070E08323972348
:10303000892B59F021110C94542968E77BE083E631
:1030400094E00E94FB370C9454294423E1F0109241
:10305000EB02332359F021110C9454296EE17BE0EB
:1030600083E694E00E94FB370C945429211106C09A
:103070006EEC7AE083E694E00E94FB3781E0809377
:10308000EC020C945429332359F021110C94542947
:103090006AE87AE083E694E00E94FB370C945429B6
:1030A00081E08093EC0221110C94542961E67AE0CE
:1030B00083E694E00E94FB370C9454291092EB02B3
:1030C0001092EC02211106C062E47AE083E694E0FB
:1030D0000E94FB376091EB0281E090E00E94740B4C
:1030E0000C945429211106C064E27AE083E694E04E
:1030F0000E94C4378091FF01811108C04AE050E06E
:103100006091EB0283E694E00E94F7388091FF0122
:10311000811106C06FE07AE083E694E00E94C43734
:103120008091FF0181110C9454294AE050E0609194
:10313000EC0283E694E00E94F7380C9454298091C5
:103140001801882351F08091FF01811106C06DEFB5
:1031500079E083E694E00E94C437BE016B5E7F4F46
:1031600080910301909104010E94CB0D019739F5E4
:103170008091E702882369F08091FF0181110C940E
:10318000542969EB79E083E694E00E94FB370C94C4
:1031900054298D899E89909311018093100180910B
:1031A0001801882311F40C9454298091FF01811196
:1031B00006C061EB79E083E694E00E94C437809119
:1031C000FF01811106C06EEA79E083E694E00E9477
:1031D000C4378091FF0120911001309111012031FD
:1031E000310538F4811105C060E383E694E00E9464
:1031F000F0378091FF0120911001309111012F3F94
:10320000310509F038F4811105C060E383E694E0EC
:103210000E94F0378091FF0120911001309111013F
:103220002115304138F4811105C060E383E694E054
:103230000E94F0378091FF0181110C945429609114
:1032400010017091110140E150E083E694E00E948A
:103250000F390C94542980911801882351F08091E2
:10326000FF01811106C06CE979E083E694E00E94D9
:10327000C437BE016B5E7F4F8091030190910401C2
:103280000E94CB0D019739F58091E402882369F003
:103290008091FF0181110C94542968E579E083E65F
:1032A00094E00E94FB370C9454298D899E89909359
:1032B0000F0180930E0180911801882311F40C9462
:1032C00054298091FF01811106C060E579E083E611
:1032D00094E00E94C4378091FF01811106C06DE423
:1032E00079E083E694E00E94C4378091FF01209149
:1032F0000E0130910F012031310538F4811105C0E4
:1033000060E383E694E00E94F0378091FF01209112
:103310000E0130910F012F3F310509F038F4811172
:1033200005C060E383E694E00E94F0378091FF01DE
:1033300020910E0130910F012115304138F4811197
:1033400005C060E383E694E00E94F0378091FF01BE
:1033500081110C94542960910E0170910F0140E18C
:1033600050E083E694E00E940F390C9454298D8933
:103370009E8990930D0180930C0180911801882300
:1033800011F40C9454298091FF01811106C06FEE55
:1033900078E083E694E00E94C4378091FF018111B8
:1033A00006C06CEE78E083E694E00E94C43780911A
:1033B000FF0120910C0130910D012031310538F4CD
:1033C000811105C060E383E694E00E94F0378091AC
:1033D000FF0120910C0130910D012F3F310509F0C3
:1033E00038F4811105C060E383E694E00E94F03771
:1033F0008091FF0120910C0130910D012115304188
:1034000038F4811105C060E383E694E00E94F03750
:103410008091FF0181110C94542960910C017091ED
:103420000D0140E150E083E694E00E940F390C94D6
:10343000542990911801992341F0811106C067EA3F
:1034400078E083E694E00E94C4378091FF01811107
:1034500006C064EA78E083E694E00E94C437809175
:10346000FF0120911001309111012031310538F414
:10347000811105C060E383E694E00E94F0378091FB
:10348000FF0120911001309111012F3F310509F00A
:1034900038F4811105C060E383E694E00E94F037C0
:1034A0008091FF01209110013091110121153041CF
:1034B00038F4811105C060E383E694E00E94F037A0
:1034C0008091FF0181110AC060911001709111017A
:1034D00040E150E083E694E00E940939BE016B5E52
:1034E0007F4F80910301909104010E94CB0D0197C1
:1034F00009F085C080911001909111012091DD02A9
:103500002533C1F42091DB023091DC022817390702
:1035100089F42091DF02222369F08091FF0181115B
:103520000C9454296FE678E083E694E00E94FB3720
:103530000C9454298034910589F48091E902882300
:1035400069F08091FF0181110C94542968E378E0BF
:1035500083E694E00E94FB370C94542980910A0181
:10356000882309F43FC08F3F19F0815080930A01EE
:1035700081E08093E7028D899E899093E602809393
:10358000E50280911801882311F40C94542980914C
:10359000FF01811106C065E278E083E694E00E94B5
:1035A000C4378091FF012091E5023091E60220317D
:1035B000310538F4811105C060E383E694E00E9490
:1035C000F0378091FF0181110C9454296091E5023C
:1035D0007091E60240E150E083E694E00E940F39EA
:1035E0000C9454298091FF0181110C94542964E0BA
:1035F00078E083E694E00E94FB370C945429809194
:10360000FF019091E702992399F1811106C065EEBF
:1036100077E083E694E00E94C4378091FF01209117
:10362000E5023091E6022031310538F4811105C000
:1036300060E383E694E00E94F0378091FF018111FE
:103640000AC06091E5027091E60240E150E083E635
:1036500094E00E9409398091FF0181110C94542952
:103660006CED77E083E694E00E94FB370C945429DC
:1036700081110C9454296EEB77E083E694E00E946C
:10368000FB370C94542990911801992341F0811132
:1036900006C069E777E083E694E00E94C437809132
:1036A000FF01811106C066E777E083E694E00E949F
:1036B000C4378091FF0120910E0130910F0120311C
:1036C000310538F4811105C060E383E694E00E947F
:1036D000F0378091FF0120910E0130910F012F3FB3
:1036E000310509F038F4811105C060E383E694E008
:1036F0000E94F0378091FF0120910E0130910F015F
:103700002115304138F4811105C060E383E694E06F
:103710000E94F0378091FF0181110AC060910E0173
:1037200070910F0140E150E083E694E00E940F3970
:10373000BE016B5E7F4F80910301909104010E9456
:10374000CB0D019709F092C08091DD028633E1F440
:103750002091DB023091DC0280910E0190910F01EB
:103760002817390789F48091DF02882369F0809156
:10377000FF0181110C94542962E477E083E694E020
:103780000E94FB370C94542980910A01882309F484
:1037900060C08F3F19F0815080930A0181E08093CF
:1037A000E4028D899E899093E3028093E2028091E6
:1037B0001801882311F40C9454298091FF01811180
:1037C00006C06FE277E083E694E00E94C437809100
:1037D000FF012091E2023091E3022031310538F4FB
:1037E000811105C060E383E694E00E94F037809188
:1037F000FF012091E2023091E3022F3F310509F0F1
:1038000038F4811105C060E383E694E00E94F0374C
:103810008091FF012091E2023091E30221153041B5
:1038200038F4811105C060E383E694E00E94F0372C
:103830008091FF0181110C9454296091E2027091F2
:10384000E30240E150E083E694E00E940F390C94DB
:1038500054298091FF0181110C9454296EE077E086
:1038600083E694E00E94FB370C9454298091FF0179
:103870009091E402992309F454C0811106C06FEEBF
:1038800076E083E694E00E94C4378091FF012091A6
:10389000E2023091E3022031310538F4811105C094
:1038A00060E383E694E00E94F0378091FF0120916D
:1038B000E2023091E3022F3F310509F038F4811123
:1038C00005C060E383E694E00E94F0378091FF0139
:1038D0002091E2023091E3022115304138F4811148
:1038E00005C060E383E694E00E94F0378091FF0119
:1038F00081110AC06091E2027091E30240E150E060
:1039000083E694E00E9409398091FF0181110C94B3
:10391000542960EE76E083E694E00E94FB370C9435
:10392000542981110C94542962EC76E083E694E0EA
:103930000E94FB370C94542990911801992341F06F
:10394000811106C06DE776E083E694E00E94C437FB
:103950008091FF01811106C06AE776E083E694E07A
:103960000E94C4378091FF0120910C0130910D011C
:103970002031310538F4811105C060E383E694E01D
:103980000E94F0378091FF0120910C0130910D01D0
:103990002F3F310509F038F4811105C060E383E65B
:1039A00094E00E94F0378091FF0120910C0130914A
:1039B0000D012115304138F4811105C060E383E623
:1039C00094E00E94F0378091FF0181110AC060915C
:1039D0000C0170910D0140E150E083E694E00E94FB
:1039E0000F39BE016B5E7F4F8091030190910401FE
:1039F0000E94CB0D019709F068C08091DD028A33E7
:103A0000E1F42091DB023091DC0280910C01909175
:103A10000D012817390789F48091DF02882369F0A6
:103A20008091FF0181110C94542965E476E083E6CE
:103A300094E00E94FB370C94542980910A0188235A
:103A4000B9F18F3F19F0815080930A0181E0809392
:103A5000E1028D898093E00280911801882311F49E
:103A60000C9454298091FF01811106C061E376E036
:103A700083E694E00E94C4378091FF019091E002B8
:103A8000903138F4811105C060E383E694E00E9430
:103A9000F0378091FF0181110C94542940E150E0EE
:103AA0006091E00283E694E00E94F7380C94542978
:103AB0008091FF0181110C94542960E176E083E646
:103AC00094E00E94FB370C9454298091FF0190915F
:103AD000E102992371F1811106C061EF75E083E67F
:103AE00094E00E94C4378091FF019091E0029031F0
:103AF00038F4811105C060E383E694E00E94F0375A
:103B00008091FF01811108C040E150E06091E00226
:103B100083E694E00E94F0388091FF0181110C94BB
:103B2000542962EE75E083E694E00E94FB370C9422
:103B3000542981110C94542964EC75E083E694E0D7
:103B40000E94FB370C9454298091FF019091ED0263
:103B5000911108C0811106C06AE875E083E694E01F
:103B60000E94FB378091FF0190911801992341F049
:103B7000811106C06CE775E083E694E00E94C437CB
:103B80008091FF01811106C069E775E083E694E04A
:103B90000E94C4378091FF01811105C060E383E674
:103BA00094E00E94F0378091FF01811105C060E32D
:103BB00083E694E00E94F0378091FF01811108C0F4
:103BC00040E150E060E470E083E694E00E94BF389A
:103BD000BE01695E7F4F80910301909104010E94B4
:103BE000BA0D019709F07CC08091DD028533C1F4E4
:103BF0008091DB029091DC028034910589F4809100
:103C0000DF02882369F08091FF0181110C9454290F
:103C100066E375E083E694E00E94FB370C94542938
:103C200080911001909111018034910589F4809167
:103C3000E702882369F08091FF0181110C945429D7
:103C400062EF74E083E694E00E94FB370C94542901
:103C500080910A018823B9F18F3F19F08150809338
:103C60000A0181E08093E9028F898093E8028091C4
:103C70001801882311F40C9454298091FF018111BB
:103C800006C06FED74E083E694E00E94C437809133
:103C9000FF019091E802903138F4811105C060E392
:103CA00083E694E00E94F0378091FF0181110C942B
:103CB00054294AE050E06091E80283E694E00E94D3
:103CC000F7380C9454298091FF0181110C945429E8
:103CD0006EEB74E083E694E00E94FB370C94542969
:103CE0008091FF019091E902992371F1811106C041
:103CF0006EE974E083E694E00E94C4378091FF018E
:103D00009091E802903138F4811105C060E383E6B8
:103D100094E00E94F0378091FF01811108C040E1DA
:103D200050E06091E80283E694E00E94F0388091D0
:103D3000FF0181110C9454296FE874E083E694E04C
:103D40000E94FB370C94542981110C94542960E78C
:103D500074E083E694E00E94FB370C945429809130
:103D6000EE028823A1F080910101FF2019F0863036
:103D700008F0A4C090912B02903409F09CC090915F
:103D80002C02903F09F097C0833308F097C08091D0
:103D900001018F5F893C08F082C28093010110927B
:103DA00066038F2D8F7309F47CC2411451046104A2
:103DB000710409F45FC0809118038F3F29F08F5F71
:103DC00080931803F092170380910901882309F466
:103DD00051C081508093090181114CC08091FF0135
:103DE000811106C06DE873E083E694E00E94FB3722
:103DF0008091EB02882351F08091FF01811106C070
:103E000064E673E083E694E00E94FB378091ED0264
:103E1000882351F08091FF01811106C06EE373E0A9
:103E200083E694E00E94FB371092ED021092EB02C1
:103E30001092EC028091FF01811106C061EC72E0EA
:103E400083E694E00E94FB376091ED0290E080E011
:103E50000E94740B6091EB0281E090E00E94740B71
:103E60001092E7021092E4021092E1021092E9022D
:103E70001092DF0280912B029091120391110C9409
:103E8000282781110C94282780912C028111B6C615
:103E900080912D02823109F0B1C6A1EFB2E0EBE2D0
:103EA000F2E0CF018B529240881599050CF0A1C623
:103EB00081918D93F6CF873908F469CF90912103D2
:103EC000911105C090916303903F09F460CF855034
:103ED000809301018091FF01FF2009F47BC06CE217
:103EE00074E0882309F47AC080912B02803148F471
:103EF0008091FF01811105C060E383E694E00E9498
:103F0000F0378091FF01811108C040E150E06091DD
:103F10002B0283E694E00E94F03880912C028031DD
:103F200048F48091FF01811105C060E383E694E0CD
:103F30000E94F0378091FF01811108C040E150E0FC
:103F400060912C0283E694E00E94F03880912D026B
:103F5000803148F48091FF01811105C060E383E660
:103F600094E00E94F0378091FF01811108C040E188
:103F700050E060912D0283E694E00E94F038809139
:103F8000FF01811105C060E283E694E00E94F037F2
:103F900080916303B12CA12C803F19F0A0902103E4
:103FA000B12CDA8CD501A25BBC4FEC918091FF0162
:103FB000E75FE93008F05EC0F0E0EF51F04E0C949E
:103FC000EB3935200E20302026201C20F31F2B201B
:103FD00021201720811188CF69E274E083E694E004
:103FE0000E94C43781CF60E274E08823D9F05FEF8C
:103FF000A51AB50A86E1A816B10411F4B12CA12CBA
:10400000809121038A151B0469F68091FF018111BB
:10401000BECE83E694E00E94F737B9CE67E174E044
:104020008111E5CF83E694E00E94C437E0CF6EE0D3
:1040300074E08111DCCFF6CF65E074E08111D7CF59
:10404000F1CF6CEF73E08111D2CFECCF63EF73E06F
:104050008111CDCFE7CF6AEE73E08111C8CFE2CFF7
:1040600061EE73E08111C3CFDDCF8111C0CF68ED68
:1040700073E0D8CF0C91007E6C916F71698FA501B0
:10408000440F551F58A34F8FD1104DC0003439F441
:10409000811105C060E283E694E00E94F037EF8D65
:1040A000F8A1EE5DFC4FC080D1808091FC01909121
:1040B000FD01C81AD90AF3E0D694C794FA95E1F73E
:1040C0005AE0C516D10498F48091FF01811105C012
:1040D00060E283E694E00E94F0378091FF01811155
:1040E00022C060E283E694E00E94F03704C084E6D8
:1040F000C816D10490F38091FF01811114C04AE0E9
:1041000050E0B60183E694E00E9409398091FF01F6
:10411000003411F40C941C2A811105C06AE383E673
:1041200094E00E94F037EF8DF8A1EE5DFC4F8081A6
:1041300091819093FD018093FC018091FF010036F5
:1041400099F150F4002311F1003411F40C94262A53
:1041500060E2811161C06FC0003A21F0003C11F0B3
:104160000038B1F7F98DFA3008F04DC0F23008F49C
:1041700078C0811151C0498D4250550BBA014AE0B7
:1041800050E083E694E00E94B83859C0811105C020
:104190006FE383E694E00E94F0378091FF0166ECC4
:1041A00073E0811173C076C0998D933140F49330E0
:1041B000D8F4913078F4811110C060E206C0A98D66
:1041C000A531C8F760E5811108C083E694E00E943C
:1041D000F03703C063E58823C1F38091FF0160ECF1
:1041E00073E0811153C056C08111F7CFE98DE350C0
:1041F000FF0BBF01759567954AE050E083E694E0B8
:104200000E94B838EACF298D2A3091F02B3009F07E
:104210009FCF65E4882379F00036F9F210F00C9412
:10422000402A002309F4B9CF003481F50C942D2ADB
:1042300060E58111F1CF83E694E00E94F03700360B
:1042400061F28091FF01013680F4002309F4A5CFCB
:10425000003411F40C942D2A811118C066EB73E020
:1042600019C08111D9CF63E5E6CF003A59F0003C7F
:1042700011F40C942D2A003879F76AEC73E0882346
:1042800049F004C08091FF01882311F0D12CAFCEFA
:1042900064ED73E083E694E00E94C437F7CF88ECC6
:1042A0007CCD90912B02F110E5CDAAE08A16910405
:1042B000FCF091111DC080912C02811119C08091D8
:1042C0002D028231A9F4809131028093D60220918F
:1042D0000B01821769F02091EB02222339F0209123
:1042E000EC02211103C021E02093EC0280930B012A
:1042F00080910701853009F0B0C08091EC028823DD
:1043000009F4ABC0B5E08B1691040CF4B3CD911158
:10431000A9C090912C02903F09F0A4C090912D0269
:10432000903309F09FC0982F9370913009F090C09E
:1043300010924C0210924D0298EB90934E0290E036
:10434000959587959595879580934F020E94D52DD9
:10435000D82E882309F469C0E0900502009102017B
:104360002EE130E044E06CE472E08FEE92E00E94D7
:104370009D34DA8E8091EC028F5F863109F46AC039
:104380008093EC0280912B02803409F06DC0809103
:104390002C02982F9E7F903F09F06CCD90912D02BA
:1043A000292F2073203309F065CDF82FF170FD8F90
:1043B0001E8E903329F4ED8DFE8DEB5FFE4F108243
:1043C00029813A812C31310508F054CDED8DFE8DD7
:1043D000E95FFE4F10829091ED0289134BCD8091E1
:1043E000FF01811106C06DE272E083E694E00E9455
:1043F000C4378091FF01811108C040E150E0609115
:104400002C0283E694E00E94F0388091FF01811134
:1044100006C063E272E083E694E00E94FB371092EC
:10442000ED0260E090E080E019CD8091FF01811104
:1044300006C060E772E083E694E00E94FB3780915B
:1044400015038F3F09F496CF8F5F8093150392CFAA
:104450001A8E90CF1092EC0295CFE5E08E16910463
:104460000CF408CD1A8E8ECF811104CD80912C02D0
:10447000982F9E7F903F09F0FDCC90912D02292F1F
:104480002073203309F0F6CC2A8D2111F3CC903320
:1044900009F041C081708B8F1C8EEB8DFC8DEB5F22
:1044A000FE4F8081823014F48F5F8083EB8DFC8D12
:1044B000E95FFE4F8081853074F58F5F80838530A2
:1044C00051F58091FF01811106C061EF71E083E633
:1044D00094E00E94C4378091FF01811108C040E13F
:1044E00050E060912C0283E694E00E94F0388091C5
:1044F000FF0120912C029091ED0229137AC08111C5
:1045000006C063EC71E083E694E00E94FB371092F2
:104510001203109214038091ED02882379F0382F52
:10452000317039A31AA2E9A1FAA1E95FFE4F908187
:10453000953021F490912C02891791F090911203FB
:1045400080912B02911105C090911403992309F4D5
:1045500098CC81118FCC80912C02803F09F08ACCBD
:1045600080E480934C0280912C0280934D028091D4
:104570002D0280934E02809102015401882319F08C
:1045800041E0A41AB1085AE1A516B104C4F0809123
:10459000FF01811106C06EE471E083E694E00E94A1
:1045A000C4378091FF01811107C04AE050E0B40197
:1045B00083E694E00E94BF3859E1A52EB12CE0912A
:1045C0002D02E053EF3008F055CCF0E0E651FD4D00
:1045D0000C94EB3902239E23B8233A1F3A1FC823B9
:1045E0004924AC24D72406251D257425A725BE25DE
:1045F000D525811190CF6AE771E083E694E00E94AF
:10460000FB3789CF80911203811105C0909114036B
:10461000992309F45FC02091F00230E0ACE4B2E0ED
:10462000E1EFF2E0AF01415F5240421753071CF443
:1046300091919D93F7CF882379F08091FF018111AB
:1046400006C06EE271E083E694E00E94FB37809141
:104650001203815080931203809114038823A1F0E8
:104660008091FF01811106C062E171E083E694E070
:104670000E94FB3780915B02806280935B02809195
:104680001403815080931403A090F00245E0C42EDF
:10469000D12C0E94D52D882309F498C2E090050200
:1046A0000091020196014A2D6CE472E08FEE92E0D7
:1046B0000E949D348091DE022091C8023091C9028F
:1046C000820F932F911D9093C9028093C80210927C
:1046D000DE02D0CB23E0822F90E08A159B0534F4D4
:1046E000845B9D4FDC011C922F5FF5CF8091E90226
:1046F000811104C08091E702882319F081E0809342
:1047000053028091E402882319F081E080935402DF
:104710008091E102882319F081E080935802809112
:10472000DF02882339F0E091DD02F0E0E25EFD4F28
:1047300081E0808394E6C92ED12CABCF23E0822F79
:1047400090E08A159B0554F4FC01E45BFD4F855D08
:104750009D4FDC018C9180832F5FF1CF84EB8093A0
:10476000530280E1809354028EE1C82ED12C91CF68
:1047700023E0822F90E08A159B05B4F7FC01E45BEF
:10478000FD4F855D9D4FDC018C9180832F5FF1CFC4
:1047900023E0822F90E08A159B0534F4845B9D4FC3
:1047A000FC0110832F5FF5CF8091DF02882311F188
:1047B0009091DD029533F1F42091DB029091DC02BF
:1047C00020934F02909350029091D7029093510200
:1047D00081508093DF0281E08093DE028091FF01AF
:1047E000811106C064E571E083E694E00E940D3813
:1047F00006E001C003E08091E902882309F1E02F7F
:10480000F0E0E45BFD4F80E48083E1E0E00FF0E066
:10481000E45BFD4F1082E2E0E00FF0E00D5FE45B4F
:10482000FD4F8091E80280831092E9028091FF01A0
:10483000811106C06AE671E083E694E00E940D38BB
:104840008091E702882309F48FCF90911001809125
:104850001101E02FF0E0E45BFD4F9083E1E0E00F19
:10486000F0E0E45BFD4F80830E5FE02FF0E0E45B5F
:10487000FD4F8091E50280831092E7028091FF0155
:1048800060E871E0811170CF83E694E00E940D38FA
:104890006BCF23E0822F90E08A159B0534F4845B74
:1048A0009D4FDC011C932F5FF5CF8091DF028823A1
:1048B00031F19091DD02963311F52091DB02909158
:1048C000DC0220934F02909350022091D7029091E6
:1048D000D802209351029093520281508093DF02BC
:1048E00081E08093DE028091FF01811106C064E5C2
:1048F00071E083E694E00E940D38E7E001C0E3E058
:104900008091E402882309F42FCF90910E018091C9
:104910000F01AE2FB0E0A45BBD4F9C93A1E0AE0FA2
:10492000B0E0A45BBD4F8C939091E2028091E302D2
:10493000A2E0AE0FB0E0A45BBD4F9C93ED5FF0E052
:10494000E45BFD4F80831092E4028091FF0166E9F1
:1049500071E0811109CF98CF23E0822F90E08A1572
:104960009B0534F4845B9D4FFC0110832F5FF5CFD2
:104970008091DF02882309F4F7CE9091DD0297330E
:1049800009F0F2CE2091DB029091DC0220934F02DD
:10499000909350023091D7022091D8029091D90281
:1049A000309351022093520290935302C3C023E0EC
:1049B000822F90E08A159B0534F4845B9D4FDC01C7
:1049C0001C932F5FF5CF8091DF02882309F4CCCEB2
:1049D0009091DD02983309F0C7CE2091DB029091CF
:1049E000DC0220934F02909350024091D702309105
:1049F000D8022091D9029091DA024093510230936B
:104A00005202209353029093540294C023E0822FC9
:104A100090E08A159B0534F4845B9D4FFC01108364
:104A20002F5FF5CF8091DF02882309F49DCE90910E
:104A3000DD02993309F098CED0CF23E0822F90E0A9
:104A40008A159B0534F4845B9D4FDC011C932F5F1A
:104A5000F5CF8091DF02882311F19091DD029A3326
:104A6000F1F42091DB029091DC0220934F029093AD
:104A700050029091D7029093510281508093DF02AF
:104A800081E08093DE028091FF01811106C064E520
:104A900071E083E694E00E940D38E6E001C0E3E0B7
:104AA0008091E102882309F45FCE90910C018091FE
:104AB0000D01AE2FB0E0A45BBD4F9C93A1E0AE0F03
:104AC000B0E0A45BBD4F8C93EE5FF0E0E45BFD4F84
:104AD0008091E00280831092E1028091FF016CEAF4
:104AE00071E0811141CED0CE23E0822F90E08A1573
:104AF0009B0534F4845B9D4FFC0110832F5FF5CF41
:104B00008091DF02882309F42FCE9091DD029B3340
:104B100009F02ACE2091DB029091DC0220934F0213
:104B2000909350022091D7029091D8022093510285
:104B30009093520281508093DF0281E08093DE02E5
:104B40008091FF01811110CE64E571E09DCE23E0DC
:104B5000822F90E08A159B0534F4845B9D4FDC0125
:104B60001C932F5FF5CF8091DF02882309F4FCCDE1
:104B70009091DD029C3309F0F7CD04CF23E0822F22
:104B800090E08A159B0534F4845B9D4FFC011083F3
:104B90002F5FF5CF8091DF02882309F4E5CD909156
:104BA000DD029D3309F0E0CD18CF80912E02809375
:104BB0004F0224E0822F90E08A159B050CF0D4CDA3
:104BC000845B9D4FDC011C932F5FF4CF8091FF012C
:104BD000811106C06AEB70E083E694E00E94FB3727
:104BE000809115038F3F09F472CD8F5F8093150379
:104BF0006ECD8092F00281E080931303FF2009F4D0
:104C00003BC18091FF0167EB70E0882309F440C14C
:104C10008091180180FD03C0FF2009F463C08091DA
:104C2000FF01811106C061EB70E083E694E00E9411
:104C3000C43789819A818031974248F48091FF017D
:104C4000811105C060E283E694E00E94F03789811B
:104C50009A812091FF01883EE3E09E0708F01DC184
:104C6000211105C060E383E694E00E94F037809153
:104C7000FF01811106C06FEA70E083E694E00E94B4
:104C8000C43789819A818436910548F48091FF0167
:104C9000811105C060E383E694E00E94F0378981CA
:104CA0009A810A9748F48091FF01811105C060E361
:104CB00083E694E00E94F0378091FF01811108C0E3
:104CC00069817A814AE050E083E694E00E940939E4
:104CD0008091FF01811106C06CEA70E083E694E0E8
:104CE0000E94C43780911801843008F0EBC03BE289
:104CF000C32E32E0D32E5401F1E0AF1AB1088091F7
:104D0000FF0196012B523240281539050CF0DEC008
:104D100090911801992361F0D1019C9190FF08C0F6
:104D2000811106C067EA70E083E694E00E94C43710
:104D300080911801882371F0F101808181FF0AC000
:104D40008091FF01811106C062EA70E083E694E081
:104D50000E94C43780911801882371F0D1018C9191
:104D600085FF0AC08091FF01811106C06DE970E0E6
:104D700083E694E00E94C43780911801882371F083
:104D8000F101808182FF0AC08091FF01811106C07C
:104D900068E970E083E694E00E94C437D6010D9183
:104DA0006D01809102018823A9F080911801813062
:104DB00089F48BA19CA18A0F9B1FA816B90651F4F8
:104DC0008091FF01811128C262E970E083E694E0DE
:104DD0000E94C437003148F48091FF01811110C056
:104DE00060E383E694E00E94F0378091FF01811137
:104DF00007C040E150E0602F83E694E00E94F03865
:104E000080911801882371F0F101808183FF0AC02D
:104E10008091FF01811106C06DE870E083E694E0A7
:104E20000E94C43780911801882371F0D1018C91C0
:104E300084FF0AC08091FF01811106C062E870E022
:104E400083E694E00E94C437BFEF2B1A3B0A57CF8A
:104E5000803409F0D3CE80912C028111CFCE809185
:104E60002D02803109F002C385E080930202C6CE94
:104E700085E080930102C2CE809118018150833079
:104E800008F0C6CE8091FF018111C2CE64EB70E0C4
:104E900083E694E00E94C437BBCE21110AC068EEBD
:104EA00073E00E94B5394AE050E083E694E00E9446
:104EB000093989819A8168EE73E00E94B5399A8335
:104EC0008983D5CEFF2009F475C211CFFF2089F167
:104ED000811106C064E770E083E694E00E94C43765
:104EE000EFE0EF1548F08091FF01811105C060E30C
:104EF00083E694E00E94F0378091FF01811105C0A4
:104F000060E383E694E00E94F0378091FF01811115
:104F100005C060E383E694E00E94F0378091FF01D2
:104F2000811148C240E150E06F2D83E694E00E9479
:104F3000F0388091FF0181113DC283E694E00E9428
:104F4000F73738C280910202853008F470C01092A1
:104F5000020210924C0210924D028DE080934E029C
:104F600080910802882309F44EC19E012F5F3F4FB4
:104F70006901AE01475F5F4F7A018E01055F1F4FE8
:104F80002C5F3F4F4C5F5F4FBE01615F7F4F8FEEE5
:104F900092E00E94802B8F85988990934F02809396
:104FA00050028D859E8590935102809352028D818F
:104FB0009E812F8138853093530220935402909321
:104FC0005502809356028B859C859093570280935F
:104FD000580289859A859093590280935A02898153
:104FE0009A812B813C8130935B0220935C029093E9
:104FF0005D0280935E028091170180935F02909121
:10500000ED02911101C080E0809360021092610274
:10501000109262028091FF01811109C080911801F4
:10502000843028F467E18CE492E00E94DC0D8091EA
:105030000102853008F458C01092010210924C020F
:1050400010924D028EE080934E0270924F02609259
:1050500050025092510240925202109253028AE73B
:105060008093540282E180935502109256028091FF
:105070001503809357028091EB0280935802809130
:10508000EC02809359028091160380935A0280911A
:10509000DF0280935B028091DD0280935C0280914D
:1050A000DB029091DC0290935D0280935E0280911E
:1050B000D7029091D8022091D9023091DA02309330
:1050C0005F0220936002909361028093620280915C
:1050D000FF01811109C080911801843028F467E133
:1050E0008CE492E00E94DC0D80910002853010F487
:1050F0000C94A90E1092000210924C0210924D02D4
:105100008FE080934E028DE380934F02B0901801A0
:10511000B09250028091EA028093510280910A017C
:105120008093520280910901809353028091C802BA
:105130009091C90290935402809355028091150179
:10514000909116019093560280935702809113011B
:105150009091140190935802809359028091080213
:1051600080935A0290E080E00E94880B80935B025B
:1051700082E090E00E94880B80935C0281E090E0E6
:105180000E94880B80935D0222E2C22E21E0D22E83
:1051900000E110E0FF24F394C8010E94880BD601BF
:1051A0002D916D01022E000C330B91E08217130636
:1051B00009F090E0F9220F5F1F4F0931110561F7E7
:1051C000F0925E028091EE0280935F02809118035C
:1051D0008093600280911703809361028091ED02B9
:1051E000809362028091FF0181110C94A90EB3E0BB
:1051F000BB1510F40C94A90E67E18CE492E00E94B8
:10520000DC0D0C94A90EEFE4F2E08FE592E0119230
:105210008E179F07E1F7EFCE003108F0F5CDDCCD1A
:10522000833611F00C942D0FF29010828091FE01C4
:105230000A30110511F40C94FD0E811132C08091D9
:10524000FF01811106C062E474E183E694E00E94EC
:10525000C4378091FF01811106C065E672E083E6E4
:1052600094E00E94E8378091FF01811105C06F2D05
:1052700083E694E00E94F0378091FF01811107C01E
:105280004AE050E0B80183E694E00E94B83880918B
:10529000FF01811106C06FE374E183E694E00E9490
:1052A000FB3781E08093000185E692E09093040152
:1052B00080930301109209028FEE92E00E94DC3489
:1052C0002B013C018091D2029091D302A091D40293
:1052D000B091D50284159505A605B705BCF480915B
:1052E00002028F5F80930202809101028F5F8093A0
:1052F0000102809100028F5F809300024092D202EF
:105300005092D3026092D4027092D5028091CE0264
:105310009091CF02A091D002B091D102AC01BD0119
:10532000415F514F6F4F7F4F441555056605770517
:105330009CF420910A01243618F42F5F20930A016F
:10534000805F914FAF4FBF4F8093CE029093CF02BB
:10535000A093D002B093D1028091CA029091CB0267
:10536000A091CC02B091CD02AC01BD01415F514F83
:105370006F4F7F4F44155505660577059CF42091C6
:105380000901243118F42F5F20930901805F914FA8
:10539000AF4FBF4F8093CA029093CB02A093CC0231
:1053A000B093CD021FEF8BE292E09C0120953095E7
:1053B0003CA32BA38FEE92E00E94E8338A8F8823D0
:1053C00009F4C0CDC0900502E090020101E22AE09C
:1053D00032E0AE014F5F5F4F6BE272E08FEE92E022
:1053E0000E941A344C01F12C8297B4F08091FF0195
:1053F000811106C06FE274E083E694E00E94FB37FF
:10540000809116038F3F19F08F5F8093160301E29E
:10541000802E912CFF24FA94BAE02B2EB2E03B2E82
:10542000F101CF018A5092408815990514F00C942F
:10543000AF1E8191F82AF5CFEF8DF8A1EE5DFC4FFC
:10544000208131813093FD012093FC01811105C041
:1054500060E283E694E00E94F0378091FF016AEBFE
:1054600073E081110C9446210C944A21813109F496
:10547000FFCC823109F0C2CB85E080930002BECB25
:10548000003A11F40C944221003C11F00C94462196
:10549000E4CF1F920F920FB60F921124CF92DF929A
:1054A000EF92FF922F933F934F935F936F937F936E
:1054B0008F939F93AF93BF93809178002091790051
:1054C00030E0322F2227820F932F911DB0E0A0E011
:1054D00020911D01222309F493C010921D012091F7
:1054E0005F0420937C0020915104309152042F5F7F
:1054F0003F4F309352042093510440914B045091FC
:105500004C0460914D0470914E04840F951FA61FAA
:10551000B71F80934B0490934C04A0934D04B09319
:105520004E04A901542F44275295507F452B09F072
:1055300051C04091470450914804609149047091D2
:105540004A04480F591F6A1F7B1F4093470450931A
:1055500048046093490470934A04C0902001D0909D
:105560002101F12CE12C8C159D05AE05BF0520F421
:105570009093210180932001C0905D04D0905E043F
:10558000F12CE12CC816D906EA06FB0620F490930C
:105590005E0480935D0410924B0410924C041092B0
:1055A0004D0410924E04A4E0220F331FAA95E1F798
:1055B000232B81F44093590450935A0460935B0465
:1055C00070935C04109247041092480410924904AE
:1055D00010924A048EED80937A00BF91AF919F9113
:1055E0008F917F916F915F914F913F912F91FF909C
:1055F000EF90DF90CF900F900FBE0F901F901895F7
:1056000021E020931D012091600420937C002091D3
:105610004F04309150042F5F3F4F3093500420933C
:105620004F044091430450914404609145047091AB
:105630004604840F951FA61FB71F809343049093C1
:105640004404A0934504B0934604A901542F442771
:105650005295507F452B09F0BDCF40913F045091AA
:1056600040046091410470914204480F591F6A1F21
:105670007B1F40933F045093400460934104709318
:105680004204C0901E01D0901F01F12CE12C8C151A
:105690009D05AE05BF0520F490931F0180931E0168
:1056A000C0905704D0905804F12CE12CC816D906AC
:1056B000EA06FB0620F49093580480935704109256
:1056C000430410924404109245041092460484E06E
:1056D000220F331F8A95E1F7232B09F07BCF4093EC
:1056E00053045093540460935504709356041092DD
:1056F0003F041092400410924104109242046ACF79
:10570000CF92DF92EF92FF920F931F9380916204EA
:10571000882309F44EC086E880937A0080912001A6
:1057200090912101FB019183808380915D04909190
:105730005E04FA01918380838091590490915A0408
:10574000A0915B04B0915C04F90180839183A283F2
:10575000B38380911E0190911F01F8019183808392
:105760008091570490915804F70191838083809130
:10577000530490915404A0915504B0915604F6013D
:1057800080839183A283B38380EF9FE39093210171
:105790008093200110925E0410925D0490931F018B
:1057A00080931E0110925804109257048EE8809343
:1057B0007A001F910F91FF90EF90DF90CF900895A6
:1057C000662311F0429A089542980895662311F0D5
:1057D0005B9A08955B9808958F929F92AF92BF92C3
:1057E000EF920F93CF93DF934B015C01D42FC22F25
:1057F00096958795779567957E5E85489F4FA5011D
:1058000094010E94C93930933E0420933D04B901AC
:1058100076956795CB01820F931F90933C048093FC
:105820003B04C901F3E096958795FA95E1F7860F59
:10583000971F90933A04809339045695479537956E
:1058400027953093380420933704C901880F991F96
:10585000280F391F309336042093350461E082E02D
:105860000E940E3561E086E00E940E3561E085E021
:105870000E940E3561E083E00E940E35E0926104E3
:10588000429A80916104882309F4A4C05E988091B3
:105890006104882309F4A0C05D985B9A62E088E007
:1058A0000E940E3561E089E00E944A3561E089E09E
:1058B0000E940E35109275031092740310923404F6
:1058C00010922F048FEF80932E0410922D041092CB
:1058D000C8031092C7031092C2031092C103109222
:1058E00073031092720382E084BD94E095BD99EF3A
:1058F00097BD10926D0310926E0310926F03109279
:1059000070031092690310926A0310926B03109255
:105910006C0316BC21E023BD85BB80936E00809391
:10592000B00023E02093B1009093B30083BD1092A8
:10593000B200109275031092740387BB80937000BD
:1059400010926F001092800081E880938100809116
:1059500081008F7B8093810080918000806C809398
:1059600080008091820080688093820080E286BB04
:1059700080916F00806280936F00D0936204DD237A
:1059800001F18C2F806C80936004802F806C809359
:105990005F0421E030E0C90101C0880FCA95EAF731
:1059A00001C0220F0A95EAF7822B8F7380937E0045
:1059B0008091600480937C0010927B008EED809338
:1059C0007A00DF91CF910F91EF90BF90AF909F90B1
:1059D0008F9008955E9A5BCF5D9A5FCF1F920F9272
:1059E0000FB60F9211248F939F93AF93BF93809123
:1059F000690390916A03A0916B03B0916C030896C0
:105A0000A11DB11D8093690390936A03A0936B035A
:105A1000B0936C03809171038F5F809371038D3716
:105A2000A8F01092710380916D0390916E03A09184
:105A30006F03B09170030196A11DB11D80936D039A
:105A400090936E03A0936F03B0937003BF91AF91D7
:105A50009F918F910F900FBE0F901F9018951F92DE
:105A60000F920FB60F9211242F933F938F939F9312
:105A70008091740390917503019649F080917403AD
:105A800090917503019690937503809374038091B0
:105A9000C803833609F06FC02091740330917503F9
:105AA000809172039091730328173907C1F02091F8
:105AB00074033091750380917203909173032817DA
:105AC000390708F458C02091740330917503809110
:105AD0001B0190911C012817390708F44CC081E084
