:100000000C946F020C9497020C9497020C94970234
:100010000C9497020C9497020C9497020C9407107E
:100020000C9497020C9497020C94F6130C94F41011
:100030000C942B150C9497020C94C60F0C949702F9
:100040000C94C5170C9497020C94A91A0C94DB1A03
:100050000C9497020C94210D0C9497020C94970227
:100060000C9497020C9497026364696E6F707375B9
:1000700078585B0020435243206572726F72003AD9
:100080004F522D002D50453A002D42433A002D5835
:10009000583A002D53423A003A20002E00542000D6
:1000A000522000452000203F2000E280BE5C5F001F
:1000B0005F2FE280BE005F5F5F00E280BEE280BE35
:1000C000E280BE002D582D002020206C77202020BB
:1000D0000020202070652020200020202050452076
:1000E00020200020202062632020200020202042A9
:1000F0004320202000202020736220202000202088
:100100002053422020200020202062652020200053
:100110002020204245202020006320004320002A88
:1001200020536B697070696E6720696E69746961CC
:100130006C207061636B65742077697468207265E8
:1001400061646572726F72203D203078002A204110
:100150006C7761797320736B697070696E67206664
:1001600069727374207061636B65742069662064C2
:10017000656C7461203D3D20302C207265616465A2
:1001800072726F72203D203078002A2052656365BC
:1001900069766564207061636B6574206C6F6E674F
:1001A0006572207468616E2052425F53495A45005F
:1001B0002A20436F6D6D616E64206E6F7420756EC2
:1001C00064657273746F6F643A20002A20526573FD
:1001D000657474696E672041546D656761202E2EC9
:1001E0002E2E002A205265667573696E6720746F23
:1001F000207772697465207061636B65742077681D
:10020000696C652070726576696F757320706163C3
:100210006B6574207761736E27742066696E6973ED
:10022000686564002A205265667573696E6720747C
:100230006F20777269746520656D707479207061C4
:10024000636B6574002A2057726974696E673A207F
:100250000073657420746F20002A20416C6C6F77E6
:10026000202862697473207061757365292000739A
:10027000657420746F20002A20536F667477617252
:10028000652D73636F7065200073657420746F2033
:10029000002A2044656C617954696D656F7574201E
:1002A0000073657420746F20005B757365206F6642
:1002B0002064656C61792030206F722031206E6F70
:1002C00074207265636F6D6D656E6465642C206962
:1002D0006E6372656173696E6720746F20325D2092
:1002E000002A2044656C6179200073657420746F66
:1002F00020002A204572726F72206D61736B202876
:10030000486974616368692064656661756C74200E
:10031000307833422C2050453D2B307830342C201F
:1003200055433D2B307834302C206F746865722033
:100330006272616E647320307837462920002A206B
:100340004C696E6520746F6F206C6F6E672C207423
:1003500065726D696E61746564002A204C696E6512
:1003600020746F6F206C6F6E672C2069676E6F72E0
:1003700065640052205020202020202020202000D2
:100380002A205265616479207365747570002A2093
:100390004572726F72206D61736B3D3078002A2058
:1003A000416C6C6F773D002A20503150324D5154D2
:1003B00054206272696467652041546D65676148C5
:1003C0007749442076312E002028706F7765722D92
:1003D0006F6E2D7265736574290020286578742D01
:1003E00072657365742900202862726F776E2D6FB5
:1003F000757429002A2052657365742063617573D2
:10040000653A204D435553523D0020542D7365727B
:1004100069657300204E4557503150324C494200B7
:10042000206D6F64656C6E722000206272616E6474
:10043000200031353A35333A32340020004D6179AD
:1004400020313820323032340020636F6D70696C97
:1004500065642000503150324D6F6E69746F7220A8
:1004600076302E392E3436002A20454550524F4DD5
:1004700020696E6974000000000900030200000496
:100480000508000000000000000000000001020458
:100490000810204080010204081020010204081006
:1004A0002040804004040404040404040202020204
:1004B00002020303030303030202030000000023FC
:1004C000002600290000000000250028002B000065
:1004D000000000240027002A00000B1B390511240E
:1004E0001FBECFEFD8E0DEBFCDBF11E0A0E0B1E08E
:1004F000E0E4F3E402C005900D92A037B107D9F70C
:1005000024E0A0E7B1E001C01D92A03DB207E1F7F1
:1005100012E0CEE6D2E004C02197FE010E941E1E2A
:10052000CD36D107C9F70E94AE1C0C9493210C94D0
:1005300000001F93CF93DF93EC01162F0E944621FA
:10054000181739F0612FCE01DF91CF911F910C94D4
:100550004E21DF91CF911F9108950C944621CF92A7
:10056000DF92EF92FF921F93CF93DF9386E1E82E05
:1005700081E0F82E6701C0E1D0E011E0CE010E94D9
:10058000AD02F60121916F01022E000C330B91E0B8
:100590008217130609F090E019232196C631D10580
:1005A00069F711112BC068E674E083E394E00E94C0
:1005B000AB1BC0E1D0E0F70161917F01CE010E9449
:1005C00099022196C631D105B1F760E090E080E054
:1005D0000E94990260E081E090E00E94990266E04A
:1005E00083E090E00E94990260E084E090E00E9445
:1005F000990269E086E090E00E94990285E090E02F
:100600000E94AD028F3F29F46FE785E090E00E94E1
:10061000990289E090E00E94AD028F3F29F460E0EA
:1006200089E090E00E94990289E090E00E94AD028A
:1006300081110CC061E089E090E0DF91CF911F91C2
:10064000FF90EF90DF90CF900C949902DF91CF91C3
:100650001F91FF90EF90DF90CF900895882331F0A5
:100660006DE171E083E394E00E94BD1B6FE271E0F5
:1006700083E394E00E94981B64E574E083E394E0D4
:100680000E94741B69E474E083E394E00E94741B8D
:100690006DE374E083E394E00E94741B6BE374E009
:1006A00083E394E00E94741B62E374E083E394E0CC
:1006B0000E94741B6AE274E083E394E00E94741B5E
:1006C0004AE050E060910B0183E394E00E947C1CBF
:1006D00060E274E083E394E00E94741B4AE050E01F
:1006E0006091DF0283E394E00E947C1C64E174E08B
:1006F00083E394E00E94741B6AE074E083E394E077
:100700000E94741B83E394E00E94A71B64EF73E0D4
:1007100083E394E00E94741B4AE050E06091D902A8
:1007200083E394E00E947C1C8091D90282FF06C082
:1007300067EE73E083E394E00E94741B8091D9021A
:1007400081FF06C06AED73E083E394E00E94741BAE
:100750008091D90280FF06C068EC73E083E394E0E7
:100760000E94741B83E394E00E94A71B67EA73E076
:1007700083E394E00E94741B4AE050E060917A01A8
:1007800083E394E00E94831C6EE973E083E394E0CA
:100790000E94741B4AE050E06091050183E394E0FD
:1007A0000E94831C6EE873E083E394E00E94741B54
:1007B00080910601803128F460E383E394E00E9495
:1007C000A01B40E150E06091060183E394E00C94AB
:1007D000831CEF92FF920F931F9384B78093D902EB
:1007E00014BE62E084E00E94BE1861E083E00E94D3
:1007F000BE1860E083E00E94FA1884E00E94281985
:100800007C0161E083E00E94FA1884E00E942819CC
:100810008C0160E084E00E94BE1860E083E00E94EA
:10082000BE18EF2831F48FEF012B09F082E080939E
:100830007A0180917A01811149C083E080937E0022
:1008400010927B0088B1836088B981EC80937C0032
:1008500086ED80937A0080917A0086FDFCCF20910E
:1008600078008091790090E0982F8827820F911D61
:10087000909379018093780188B18C7F88B987EC57
:1008800080937C0086ED80937A0080917A0086FDCB
:10089000FCCF209178008091790090E0982F8827F4
:1008A000820F911D909379018093780188B188B966
:1008B00010927E008091780190917901815293404D
:1008C000873C910518F481E080937A0126E040E9A5
:1008D00050ED63E070E083E394E00E942B1A0E94E5
:1008E000AF0286E090E00E94AD028093050185E0B2
:1008F00090E00E94AD028093060183E090E00E94A8
:10090000AD02082F80930B0184E090E00E94AD02BD
:100910008093DF020F3F41F466E083E090E00E94A5
:10092000990286E080930B018091DF028F3F39F4BA
:1009300060E084E090E00E9499021092DF0281E082
:100940000E942E0380917A01EE24E394823029F0F4
:10095000E12C07E026E0813011F001E020E041E0E9
:10096000811101C040E060E875E280E090E00E9403
:10097000C40E81E00E94F313809105010E94F013E0
:10098000809106010E94ED138091DA020E94EA1321
:1009900080910701909108010E94A81060E08BED02
:1009A00092E00E94BE0E60E873E083E394E01F9142
:1009B0000F91FF90EF900C94AB1B7F936F9322E30A
:1009C00031E03F932F939F938F930E94321E0F909D
:1009D0000F900F900F900F900F9008957F936F934B
:1009E00025E331E03F932F939F938F930E94321E14
:1009F0000F900F900F900F900F900F900895FF920F
:100A00000F931F93CF93DF932091770121112BC078
:100A1000062F192FF82E63E773E083E394E00E941A
:100A2000741BCF2DD12F0C0F1D2F111D0C171D075F
:100A300089F0F9908FE08F1528F060E383E394E06C
:100A40000E94A01B40E150E06F2D83E394E00E94E0
:100A50007C1CECCF83E394E0DF91CF911F910F9149
:100A6000FF900C94A71BDF91CF911F910F91FF90E6
:100A700008950C94E0162F923F924F925F926F92DE
:100A80007F928F929F92AF92BF92CF92DF92EF921E
:100A9000FF920F931F93CF93DF93CDB7DEB7669787
:100AA0000FB6F894DEBF0FBECDBF90917A019230A1
:100AB00049F480917701813009F45DC038F18230CA
:100AC00009F463C080917701811147C783E394E003
:100AD0000E946B199C0197FD40C790917B01E091AA
:100AE0000301F09104012A30310509F414C7963945
:100AF00008F014C7AF014F5F5F4F5093040140935C
:100B0000030120839F5F90937B01DCCF1C9918C069
:100B100081E08093770161E08BED92E00E94B80E56
:100B200060E08BED92E00E94BE0E69E371E083E32A
:100B300094E00E94BD1B83E394E00E94871AC2CF19
:100B40001D99C0CF9093770160E08BED92E00E94F9
:100B5000B80E61E08BED92E00E94BE0E69E371E099
:100B600083E394E00E94BD1B6AE070E080E090E0C7
:100B70000E943418E0CF1D99A5CF9093770161E0D2
:100B80008BED92E00E94BE0E9DCF1D9B9BCF1092DD
:100B900077012FE332E03093040120930301109298
:100BA0007B01109272018093000126E040E950ED34
:100BB00063E070E083E394E00E942B1A60E08BED29
:100BC00092E00E94BE0E61E08BED92E00E94B80EB2
:100BD00081E00E942E0376CF81110DC080917701B4
:100BE000811106C06EE373E083E394E00E94AB1BC7
:100BF00081E08093720110920001A7C610829923B0
:100C000061F0A92FB0E0A25CBD4F8C918D3029F42A
:100C1000915090937B013197108280910001823036
:100C200051F3813029F4809172018111E4CFE0CF3A
:100C300084E492E0909304018093030144E050E047
:100C40006AE471E08FE392E00E94241E6C01892B1C
:100C500009F07BC680914302873509F495C10CF0F9
:100C600066C08B3409F42AC214F58A3209F46DC6C1
:100C7000853409F4B5C0882309F467C680917701EB
:100C8000811106C060EB71E083E394E00E94741B65
:100C900080917701811159C660910301709104011F
:100CA0006150710983E394E00E94BD1B4EC68435F8
:100CB00009F4E5C094F58F3409F78091770181112B
:100CC00006C061E972E083E394E00E94741B67E070
:100CD00071E080910301909104010E94DD0401976D
:100CE00099F480910701909108010E94A8108091C9
:100CF0007701811106C069E872E083E394E00E9405
:100D0000741B89E0809374018091770181111DC665
:100D10006091070170910801F2C0853509F4F6C0B1
:100D2000863509F0ABCF80E00E942E030EC68437D3
:100D300009F4A5C00CF048C0853609F451C0ECF5A3
:100D4000883509F09BCF80917701811106C069E554
:100D500072E083E394E00E94741BBE016B5E7F4FE0
:100D600080910301909104010E94DD040197E1F458
:100D70008D89809305018D3418F08CE480930501F2
:100D8000809105010E94F01380917701811106C0C6
:100D900061E572E083E394E00E94741B60910501B9
:100DA00086E090E00E949902809177018111CDC583
:100DB0004AE050E0609105015DC08B3609F47EC1C8
:100DC0008F3609F47ACF5ACF863709F4ACCF0CF4BA
:100DD0009DC0873709F4D8C0883709F4B4CF4ECF07
:100DE00080917701811106C062EF72E083E394E0A5
:100DF0000E94741BBE016B5E7F4F80910301909136
:100E000004010E94EE040197B1F48D898F778093DD
:100E100006010E94ED1380917701811106C06AEEF0
:100E200072E083E394E00E94741B6091060185E008
:100E300090E00E94990280917701811106C06FE4D1
:100E400071E083E394E00E94981B80917701909178
:100E50000601903138F4811105C060E383E394E02A
:100E60000E94A01B8091770140E150E06091060153
:100E700081116BC583E394E00E94831C66C5809159
:100E80007701811106C061EE72E083E394E00E9475
:100E9000741B69E071E080910301909104010E944C
:100EA000DD04019721F580917701209109013091AE
:100EB0000A012230310570F422E030E030930A015B
:100EC00020930901811110C069EA72E083E394E084
:100ED0000E94741B80917701811106C061EA72E063
:100EE00083E394E00E94741B89E0809374018091F5
:100EF00077016091090170910A01811126C54AE0CC
:100F000050E083E394E00E949B1C1FC58091770111
:100F1000811106C067E772E083E394E00E94741BCE
:100F2000BE016B5E7F4F80910301909104010E948E
:100F3000DD040197C9F48D898093DA0299E09093DA
:100F40007401823018F081E08093DA028091DA0235
:100F50000E94EA1380917701811112C06FE672E05E
:100F600083E394E00E94741B80917701811108C093
:100F70004AE050E06091DA0283E394E00E94831C2F
:100F800088EC80930201E1C480917701811106C051
:100F900065E472E083E394E00E94741B0EEF11E0BD
:100FA0007E0133E1E30EF11C5E0181E1A80EB11C6C
:100FB00062E5862E61E0962EFF92EF92BF92AF928D
:100FC0009F928F92809104018F93809103018F9360
:100FD0000E94321E0FB6F894DEBF0FBECDBF019740
:100FE00091F529893A89FFEFCF1ADF0AF801219399
:100FF0008F0180910301909104014B895C89840FDA
:10100000951F90930401809303012031310554F41E
:1010100080917701811106C068E571E083E394E077
:101020000E94981B80917701811108C069897A8993
:1010300040E150E083E394E00E94681C21E4C21682
:10104000D10409F0B9CF80917701811104C083E305
:1010500094E00E94A71B0E94AD108823E1F0C11408
:10106000D10471F02091090130910A01E12C00E0D6
:101070004C2D6EEF71E08BED92E00E947D1765C400
:1010800080917701811161C464E272E083E394E0AE
:101090000E94AB1B5AC480917701811106C063EE98
:1010A00071E083E394E00E94AB1B8091DC028F3FF0
:1010B00009F44BC48F5F8093DC0247C480917701B1
:1010C000811106C06BEC71E083E394E00E94AB1BDE
:1010D000E0917501F0917601099537C49091010175
:1010E00080917701992309F4F5C09A3009F0E5C0A1
:1010F00029813A81232B09F0E0C06DE471E0882357
:1011000009F4E1C080917701811107C040E150E00E
:10111000632D83E394E00E94831C80910101815040
:1011200080930101809174018530E8F1109274017F
:101130001092FE011092FF018EE080930002109247
:10114000010289E0809302028EE280930302809183
:101150007A018093040280910B01809305028091B3
:10116000DF02809306028091DA02809307028CEFFF
:10117000809308028091090190910A0190930902DD
:1011800080930A02809107019091080190930B02CD
:1011900080930C028091D90280930D0260E18EEF62
:1011A00091E00E94FF0480917301853008F46CC0C7
:1011B000109273011092FE011092FF018FE0809354
:1011C00000028091DE02809301028091DD02809313
:1011D00002028091060180930302809105018093B1
:1011E0000402E5E0F2E0119222E0EF30F207D9F7D5
:1011F00010920D0210920E0270920F026092100275
:10120000509211024092120280917A018823B9F122
:10121000CE0101966C01FE0139967F018E01055FBA
:101220001F4F9E012B5F3F4FAE01435F5F4FBE01DB
:10123000615F7F4F8BED92E00E94580E6D817E8141
:101240008F8198850E94ED1C2DE434E341E558E33D
:101250000E947B1D0E94BE1C645E60931302698124
:101260007A818B819C810E94ED1C29E431E147E168
:1012700057E30E947B1D0E94BE1C6093140267E12D
:101280008EEF91E00E94FF0466960FB6F894DEBFE1
:101290000FBECDBFDF91CF911F910F91FF90EF90C7
:1012A000DF90CF90BF90AF909F908F907F906F9086
:1012B0005F904F903F902F900895332049F0811117
:1012C00021CF6FE171E083E394E00E94741B1ACF99
:1012D000109201019091DA02992309F4AFC0909124
:1012E000E802911105C090912A03903F09F4A6C02D
:1012F00090910201955090930201332009F47AC035
:101300006CE171E0882309F479C08091BD018031DE
:1013100048F480917701811105C060E383E394E094
:101320000E94A01B80917701811108C040E150E02C
:101330006091BD0183E394E00E947C1C8091BE011A
:10134000803148F480917701811105C060E383E327
:1013500094E00E94A01B80917701811108C040E1B8
:1013600050E06091BE0183E394E00E947C1C809178
:10137000BF01803148F480917701811105C060E39D
:1013800083E394E00E94A01B80917701811108C043
:1013900040E150E06091BF0183E394E00E947C1C37
:1013A00080917701811105C060E283E394E00E949F
:1013B000A01B80912A03F12CE12C803F19F0E090D2
:1013C000E802F12CD701AB5EBC4FEC918091770124
:1013D000E75FE93008F065C1F0E0EF50F64F0C949C
:1013E0001E1E4C0B250B470B3D0B330B030A420B08
:1013F000380B2E0B811189CF69E171E083E394E012
:101400000E94741B82CF60E171E0882309F421C13E
:10141000FFEFEF1AFF0A26E1E216F10411F4F12CB6
:10142000E12C8091E8028E151F0461F6809177010E
:10143000811104C083E394E00E94A71B8091020104
:101440008F5F893C08F03DC28093020110922D030A
:1014500090917701332009F453C24114510461047F
:10146000710449F08091DE028F3F29F08F5F8093F5
:10147000DE023092DD02911110C063EA70E083E376
:1014800094E00E94741B80917701811106C06DE980
:1014900070E083E394E00E94741B89819A8180311B
:1014A000974248F480917701811105C060E283E39F
:1014B00094E00E94A01B89819A8120917701883E47
:1014C000E3E09E0708F000C2211105C060E383E35A
:1014D00094E00E94A01B80917701811106C06BE906
:1014E00070E083E394E00E94741B89819A818436C2
:1014F000910548F480917701811105C060E383E391
:1015000094E00E94A01B89819A810A9748F48091F7
:101510007701811105C060E383E394E00E94A01B82
:1015200080917701811108C069817A814AE050E099
:1015300083E394E00E94951C80917701811106C09D
:1015400068E970E083E394E00E94741B8DEBE82E61
:1015500081E0F82E0CE711E08091770198012C577B
:101560003140281539050CF0C4C16801F80190819B
:1015700090FF08C0811106C063E970E083E394E046
:101580000E94741BF801808181FF0AC0809177015D
:10159000811106C06EE870E083E394E00E94741B42
:1015A000F801808185FF0AC080917701811106C012
:1015B00069E870E083E394E00E94741BF801808185
:1015C00082FF0AC080917701811106C064E870E053
:1015D00083E394E00E94741BF701B1907F01FFE068
:1015E000FB1548F080917701811105C060E383E32A
:1015F00094E00E94A01B80917701811107C040E117
:1016000050E06B2D83E394E00E947C1CF801808104
:1016100083FF0AC080917701811106C06FE770E0F7
:1016200083E394E00E94741B0F5F1F4FF6018081DB
:1016300084FF92CF8091770181118ECF64E770E0B3
:1016400083E394E00E94741B87CF8111E1CE67E0B1
:1016500071E083E394E00E94741BDACE6EEF70E0D9
:101660008111D6CEF6CF65EF70E08111D1CEF1CFEA
:101670006CEE70E08111CCCEECCF63EE70E08111A6
:10168000C7CEE7CF6AED70E08111C2CEE2CF61ED47
:1016900070E08111BDCEDDCF68EC70E08111B8CE75
:1016A000D8CF1C91107E0C910F716701CC0CDD1C02
:1016B000B1104BC0103439F4811105C060E283E3EE
:1016C00094E00E94A01BF601E751FD4FA080B1807D
:1016D0008091700190917101A81AB90A23E0B69423
:1016E000A7942A95E1F72AE0A216B10498F4809114
:1016F0007701811105C060E283E394E00E94A01BA2
:1017000080917701811121C060E283E394E00E941F
:10171000A01B04C034E6A316B10490F380917701B6
:10172000811113C04AE050E0B50183E394E00E94C8
:10173000951C80917701103409F46CC1811105C0AA
:101740006AE383E394E00E94A01BF601E751FD4F9A
:1017500080819181909371018093700180917701D4
:101760001036E1F1A0F4112359F1103409F45BC1F2
:10177000882309F489C0103809F48FC008F0C5C067
:10178000103409F457C1103609F071C03EC0103A48
:1017900021F0103C11F0103859F70A3008F04BC016
:1017A000023008F46BC081114DC0E02FE250FF0BF6
:1017B000BF014AE050E083E394E00E94681C4EC001
:1017C000811105C06FE383E394E00E94A01B809128
:1017D000770166EB70E081116BC06EC0033140F49D
:1017E0000330D0F4013070F481110FC060E205C005
:1017F0000531D0F760E5811108C083E394E00E94D1
:10180000A01B03C063E58823C1F38091770160EBDF
:1018100070E081114DC050C08111F7CF802F8350EF
:10182000990BBC01759567954AE050E083E394E01D
:101830000E94681CEACF0A3051F00B3019F565E4BC
:10184000882341F0103A81F1103C91F5F3C060E536
:101850008111F8CF83E394E00E94A01B1036A9F217
:10186000A8F4112309F4B3CF103409F4E3C0809134
:10187000770181111DC066EA70E01EC08111E2CFC0
:1018800063E5E8CF8111DECF60E2E4CF103A61F08A
:10189000103C09F4CFC0103851F7809177016AEB02
:1018A00070E0811105C008C080917701882311F094
:1018B000B12CAECD64EC70E083E394E00E94741B25
:1018C000F7CF20920201C2CD21110AC068EE73E069
:1018D0000E94E81D4AE050E083E394E00E94951CDA
:1018E00089819A8168EE73E00E94E81D9A8389835A
:1018F000F2CD811159C083E394E00E94A71B54C02C
:101900009111CBCD60EA70E0BACD103A89F2103C6B
:1019100009F0ADCF8FC0963909F070C931971082A8
:10192000809172012A30310509F456C981110AC02B
:1019300080917701811106C06AE573E083E394E04A
:101940000E94AB1B81E0809300018FE392E09093B3
:1019500004018093030110927B018BED92E00E94C1
:10196000BC172B013C018091D5029091D602A09129
:10197000D702B091D80284159505A605B70594F451
:10198000809174018F5F80937401809173018F5FE8
:10199000809373014092D5025092D6026092D70292
:1019A0007092D80258EC252E8BED92E00E94C6165C
:1019B000B82E882309F4B6CBC12CE12C01E42CE726
:1019C00031E0AE014F5F5F4F6DEB71E08BED92E068
:1019D0000E94F8164C01312C823491057CF08091E4
:1019E0007701811106C06AE871E083E394E00E9408
:1019F000AB1B41E4842E912C33243A94ECE7F1E0C4
:101A0000CF018C579140881599050CF067CB8191D7
:101A1000382AF6CFF601E751FD4F2081318130930E
:101A2000710120937001811105C060E283E394E0AD
:101A30000E94A01B809177016AEA70E0811138CF83
:101A40003BCF1F920F920FB60F921124CF92DF92CD
:101A5000EF92FF922F933F934F935F936F937F93F8
:101A60008F939F93AF93BF938091780020917900DB
:101A700030E0322F2227820F932F911DB0E0A0E09B
:101A800020911101222309F493C010921101209199
:101A9000260420937C0020911804309119042F5FB4
:101AA0003F4F309319042093180440911204509131
:101AB00013046091140470911504840F951FA61FE0
:101AC000B71F8093120490931304A0931404B0934F
:101AD0001504A901542F44275295507F452B09F036
:101AE00051C040910E0450910F0460911004709108
:101AF0001104480F591F6A1F7B1F40930E04509317
:101B00000F046093100470931104C0901401D090DE
:101B10001501F12CE12C8C159D05AE05BF0520F4B7
:101B20009093150180931401C0902404D090250453
:101B3000F12CE12CC816D906EA06FB0620F4909396
:101B4000250480932404109212041092130410921E
:101B5000140410921504A4E0220F331FAA95E1F794
:101B6000232B81F44093200450932104609322049A
:101B70007093230410920E0410920F04109210041C
:101B8000109211048EED80937A00BF91AF919F91D6
:101B90008F917F916F915F914F913F912F91FF9026
:101BA000EF90DF90CF900F900FBE0F901F90189581
:101BB00021E0209311012091270420937C002091A3
:101BC0001604309117042F5F3F4F30931704209372
:101BD000160440910A0450910B0460910C0470911A
:101BE0000D04840F951FA61FB71F80930A049093BE
:101BF0000B04A0930C04B0930D04A901542F4427A7
:101C00005295507F452B09F0BDCF4091060450916D
:101C100007046091080470910904480F591F6A1F56
:101C20007B1F40930604509307046093080470934D
:101C30000904C0901201D0901301F12CE12C8C15F5
:101C40009D05AE05BF0520F490931301809312010A
:101C5000C0901E04D0901F04F12CE12CC816D906A8
:101C6000EA06FB0620F490931F0480931E04109252
:101C70000A0410920B0410920C0410920D0484E0DC
:101C8000220F331F8A95E1F7232B09F07BCF409376
:101C90001A0450931B0460931C0470931D0410924B
:101CA00006041092070410920804109209046ACFE7
:101CB000CF92DF92EF92FF920F931F9380912904AE
:101CC000882309F44EC086E880937A00809114013D
:101CD00090911501FB019183808380912404909160
:101CE0002504FA019183808380912004909121043E
:101CF000A0912204B0912304F90180839183A283EF
:101D0000B3838091120190911301F8019183808334
:101D100080911E0490911F04F7019183808380912C
:101D20001A0490911B04A0911C04B0911D04F601AB
:101D300080839183A283B38380EF9FE39093150107
:101D4000809314011092250410922404909313019F
:101D50008093120110921F0410921E048EE880934B
:101D60007A001F910F91FF90EF90DF90CF90089530
:101D7000662311F0429A089542980895662311F05F
:101D80005B9A08955B9808958F929F92AF92BF924D
:101D9000EF920F93CF93DF934B015C01D42FC22FAF
:101DA00096958795779567957E5E85489F4FA501A7
:101DB00094010E94FC1D3093050420930404B90192
:101DC00076956795CB01820F931F909303048093C0
:101DD0000204C901F3E096958795FA95E1F7860F1D
:101DE000971F90930104809300045695479537956B
:101DF00027953093FF032093FE03C901880F991F95
:101E0000280F391F3093FD032093FC0361E082E02B
:101E10000E94BE1861E086E00E94BE1861E085E085
:101E20000E94BE1861E083E00E94BE18E092280480
:101E3000429A80912804882309F4A4C05E98809176
:101E40002804882309F4A0C05D985B9A62E088E0CA
:101E50000E94BE1861E089E00E94FA1861E089E002
:101E60000E94BE1810923C0310923B031092FB0399
:101E70001092F6038FEF8093F5031092F403109203
:101E80008F0310928E031092890310928803109290
:101E90003A031092390382E084BD94E095BD99EF36
:101EA00097BD1092340310923503109236031092AE
:101EB00037031092300310923103109232031092C4
:101EC000330316BC21E023BD85BB80936E00809355
:101ED000B00023E02093B1009093B30083BD109233
:101EE000B20010923C0310923B0387BB80937000BA
:101EF00010926F001092800081E8809381008091A1
:101F000081008F7B8093810080918000806C809322
:101F100080008091820080688093820080E286BB8E
:101F200080916F00806280936F00D0932904DD233D
:101F300001F18C2F806C80932704802F806C80931C
:101F4000260421E030E0C90101C0880FCA95EAF7F4
:101F500001C0220F0A95EAF7822B8F7380937E00CF
:101F60008091270480937C0010927B008EED8093FB
:101F70007A00DF91CF910F91EF90BF90AF909F903B
:101F80008F9008955E9A5BCF5D9A5FCF1F920F92FC
:101F90000FB60F9211248F939F93AF93BF938091AD
:101FA000300390913103A0913203B091330308962E
:101FB000A11DB11D8093300390933103A093320390
:101FC000B0933303809138038F5F809338038D374C
:101FD000A8F0109238038091340390913503A091BA
:101FE0003603B09137030196A11DB11D80933403D0
:101FF00090933503A0933603B0933703BF91AF910D
:102000009F918F910F900FBE0F901F9018951F9268
:102010000F920FB60F9211242F933F938F939F939C
:1020200080913B0390913C03019649F080913B03E2
:1020300090913C03019690933C0380933B038091E5
:102040008F03833609F06FC020913B0330913C032E
:102050008091390390913A0328173907C1F02091F4
:102060003B0330913C038091390390913A03281748
:10207000390708F458C020913B0330913C0380910C
:102080000F01909110012817390708F44CC081E026
:1020900080938F032091FC033091FD0380912E03E8
:1020A000882321F080912D0391E0811190E090939D
:1020B0002F0380912F03882351F081E080932D031B
:1020C0001092E80280EF80932A0310922C039091E3
:1020D0006F009F7D90936F0090916F009B7F909316
:1020E0006F00109270008091840090918500820FA3
:1020F000931F9093890080938800809180008F7B4C
:10210000806880938000809181008F7B8093810024
:10211000B19A80916F00826080936F008091280453
:10212000882351F05D989F918F913F912F910F904F
:102130000FBE0F901F9018955D9AF5CF82309105D4
:1021400010F482E090E09093E7028093E602089515
:102150009093100180930F0108952091880390912E
:10216000890381E0291380E00895909189039F5F9E
:10217000993108F090E0209188032917E1F36FB7B7
:10218000F89420918F034091E6025091E7022223B8
:10219000A9F0292F30E0F901E159FC4F8083220F8B
:1021A000331FF901E35CFC4F518340831092E70237
:1021B0001092E602909389036FBF089580938D0378
:1021C00080938B0310928A031092E5021092E4022E
:1021D00083E680938F0350933A0340933903109220
:1021E000E7021092E602E8CF1F920F920FB60F920D
:1021F00011242F933F934F935F936F937F938F930C
:102200009F93EF93FF9380918F03409184005091AF
:10221000850060918800709189005B98843108F096
:10222000AFC12091FE033091FF03260F371F30937B
:1022300089002093880093B1917080FFE8C02091BD
:102240008000206C209380002091810020642093E6
:102250008100813009F05EC020913B0330913C0346
:102260003093E3022093E20210927000911192C029
:102270001092E40293B19170B59B59C120918600F0
:102280003091870040E246BB992309F432C1909116
:102290002F03992359F190912B03911104C0909130
:1022A0002C03911123C0E091E802F0E0EE0FFF1F34
:1022B000E751FD4F31832083E091E802F0E0EB5ECF
:1022C000FC4F982F906690839091E8029F5F9093C7
:1022D000E802963111F41092E80290912C039923B0
:1022E00029F090912B03915090932B0380938E03B0
:1022F0008F5F80938F03FF91EF919F918F917F91DB
:102300006F915F914F913F912F910F900FBE0F9062
:102310001F901895833169F422E023BD1092B2001A
:1023200061E070E070933C0360933B0327BB209314
:10233000700020918C03291709F49CCF9091E4023E
:1023400092609093E40290912F03992309F492CF25
:1023500090912B03911104C090912C0391118ACF7D
:1023600090912C03911106C091E090932C039BE077
:1023700090932B03E091E802F0E0EE0FFF1FE7518E
:10238000FD4F51834083E091E802F0E0EB5EFC4FAB
:102390009CEF28C08093E40290912F03992309F4C5
:1023A00069CF90912B03911104C090912C0391114E
:1023B00061CF90912C03911106C091E090932C0372
:1023C0009BE090932B03E091E802F0E0EE0FFF1FFB
:1023D000E751FD4F51834083E091E802F0E0EB5E6E
:1023E000FC4F9FEF90839091E8029F5F9093E802EB
:1023F000963111F41092E80290912C03992309F47C
:1024000039CF90912B03915090932B0333CF82318E
:1024100008F05FC020918D03622F617020FD0BC01A
:10242000209180002F7B20682093800020918100E4
:102430002F7B2093810020918A03262720938A03F3
:1024400020918D0330E03595279520938D039111D0
:102450003DC09091E40290629093E40290912F032A
:102460009923A1F190912B03911104C090912C0319
:1024700091112CC090912C03911106C091E0909382
:102480002C039BE090932B03E091E802F0E0EE0F29
:10249000FF1FE751FD4F51834083E091E802F0E0D8
:1024A000EB5EFC4F9EEF90839091E8029F5F9093CC
:1024B000E802963111F41092E80290912C039923CE
:1024C00029F090912B03915090932B0360938C03F0
:1024D000D1CE60918A036111BACF209180002F7B09
:1024E000206820938000209181002F7B2093810021
:1024F000AECF90912F03992309F4F8CE90912B033E
:10250000911104C090912C039111F0CEE091E8025A
:10251000F0E0EE0FFF1FE751FD4F31832083E09184
:10252000E802F0E0EB5EFC4F982F9064CCCE911166
:10253000DDCE90912F03992309F4D8CE90912B03EF
:10254000911104C090912C039111D0CE90912C0345
:10255000911106C091E090932C039BE090932B0384
:10256000E091E802F0E0EE0FFF1FE751FD4F5183CD
:102570004083E091E802F0E0EB5EFC4F97EFA3CEE2
:1025800093B19170B59BC3C0409186005091870074
:1025900030E236BB992309F4A2C090912F0399230E
:1025A00051F190912B03911104C090912C03911142
:1025B00022C0E091E802F0E0EE0FFF1FE751FD4F6F
:1025C000518340838066E091E802F0E0EB5EFC4FCF
:1025D00080838091E8028F5F8093E802863111F456
:1025E0001092E80280912C03882329F080912B031C
:1025F000815080932B038091E402882329F05B9A19
:10260000809189038093880380910E01882339F19A
:10261000E091F60321E02E0F293108F020E08091AF
:10262000F403821709F49CC0822F90E030918B0351
:10263000FC01E552FC4F30834091E2025091E302ED
:10264000FC01EE0FFF1FE057FC4F51834083309198
:10265000E4028E539C4FFC0130832093F60390914B
:10266000890380918803981709F4AAC08F5F893184
:1026700008F080E08093880390E0FC01E159FC4F72
:10268000308130938D0330938B03880F991FFC01A9
:10269000E35CFC4F808191811092E50210928A03E5
:1026A0008230910508F067C0809188009091890080
:1026B0002091FC033091FD03820F931F90938900BA
:1026C00080938800809180008F7B80688093800059
:1026D000809181008F7B8093810081E00ACE909170
:1026E0002F03992309F487CF90912B03911104C0F4
:1026F00090912C0391117FCFE091E802F0E0EE0F72
:10270000FF1FE751FD4F5183408380645CCF9111DF
:1027100072CF80912F03882309F46DCF80912B0312
:10272000811104C080912C03811165CF80912C030D
:10273000811106C081E080932C038BE080932B03F2
:10274000E091E802F0E0EE0FFF1FE751FD4F5183EB
:102750004083E091E802F0E0EB5EFC4F87EF38CF7A
:102760002091F603E22FF0E0EE53FC4F8081886069
:1027700080835B9A74CF33E630938F0390933A0350
:102780008093390380916F008D7F80936F008091DB
:1027900081008F7B8093810080E286BB80916F00F7
:1027A000806280936F00E22FF0E0EE53FC4F808157
:1027B0008068808380912804882329F05D9A9BCDCE
:1027C00010928F03DFCF5D9896CD80918F0381119A
:1027D000FCCF089580932E03089580930C010895F3
:1027E00080930D01089580930E0108951F920F921A
:1027F0000FB60F9211242F933F934F935F936F93D4
:102800007F938F939F93EF93FF9320918600309156
:10281000870080918400909185008091FB03811155
:10282000D0C090912804992309F451C05E989091EA
:102830002804992309F44DC05D9A5B989091F503A3
:102840009F3F39F09091F5039093F6039FEF90939B
:10285000F50340913B0350913C035093E3024093B6
:10286000E202109270004091020450910304420F62
:10287000531F5093F8034093F70392E09093FB03A8
:102880001092F90350938B0040938A0094E096BB1A
:1028900090916F00946090936F008111A9C0909106
:1028A0002D039111A5C090912E0390932F03909129
:1028B0002F03992309F49CC091E090932D0310926B
:1028C000E80290EF90932A0310922C0391C05E9A35
:1028D000AECF5D98B2CF90912F03992351F1909193
:1028E0002B03911104C090912C03911122C0E0910F
:1028F000E802F0E0EE0FFF1FE751FD4F3183208328
:10290000806AE091E802F0E0EB5EFC4F808380910A
:10291000E8028F5F8093E802863111F41092E8029A
:1029200080912C03882329F080912B038150809380
:102930002B03FF91EF919F918F917F916F915F9109
:102940004F913F912F910F900FBE0F901F901895B0
:102950008A3009F04DC04091F7035091F80360911F
:10296000040470910504460F571F5093F8034093D9
:10297000F70350938B0040938A0094E096BB9BE052
:102980001DC04091FA0350E0559547954093FA03D6
:102990004091F7035091F80360910404709105048D
:1029A000460F571F5093F8034093F70350938B0043
:1029B00040938A0094E096BB91E0980F9093FB03BC
:1029C00017C04091E0025091E102B901641B750B00
:1029D00040910004509101046417750708F47BCFFF
:1029E0008A3008F0B5CF823060F6813009F426CF06
:1029F00090912F03992351F190912B03911104C0D1
:102A000090912C03911122C0E091E802F0E0EE0FCA
:102A1000FF1FE751FD4F31832083806CE091E80276
:102A2000F0E0EB5EFC4F80838091E8028F5F809343
:102A3000E802863111F41092E80280912C03882379
:102A400029F080912B03815080932B033093E10276
:102A50002093E0026ECF1F920F920FB60F921124B7
:102A60002F933F934F935F936F937F938F939F9396
:102A7000AF93BF93EF93FF9340918A0050918B00E7
:102A800020918400309185008091FB038A30B8F555
:102A9000823008F0F9C0813009F4C4C090912F034E
:102AA000992309F4DEC090912B03911104C09091F9
:102AB0002C039111D6C0E091E802F0E0EE0FFF1F69
:102AC000E751FD4F318320838068E091E802F0E018
:102AD000EB5EFC4F80838091E8028F5F8093E80279
:102AE000863111F41092E80280912C03882309F4B6
:102AF000B8C080912B03815080932B03B2C08A30E1
:102B000009F4E4C08B3051F660910D0170E06F5F05
:102B10007F4FA0910404B09105046A9FF0016B9F60
:102B2000F00D7A9FF00D11246091F7037091F80376
:102B30006E0F7F1F70938B0060938A0091E09093DB
:102B4000FB039091F6039F5F993108F090E060914C
:102B5000F403691709F4C1C0E92FF0E06091FA03AA
:102B6000DF01A552BC4F6C936091E2027091E302C9
:102B7000DF01AA0FBB1FA057BC4F11967C936E9329
:102B8000EE53FC4F10826091F9036623D9F1608106
:102B90006460608360912F036623A1F160912B0331
:102BA000611104C060912C0361112CC060912C0351
:102BB000611106C061E060932C036BE060932B030E
:102BC000E091E802F0E0EE0FFF1FE751FD4F518367
:102BD0004083E091E802F0E0EB5EFC4F4DEF408374
:102BE0004091E8024F5F4093E802463111F41092A1
:102BF000E80240912C03442329F040912B034150DB
:102C000040932B039093F50392E093BD1092B20092
:102C100041E050E050933C0340933B0397BB9093BB
:102C200070003CCF80916F008B7F80936F0010927B
:102C3000FB038091F5038F3F79F08091F50380933A
:102C4000F603E091F603F0E0EE53FC4F80818068DC
:102C500080838FEF8093F50380912804882391F07F
:102C60005E9AFF91EF91BF91AF919F918F917F916C
:102C70006F915F914F913F912F910F900FBE0F90E9
:102C80001F9018955E98EDCF9091FA0396959068F5
:102C90009093FA039091F90390589093F90391E07F
:102CA000980F9093FB034091F7035091F8036091C4
:102CB000040470910504460F571F5093F803409386
:102CC000F70350938B0040938A00E8CE9091F9036C
:102CD00090589093F9039BE0E4CFE091F603F0E085
:102CE000EE53FC4F9081986090835B9A9091F6032D
:102CF00089CF8091F603E091F4038E1761F0EF5FC6
:102D0000E93108F0E0E0F0E0EE0FFF1FE057FC4F84
:102D100080819181089590E080E008958091F6038C
:102D2000E091F4038E1749F0EF5FE93108F0E0E03D
:102D3000F0E0EE53FC4F8081089580E0089580918B
:102D4000F6039091F403891761F09F5F993108F0C1
:102D500090E0E92FF0E0E552FC4F80819093F4037E
:102D6000089580E008952091F6039091F4032917C7
:102D700028F081E0291309C080E007C030E0275E19
:102D80003F4F81E092171306B9F308952091F6039F
:102D90008091F403821769F08F5F893108F080E039
:102DA000E82FF0E0EE53FC4F908197FFF3CF81E0E6
:102DB000089580E008958091F4038093F6030895C8
:102DC000CF93DF93CFE6D0E088818B7F88838881A3
:102DD0008F7D88830E94DB160E94E51388818D7F9A
:102DE00088831092700010926E00DF91CF91089549
:102DF0002F923F924F925F926F927F928F929F920B
:102E0000AF92BF92CF92EF920F93CF93DF935C017B
:102E10003B012A014901C0E0202F2150330B14014E
:102E2000220E331EC5010E94B3168823D9F3C501B3
:102E30000E948E16D82F8114910449F080910C01C4
:102E4000C01730F5F401EC0FF11D8D238083C11103
:102E500006C0C5010E947916F20191838083C501E5
:102E60000E949F16D7FF1AC0EE2009F443C0C01776
:102E700050F5EC2FF0E0D301AE0FBF1F8C938C15F3
:102E800011F1E80DF91D8081806180835B9A1BC080
:102E9000982F9D23F1018081892BD8CFC01720F472
:102EA000F301EC0FF11D8083EE2069F098E02C2DEA
:102EB00030E035952795C826C0FE1AC0CE2CC22614
:102EC00086959150A1F7CF5FD7FFACCF8C2F90E0C4
:102ED000DF91CF910F91EF90CF90BF90AF909F90E7
:102EE0008F907F906F905F904F903F902F900895BC
:102EF000C22EE6CFC017A0F2E6CFCF92DF92EF92BC
:102F00000F931F93CF93DF93D62E172FC42EC90193
:102F10000E949E10CD2DD12FCC0EDD2ED11CCC16B3
:102F2000DD06B1F01991812F0E94B5100023B9F38D
:102F300028E08E2D90E095958795E126E0FE06C06D
:102F4000E02EE82616952150A1F7E9CFE82EFACF1A
:102F5000002351F08E2DDF91CF911F910F91EF90B3
:102F6000DF90CF900C94B510DF91CF911F910F910E
:102F7000EF90DF90CF900895609134037091350306
:102F8000809136039091370308951F920F920FB6E8
:102F90000F9211242F933F938F939F93AF93BF93DF
:102FA00080912F0490913004A0913104B0913204AB
:102FB00030912E0426E0230F2D3768F129E8230FE6
:102FC0000396A11DB11D20932E0480932F0490938E
:102FD0003004A0933104B093320480912A0490917C
:102FE0002B04A0912C04B0912D040196A11DB11DBC
:102FF00080932A0490932B04A0932C04B0932D0467
:10300000BF91AF919F918F913F912F910F900FBEE4
:103010000F901F9018950296A11DB11DD4CF3FB7F8
:10302000F89480912A0490912B04A0912C04B091E3
:103030002D0426B5A89B05C02F3F19F00196A11DB0
:10304000B11D3FBFBA2FA92F982F8827BC01CD01F2
:10305000620F711D811D911D43E0660F771F881F50
:10306000991F4A95D1F708958F929F92AF92BF9280
:10307000CF92DF92EF92FF926B017C010E940F18BA
:103080004B015C01C114D104E104F104E9F00E9498
:10309000BD1C0E940F18681979098A099B09683EAE
:1030A00073408105910570F321E0C21AD108E1084F
:1030B000F10888EE880E83E0981EA11CB11CC11493
:1030C000D104E104F10429F7FF90EF90DF90CF9055
:1030D000BF90AF909F908F900895789484B583604F
:1030E00084BD85B5836085BDEEE6F0E080818160BA
:1030F0008083E1E8F0E082E08083808181608083EA
:10310000E0E8F0E0808181608083E1EBF0E08081A5
:1031100084608083E0EBF0E080818160808386E8DA
:1031200080937A001092C1000895843081F028F4D1
:103130008230E9F08330F9F00895883071F08930F9
:1031400091F08530B9F4809180008F7D03C080912B
:1031500080008F778093800008958091B0008F77F2
:103160008093B00008958091B0008F7DF9CF84B531
:103170008F7784BD089584B58F7DFBCFCF93DF9388
:1031800090E0FC01E357FB4F24918C559B4FFC01D1
:1031900084918823C9F090E0880F991FFC01E153C6
:1031A000FB4FA591B491FC01EB53FB4FC591D4911A
:1031B00061110DC09FB7F8948C91209582238C9358
:1031C0008881282328839FBFDF91CF9108956230A3
:1031D00051F49FB7F8943C91822F809583238C9370
:1031E000E8812E2BEFCF8FB7F894EC912E2B2C93F8
:1031F0008FBFEACF1F93CF93DF93282F30E0F901E1
:10320000EA58FB4F8491F901E357FB4FD491F90140
:10321000EC55FB4FC491CC23A9F0162F81110E94CD
:103220009518EC2FF0E0EE0FFF1FEB53FB4FA5912D
:10323000B4918FB7F894EC91111108C0D095DE23AA
:10324000DC938FBFDF91CF911F910895DE2BF8CFD4
:10325000CF93DF93282F30E0F901EA58FB4F849198
:10326000F901E357FB4FD491F901EC55FB4FC491A1
:10327000CC23A1F081110E949518EC2FF0E0EE0F05
:10328000FF1FE554FB4FA591B491EC91ED2381E034
:1032900090E009F480E0DF91CF91089580E090E024
:1032A000FACFFC01918D228D892F90E0805C9F4F99
:1032B000821B91098F7399270895FC01918D828D4E
:1032C000981731F0828DE80FF11D858D90E00895FB
:1032D0008FEF9FEF0895FC01918D828D981761F01B
:1032E000A28DAE0FBF2FB11D5D968C91928D9F5F09
:1032F0009F73928F90E008958FEF9FEF0895FC01E8
:10330000538D448D252F30E0842F90E0821B930B4A
:10331000541710F0CF9608950197089581E09BE12E
:10332000892B49F080E090E0892B29F00E94011B55
:1033300081110C9400000895FC01A48DA80FB92FF1
:10334000B11DA35ABF4F2C91848D90E001968F73CD
:103350009927848FA689B7892C93A089B1898C91EC
:10336000837080648C93938D848D981306C002883B
:10337000F389E02D80818F7D80830895CF93DF9343
:10338000EC01888D8823B9F0AA89BB89E889F9897D
:103390008C9185FD03C0808186FD0DC00FB607FCB2
:1033A000F7CF8C9185FFF2CF808185FFEDCFCE01E5
:1033B0000E949C19E9CFDF91CF910895EF92FF927F
:1033C0000F931F93CF93DF93EC0181E0888F9B8D48
:1033D0008C8D98131AC0E889F989808185FF15C002
:1033E0009FB7F894EE89FF896083E889F989808125
:1033F0008370806480839FBF81E090E0DF91CF91F4
:103400001F910F91FF90EF900895F62E0B8D10E015
:103410000F5F1F4F0F731127E02E8C8D8E110CC084
:103420000FB607FCFACFE889F989808185FFF5CFCF
:10343000CE010E949C19F1CFEB8DEC0FFD2FF11DF9
:10344000E35AFF4FF0829FB7F8940B8FEA89FB890C
:1034500080818062CFCFCF92DF92EF92FF921F9355
:10346000CF93DF93EC016A017B01122F60E874E8CF
:103470008EE190E0A70196010E94FC1D21503109C8
:10348000410951095695479537952795E889F98956
:1034900082E08083211580E1380798F0E889F98976
:1034A000108260E472E48FE090E0A70196010E9430
:1034B000FC1D215031094109510956954795379511
:1034C0002795EC85FD853083EE85FF852083188E5A
:1034D000EC89FD891083EA89FB8980818061808382
:1034E000EA89FB89808188608083EA89FB89808101
:1034F00080688083EA89FB8980818F7D8083DF916A
:10350000CF911F91FF90EF90DF90CF900895CF93D0
:10351000DF93EC01E881F9810680F781E02D0995C0
:10352000EA89FB8980818F7E8083EA89FB8980819B
:10353000877F8083EA89FB8980818F778083EA890E
:10354000FB8980818F7D80838A8D898FDF91CF91E8
:1035500008951F920F920FB60F9211242F938F93FD
:103560009F93EF93FF93E0914304F0914404808193
:10357000E0914904F0914A0482FD1BC09081809142
:103580004C048F5F8F7320914D04821741F0E091BE
:103590004C04F0E0ED5CFB4F958F80934C04FF9161
:1035A000EF919F918F912F910F900FBE0F901F90D1
:1035B00018958081F4CF1F920F920FB60F921124AD
:1035C0002F933F934F935F936F937F938F939F932B
:1035D000AF93BF93EF93FF9383E394E00E949C1912
:1035E000FF91EF91BF91AF919F918F917F916F91DB
:1035F0005F914F913F912F910F900FBE0F901F90B1
:10360000189583E394E00E94511921E0892B09F475
:1036100020E0822F0895E3E3F4E01382128288EE23
:1036200093E0A0E0B0E084839583A683B7838EE522
:1036300091E09183808385EC90E09587848784EC8A
:1036400090E09787868780EC90E0918B808B81EC6F
:1036500090E0938B828B82EC90E0958B848B86EC50
:1036600090E0978B868B118E128E138E148E089598
:10367000AF92BF92CF92DF92EF92FF920F931F9380
:10368000CF93DF936C017B018B01040F151FEB01BE
:103690005E01AE18BF08C017D10759F06991D60175
:1036A000ED91FC910190F081E02DC6010995892BE7
:1036B00079F7C501DF91CF911F910F91FF90EF90A6
:1036C000DF90CF90BF90AF900895FB010190002054
:1036D000E9F73197AF01461B570BDC01ED91FC91E7
:1036E0000280F381E02D0994EF92FF920F931F93D4
:1036F000CF93DF938C017B01D0E0C0E0F701EC0FAA
:10370000FD1F6491662361F0D801ED91FC91019059
:10371000F081E02DC8010995892B11F02196EECF9B
:10372000CE01DF91CF911F910F91FF90EF900895FF
:103730006115710511F00C94651B90E080E008950F
:10374000DC01ED91FC910190F081E02D09946CE693
:1037500071E00C94651B0F931F93CF93DF93EC01E3
:103760000E94741B8C01CE010E94A71B800F911F29
:10377000DF91CF911F910F9108950F931F93CF93D6
:10378000DF938C01D0E0C0E06115710519F00E9453
:10379000651BEC01C8010E94A71B8C0F9D1FDF91C8
:1037A000CF911F910F9108958F929F92AF92BF92E8
:1037B000EF92FF920F931F93CF93DF93CDB7DEB7B6
:1037C000A1970FB6F894DEBF0FBECDBF7C01FA0102
:1037D000CB0119A2223008F42AE08E010F5D1F4FA1
:1037E000822E912CB12CA12CBF01A50194010E9425
:1037F000FC1DF901CA016A300CF5605DD8016E93B9
:103800008D01232B242B252B79F790E080E0109756
:1038100021F0BD01C7010E94651BA1960FB6F89467
:10382000DEBF0FBECDBFDF91CF911F910F91FF90F3
:10383000EF90BF90AF909F908F900895695CDECF1E
:10384000CF92DF92EF92FF920F931F93CF93DF936C
:103850002115310581F4DC01ED91FC910190F0819D
:10386000E02D642FDF91CF911F910F91FF90EF908A
:10387000DF90CF9009942A30310501F52AE077FFD7
:103880001DC06A017B01EC016DE20E94A01B8C014E
:1038900044275527BA014C195D096E097F092AE0B2
:1038A000CE010E94D41B800F911FDF91CF911F91F9
:1038B0000F91FF90EF90DF90CF900895DF91CF911F
:1038C0001F910F91FF90EF90DF90CF900C94D41B3D
:1038D0009A01AB01770F660B770B0C94201C211516
:1038E000310541F4DC01ED91FC910190F081E02D76
:1038F000642F09940C94D41B9A01462F50E070E079
:1039000060E00C946F1C0F931F93CF93DF93EC0137
:103910000E947C1C8C01CE010E94A71B800F911F6E
:10392000DF91CF911F910F9108959A01AB0170E043
:1039300060E00C946F1C0F931F93CF93DF93EC0107
:103940000E94951C8C01CE010E94A71B800F911F25
:10395000DF91CF911F910F91089508950E946D18E6
:103960000E94AD1C0E94E903CEE8D9E10E943B050C
:103970002097E1F30E948E19F9CF08950E945A1DF5
:1039800088F09F5798F0B92F9927B751B0F0E1F020
:10399000660F771F881F991F1AF0BA95C9F714C0D0
:1039A000B13091F00E94741DB1E008950C94741D23
:1039B000672F782F8827B85F39F0B93FCCF3869509
:1039C00077956795B395D9F73EF490958095709566
:1039D00061957F4F8F4F9F4F0895E89409C097FBE3
:1039E0003EF490958095709561957F4F8F4F9F4FD6
:1039F0009923A9F0F92F96E9BB279395F69587951A
:103A000077956795B795F111F8CFFAF4BB0F11F4DC
:103A100060FF1BC06F5F7F4F8F4F9F4F16C0882383
:103A200011F096E911C0772321F09EE8872F762FB9
:103A300005C0662371F096E8862F70E060E02AF0FA
:103A40009A95660F771F881FDAF7880F96958795E6
:103A500097F9089597F99F6780E870E060E008950E
:103A60009FEF80EC089500240A9416161706180696
:103A70000906089500240A94121613061406050672
:103A80000895092E0394000C11F4882352F0BB0F03
:103A900040F4BF2B11F460FF04C06F5F7F4F8F4F66
:103AA0009F4F089557FD9058440F551F59F05F3FA1
:103AB00071F04795880F97FB991F61F09F3F79F050
:103AC00087950895121613061406551FF2CF4695D2
:103AD000F1DF08C0161617061806991FF1CF869554
:103AE0007105610508940895E894BB276627772738
:103AF000CB0197F908950E948E1D0C94411D0E94E0
:103B0000331D38F00E943A1D20F0952311F00C94DB
:103B10002A1D0C94301D11240C94751D0E94521DF9
:103B200070F3959FC1F3950F50E0551F629FF00110
:103B3000729FBB27F00DB11D639FAA27F00DB11D29
:103B4000AA1F649F6627B00DA11D661F829F2227B2
:103B5000B00DA11D621F739FB00DA11D621F839F39
:103B6000A00D611D221F749F3327A00D611D231F0F
:103B7000849F600D211D822F762F6A2F11249F575D
:103B800050409AF0F1F088234AF0EE0FFF1FBB1F60
:103B9000661F771F881F91505040A9F79E3F51051F
:103BA00080F00C942A1D0C94751D5F3FE4F3983E41
:103BB000D4F3869577956795B795F795E7959F5FC9
:103BC000C1F7FE2B880F911D9695879597F908955B
:103BD000AA1BBB1B51E107C0AA1FBB1FA617B70733
:103BE00010F0A61BB70B881F991F5A95A9F780954F
:103BF0009095BC01CD010895A1E21A2EAA1BBB1B12
:103C0000FD010DC0AA1FBB1FEE1FFF1FA217B307A8
:103C1000E407F50720F0A21BB30BE40BF50B661FBE
:103C2000771F881F991F1A9469F760957095809582
:103C300090959B01AC01BD01CF010895EE0FFF1FD0
:103C40000590F491E02D0994FB01DC0141505040B6
:103C500030F08D910190801919F40020B9F7881B7C
:103C6000990B0895AEE0B0E0E8E3FEE10C946C211E
:103C700085E08C838B899C899A838983AE01495E18
:103C80005F4F6D897E89CE0101960E94D61F2E96C8
:103C9000E2E00C94882120FD09C0FC0123FD05C051
:103CA00022FF02C07383628351834083089544FDE1
:103CB00017C046FD1DC0DB01FC01AA0FBB1FEE1F94
:103CC000FF1F1094D1F76A0F7B1F8E1F9F1F660F77
:103CD000771F881F991F620F711D811D911D089507
:103CE00033E0660F771F881F991F3150D1F7F3CF4C
:103CF00034E0F7CF0F931F93CF93DF938C01C8016C
:103D00000E94EF20EC0197FD08C00E94DB20892B68
:103D1000B1F7B801CE010E942B21CE01DF91CF91E6
:103D20001F910F9108958F929F92AF92BF92EF9241
:103D3000FF920F931F93CF93DF938C01D62F7A01BD
:103D4000B22E0E94EF209C0133272B32310529F03F
:103D50002D323105A9F46894B7F8D15061F480E0B0
:103D6000DF91CF911F910F91FF90EF90BF90AF9097
:103D70009F908F900895C8010E94EF2097FDEFCF8C
:103D8000CB2DCD7F2B2D2073F9F48033E9F4AA24B9
:103D9000AA94AD0E89F0C8010E94EF2097FD0CC0D7
:103DA000282F2F7D283561F4C264D25029F0C80134
:103DB0000E94EF2097FF08C0812C912C54011BC05A
:103DC000B6FE2BC0C260DA2D812C912C540120ED5F
:103DD000280F283028F1C4FD09C02A3008F1C6FF99
:103DE00005C02F7D3FEE320F3630C8F0B8010E947B
:103DF0002B21C1FFB4CFC7FF08C0B094A09490940A
:103E00008094811C911CA11CB11C2C2FB501A40114
:103E1000C7010E944B1E81E0A3CFC261D4CF2750BF
:103E20004C2FC501B4010E94571E4B015C01C260BA
:103E3000D15009F3C8010E94EF2097FFC8CFD9CF16
:103E4000A0E2B0E0E6E2FFE10C9461215C01962E75
:103E50007A01CE0101966C0180E2F60111928A95F9
:103E6000E9F7F501B381890130E020E0712C812C64
:103E7000A0E041E050E0F801B3FD8591B3FF8191EE
:103E8000982F8F01811107C010E000E0C801A096B3
:103E9000EDE00C947D218E3519F42115310541F1A9
:103EA000A21713064CF48D3549F18D3229F4811097
:103EB00006C0882483941DC0882009F464C0E92FBB
:103EC000E695E695E695EC0DFD2DF11D892F8770A1
:103ED000BA0101C0660F8A95EAF78081682B60837A
:103EE000791651F0971510F49F5FE9CF9150E7CF05
:103EF000A1E02F5F3F4FBFCF812CFBCF882019F06F
:103F00008E8180628E83AA2359F0F6019E012F5D77
:103F10003F4F8081809580833196E217F307C9F780
:103F200088248394C5010E94EF2097FD16C0E82FD6
:103F3000E695E695E695EC0DFD2DF11D208130E02E
:103F4000AC014770552702C0359527954A95E2F791
:103F500020FD06C0B5010E942B21882069F094CF76
:103F6000E114F10429F0F7018083C70101967C0177
:103F70009A94812C9110D6CFE114F10409F486CFE4
:103F8000F701108283CFE82FE695E695E695EC0DD4
:103F9000FD2DF11D982F9770BA0101C0660F9A95FB
:103FA000EAF79081692B6083782EA3CFB0E0A0E080
:103FB000ECEDFFE10C945F216C01EB015A01FC0177
:103FC00017821682512CF601E380FE01E3FC8591F5
:103FD000E3FE8191182FEF018823E9F090E00E9421
:103FE000DB20892B21F0C6010E947A1EECCF15320E
:103FF00041F4FE01E3FC1591E3FE1191EF0115324E
:1040000069F4C6010E94EF2097FD8EC01817D9F2FF
:10401000B6010E942B21852D90E08AC000E01A3263
:1040200031F4E3FC1591E3FE1191EF0101E0F12C75
:1040300020ED210F2A3048F101FF37C0FF2059F34E
:104040001836B1F11C3609F43DC0112321F3612F5C
:1040500070E088E690E00E94E420892BE1F2912C48
:10406000812C00FD06C0F50180809180C50102967B
:104070005C011E3679F5F6014681578170E060E0FB
:10408000202FC4010E944B1E9ECF02606F2D70E056
:1040900090E080E040E20E94571EF62EFE01E3FC15
:1040A0001591E3FE1191EF01C3CFFF24FA94C8CF1D
:1040B000FE01E3FC1591E3FE1191EF01183609F0C2
:1040C000C4CF08600460FE01E3FC1591E3FE11918A
:1040D000EF01BBCF1336C1F401FD02C0FF24F394FE
:1040E000C6010E94EF2097FD1FC08114910429F0A2
:1040F000F4018083C40101964C01FA94F110F0CFD1
:1041000000FD61CF53945FCF1B35B9F49E01A4012C
:104110006F2DC6010E94201FEC01892B89F7F60143
:104120008381807309F477CF8FEF9FEF511073CFA6
:10413000CDB7DEB7EFE00C947B21C6010E947A1E5A
:1041400097FDF2CF1F36A9F130F4143641F019363D
:1041500039F0006405C01337B9F01537D1F70062A4
:10416000202FA4016F2DC6010E94931E8111C8CF7C
:10417000D6CF8114910429F0F4016082C401019624
:104180004C01FA94FF2071F0C6010E94EF203C011F
:1041900097FD08C00E94DB20892B59F3B601C301AB
:1041A0000E942B218114910409F4AACFF4011082FA
:1041B000A7CF0061D5CF91110C944321803219F023
:1041C00089508550C8F70895FC010590061621F026
:1041D0000020D9F7C00108953197CF010895CF93FA
:1041E000DF93EC012B8120FF1AC026FF0CC02F7B30
:1041F0002B838E819F8101969F838E838A8190E09D
:10420000DF91CF91089522FF18C0E881F981808164
:10421000082E000C990B009729F420622B838FEF56
:104220009FEFEECF3196F983E8832E813F812F5F98
:104230003F4F3F832E839927E3CFEA85FB8509957E
:1042400097FFF3CF2B81019621F080E2822B8B83A5
:10425000E6CF80E1FBCFFB01238120FF11C026FDCB
:104260000FC08F3F980771F082832F7D20642383D6
:104270002681378121503109378326839927089574
:104280008FEF9FEF0895992788270895F999FECF1A
:1042900092BD81BDF89A992780B50895262FF99986
:1042A000FECF1FBA92BD81BD20BD0FB6F894FA9A19
:1042B000F99A0FBE019608952F923F924F925F9206
:1042C0006F927F928F929F92AF92BF92CF92DF9226
:1042D000EF92FF920F931F93CF93DF93CDB7DEB78B
:1042E000CA1BDB0B0FB6F894DEBF0FBECDBF09941F
:1042F0002A88398848885F846E847D848C849B8476
:10430000AA84B984C884DF80EE80FD800C811B8183
:10431000AA81B981CE0FD11D0FB6F894DEBF0FBEB2
:10432000CDBFED01089512E0CEE6D2E004C0FE015B
:104330000E941E1E2196CF36D107C9F7F894FFCFF1
:10434000020AC83F02097FC4093200067F0901C47E
:104350000901F03FF03F503150322D54002A2028FF
:10436000746F2062652069676E6F72656429002A28
:104370002000256400253478002A20506175736977
:104380006E672073657269616C0031503250003085
:104390007800253278256E00300000000000DE191C
:1043A000381B7F19BE1951196B195D190D0A0000D0
:00000001FF
