:100000000C94A1020C94C9020C94C9020C94C9026C
:100010000C94C9020C94C9020C94C9020C94850F6B
:100020000C94C9020C94C9020C94B1130C94AC103A
:100030000C94E6140C94C9020C94440F0C94C9025D
:100040000C94CA170C94C9020C94AE1A0C94E01AC2
:100050000C94C9020C94FF0C0C94C9020C94C902B4
:100060000C94C9020C94C9026364696E6F70737555
:1000700078585B00204353206572726F72003A4FCC
:10008000522D002D49433A002D50453A002D424350
:100090003A002D58583A002D53423A003A20002E8B
:1000A00000542000522000452000203F2000E28024
:1000B000BE5C5F005F2FE280BE005F5F5F00E2809A
:1000C000BEE280BEE280BE002D582D002020206CB4
:1000D0007720202000202020706520202000202074
:1000E0002050452020200020202062632020200076
:1000F0002020204243202020002020207362202046
:100100002000202020534220202000202020626553
:1001100020202000202020424520202000632000B5
:100120004320002A20536B697070696E6720696EE6
:10013000697469616C207061636B657420776974A0
:100140006820726561646572726F72203D2030783C
:10015000002A20416C7761797320736B6970706934
:100160006E67206669727374207061636B657420BA
:1001700069662064656C7461203D3D20302E2072DC
:100180006561646572726F72203D203078002A20AC
:100190005265636569766564207061636B65742080
:1001A0006C6F6E676572207468616E2052425F5397
:1001B000495A45002A20436F6D6D616E64206E6F51
:1001C0007420756E64657273746F6F643A20002AD0
:1001D00020526573657474696E672041546D65675C
:1001E00061202E2E2E2E002A205265667573696EB0
:1001F0006720746F20777269746520656D707479FB
:10020000207061636B6574002A20536368656475B0
:100210006C696E672077726974653A20002A2052F3
:1002200065667573696E6720746F2077726974658F
:10023000207061636B6574207768696C65207072EB
:100240006576696F7573207061636B657420776183
:10025000736E27742066696E6973686564007365E0
:100260007420746F20002A20416C6C6F7720286204
:10027000697473207061757365292000736574203B
:10028000746F20002A20536F6674776172652D7336
:10029000636F7065200073657420746F20002A20DE
:1002A00044656C617954696D656F75742000736580
:1002B0007420746F20005B757365206F6620646521
:1002C0006C61792030206F722031206E6F74207243
:1002D00065636F6D6D656E6465642C20696E637215
:1002E000656173696E6720746F20325D20002A207B
:1002F00044656C6179200073657420746F20002A56
:10030000204D484920666F726D6174207472616E71
:10031000736C6174696F6E20332D746F2D31206F93
:100320006E2F6F6666200073657420746F20002A3C
:1003300020436865636B73756D2067656E657261D8
:1003400074696F6E206F6E2F6F6666200073657420
:1003500020746F20002A204572726F72206D6173C5
:100360006B202848697461636869206465666175FB
:100370006C7420307833422C2050453D2B3078303F
:10038000342C2055433D2B307834302C206F74684A
:100390006572206272616E6473203078374629205E
:1003A000002A204C696E6520746F6F206C6F6E6739
:1003B0002C207465726D696E61746564002A204C2E
:1003C000696E6520746F6F206C6F6E672C20696793
:1003D0006E6F726564002A205264792073657475AB
:1003E00070002A204572726F72206D61736B3D3010
:1003F00078002A20416C6C6F773D002A204D4849D7
:1004000020666F726D61743D002A20503150324D6C
:10041000515454206272696467652041546D656768
:1004200061487749442076312E002028706F776527
:10043000722D6F6E2D7265736574290020286578A2
:10044000742D72657365742900202862726F776E4F
:100450002D6F757429002A205265736574206361BD
:100460007573653A204D435553523D00204D484920
:100470002D73657269657300204E455750315032B7
:100480004C494200206D6F64656C6E7220002062E2
:1004900072616E64200031363A31333A35330020D0
:1004A000004E6F7620203920323032340020636FC6
:1004B0006D70696C65642000503150324D6F6E690B
:1004C000746F722076302E392E3535002A2045453E
:1004D00050524F4D20696E697400000000090003FE
:1004E00002000004050800000000000000000000F9
:1004F00000010204081020408001020408102001BD
:10050000020408102040804004040404040404048D
:1005100002020202020203030303030302020300B6
:10052000000000230026002900000000002500280C
:10053000002B0000000000240027002A0000101BF0
:100540004E0511241FBECFEFD8E0DEBFCDBF11E0B6
:10055000A0E0B1E0E6EFF0E402C005900D92A8370C
:10056000B107D9F727E0A8E7B1E001C01D92A73095
:10057000B207E1F712E0C0EAD2E004C02197FE0121
:100580000E94F91CCF39D107C9F70E94B31C0C9403
:100590006E200C9400001F93CF93DF93EC01162F75
:1005A0000E942120181739F0612FCE01DF91CF91E1
:1005B0001F910C942920DF91CF911F9108950C94E5
:1005C0002120CF92DF92EF92FF921F93CF93DF9380
:1005D00089E1E82E81E0F82E6701C0E1D0E011E06A
:1005E000CE010E94DF02F60121916F01022E000C64
:1005F000330B91E08217130609F090E0192321963E
:10060000C831D10569F7111130C06CEC74E08AE68D
:1006100096E00E94B01BC0E1D0E0F70161917F013C
:10062000CE010E94CB022196C831D105B1F760E01E
:1006300090E080E00E94CB0260E081E090E00E94C8
:10064000CB0264E083E090E00E94CB0260E084E0B3
:1006500090E00E94CB0261E087E090E00E94CB0234
:1006600069E086E090E00E94CB0285E090E00E9485
:10067000DF028F3F29F46FE785E090E00E94CB0214
:1006800089E090E00E94DF028F3F29F460E089E07A
:1006900090E00E94CB0289E090E00E94DF0282306D
:1006A00060F462E089E090E0DF91CF911F91FF90CC
:1006B000EF90DF90CF900C94CB02DF91CF911F9100
:1006C000FF90EF90DF90CF900895882331F062E2A1
:1006D00071E08AE696E00E94C21B64E371E08AE65C
:1006E00096E00E949D1B68EB74E08AE696E00E940B
:1006F000791B6DEA74E08AE696E00E94791B61EA54
:1007000074E08AE696E00E94791B6FE974E08AE65D
:1007100096E00E94791B66E974E08AE696E00E9402
:10072000791B6EE874E08AE696E00E94791B4AE045
:1007300050E060910C018AE696E00E94811C64E81A
:1007400074E08AE696E00E94791B4AE050E06091EE
:1007500076028AE696E00E94811C68E774E08AE6E9
:1007600096E00E94791B6CE674E08AE696E00E94AF
:10077000791B8AE696E00E94AC1B66E574E08AE687
:1007800096E00E94791B4AE050E0609171028AE68F
:1007900096E00E94811C8091710282FF06C069E48C
:1007A00074E08AE696E00E94791B8091710281FFD5
:1007B00006C06CE374E08AE696E00E94791B8091A3
:1007C000710280FF06C06AE274E08AE696E00E9449
:1007D000791B8AE696E00E94AC1B69E074E08AE629
:1007E00096E00E94791B4AE050E0609182018AE61F
:1007F00096E00E94881C6BEF73E08AE696E00E9408
:10080000791B4AE050E060910D018AE696E00E9473
:10081000881C62EF73E08AE696E00E94791B4AE04A
:1008200050E0609106018AE696E00E94881C62EE24
:1008300073E08AE696E00E94791B8091070180317F
:1008400028F460E38AE696E00E94A51B40E150E0B0
:10085000609107018AE696E00C94881CEF92FF9263
:100860000F931F9384B78093710214BE62E084E0FB
:100870000E94C31861E083E00E94C31860E083E037
:100880000E94FF1884E00E942D197C0161E083E042
:100890000E94FF1884E00E942D198C0160E084E022
:1008A0000E94C31860E083E00E94C318EF2831F46F
:1008B0008FEF012B09F082E0809382018091820109
:1008C000811149C083E080937E0010927B0088B143
:1008D000836088B981EC80937C0086ED80937A00F8
:1008E00080917A0086FDFCCF20917800809179007C
:1008F00090E0982F8827820F911D9093810180931B
:10090000800188B18C7F88B987EC80937C0086ED6C
:1009100080937A0080917A0086FDFCCF2091780048
:100920008091790090E0982F8827820F911D9093F5
:1009300081018093800188B188B910927E008091F6
:1009400080019091810181529340873C910518F478
:1009500081E08093820126E040E950ED63E070E0A1
:100960008AE696E00E94301A0E94E10287E090E059
:100970000E94DF0280930D0186E090E00E94DF027A
:100980008093060185E090E00E94DF0280930701DA
:1009900083E090E00E94DF02082F80930C0184E046
:1009A00090E00E94DF02809376020F3F41F464E002
:1009B00083E090E00E94CB0284E080930C01809160
:1009C00076028F3F39F460E084E090E00E94CB0231
:1009D0001092760281E00E94650380918201EE24EC
:1009E000E394823029F0E12C07E026E0813011F019
:1009F00001E020E041E0811101C040E060E875E2E3
:100A000080E090E00E94420E81E00E94AE1380914F
:100A10000D010E94A513809106010E94AB138091E5
:100A200007010E94A813809172020E94A213809174
:100A30000801909109010E94261060E083E792E08E
:100A40000E943C0E66ED73E08AE696E01F910F91DE
:100A5000FF90EF900C94B01B7F936F9327E331E0EE
:100A60003F932F939F938F930E940D1D0F900F9094
:100A70000F900F900F900F9008957F936F932AE33C
:100A800031E03F932F939F938F930E940D1D0F9002
:100A90000F900F900F900F900F9008950C940117E6
:100AA0002F923F924F925F926F927F928F929F927E
:100AB000AF92BF92CF92DF92EF92FF920F931F936C
:100AC000CF93DF9300D000D01F92CDB7DEB79091C7
:100AD0008201923049F480917F01813009F45DC038
:100AE00038F1823009F463C080917F01811114C70D
:100AF0008AE696E00E9470199C0197FD0DC79091BF
:100B00008301E0910401F09105012A30310509F4D7
:100B1000E1C69E3608F0E1C6AF014F5F5F4F5093CC
:100B200005014093040120839F5F90938301DCCFF4
:100B30001C9918C081E080937F0161E083E792E017
:100B40000E94360E60E083E792E00E943C0E6EE366
:100B500071E08AE696E00E94C21B8AE696E00E9457
:100B60008C1AC2CF1D99C0CF90937F0160E083E7BC
:100B700092E00E94360E61E083E792E00E943C0E14
:100B80006EE371E08AE696E00E94C21B6AE070E0C4
:100B900080E090E00E943918E0CF1D99A5CF909396
:100BA0007F0161E083E792E00E943C0E9DCF1D9B98
:100BB0009BCF10927F012FEF31E0309305012093FE
:100BC00004011092830110927A018093000126E0C3
:100BD00040E950ED63E070E08AE696E00E94301A4A
:100BE00060E083E792E00E943C0E61E083E792E0E0
:100BF0000E94360E81E00E94650376CF81110DC000
:100C000080917F01811106C061EA73E08AE696E077
:100C10000E94B01B81E080937A011092000174C69B
:100C20001082992361F0A92FB0E0A250BE4F8C91A1
:100C30008D3029F4915090938301319710828091E7
:100C40000001823051F3813029F480917A018111C1
:100C5000E4CFE0CF84E092E090930501809304011B
:100C600044E050E06FE471E08FEF91E00E94FF1CE0
:100C70007C01892B09F048C61982809103028735CF
:100C800009F40CC20CF09EC08B3409F4A0C20CF025
:100C900055C08A3209F438C6E4F4882309F434C60E
:100CA00080917F01811106C064EB71E08AE696E0D5
:100CB0000E94791B80917F01811126C660910401F9
:100CC00070910501615071098AE696E00E94C21B8D
:100CD0001BC6853409F485C0873411F780917F01E4
:100CE000811106C06FE273E08AE696E00E94791BEC
:100CF000BE016D5F7F4F80910401909105010E94BC
:100D00002C05019791F481E02B813C81232B09F480
:100D100080E08093030180917F018111F5C567E236
:100D200073E08AE696E00E94791B80917F01811131
:100D3000EBC54AE050E0609103019DC0843509F4A1
:100D400066C1B4F58D3409F4A1C08F3409F0A8CF81
:100D500080917F01811106C06EE972E08AE696E01B
:100D60000E94791B68E071E0809104019091050177
:100D70000E942C05019799F4809108019091090136
:100D80000E94261080917F01811106C066E972E001
:100D90008AE696E00E94791B89E080937C0180912D
:100DA0007F018111B1C560910801709109016FC186
:100DB000853509F4AEC0863509F072CF80E00E9417
:100DC0006503A2C58F3621F20CF098C0873609F46E
:100DD00085CF0CF055C0883509F4DFC0853609F0A1
:100DE0005FCF80917F01811106C065E573E08AE6DF
:100DF00096E00E94791BBE016D5F7F4F80910401D8
:100E0000909105010E943D050197B1F48B818F7788
:100E1000809307010E94A81380917F01811106C071
:100E20006DE473E08AE696E00E94791B6091070109
:100E300085E090E00E94CB0280917F01811106C085
:100E400064E571E08AE696E00E949D1B80917F0137
:100E500090910701903138F4811105C060E38AE672
:100E600096E00E94A51B80917F0140E150E06091D7
:100E70000701811149C58AE696E00E94881C44C595
:100E80008B3609F4A4C18D3609F00ACF80917F0119
:100E9000811106C06FEF72E08AE696E00E94791B2E
:100EA000BE016D5F7F4F80910401909105010E940A
:100EB0002C050197D1F481E02B813C81232B09F48F
:100EC00080E080930D010E94A51360910D0187E0E1
:100ED00090E00E94CB0280917F01811115C567EFE0
:100EE00072E08AE696E00E94791B80917F014AE0D9
:100EF00050E060910D01811107C5BDCF863709F41F
:100F00005DCF0CF044C0843709F481C0853709F007
:100F1000C7CE80917F01811106C064E872E08AE645
:100F200096E00E94791BBE016D5F7F4F80910401A6
:100F3000909105010E942C050197C9F48B81809343
:100F4000720299E090937C01823018F081E08093E6
:100F50007202809172020E94A21380917F0181111E
:100F600012C06CE772E08AE696E00E94791B8091DD
:100F70007F01811108C04AE050E0609172028AE668
:100F800096E00E94881C88EC80930201BDC48737DC
:100F900009F484C0883709F083CE80917F018111E4
:100FA00006C066E672E08AE696E00E94791BBE0102
:100FB0006D5F7F4F80910401909105010E942C0587
:100FC0000197E1F48B81809306018D3418F08CE455
:100FD00080930601809106010E94AB1380917F01EE
:100FE000811106C06EE572E08AE696E00E94791BE8
:100FF0006091060186E090E00E94CB0280917F0123
:101000004AE050E06091060181117EC434CF8091A6
:101010007F01811106C06EEE72E08AE696E00E94C2
:10102000791B6AE071E080910401909105010E94B2
:101030002C05019721F580917F0120910A013091C3
:101040000B012230310570F422E030E030930B01C7
:1010500020930A01811110C066EB72E08AE696E0E7
:101060000E94791B80917F01811106C06EEA72E0B7
:101070008AE696E00E94791B89E080937C0180914A
:101080007F0160910A0170910B0181113DC44AE01A
:1010900050E08AE696E00E94A01C36C40E942B1005
:1010A000882391F106ED11E09E012F5F3F4F49012A
:1010B0006E0135E0C30ED11C67E5A62E61E0B62EA9
:1010C0009F928F92DF92CF92BF92AF928091050153
:1010D0008F93809104018F930E940D1D0FB6F89499
:1010E000DEBF0FBECDBF20917F01019701F1E1145A
:1010F000F10409F056C0211107C467EE71E08AE6D9
:1011000096E00E94B01B00C480917F01811106C04F
:101110006DE172E08AE696E00E94B01B8091740255
:101120008F3F09F4F1C38F5F80937402EDC389810F
:101130004091040150910501840F952F911D9093CA
:10114000050180930401E114F10441F4211106C06A
:1011500068E072E08AE696E00E94791B8D81FFEFDD
:10116000EF1AFF0AF80181938F01803150F48091CA
:101170007F01811106C061E671E08AE696E00E9477
:101180009D1B80917F01811107C040E150E06D817E
:101190008AE696E00E94811C89E2E816F10409F0D3
:1011A0008FCF80917F01811104C08AE696E00E9472
:1011B000AC1B20910A0130910B01009103014E2DCF
:1011C00066ED71E083E792E00E948F179DC38091E6
:1011D0007F01811106C06FEC71E08AE696E00E9403
:1011E000B01BE0917D01F0917E0109958DC3909136
:1011F000010180917F01992309F43FC09A3081F564
:1012000029813A81232B61F561E571E0882371F131
:1012100080917F01811107C040E150E0632D8AE693
:1012200096E00E94881C8091010181508093010109
:101230000F900F900F900F900F90DF91CF911F9113
:101240000F91FF90EF90DF90CF90BF90AF909F9065
:101250008F907F906F905F904F903F902F90089568
:10126000332049F08111D4CF63E271E08AE696E041
:101270000E94791BCDCF10920101909172029923A7
:1012800009F4AFC090917F02911105C09091C10205
:10129000903F09F4A6C090910201955090930201ED
:1012A000332009F47AC060E271E0882309F479C040
:1012B0008091AD01803148F480917F01811105C09A
:1012C00060E38AE696E00E94A51B80917F01811170
:1012D00008C040E150E06091AD018AE696E00E94CE
:1012E000811C8091AE01803148F480917F01811191
:1012F00005C060E38AE696E00E94A51B80917F010D
:10130000811108C040E150E06091AE018AE696E0AC
:101310000E94811C8091AF01803148F480917F014F
:10132000811105C060E38AE696E00E94A51B8091CA
:101330007F01811108C040E150E06091AF018AE671
:1013400096E00E94811C80917F01811105C060E2BE
:101350008AE696E00E94A51B8091C102F12CE12C47
:10136000803F19F0E0907F02F12CD701A455BD4FCA
:10137000EC9180917F01E75FE93008F071C1F0E006
:10138000EC53F64F0C94F91C2B0B040B260B1C0B87
:10139000120BD609210B170B0D0B811189CF6DE1B3
:1013A00071E08AE696E00E94791B82CF64E171E0E9
:1013B000882309F42DC1FFEFEF1AFF0A26E1E21698
:1013C000F10411F4F12CE12C80917F028E151F04A1
:1013D00061F680917F01811104C08AE696E00E9447
:1013E000AC1B809102018F5F893C08F049C2809359
:1013F00002011092C40290917F01332009F45FC270
:10140000411451046104710439F0809175028F3FD9
:1014100019F08F5F80937502911110C067EA70E038
:101420008AE696E00E94791B80917F01811106C0B7
:1014300061EA70E08AE696E00E94791B89819A81D0
:101440008031974248F480917F01811105C060E2AC
:101450008AE696E00E94A51B89819A8120917F01EE
:10146000883EE3E09E0708F00EC2211105C060E34C
:101470008AE696E00E94A51B80917F01811106C03B
:101480006FE970E08AE696E00E94791B89819A8173
:101490008436910548F480917F01811105C060E395
:1014A0008AE696E00E94A51B89819A810A9748F4F2
:1014B00080917F01811105C060E38AE696E00E9479
:1014C000A51B80917F01811108C069817A814AE062
:1014D00050E08AE696E00E949A1C80917F0181117B
:1014E00006C06CE970E08AE696E00E94791B8DEAFE
:1014F000E82E81E0F82E04E811E080917F01980148
:10150000245831402815390508F0D2C16801F80186
:10151000908190FF08C0811106C067E970E08AE6FB
:1015200096E00E94791BF801808181FF0AC08091BA
:101530007F01811106C062E970E08AE696E00E94B0
:10154000791BF801808185FF0AC080917F0181119C
:1015500006C06DE870E08AE696E00E94791BF8010B
:10156000808182FF0AC080917F01811106C068E8F6
:1015700070E08AE696E00E94791BF801808186FF80
:101580000AC080917F01811106C063E870E08AE69D
:1015900096E00E94791BF701B1907F01FFE0FB15F7
:1015A00048F080917F01811105C060E38AE696E0F2
:1015B0000E94A51B80917F01811107C040E150E08E
:1015C0006B2D8AE696E00E94811CF801808183FFE2
:1015D0000AC080917F01811106C06EE770E08AE643
:1015E00096E00E94791B0F5F1F4FF601808184FFF8
:1015F00084CF80917F01811180CF64E770E08AE61B
:1016000096E00E94791B79CF8111D5CE6BE071E015
:101610008AE696E00E94791BCECE62E071E08111ED
:10162000CACEF6CF69EF70E08111C5CEF1CF60EF81
:1016300070E08111C0CEECCF67EE70E08111BBCEBF
:10164000E7CF6EED70E08111B6CEE2CF65ED70E0D0
:101650008111B1CEDDCF6CEC70E08111ACCED8CF72
:101660001C91107E0C910F716701CC0CDD1CB11028
:101670004BC0103439F4811105C060E28AE696E06F
:101680000E94A51BF601E058FD4FA080B18080911B
:10169000780190917901A81AB90A23E0B694A79429
:1016A0002A95E1F72AE0A216B10498F480917F010F
:1016B000811105C060E28AE696E00E94A51B809138
:1016C0007F01811121C060E28AE696E00E94A51B9D
:1016D00004C034E6A316B10490F380917F01811118
:1016E00013C04AE050E0B5018AE696E00E949A1CD9
:1016F00080917F01103409F46BC1811105C06AE348
:101700008AE696E00E94A51BF601E058FD4F808115
:101710009181909379018093780180917F011036B7
:10172000E1F1A0F4112359F1103409F45AC18823CE
:1017300009F489C0103809F48FC008F0C5C010340E
:1017400009F456C1103609F071C03EC0103A21F0BC
:10175000103C11F0103859F70A3008F04BC0023035
:1017600008F46BC081114DC0E02FE250FF0BBF01A8
:101770004AE050E08AE696E00E946D1C4EC081115E
:1017800005C06FE38AE696E00E94A51B80917F0169
:101790006AEB70E081116BC06EC0033140F403301E
:1017A000D0F4013070F481110FC060E205C0053142
:1017B000D0F760E5811108C08AE696E00E94A51B7B
:1017C00003C063E58823C1F380917F0164EB70E07F
:1017D00081114DC050C08111F7CF802F8350990BDC
:1017E000BC01759567954AE050E08AE696E00E9454
:1017F0006D1CEACF0A3051F00B3019F565E48823EF
:1018000041F0103A81F1103C91F5F2C060E5811190
:10181000F8CF8AE696E00E94A51B1036A9F2A8F43C
:10182000112309F4B3CF103409F4E2C080917F0191
:1018300081111DC06AEA70E01EC08111E2CF63E52C
:10184000E8CF8111DECF60E2E4CF103A61F0103CC6
:1018500009F4CEC0103851F780917F016EEB70E033
:10186000811105C008C080917F01882311F0B12C3F
:10187000A2CD68EC70E08AE696E00E94791BF7CF73
:1018800020920201B6CD21110AC068EE73E00E94D9
:10189000C31C4AE050E08AE696E00E949A1C8981C7
:1018A0009A8168EE73E00E94C31C9A838983E4CD19
:1018B000811159C08AE696E00E94AC1B54C0911178
:1018C000BDCD64EA70E0ACCD103A89F2103C09F06D
:1018D000ADCF8EC09E3609F0A3C93197108280919A
:1018E0007A012A30310509F489C981110AC0809131
:1018F0007F01811106C06DEB73E08AE696E00E94DD
:10190000B01B81E0809300018FEF91E0909305017F
:10191000809304011092830183E792E00E94C11733
:101920002B013C0180916D0290916E02A0916F029B
:10193000B091700284159505A605B70594F48091C1
:101940007C018F5F80937C0180917B018F5F80930E
:101950007B0140926D0250926E0260926F02709213
:10196000700258EC252E83E792E00E94E716B82E0D
:10197000882309F45DCCE090030109E224E831E01A
:10198000AE014F5F5F4F6DEA71E083E792E00E9426
:1019900019174C01312C8A9778F080917F018111C1
:1019A00006C06EE871E08AE696E00E94B01B49E24C
:1019B000842E912C33243A94E4E8F1E0CF0184584A
:1019C00091408815990508F012CC8191382AF6CFFC
:1019D000F601E058FD4F2081318130937901209349
:1019E0007801811105C060E28AE696E00E94A51B9D
:1019F00080917F016EEA70E0811139CF3CCF1F9258
:101A00000F920FB60F921124CF92DF92EF92FF92B6
:101A10002F933F934F935F936F937F938F939F93F6
:101A2000AF93BF93809178002091790030E0322FFE
:101A30002227820F932F911DB0E0A0E02091140186
:101A4000222309F493C01092140120915D06209383
:101A50007C0020914F06309150062F5F3F4F30930E
:101A6000500620934F064091490650914A066091D6
:101A70004B0670914C06840F951FA61FB71F8093CD
:101A8000490690934A06A0934B06B0934C06A901D1
:101A9000542F44275295507F452B09F051C0409157
:101AA0004506509146066091470670914806480FDA
:101AB000591F6A1F7B1F409345065093460660934B
:101AC000470670934806C0901701D0901801F12C7A
:101AD000E12C8C159D05AE05BF0520F490931801EF
:101AE00080931701C0905B06D0905C06F12CE12C2E
:101AF000C816D906EA06FB0620F490935C0680938C
:101B00005B061092490610924A0610924B061092FC
:101B10004C06A4E0220F331FAA95E1F7232B81F492
:101B200040935706509358066093590670935A068F
:101B300010924506109246061092470610924806EB
:101B40008EED80937A00BF91AF919F918F917F919D
:101B50006F915F914F913F912F91FF90EF90DF90A8
:101B6000CF900F900FBE0F901F90189521E02093FB
:101B7000140120915E0620937C0020914D06309147
:101B80004E062F5F3F4F30934E0620934D064091F7
:101B90004106509142066091430670914406840FBD
:101BA000951FA61FB71F8093410690934206A093EE
:101BB0004306B0934406A901542F44275295507F01
:101BC000452B09F0BDCF40913D0650913E066091F6
:101BD0003F0670914006480F591F6A1F7B1F4093B4
:101BE0003D0650933E0660933F0670934006C090BA
:101BF0001501D0901601F12CE12C8C159D05AE0538
:101C0000BF0520F49093160180931501C0905506EE
:101C1000D0905606F12CE12CC816D906EA06FB0630
:101C200020F4909356068093550610924106109228
:101C30004206109243061092440684E0220F331F9E
:101C40008A95E1F7232B09F07BCF409351065093FF
:101C50005206609353067093540610923D061092FC
:101C60003E0610923F06109240066ACF662311F09E
:101C7000429A089542980895662311F05B9A089558
:101C80005B9808958F929F92AF92BF92EF920F93BD
:101C9000CF93DF934B015C01D42FC22F969587958C
:101CA000779567957E5E85489F4FA50194010E94B8
:101CB000D71C30933C0620933B06B9017695679577
:101CC000CB01820F931F90933A0680933906C90186
:101CD000F3E096958795FA95E1F7860F971F909315
:101CE0003806809337065695479537952795309354
:101CF000360620933506C901880F991F280F391F12
:101D0000309334062093330661E082E00E94C318CA
:101D100061E086E00E94C31861E085E00E94C3187C
:101D200061E083E00E94C318E0925F06429A8091CE
:101D30005F06882309F4A4C05E9880915F0688231B
:101D400009F4A0C05D985B9A62E088E00E94C31825
:101D500061E089E00E94FF1861E089E00E94C318F9
:101D60001092D3021092D2021092320610922D06D7
:101D70008FEF80932C0610922B061092460410923F
:101D800045041092400410923F041092D102109228
:101D9000D00282E084BD94E095BD99EF97BD10928A
:101DA000CB021092CC021092CD021092CE02109271
:101DB000C7021092C8021092C9021092CA0216BC41
:101DC00021E023BD85BB80936E008093B00023E0AB
:101DD0002093B1009093B30083BD1092B200109293
:101DE000D3021092D20287BB8093700010926F00D2
:101DF0001092800081E880938100809181008F7B28
:101E00008093810080918000806C8093800080911D
:101E1000820080688093820080E286BB80916F00A0
:101E2000806280936F00D0936006DD2301F18C2FD8
:101E3000806C80935E06802F806C80935D0621E02D
:101E400030E0C90101C0880FCA95EAF701C0220F2E
:101E50000A95EAF7822B8F7380937E0080915E064D
:101E600080937C0010927B008EED80937A00DF914E
:101E7000CF910F91EF90BF90AF909F908F9008956A
:101E80005E9A5BCF5D9A5FCF1F920F920FB60F9253
:101E900011248F939F93AF93BF938091C70290912A
:101EA000C802A091C902B091CA020896A11DB11D35
:101EB0008093C7029093C802A093C902B093CA024C
:101EC0008091CF028F5F8093CF028D37A8F0109260
:101ED000CF028091CB029091CC02A091CD02B09123
:101EE000CE020196A11DB11D8093CB029093CC022E
:101EF000A093CD02B093CE02BF91AF919F918F91ED
:101F00000F900FBE0F901F9018951F920F920FB653
:101F10000F9211242F933F938F939F938091D2021E
:101F20009091D302019649F08091D2029091D30210
:101F300001969093D3028093D20280914604833617
:101F400009F06FC02091D2023091D3028091D0026B
:101F50009091D10228173907C1F02091D202309117
:101F6000D3028091D0029091D1022817390708F44A
:101F700058C02091D2023091D302809112019091E9
:101F800013012817390708F44CC081E080934604F8
:101F900020913306309134068091C502882321F0C8
:101FA0008091C40291E0811190E09093C6028091EB
:101FB000C602882351F081E08093C40210927F0210
:101FC00080EF8093C1021092C30290916F009F7DB9
:101FD00090936F0090916F009B7F90936F00109291
:101FE00070008091840090918500820F931F9093E0
:101FF000890080938800809180008F7B8068809327
:102000008000809181008F7B80938100B19A8091C4
:102010006F00826080936F0080915F06882351F08B
:102020005D989F918F913F912F910F900FBE0F90D0
:102030001F9018955D9AF5CF8230910510F482E0DB
:1020400090E090937E0280937D0208959093130117
:1020500080931201089520913F049091400481E003
:10206000291380E00895909140049F5F993708F00C
:1020700090E020913F042917E1F36FB7F894209185
:10208000460440917D0250917E022223A9F0292F1F
:1020900030E0F901EA53FC4F8083220F331FF9012E
:1020A000EC52FD4F5183408310927E0210927D02CC
:1020B000909340046FBF089580934404809342043A
:1020C0001092410410927C0210927B0283E680936E
:1020D00046045093D1024093D00210927E02109297
:1020E0007D02E8CF0F931F93CF93DF93909111015F
:1020F000992361F1082F10E08770C1E0D0E09E01C4
:1021000002C0220F331F8A95E2F7C90180950E9411
:102110003310C80123E0959587952A95E1F78770DC
:1021200099279E0102C0220F331F8A95E2F7C90149
:1021300080950E94331036E0159507953A95E1F7A2
:10214000CE0101C0880F0A95EAF78095DF91CF9103
:102150001F910F910C9433101F920F920FB60F9294
:1021600011242F933F934F935F936F937F938F939C
:102170009F93EF93FF938091460440918400509188
:10218000850060918800709189005B98843108F027
:10219000AFC12091350630913606260F371F309398
:1021A00089002093880093B1917080FFE8C020914E
:1021B0008000206C20938000209181002064209377
:1021C0008100813009F05EC02091D2023091D302AB
:1021D00030937A022093790210927000911192C08C
:1021E00010927B0293B19170B59B59C120918600EA
:1021F0003091870040E246BB992309F432C19091A7
:10220000C602992359F19091C202911104C0909194
:10221000C302911123C0E0917F02F0E0EE0FFF1F97
:10222000E058FD4F31832083E0917F02F0E0E455D8
:10223000FD4F982F9066908390917F029F5F9093BF
:102240007F02963111F410927F029091C30299237C
:1022500029F09091C20291509093C202809345045C
:102260008F5F80934604FF91EF919F918F917F91B3
:102270006F915F914F913F912F910F900FBE0F90F3
:102280001F901895833169F422E023BD1092B200AB
:1022900061E070E07093D3026093D20227BB209379
:1022A000700020914304291709F49CCF90917B0280
:1022B000926090937B029091C602992309F492CF89
:1022C0009091C202911104C09091C30291118ACFE2
:1022D0009091C302911106C091E09093C3029BE0DC
:1022E0009093C202E0917F02F0E0EE0FFF1FE058F2
:1022F000FD4F51834083E0917F02F0E0E455FD4FB4
:102300009CEF28C080937B029091C602992309F428
:1023100069CF9091C202911104C09091C3029111B2
:1023200061CF9091C302911106C091E09093C302D6
:102330009BE09093C202E0917F02F0E0EE0FFF1F5E
:10234000E058FD4F51834083E0917F02F0E0E45577
:10235000FD4F9FEF908390917F029F5F90937F024C
:10236000963111F410927F029091C302992309F4DF
:1023700039CF9091C20291509093C20233CF8231F3
:1023800008F05FC020914404622F617020FD0BC0F3
:10239000209180002F7B2068209380002091810075
:1023A0002F7B209381002091410426272093410414
:1023B0002091440430E035952795209344049111F1
:1023C0003DC090917B02906290937B029091C602F7
:1023D0009923A1F19091C202911104C09091C3027E
:1023E00091112CC09091C302911106C091E090937D
:1023F000C3029BE09093C202E0917F02F0E0EE0FF7
:10240000FF1FE058FD4F51834083E0917F02F0E0D1
:10241000E455FD4F9EEF908390917F029F5F9093D4
:102420007F02963111F410927F029091C30299239A
:1024300029F09091C20291509093C202609343049C
:10244000D1CE609141046111BACF209180002F7BE1
:10245000206820938000209181002F7B20938100B1
:10246000AECF9091C602992309F4F8CE9091C202A2
:10247000911104C09091C3029111F0CEE0917F02BE
:10248000F0E0EE0FFF1FE058FD4F31832083E09115
:102490007F02F0E0E455FD4F982F9064CCCE91116F
:1024A000DDCE9091C602992309F4D8CE9091C20254
:1024B000911104C09091C3029111D0CE9091C302AA
:1024C000911106C091E09093C3029BE09093C202E9
:1024D000E0917F02F0E0EE0FFF1FE058FD4F5183C7
:1024E0004083E0917F02F0E0E455FD4F97EFA3CEEB
:1024F00093B19170B59BC3C0409186005091870005
:1025000030E236BB992309F4A2C09091C602992308
:1025100051F19091C202911104C09091C3029111A6
:1025200022C0E0917F02F0E0EE0FFF1FE058FD4F68
:10253000518340838066E0917F02F0E0E455FD4FD7
:10254000808380917F028F5F80937F02863111F4B8
:1025500010927F028091C302882329F08091C202E9
:1025600081508093C20280917B02882329F05B9A7C
:102570008091400480933F0480911001882339F1B9
:10258000E0912D0621E02E0F293708F020E0809100
:102590002B06821709F49CC0822F90E030914204F0
:1025A000FC01EE54FA4F30834091790250917A0247
:1025B000FC01EE0FFF1FE95BFB4F5183408330911D
:1025C0007B02875C9A4FFC01308320932D0690910B
:1025D000400480913F04981709F4AAC08F5F89379F
:1025E00008F080E080933F0490E0FC01EA53FC4F48
:1025F00030813093440430934204880F991FFC01CA
:10260000EC52FD4F8081918110927C021092410426
:102610008230910508F067C0809188009091890010
:102620002091330630913406820F931F90938900D6
:1026300080938800809180008F7B806880938000E9
:10264000809181008F7B8093810081E00ACE909100
:10265000C602992309F487CF9091C202911104C058
:102660009091C30291117FCFE0917F02F0E0EE0FD5
:10267000FF1FE058FD4F5183408380645CCF911170
:1026800072CF8091C602882309F46DCF8091C20277
:10269000811104C08091C302811165CF8091C30272
:1026A000811106C081E08093C3028BE08093C20257
:1026B000E0917F02F0E0EE0FFF1FE058FD4F5183E5
:1026C0004083E0917F02F0E0E455FD4F87EF38CF83
:1026D00020912D06E22FF0E0E75CFA4F80818860C0
:1026E00080835B9A74CF33E6309346049093D10293
:1026F0008093D00280916F008D7F80936F008091D6
:1027000081008F7B8093810080E286BB80916F0087
:10271000806280936F00E22FF0E0E75CFA4F8081E7
:102720008068808380915F06882329F05D9A9BCD25
:1027300010924604DFCF5D9896CD809146048111BA
:10274000FCCF08958093C5020895809311010895E8
:1027500080930E01089580930F01089580931001D6
:1027600008951F920F920FB60F9211242F933F934B
:102770004F935F936F937F938F939F93EF93FF9309
:10278000209186003091870080918400909185008F
:10279000809132068111D0C090915F06992309F48F
:1027A00051C05E9890915F06992309F44DC05D9ADF
:1027B0005B9890912C069F3F39F090912C06909356
:1027C0002D069FEF90932C064091D2025091D30298
:1027D00050937A024093790210927000409139062A
:1027E00050913A06420F531F50932F0640932E06E6
:1027F00092E0909332061092300650938B004093F3
:102800008A0094E096BB90916F00946090936F0063
:102810008111A9C09091C4029111A5C09091C502E7
:102820009093C6029091C602992309F49CC091E04E
:102830009093C40210927F0290EF9093C102109285
:10284000C30291C05E9AAECF5D98B2CF9091C6029E
:10285000992351F19091C202911104C09091C30249
:10286000911122C0E0917F02F0E0EE0FFF1FE058CF
:10287000FD4F31832083806AE0917F02F0E0E455D0
:10288000FD4F808380917F028F5F80937F0286312E
:1028900011F410927F028091C302882329F0809165
:1028A000C20281508093C202FF91EF919F918F915C
:1028B0007F916F915F914F913F912F910F900FBE3C
:1028C0000F901F9018958A3009F04DC040912E0648
:1028D00050912F0660913B0670913C06460F571FA2
:1028E00050932F0640932E0650938B0040938A00FE
:1028F00094E096BB9BE01DC04091310650E0559599
:1029000047954093310640912E0650912F066091D5
:102910003B0670913C06460F571F50932F0640937D
:102920002E0650938B0040938A0094E096BB91E072
:10293000980F9093320617C0409177025091780219
:10294000B901641B750B4091370650913806641726
:10295000750708F47BCF8A3008F0B5CF823060F677
:10296000813009F426CF9091C602992351F19091BC
:10297000C202911104C09091C302911122C0E09152
:102980007F02F0E0EE0FFF1FE058FD4F3183208300
:10299000806CE0917F02F0E0E455FD4F80838091F0
:1029A0007F028F5F80937F02863111F410927F0245
:1029B0008091C302882329F08091C20281508093C4
:1029C000C20230937802209377026ECF1F920F924B
:1029D0000FB60F9211242F933F934F935F936F93F2
:1029E0007F938F939F93AF93BF93EF93FF93409108
:1029F0008A0050918B002091840030918500809155
:102A000032068A30B8F5823008F0F9C0813009F416
:102A1000C4C09091C602992309F4DEC09091C2020D
:102A2000911104C09091C3029111D6C0E0917F0230
:102A3000F0E0EE0FFF1FE058FD4F318320838068E8
:102A4000E0917F02F0E0E455FD4F808380917F02AA
:102A50008F5F80937F02863111F410927F02809104
:102A6000C302882309F4B8C08091C20281508093C8
:102A7000C202B2C08A3009F4E4C08B3051F66091D2
:102A80000F0170E06F5F7F4FA0913B06B0913C0655
:102A90006A9FF0016B9FF00D7A9FF00D11246091F9
:102AA0002E0670912F066E0F7F1F70938B00609320
:102AB0008A0091E09093320690912D069F5F99379E
:102AC00008F090E060912B06691709F4C1C0E92F66
:102AD000F0E060913106DF01AE54BA4F6C93609123
:102AE000790270917A02DF01AA0FBB1FA95BBB4F6D
:102AF00011967C936E93E75CFA4F108260913006DA
:102B00006623D9F16081646060836091C6026623A8
:102B1000A1F16091C202611104C06091C302611110
:102B20002CC06091C302611106C061E06093C302D2
:102B30006BE06093C202E0917F02F0E0EE0FFF1FB6
:102B4000E058FD4F51834083E0917F02F0E0E4556F
:102B5000FD4F4DEF408340917F024F5F40937F02D6
:102B6000463111F410927F024091C302442329F0B0
:102B70004091C20241504093C20290932C0692E0D1
:102B800093BD1092B20041E050E05093D3024093C5
:102B9000D20297BB909370003CCF80916F008B7FE7
:102BA00080936F001092320680912C068F3F79F04F
:102BB00080912C0680932D06E0912D06F0E0E75CD5
:102BC000FA4F8081806880838FEF80932C068091FC
:102BD0005F06882391F05E9AFF91EF91BF91AF91CC
:102BE0009F918F917F916F915F914F913F912F9125
:102BF0000F900FBE0F901F9018955E98EDCF90919B
:102C000031069695906890933106909130069058D1
:102C10009093300691E0980F9093320640912E06E3
:102C200050912F0660913B0670913C06460F571F4E
:102C300050932F0640932E0650938B0040938A00AA
:102C4000E8CE909130069058909330069BE0E4CF08
:102C5000E0912D06F0E0E75CFA4F90819860908358
:102C60005B9A90912D0689CF80912D06E0912B06DD
:102C70008E1761F0EF5FE93708F0E0E0F0E0EE0F6B
:102C8000FF1FE95BFB4F80819181089590E080E018
:102C9000089590912D06E0912B069E1749F1EF5F64
:102CA000E93708F0E0E080911101AE2FB0E0A75CB9
:102CB000BA4F8823D9F08C91E91302C0806408953B
:102CC000EF5FE93708F0E0E0AE2FB0E0A75CBA4F65
:102CD0002C91822BE91791F3EF5FE93708F0E0E0E0
:102CE000F0E0E75CFA4F9081892B08958C9108956C
:102CF00080E0089580912D0690912B06891761F050
:102D00009F5F993708F090E0E92FF0E0EE54FA4F1A
:102D1000808190932B06089580E0089520912D06E0
:102D200090912B06291728F081E0291309C080E033
:102D300007C030E027583F4F81E092171306B9F3E0
:102D400008950F931F93CF9320911101222309F42B
:102D500039C08C010E947A168095982F907FC4E02C
:102D600009F4C0E0982F9C7C09F0CE5F8A7A09F0C4
:102D7000CF5FC8010E948E168823F9F0C8010E9417
:102D80007A168095982F907F09F0C05E982F9C7CD2
:102D900009F0C05F8A7A09F0C85FC8010E948E16E8
:102DA000882359F0C8010E947A168095982F9C7C40
:102DB00009F0C0588A7A09F0C05C8C2FCF911F911E
:102DC0000F910895CF911F910F910C947A16209135
:102DD0002D0680912B06821769F08F5F893708F0E6
:102DE00080E0E82FF0E0E75CFA4F908197FFF3CFA7
:102DF00081E0089580E0089580912B0680932D0650
:102E00000895CF93DF93CFE6D0E088818B7F8883CE
:102E100088818F7D88830E94FC160E949D13888183
:102E20008D7F88831092700010926E00DF91CF9199
:102E300008954F925F926F927F928F929F92AF927E
:102E4000BF92CF92DF92EF920F931F93CF93DF93B6
:102E50006C014B013A01590110E0C0E0202F2150D4
:102E6000330B2501420E531EC6010E948E16882385
:102E7000D9F3C6010E944916D82FA114B10449F014
:102E800080910E01C01728F5F501EC0FF11D8D237F
:102E90008083C11106C0C6010E943416F3019183DC
:102EA0008083C6010E94A116D7FF19C0EE20A1F1B0
:102EB000C017E8F4EC2FF0E0D401AE0FBF1F8C93E5
:102EC0008117A9F0EA0DFB1D8081806180835B9AE8
:102ED0000EC0982F9D23F2018081892BD9CFC01776
:102EE00020F4F401EC0FF11D8083E110180FCF5F87
:102EF000D7FFBACF8C2F90E0DF91CF911F910F9128
:102F0000EF90DF90CF90BF90AF909F908F907F9089
:102F10006F905F904F900895C01718F3E8CFDF923D
:102F2000EF92FF920F931F93CF93DF93F62E172FFD
:102F3000E42EC9010E941C10CF2DD12FEC0EFD2EC6
:102F4000F11C10E0CE15DF0541F0D9908D2D0E94C7
:102F500072100023B9F31D0DF5CF002351F0812F1E
:102F6000DF91CF911F910F91FF90EF90DF900C9424
:102F70007210DF91CF911F910F91FF90EF90DF9032
:102F800008956091CB027091CC028091CD02909116
:102F9000CE0208951F920F920FB60F9211242F9315
:102FA0003F938F939F93AF93BF93809166069091C9
:102FB0006706A0916806B09169063091650626E023
:102FC000230F2D3768F129E8230F0396A11DB11DAA
:102FD000209365068093660690936706A093680623
:102FE000B09369068091610690916206A091630694
:102FF000B09164060196A11DB11D80936106909366
:103000006206A0936306B0936406BF91AF919F914F
:103010008F913F912F910F900FBE0F901F90189599
:103020000296A11DB11DD4CF3FB7F89480916106DF
:1030300090916206A0916306B091640626B5A89BA4
:1030400005C02F3F19F00196A11DB11D3FBFBA2F3A
:10305000A92F982F8827BC01CD01620F711D811DFA
:10306000911D43E0660F771F881F991F4A95D1F77E
:1030700008958F929F92AF92BF92CF92DF92EF927C
:10308000FF926B017C010E9414184B015C01C1147A
:10309000D104E104F104E9F00E94C21C0E9414185A
:1030A000681979098A099B09683E73408105910571
:1030B00070F321E0C21AD108E108F10888EE880E09
:1030C00083E0981EA11CB11CC114D104E104F104D9
:1030D00029F7FF90EF90DF90CF90BF90AF909F9037
:1030E0008F900895789484B5836084BD85B583609E
:1030F00085BDEEE6F0E0808181608083E1E8F0E06C
:1031000082E08083808181608083E0E8F0E08081DC
:1031100081608083E1EBF0E0808184608083E0EB7C
:10312000F0E080818160808386E880937A0010924D
:10313000C1000895843081F028F48230E9F08330B2
:10314000F9F00895883071F0893091F08530B9F444
:10315000809180008F7D03C0809180008F77809365
:10316000800008958091B0008F778093B00008951B
:103170008091B0008F7DF9CF84B58F7784BD08959D
:1031800084B58F7DFBCFCF93DF9390E0FC01EF50B0
:10319000FB4F2491885F9A4FFC0184918823C9F0EA
:1031A00090E0880F991FFC01ED5CFA4FA591B49156
:1031B000FC01E75DFA4FC591D49161110DC09FB735
:1031C000F8948C91209582238C93888128232883DE
:1031D0009FBFDF91CF910895623051F49FB7F8946B
:1031E0003C91822F809583238C93E8812E2BEFCF07
:1031F0008FB7F894EC912E2B2C938FBFEACF1F93AF
:10320000CF93DF93282F30E0F901E652FB4F8491F2
:10321000F901EF50FB4FD491F901E85FFA4FC491E7
:10322000CC23A9F0162F81110E949A18EC2FF0E000
:10323000EE0FFF1FE75DFA4FA591B4918FB7F89499
:10324000EC91111108C0D095DE23DC938FBFDF9184
:10325000CF911F910895DE2BF8CFCF93DF93282FC6
:1032600030E0F901E652FB4F8491F901EF50FB4F3A
:10327000D491F901E85FFA4FC491CC23A1F08111F8
:103280000E949A18EC2FF0E0EE0FFF1FE15EFA4F5C
:10329000A591B491EC91ED2381E090E009F480E0F8
:1032A000DF91CF91089580E090E0FACFFC01918DFD
:1032B000228D892F90E0805C9F4F821B91098F7334
:1032C00099270895FC01918D828D981731F0828D98
:1032D000E80FF11D858D90E008958FEF9FEF089521
:1032E000FC01918D828D981761F0A28DAE0FBF2FDA
:1032F000B11D5D968C91928D9F5F9F73928F90E030
:1033000008958FEF9FEF0895FC01538D448D252F75
:1033100030E0842F90E0821B930B541710F0CF966F
:1033200008950197089586E09BE1892B49F080E09C
:1033300090E0892B29F00E94061B81110C9400005B
:103340000895FC01A48DA80FB92FB11DA35ABF4F3A
:103350002C91848D90E001968F739927848FA68994
:10336000B7892C93A089B1898C91837080648C93E8
:10337000938D848D981306C00288F389E02D808197
:103380008F7D80830895CF93DF93EC01888D882310
:10339000B9F0AA89BB89E889F9898C9185FD03C0B8
:1033A000808186FD0DC00FB607FCF7CF8C9185FF9D
:1033B000F2CF808185FFEDCFCE010E94A119E9CF28
:1033C000DF91CF910895EF92FF920F931F93CF93C8
:1033D000DF93EC0181E0888F9B8D8C8D98131AC050
:1033E000E889F989808185FF15C09FB7F894EE8937
:1033F000FF896083E889F989808183708064808394
:103400009FBF81E090E0DF91CF911F910F91FF90DE
:10341000EF900895F62E0B8D10E00F5F1F4F0F7386
:103420001127E02E8C8D8E110CC00FB607FCFACF41
:10343000E889F989808185FFF5CFCE010E94A11925
:10344000F1CFEB8DEC0FFD2FF11DE35AFF4FF08212
:103450009FB7F8940B8FEA89FB8980818062CFCF78
:10346000CF92DF92EF92FF921F93CF93DF93EC0105
:103470006A017B01122F60E874E88EE190E0A701F9
:1034800096010E94D71C21503109410951095695D6
:10349000479537952795E889F98982E0808321153A
:1034A00080E1380798F0E889F989108260E472E4D5
:1034B0008FE090E0A70196010E94D71C21503109AE
:1034C000410951095695479537952795EC85FD8516
:1034D0003083EE85FF852083188EEC89FD8910836B
:1034E000EA89FB89808180618083EA89FB89808108
:1034F00088608083EA89FB89808180688083EA898B
:10350000FB8980818F7D8083DF91CF911F91FF9018
:10351000EF90DF90CF900895CF93DF93EC01E88197
:10352000F9810680F781E02D0995EA89FB89808180
:103530008F7E8083EA89FB898081877F8083EA8907
:10354000FB8980818F778083EA89FB8980818F7DE9
:1035500080838A8D898FDF91CF9108951F920F927A
:103560000FB60F9211242F938F939F93EF93FF9396
:10357000E0917A06F0917B068081E0918006F091DF
:10358000810682FD1BC09081809183068F5F8F73BF
:1035900020918406821741F0E0918306F0E0E6591D
:1035A000F94F958F80938306FF91EF919F918F91B3
:1035B0002F910F900FBE0F901F9018958081F4CF20
:1035C0001F920F920FB60F9211242F933F934F9398
:1035D0005F936F937F938F939F93AF93BF93EF937B
:1035E000FF938AE696E00E94A119FF91EF91BF91A7
:1035F000AF919F918F917F916F915F914F913F918B
:103600002F910F900FBE0F901F9018958AE696E0AD
:103610000E94561921E0892B09F420E0822F089599
:10362000EAE6F6E01382128288EE93E0A0E0B0E0D2
:1036300084839583A683B78387E691E09183808313
:1036400085EC90E09587848784EC90E09787868767
:1036500080EC90E0918B808B81EC90E0938B828B5F
:1036600082EC90E0958B848B86EC90E0978B868B38
:10367000118E128E138E148E0895AF92BF92CF9238
:10368000DF92EF92FF920F931F93CF93DF936C0122
:103690007B018B01040F151FEB015E01AE18BF0803
:1036A000C017D10759F06991D601ED91FC910190B5
:1036B000F081E02DC6010995892B79F7C501DF91CD
:1036C000CF911F910F91FF90EF90DF90CF90BF901F
:1036D000AF900895FB0101900020E9F73197AF0109
:1036E000461B570BDC01ED91FC910280F381E02D2C
:1036F0000994EF92FF920F931F93CF93DF938C0166
:103700007B01D0E0C0E0F701EC0FFD1F6491662360
:1037100061F0D801ED91FC910190F081E02DC8019C
:103720000995892B11F02196EECFCE01DF91CF9133
:103730001F910F91FF90EF9008956115710511F0A1
:103740000C946A1B90E080E00895DC01ED91FC91FF
:103750000190F081E02D099465E771E00C946A1BFB
:103760000F931F93CF93DF93EC010E94791B8C0181
:10377000CE010E94AC1B800F911FDF91CF911F9152
:103780000F9108950F931F93CF93DF938C01D0E097
:10379000C0E06115710519F00E946A1BEC01C801B7
:1037A0000E94AC1B8C0F9D1FDF91CF911F910F9139
:1037B00008958F929F92AF92BF92EF92FF920F93D4
:1037C0001F93CF93DF93CDB7DEB7A1970FB6F894D1
:1037D000DEBF0FBECDBF7C01FA01CB0119A22230A2
:1037E00008F42AE08E010F5D1F4F822E912CB12C20
:1037F000A12CBF01A50194010E94D71CF901CA01A7
:103800006A300CF5605DD8016E938D01232B242B5B
:10381000252B79F790E080E0109721F0BD01C701DA
:103820000E946A1BA1960FB6F894DEBF0FBECDBFF3
:10383000DF91CF911F910F91FF90EF90BF90AF90CC
:103840009F908F900895695CDECFCF92DF92EF92C8
:10385000FF920F931F93CF93DF932115310581F4CE
:10386000DC01ED91FC910190F081E02D642FDF915E
:10387000CF911F910F91FF90EF90DF90CF9009941F
:103880002A30310501F52AE077FF1DC06A017B016E
:10389000EC016DE20E94A51B8C0144275527BA015B
:1038A0004C195D096E097F092AE0CE010E94D91BDF
:1038B000800F911FDF91CF911F910F91FF90EF909B
:1038C000DF90CF900895DF91CF911F910F91FF90DE
:1038D000EF90DF90CF900C94D91B9A01AB01770F3A
:1038E000660B770B0C94251C2115310541F4DC0186
:1038F000ED91FC910190F081E02D642F09940C94DE
:10390000D91B9A01462F50E070E060E00C94741CC3
:103910000F931F93CF93DF93EC010E94811C8C01C6
:10392000CE010E94AC1B800F911FDF91CF911F91A0
:103930000F9108959A01AB0170E060E00C94741C43
:103940000F931F93CF93DF93EC010E949A1C8C017D
:10395000CE010E94AC1B800F911FDF91CF911F9170
:103960000F91089508950E9472180E94B21C0E943F
:103970002E04C3E9D9E10E9450052097E1F30E948B
:103980009319F9CF0895AA1BBB1B51E107C0AA1FC9
:10399000BB1FA617B70710F0A61BB70B881F991FF0
:1039A0005A95A9F780959095BC01CD010895A1E2A3
:1039B0001A2EAA1BBB1BFD010DC0AA1FBB1FEE1FA9
:1039C000FF1FA217B307E407F50720F0A21BB30BF4
:1039D000E40BF50B661F771F881F991F1A9469F770
:1039E00060957095809590959B01AC01BD01CF01CC
:1039F0000895EE0FFF1F0590F491E02D0994FB014F
:103A0000DC014150504030F08D910190801919F443
:103A10000020B9F7881B990B0895AEE0B0E0E3E110
:103A2000FDE10C94472085E08C838B899C899A83E7
:103A30008983AE01495E5F4F6D897E89CE01019613
:103A40000E94B11E2E96E2E00C94632020FD09C076
:103A5000FC0123FD05C022FF02C0738362835183F2
:103A60004083089544FD17C046FD1DC0DB01FC01E5
:103A7000AA0FBB1FEE1FFF1F1094D1F76A0F7B1F09
:103A80008E1F9F1F660F771F881F991F620F711D62
:103A9000811D911D089533E0660F771F881F991FC0
:103AA0003150D1F7F3CF34E0F7CF0F931F93CF937B
:103AB000DF938C01C8010E94CA1FEC0197FD08C06A
:103AC0000E94B61F892BB1F7B801CE010E940620D3
:103AD000CE01DF91CF911F910F9108958F929F9208
:103AE000AF92BF92EF92FF920F931F93CF93DF930A
:103AF0008C01D62F7A01B22E0E94CA1F9C01332757
:103B00002B32310529F02D323105A9F46894B7F82C
:103B1000D15061F480E0DF91CF911F910F91FF9020
:103B2000EF90BF90AF909F908F900895C8010E9432
:103B3000CA1F97FDEFCFCB2DCD7F2B2D2073F9F42E
:103B40008033E9F4AA24AA94AD0E89F0C8010E943A
:103B5000CA1F97FD0CC0282F2F7D283561F4C26441
:103B6000D25029F0C8010E94CA1F97FF08C0812CBB
:103B7000912C54011BC0B6FE2BC0C260DA2D812CE3
:103B8000912C540120ED280F283028F1C4FD09C0E4
:103B90002A3008F1C6FF05C02F7D3FEE320F3630C8
:103BA000C8F0B8010E940620C1FFB4CFC7FF08C00B
:103BB000B094A09490948094811C911CA11CB11C81
:103BC0002C2FB501A401C7010E94261D81E0A3CFBF
:103BD000C261D4CF27504C2FC501B4010E94321DC1
:103BE0004B015C01C260D15009F3C8010E94CA1F99
:103BF00097FFC8CFD9CFA0E2B0E0E1E0FEE10C949E
:103C00003C205C01962E7A01CE0101966C0180E287
:103C1000F60111928A95E9F7F501B381890130E047
:103C200020E0712C812CA0E041E050E0F801B3FDD0
:103C30008591B3FF8191982F8F01811107C010E00A
:103C400000E0C801A096EDE00C9458208E3519F4E0
:103C50002115310541F1A21713064CF48D3549F1B8
:103C60008D3229F4811006C0882483941DC08820D9
:103C700009F464C0E92FE695E695E695EC0DFD2D77
:103C8000F11D892F8770BA0101C0660F8A95EAF786
:103C90008081682B6083791651F0971510F49F5F2F
:103CA000E9CF9150E7CFA1E02F5F3F4FBFCF812CED
:103CB000FBCF882019F08E8180628E83AA2359F071
:103CC000F6019E012F5D3F4F808180958083319664
:103CD000E217F307C9F788248394C5010E94CA1F1D
:103CE00097FD16C0E82FE695E695E695EC0DFD2DBF
:103CF000F11D208130E0AC014770552702C0359599
:103D000027954A95E2F720FD06C0B5010E940620DE
:103D1000882069F094CFE114F10429F0F701808341
:103D2000C70101967C019A94812C9110D6CFE114A1
:103D3000F10409F486CFF701108283CFE82FE695CE
:103D4000E695E695EC0DFD2DF11D982F9770BA01C3
:103D500001C0660F9A95EAF79081692B6083782EEF
:103D6000A3CFB0E0A0E0E7EBFEE10C943A206C01B9
:103D7000EB015A01FC0117821682512CF601E380F7
:103D8000FE01E3FC8591E3FE8191182FEF0188236A
:103D9000E9F090E00E94B61F892B21F0C6010E9435
:103DA000551DECCF153241F4FE01E3FC1591E3FE05
:103DB0001191EF01153269F4C6010E94CA1F97FDE7
:103DC0008EC01817D9F2B6010E940620852D90E00A
:103DD0008AC000E01A3231F4E3FC1591E3FE119140
:103DE000EF0101E0F12C20ED210F2A3048F101FF15
:103DF00037C0FF2059F31836B1F11C3609F43DC025
:103E0000112321F3612F70E088E690E00E94BF1F2C
:103E1000892BE1F2912C812C00FD06C0F5018080F8
:103E20009180C50102965C011E3679F5F601468146
:103E3000578170E060E0202FC4010E94261D9ECFB4
:103E400002606F2D70E090E080E040E20E94321D41
:103E5000F62EFE01E3FC1591E3FE1191EF01C3CFB5
:103E6000FF24FA94C8CFFE01E3FC1591E3FE119103
:103E7000EF01183609F0C4CF08600460FE01E3FCCE
:103E80001591E3FE1191EF01BBCF1336C1F401FD93
:103E900002C0FF24F394C6010E94CA1F97FD1FC0F1
:103EA0008114910429F0F4018083C40101964C012E
:103EB000FA94F110F0CF00FD61CF53945FCF1B3522
:103EC000B9F49E01A4016F2DC6010E94FB1DEC01F7
:103ED000892B89F7F6018381807309F477CF8FEFFF
:103EE0009FEF511073CFCDB7DEB7EFE00C945620A3
:103EF000C6010E94551D97FDF2CF1F36A9F130F47F
:103F0000143641F0193639F0006405C01337B9F0A2
:103F10001537D1F70062202FA4016F2DC6010E9432
:103F20006E1D8111C8CFD6CF8114910429F0F40100
:103F30006082C40101964C01FA94FF2071F0C60121
:103F40000E94CA1F3C0197FD08C00E94B61F892B22
:103F500059F3B601C3010E9406208114910409F4AB
:103F6000AACFF4011082A7CF0061D5CF91110C9494
:103F70001E20803219F089508550C8F70895FC0141
:103F80000590061621F00020D9F7C0010895319759
:103F9000CF010895CF93DF93EC012B8120FF1AC04E
:103FA00026FF0CC02F7B2B838E819F8101969F83E0
:103FB0008E838A8190E0DF91CF91089522FF18C00F
:103FC000E881F9818081082E000C990B009729F473
:103FD00020622B838FEF9FEFEECF3196F983E8833A
:103FE0002E813F812F5F3F4F3F832E839927E3CF61
:103FF000EA85FB85099597FFF3CF2B81019621F088
:1040000080E2822B8B83E6CF80E1FBCFFB01238113
:1040100020FF11C026FD0FC08F3F980771F08283EB
:104020002F7D2064238326813781215031093783F6
:104030002683992708958FEF9FEF08959927882762
:104040000895F999FECF92BD81BDF89A992780B560
:104050000895262FF999FECF1FBA92BD81BD20BDCC
:104060000FB6F894FA9AF99A0FBE019608952F9216
:104070003F924F925F926F927F928F929F92AF92F8
:10408000BF92CF92DF92EF92FF920F931F93CF9345
:10409000DF93CDB7DEB7CA1BDB0B0FB6F894DEBFDC
:1040A0000FBECDBF09942A88398848885F846E8402
:1040B0007D848C849B84AA84B984C884DF80EE804C
:1040C000FD800C811B81AA81B981CE0FD11D0FB655
:1040D000F894DEBF0FBECDBFED01089512E0C0EA37
:1040E000D2E004C0FE010E94F91C2196C13AD1071A
:0640F000C9F7F894FFCFB0
:1040F600020AC801FF01097FC409320004017F09D1
:104106000101C40901F03FF03F503150322D4D48B6
:1041160049002A2028746F2062652069676E6F72D5
:10412600656429002A2000256400253478002A20A9
:1041360050617573696E672073657269616C0031D1
:104146005032500030780025326868782568686EED
:1041560000300000000000E3193D1B8419C3195606
:0841660019701962190D0A001D
:00000001FF
