:100000000C9426070C944E070C944E070C944E0744
:100010000C944E070C944E070C944E070C94831EC0
:100020000C944E070C944E070C946C220C94701F89
:100030000C949C230C944E070C94421E0C944E0777
:100040000C948E2A0C944E070C9444280C94762819
:100050000C944E070C949D1B0C944E070C944E0769
:100060000C944E070C944E076364696E6F70737541
:1000700078585B0020726561644572726F723D3022
:10008000780020435243206572726F72003A4F52DB
:100090002D00204352433D002D50453A002D424350
:1000A0003A002D58583A002D53423A003A20002E7B
:1000B0000020005420005220004520002A205265D4
:1000C000667573696E6720746F2077726974652036
:1000D0007061636B6574207768696C652070726508
:1000E00076696F7573207061636B657420776173D7
:1000F0006E27742066696E69736865642C20666C6F
:10010000757368696E6720777269746520616374BE
:10011000696F6E002A2053757270726973653A2098
:10012000726563656976656420303046783378207F
:100130007061636B6574206F662073697A65200057
:100140002064657465637465642C207377697463D7
:1001500068696E6720636F6E74726F6C2066756E6F
:100160006374696F6E616C6974792063616E20627B
:1001700065207377697463686564206F6E202875E5
:1001800073696E67204C312900206465746563745F
:1001900065642C20636F6E74726F6C2066756E637D
:1001A00074696F6E616C6974792077696C6C207208
:1001B000657374617274002A204E6F2061757869CE
:1001C0006C6961727920636F6E74726F6C6C6572AA
:1001D00020616E73776572696E6720746F20616449
:1001E000647265737320307800206465746563748D
:1001F0006564002A205761726E696E673A20616EED
:100200006F7468657220617578696C6961727920B4
:10021000636F6E74726F6C6C657220697320616EAF
:1002200073776572696E6720746F206164647265AC
:100230007373203078002A205265667573696E6783
:1002400020746F20777269746520636F756E7465B2
:10025000722D72657175657374207061636B65745E
:10026000207768696C652070726576696F75732098
:100270007061636B6574207761736E2774206669A3
:100280006E6973686564002A205761726E696E67D3
:100290003A2055706F6E2041546D6567612072651C
:1002A000737461727420617578696C696172792008
:1002B000636F6E74726F6C6C65722066756E6374BA
:1002C000696F6E616C69747920616E6420636F750B
:1002D0006E74657220726571756573742066756ED3
:1002E0006374696F6E616C6974792077696C6C20D6
:1002F00072656D61696E20737769746368656420E7
:100300006F6666002A20537769746368696E672098
:10031000636F6E74726F6C2066756E6374696F6E56
:10032000616C697479206F6666002A20537769745E
:100330006368696E6720636F756E7465722072659D
:1003400071756573742066756E6374696F6E206F66
:100350006666002A205741524E494E473A20746F34
:100360006F206D616E792072656164206572726FB5
:10037000727320646574656374656400203F2000B7
:10038000E280BE5C5F005F2FE280BE005F5F5F00C7
:10039000E280BEE280BEE280BE002D582D0020200B
:1003A000206C772020200020202070652020200055
:1003B0002020205045202020002020206263202083
:1003C0002000202020424320202000202020736293
:1003D0002020200020202053422020200020202008
:1003E000626520202000202020424520202000633C
:1003F00020004320002A20526563656976656420E9
:100400007061636B6574206C6F6E676572207468D1
:10041000616E2052425F53495A45002A20436F6D56
:100420006D616E64206E6F7420756E646572737496
:100430006F6F643A20002A20436F6E74726F6C5F96
:100440006964206973203078002A20436F6E7472CB
:100450006F6C5F69642073657420746F203078005E
:100460002A20434F4E54524F4C5F49442069732019
:10047000616C72656164792030783030002A2059CF
:100480006F75206D6179207769736820746F2072B1
:10049000652D74727920696E2061206665772073FE
:1004A00065636F6E64732028616E64207065726886
:1004B00061707320737769746368206F7468657204
:1004C00020617578696C6961727920636F6E7472EE
:1004D0006F6C6C657273206F666629002A204E6F00
:1004E0002066726565206164647265737320666F4F
:1004F0007220636F6E74726F6C6C657220666F75BC
:100500006E642028796574292E20436F6E74726F93
:100510006C2066756E6374696F6E616C69747920A6
:100520006E6F7420656E61626C6564002A20436F93
:100530006E74726F6C5F494420307846302073755A
:1005400070706F727465642C206E6F2061757869AD
:100550006C6961727920636F6E74726F6C6C657216
:1005600020666F756E6420666F7220307846302C7E
:1005700020737769746368696E6720636F6E747245
:100580006F6C2066756E6374696F6E616C697479E7
:10059000206F6E2030784630206F6E002A20434F47
:1005A0004E54524F4C5F494420697320616C726510
:1005B000616479203078002A204572726F727370FE
:1005C00065726D697474656420286572726F72203B
:1005D0006275646765742920746F6F206C6F773B58
:1005E00020636F6E74726F6C2066756E6374696FD2
:1005F0006E616C6974792063616E6E6F7420656ED4
:1006000061626C6564002A205363686564756C6977
:100610006E6720617474656D707420746F207265EC
:100620007374617274204461696B696E002A207270
:100630006573746172744461696B696E2077616976
:1006400074696E6720746F207265636569766520D2
:1006500073616D706C65207061796C6F6164002AE4
:1006600020726573746172744461696B696E206194
:100670006C7265616479207363686564756C656428
:10068000002A20696E736572744D657373616765C6
:1006900020616C7265616479207363686564756C50
:1006A0006564002A20526573657474696E67204121
:1006B000546D656761202E2E2E2E002A205265660D
:1006C0007573696E6720746F207772697465207026
:1006D00061636B6574207768696C652070726576FC
:1006E000696F7573207061636B6574207761736ED9
:1006F00027742066696E6973686564002A205265F4
:10070000667573696E6720746F20777269746520EF
:10071000656D707479207061636B6574002A205771
:10072000726974696E673A20002D2076616C696485
:100730002064617461206D697373696E672C207722
:100740007269746520736B6970706564002A205744
:10075000726974696E67206E657874203430463033
:10076000333020736C6F743A20002A20696E7365F1
:1007700072744D65737361676520286F72207265AE
:1007800073746172744461696B696E2920616C7263
:1007900065616479207363686564756C6564007372
:1007A000657420746F20002A204563686F200073F1
:1007B000657420746F20002A20536F66747761720D
:1007C000652D73636F7065200073657420746F20EE
:1007D000002A2044656C617954696D656F757420D9
:1007E0000073657420746F20005B757365206F66FD
:1007F0002064656C61792030206F722031206E6F2B
:1008000074207265636F6D6D656E6465642C20691C
:100810006E6372656173696E6720746F20325D204C
:10082000002A2044656C6179200073657420746F20
:1008300020002A20566572626F73652000307800B0
:1008400073657420746F20002A204372635F6665AD
:100850006564200030780073657420746F20002A6E
:10086000204372635F67656E2000206E723A20003D
:100870002070743A203078002A2049676E6F7269C0
:100880006E6720696E737472756374696F6E2C2065
:100890006578706563746564203320617267756D77
:1008A000656E74732C2072656365697665643A20A1
:1008B000002A2043757272656E746C79206E6F2009
:1008C000777269746520627564676574206C65660B
:1008D000740020746F2076616C756520307800207C
:1008E0007061796C6F6164206279746520002A20E0
:1008F000496E6974696174696E672077726974659D
:1009000020666F72207061636B65742D74797065F9
:100910002030780077725F76616C20666F7220708D
:1009200061796C6F616420627974652031372028A9
:1009300066616E2D6D6F646529206D75737420621C
:100940006520696E2072616E676520307830302DC9
:10095000307830330077725F76616C20666F72207A
:100960007061796C6F6164206279746520342F380E
:10097000202866616E2D737065656420636F6F6CEF
:10098000696E672F68656174696E6729206D75737C
:100990007420626520696E2072616E676520307810
:1009A00031312D307835310077725F76616C206699
:1009B0006F72207061796C6F616420627974652058
:1009C000322F3620287461726765742D74656D70DE
:1009D00020636F6F6C696E672F68656174696E67FD
:1009E00029206D75737420626520696E2072616EB6
:1009F000676520307831302D307832300077725F83
:100A000076616C20666F72207061796C6F61642012
:100A100062797465203120286F7065726174696E27
:100A2000672D6D6F646529206D7573742062652074
:100A3000696E2072616E676520307836302D3078AF
:100A400036370077725F76616C20666F7220706156
:100A5000796C6F616420627974652030202873742A
:100A60006174757329206D75737420626520302060
:100A70006F722031002A2077725F76616C203E20F1
:100A8000307846463A20002A2077725F6E722069DD
:100A90006E76616C69642C2073686F756C6420627B
:100AA0006520302C20312C20322C20342C20362C68
:100AB000203820286F7220666F72207061636B652A
:100AC00074207479706520307833423A20313620B2
:100AD0006F72203137293A2000206973206E6F74BD
:100AE0002030783338206F722030783342002A204B
:100AF00077725F70743A203078002A2050726576E1
:100B0000696F757320706172616D657465722077AD
:100B10007269746520616374696F6E207374696CA7
:100B20006C2062757379002A20436F6D6D616E646D
:100B3000207265717569726573206F70657261747A
:100B4000696F6E20617320617578696C6961727973
:100B500020636F6E74726F6C6C657220284C312943
:100B6000002A2052656365697665643A20002A2070
:100B7000456D707479206C696E6520726563656976
:100B8000766564002A2052656365697665643A205B
:100B900022002A204C696E6520746F6F206C6F6E86
:100BA000672C206C61737420706172743A20002A83
:100BB000204669727374206C696E652069676E6F78
:100BC0007265643A202D3E003C2D002A204C696E4F
:100BD0006520746F6F206C6F6E672C207465726D6A
:100BE000696E617465642C2069676E6F7265643A22
:100BF000202D3E003C2D002A204C696E6520746F2C
:100C00006F206C6F6E672C2069676E6F7265642C45
:100C10002069676E6F72696E672072656D61696EBB
:100C20006465723A202D3E00502020202020202094
:100C30002020005220002A205265616479207365CB
:100C4000747570002A204630335844454C41593D54
:100C5000002A204630333044454C41593D002A207B
:100C6000434F4E54524F4C5F49445F4445464155B3
:100C70004C543D3078002A2053455249414C535042
:100C80004545443D002A204350555F535045454457
:100C90003D002A20436F756E7465727265706561E0
:100CA00074696E67726571756573743D002A2056AC
:100CB0006572626F736974793D002A20436F6E74A8
:100CC000726F6C5F49443D3078002A2050315032B9
:100CD0002D4553502D696E746572666163652041C0
:100CE000546D656761487749442076312E0020288D
:100CF000706F7765722D6F6E2D7265736574290044
:100D000020286578742D7265736574290020286227
:100D1000726F776E2D6F75742D646574656374657D
:100D20006429002A205265736574206361757365B8
:100D30003A204D435553523D0020462D736572694C
:100D4000657300204E4557503150324C49420020C7
:100D50002B636F6E74726F6C0032333A31313A31FB
:100D6000340020004A756E202034203230323300A7
:100D70002A20436F6D70696C656420002A20503111
:100D800050324D6F6E69746F722D76302E392E335E
:100D900037002A002A20454550524F4D207369677D
:100DA000206D69736D617463682C20696E69746964
:100DB000616C697A696E6720454550524F4D002A33
:100DC00020454550524F4D20736967206D61746313
:100DD00068002A20636865636B696E67204545502B
:100DE000524F4D00000000090003020000040508F6
:100DF00000000000000000000000000102040810D4
:100E00002040800102040810200102040810204044
:100E100080400404040404040404020202020202E6
:100E20000303030303030202030000000023002660
:100E300000290000000000250028002B0000000011
:100E400000240027002A0000A628260A11241FBE1D
:100E5000CFEFD8E0DEBFCDBF11E0A0E0B1E0E8E425
:100E6000FDE502C005900D92A236B107D9F724E046
:100E7000A2E6B1E001C01D92AF34B207E1F717E07E
:100E8000C5E2D7E004C02197FE010E94222BC432A4
:100E9000D107C9F70E947F2A0C94972E0C9400006A
:100EA0001F93CF93DF93EC01162F0E944A2E181741
:100EB00039F0612FCE01DF91CF911F910C94522E0A
:100EC000DF91CF911F9108950C944A2ECF92DF921B
:100ED000EF92FF920F931F93CF93DF9380911201B4
:100EE000882331F062ED7DE089EA93E00E94462993
:100EF0008BE1E82E81E0F82E670100E110E0C1E00F
:100F0000C8010E946407F60121916F01022E000CB6
:100F1000330B91E08217130609F090E0C9230F5FAD
:100F20001F4F0931110561F7809112018823E9F102
:100F30006FEB7DE089EA93E00E940F296C2F70E04F
:100F40004AE050E089EA93E00E940A2AC1112FC0CA
:100F500080911201882331F064E97DE089EA93E011
:100F60000E944629C0E1D0E0F70161917F01CE01E6
:100F70000E9450072196C931D105B1F760E090E099
:100F800080E00E94500760E081E090E00E945007FE
:100F900063E082E090E0DF91CF911F910F91FF908D
:100FA000EF90DF90CF900C945007CC23D9F2DF91D3
:100FB000CF911F910F91FF90EF90DF90CF90089508
:100FC00062E97DE089EA93E00E9446296CE77DE0D2
:100FD00089EA93E00E94462960E77DE089EA93E090
:100FE0000E940F2964E67DE089EA93E00E940F29C0
:100FF00062E67DE089EA93E00E940F2969E57DE0E1
:1010000089EA93E00E940F296FE47DE089EA93E08A
:101010000E940F2963E47DE089EA93E00E940F2992
:1010200069E37DE089EA93E00E940F2989EA93E071
:101030000E94422963E27DE089EA93E00E940F2941
:101040004AE050E06091510289EA93E00E943B2A15
:101050008091510282FF06C06DE07DE089EA93E055
:101060000E940F298091510281FF06C060E07DE05F
:1010700089EA93E00E940F298091510280FF06C007
:101080006EEE7CE089EA93E00E940F2989EA93E002
:101090000E9442296AEC7CE089EA93E00E940F29D1
:1010A0004AE050E060916E0189EA93E00E94422A92
:1010B0006AEB7CE089EA93E00E940F2940E150E06E
:1010C0006091540289EA93E00E94422A6DEA7CE032
:1010D00089EA93E00E940F294AE050E060911201F2
:1010E00089EA93E00E94422A62E97CE089EA93E07F
:1010F0000E940F294AE050E06091520289EA93E091
:101100000E94422A65E87CE089EA93E00E940F2968
:101110002AE030E040E052E16AE770E089EA93E0DB
:101120000E941C2A66E77CE089EA93E00E940F296E
:101130002AE030E040E950ED63E070E089EA93E0B6
:101140000E941C2A6EE57CE089EA93E00E940F2948
:1011500040E150E070E060E089EA93E00E940A2AF2
:1011600061E57CE089EA93E00E940F294AE050E0C3
:1011700064E670E089EA93E00E940A2A64E47CE075
:1011800089EA93E00E940F294AE050E06EE170E0A6
:1011900089EA93E00C940A2AEF92FF920F931F932F
:1011A00084B78093510214BE62E084E00E94592605
:1011B00061E083E00E94592660E083E00E9495266A
:1011C00084E00E94C3267C0161E083E00E949526B2
:1011D00084E00E94C3268C0160E084E00E945926CE
:1011E00060E083E00E945926EF2831F48FEF012B55
:1011F00009F082E080936E0180916E01811149C0F7
:1012000083E080937E0010927B0088B1836088B970
:1012100081EC80937C0086ED80937A0080917A0047
:1012200086FDFCCF209178008091790090E0982F86
:101230008827820F911D90936D0180936C0188B176
:101240008C7F88B987EC80937C0086ED80937A0050
:1012500080917A0086FDFCCF209178008091790002
:1012600090E0982F8827820F911D90936D018093B5
:101270006C0188B188B910927E0080916C019091C8
:101280006D0181529340873C910518F481E0809371
:101290006E0126E040E950ED63E070E089EA93E0FA
:1012A0000E94C6270E94660790E080E00E946407C3
:1012B0008093540282E090E00E94640780931201C0
:1012C00081E090E00E946407809352020E94E00750
:1012D00080916E01EE24E394823029F0E12C07E046
:1012E00026E0813011F001E020E041E0811101C0F1
:1012F00040E060E875E280E090E00E94401D80914F
:101300000C010E946922809155020E946622809100
:101310000D0190910E010E94241F60E086E592E08D
:101320000E943A1D66E37CE089EA93E01F910F91E9
:10133000FF90EF900C9446297F936F9325E231E064
:101340003F932F939F938F930E94362B0F900F9074
:101350000F900F900F900F9008957F936F9328E256
:1013600031E03F932F939F938F930E94362B0F90E2
:101370000F900F900F900F900F900895EF92FF92A3
:101380000F931F93CF93DF93F82ED92FE62E8091E2
:101390001201882331F063E37CE089EA93E00E9444
:1013A0000F298091120180FF06C068E27CE089EA83
:1013B00093E00E940F29C0916B010F2D1D2FE00EAD
:1013C000F12EF11CE016F10629F1F801D1918F01FF
:1013D000D03128F460E389EA93E00E943B2940E1A0
:1013E00050E06D2F89EA93E00E943B2A3091020180
:1013F000332341F328E08C2F90E095958795CD27F6
:10140000C0FF06C0C32FC827D6952150A1F7DACF59
:10141000C82FFACF80910201882371F0C03128F4DF
:1014200060E389EA93E00E943B2940E150E06C2FA1
:1014300089EA93E00E943B2A89EA93E0DF91CF9109
:101440001F910F91FF90EF900C9442290C944D2521
:101450002F923F924F925F926F927F928F929F92C4
:10146000AF92BF92CF92DF92EF92FF920F931F93B2
:10147000CF93DF93CDB7DEB7A3970FB6F894DEBF57
:101480000FBECDBF90916E01923049F480916501FD
:10149000813009F464C060F1823009F46AC080913F
:1014A000650181110C94BB1A89EA93E00E9406271A
:1014B0008C0197FF02C00C94BB1A80916F01E091E0
:1014C0000301F09104010A30110511F40C946F1A14
:1014D000833610F00C94731A9F012F5F3F4F3093A7
:1014E00004012093030100838F5F80936F01D7CFA6
:1014F0001C992AC081E08093650161E086E592E055
:101500000E94341D60E086E592E00E943A1D89EA5F
:1015100093E00E942228A3960FB6F894DEBF0FBE78
:10152000CDBFDF91CF911F910F91FF90EF90DF9092
:10153000CF90BF90AF909F908F907F906F905F9073
:101540004F903F902F9008951D99A9CF90936501DA
:1015500060E086E592E00E94341D61E0D4CF1D99E1
:10156000DACF9093650161E086E592E00E943A1D32
:10157000D2CF1D9BD0CF1092650122ED31E0309388
:1015800004012093030110926F0110926401809373
:10159000000126E040E950ED63E070E089EA93E065
:1015A0000E94C62760E086E592E00E943A1D61E055
:1015B00086E592E00E94341D0E94E007ACCF8111C5
:1015C0002AC080916501811106C06BEC7BE089EA3D
:1015D00093E00E940F2980916501811106C062EDA0
:1015E00071E089EA93E00E943329809165018111BD
:1015F00005C06F2D89EA93E00E943B298091650127
:10160000811106C068EC7BE089EA93E00E944629DC
:1016100081E080936401109200010C94B31A10824F
:10162000882381F0A82FB0E0AF52BE4F9C919D302F
:1016300049F4815080936F013197F0930401E09356
:1016400003011082809100018230A1F58091650133
:10165000811106C06FEA7BE089EA93E00E940F29BE
:101660008091650190916F019A3098F462ED71E07C
:101670008111D1CF89EA93E00E94332980916501DD
:101680008111C9CF60E371E089EA93E00E94582993
:10169000C2CF1092DB01811106C062ED71E089EAD0
:1016A00093E00E943329809165018111B4CF6CE2EF
:1016B00071E0E0CF8130C9F4809164018111ABCF3A
:1016C00080916501811106C062E97BE089EA93E0BF
:1016D0000E940F298091650181119ACF62ED71E01E
:1016E00089EA93E00E94582993CF809112018130BA
:1016F00011F08430F1F480916501811106C064E835
:101700007BE089EA93E00E940F29809165018111B5
:1017100006C062ED71E089EA93E00E94332980916E
:101720006501811106C063E371E089EA93E00E94DC
:10173000582987ED91E0909304018093030144E0E0
:1017400050E065E371E082ED91E00E94282B6C018E
:10175000892B11F00C94B31A8091D601873509F4C6
:101760005CC40CF0FFC08B3409F41CC10CF072C0D7
:10177000863409F405C1E4F4882309F4C0C18A322F
:1017800009F4D2C180916501811106C06BE174E05A
:1017900089EA93E00E940F298091650181110C94E0
:1017A000B31A609103017091040161507109D7C1AE
:1017B000873409F49AC3883429F780911201882369
:1017C00051F080916501811106C068E478E089EAF2
:1017D00093E00E940F29BE016B5E7F4F8091030151
:1017E000909104010E94AD09019799F48D8980932D
:1017F0006B0180911201882311F40C94B31A80912B
:101800006501811106C060E478E089EA93E00E94F6
:101810000F2980916501811106C06DE378E089EAA6
:1018200093E00E940F298091650190916B019031A6
:1018300038F4811105C060E389EA93E00E943B29F6
:101840008091650140E150E060916B0181110C9441
:10185000B31A97C3843509F4C1C00CF03FC08C346F
:1018600009F40CC58F3409F08DCF809112018823C3
:1018700051F080916501811106C061ED77E089EA40
:1018800093E00E940F296DE071E080910301909137
:1018900004010E949C090197B9F480910D01909177
:1018A0000E010E94241F80911201882311F40C94D0
:1018B000B31A8091650181110C94B31A69EC77E039
:1018C00089EA93E00E940F298091650181110C94AF
:1018D000B31A60910D0170910E01C0C1853509F4F4
:1018E00056C3863509F04ECF80916501811106C03F
:1018F00062E378E089EA93E00E940F29BE01695E05
:101900007F4F80910301909104010E949C090197EF
:10191000C9F48F89988D059720F084E090E0988F26
:101920008F8B80916501811106C06AE278E089EAB7
:1019300093E00E940F296F896093120182E090E08A
:101940000E94500780916501811108C04AE050E073
:101950006091120189EA93E00E94422A0E94E00706
:101960000C94B31A8C3609F489C46CF5873609F4E3
:10197000BCC294F4883509F482C0863609F002CFDF
:10198000809154028111F1C08091650167E27BE092
:1019900081110C94B31AC2C0883609F40ECF8B366D
:1019A00009F0F0CE80916501811106C063EA76E00E
:1019B00089EA93E00E944629E0916901F0916A0169
:1019C00009950C94B31A853709F4E1C20CF04FC0A5
:1019D0008F3609F44ACF843709F0D4CE80911201B2
:1019E000882351F080916501811106C061E278E0A1
:1019F00089EA93E00E940F296FE071E08091030172
:101A0000909104010E949C09019739F580910F0182
:101A100090911001029780F482E090E09093100181
:101A200080930F0180916501811106C069EE77E016
:101A300089EA93E00E940F2980911201882311F412
:101A40000C94B31A8091650181110C94B31A61EE64
:101A500077E089EA93E00E940F2980916501609107
:101A60000F017091100181110C94B31AF7C08737E0
:101A700009F4D3C20CF438CF883709F083CE8091B3
:101A80001201882351F080916501811106C067EA37
:101A900077E089EA93E00E940F29BE01695E7F4FDB
:101AA00080910301909104010E949C09813091056D
:101AB000E1F42F89388D232B11F0988F8F8B8F892C
:101AC00080930C010E94692280911201882311F4F5
:101AD0000C94B31A8091650181110C94B31A6FE9CB
:101AE00077E089EA93E00E940F29809165018111D6
:101AF0000C94B31A4AE050E060910C0142C280910C
:101B00001201813021F0843011F00C94B31A8091CD
:101B100065016EE67BE081110C94B31A89EA93E0CB
:101B20000E9446290C94B31A80911201813021F051
:101B3000843011F00C94B31A80916501811106C0B4
:101B400061E67BE089EA93E00E940F2980916501BC
:101B5000609103017091040181110C94B31A89EA18
:101B600093E00E9458290C94B31A80914C02882368
:101B700041F0809165016AEF7AE081110C94B31A0B
:101B8000CDCF84E492E09F938F9388E492E09F937B
:101B90008F938AE492E09F938F938AE391E09F93DF
:101BA0008F9387ED91E09F938F930E94362B9C8BB0
:101BB0008B8B0FB6F894DEBF0FBECDBF20916501B1
:101BC000039709F043C180914A028833F1F08B33C7
:101BD000E1F0211106C06EEE7AE089EA93E00E94FE
:101BE0000F2980916501811108C040E150E06091AA
:101BF0004A0289EA93E00E943B2A8091650169EDDF
:101C00007AE081110C94B31A89CF40914802509127
:101C100049024231510588F4BA016B7F6330710586
:101C200061F04530510549F0FA013997379728F0AE
:101C300040315105D9F48833E1F4211106C067E839
:101C40007AE089EA93E00E940F2980916501609112
:101C500048027091490281110C94B31A4AE050E095
:101C600089EA93E00E945A2A0C94B31A4131510533
:101C700011F38091440290914502A0914602B091E7
:101C800047028F3F9105A105B105F1F0E8F0211160
:101C900006C065E77AE089EA93E00E940F29809107
:101CA000650181110C94B31A409144025091450290
:101CB00060914602709147022AE030E089EA93E0A1
:101CC0000E946C2A0C94B31A4115510559F40297DD
:101CD000A105B10508F454C063E47AE021110C9425
:101CE000B31A1CCF4130510579F480569109A109EE
:101CF000B1090897A105B10508F442C06DEF79E07C
:101D000021110C94B31A0ACF6230710599F44C0179
:101D10005D013AE0831A9108A108B108E5E18E1649
:101D20009104A104B10430F068EA79E021110C9427
:101D3000B31AF4CE4430510519F04830510599F4E6
:101D40004C015D01F1E18F1A9108A108B10831E45D
:101D500083169104A104B10430F021110C94B31A3C
:101D600065E579E0DBCE4131510551F40497A105D9
:101D7000B10530F064E179E021110C94B31ACECEB4
:101D800080910A01882309F45BC08F3F19F08150CC
:101D900080930A0181E080934C02211106C06EEE0F
:101DA00078E089EA93E00E940F2980916501811112
:101DB00008C040E150E060914A0289EA93E00E9445
:101DC0003B2A80916501811106C06FED78E089EAB8
:101DD00093E00E940F298091650181110AC06091F2
:101DE0004802709149024AE050E089EA93E00E947B
:101DF000542A80916501811106C062ED78E089EA7C
:101E000093E00E940F298091650181110EC04091DD
:101E1000440250914502609146027091470220E1D0
:101E200030E089EA93E00E942E2A809165018111B9
:101E30000C94B31A89EA93E00E9442290C94B31AD5
:101E400061EB78E021110C94B31A68CE211106C021
:101E500068E778E089EA93E00E940F296B897C8922
:101E600080916501811106C04AE050E089EA93E063
:101E70000E94032A809165012B893C891216130662
:101E8000A4F4811106C060E778E089EA93E00E943B
:101E90000F2980916501811108C040E150E06091F7
:101EA0004A0289EA93E00E943B2A809165012B89CE
:101EB0003C89223031050CF4B8CF811106C06AE6A6
:101EC00078E089EA93E00E940F29809165018111F1
:101ED0000C94B31A60914802709149024AE050E0B4
:101EE00089EA93E00E94542AA0CF809112018823AE
:101EF00051F080916501811106C06FE578E089EAB3
:101F000093E00E940F29BE016B5E7F4F8091030119
:101F1000909104010E94AD09019799F48D898093F5
:101F2000020180911201882311F40C94B31A80915C
:101F30006501811106C067E578E089EA93E00E94B7
:101F40000F2980916501811106C064E578E089EA76
:101F500093E00E940F2980916501909102019031D8
:101F600038F4811105C060E389EA93E00E943B29BF
:101F70008091650140E150E06091020181110C9473
:101F8000B31A89EA93E00E94422A0C94B31A809112
:101F90001201882351F080916501811106C067EB21
:101FA00077E089EA93E00E940F29BE01695E7F4FC6
:101FB00080910301909104010E949C090197E1F432
:101FC0008F8980935502823018F081E0809355020A
:101FD000809155020E94662280911201882311F49B
:101FE0000C94B31A80916501811112C06FEA77E0F9
:101FF00089EA93E00E940F2980916501811108C050
:102000004AE050E06091550289EA93E00E94422A3A
:1020100088EC809301010C94B31A809154028823B8
:1020200009F483C080915802811104C080915A0242
:10203000882341F0809165016AE677E081110C9474
:10204000B31A6CCD80911201882351F08091650103
:10205000811106C06DE477E089EA93E00E940F29C0
:1020600010925702109259028E010D5E1F4F6E01A1
:1020700081E1C80ED11CF4E4AF2EF1E0BF2EFF24A5
:10208000F3941F930F93DF92CF92BF92AF92809100
:1020900004018F93809103018F930E94362B0FB61A
:1020A000F894DEBF0FBECDBF019761F0809165014E
:1020B000909158029111BBCE69E277E081110C94A6
:1020C000B31A2CCD29893A89809157028F5F80936A
:1020D0005702F092580280910301909104014B89BC
:1020E0005C89840F951F9093040180930301809174
:1020F0001201882331F2809165012031310544F4C9
:10210000811106C06AE471E089EA93E00E943329F4
:10211000809165018111B5CF69897A8940E150E0EC
:1021200089EA93E00E94032AACCF809112018823B0
:1021300051F080916501811106C06DE177E089EA77
:1021400093E00E940F2902EB11E05E0123E1A20E51
:10215000B11C4E0131E1830E911CE4E46E2EE1E0EE
:102160007E2EBF92AF929F928F927F926F928091BC
:1021700004018F93809103018F930E94362B0FB639
:10218000F894DEBF0FBECDBF0197B1F529893A891A
:10219000FFEFCF1ADF0AF80121938F01809103012D
:1021A000909104014B895C89840F951F90930401E1
:1021B00080930301809112018823C9F08091650109
:1021C0002031310544F4811106C06AE471E089EAE6
:1021D00093E00E94332980916501811108C06989CB
:1021E0007A8940E150E089EA93E00E94032AF0E214
:1021F000CF16D10409F0B5CF80911201811118C01A
:102200000E94291F882329F1C114D104D1F0209103
:102210000F0130911001E0906B01009102014C2DF3
:1022200062EB71E086E592E00E94E8250C94B31A17
:10223000809165018111E4CF89EA93E00E944229EF
:10224000DFCF809165016CEF76E081110C94B31AB9
:1022500065CC80916501811106C06BEB76E089EA5F
:1022600093E00E94462980915C028F3F11F40C9408
:10227000B31A8F5F80935C020C94B31ABE01695E3F
:102280007F4F87ED91E00E949C09019709F0E0C023
:102290008F89988D8336910549F5809165019091DC
:1022A0005802992331F061E876E081110C94B31A59
:1022B00035CC90915A02992331F06FE576E0811187
:1022C0000C94B31A2BCC90915902911106C06DE277
:1022D00076E081110C94B31A21CC91E090935A02CC
:1022E00066E076E081110C94B31A18CC8630910523
:1022F00010F4049711F4188E1F8A8F89988D80FF2F
:1023000086C08091650190910901953030F467EBAA
:1023100075E081110C94B31A01CC90915402992369
:1023200011F1811106C06CE975E089EA93E00E9421
:102330000F2980916501811108C040E150E0609152
:10234000540289EA93E00E94422A8F89988D02976D
:1023500010F00C94B31A6091540290E080E00E9457
:1023600050070C94B31A909107019530E9F581114B
:1023700006C06CE275E089EA93E00E94462980EF8E
:10238000809354028F89988D21E08530910509F45E
:1023900020E02093110160EF029708F454C080916F
:1023A0001201882311F40C94B31A8091650169E439
:1023B00074E0882309F457C080916501909154021C
:1023C000903140F4811106C06AE471E089EA93E03B
:1023D0000E9433298091650140E150E060915402F0
:1023E00081110C94B31ACDCD811106C06CED74E04F
:1023F00089EA93E00E944629809165018111CFCF3F
:102400006DE774E089EA93E00E944629C8CF2091E5
:102410005402211108C08091650160E674E08111C9
:102420000C94B31A7BCB1092540210924F0210926C
:102430004E0210924D021092500210924C020297DE
:1024400008F0ADCF60E090E080E00E945007A7CF99
:102450008091650190911201992309F4ADCF81110A
:10246000ABCF66E374E089EA93E00E940F29A4CF22
:10247000809155028823A1F080910101FF2019F07D
:10248000863008F0A6C090919101903409F09EC06A
:1024900090919201903F09F099C0833308F099C060
:1024A000809101018F5F893C08F07EC28093010119
:1024B0001092AC028F2D8F7709F478C24114510429
:1024C0006104710409F45FC080915E028F3F29F0BE
:1024D0008F5F80935E02F0925D02809109018823F4
:1024E00009F451C081508093090181114CC0809141
:1024F0006501811106C063E573E089EA93E00E94FB
:10250000462980915202882351F080916501811102
:1025100006C06AE273E089EA93E00E94462980914E
:102520005402882351F080916501811106C064E056
:1025300073E089EA93E00E944629109254021092B7
:1025400052021092530280916501811106C067E822
:1025500072E089EA93E00E9446296091540290E07B
:1025600080E00E9450076091520281E090E00E945A
:10257000500710924F0210924E0210924D0210928C
:10258000500210924C028091910190915802911149
:102590009FC481110C94921B80919201811109C0FA
:1025A00080919301823129F4C092570281E0809397
:1025B000590280919201811199C4809193018F31C8
:1025C00009F094C485E08093670190C4873908F4CA
:1025D00067CF90916702911105C09091A902903F39
:1025E00009F45ECF85508093010180916501FF2041
:1025F00009F47BC062EF73E0882309F47AC080910C
:102600009101803148F480916501811105C060E33A
:1026100089EA93E00E943B2980916501811108C0FD
:1026200040E150E06091910189EA93E00E943B2AE9
:1026300080919201803148F480916501811105C03B
:1026400060E389EA93E00E943B2980916501811152
:1026500008C040E150E06091920189EA93E00E9455
:102660003B2A80919301803148F48091650181116A
:1026700005C060E389EA93E00E943B2980916501EF
:10268000811108C040E150E06091930189EA93E034
:102690000E943B2A80916501811105C060E289EAB0
:1026A00093E00E943B298091A902912C812C803FCC
:1026B00019F080906702912C312ED401AC56BD4F99
:1026C000EC9180916501E75FE93008F05EC0F0E0D1
:1026D000E459FC4E0C94222BC0139913BB13B11375
:1026E000A7137E13B613AC13A213811188CF6FEE1C
:1026F00073E089EA93E00E940F2981CF66EE73E0D0
:102700008823D9F09FEF891A990AE6E18E16910481
:1027100011F4912C812C809167028815190469F6B7
:10272000809165018111BCCE89EA93E00E94422923
:10273000B7CE6DED73E08111E5CF89EA93E00E9499
:102740000F29E0CF64ED73E08111DCCFF6CF6BECA5
:1027500073E08111D7CFF1CF62EC73E08111D2CF5A
:10276000ECCF69EB73E08111CDCFE7CF60EB73E085
:102770008111C8CFE2CF67EA73E08111C3CFDDCF0B
:102780008111C0CF6EE973E0D8CF0C91007E6C91BF
:102790006F71698FF401EE0FFF1FFF8FEE8F311005
:1027A0004CC0003439F4811105C060E289EA93E03D
:1027B0000E943B29EE8DFF8DE859FD4F208031802E
:1027C0008091620190916301281A390A43E036949E
:1027D00027944A95E1F7FAE02F16310498F4809196
:1027E0006501811105C060E289EA93E00E943B29FE
:1027F00080916501811121C060E289EA93E00E9425
:102800003B2904C024E62216310490F3809165012F
:10281000811113C04AE050E0B10189EA93E00E94BF
:10282000542A80916501003409F464C7811105C000
:102830006AE389EA93E00E943B29EE8DFF8DE85917
:10284000FD4F80819181909363018093620180911B
:102850006501003691F148F4002309F1003409F4D0
:1028600053C760E2811161C06DC0003A21F0003CA5
:1028700011F00038B1F7F98DFA3008F04DC0F230A0
:1028800008F475C0811151C0898D8250990BBC012B
:102890004AE050E089EA93E00E94032A57C0811180
:1028A00005C06FE389EA93E00E943B2980916501AE
:1028B0006CE873E081116FC072C0398D333140F420
:1028C0003330D8F4313078F4811110C060E206C0A2
:1028D000998D9531C8F760E5811108C089EA93E0C8
:1028E0000E943B2903C063E58823C1F38091650101
:1028F00066E873E081114FC052C08111F7CFE98DB6
:10290000E350FF0BBF01759567954AE050E089EAF7
:1029100093E00E94032AEACF298D2A3081F02B30E0
:1029200009F09FCF65E4882369F00036F9F208F0DA
:10293000FDC6002309F4BACF003469F5ECC660E5A2
:102940008111F3CF89EA93E00E943B29003671F2AE
:1029500080916501013678F4002309F4A7CF003493
:1029600009F4D9C6811117C06CE773E018C0811152
:10297000DCCF63E5E7CF003A51F0003C09F4CBC669
:10298000003881F760E973E0882349F004C0809142
:102990006501882311F0312CB5CE6AE973E089EA2C
:1029A00093E00E940F29F7CF88EC80CD90919101A0
:1029B000F110E9CDFAE0CF16D104FCF091111DC061
:1029C00080919201811119C0809193018231A9F403
:1029D000809197018093430220910B01821769F047
:1029E00020915202222339F020915302211103C079
:1029F00021E02093530280930B01809107018530E1
:102A000009F0B0C080915302882309F4ABC025E0DF
:102A1000C216D1040CF4B7CD9111A9C090919201C6
:102A2000903F09F0A4C090919301903309F09FC0AA
:102A3000982F9370913009F090C01092B2011092CB
:102A4000B30198EB9093B40190E095958795959597
:102A500087958093B5010E94291F982E882309F439
:102A600069C0E0906B01009102012EE130E044E08A
:102A700062EB71E086E592E00E94E825192D8091D5
:102A800053028F5F863109F46AC0809353028091AC
:102A90009101803409F06DC080919201982F9E7F42
:102AA000903F09F070CD90919301292F207320332E
:102AB00009F069CDE82FE170EC8F1D8E903329F479
:102AC000EC8DFD8DEB5FFE4F108229813A812C3118
:102AD000310508F058CDEC8DFD8DE95FFE4F108279
:102AE0009091540289134FCD80916501811106C0E8
:102AF00063EF71E089EA93E00E940F2980916501FC
:102B0000811108C040E150E06091920189EA93E0B0
:102B10000E943B2A80916501811106C069EE71E037
:102B200089EA93E00E9446291092540260E090E006
:102B300080E01DCD80916501811106C066E372E0E1
:102B400089EA93E00E94462980915C028F3F09F454
:102B500096CF8F5F80935C0292CF10E090CF10925F
:102B6000530295CF35E0C316D1040CF40CCD10E020
:102B70008ECF811108CD80919201982F9E7F903F3A
:102B800009F001CD90919301292F2073203309F092
:102B9000FACC1111F8CC903309F041C081708A8FC2
:102BA0001B8EEA8DFB8DEB5FFE4F8081823014F42B
:102BB0008F5F8083EA8DFB8DE95FFE4F80818530DA
:102BC00074F58F5F8083853051F5809165018111A7
:102BD00006C067EB71E089EA93E00E940F298091BB
:102BE0006501811108C040E150E06091920189EADD
:102BF00093E00E943B2A809165012091920190917F
:102C00005402291370C0811106C069E871E089EA95
:102C100093E00E9446291092580210925A02809125
:102C20005402882379F0F82FF170F8A319A2E8A1D3
:102C3000F9A1E95FFE4F9081953021F490919201C6
:102C4000891791F09091580280919101911105C0DE
:102C500090915A02992309F49CCC811194CC8091D3
:102C60009201803F09F08FCC80E48093B201809183
:102C700092018093B301809193018093B40180917C
:102C8000020181111AC021E2C216D104B1F480916F
:102C90006501811106C064E171E089EA93E00E9458
:102CA0000F2980916501811108C04AE050E061E27E
:102CB00070E089EA93E00E940A2AE0919301E053D0
:102CC000EB3008F060CCF0E0E859F94E0C94222B80
:102CD0004F17C3127C16C312C312AE16AE16C31220
:102CE000BA161F17351781119ACF60E471E089EA8F
:102CF00093E00E94462993CF11E080911101811148
:102D000001C010E081E08093B501B4E68B2E912CD8
:102D100004E0302E112309F436CC0E94291F8823A9
:102D200009F4C3C0E0906B01009102019401432DAE
:102D300062EB71E086E592E00E94E82580914B020B
:102D40002091350230913602820F932F911D90937E
:102D500036028093350210924B0215CC11E080911F
:102D60001101811101C010E0FEE18F2E912CA3E032
:102D70003A2ED0CF11E080911101811101C010E0F5
:102D80002091940121702093B50180919601809348
:102D9000B601809198018093B7011092B80180919B
:102DA0009A018093B9011092BA0180919C0180939D
:102DB000BB011092BC0180919E018093BD01809166
:102DC0009F018093BE011092BF011092C00110922A
:102DD000C1019091A3019093C2011092C30110927E
:102DE000C4011092C50180914C02882311F13091E9
:102DF0004A023833F1F4E0914802F09149024091DF
:102E0000440250914502609146027091470230970A
:102E100051F4211108C0411551056105710519F0E2
:102E200090629093C201EE54FE4F43838150809391
:102E30004C023EE1832E912C44E1342E6BCF11E005
:102E400080911101811101C010E01092B501109222
:102E5000B6011092B7011092B8011092B9017EE14B
:102E6000872E912CE8E03E2E55CF11E08091110184
:102E7000811101C010E01092B5011092B6011092BC
:102E8000B7011092B8011092B9011092BA011092D4
:102E9000BB015EE1852E912C6BE0362E3BCF94E694
:102EA000892E912C23E0322E38CF8091650181113B
:102EB00006C06CEB70E089EA93E00E94462980919D
:102EC0005C028F3F09F447CF8F5F80935C0243CF52
:102ED000803409F035C180919201811107C0809141
:102EE0009301803119F485E080936801FF2009F493
:102EF0003AC18091650169EB70E0882309F43FC114
:102F00008091120180FD03C0FF2009F462C080910E
:102F10006501811106C063EB70E089EA93E00E94CD
:102F20000F2989819A818031974250F480916501FF
:102F3000811106C061EB70E089EA93E00E940F29DD
:102F400089819A81883E934048F48091650181117E
:102F500005C060E389EA93E00E943B298091650106
:102F6000811106C06FEA70E089EA93E00E940F29A0
:102F700089819A818436910548F480916501811197
:102F800005C060E389EA93E00E943B2989819A8128
:102F90000A9748F480916501811105C060E389EAD0
:102FA00093E00E943B2980916501811108C06981ED
:102FB0007A814AE050E089EA93E00E94542A8091A5
:102FC0006501811106C06CEA70E089EA93E00E9415
:102FD0000F2980911201843018F0FF2009F448C3B2
:102FE00001E911E04601F1E08F1A91088091650135
:102FF0009801215931402C153D050CF0C5C0909128
:103000001201992361F0F501908190FF08C08111B0
:1030100006C067EA70E089EA93E00E940F29809178
:103020001201882371F0F501808181FF0AC080912F
:103030006501811106C062EA70E089EA93E00E94AE
:103040000F2980911201882371F0F501808185FF9D
:103050000AC080916501811106C06DE970E089EABE
:1030600093E00E940F2980911201882371F0F501ED
:10307000808182FF0AC080916501811106C068E9E4
:1030800070E089EA93E00E940F29F80131908F01E6
:10309000809102018823A9F080911201813089F486
:1030A0008AA19BA18E0F9F1F8816990651F48091CB
:1030B000650181110FC262E970E089EA93E00E9424
:1030C0000F29FFE0F31548F080916501811110C0D0
:1030D00060E389EA93E00E943B29809165018111B8
:1030E00007C040E150E0632D89EA93E00E943B2A4B
:1030F00080911201882371F0F501808183FF0AC05D
:1031000080916501811106C06DE870E089EA93E065
:103110000E940F2980911201882371F0F5018081AE
:1031200084FF0AC080916501811106C062E870E0E9
:1031300089EA93E00E940F29FFEFAF1ABF0A56CF2A
:10314000882309F436CA803809F0D0CE80919201E4
:103150008111CCCE80919301883109F0C7CE85E0F2
:1031600080936601C3CE809112018150833008F0B4
:10317000C7CE809165018111C3CE66EB70E089EA0C
:1031800093E00E940F29BCCEFF2089F1811106C077
:1031900064E770E089EA93E00E940F292FE02F1581
:1031A00048F080916501811105C060E389EA93E0F0
:1031B0000E943B2980916501811105C060E389EA85
:1031C00093E00E943B2980916501811105C060E375
:1031D00089EA93E00E943B2980916501811148C2F0
:1031E00040E150E06F2D89EA93E00E943B2A8091F4
:1031F000650181113DC289EA93E00E94422938C2EB
:1032000080916801853008F470C0109268011092B6
:10321000B2011092B3018DE08093B40180916E01F0
:10322000882309F44EC1CE0101966C01FE01399646
:103230007F018E01055F1F4F9E012B5F3F4FAE0147
:10324000435F5F4FBE01615F7F4F86E592E00E9462
:10325000D41C8F8598899093B5018093B6018D8594
:103260009E859093B7018093B8018D819E812F81B7
:1032700038853093B9012093BA019093BB018093B4
:10328000BC018B859C859093BD018093BE0189858F
:103290009A859093BF018093C00189819A812B8187
:1032A0003C813093C1012093C2019093C30180936C
:1032B000C401809111018093C50190915402911134
:1032C00001C080E08093C6011092C7011092C8012E
:1032D00080916501811109C080911201843028F428
:1032E00067E182EB91E00E94BE0980916701853021
:1032F00008F458C0109267011092B2011092B30105
:103300008EE08093B4017092B5016092B601509244
:10331000B7014092B8011092B9018AE78093BA01CF
:1033200082E18093BB011092BC0180915C0280938A
:10333000BD01809152028093BE018091530280931F
:10334000BF0180915B028093C00180914C02809309
:10335000C10180914A028093C201809148029091FC
:1033600049029093C3018093C401809144029091DB
:10337000450220914602309147023093C5012093C7
:10338000C6019093C7018093C801809165018111A6
:1033900009C080911201843028F467E182EB91E04A
:1033A0000E94BE0980916601853010F40C948B0A4E
:1033B000109266011092B2011092B3018FE08093D7
:1033C000B4018DE58093B501B0901201B092B601C1
:1033D000809151028093B70180910A018093B801D6
:1033E000809109018093B901809135029091360254
:1033F0009093BA018093BB0180910F0190911001CD
:103400009093BC018093BD0180910D0190910E01BC
:103410009093BE018093BF0180916E018093C001A3
:1034200090E080E00E9464078093C10182E090E018
:103430000E9464078093C20181E090E00E946407CB
:103440008093C3018BE1C82E81E0D82E00E110E00B
:10345000FF24F394C8010E946407F60121916F01D3
:10346000022E000C330B91E08217130609F090E056
:10347000F9220F5F1F4F0931110561F7F092C40166
:10348000809155028093C50180915E028093C601B0
:1034900080915D028093C701809154028093C8019E
:1034A0008091650181110C948B0AF3E0FB1510F4F7
:1034B0000C948B0A67E182EB91E00E94BE090C94A8
:1034C0008B0AE5EBF1E085EC91E011928E179F07F6
:1034D000E1F7EFCE2FE0231508F40ECEF5CD8336BD
:1034E00011F00C940F0BF2901082809164010A305D
:1034F000110511F40C94DF0A811132C0809165012D
:10350000811106C067EF7BE089EA93E00E940F29F2
:1035100080916501811106C062ED71E089EA93E056
:103520000E94332980916501811105C06F2D89EAC0
:1035300093E00E943B2980916501811107C04AE018
:1035400050E0B80189EA93E00E94032A8091650166
:10355000811106C064EF7BE089EA93E00E9446296E
:1035600081E08093000182ED91E0909304018093CB
:10357000030110926F0186E592E00E9427262B013D
:103580003C0180913F0290914002A0914102B09194
:10359000420284159505A605B705BCF48091680123
:1035A0008F5F80936801809167018F5F80936701CF
:1035B000809166018F5F8093660140923F02509236
:1035C0004002609241027092420280913B029091CF
:1035D0003C02A0913D02B0913E02AC01BD01415FB1
:1035E000514F6F4F7F4F44155505660577059CF485
:1035F00020910A01243618F42F5F20930A01805F7E
:10360000914FAF4FBF4F80933B0290933C02A093EA
:103610003D02B0933E028091370290913802A09112
:103620003902B0913A02AC01BD01415F514F6F4F79
:103630007F4F44155505660577059CF420910901D7
:10364000243118F42F5F20930901805F914FAF4F11
:10365000BF4F8093370290933802A0933902B09302
:103660003A0281E991E09C01209530953BA32AA381
:1036700086E592E00E943325182F882309F4C0CDF7
:10368000C0906B01E090020101E220E731E0AE0161
:103690004F5F5F4F61E971E086E592E00E9465252A
:1036A0006C01F12C8297B4F080916501811106C004
:1036B00065EF73E089EA93E00E94462980915B02FE
:1036C0008F3F19F08F5F80935B0271E2C72ED12C80
:1036D000FF24FA9460E7A62E61E0B62EF501CF0133
:1036E000805791408C159D0514F00C9438128191EF
:1036F000F82AF5CFEE8DFF8DE859FD4F20813181FD
:103700003093630120936201811105C060E289EA70
:1037100093E00E943B298091650160E873E081118C
:103720003AC93DC9803409F00ECDD5CB003A09F431
:103730002EC9003C09F02FC9EECF1F920F920FB691
:103740000F921124CF92DF92EF92FF922F933F932B
:103750004F935F936F937F938F939F93AF93BF9399
:10376000809178002091790030E0322F2227820F5B
:10377000932F911DB0E0A0E020911601222309F4BF
:1037800093C0109216012091A50320937C002091F4
:103790009703309198032F5F3F4F30939803209306
:1037A000970340919103509192036091930370911C
:1037B0009403840F951FA61FB71F809391039093C6
:1037C0009203A0939303B0939403A901542F442729
:1037D0005295507F452B09F051C040918D03509177
:1037E0008E0360918F0370919003480F591F6A1FD9
:1037F0007B1F40938D0350938E0360938F037093D0
:103800009003C0901901D0901A01F12CE12C8C1575
:103810009D05AE05BF0520F490931A018093190110
:10382000C090A303D090A403F12CE12CC816D906B4
:10383000EA06FB0620F49093A4038093A30310925E
:103840009103109292031092930310929403A4E0B8
:10385000220F331FAA95E1F7232B81F440939F0396
:103860005093A0036093A1037093A20310928D0361
:1038700010928E0310928F03109290038EED80931E
:103880007A00BF91AF919F918F917F916F915F91DE
:103890004F913F912F91FF90EF90DF90CF900F903D
:1038A0000FBE0F901F90189521E0209316012091D4
:1038B000A60320937C0020919503309196032F5FFF
:1038C0003F4F309396032093950340918903509185
:1038D0008A0360918B0370918C03840F951FA61F40
:1038E000B71F8093890390938A03A0938B03B093AF
:1038F0008C03A901542F44275295507F452B09F082
:10390000BDCF4091850350918603609187037091EC
:103910008803480F591F6A1F7B1F409385035093EC
:1039200086036093870370938803C0901701D0903B
:103930001801F12CE12C8C159D05AE05BF0520F476
:103940009093180180931701C0909D03D0909E031F
:10395000F12CE12CC816D906EA06FB0620F4909358
:103960009E0380939D031092890310928A03109204
:103970008B0310928C0384E0220F331F8A95E1F7AA
:10398000232B09F07BCF4093990350939A036093C4
:103990009B0370939C0310928503109286031092F0
:1039A0008703109288036ACFCF92DF92EF92FF9243
:1039B0000F931F938091A803882309F44EC086E8D3
:1039C00080937A008091190190911A01FB019183F3
:1039D00080838091A3039091A403FA019183808353
:1039E00080919F039091A003A091A103B091A203A5
:1039F000F90180839183A283B38380911701909111
:103A00001801F8019183808380919D0390919E031A
:103A1000F701918380838091990390919A03A091FB
:103A20009B03B0919C03F60180839183A283B383AF
:103A300080EF9FE390931A01809319011092A403E1
:103A40001092A303909318018093170110929E0384
:103A500010929D038EE880937A001F910F91FF9042
:103A6000EF90DF90CF900895662311F0429A089569
:103A700042980895662311F05B9A08955B98089523
:103A80008F929F92AF92BF92EF920F93CF93DF935B
:103A90004B015C01D42FC22F96958795779567953A
:103AA0007E5E85489F4FA50194010E94002B3093B4
:103AB000840320938303B90176956795CB01820F28
:103AC000931F9093820380938103C901F3E096953D
:103AD0008795FA95E1F7860F971F9093800380935F
:103AE0007F03569547953795279530937E0320930E
:103AF0007D03C901880F991F280F391F30937C035C
:103B000020937B0361E082E00E94592661E086E019
:103B10000E94592661E085E00E94592661E083E019
:103B20000E945926E092A703429A8091A703882316
:103B300009F4A4C05E988091A703882309F4A0C06B
:103B40005D985B9A62E088E00E94592661E089E016
:103B50000E94952661E089E00E9459261092BB02DE
:103B60001092BA0210927A03109275038FEF80932D
:103B700074031092730310920E0310920D031092AF
:103B80000803109207031092B9021092B80282E063
:103B900084BD94E095BD99EF97BD1092B302109249
:103BA000B4021092B5021092B6021092AF021092B7
:103BB000B0021092B1021092B20216BC21E023BDF5
:103BC00085BB80936E008093B00023E02093B1000A
:103BD0009093B30083BD1092B2001092BB0210927A
:103BE000BA0287BB8093700010926F001092800021
:103BF00081E880938100809181008F7B8093810098
:103C000080918000806C8093800080918200806829
:103C10008093820080E286BB80916F0080628093F7
:103C20006F00D093A803DD2301F18C2F806C80936B
:103C3000A603802F806C8093A50321E030E0C901AA
:103C400001C0880FCA95EAF701C0220F0A95EAF76A
:103C5000822B8F7380937E008091A60380937C00DB
:103C600010927B008EED80937A00DF91CF910F91BF
:103C7000EF90BF90AF909F908F9008955E9A5BCF2A
:103C80005D9A5FCF1F920F920FB60F9211248F9300
:103C90009F93AF93BF938091AF029091B002A09198
:103CA000B102B091B2020896A11DB11D8093AF027E
:103CB0009093B002A093B102B093B2028091B70288
:103CC0008F5F8093B7028D37A8F01092B702809172
:103CD000B3029091B402A091B502B091B6020196E0
:103CE000A11DB11D8093B3029093B402A093B502BD
:103CF000B093B602BF91AF919F918F910F900FBE7D
:103D00000F901F9018951F920F920FB60F921124CB
:103D10002F933F938F939F938091BA029091BB0210
:103D2000019649F08091BA029091BB02019690935E
:103D3000BB028093BA0280910E03833609F06FC0F4
:103D40002091BA023091BB028091B8029091B902E1
:103D500028173907C1F02091BA023091BB02809137
:103D6000B8029091B9022817390708F458C0209179
:103D7000BA023091BB02809114019091150128176D
:103D8000390708F44CC081E080930E0320917B0337
:103D900030917C038091AD02882321F08091AC02A8
:103DA00091E0811190E09093AE028091AE02882361
:103DB00051F081E08093AC021092670280EF809313
:103DC000A9021092AB0290916F009F7D90936F00BB
:103DD00090916F009B7F90936F0010927000809184
:103DE000840090918500820F931F909389008093A7
:103DF0008800809180008F7B806880938000809114
:103E000081008F7B80938100B19A80916F008260E6
:103E100080936F008091A703882351F05D989F9154
:103E20008F913F912F910F900FBE0F901F9018957B
:103E30005D9AF5CF8230910510F482E090E0909386
:103E40006602809365020895909315018093140192
:103E50000895209107039091080381E0291380E0E1
:103E60000895909108039F5F993108F090E02091A8
:103E700007032917E1F36FB7F89420910E034091DF
:103E80006502509166022223A9F0292F30E0F90142
:103E9000E251FD4F8083220F331FF901E454FD4F9F
:103EA000518340831092660210926502909308033A
:103EB0006FBF089580930C0380930A031092090347
:103EC000109264021092630283E680930E03509373
:103ED000B9024093B8021092660210926502E8CFD0
:103EE0001F920F920FB60F9211242F933F934F936F
:103EF0005F936F937F938F939F93EF93FF93809143
:103F00000E0340918400509185006091880070916B
:103F100089005B98843108F0AFC120917D03309116
:103F20007E03260F371F309389002093880093B1BA
:103F3000917080FFE8C020918000206C2093800069
:103F400020918100206420938100813009F05EC0BF
:103F50002091BA023091BB02309362022093610239
:103F600010927000911192C01092630293B19170FF
:103F7000B59B59C1209186003091870040E246BB35
:103F8000992309F432C19091AE02992359F190918D
:103F9000AA02911104C09091AB02911123C0E0914B
:103FA0006702F0E0EE0FFF1FE859FD4F31832083D9
:103FB000E0916702F0E0EC56FD4F982F90669083F9
:103FC000909167029F5F90936702963111F410926F
:103FD00067029091AB02992329F09091AA02915027
:103FE0009093AA0280930D038F5F80930E03FF913D
:103FF000EF919F918F917F916F915F914F913F9141
:104000002F910F900FBE0F901F901895833169F478
:1040100022E023BD1092B20061E070E07093BB0219
:104020006093BA0227BB2093700020910B032917DD
:1040300009F49CCF909163029260909363029091F7
:10404000AE02992309F492CF9091AA02911104C073
:104050009091AB0291118ACF9091AB02911106C061
:1040600091E09093AB029BE09093AA02E0916702EB
:10407000F0E0EE0FFF1FE859FD4F51834083E091C0
:104080006702F0E0EC56FD4F9CEF28C0809363027E
:104090009091AE02992309F469CF9091AA029111EF
:1040A00004C09091AB02911161CF9091AB0291113C
:1040B00006C091E09093AB029BE09093AA02E0913E
:1040C0006702F0E0EE0FFF1FE859FD4F5183408378
:1040D000E0916702F0E0EC56FD4F9FEF90839091E6
:1040E00067029F5F90936702963111F41092670206
:1040F0009091AB02992309F439CF9091AA02915083
:104100009093AA0233CF823108F05FC020910C0354
:10411000622F617020FD0BC0209180002F7B2068F2
:1041200020938000209181002F7B2093810020919B
:10413000090326272093090320910C0330E03595CD
:10414000279520930C0391113DC0909163029062DA
:10415000909363029091AE029923A1F19091AA02EB
:10416000911104C09091AB0291112CC09091AB02BF
:10417000911106C091E09093AB029BE09093AA024C
:10418000E0916702F0E0EE0FFF1FE859FD4F518309
:104190004083E0916702F0E0EC56FD4F9EEF908384
:1041A000909167029F5F90936702963111F410928D
:1041B00067029091AB02992329F09091AA02915045
:1041C0009093AA0260930B03D1CE60910903611111
:1041D000BACF209180002F7B20682093800020910F
:1041E00081002F7B20938100AECF9091AE02992366
:1041F00009F4F8CE9091AA02911104C09091AB02FB
:104200009111F0CEE0916702F0E0EE0FFF1FE85948
:10421000FD4F31832083E0916702F0E0EC56FD4FC3
:10422000982F9064CCCE9111DDCE9091AE0299235F
:1042300009F4D8CE9091AA02911104C09091AB02DA
:104240009111D0CE9091AB02911106C091E0909364
:10425000AB029BE09093AA02E0916702F0E0EE0FC0
:10426000FF1FE859FD4F51834083E0916702F0E062
:10427000EC56FD4F97EFA3CE93B19170B59BC3C0A1
:10428000409186005091870030E236BB992309F4B3
:10429000A2C09091AE02992351F19091AA0291117E
:1042A00004C09091AB02911122C0E0916702F0E04E
:1042B000EE0FFF1FE859FD4F518340838066E09168
:1042C0006702F0E0EC56FD4F8083809167028F5FBC
:1042D00080936702863111F4109267028091AB02DD
:1042E000882329F08091AA0281508093AA028091AC
:1042F0006302882329F05B9A809108038093070367
:1043000080911301882339F1E091750321E02E0F8C
:10431000293108F020E080917303821709F49CC0D2
:10432000822F90E030910A03FC01E65AFC4F308363
:104330004091610250916202FC01EE0FFF1FE15FAC
:10434000FC4F51834083309163028F5B9C4FFC0193
:104350003083209375039091080380910703981789
:1043600009F4AAC08F5F893108F080E080930703C9
:1043700090E0FC01E251FD4F308130930C0330930B
:104380000A03880F991FFC01E454FD4F808191813D
:1043900010926402109209038230910508F067C000
:1043A000809188009091890020917B0330917C035B
:1043B000820F931F909389008093880080918000E2
:1043C0008F7B806880938000809181008F7B8093B9
:1043D000810081E00ACE9091AE02992309F487CF43
:1043E0009091AA02911104C09091AB0291117FCFDC
:1043F000E0916702F0E0EE0FFF1FE859FD4F518397
:10440000408380645CCF911172CF8091AE0288238B
:1044100009F46DCF8091AA02811104C08091AB0292
:10442000811165CF8091AB02811106C081E080933C
:10443000AB028BE08093AA02E0916702F0E0EE0FFE
:10444000FF1FE859FD4F51834083E0916702F0E080
:10445000EC56FD4F87EF38CF20917503E22FF0E047
:10446000EF5BFC4F8081886080835B9A74CF33E67A
:1044700030930E039093B9028093B80280916F003D
:104480008D7F80936F00809181008F7B809381006E
:1044900080E286BB80916F00806280936F00E22F84
:1044A000F0E0EF5BFC4F8081806880838091A70300
:1044B000882329F05D9A9BCD10920E03DFCF5D9883
:1044C00096CD80910E038111FCCF08958093AD02AB
:1044D00008958093130108951F920F920FB60F92C3
:1044E00011242F933F934F935F936F937F938F93F9
:1044F0009F93EF93FF9320918600309187008091E6
:1045000084009091850080917A038111E1C090919F
:10451000A703992309F482C05E989091A703992379
:1045200009F47EC05D9A5B98909174039F3F39F0C7
:1045300090917403909375039FEF9093740340914F
:10454000BA025091BB0250936202409361021092F2
:1045500070004091810350918203420F531F50938A
:1045600077034093760392E090937A031092780356
:1045700050938B0040938A0094E096BB90916F001B
:10458000946090936F00811116C09091AC029111CC
:1045900012C09091AD029093AE029091AE02992319
:1045A00051F091E09093AC021092670290EF9093DB
:1045B000A9021092AB029091AE02992351F1909111
:1045C000AA02911104C09091AB02911122C0E09116
:1045D0006702F0E0EE0FFF1FE859FD4F31832083A3
:1045E000806CE0916702F0E0EC56FD4F8083809193
:1045F00067028F5F80936702863111F41092670221
:104600008091AB02882329F08091AA028150809387
:10461000AA023093600220935F0232C05E9A7DCF7F
:104620005D9881CF9091AE02992351F19091AA02A9
:10463000911104C09091AB02911122C0E0916702E8
:10464000F0E0EE0FFF1FE859FD4F31832083806AB1
:10465000E0916702F0E0EC56FD4F808380916702A5
:104660008F5F80936702863111F410926702809108
:10467000AB02882329F08091AA0281508093AA027C
:10468000FF91EF919F918F917F916F915F914F91EA
:104690003F912F910F900FBE0F901F9018958A3069
:1046A00009F089CF4091760350917703609183039D
:1046B00070918403460F571F5093770340937603FE
:1046C00050938B0040938A0094E096BB9BE031C0EE
:1046D00040915F0250916002B901641B750B4091DB
:1046E0007F03509180036417750708F49BCF8230D5
:1046F00008F41ACF8A3098F64091790350E0559526
:1047000047954093790340917603509177036091E8
:10471000830370918403460F571F50937703409390
:10472000760350938B0040938A0094E096BB91E00F
:10473000980F90937A033FCF1F920F920FB60F926C
:1047400011242F933F934F935F936F937F938F9396
:104750009F93AF93BF93EF93FF9360918A00709103
:104760008B00409184005091850090917A039130A4
:1047700091F580916F008B7F80936F0010927A0388
:10478000809174038F3F79F0809174038093750357
:10479000E0917503F0E0EF5BFC4F808180688083DF
:1047A0008FEF809374038091A703882391F05E9A22
:1047B000FF91EF91BF91AF919F918F917F916F91F9
:1047C0005F914F913F912F910F900FBE0F901F90CF
:1047D00018955E98EDCFA0917603B0917703209164
:1047E0008303309184039B3009F0BEC08AE0829F2E
:1047F000F001839FF00D1124EA0FFB1FF0938B0053
:10480000E0938A0081E080937A03809175038F5F43
:10481000893108F080E020917303281709F459C00A
:10482000E82FF0E020917903DF01A65ABC4F2C93CA
:104830002091610230916202DF01AA0FBB1FA15FCC
:10484000BC4F11963C932E93EF5BFC4F108220914E
:104850007803222309F4B8C02081246020832091AA
:10486000AE022223A1F12091AA02211104C02091BD
:10487000AB0221112CC02091AB02211106C021E016
:104880002093AB022BE02093AA02E0916702F0E0B4
:10489000EE0FFF1FE859FD4F71836083E0916702BF
:1048A000F0E0EC56FD4F2DEF2083209167022F5F43
:1048B00020936702263111F4109267022091AB0217
:1048C000222329F02091AA0221502093AA025B9A68
:1048D0000BC0E0917503F0E0EF5BFC4F80818860D6
:1048E00080835B9A809175038093740382E083BD1B
:1048F0001092B20021E030E03093BB022093BA0264
:1049000087BB809370008091AE02882309F450CF5A
:104910008091AA02811104C08091AB02811148CF1D
:10492000E0916702F0E0EE0FFF1FE859FD4F518361
:1049300040839068E0916702F0E0EC56FD4F908371
:10494000809167028F5F80936702863111F4109225
:1049500067028091AB02882309F42ACF8091AA02D2
:1049600081508093AA0224CF8091780360E8680F79
:104970002A0F3B1F9A3099F4609378036BE06093A1
:104980007A03309377032093760330938B00209340
:104990008A00803811F05B9AB6CF5B98B4CF8091D3
:1049A000790386958068809379036093780381E02A
:1049B000890F80937A0330937703209376033093A3
:1049C0008B0020938A009FCF5B988ECF80917503D8
:1049D000E09173038E1761F0EF5FE93108F0E0E0DA
:1049E000F0E0EE0FFF1FE15FFC4F808191810895A1
:1049F00090E080E0089580917503E09173038E1735
:104A000049F0EF5FE93108F0E0E0F0E0EF5BFC4FE8
:104A10008081089580E008958091750390917303DB
:104A2000891761F09F5F993108F090E0E92FF0E07D
:104A3000E65AFC4F808190937303089580E00895B7
:104A40002091750390917303291728F081E02913B1
:104A500009C080E007C030E0275E3F4F81E0921739
:104A60001306B9F30895209175038091730382179B
:104A700069F08F5F893108F080E0E82FF0E0EF5BAC
:104A8000FC4F908197FFF3CF81E0089580E0089577
:104A900080917303809375030895CF93DF93CFE6DE
:104AA000D0E088818B7F888388818F7D88830E9476
:104AB00048250E94612288818D7F88831092700032
:104AC00010926E00DF91CF9108952F923F924F92F6
:104AD0005F926F927F928F929F92AF92BF92CF928E
:104AE000EF920F93CF93DF935C013B012A014901C1
:104AF000C0E0202F2150330B1401220E331EC501BC
:104B00000E9420258823D9F3C5010E94FB24D82FB9
:104B10008114910441F0982F9F77C01728F5F40174
:104B2000EC0FF11D9083C11106C0C5010E94E6245F
:104B3000F20191838083C5010E940C25D7FF19C023
:104B4000EE2009F442C0C01748F5EC2FF0E0D30185
:104B5000AE0FBF1F8C938C1509F1E80DF91D8081F4
:104B6000806180835B9A1AC0F1018081892B8083E8
:104B7000DACFC01720F4F301EC0FF11D8083EE2093
:104B800069F098E02C2D30E035952795C826C0FEB9
:104B90001AC0CE2CC22686959150A1F7CF5FD7FFC1
:104BA000AECF8C2F90E0DF91CF910F91EF90CF900F
:104BB000BF90AF909F908F907F906F905F904F903D
:104BC0003F902F900895C22EE6CFC017A0F2E6CFF7
:104BD000CF92DF92EF920F931F93CF93DF93D62E56
:104BE000172FC42EC9010E941A1FCD2DD12FCC0E14
:104BF000DD2ED11CCC16DD06B1F01991812F0E945B
:104C0000311F0023B9F328E08E2D90E0959587950C
:104C1000E126E0FE06C0E02EE82616952150A1F719
:104C2000E9CFE82EFACF002351F08E2DDF91CF91FE
:104C30001F910F91EF90DF90CF900C94311FDF9177
:104C4000CF911F910F91EF90DF90CF9008956091D9
:104C5000B3027091B4028091B5029091B6020895AA
:104C6000843081F028F48230E9F08330F9F008953F
:104C7000883071F0893091F08530B9F480918000EE
:104C80008F7D03C0809180008F778093800008958E
:104C90008091B0008F778093B00008958091B0002C
:104CA0008F7DF9CF84B58F7784BD089584B58F7DCE
:104CB000FBCFCF93DF9390E0FC01E550F24F2491BE
:104CC0008E5E914FFC0184918823C9F090E0880F9B
:104CD000991FFC01E35CF14FA591B491FC01ED5CDF
:104CE000F14FC591D49161110DC09FB7F8948C918B
:104CF000209582238C938881282328839FBFDF916E
:104D0000CF910895623051F49FB7F8943C91822F6F
:104D1000809583238C93E8812E2BEFCF8FB7F89467
:104D2000EC912E2B2C938FBFEACF1F93CF93DF9361
:104D3000282F30E0F901EC51F24F8491F901E55050
:104D4000F24FD491F901EE5EF14FC491CC23A9F05A
:104D5000162F81110E943026EC2FF0E0EE0FFF1F7E
:104D6000ED5CF14FA591B4918FB7F894EC911111CE
:104D700008C0D095DE23DC938FBFDF91CF911F91C8
:104D80000895DE2BF8CFCF93DF93282F30E0F90181
:104D9000EC51F24F8491F901E550F24FD491F901B1
:104DA000EE5EF14FC491CC23A1F081110E94302618
:104DB000EC2FF0E0EE0FFF1FE75DF14FA591B491EE
:104DC000EC91ED2381E090E009F480E0DF91CF9158
:104DD000089580E090E0FACFFC01918D228D892F1B
:104DE00090E0805C9F4F821B91098F7399270895F3
:104DF000FC01918D828D981731F0828DE80FF11DA5
:104E0000858D90E008958FEF9FEF0895FC01918DBF
:104E1000828D981761F0A28DAE0FBF2FB11D5D96E8
:104E20008C91928D9F5F9F73928F90E008958FEF8A
:104E30009FEF0895FC01538D448D252F30E0842F82
:104E400090E0821B930B541710F0CF9608950197B2
:104E500008958CE998E2892B49F080E090E0892B55
:104E600029F00E949C2881110C9400000895FC01F7
:104E7000A48DA80FB92FB11DA35ABF4F2C91848DBB
:104E800090E001968F739927848FA689B7892C9318
:104E9000A089B1898C91837080648C93938D848D6B
:104EA000981306C00288F389E02D80818F7D80836E
:104EB0000895CF93DF93EC01888D8823B9F0AA89F8
:104EC000BB89E889F9898C9185FD03C0808186FDC5
:104ED0000DC00FB607FCF7CF8C9185FFF2CF808114
:104EE00085FFEDCFCE010E943727E9CFDF91CF912B
:104EF0000895EF92FF920F931F93CF93DF93EC01EE
:104F000081E0888F9B8D8C8D98131AC0E889F98970
:104F1000808185FF15C09FB7F894EE89FF89608373
:104F2000E889F98980818370806480839FBF81E0F4
:104F300090E0DF91CF911F910F91FF90EF90089536
:104F4000F62E0B8D10E00F5F1F4F0F731127E02E11
:104F50008C8D8E110CC00FB607FCFACFE889F98949
:104F6000808185FFF5CFCE010E943727F1CFEB8DF1
:104F7000EC0FFD2FF11DE35AFF4FF0829FB7F8941D
:104F80000B8FEA89FB8980818062CFCFCF92DF923D
:104F9000EF92FF921F93CF93DF93EC016A017B01A5
:104FA000122F60E874E88EE190E0A70196010E945C
:104FB000002B2150310941095109569547953795E4
:104FC0002795E889F98982E08083211580E13807F7
:104FD00098F0E889F989108260E472E48FE090E04B
:104FE000A70196010E94002B215031094109510966
:104FF0005695479537952795EC85FD853083EE8549
:10500000FF852083188EEC89FD891083EA89FB894E
:10501000808180618083EA89FB89808188608083C8
:10502000EA89FB89808180688083EA89FB898081A5
:105030008F7D8083DF91CF911F91FF90EF90DF9064
:10504000CF900895CF93DF93EC01E881F98106803A
:10505000F781E02D0995EA89FB8980818F7E808325
:10506000EA89FB898081877F8083EA89FB89808147
:105070008F778083EA89FB8980818F7D80838A8D09
:10508000898FDF91CF9108951F920F920FB60F92E3
:1050900011242F938F939F93EF93FF93E091B90384
:1050A000F091BA038081E091BF03F091C00382FDCB
:1050B0001BC090818091C2038F5F8F732091C303C7
:1050C000821741F0E091C203F0E0E755FC4F958F65
:1050D0008093C203FF91EF919F918F912F910F9039
:1050E0000FBE0F901F9018958081F4CF1F920F92E2
:1050F0000FB60F9211242F933F934F935F936F93AB
:105100007F938F939F93AF93BF93EF93FF9389EA1E
:1051100093E00E943727FF91EF91BF91AF919F914C
:105120008F917F916F915F914F913F912F910F9050
:105130000FBE0F901F90189589EA93E00E94EC260D
:1051400021E0892B09F420E0822F0895E9EAF3E0B9
:105150001382128288EE93E0A0E0B0E0848395830E
:10516000A683B78380E591E09183808385EC90E00E
:105170009587848784EC90E09787868780EC90E021
:10518000918B808B81EC90E0938B828B82EC90E012
:10519000958B848B86EC90E0978B868B118E128E8C
:1051A000138E148E0895AF92BF92CF92DF92EF923A
:1051B000FF920F931F93CF93DF936C017B018B01C1
:1051C000040F151FEB015E01AE18BF08C017D10711
:1051D00059F06991D601ED91FC910190F081E02D9B
:1051E000C6010995892B79F7C501DF91CF911F91F0
:1051F0000F91FF90EF90DF90CF90BF90AF90089508
:10520000FB0101900020E9F73197AF01461B570BD6
:10521000DC01ED91FC910280F381E02D0994EF9285
:10522000FF920F931F93CF93DF938C017B01D0E00C
:10523000C0E0F701EC0FFD1F6491662361F0D80117
:10524000ED91FC910190F081E02DC8010995892B29
:1052500011F02196EECFCE01DF91CF911F910F91EA
:10526000FF90EF9008956115710511F00C940029DD
:1052700090E080E00895DC01ED91FC910190F081D7
:10528000E02D09946EE571E00C9400290F931F93B3
:10529000CF93DF93EC010E940F298C01CE010E9475
:1052A0004229800F911FDF91CF911F910F91089597
:1052B0000F931F93CF93DF938C01D0E0C0E0611573
:1052C000710519F00E940029EC01C8010E944229D1
:1052D0008C0F9D1FDF91CF911F910F9108958F9299
:1052E0009F92AF92BF92EF92FF920F931F93CF9333
:1052F000DF93CDB7DEB7A1970FB6F894DEBF0FBE30
:10530000CDBF7C01FA01CB0119A2223008F42AE0BA
:105310008E010F5D1F4F822E912CB12CA12CBF014D
:10532000A50194010E94002BF901CA016A300CF515
:10533000605DD8016E938D01232B242B252B79F7EB
:1053400090E080E0109721F0BD01C7010E94002984
:10535000A1960FB6F894DEBF0FBECDBFDF91CF91FF
:105360001F910F91FF90EF90BF90AF909F908F9003
:105370000895695CDECFCF92DF92EF92FF920F9398
:105380001F93CF93DF932115310581F4DC01ED915B
:10539000FC910190F081E02D642FDF91CF911F915E
:1053A0000F91FF90EF90DF90CF9009942A30310554
:1053B00001F52AE077FF1DC06A017B01EC016DE277
:1053C0000E943B298C0144275527BA014C195D09DD
:1053D0006E097F092AE0CE010E946F29800F911F7C
:1053E000DF91CF911F910F91FF90EF90DF90CF90C1
:1053F0000895DF91CF911F910F91FF90EF90DF9073
:10540000CF900C946F299A01AB01770F660B770B45
:105410000C94BB290F931F93CF93DF93EC010E9451
:10542000032A8C01CE010E944229800F911FDF9137
:10543000CF911F910F9108950F931F93CF93DF93F7
:10544000EC010E94BB298C01CE010E944229800FF1
:10545000911FDF91CF911F910F9108952115310573
:1054600041F4DC01ED91FC910190F081E02D642F7D
:1054700009940C946F299A01462F50E070E060E087
:105480000C942E2A0F931F93CF93DF93EC010E946D
:105490003B2A8C01CE010E944229800F911FDF918F
:1054A000CF911F910F9108959A01AB0170E060E0D8
:1054B0000C942E2A0F931F93CF93DF93EC010E943D
:1054C000542A8C01CE010E944229800F911FDF9146
:1054D000CF911F910F9108950F931F93CF93DF9357
:1054E000EC010E942E2A8C01CE010E944229800FDD
:1054F000911FDF91CF911F910F91089508950E9400
:10550000D82A0E947E2A0E94CC08C9E2D7E20E94D3
:10551000280A2097E1F30E942927F9CF1F920F92C2
:105520000FB60F9211242F933F938F939F93AF93B6
:10553000BF9380914B0490914C04A0914D04B09185
:105540004E0430914A0426E0230F2D3768F129E8F4
:10555000230F0396A11DB11D20934A0480934B0491
:1055600090934C04A0934D04B0934E048091460454
:1055700090914704A0914804B09149040196A11D5F
:10558000B11D8093460490934704A0934804B093C0
:105590004904BF91AF919F918F913F912F910F90AF
:1055A0000FBE0F901F9018950296A11DB11DD4CF6C
:1055B000789484B5836084BD85B5836085BDEEE64F
:1055C000F0E0808181608083E1E8F0E082E0808328
:1055D000808181608083E0E8F0E080818160808369
:1055E000E1EBF0E0808184608083E0EBF0E080819B
:1055F0008160808386E880937A001092C1000895CC
:10560000A1E21A2EAA1BBB1BFD010DC0AA1FBB1FC6
:10561000EE1FFF1FA217B307E407F50720F0A21B38
:10562000B30BE40BF50B661F771F881F991F1A94A5
:1056300069F760957095809590959B01AC01BD01CF
:10564000CF010895EE0FFF1F0590F491E02D09940E
:10565000FB01DC014150504030F08D9101908019E8
:1056600019F40020B9F7881B990B0895AEE0B0E05B
:10567000ECE3FBE20C94702E85E08C838B899C8993
:105680009A838983AE01495E5F4F6D897E89CE0121
:1056900001960E94DA2C2E96E2E00C948C2E20FDCE
:1056A00009C0FC0123FD05C022FF02C07383628391
:1056B00051834083089544FD17C046FD1DC0DB01A2
:1056C000FC01AA0FBB1FEE1FFF1F1094D1F76A0F3A
:1056D0007B1F8E1F9F1F660F771F881F991F620FEA
:1056E000711D811D911D089533E0660F771F881F7E
:1056F000991F3150D1F7F3CF34E0F7CF0F931F93B9
:10570000CF93DF938C01C8010E94F32DEC0197FD2C
:1057100008C00E94DF2D892BB1F7B801CE010E948D
:105720002F2ECE01DF91CF911F910F9108958F926F
:105730009F92AF92BF92EF92FF920F931F93CF93DE
:10574000DF938C01D62F7A01B22E0E94F32D9C019B
:1057500033272B32310529F02D323105A9F4689415
:10576000B7F8D15061F480E0DF91CF911F910F9194
:10577000FF90EF90BF90AF909F908F900895C801D9
:105780000E94F32D97FDEFCFCB2DCD7F2B2D2073D6
:10579000F9F48033E9F4AA24AA94AD0E89F0C80183
:1057A0000E94F32D97FD0CC0282F2F7D283561F422
:1057B000C264D25029F0C8010E94F32D97FF08C09F
:1057C000812C912C54011BC0B6FE2BC0C260DA2D77
:1057D000812C912C540120ED280F283028F1C4FD94
:1057E00009C02A3008F1C6FF05C02F7D3FEE320FF9
:1057F0003630C8F0B8010E942F2EC1FFB4CFC7FFCA
:1058000008C0B094A09490948094811C911CA11C19
:10581000B11C2C2FB501A401C7010E944F2B81E0C0
:10582000A3CFC261D4CF27504C2FC501B4010E9431
:105830005B2B4B015C01C260D15009F3C8010E948F
:10584000F32D97FFC8CFD9CFA0E2B0E0EAE2FCE2A7
:105850000C94652E5C01962E7A01CE0101966C01A6
:1058600080E2F60111928A95E9F7F501B381890189
:1058700030E020E0712C812CA0E041E050E0F80104
:10588000B3FD8591B3FF8191982F8F01811107C0DE
:1058900010E000E0C801A096EDE00C94812E8E355A
:1058A00019F42115310541F1A21713064CF48D3579
:1058B00049F18D3229F4811006C0882483941DC0DB
:1058C000882009F464C0E92FE695E695E695EC0D8D
:1058D000FD2DF11D892F8770BA0101C0660F8A95D1
:1058E000EAF78081682B6083791651F0971510F4E0
:1058F0009F5FE9CF9150E7CFA1E02F5F3F4FBFCF30
:10590000812CFBCF882019F08E8180628E83AA23A0
:1059100059F0F6019E012F5D3F4F80818095808375
:105920003196E217F307C9F788248394C5010E94D2
:10593000F32D97FD16C0E82FE695E695E695EC0D5C
:10594000FD2DF11D208130E0AC014770552702C0CC
:10595000359527954A95E2F720FD06C0B5010E94CE
:105960002F2E882069F094CFE114F10429F0F7017B
:105970008083C70101967C019A94812C9110D6CF27
:10598000E114F10409F486CFF701108283CFE82FE8
:10599000E695E695E695EC0DFD2DF11D982F977097
:1059A000BA0101C0660F9A95EAF79081692B60836E
:1059B000782EA3CFB0E0A0E0E0EEFCE20C94632EE2
:1059C0006C01EB015A01FC0117821682512CF60181
:1059D000E380FE01E3FC8591E3FE8191182FEF0146
:1059E0008823E9F090E00E94DF2D892B21F0C60189
:1059F0000E947E2BECCF153241F4FE01E3FC1591A1
:105A0000E3FE1191EF01153269F4C6010E94F32DF6
:105A100097FD8EC01817D9F2B6010E942F2E852D42
:105A200090E08AC000E01A3231F4E3FC1591E3FE05
:105A30001191EF0101E0F12C20ED210F2A3048F106
:105A400001FF37C0FF2059F31836B1F11C3609F4B5
:105A50003DC0112321F3612F70E088E690E00E94A1
:105A6000E82D892BE1F2912C812C00FD06C0F50177
:105A700080809180C50102965C011E3679F5F601A1
:105A80004681578170E060E0202FC4010E944F2BB7
:105A90009ECF02606F2D70E090E080E040E20E94B7
:105AA0005B2BF62EFE01E3FC1591E3FE1191EF0155
:105AB000C3CFFF24FA94C8CFFE01E3FC1591E3FEA7
:105AC0001191EF01183609F0C4CF08600460FE019F
:105AD000E3FC1591E3FE1191EF01BBCF1336C1F446
