:100000000C94E70A0C940F0B0C940F0B0C940F0B31
:100010000C940F0B0C940F0B0C940F0B0C94992752
:100020000C940F0B0C940F0B0C94852B0C948628BE
:100030000C94BA2C0C940F0B0C9458270C940F0BA7
:100040000C94542F0C940F0B0C9438320C946A328D
:100050000C940F0B0C94B3240C940F0B0C940F0BFB
:100060000C940F0B0C940F0B6364696E6F707375B7
:1000700078585B0020435243206572726F72003AD9
:100080004F522D002D50453A002D42433A002D5835
:10009000583A002D53423A003A20002E00542000D6
:1000A0005220004420004520002A205265667573C6
:1000B000696E6720746F2077726974652070616360
:1000C0006B6574207768696C652070726576696FFE
:1000D0007573207061636B65742077726974652035
:1000E0007761736E27742066696E69736865640052
:1000F0002A205061636B65742030780020616E6443
:10010000206D6F64656C2000206E6F7420657870C0
:10011000656374656420666F72207061636B6574DB
:100120002074797065203078002A205061636B65F7
:1001300074206C656E6774682000206E6F74206593
:100140007870656374656420666F72206D6F646596
:100150006C20002A205061636B657420747970658F
:1001600020307800206F627365727665642077694D
:100170007468207061796C6F6164206C656E67745F
:100180006820002A205061636B6574207479706563
:10019000203078002A205061636B65742074797078
:1001A00065203078334220686173207061796C6F0C
:1001B0006164206C656E6774682032303B20706526
:1001C0007268617073207468697320756E69742039
:1001D000697320636F6D70617469626C6520776903
:1001E0007468206D6F64656C203132202846445954
:1001F00051202F204D292C20796F75206D61792099
:1002000074727920636F6D6D616E64204D313200C0
:100210002A205061636B6574207479706520307892
:10022000333820686173207061796C6F6164206C71
:10023000656E6774682032303B207065726861704B
:1002400073207468697320756E6974206973206304
:100250006F6D70617469626C652077697468206D78
:100260006F64656C203131202846584D51202F2075
:100270004C5041292C20796F75206D617920747262
:100280007920636F6D6D616E64204D3131002A20DD
:100290005061636B657420747970652030783338F1
:1002A00020686173207061796C6F6164206C656E89
:1002B0006774682031363B20706572686170732006
:1002C0007468697320756E697420697320636F6D3B
:1002D00070617469626C652077697468206D6F6401
:1002E000656C2031302028464459202F2042434C51
:1002F000292C20796F75206D6179207472792063C3
:100300006F6D6D616E64204D3130002064657465E1
:10031000637465642C20737769746368696E672001
:10032000636F6E74726F6C2066756E6374696F6E46
:10033000616C6974792063616E20626520737769EE
:100340007463686564206F6E20287573696E67201A
:100350004C20636F6D6D616E642C204C3120666F94
:10036000722066756C6C20636F6E74726F6C2C20DB
:100370004C3520666F72207061727469616C206305
:100380006F6E74726F6C2C207375626A6563742073
:10039000746F206D6F64656C2073656C6563746940
:1003A0006F6E20284D20636F6D6D616E642929008A
:1003B0002064657465637465642C20636F6E747269
:1003C0006F6C2066756E6374696F6E616C697479A9
:1003D0002077696C6C2072657374617274002A20D6
:1003E0004E6F20617578696C6961727920636F6EF8
:1003F00074726F6C6C657220616E73776572696E72
:100400006720746F206164647265737320307800B4
:10041000206465746563746564002A205761726E98
:10042000696E673A20616E6F7468657220617578D5
:1004300020636F6E74726F6C6C657220616E73777F
:100440006572696E6720746F20616464726573738E
:10045000203078002A205741524E494E473A2074A6
:100460006F6F206D616E79207265616420657272B4
:100470006F727320646574656374656400203F2047
:1004800000E280BE5C5F005F2FE280BE005F5F5FC6
:1004900000E280BEE280BEE280BE002D582D00202A
:1004A00020206C7720202000202020706520202034
:1004B00000202020504520202000202020626320A2
:1004C00020200020202042432020200020202073D4
:1004D00062202020002020205342202020002020C5
:1004E000206265202020002020204245202020007E
:1004F0006320004320002A20536B697070696E6787
:1005000020696E697469616C207061636B65742029
:100510007769746820726561646572726F72203DDC
:10052000203078002A20416C7761797320736B69E1
:100530007070696E67206669727374207061636B96
:1005400065742069662064656C7461203D3D2030CF
:100550002E20726561646572726F72203D20307862
:10056000002A205265636569766564207061636B5B
:100570006574206C6F6E676572207468616E2052BE
:10058000425F53495A45002A20436F6D6D616E6486
:10059000206E6F7420756E64657273746F6F643A49
:1005A00020002A20436F6E74726F6C206D6F64653B
:1005B000206973206C696D6974656420666F7220B0
:1005C0006D6F64656C20312028462067656E65720A
:1005D000696329002A2020352028706172746961BE
:1005E0006C20636F6E74726F6C206D6F6465206F2A
:1005F0006E2C20646F206E6F742073746F72652090
:10060000737461746520696E20454550524F4D29C1
:10061000002A2020332028636F6E74726F6C206D67
:100620006F6465206F6E2C20646F206E6F74207372
:10063000746F726520737461746520696E2045451E
:1006400050524F4D29002A2020322028636F6E74AB
:10065000726F6C206D6F6465206F66662C20646F0E
:10066000206E6F742073746F72652073746174658B
:1006700020696E20454550524F4D29002A202031D7
:100680002028636F6E74726F6C206D6F6465206FCD
:100690006E2C2073746F72652073746174652069A9
:1006A0006E20454550524F4D29002A2020302028E9
:1006B000636F6E74726F6C206D6F6465206F666619
:1006C0002C2073746F726520737461746520696E79
:1006D00020454550524F4D29002A2056616C6964CF
:1006E00020617267756D656E74733A002A20436FDE
:1006F0006E74726F6C206D6F6465206973206F6615
:1007000066002A20436F6E74726F6C206D6F646593
:10071000206973206C696D6974656420284C3520EC
:100720006D6F6465292C207265706C79696E672025
:100730006F6E6C7920746F203030463033302A0071
:100740002A20436F6E74726F6C206D6F6465206930
:1007500073206F6E20627574206C696D69746564B6
:100760002062656361757365206D6F64656C3D31F2
:100770002C20757365204D20636F6D6D616E642054
:10078000746F20736574204461696B696E206D6FAE
:1007900064656C002A20436F6E74726F6C206D6FFD
:1007A0006465206973206F6E002A20436F6E747237
:1007B0006F6C5F6964206973203078002A20436F72
:1007C0006E74726F6C206D6F6465206973206C6944
:1007D0006D6974656420666F72206D6F64656C204E
:1007E000312028462067656E6572696329002A20DA
:1007F000203520287061727469616C20636F6E749B
:10080000726F6C206D6F6465206F6E2C20646F209A
:100810006E6F742073746F726520737461746520D9
:10082000696E20454550524F4D29002A2020332023
:1008300028636F6E74726F6C206D6F6465206F6ECD
:100840002C20646F206E6F742073746F7265207338
:100850007461746520696E20454550524F4D2900E2
:100860002A2020322028636F6E74726F6C206D6FA7
:100870006465206F66662C20646F206E6F74207331
:10088000746F726520737461746520696E204545CC
:1008900050524F4D29002A2020312028636F6E745A
:1008A000726F6C206D6F6465206F6E2C2073746F97
:1008B000726520737461746520696E2045455052DD
:1008C0004F4D29002A2020302028636F6E74726FEC
:1008D0006C206D6F6465206F66662C2073746F7278
:1008E0006520737461746520696E20454550524FD0
:1008F0004D29002A2056616C696420617267756D0C
:10090000656E74733A002A20436F6E74726F6C5F69
:1009100069642073657420746F203078002C207314
:100920006176696E67204C3020746F2045455052C7
:100930004F4D002A20436F6E74726F6C5F696420A4
:10094000697320616C7265616479203078303000A1
:100950002A20596F75206D6179207769736820743A
:100960006F2072652D74727920696E206120666532
:1009700077207365636F6E64732028616E642070E6
:1009800065726861707320737769746368206F742F
:1009900068657220617578696C6961727920636F2E
:1009A0006E74726F6C6C657273206F666629002AB4
:1009B000204E6F2066726565206164647265737392
:1009C00020666F7220636F6E74726F6C6C6572203C
:1009D000666F756E642028796574292E20436F6ECA
:1009E00074726F6C2066756E6374696F6E616C698A
:1009F0007479206E6F7420656E61626C6564002C82
:100A000020736176696E67204C3120746F204545F4
:100A100050524F4D00617578696C6961727920633D
:100A20006F6E74726F6C6C6572002870617274699D
:100A3000616C206D6F64652920002A20436F6E74FD
:100A4000726F6C5F69642030784630207375707007
:100A50006F7274656420616E6420667265652C2017
:100A60007374617274696E6720002C2073617669FB
:100A70006E67204C3120746F20454550524F4D0019
:100A80002C206368616E67696E6720746F207061E7
:100A9000727469616C20636F6E74726F6C206D6F1D
:100AA0006465204C35002A20436F6E74726F6C5F52
:100AB0006964206973203078002A204572726F7251
:100AC000737065726D697474656420286572726FE5
:100AD00072206275646765742920746F6F206C6F73
:100AE000773B20636F6E74726F6C206E6F7420653D
:100AF0006E61626C6564002A207265737461727441
:100B00002064617461002A206465647570206F6ED2
:100B1000002A206465647570206F6666003A20754F
:100B20006E6B6E6F776E2F73686F756C64206E6F6F
:100B3000742068617070656E003A204644595120F7
:100B40002F2076657273696F6E204D003A204658EB
:100B50004D51202F2076657273696F6E204C2F5097
:100B60002F41003A20464459202F20766572736940
:100B70006F6E20422F432F4C003A20556E6B6E6FE4
:100B8000776E20462D736572696573206D6F64659D
:100B90006C002A204D6F64656C20697320003A2038
:100BA000756E6B6E6F776E2F73686F756C64206EE9
:100BB0006F742068617070656E003A204461696BE3
:100BC000696E002A204272616E6420697320002AD7
:100BD000204D6F64656C2063616E206265207365D3
:100BE0007420746F203120284620756E6B6E6F77ED
:100BF0006E292C203130202846445920422F432F83
:100C00004C292C203131202846584D51204C2F5052
:100C10002F41292C206F722031322028464459510F
:100C2000204D292028656E746572204D312C204D91
:100C300031302C204D313131206F72204D31322036
:100C4000746F20646F20736F29002A204D6F6465D4
:100C50006C2063616E20286F6E6C7929206265209C
:100C600073657420746F203120284620756E6B6E7A
:100C70006F776E292C203130202846445920422F8E
:100C8000432F4C292C203131202846584D51204CDF
:100C90002F502F41292C206F7220313220284644BA
:100CA0005951204D292028656E746572204D312CD4
:100CB000204D31302C204D313131206F72204D319B
:100CC0003220746F20646F20736F29003A20756E94
:100CD0006B6E6F776E2F73686F756C64206E6F74B8
:100CE0002068617070656E003A2046445951202F8B
:100CF0002076657273696F6E204D003A2046584D1C
:100D000051202F2076657273696F6E204C412F50F1
:100D10002F50412F41003A20464459202F2076651C
:100D20007273696F6E20422F432F4C003A20556E2C
:100D30006B6E6F776E20462D736572696573206DDB
:100D40006F64656C002A20465F7365726965732065
:100D50006D6F64656C2077696C6C206265207365CB
:100D60007420746F2000756E6C696D697465640021
:100D700069732000616E6420696E697469616C201A
:100D80007772697465206275646765742073657431
:100D900020746F2000286D617820323535203D2089
:100DA000756E6C696D697465642920002A2043752D
:100DB0007272656E742077726974652062756467FB
:100DC000657420006973200073657420746F2000BF
:100DD000286D696E203135292000286D6178203218
:100DE00035352920002A20577269746520627564A0
:100DF00067657420696E6372656D656E74207065D9
:100E000072696F6420002A20526573657474696E7C
:100E1000672041546D656761202E2E2E2E002A20FA
:100E20005265667573696E6720746F207772697496
:100E30006520656D707479207061636B6574002A3C
:100E4000205363686564756C696E67207772697496
:100E5000653A20002A205265667573696E672074B2
:100E60006F207772697465207061636B6574207799
:100E700068696C652070726576696F757320706142
:100E8000636B6574207761736E27742066696E6981
:100E900073686564002D2076616C696420646174F8
:100EA00061206D697373696E672C20777269746550
:100EB00020736B6970706564002A205772697469C9
:100EC0006E67206E657874203430467833782073EE
:100ED0006C6F743A20002A20696E736572744D65D8
:100EE000737361676520616C7265616479207363F7
:100EF000686564756C65640073657420746F2000A8
:100F00002A204563686F200073657420746F200089
:100F10002A20536F6674776172652D73636F7065F5
:100F2000200073657420746F20002A2044656C6172
:100F30007954696D656F7574200073657420746FE2
:100F400020005B757365206F662064656C61792095
:100F500030206F722031206E6F74207265636F6D68
:100F60006D656E6465642C20696E6372656173697A
:100F70006E6720746F20325D20002A2044656C610A
:100F80007920002A20546F6F206D616E7920617284
:100F900067756D656E7473206F7220746F6F206D4E
:100FA000616E792077726974657320746F20616453
:100FB000642C2063616E63656C6C696E6720616C84
:100FC0006C206E65772077726974657300206E728D
:100FD0003A203078002070743A203078002A204976
:100FE000676E6F72696E672028616C6C29206E6570
:100FF0007720696E737472756374696F6E287329D4
:101000002C20657870656374656420332061726795
:10101000756D656E74732C207265636569766564A1
:101020003A2000292C206275742077696C6C20614D
:101030007474656D707420746F20616464207772BD
:10104000697465287329002A20506172616D657486
:1010500065722077726974652062756666657220B4
:101060006E6F742D656D7074792028002A20506190
:1010700072616D657465722077726974652062753E
:10108000666665722066756C6C2C20636F6D6D6191
:101090006E642069676E6F726564002A20436F6D0D
:1010A0006D616E64207265717569726573206F7011
:1010B00065726174696F6E20617320617578696C07
:1010C0006961727920636F6E74726F6C6C657220E7
:1010D000284C31290073657420746F20002A204544
:1010E00072726F72206D61736B202848697461633E
:1010F00068692064656661756C7420307833422CB1
:101100002050453D2B307830342C2055433D2B303A
:101110007834302C206F74686572206272616E645E
:101120007320307837462920002A204C696E6520CC
:10113000746F6F206C6F6E672C207465726D696EB2
:1011400061746564002A204C696E6520746F6F209D
:101150006C6F6E672C2069676E6F726564002A2061
:101160004E6F2077726974652062756467657420BC
:101170006C65667400206D61736B2030780020749C
:101180006F203078002062797465200020706163E0
:101190006B65742D74797065203078002A20496E53
:1011A0006974696174696E6720777269746520007B
:1011B00029206D757374206265207A65726F002036
:1011C000262077725F6D61736B203078002877720C
:1011D0005F76616C2030785B002C206E6F74206924
:1011E0006E2072616E676520307830302D30783037
:1011F000330077725F76616C2062797465203137D5
:10120000202866616E2D6D6F64652920697320301A
:1012100078002C206E6F7420307830302C3078308D
:10122000350077725F76616C206279746520342FA7
:101230003820287377696E672D6D6F646520706143
:10124000727429206973203078002C206E6F74200E
:10125000307831302C307833302C3078353000779E
:10126000725F76616C206279746520342F38202893
:1012700066616E2D737065656420706172742920DB
:101280006973203078002C206E6F7420696E207294
:10129000616E676520307831312D30783531206FBF
:1012A0007220307830302D307830320077725F76AF
:1012B000616C20666F72207061796C6F616420626E
:1012C00079746520342F38202866616E2D7370651F
:1012D000656420636F6F6C696E672F686561746900
:1012E0006E6729206973203078002C206E6F74207F
:1012F000696E2072616E676520307831302D3078EC
:1013000032300077725F76616C20627974652032CA
:101310002F3620287461726765742D74656D70298D
:10132000206973203078002C206E6F7420696E2045
:1013300072616E676520307836302D307836370030
:1013400077725F76616C2062797465203120286F36
:10135000702D6D6F646529206973203078002C2012
:101360006E6F742030206F7220310077725F76616B
:101370006C206279746520302028737461747573F1
:1013800029206973203078002A2077725F6E725BA3
:1013900077725F6E5D2073686F756C642062652084
:1013A000302C312C322C342C362C3820286F7220E3
:1013B00030783342202C31362C3137293A20002A1C
:1013C000204620636D64206E6F7420737570706F9B
:1013D000727465642079657420666F72206D6F6425
:1013E000656C2000206973206E6F74203078334262
:1013F000005D3A203078002A2077725F70745B00BD
:10140000206973206E6F742030783338005D3A2085
:101410003078002A2077725F70745B002A2053773F
:1014200069746368696E6720636F6E74726F6C2095
:1014300066756E6374696F6E616C697479206F662E
:10144000662028616C736F206166746572206E651A
:1014500078742041546D656761207265626F6F74A6
:101460002900300052205020202020202020202041
:10147000002A20526479207365747570002A204315
:101480006F6E74726F6C5F69643D3078002A205013
:101490003150324D51545420627269646765204165
:1014A000546D656761487749442076312E002028C5
:1014B000706F7765722D6F6E2D726573657429007C
:1014C00020286578742D7265736574290020286260
:1014D000726F776E2D6F757429002A2052657365BF
:1014E000742063617573653A204D435553523D0036
:1014F00020462D73657269657300204E4557503143
:1015000050324C494200202B636F6E74726F6C0036
:10151000206D6F64656C6E722000206272616E6473
:10152000200031363A31333A35300020004E6F76A4
:1015300020203920323032340020636F6D70696CA6
:1015400065642000503150324D6F6E69746F7220A7
:1015500076302E392E3535002A20454550524F4DD4
:1015600020696E6974000000000900030200000495
:101570000508000000000000000000000001020457
:101580000810204080010204081020010204081005
:101590002040804004040404040404040202020203
:1015A00002020303030303030202030000000023FB
:1015B000002600290000000000250028002B000064
:1015C000000000240027002A00009A328C11112408
:1015D0001FBECFEFD8E0DEBFCDBF12E0A0E0B1E08C
:1015E000E2E8F2E702C005900D92A031B107D9F709
:1015F00026E0A0E1B2E001C01D92AA30B207E1F7F7
:101600001AE0C6EEDAE004C02197FE010E94BF3561
:10161000C53ED107C9F70E944F340C9434390C945D
:1016200000001F93CF93DF93EC01162F0E94E73841
:10163000181739F0612FCE01DF91CF911F910C94D3
:10164000EF38DF91CF911F9108950C94E738CF9236
:10165000DF92EF92FF921F93CF93DF938FE1E82EFB
:1016600081E0F82E6701C0E1D0E011E0CE010E94D8
:10167000250BF60121916F01022E000C330B91E036
:101680008217130609F090E019232196C631D1057F
:1016900069F7111126C068E575E18DE695E00E94B5
:1016A0003A33C0E1D0E0F70161917F01CE010E94A1
:1016B000110B2196C631D105B1F760E090E080E0D2
:1016C0000E94110B60E081E090E00E94110B61E04C
:1016D00083E090E00E94110B61E084E090E00E94C2
:1016E000110B85E090E00E94250B8F3F29F46FE7F6
:1016F00085E090E00E94110B89E090E00E94250BAC
:101700008F3F51F460E089E090E00E94110B6CE3A0
:1017100086E090E00E94110B89E090E00E94250B8A
:10172000811105C06AE087E090E00E94110B89E01A
:1017300090E00E94250B823060F462E089E090E046
:10174000DF91CF911F91FF90EF90DF90CF900C949D
:10175000110BDF91CF911F91FF90EF90DF90CF9011
:101760000895882331F066E271E08DE695E00E94ED
:101770004C3368E371E08DE695E00E94273364E422
:1017800075E18DE695E00E94033369E375E18DE62E
:1017900095E00E9403336DE275E18DE695E00E94CD
:1017A00003336BE275E18DE695E00E94033362E25C
:1017B00075E18DE695E00E9403336AE175E18DE6FF
:1017C00095E00E9403334AE050E0609114018DE6F9
:1017D00095E00E941D3460E175E18DE695E00E9480
:1017E00003334AE050E0609113018DE695E00E94DA
:1017F0001D3466E075E18DE695E00E9403336AEFE3
:1018000074E18DE695E00E94033360EF74E18DE6AC
:1018100095E00E9403338DE695E00E9436336AED31
:1018200074E18DE695E00E9403334AE050E0609158
:10183000EE038DE695E00E941D348091EE0382FF59
:1018400006C06DEC74E18DE695E00E940333809153
:10185000EE0381FF06C060EC74E18DE695E00E9426
:1018600003338091EE0380FF06C06EEA74E18DE6DB
:1018700095E00E9403338DE695E00E9436336DE8D3
:1018800074E18DE695E00E9403334AE050E06091F8
:10189000ED028DE695E00E9424346DE774E18DE65B
:1018A00095E00E94033340E150E06091EF038DE644
:1018B00095E00C942434EF92FF920F931F9384B71A
:1018C0008093EE0314BE62E084E00E944D3061E03C
:1018D00083E00E944D3060E083E00E94893084E024
:1018E0000E94B7307C0161E083E00E94893084E08F
:1018F0000E94B7308C0160E084E00E944D3060E0CF
:1019000083E00E944D30EF2831F48FEF012B09F076
:1019100082E08093ED028091ED02811149C083E065
:1019200080937E0010927B0088B1836088B981EC3F
:1019300080937C0086ED80937A0080917A0086FD0A
:10194000FCCF209178008091790090E0982F882733
:10195000820F911D9093EC028093EB0288B18C7FF3
:1019600088B987EC80937C0086ED80937A00809123
:101970007A0086FDFCCF209178008091790090E07C
:10198000982F8827820F911D9093EC028093EB0291
:1019900088B188B910927E008091EB029091EC02A0
:1019A00081529340873C910518F481E08093ED02C9
:1019B00026E040E950ED63E070E08DE695E00E949E
:1019C000BA310E94270B90E080E00E94250B8093A3
:1019D000EF0386E090E00E94250B80930A0187E0E8
:1019E00090E00E94250B80930B0185E090E00E941F
:1019F000250B80930C0183E090E00E94250B082FBB
:101A00008093140184E090E00E94250B80931301E1
:101A10000F3F41F461E083E090E00E94110B81E010
:101A200080931401809113018F3F41F461E084E0C1
:101A300090E00E94110B81E08093130181E00E94ED
:101A4000B10B8091ED02EE24E394823029F0E12C79
:101A500007E026E0813011F001E020E041E0811153
:101A600001C040E060E875E280E090E00E94562608
:101A700080910D010E94822B8091F0030E947C2BAB
:101A800080910E0190910F010E943A2860E081EF51
:101A900093E00E94502661E774E18DE695E01F9186
:101AA0000F91FF90EF900C943A337F936F932BE359
:101AB00031E03F932F939F938F930E94D3350F90E4
:101AC0000F900F900F900F900F9008957F936F934A
:101AD0002EE331E03F932F939F938F930E94D33552
:101AE0000F900F900F900F900F900F900895DF922E
:101AF000EF92FF920F931F93CF93DF932091EA020F
:101B000021114FC0E62EC92FD82F64E674E18DE66F
:101B100095E00E9403330D2F1C2FE00EF12EF11CD7
:101B2000C0E049EDD42EE016F10609F1F801D1919B
:101B30008F01D03128F460E38DE695E00E942F33C9
:101B400040E150E06D2F8DE695E00E941D3428E0C5
:101B50008C2F90E095958795CD27C0FF06C0C82FA4
:101B6000CD25D6952150A1F7DECFC82FFACFC031B1
:101B700030F462E674E18DE695E00E94033340E1C3
:101B800050E06C2F8DE695E00E941D348DE695E0C7
:101B9000DF91CF911F910F91FF90EF90DF900C9408
:101BA0003633DF91CF911F910F91FF90EF90DF902F
:101BB00008958091EF03882351F08091EA0281110A
:101BC00006C06CE174E18DE695E00E943A33109214
:101BD000EF0360E090E080E00E94110B1092ED03B3
:101BE00008958091130196EF980F923008F042C04B
:101BF000E091ED03F0E0E752FC4F8081883309F477
:101C000097C08091EA02811106C063E174E18DE61C
:101C100095E00E9403338091EA02811108C04AE0F6
:101C200050E06091ED038DE695E00E941D348091B7
:101C3000EA02811106C06DE074E18DE695E00E9434
:101C400003338091EA0281110CC0E091ED03F0E0D2
:101C5000E752FC4F40E150E060818DE695E00E9444
:101C60001D348091EA0260E074E1882309F444C0E5
:101C700080E008958C3009F044C0E091ED03F0E07D
:101C8000E752FC4F80818B3309F452C08091EA0205
:101C9000811106C067EF73E18DE695E00E94033382
:101CA0008091EA02811108C04AE050E06091ED03A2
:101CB0008DE695E00E941D348091EA02811106C0F4
:101CC00061EF73E18DE695E00E9403338091EA02B3
:101CD00081110CC0E091ED03F0E0E752FC4F40E1D0
:101CE00050E060818DE695E00E941D348091EA020B
:101CF0008111BECF64EE73E18DE695E00E943A3328
:101D0000B7CF8091EA02811106C06FEB73E18DE6D7
:101D100095E00E9403338091EA024AE050E060912E
:101D200013018111A5CF8DE695E00E942434A0CF48
:101D30002091ED0330E0F901E153FC4F90819231A5
:101D400098F4492F4B7F433079F0953069F087EF55
:101D5000890F873048F0F9019031E9F4E752FC4FE0
:101D60008081883309F03DC18091EA02811106C06B
:101D700068E873E18DE695E00E9403338091EA0202
:101D8000811176CFE091ED03F0E0E153FC4F4AE0A2
:101D900050E06081C8CF913169F5E752FC4F8081F6
:101DA000883311F3F901EB53FC4F8081843008F440
:101DB00018C18091EA02811106C062EF71E18DE6DF
:101DC00095E00E9403338091EA0281110CC0E091FA
:101DD000ED03F0E0EB53FC4F40E150E060818DE615
:101DE00095E00E941D348091EA0269ED71E1811154
:101DF0003FCF82CFEB53FC4F8081911124C08230C2
:101E000008F4EFC08091EA02811106C06BE673E12D
:101E10008DE695E00E9403338091EA0281110CC0A7
:101E2000E091ED03F0E0EB53FC4F40E150E06081C6
:101E30008DE695E00E941D348091EA026EE573E123
:101E4000811116CF59CF913029F58056883008F48A
:101E5000C8C08091EA02811106C060E473E18DE69A
:101E600095E00E9403338091EA0281110CC0E09159
:101E7000ED03F0E0EB53FC4F40E150E060818DE674
:101E800095E00E941D348091EA0267E273E18111BE
:101E9000EFCE32CF423029F546EF480F453108F1F9
:101EA0008091EA02811106C063E073E18DE695E05E
:101EB0000E9403338091EA0281110CC0E091ED038E
:101EC000F0E0EB53FC4F40E150E060818DE695E09F
:101ED0000E941D348091EA026AEE72E18111C8CE3F
:101EE0000BCF943019F0983009F07BC0833038F470
:101EF0008295880F807E8F5E808381E00895409177
:101F0000EA025FEE580F5134F8F0411106C06CEA56
:101F100072E18DE695E00E9403338091EA0281111F
:101F20000CC0E091ED03F0E0EB53FC4F40E150E0DA
:101F300060818DE695E00E941D348091EA0266E89A
:101F400072E1811195CED8CE943019F0983009F015
:101F500048C084FD1FC0411106C06FE572E18DE6E7
:101F600095E00E9403338091EA0281110CC0E09158
:101F7000ED03F0E0EB53FC4F40E150E060818DE673
:101F800095E00E941D348091EA026AE472E18111B9
:101F90006FCEB2CE943011F0983019F58F7009F1F0
:101FA0008530F9F0411106C062E272E18DE695E0FC
:101FB0000E9403338091EA0281110CC0E091ED038D
:101FC000F0E0EB53FC4F40E150E060818DE695E09E
:101FD0000E941D348091EA0262E172E1811148CED3
:101FE0008BCE9091EA02F901EB53FC4F8081F9010D
:101FF000E554FC4F40818423C9F1911106C06DEC7A
:1020000071E18DE695E00E9403338091EA0281112F
:102010000CC0E091ED03F0E0EB53FC4F40E150E0E9
:1020200060818DE695E00E941D348091EA02811165
:1020300006C06FEB71E18DE695E00E94033380915D
:10204000EA0281110CC0E091ED03F0E0E554FC4F91
:1020500040E150E060818DE695E00E941D34809162
:10206000EA0260EB71E1811103CE46CE80910B0153
:10207000882309F48FC08F3F19F0815080930B01A2
:102080002D513C4F81E0F9018083911106C06CE92C
:1020900071E18DE695E00E9403338091EA0281119F
:1020A00008C04AE050E06091ED038DE695E00E94A3
:1020B0001D348091EA02811106C06CE871E18DE661
:1020C00095E00E9403338091EA0281110CC0E091F7
:1020D000ED03F0E0E752FC4F40E150E060818DE617
:1020E00095E00E941D348091EA02811106C065E8E6
:1020F00071E18DE695E00E9403338091EA0281113F
:102100000CC0E091ED03F0E0E153FC4F4AE050E0F9
:1021100060818DE695E00E941D348091EA02811174
:1021200006C06EE771E18DE695E00E940333809171
:10213000EA0281110CC0E091ED03F0E0EB53FC4F9B
:1021400040E150E060818DE695E00E941D34809171
:10215000EA02811106C065E771E18DE695E00E9413
:1021600003338091EA0281110CC0E091ED03F0E0AD
:10217000E554FC4F40E150E060818DE695E00E941F
:102180001D348091EA02811104C08DE695E00E9421
:1021900036330895911106C06EE571E18DE695E044
:1021A0000E943A33809116048F3F09F461CD8F5F0E
:1021B000809316045DCDCF93DF93909133029923E2
:1021C00081F09091110391110CC02091120390EFB6
:1021D000920F963030F430911003332331F03034C5
:1021E00099F180E0DF91CF910895292F482F50E099
:1021F00030E0F901E254FE4F608170E06C5F7F4F88
:102200006417750774F3F901EC5CFD4F8081415050
:1022100051098823D9F063E0D901AE54BE4F862F0F
:1022200090E084179507B4F4EC01C05FDC4FEC91AB
:10223000805C9D4FE80FF92FF11D339798818081C5
:10224000981306C06F5FEBCF2A50D0CF81E0808318
:1022500080E001C081E093E02E543E4F692F70E092
:10226000641775070CF0BECFD901EC91DB01A05CBF
:10227000BD4FEA0FFB2FF11D3397605F7C4FDB01F1
:102280006C9160839F5FEACFE4E3F2E0119282E019
:10229000E034F807D9F708957091ED03E3EEF3E029
:1022A00030E020E050E040E0751799F1619166233D
:1022B00061F1451748F5842F90E0DC01AD51BC4F2A
:1022C0006C93DF0111971C92D901A752BC4F6C91FE
:1022D000DC01A752BC4F6C93D901A153BC4F6C9148
:1022E000DC01A153BC4F6C93D901AB53BC4F6C9133
:1022F000DC01AB53BC4F6C93D901A554BC4F6C911E
:1023000085549C4FDC016C934F5F5F5F2F5F3F4FA5
:10231000CBCF4093ED0308950C946F2E2F923F92F4
:102320004F925F926F927F928F929F92AF92BF92E5
:10233000CF92DF92EF92FF920F931F93CF93DF9391
:10234000CDB7DEB767970FB6F894DEBF0FBECDBF2F
:102350009091ED02923049F48091EA02813009F4C3
:1023600062C060F1823009F468C08091EA02811194
:102370000C94E0238DE695E00E94FA309C0197FFD3
:1023800002C00C94E0239091EE02E0910301F091E1
:1023900004012A30310511F40C94BC23933610F05B
:1023A0000C94C023AF014F5F5F4F509304014093E3
:1023B000030120839F5F9093EE02D7CF1C9918C032
:1023C00081E08093EA0261E081EF93E00E944A2677
:1023D00060E081EF93E00E94502662E471E08DE6B8
:1023E00095E00E944C338DE695E00E941632BDCFF9
:1023F0001D99BBCF9093EA0260E081EF93E00E94C9
:102400004A2661E081EF93E00E94502662E471E089
:102410008DE695E00E944C336AE070E080E090E049
:102420000E94C32FE0CF1D99A0CF9093EA0261E0F4
:1024300081EF93E00E94502698CF1D9B96CF10927B
:10244000EA022AE433E0309304012093030110925E
:10245000EE02109232028093000126E040E950ED36
:1024600063E070E08DE695E00E94BA3160E081EFB4
:1024700093E00E94502661E081EF93E00E944A269B
:1024800081E00E94B10B71CF81110DC08091EA02F1
:10249000811106C069E271E18DE695E00E943A3350
:1024A00081E080933202109200010C94D8231082B4
:1024B000992361F0A92FB0E0A75BBC4F8C918D30C0
:1024C00029F491509093EE0231971082809100018F
:1024D000823049F3813029F4809132028111E3CFB7
:1024E000DFCF8FE493E0909304018093030144E0F5
:1024F00050E063E571E08AE493E00E94C5356C0129
:10250000892B11F00C94D8231D82198280914E03DF
:10251000873509F4A8C30CF0EDC08C3409F4BEC5AE
:102520000CF03FC0853409F4F5C0F4F4882311F4AD
:102530000C94D8238A3211F40C94D8238091EA02A7
:10254000811106C067E875E08DE695E00E940333CF
:102550008091EA0281110C94D8236091030170915B
:1025600004016150710995C1893409F42CC18B347F
:1025700009F493C4863411F78091EF03882321F086
:10258000809112018111D6C18091EA026BE970E15C
:1025900081110C94D8238DE695E00E943A330C9477
:1025A000D8238F3409F4EFC20CF053C08D3409F4F2
:1025B0009DC48E3409F0C2CF8091EA02811106C019
:1025C0006CEA7DE08DE695E00E940333BE016F5E0C
:1025D0007F4F80910301909104010E94550D20913D
:1025E000EA02019709F073C489899A898F3F91059E
:1025F00069F060F0211106C065E97DE08DE695E0A7
:102600000E9403338FEF90E09A8B898B89898093A6
:102610000B018091EA02811106C064E77DE08DE63E
:1026200095E00E94033360910B0187E090E00E94E7
:10263000110B89E08093E60260910B018091EA0220
:102640006F3F09F04DC466E67DE081110C94D823FC
:10265000A2CF853509F4C8C20CF090C2843509F0C8
:102660006DCF8091EA02811106C06AE77FE08DE6B6
:1026700095E00E94033360E171E080910301909145
:1026800004010E94550D019721F58091EA022091E5
:102690001001309111012230310570F422E030E058
:1026A0003093110120931001811110C062E47FE08A
:1026B0008DE695E00E9403338091EA02811106C005
:1026C0006AE37FE08DE695E00E94033389E0809322
:1026D000E7028091EA02609110017091110181116D
:1026E0000C94D8234AE050E08DE695E00E943C34FB
:1026F0000C94D8238D3609F4F9C30CF0D0C086367B
:1027000009F43ACF0CF057C0883509F4DDC085369E
:1027100009F014CF8091EA02811106C06DED70E1DD
:102720008DE695E00E940333BE016F5E7F4F80917E
:102730000301909104010E94660D0197B1F489890B
:102740008F7780930C010E947F2B8091EA02811188
:1027500006C065ED70E18DE695E00E94033360915F
:102760000C0185E090E00E94110B8091EA0281113A
:1027700006C06EE971E08DE695E00E9427338091F6
:10278000EA0290910C01903138F4811105C060E3A8
:102790008DE695E00E942F338091EA0240E150E0FF
:1027A00060910C0181110C94D8238DE695E00E9474
:1027B00024340C94D8238B3609F46FC30CF06EC408
:1027C000893609F0BBCE8091EA02811106C065EE20
:1027D0007DE08DE695E00E940333BE016F5E7F4F82
:1027E00080910301909104010E94550D2091EA020D
:1027F000019709F063C389899A898F3F910569F030
:1028000060F0211106C06AED7DE08DE695E00E9442
:1028100003338FEF90E09A8B898B8091EA022989AC
:102820003A892F30310560F4811106C060ED7DE0FA
:102830008DE695E00E9403338FE090E09A8B898BC0
:10284000898980930A018091EA02811106C068ECAF
:102850007DE08DE695E00E94033360910A0186E0F9
:1028600090E00E94110B89E08093E6028091EA02D9
:10287000811108C04AE050E060910A018DE695E0C0
:102880000E941D348091EA026EE771E081110C9480
:10289000D8238DE695E00E944C330C94D8238537DD
:1028A00009F4A2C14CF48F3609F46DC10CF484CE46
:1028B000843709F4D6CE42CE873709F4D4C10CF45C
:1028C0005DC1883709F03ACE8091EA02811106C0D5
:1028D00060E07FE08DE695E00E940333BE016F5E0D
:1028E0007F4F80910301909104010E94550D81302A
:1028F0009105B1F429893A89232B11F09A8B898BA0
:10290000898980930D010E94822B8091EA028111B6
:102910000C94D82368EF7EE08DE695E00E940333A7
:102920008091EA0281110C94D8234AE050E0609132
:102930000D013BCF0E944C118091ED038A3041F490
:102940008091EA026CE670E181110C94D82323CEC9
:10295000882301F18091EA02811106C067E470E1E9
:102960008DE695E00E9403338091EA02811108C050
:102970004AE050E06091ED038DE695E00E941D3441
:102980008091EA02811106C063E270E18DE695E074
:102990000E943A33A090ED03B0900B019E012F5F8F
:1029A0003F4F69018E010B5F1F4FB8E5EB2EB1E081
:1029B000FB2E8091ED038A30B0F590E0DF92CF924C
:1029C0009C0125543C4F3F932F931F930F939C01E1
:1029D0002B533C4F3F932F939C0121533C4F3F93EC
:1029E0002F9387529C4F9F938F93FF92EF928091EA
:1029F00004018F93809103018F930E94D335982E09
:102A00000FB6F894DEBF0FBECDBF181664F452E0C7
:102A100058170CF05BC00E94F10D811134C0A092D8
:102A2000ED03B0920B018091ED038A3011F00C940C
:102A3000D823CE0143969F938F9386E791E09F938F
:102A40008F93809104018F93809103018F930E9453
:102A5000D3350F900F900F900F900F900F90181686
:102A600014F00C94D8238091EA02811106C063E827
:102A70007FE08DE695E00E943A33A092ED03B0929C
:102A80000B010C94D8238091ED03409103015091E8
:102A9000040193E0991211C02D81240F352F311DAF
:102AA0003093040120930301E82FF0E0E554FC4F3C
:102AB00010828F5F8093ED037CCF2981240F352F07
:102AC000311D3093040120930301F3CF8091EA027A
:102AD000811106C06DED7FE08DE695E00E94033325
:102AE0008091EA0281110AC04AE050E0692D092C68
:102AF000000C770B8DE695E00E94F7338091EA0297
:102B0000811106C065ED7FE08DE695E00E940333FC
:102B10008091EA0281110CC0E091ED03F0E0E752F0
:102B2000FC4F40E150E060818DE695E00E941D344D
:102B30008091EA02A2E09A1218C0811106C06DECE1
:102B40007FE08DE695E00E9403338091EA028111D7
:102B500066CFE091ED03F0E0E153FC4F40E150E03F
:102B600060818DE695E00E941D348091EA0281111A
:102B700056CF8DE695E00E94363351CF80E00E941B
:102B8000B10B0C94D8238091EA02811106C06AE24D
:102B90007FE08DE695E00E9403336EE071E0809166
:102BA0000301909104010E94550D019799F48091C1
:102BB0000E0190910F010E943A288091EA02811142
:102BC00006C062E27FE08DE695E00E94033389E073
:102BD0008093E7028091EA0281110C94D8236091DE
:102BE0000E0170910F017ECD8091EA02811106C025
:102BF00060E17FE08DE695E00E940333BE016F5EE9
:102C00007F4F80910301909104010E94550D01971F
:102C1000C9F489898093F00399E09093E7028230A8
:102C200018F081E08093F0038091F0030E947C2BE8
:102C30008091EA02811112C068E07FE08DE695E0A4
:102C40000E9403338091EA02811108C04AE050E0FB
:102C50006091F0038DE695E00E94243488EC809327
:102C600002010C94D8238091EF03882309F47CC0DF
:102C70008091EA0290911504992331F066ED7EE08F
:102C800081110C94D82387CC811106C069EB7EE0BA
:102C90008DE695E00E9403331092F3038E010B5FE3
:102CA0001F4F7E01B3E1EB0EF11CACE6CA2EA1E092
:102CB000DA2EBB24B3941F930F93FF92EF92DF920F
:102CC000CF92809104018F93809103018F930E9492
:102CD000D3350FB6F894DEBF0FBECDBF2091EA0208
:102CE000019751F080911504811135C065E97EE0AE
:102CF00021110C94D8234FCC8D8140910301509128
:102D00000401840F952F911D90930401809303017A
:102D10008B89E091F30391E09E0F9093F303F0E031
:102D2000EC50FC4F8083B0921504803140F42111A7
:102D300006C06CE771E08DE695E00E942733809134
:102D4000EA028111B8CF40E150E06B898DE695E051
:102D50000E941D34B0CF21110C94D8238DE695E04C
:102D60000E9436330C94D8230E943F28882379F19F
:102D700001E313E07E01F5E0EF0EF11C5E0123E1BB
:102D8000A20EB11CFCE68F2EF1E09F2EFF92EF9277
:102D9000BF92AF929F928F92809104018F93809106
:102DA00003018F930E94D3350FB6F894DEBF0FBE98
:102DB000CDBF2091EA020197F9F0C114D10409F0C6
:102DC00055C06EE17EE021110C94D823E4CB8091B4
:102DD000EA02811106C064E57EE08DE695E00E947E
:102DE0003A33809117048F3F11F40C94D8238F5FEE
:102DF000809317040C94D8238D8140910301509146
:102E00000401840F952F911D909304018093030179
:102E1000C114D10441F4211106C06FE37EE08DE6B8
:102E200095E00E9403338B895FEFC51AD50AD8015C
:102E30008D938D019091EA02803140F4911106C08A
:102E40006CE771E08DE695E00E9427338091EA02FD
:102E5000811107C040E150E06B898DE695E00E944A
:102E60001D3439E1C316D10409F090CF8091EA02F4
:102E7000811104C08DE695E00E9436332091100147
:102E800030911101E12C09ED4C2D61E373E081EFEC
:102E900093E00E940C2F0C94D8238091EA028111B8
:102EA00006C066E07EE08DE695E00E943A33E09150
:102EB000E802F091E90209950C94D8232111D6CCAF
:102EC00064EC7DE08DE695E00E940333CFCC2111C8
:102ED000B3CB60E77DE08DE695E00E940333ACCB99
:102EE0004AE050E081110C94D8235FCCBE016F5EA4
:102EF0007F4F8FE493E00E94550D2091EA020197E5
:102F000009F0A2C089899A89AC014A50510943301D
:102F1000510518F0019709F092C0211106C065E42F
:102F20007DE08DE695E00E9403336989609313018B
:102F300089E08093E70284E090E00E94110B809189
:102F4000EA02811108C04AE050E0609113018DE669
:102F500095E00E941D348091EA02909113019A300D
:102F600009F45FC038F4913079F06CEC7CE08111A9
:102F700010C05BC09B3009F45DC09C30B1F768EEB7
:102F80007CE0811106C051C06CE27DE0882309F429
:102F90004CC08091EA02811106C063EC7BE08DE6B3
:102FA00095E00E940333609114018091EA0281113F
:102FB00006C04AE050E08DE695E00E941D34809105
:102FC000EA0290911401913009F043C06AEB7BE072
:102FD000882309F442C08091EA02811106C062E9A7
:102FE0007BE08DE695E00E940333609113018091B0
:102FF000EA02811106C04AE050E08DE695E00E94A9
:103000001D348091EA02909113019A3009F43AC07C
:1030100048F5913089F16DE17BE081110C94D82362
:10302000BACA66E17DE08111B4CF8DE695E00E94D9
:103030003A33AFCF6BEF7CE08111ABCFF6CF6AE4D0
:103040007CE02111A6CFF1CF2111A3CF6FEC7BE063
:10305000ECCF8111C0CF6EE97BE08DE695E00E9458
:103060003A33B9CF9B30A1F09C30A9F669E37BE0FD
:1030700081110C94D8238FCA69E77BE081110C94ED
:10308000D82389CA63E67BE081110C94D82383CAD4
:103090006CE47BE081110C94D8237DCABE016F5E85
:1030A0007F4F8FE493E00E94550D019709F08FC187
:1030B00089899A898530910529F090F484309105A9
:1030C00008F041C180FF0AC1909109018091EA0294
:1030D0009230B8F569EB7AE081110C94D8235BCA81
:1030E0002091EA028136910599F082369105E9F046
:1030F0008036910509F027C1211106C061E17BE00E
:103100008DE695E00E943A33109233020C94D82356
:10311000211106C066E07BE08DE695E00E943A331F
:1031200081E0809333020C94D823211106C067EF0D
:103130007AE08DE695E00E943A330E9444110C94A7
:10314000D8239091EF03992309F44BC0811106C055
:1031500066EA7AE08DE695E00E9403338091EA0208
:10316000811108C040E150E06091EF038DE695E0E9
:103170000E941D348091EA0229893A89253031055F
:1031800041F4811106C060E87AE08DE695E00E9486
:1031900003338091EA0229893A892130310571F49B
:1031A000811106C06AE67AE08DE695E00E9403335D
:1031B0006091EF0390E080E00E94110B8091EA02A1
:1031C000811104C08DE695E00E94363381E02989A3
:1031D0003A892530310509F480E0809312010C947E
:1031E000D82390910501953009F068C0811106C07F
:1031F0006AE37AE08DE695E00E9403338091EA026B
:1032000029893A892530310541F4811106C06AE2E5
:103210007AE08DE695E00E9403338091EA02811105
:1032200006C065E17AE08DE695E00E94033380EF09
:103230008093EF0389899A8921E08530910509F40B
:1032400020E020931201019779F460EF90E080E094
:103250000E94110B8091EA02811106C06FEF79E0A4
:103260008DE695E00E9403338091EA02811104C04B
:103270008DE695E00E9436338091EA02811106C006
:1032800066E079E08DE695E00E9403338091EA02E2
:103290009091EF03903140F4811106C06CE771E02A
:1032A0008DE695E00E9427338091EA0240E150E0EC
:1032B0006091EF0381110C94D82377CA811106C065
:1032C0006FEA79E08DE695E00E943A338091EA0258
:1032D00060E579E081110C94D8235DC92091EF035A
:1032E000211124C08091EA02811106C063E379E0D4
:1032F0008DE695E00E9403338091EA0229893A899C
:10330000232B71F4811106C06DE179E08DE695E023
:103310000E943A336091EF0390E080E00E94110B2D
:103320008091EA0281110C94D82318CD1092EF03FA
:103330001092ED03892B09F09FCF60E090E080E0D0
:103340000E94110B99CF8091EA02811106C063EFB0
:1033500078E08DE695E00E943A338091EA0281118F
:1033600006C064EC78E08DE695E00E943A338091E7
:10337000EA02811106C066E978E08DE695E00E94D8
:103380003A338091EA02811106C060E678E08DE66A
:1033900095E00E943A338091EA02811106C06BE207
:1033A00078E08DE695E00E943A338091EA0281113F
:1033B00006C06EEE77E08DE695E00E943A3380918C
:1033C000EA026CEB77E081110C94D823E4C8809179
:1033D000EA02811106C069EA77E08DE695E00E9475
:1033E00003338091EA029091EF03903140F4811110
:1033F00006C06CE771E08DE695E00E94273360918E
:10340000EF038091EA02811106C040E150E08DE6B1
:1034100095E00E9424348091EA029091EF03992371
:1034200009F461C090911201992309F457C0909159
:103430001301923008F449C064E977E0882309F465
:1034400048C08091EA02811106C069ED76E08DE600
:1034500095E00E943A338091EA02811106C06AEA3F
:1034600076E08DE695E00E943A338091EA02811180
:1034700006C06CE776E08DE695E00E943A338091D5
:10348000EA02811106C066E476E08DE695E00E94CE
:103490003A338091EA02811106C061E176E08DE65F
:1034A00095E00E943A338091EA02811106C064EDF2
:1034B00075E08DE695E00E943A338091EA02811131
:1034C0000C94D82362EA75E066C860E477E0811165
:1034D000B8CF8DE695E00E943A33B3CF62E077E053
:1034E0008111AFCFF6CF8111ACCF6CEE76E0F1CF8A
:1034F00080910101882309F418C18A3009F006C1BE
:1035000089819A81892B09F001C18091EA0264E2E4
:1035100075E0882309F402C18091EA02811107C095
:1035200040E150E06B2D8DE695E00E9424348091BF
:1035300001018150809301018091E702853008F4F8
:1035400041C01092E70210923103109232038EE0D4
:10355000809333031092340389E08093350387E32B
:10356000809336038091ED0280933703809114019C
:103570008093380380911301809339038091F00385
:1035800080933A038DE580933B03809110019091E5
:10359000110190933C0380933D0380910E01909123
:1035A0000F0190933E0380933F038091EE0380933D
:1035B00040038091F2038093410361E181E393E052
:1035C0000E94770D8091E602853008F486C0109243
:1035D000E60210923103109232038FE0809333039E
:1035E00080911904809334038091180480933503EB
:1035F00080910B018093360380910A0180933703F9
:1036000080911704809338038091160480933903C6
:103610008091090180933A038091AD039091AE03AC
:1036200090933B0380933C038091120180933D0370
:103630009091EF0390933E03911101C080E080933D
:103640003F03109240031092410370924203609234
:10365000430350924403409245038091ED02882336
:10366000B9F1FE0131966F019E01275F3F4F79014D
:103670008E01055F1F4F24503109AE01435F5F4F3C
:10368000BE01615F7F4F81EF93E00E94EA256D816B
:103690007E818F8198850E948E342DE434E341E54C
:1036A00058E30E941C350E945F34645E60934603B9
:1036B00069817A818B819C810E948E3429E431E179
:1036C00047E157E30E941C350E945F346093470333
:1036D00067E181E393E00E94770D67960FB6F89457
:1036E000DEBF0FBECDBFDF91CF911F910F91FF9035
:1036F000EF90DF90CF90BF90AF909F908F907F9092
:103700006F905F904F903F902F900895BB2059F09D
:103710008091EA02811100CF66EF74E08DE695E0BA
:103720000E940333F9CE109201018091F0038823A7
:10373000A1F080910201BB2019F0863008F05DC035
:1037400090911003903409F055C090911103903F6F
:1037500009F050C0833308F050C0809102018F5FA0
:10376000893C08F034C28093020110926704BB20A8
:1037700009F4CCC74114510461047104F9F080913B
:1037800019048F3F29F08F5F80931904B0921804B9
:1037900080910901882391F09091EA0281508093F1
:1037A000090181110BC0911106C064E574E08DE63A
:1037B00095E00E943A3381E00E94D90D8091100378
:1037C00081110C94A72480911103811107C080916D
:1037D0001203803119F489E08093E6021091EA0225
:1037E000BB2009F473C666EA70E0112309F477C6BA
:1037F00010E083C6873908F4B0CF9091220491116C
:1038000005C090916404903F09F4A7CF8550809340
:1038100002018091EA02BB2009F47CC063EF74E0EE
:10382000882309F47BC080911003803148F4809193
:10383000EA02811105C060E38DE695E00E942F3316
:103840008091EA02811108C040E150E060911003CC
:103850008DE695E00E941D3480911103803148F47B
:103860008091EA02811105C060E38DE695E00E9437
:103870002F338091EA02811108C040E150E060914D
:1038800011038DE695E00E941D3480911203803172
:1038900048F48091EA02811105C060E38DE695E06D
:1038A0000E942F338091EA02811108C040E150E06C
:1038B000609112038DE695E00E941D348091EA022A
:1038C000811105C060E28DE695E00E942F33809162
:1038D0006404803F41F100912204202F30E03D8BB1
:1038E0002C8BAC89BD89A15BBB4FEC918091EA0226
:1038F000E75FE93008F064C0F0E0EF57F34E0C9456
:10390000BF35DB1CB41CD61CCC1CC21C961CD11CA5
:10391000C71CBD1C811187CF60EF74E08DE695E078
:103920000E94033380CF1D8A1C8ADBCF67EE74E0D0
:103930008823F1F0EC89FD893196FD8BEC8B76972D
:1039400011F41D8A1C8A809122042C893D898217DA
:10395000130609F0C6CF8091EA028111FECE8DE6F2
:1039600095E00E943633F9CE6EED74E08111E2CF1E
:103970008DE695E00E940333DDCF65ED74E08111A3
:10398000D9CFF6CF6CEC74E08111D4CFF1CF63ECDA
:1039900074E08111CFCFECCF6AEB74E08111CACF14
:1039A000E7CF61EB74E08111C5CFE2CF68EA74E044
:1039B0008111C0CFDDCF8111BDCF6FE974E0D8CFC9
:1039C0001C91107E0C910F71EC88FD88EE0CFF1C91
:1039D000D1104BC0103439F4811105C060E28DE67E
:1039E00095E00E942F33F701ED5DFB4FC080D18041
:1039F0008091100290911102C81AD90A53E0D6940E
:103A0000C7945A95E1F73AE0C316D10498F480912F
:103A1000EA02811105C060E28DE695E00E942F3335
:103A20008091EA02811121C060E28DE695E00E945A
:103A30002F3304C044E6C416D10490F38091EA0207
:103A4000811113C04AE050E0B6018DE695E00E9476
:103A500036348091EA02103409F461C7811105C03F
:103A60006AE38DE695E00E942F33F701ED5DFB4F91
:103A70008081918190931102809310028091EA02DB
:103A8000103689F148F4112301F1103409F450C7BC
:103A900060E281115DC069C0103A21F0103C11F064
:103AA0001038B1F70A3008F04BC0023008F472C089
:103AB00081114EC0A02FA250BB0BBD014AE050E0C7
:103AC0008DE695E00E94F73354C0811105C06FE385
:103AD0008DE695E00E942F338091EA026DE874E054
:103AE00081116CC06FC0033140F40330D0F4013059
:103AF00070F481110FC060E205C00531D0F760E5B8
:103B0000811108C08DE695E00E942F3303C063E564
:103B10008823C1F38091EA0267E874E081114EC006
:103B200051C08111F7CF802F8350990BBC0175953F
:103B300067954AE050E08DE695E00E94F733EACFC2
:103B40000A3081F00B3009F0A3CF65E4882369F0D7
:103B5000103601F308F000C7112309F4BDCF10346B
:103B600069F5EDC660E58111F3CF8DE695E00E9421
:103B70002F33103679F28091EA02113678F411234E
:103B800009F4AACF103409F4DAC6811117C06DE721
:103B900074E018C08111DCCF63E5E7CF103A51F033
:103BA000103C09F4CCC6103881F761E974E0882331
:103BB00049F004C08091EA02882311F0D12CBACEDA
:103BC0006BE974E08DE695E00E940333F7CF38ECA3
:103BD00030930201CACD2C31310508F0BAC5E82F67
:103BE000E370F0E0EB5FFE4F10829091EF038913DA
:103BF000B0C58091EA02811106C06AE174E08DE6E9
:103C000095E00E9403338091EA02811108C040E1EF
:103C100050E0609111038DE695E00E941D34809183
:103C2000EA02811106C060E174E08DE695E00E9431
:103C30003A3380E0C1CDD11089C6E09111038E2FB7
:103C40008E7F803F09F0BFCD80911203982F907F27
:103C5000903309F0B8CD8033D1F5E370F0E0EB5F3D
:103C6000FE4F908195309CF59F5F9083953079F55C
:103C70008091EA02811106C06EED73E08DE695E059
:103C80000E9403338091EA02811108C040E150E0B4
:103C9000609111038DE695E00E941D348091EA0247
:103CA000209111039091EF03291305C1811106C0E2
:103CB00060EB73E08DE695E00E943A3310921504B4
:103CC00080911203982F907F903309F07AC0E82FEB
:103CD000EF70F0E0EE5DFD4F9081911172C088337E
:103CE000C1F454E12516310409F0EEC080911301AE
:103CF0008A3079F08091EA02811106C06EE872E0A4
:103D00008DE695E00E943A338AE08093F203909228
:103D10002A02809112038B33B9F498E129163104F9
:103D200099F4809113018C3079F08091EA0281112D
:103D300006C064E971E08DE695E00E943A338CE0BC
:103D40008093F20390922D02E0911203EF70F0E065
:103D5000EE5DFD4F8081811134C08091EA028111B6
:103D600006C063E871E08DE695E00E940333809120
:103D7000EA02811108C040E150E0609112038DE633
:103D800095E00E941D348091EA02811106C064E62C
:103D900071E08DE695E00E9403338091EA02811183
:103DA00009C04AE050E0B101645071098DE695E028
:103DB0000E94FE33E0911203EF70F0E0EE5DFD4FE4
:103DC0009082E091130186EF8E0F833008F04EC091
:103DD00080911203982F907F903309F047C08F7025
:103DE00090E0DC01AE5EBD4F2C9121113FC0EA5046
:103DF000FF0B34E0EE0FFF1F3A95E1F7E653FE4F5D
:103E0000E80FF91F80818F3F09F074C08091EA02AA
:103E1000811106C063E571E08DE695E00E940333F1
:103E20008091EA02811108C040E150E060911203E4
:103E30008DE695E00E941D348091EA026AE371E00C
:103E4000882309F494C08091EA02811108C04AE0F5
:103E500050E0609113018DE695E00E942434E091DA
:103E60001203EF70F0E0EE5EFD4F9082809111033F
:103E7000A82FA170AE8B1F8AEE89FF89EB5FFE4FE2
:103E80009081953009F09ACC10911504112309F412
:103E900073C01091F303212F30E0A1E3B3E0E4EF0E
:103EA000F3E0CF01845F9340821793070CF0D8C2F0
:103EB00081918D93F6CF811103CF6BE073E08DE696
:103EC00095E00E943A33FCCE88E12816310409F0CF
:103ED00020CF809113018B3009F41BCF8091EA022F
:103EE000811106C060E172E08DE695E00E943A33F0
:103EF0008BE00BCF87FDBACF810104501109082E4A
:103F0000000C990B0817190709F4B0CF8091EA0249
:103F1000811106C069E271E08DE695E00E940333ED
:103F20008091EA02811107C04AE050E0B8018DE6B5
:103F300095E00E94F7338091EA02811106C068E0A3
:103F400071E08DE695E00E9403338091EA028111D1
:103F500008C040E150E0609112038DE695E00E94B8
:103F60001D348091EA0281116ECF6CEF70E08DE616
:103F700095E00E94033367CF9091EF03992309F4F2
:103F80001DCC89131BCCB0E4B09331038093320372
:103F9000E0911203E0933303E053ED3008F00ECCD0
:103FA000F0E0EB52F04E0C94BF353422DE1BE21FE2
:103FB000DE1BDE1B6E206E206E20722061218621AA
:103FC0009E211D22C09012019092340314E00EE154
:103FD000CC2009F4F3CB0E943F28882309F456C271
:103FE000202F30E0E12C09ED412F61E373E081EFF8
:103FF00093E00E940C2FC0FEE1CB809112038B3323
:1040000019F0883309F0DACB8091ED03D81608F067
:10401000D5CB0D2D10E0A8014D515C4F7A01DA018E
:104020008C9187FF59C08091EA02811106C060EF30
:1040300070E08DE695E00E9403338091EA028111E1
:104040000AC040E150E0F801E752FC4F60818DE684
:1040500095E00E941D348091EA02811106C067E854
:1040600071E08DE695E00E9427338091EA0281118C
:104070000AC04AE050E0F801E153FC4F60818DE650
:1040800095E00E941D348091EA02811106C066E924
:1040900071E08DE695E00E9427338091EA0281115C
:1040A00067C3F801EB53FC4F40E150E060818DE6BF
:1040B00095E00E941D34B3E0CB12DBC18091EA028F
:1040C000811106C061EA71E08DE695E00E944C33F3
:1040D000D7018C918F778C93D39496CFC090120197
:1040E00013E075CF809113018A3009F070C0C09041
:1040F000120110923E0310923F03109240038091F0
:104100001303817080933403809115038770806658
:104110008093350380911703809336031092370301
:10412000809119038076816180933803109239035E
:1041300080911B0380933A0310923B0380911D03EF
:104140008076816180933C0380911E038F778093FA
:104150003D03809122038093410310924203F0902B
:10416000ED0329ED33E085EC93E0EBEBF3E0FD8B21
:10417000EC8B6FEC73E0E3EEF3E0F11609F46AC147
:1041800000810023B1F0D9014C91483391F4DB0157
:104190004C9150E04C5C5C4FAC89BD89AC90DA012D
:1041A000EC90EA20DC01AC90EA28DA01EC9200689D
:1041B00000831F5F2F5F3F4F01964C895D894F5FE2
:1041C0005F4F5D8B4C8B6F5F7F4F3196D6CF8B30BF
:1041D00009F0F4CAC090120180911303817080939A
:1041E00034038091150380933503809117038093E6
:1041F000360310923703809119038093380310928D
:10420000390380911B0380933A0310923B03809102
:104210001D0380933C0380911E0380933D03109205
:104220003E0310923F03109240038091220380933B
:104230004103109242031092430310924403E09012
:10424000ED0389ED93E02BEB33E0A3EEB3E04FEC0D
:1042500053E065EC73E0E11609F4FEC00C91002315
:1042600031F1FC01F080F8E3FF1221C0FA01A080D7
:10427000FB01F080A1100BC0F0913403F11107C0D5
:10428000FF2029F0F0914103F062F0934103EA2D01
:10429000F0E0EC5CFC4FFD8BEC8BF901A080EC892D
:1042A000FD898080A820AF28A08200680C931F5F42
:1042B00001962F5F3F4F11964F5F5F4F6F5F7F4FAC
:1042C000CACF809113018A3081F4C09012011092FC
:1042D00034031092350380911B0380933603809141
:1042E0001C038093370317E072CE8B3009F066CA47
:1042F000C0901201109234031092350310923603CD
:10430000109237031092380318E061CE1091130118
:104310001B3009F053CAC09012011092340310925E
:10432000350310923603109237031092380310921F
:10433000390310923A0310923B0349CE8091130146
:104340008C3009F03BCAC090120110923E031092CB
:104350003F031092400310924103109242031092C7
:10436000430380911303817080933403809115037C
:10437000877080668093350380911703809336039E
:1043800010923703809119038076816180933803FE
:104390001092390380911B0380933A0310923B03E0
:1043A00080911D038076816180933C0380911E0380
:1043B0008F7780933D038091240380934403809101
:1043C000250383708093450310924603F090ED031C
:1043D00089ED93E025EC33E03D8B2C8B4BEB53E0E8
:1043E0006FEC73E0E3EEF3E0F116C1F1008100231E
:1043F000B1F0DC012C912B3391F4DB012C9130E0F6
:104400002C5C3C4FDA01AC90D901EC90EA20AC89ED
:10441000BD89AC90EA28D901EC92006800831F5F47
:1044200001962C893D892F5F3F4F3D8B2C8B4F5F31
:104430005F4F6F5F7F4F3196D7CF809113018C30E4
:1044400009F0BCC9C09012011092340310923503D8
:1044500015E0BDCD12E1BBCD14E1B9CD16E1B7CD6C
:1044600009E122E0C22EB7CD04E613E0CC24C394C8
:10447000B2CD8091EA02811104C08DE695E00E94E0
:104480003633F70180818150808322CE8091EA0209
:10449000811106C069EA70E08DE695E00E943A332A
:1044A0009091ED03E3EEF3E09D1539F08191DF018A
:1044B00011978F778C93D394F7CF809117048F3F08
:1044C00009F47CC98F5F8093170478C9B3E02B1679
:1044D00031040CF0EFC011118BC960EA70E08DE679
:1044E00095E00E9403338091EA02811106C06DE9D4
:1044F00070E08DE695E00E94033389819A818031D6
:10450000974248F48091EA02811105C060E28DE68D
:1045100095E00E942F3389819A812091EA02883E9A
:10452000F3E09F0708F0D6C0211105C060E38DE6D7
:1045300095E00E942F338091EA02811106C06BE959
:1045400070E08DE695E00E94033389819A8184367C
:10455000910548F48091EA02811105C060E38DE67F
:1045600095E00E942F3389819A810A9748F48091BF
:10457000EA02811105C060E38DE695E00E942F33C9
:104580008091EA02811108C069817A814AE050E095
:104590008DE695E00E9436348091EA02811106C0D2
:1045A00068E970E08DE695E00E940333112319F06D
:1045B00093E0292E312C80E1E82E83E0F82E0FEED7
:1045C00012E08091EA0298012F5E324022153305F5
:1045D0000CF095C05801D8019C9190FF08C0811142
:1045E00006C063E970E08DE695E00E940333F801B0
:1045F000808181FF0AC08091EA02811106C06EE8C5
:1046000070E08DE695E00E940333D8018C9185FF20
:104610000AC08091EA02811106C069E870E08DE667
:1046200095E00E940333F801808182FF0AC08091E7
:10463000EA02811106C064E870E08DE695E00E9410
:104640000333D7018D907D01BFE0B81548F080910C
:10465000EA02811105C060E38DE695E00E942F33E8
:104660008091EA02811107C040E150E0682D8DE69B
:1046700095E00E941D34F801808183FF0AC080917B
:10468000EA02811106C06FE770E08DE695E00E94B6
:1046900003330F5F1F4FD5018C9184FF92CF809120
:1046A000EA0281118ECF64E770E08DE695E00E940A
:1046B000033387CF822D0E94DB10882309F40BCFB0
:1046C000111106C063EA70E08DE695E00E940333A5
:1046D00011E009CF21110AC068EE73E00E9489350C
:1046E0004AE050E08DE695E00E94363489819A8157
:1046F00068EE73E00E9489359A8389831CCF81110B
:10470000D6C08DE695E00E943633D1C035E0231641
:1047100031040CF453C8D090100340E4D4128BCA77
:1047200080911103982F9E7F903F19F08F3F09F0E1
:104730000DC190911203292F207F203309F006C16B
:1047400029813A81903309F046CA2236310508F4AE
:1047500046CA80911103811141C8809112038031B2
:1047600009F03CC88091E7028F5F8093E70236C86A
:1047700043E0C41286CEA2CC933611F00C945712AB
:1047800031971082809132022A30310511F40C9455
:10479000441281110AC08091EA02811106C065E4C9
:1047A00071E18DE695E00E943A3381E0809300014B
:1047B0008AE493E090930401809303011092EE0247
:1047C00081EF93E00E944B2F2B013C018091B703B6
:1047D0009091B803A091B903B091BA0384159505DF
:1047E000A605B70594F48091E7028F5F8093E702F6
:1047F0008091E6028F5F8093E6024092B703509269
:10480000B8036092B9037092BA0380910A01BCE3C5
:104810008B9FC0011124092E000CAA0BBB0B4091E9
:10482000B3035091B4036091B5037091B603840F44
:10483000951FA61FB71F481659066A067B067CF00F
:1048400020910B01243618F42F5F20930B018093E5
:10485000B3039093B403A093B503B093B6038091D0
:10486000AF039091B003A091B103B091B203AC013A
:10487000BD01415F514F6F4F7F4F44155505660590
:1048800077059CF420910901243118F42F5F2093BF
:104890000901805F914FAF4FBF4F8093AF0390935B
:1048A000B003A093B103B093B2039924939481EF22
:1048B00093E00E94552ED82E882311F40C949C1A54
:1048C000C12CE9EDEE2E01E22FEE32E0AE014F5F9A
:1048D0005F4F60E173E081EF93E00E94872E1C013F
:1048E000B12C82977CF08091EA02811106C061E6CA
:1048F00075E08DE695E00E943A3371E2272E312C67
:10490000BB24BA94EFEEF2E0CF018F5E92408215A5
:10491000930514F00C94781A8191B82AF5CFF70119
:10492000ED5DFB4F20813181309311022093100205
:10493000811105C060E28DE695E00E942F338091E1
:10494000EA0261E874E0811139C93CC98D2D8034D7
:1049500009F4FFCE0C94EE1B103A09F42BC9103C5D
:1049600009F02CC9ECCF1F920F920FB60F921124B1
:10497000CF92DF92EF92FF922F933F934F935F93EB
:104980006F937F938F939F93AF93BF9380917800A2
:104990002091790030E0322F2227820F932F911D32
:1049A000B0E0A0E020911A01222309F493C01092F4
:1049B0001A012091600520937C00209152053091CE
:1049C00053052F5F3F4F309353052093520540917D
:1049D0004C0550914D0560914E0570914F05840F27
:1049E000951FA61FB71F80934C0590934D05A0936C
:1049F0004E05B0934F05A901542F44275295507F7F
:104A0000452B09F051C040914805509149056091EE
:104A10004A0570914B05480F591F6A1F7B1F409331
:104A200048055093490560934A0570934B05C09023
:104A30001D01D0901E01F12CE12C8C159D05AE05B9
:104A4000BF0520F490931E0180931D01C0905E0568
:104A5000D0905F05F12CE12CC816D906EA06FB06BA
:104A600020F490935F0580935E0510924C051092A0
:104A70004D0510924E0510924F05A4E0220F331FF2
:104A8000AA95E1F7232B81F440935A0550935B05D7
:104A900060935C0570935D0510924805109249057E
:104AA00010924A0510924B058EED80937A00BF91CB
:104AB000AF919F918F917F916F915F914F913F91B6
:104AC0002F91FF90EF90DF90CF900F900FBE0F903F
:104AD0001F90189521E020931A01209161052093E1
:104AE0007C0020915005309151052F5F3F4F30934E
:104AF0005105209350054091440550914505609122
:104B0000460570914705840F951FA61FB71F809318
:104B1000440590934505A0934605B0934705A90128
:104B2000542F44275295507F452B09F0BDCF40911B
:104B30004005509141056091420570914305480F31
:104B4000591F6A1F7B1F4093400550934105609396
:104B5000420570934305C0901B01D0901C01F12CBD
:104B6000E12C8C159D05AE05BF0520F490931C012A
:104B700080931B01C0905805D0905905F12CE12C71
:104B8000C816D906EA06FB0620F4909359058093CF
:104B90005805109244051092450510924605109252
:104BA000470584E0220F331F8A95E1F7232B09F094
:104BB0007BCF4093540550935505609356057093F1
:104BC000570510924005109241051092420510922F
:104BD00043056ACFCF92DF92EF92FF920F931F931C
:104BE00080916305882309F44EC086E880937A009B
:104BF00080911D0190911E01FB0191838083809122
:104C00005E0590915F05FA019183808380915A053A
:104C100090915B05A0915C05B0915D05F9018083E1
:104C20009183A283B38380911B0190911C01F801B1
:104C3000918380838091580590915905F701918364
:104C400080838091540590915505A0915605B091AF
:104C50005705F60180839183A283B38380EF9FE39E
:104C600090931E0180931D0110925F0510925E05C6
:104C700090931C0180931B011092590510925805C6
:104C80008EE880937A001F910F91FF90EF90DF9054
:104C9000CF900895662311F0429A0895429808959E
:104CA000662311F05B9A08955B9808958F929F9206
:104CB000AF92BF92EF920F93CF93DF934B015C01C2
:104CC000D42FC22F96958795779567957E5E8548F8
:104CD0009F4FA50194010E949D3530933F0520937D
:104CE0003E05B90176956795CB01820F931F90938E
:104CF0003D0580933C05C901F3E096958795FA95AB
:104D0000E1F7860F971F90933B0580933A055695E0
:104D10004795379527953093390520933805C90174
:104D2000880F991F280F391F3093370520933605B8
:104D300061E082E00E944D3061E086E00E944D30EB
:104D400061E085E00E944D3061E083E00E944D30DB
:104D5000E0926205429A80916205882309F4A4C01A
:104D60005E9880916205882309F4A0C05D985B9AE3
:104D700062E088E00E944D3061E089E00E94893065
:104D800061E089E00E944D30109276041092750423
:104D900010923505109230058FEF80932F051092F9
:104DA0002E051092C9041092C8041092C3041092E8
:104DB000C204109274041092730482E084BD94E0E3
:104DC00095BD99EF97BD10926E0410926F041092EA
:104DD00070041092710410926A0410926B04109285
:104DE0006C0410926D0416BC21E023BD85BB80933A
:104DF0006E008093B00023E02093B1009093B30045
:104E000083BD1092B200109276041092750487BB95
:104E10008093700010926F001092800081E8809360
:104E20008100809181008F7B809381008091800040
:104E3000806C8093800080918200806880938200E3
:104E400080E286BB80916F00806280936F00D09378
:104E50006305DD2301F18C2F806C80936105802F29
:104E6000806C8093600521E030E0C90101C0880FAB
:104E7000CA95EAF701C0220F0A95EAF7822B8F73D1
:104E800080937E008091610580937C0010927B006E
:104E90008EED80937A00DF91CF910F91EF90BF90CC
:104EA000AF909F908F9008955E9A5BCF5D9A5FCF91
:104EB0001F920F920FB60F9211248F939F93AF936F
:104EC000BF9380916A0490916B04A0916C04B0919F
:104ED0006D040896A11DB11D80936A0490936B0424
:104EE000A0936C04B0936D04809172048F5F8093E3
:104EF00072048D37A8F01092720480916E04909124
:104F00006F04A0917004B09171040196A11DB11DB0
:104F100080936E0490936F04A0937004B093710417
:104F2000BF91AF919F918F910F900FBE0F901F90E7
:104F300018951F920F920FB60F9211242F933F9343
:104F40008F939F938091750490917604019649F018
:104F500080917504909176040196909376048093E5
:104F600075048091C904833609F06FC020917504DF
:104F70003091760480917304909174042817390756
:104F8000C1F0209175043091760480917304909162
:104F900074042817390708F458C02091750430911B
:104FA000760480911801909119012817390708F4A7
:104FB0004CC081E08093C9042091360530913705BB
:104FC00080916804882321F08091670491E0811129
:104FD00090E09093690480916904882351F081E006
:104FE000809367041092220480EF809364041092EF
:104FF000660490916F009F7D90936F0090916F0079
:105000009B7F90936F00109270008091840090912C
:105010008500820F931F9093890080938800809170
:1050200080008F7B806880938000809181008F7BDF
:1050300080938100B19A80916F00826080936F00AD
:1050400080916205882351F05D989F918F913F91E7
:105050002F910F900FBE0F901F9018955D9AF5CF6E
:105060008230910510F482E090E0909321048093C7
:1050700020040895909319018093180108952091B8
:10508000C2049091C30481E0291380E008959091B7
:10509000C3049F5F993108F090E02091C204291762
:1050A000E1F36FB7F8942091C90440912004509126
:1050B00021042223A9F0292F30E0F901E755FB4F05
:1050C0008083220F331FF901E958FB4F518340833E
:1050D00010922104109220049093C3046FBF08958E
:1050E0008093C7048093C5041092C40410921F04D7
:1050F00010921E0483E68093C90450937404409375
:1051000073041092210410922004E8CF1F920F9292
:105110000FB60F9211242F933F934F935F936F938A
:105120007F938F939F93EF93FF938091C904409156
:1051300084005091850060918800709189005B988F
:10514000843108F0AFC12091380530913905260F20
:10515000371F309389002093880093B1917080FFAE
:10516000E8C020918000206C209380002091810075
:10517000206420938100813009F05EC02091750485
:105180003091760430931D0420931C04109270001B
:10519000911192C010921E0493B19170B59B59C1A8
:1051A000209186003091870040E246BB992309F4A4
:1051B00032C190916904992359F19091650491113C
:1051C00004C090916604911123C0E0912204F0E0A4
:1051D000EE0FFF1FED5DFB4F31832083E091220432
:1051E000F0E0E15BFB4F982F906690839091220452
:1051F0009F5F90932204963111F4109222049091B3
:105200006604992329F09091650491509093650468
:105210008093C8048F5F8093C904FF91EF919F91A1
:105220008F917F916F915F914F913F912F910F904F
:105230000FBE0F901F901895833169F422E023BDB3
:105240001092B20061E070E0709376046093750490
:1052500027BB209370002091C604291709F49CCF26
:1052600090911E04926090931E049091690499237A
:1052700009F492CF90916504911104C09091660455
:1052800091118ACF90916604911106C091E090939C
:1052900066049BE090936504E0912204F0E0EE0F39
:1052A000FF1FED5DFB4F51834083E0912204F0E04E
:1052B000E15BFB4F9CEF28C080931E049091690432
:1052C000992309F469CF90916504911104C09091DC
:1052D0006604911161CF90916604911106C091E02E
:1052E000909366049BE090936504E0912204F0E0C3
:1052F000EE0FFF1FED5DFB4F51834083E0912204D1
:10530000F0E0E15BFB4F9FEF9083909122049F5F61
:1053100090932204963111F4109222049091660425
:10532000992309F439CF90916504915090936504C5
:1053300033CF823108F05FC02091C704622F6170C3
:1053400020FD0BC0209180002F7B206820938000DF
:10535000209181002F7B209381002091C404262777
:105360002093C4042091C70430E0359527952093FD
:10537000C70491113DC090911E04906290931E0449
:10538000909169049923A1F190916504911104C051
:105390009091660491112CC090916604911106C001
:1053A00091E0909366049BE090936504E091220461
:1053B000F0E0EE0FFF1FED5DFB4F51834083E09166
:1053C0002204F0E0E15BFB4F9EEF9083909122047A
:1053D0009F5F90932204963111F4109222049091D1
:1053E0006604992329F09091650491509093650487
:1053F0006093C604D1CE6091C4046111BACF2091EC
:1054000080002F7B206820938000209181002F7BDB
:1054100020938100AECF90916904992309F4F8CECE
:1054200090916504911104C0909166049111F0CEA1
:10543000E0912204F0E0EE0FFF1FED5DFB4F3183A2
:105440002083E0912204F0E0E15BFB4F982F906411
:10545000CCCE9111DDCE90916904992309F4D8CE78
:1054600090916504911104C0909166049111D0CE81
:1054700090916604911106C091E0909366049BE0C0
:1054800090936504E0912204F0E0EE0FFF1FED5DC4
:10549000FB4F51834083E0912204F0E0E15BFB4F3E
:1054A00097EFA3CE93B19170B59BC3C04091860096
:1054B0005091870030E236BB992309F4A2C0909145
:1054C0006904992351F190916504911104C0909160
:1054D0006604911122C0E0912204F0E0EE0FFF1F5C
:1054E000ED5DFB4F518340838066E0912204F0E044
:1054F000E15BFB4F8083809122048F5F80932204C5
:10550000863111F41092220480916604882329F0D8
:105510008091650481508093650480911E048823E6
:1055200029F05B9A8091C3048093C2048091170193
:10553000882339F1E091300521E02E0F293108F060
:1055400020E080912E05821709F49CC0822F90E004
:105550003091C504FC01EB5EFA4F308340911C048E
:1055600050911D04FC01EE0FFF1FE653FB4F5183CA
:10557000408330911E0484509B4FFC013083209364
:1055800030059091C3048091C204981709F4AAC011
:105590008F5F893108F080E08093C20490E0FC01C5
:1055A000E755FB4F30813093C7043093C504880F13
:1055B000991FFC01E958FB4F8081918110921F04D3
:1055C0001092C4048230910508F067C08091880071
:1055D000909189002091360530913705820F931FF5
:1055E0009093890080938800809180008F7B8068F1
:1055F00080938000809181008F7B8093810081E087
:105600000ACE90916904992309F487CF909165049B
:10561000911104C09091660491117FCFE091220412
:10562000F0E0EE0FFF1FED5DFB4F51834083806480
:105630005CCF911172CF80916904882309F46DCFFA
:1056400080916504811104C080916604811165CF49
:1056500080916604811106C081E0809366048BE02E
:1056600080936504E0912204F0E0EE0FFF1FED5DF2
:10567000FB4F51834083E0912204F0E0E15BFB4F5C
:1056800087EF38CF20913005E22FF0E0E450FB4F58
:105690008081886080835B9A74CF33E63093C9043D
:1056A000909374048093730480916F008D7F809336
:1056B0006F00809181008F7B8093810080E286BBA8
:1056C00080916F00806280936F00E22FF0E0E450E1
:1056D000FB4F80818068808380916205882329F058
:1056E0005D9A9BCD1092C904DFCF5D9896CD8091D5
:1056F000C9048111FCCF08958093680408958093B4
:10570000150108958093170108951F920F920FB607
:105710000F9211242F933F934F935F936F937F9337
:105720008F939F93EF93FF93209186003091870092
:105730008091840090918500809135058111D0C0C1
:1057400090916205992309F451C05E989091620589
:10575000992309F44DC05D9A5B9890912F059F3F66
:1057600039F090912F05909330059FEF90932F057E
:10577000409175045091760450931D0440931C048D
:105780001092700040913C0550913D05420F531F0F
:10579000509332054093310592E090933505109275
:1057A000330550938B0040938A0094E096BB909110
:1057B0006F00946090936F008111A9C0909167046D
:1057C0009111A5C090916804909369049091690427
:1057D000992309F49CC091E09093670410922204ED
:1057E00090EF909364041092660491C05E9AAECFDD
:1057F0005D98B2CF90916904992351F1909165041D
:10580000911104C090916604911122C0E09122048C
:10581000F0E0EE0FFF1FED5DFB4F31832083806AC8
:10582000E0912204F0E0E15BFB4F80838091220451
:105830008F5F80932204863111F4109222048091AC
:105840006604882329F08091650481508093650463
:10585000FF91EF919F918F917F916F915F914F9108
:105860003F912F910F900FBE0F901F9018958A3087
:1058700009F04DC0409131055091320560913E05CF
:1058800070913F05460F571F5093320540933105E5
:1058900050938B0040938A0094E096BB9BE01DC020
:1058A0004091340550E0559547954093340540911B
:1058B00031055091320560913E0570913F05460FCC
:1058C000571F509332054093310550938B004093FE
:1058D0008A0094E096BB91E0980F9093350517C02D
:1058E00040911A0450911B04B901641B750B40913F
:1058F0003A0550913B056417750708F47BCF8A3051
:1059000008F0B5CF823060F6813009F426CF90914F
:105910006904992351F190916504911104C090910B
:105920006604911122C0E0912204F0E0EE0FFF1F07
:10593000ED5DFB4F31832083806CE0912204F0E029
:10594000E15BFB4F8083809122048F5F8093220470
:10595000863111F41092220480916604882329F084
:105960008091650481508093650430931B042093DB
:105970001A046ECF1F920F920FB60F9211242F931D
:105980003F934F935F936F937F938F939F93AF93C7
:10599000BF93EF93FF9340918A0050918B00209129
:1059A000840030918500809135058A30B8F58230C9
:1059B00008F0F9C0813009F4C4C0909169049923BA
:1059C00009F4DEC090916504911104C090916604C1
:1059D0009111D6C0E0912204F0E0EE0FFF1FED5DC3
:1059E000FB4F318320838068E0912204F0E0E15B8B
:1059F000FB4F8083809122048F5F80932204863145
:105A000011F41092220480916604882309F4B8C02E
:105A100080916504815080936504B2C08A3009F496
:105A2000E4C08B3051F66091160170E06F5F7F4FDC
:105A3000A0913E05B0913F056A9FF0016B9FF00D6C
:105A40007A9FF00D112460913105709132056E0F2F
:105A50007F1F70938B0060938A0091E090933505CF
:105A6000909130059F5F993108F090E060912E058C
:105A7000691709F4C1C0E92FF0E060913405DF0136
:105A8000AB5EBA4F6C9360911C0470911D04DF01F2
:105A9000AA0FBB1FA653BB4F11967C936E93E45085
:105AA000FB4F1082609133056623D9F160816460F9
:105AB0006083609169046623A1F1609165046111BE
:105AC00004C06091660461112CC06091660461118C
:105AD00006C061E0609366046BE060936504E0914A
