:100000000C9424070C944C070C944C070C944C074C
:100010000C944C070C944C070C944C070C94591EF0
:100020000C944C070C944C070C9442220C94461FE1
:100030000C9477230C944C070C94181E0C944C07CA
:100040000C946D2A0C944C070C9423280C9455287E
:100050000C944C070C94731B0C944C070C944C0799
:100060000C944C070C944C076364696E6F70737545
:1000700078585B0020726561644572726F723D3022
:10008000780020435243206572726F72003A4F52DB
:100090002D00204352433D002D50453A002D424350
:1000A0003A002D58583A002D53423A003A20002E7B
:1000B000005420005220004520002A205265667519
:1000C00073696E6720746F20777269746520706140
:1000D000636B6574207768696C65207072657669FA
:1000E0006F7573207061636B6574207761736E2721
:1000F000742066696E69736865642C20666C75731C
:1001000068696E6720777269746520616374696FCE
:100110006E002A2053757270726973653A20726599
:100120006365697665642030304678337820706185
:10013000636B6574206F662073697A6520002064A4
:10014000657465637465642C20737769746368698A
:100150006E6720636F6E74726F6C2066756E637469
:10016000696F6E616C6974792063616E20626520CD
:100170007377697463686564206F6E20287573698E
:100180006E67204C31290020646574656374656472
:100190002C20636F6E74726F6C2066756E63746969
:1001A0006F6E616C6974792077696C6C207265730D
:1001B00074617274002A204E6F20617578696C69D1
:1001C00061727920636F6E74726F6C6C65722061FE
:1001D0006E73776572696E6720746F2061646472F4
:1001E000657373203078002064657465637465649A
:1001F000002A205761726E696E673A20616E6F74D3
:1002000068657220617578696C6961727920636FC5
:100210006E74726F6C6C657220697320616E737797
:100220006572696E6720746F2061646472657373B0
:10023000203078002A205265667573696E672074D5
:100240006F20777269746520636F756E7465722DA7
:1002500072657175657374207061636B6574207766
:1002600068696C652070726576696F75732070615E
:10027000636B6574207761736E27742066696E699D
:1002800073686564002A205761726E696E673A2050
:1002900055706F6E2041546D65676120726573748F
:1002A00061727420617578696C6961727920636F1D
:1002B0006E74726F6C6C65722066756E6374696FB4
:1002C0006E616C69747920616E6420636F756E7401
:1002D000657220726571756573742066756E6374DE
:1002E000696F6E616C6974792077696C6C207265D6
:1002F0006D61696E207377697463686564206F66E9
:1003000066002A20537769746368696E6720636F9B
:100310006E74726F6C2066756E6374696F6E616C5B
:10032000697479206F6666002A2053776974636860
:10033000696E6720636F756E746572207265717582
:100340006573742066756E6374696F6E206F666680
:10035000002A205741524E494E473A20746F6F2071
:100360006D616E792072656164206572726F72735F
:1003700020646574656374656400203F2000E2803A
:10038000BE5C5F005F2FE280BE005F5F5F00E280C7
:10039000BEE280BEE280BE002D582D002020206CE1
:1003A00077202020002020207065202020002020A1
:1003B00020504520202000202020626320202000A3
:1003C0002020204243202020002020207362202073
:1003D0002000202020534220202000202020626581
:1003E00020202000202020424520202000632000E3
:1003F0004320002A20526563656976656420706138
:10040000636B6574206C6F6E676572207468616ED3
:100410002052425F53495A45002A20436F6D6D6157
:100420006E64206E6F7420756E64657273746F6F86
:10043000643A20002A20436F6E74726F6C5F6964A7
:10044000206973203078002A20436F6E74726F6CBD
:100450005F69642073657420746F203078002A20EF
:10046000434F4E54524F4C5F494420697320616C96
:1004700072656164792030783030002A20596F75B8
:10048000206D6179207769736820746F2072652D03
:1004900074727920696E20612066657720736563C8
:1004A0006F6E64732028616E64207065726861707D
:1004B0007320737769746368206F74686572206154
:1004C0007578696C6961727920636F6E74726F6C94
:1004D0006C657273206F666629002A204E6F206655
:1004E000726565206164647265737320666F722043
:1004F000636F6E74726F6C6C657220666F756E647C
:100500002028796574292E20436F6E74726F6C20D9
:1005100066756E6374696F6E616C697479206E6F55
:100520007420656E61626C6564002A20436F6E748E
:10053000726F6C5F4944203078463020737570705C
:100540006F727465642C206E6F20617578696C69B8
:1005500061727920636F6E74726F6C6C6572206665
:100560006F756E6420666F7220307846302C207371
:100570007769746368696E6720636F6E74726F6CFD
:100580002066756E6374696F6E616C697479206F33
:100590006E2030784630206F6E002A20434F4E5434
:1005A000524F4C5F494420697320616C72656164ED
:1005B00079203078002A204572726F7273706572EC
:1005C0006D697474656420286572726F722062753B
:1005D000646765742920746F6F206C6F773B2063AC
:1005E0006F6E74726F6C2066756E6374696F6E6186
:1005F0006C6974792063616E6E6F7420656E6162E0
:100600006C6564002A205363686564756C696E6765
:1006100020617474656D707420746F2072657374DA
:10062000617274204461696B696E002A207265737F
:10063000746172744461696B696E20776169746971
:100640006E6720746F2072656365697665207361DB
:100650006D706C65207061796C6F6164002A207226
:100660006573746172744461696B696E20616C7248
:1006700065616479207363686564756C6564002ADC
:1006800020696E736572744D65737361676520616F
:100690006C7265616479207363686564756C656408
:1006A000002A20526573657474696E672041546D29
:1006B000656761202E2E2E2E002A205265667573E6
:1006C000696E6720746F207772697465207061634A
:1006D0006B6574207768696C652070726576696FE8
:1006E0007573207061636B6574207761736E277416
:1006F0002066696E6973686564002A2052656675B4
:1007000073696E6720746F20777269746520656DF8
:10071000707479207061636B6574002A2057726968
:1007200074696E673A20002D2076616C69642064DC
:10073000617461206D697373696E672C20777269CB
:10074000746520736B6970706564002A2057726944
:1007500074696E67206E65787420343046303330AB
:1007600020736C6F743A20002A20696E736572746E
:100770004D65737361676520286F722072657374AD
:100780006172744461696B696E2920616C72656184
:100790006479207363686564756C6564007365745F
:1007A00020746F20002A204563686F2000736574F1
:1007B00020746F20002A20536F6674776172652D54
:1007C00073636F7065200073657420746F20002A56
:1007D0002044656C617954696D656F757420007390
:1007E000657420746F20005B757365206F662064EC
:1007F000656C61792030206F722031206E6F74201B
:100800007265636F6D6D656E6465642C20696E63DF
:1008100072656173696E6720746F20325D20002AF3
:100820002044656C6179200073657420746F20002A
:100830002A20566572626F736520003078007365F8
:100840007420746F20002A204372635F66656564BC
:10085000200030780073657420746F20002A2043D4
:1008600072635F67656E2000206E723A2000207010
:10087000743A203078002A2049676E6F72696E677B
:1008800020696E737472756374696F6E2C2065785D
:10089000706563746564203320617267756D656E81
:1008A00074732C2072656365697665643A20002A4A
:1008B0002043757272656E746C79206E6F2077724A
:1008C00069746520627564676574206C6566740080
:1008D00020746F2076616C7565203078002070611F
:1008E000796C6F6164206279746520002A20496EFA
:1008F0006974696174696E672077726974652066CE
:100900006F72207061636B65742D7479706520302F
:10091000780077725F76616C20666F722070617903
:100920006C6F6164206279746520313720286661BC
:100930006E2D6D6F646529206D757374206265205E
:10094000696E2072616E676520307830302D3078A6
:1009500030330077725F76616C20666F7220706151
:10096000796C6F6164206279746520342F38202897
:1009700066616E2D737065656420636F6F6C696E60
:10098000672F68656174696E6729206D75737420BF
:10099000626520696E2072616E6765203078313142
:1009A0002D307835310077725F76616C20666F721A
:1009B000207061796C6F6164206279746520322FD8
:1009C0003620287461726765742D74656D702063BC
:1009D0006F6F6C696E672F68656174696E67292037
:1009E0006D75737420626520696E2072616E676533
:1009F00020307831302D307832300077725F766178
:100A00006C20666F72207061796C6F61642062790E
:100A10007465203120286F7065726174696E672D6E
:100A20006D6F646529206D75737420626520696E31
:100A30002072616E676520307836302D3078363719
:100A40000077725F76616C20666F72207061796CDE
:100A50006F6164206279746520302028737461743A
:100A6000757329206D7573742062652030206F7254
:100A70002031002A2077725F76616C203E2030782A
:100A800046463A20002A2077725F6E7220696E76A1
:100A9000616C69642C2073686F756C6420626520DA
:100AA000302C20312C20322C20342C20362C203895
:100AB00020286F7220666F72207061636B657420EE
:100AC0007479706520307833423A203136206F7265
:100AD000203137293A2000206973206E6F7420304E
:100AE000783338206F722030783342002A207772B2
:100AF0005F70743A203078002A2050726576696FF2
:100B0000757320706172616D6574657220777269AA
:100B1000746520616374696F6E207374696C6C20F6
:100B200062757379002A20436F6D6D616E64207267
:100B300065717569726573206F7065726174696F34
:100B40006E20617320617578696C696172792063C8
:100B50006F6E74726F6C6C657220284C3129002A9C
:100B60002052656365697665643A20002A20456DE8
:100B7000707479206C696E6520726563656976654D
:100B800064002A2052656365697665643A20220014
:100B90002A204C696E6520746F6F206C6F6E672C15
:100BA000206C61737420706172743A20002A2046B0
:100BB00069727374206C696E652069676E6F726507
:100BC000643A202D3E003C2D002A204C696E6520A1
:100BD000746F6F206C6F6E672C207465726D696E18
:100BE000617465642C2069676E6F7265643A202DAC
:100BF0003E003C2D002A204C696E6520746F6F20EA
:100C00006C6F6E672C2069676E6F7265642C20694B
:100C1000676E6F72696E672072656D61696E64657B
:100C2000723A202D3E00502020202020202020201D
:100C3000005220002A205265616479207365747522
:100C400070002A2053455249414C53504545443D7C
:100C5000002A204350555F53504545443D002A200B
:100C6000566572626F736974793D002A204630338D
:100C70005844454C41593D002A20463033304445C4
:100C80004C41593D002A20436F756E746572726540
:100C900070656174696E67726571756573743D0026
:100CA0002A20434F4E54524F4C5F49445F444546BF
:100CB00041554C543D3078002A20436F6E74726F5A
:100CC0006C5F49443D3078002A20503150322D4528
:100CD00053502D696E746572666163652041546D71
:100CE000656761487749442076312E002028706F6F
:100CF0007765722D6F6E2D726573657429002028DB
:100D00006578742D72657365742900202862726F8E
:100D1000776E2D6F75742D646574656374656429D1
:100D2000002A2052657365742063617573653A20EB
:100D30004D435553523D0020462D736572696573CE
:100D400000204E4557503150324C494200202B6311
:100D50006F6E74726F6C0032323A35393A3030004F
:100D600020004A756C2031312032303233002A2085
:100D7000436F6D70696C656420002A2050315032D9
:100D80004D6F6E69746F722D76302E392E343000AF
:100D90002A20454550524F4D20736967206D697375
:100DA0006D617463682C20696E697469616C697A1D
:100DB000696E6720454550524F4D002A20454550E9
:100DC000524F4D20736967206D61746368002A205B
:100DD000636865636B696E6720454550524F4D00EF
:100DE00000000009000302000004050800000000E4
:100DF00000000000000000010204081020408001F3
:100E0000020408102001020408102040804004045D
:100E100004040404040402020202020203030303A2
:100E20000303020203000000002300260029000043
:100E3000000000250028002B0000000000240027EF
:100E4000002A000085281E0A11241FBECFEFD8E01B
:100E5000DEBFCDBF11E0A0E0B1E0EEE2FDE502C0F3
:100E600005900D92A236B107D9F724E0A2E6B1E0D1
:100E700001C01D92A434B207E1F717E0C3E2D7E046
:100E800004C02197FE010E94152BC232D107C9F779
:100E90000E945E2A0C948A2E0C9400001F93CF931C
:100EA000DF93EC01162F0E943D2E181739F0612FA9
:100EB000CE01DF91CF911F910C94452EDF91CF9100
:100EC0001F9108950C943D2ECF92DF92EF92FF92E6
:100ED0000F931F93CF93DF9380911201882331F0FA
:100EE0006EEC7DE08EE993E00E9425298CE1E82EEE
:100EF00081E0F82E670100E110E0C1E0C8010E9426
:100F00006207F60121916F01022E000C330B91E074
:100F10008217130609F090E0C9230F5F1F4F0931B4
:100F2000110561F7809112018823E9F16BEB7DE0F7
:100F30008EE993E00E94EE286C2F70E04AE050E0CA
:100F40008EE993E00E94E929C1112FC0809112011E
:100F5000882331F060E97DE08EE993E00E94252945
:100F6000C0E1D0E0F70161917F01CE010E944E0700
:100F70002196C931D105B1F760E090E080E00E9490
:100F80004E0760E081E090E00E944E0763E082E05F
:100F900090E0DF91CF911F910F91FF90EF90DF9044
:100FA000CF900C944E07CC23D9F2DF91CF911F91B3
:100FB0000F91FF90EF90DF90CF9008956AE77DE06A
:100FC0008EE993E00E9425296EE67DE08EE993E0AC
:100FD0000E94EE2862E67DE08EE993E00E94EE2812
:100FE00060E67DE08EE993E00E94EE2867E57DE013
:100FF0008EE993E00E94EE286DE47DE08EE993E0B7
:101000000E94EE2861E47DE08EE993E00E94EE28E4
:1010100067E37DE08EE993E00E94EE288EE993E09D
:101020000E94212961E27DE08EE993E00E94EE2892
:101030004AE050E0609146028EE993E00E941A2A4D
:101040008091460282FF06C06BE07DE08EE993E06E
:101050000E94EE288091460281FF06C06EEF7CE080
:101060008EE993E00E94EE288091460280FF06C040
:101070006CEE7CE08EE993E00E94EE288EE993E02E
:101080000E94212968EC7CE08EE993E00E94EE2822
:101090004AE050E060916E018EE993E00E94212ABF
:1010A00068EB7CE08EE993E00E94EE2840E150E09E
:1010B000609149028EE993E00E94212A60EA7CE077
:1010C0008EE993E00E94EE2840E150E070E060E09D
:1010D0008EE993E00E94E92965E87CE08EE993E0DF
:1010E0000E94EE284AE050E0609147028EE993E0CA
:1010F0000E94212A68E77CE08EE993E00E94EE28B6
:101100004AE050E064E670E08EE993E00E94E9294D
:101110006BE67CE08EE993E00E94EE284AE050E026
:101120006EE170E08EE993E00E94E9296EE57CE0D3
:101130008EE993E00E94EE284AE050E060911201AF
:101140008EE993E00E94212A61E57CE08EE993E03C
:101150000E94EE282AE030E040E052E16AE770E0C9
:101160008EE993E00E94FB2962E47CE08EE993E043
:101170000E94EE282AE030E040E950ED63E070E0A4
:101180008EE993E00C94FB29EF92FF920F931F934B
:1011900084B78093460214BE62E084E00E94382641
:1011A00061E083E00E94382660E083E00E947426BC
:1011B00084E00E94A2267C0161E083E00E94742604
:1011C00084E00E94A2268C0160E084E00E94382620
:1011D00060E083E00E943826EF2831F48FEF012B86
:1011E00009F082E080936E0180916E01811149C007
:1011F00083E080937E0010927B0088B1836088B981
:1012000081EC80937C0086ED80937A0080917A0057
:1012100086FDFCCF209178008091790090E0982F96
:101220008827820F911D90936D0180936C0188B186
:101230008C7F88B987EC80937C0086ED80937A0060
:1012400080917A0086FDFCCF209178008091790012
:1012500090E0982F8827820F911D90936D018093C5
:101260006C0188B188B910927E0080916C019091D8
:101270006D0181529340873C910518F481E0809381
:101280006E0126E040E950ED63E070E08EE993E006
:101290000E94A5270E94DE070E94640790E080E07C
:1012A0000E9462078093490281E090E00E946207F9
:1012B0008093470282E090E00E94620780931201CF
:1012C00080916E01EE24E394823029F0E12C07E056
:1012D00026E0813011F001E020E041E0811101C001
:1012E00040E060E875E280E090E00E94161D809189
:1012F0000C010E943F2280914A020E943C22809170
:101300000D0190910E010E94FA1E60E08BE492E0C4
:101310000E94101D64E37CE08EE993E01F910F9121
:10132000FF90EF900C9425297F936F9326E231E094
:101330003F932F939F938F930E94292B0F900F9091
:101340000F900F900F900F9008957F936F9329E265
:1013500031E03F932F939F938F930E94292B0F90FF
:101360000F900F900F900F900F900895EF92FF92B3
:101370000F931F93CF93DF93F82ED92FE62E8091F2
:101380001201882331F061E37CE08EE993E00E9452
:10139000EE288091120180FF06C066E27CE08EE9B3
:1013A00093E00E94EE28C0916B010F2D1D2FE00EDF
:1013B000F12EF11CE016F10629F1F801D1918F010F
:1013C000D03128F460E38EE993E00E941A2940E1CD
:1013D00050E06D2F8EE993E00E941A2A30910201AD
:1013E000332341F328E08C2F90E095958795CD2706
:1013F000C0FF06C0C32FC827D6952150A1F7DACF6A
:10140000C82FFACF80910201882371F0C03128F4EF
:1014100060E38EE993E00E941A2940E150E06C2FCE
:101420008EE993E00E941A2A8EE993E0DF91CF9132
:101430001F910F91FF90EF900C9421290C942C2573
:101440002F923F924F925F926F927F928F929F92D4
:10145000AF92BF92CF92DF92EF92FF920F931F93C2
:10146000CF93DF93CDB7DEB7A4970FB6F894DEBF66
:101470000FBECDBF90916E01923049F4809165010D
:10148000813009F464C060F1823009F46AC080914F
:10149000650181110C948F1A8EE993E00E94E52674
:1014A0008C0197FF02C00C948F1A80916F01E0911C
:1014B0000301F09104010A30110511F40C94431A50
:1014C000833610F00C94471A9F012F5F3F4F3093E3
:1014D00004012093030100838F5F80936F01D7CFB6
:1014E0001C992AC081E08093650161E08BE492E061
:1014F0000E940A1D60E08BE492E00E94101D8EE9BC
:1015000093E00E940128A4960FB6F894DEBF0FBEA8
:10151000CDBFDF91CF911F910F91FF90EF90DF90A2
:10152000CF90BF90AF909F908F907F906F905F9083
:101530004F903F902F9008951D99A9CF90936501EA
:1015400060E08BE492E00E940A1D61E0D4CF1D9917
:10155000DACF9093650161E08BE492E00E94101D68
:10156000D2CF1D9BD0CF109265012BEC31E0309390
:1015700004012093030110926F0110926401809383
:10158000000126E040E950ED63E070E08EE993E071
:101590000E94A52760E08BE492E00E94101D61E0AC
:1015A0008BE492E00E940A1D0E94DE07ACCF8111FD
:1015B0002AC080916501811106C069EC7BE08EE94B
:1015C00093E00E94EE2880916501811106C06BECCA
:1015D00071E08EE993E00E941229809165018111EA
:1015E00005C06F2D8EE993E00E941A298091650154
:1015F000811106C066EC7BE08EE993E00E9425290C
:1016000081E080936401109200010C94871A10828B
:10161000882381F0A82FB0E0A653BE4F9C919D3047
:1016200049F4815080936F013197F0930401E09366
:1016300003011082809100018230A1F58091650143
:10164000811106C06DEA7BE08EE993E00E94EE28EE
:101650008091650190916F019A3098F46BEC71E084
:101660008111D1CF8EE993E00E941229809165010A
:101670008111C9CF61E371E08EE993E00E943729BF
:10168000C2CF1092D401811106C06BEC71E08EE9DB
:1016900093E00E941229809165018111B4CF6DE21F
:1016A00071E0E0CF8130C9F4809164018111ABCF4A
:1016B00080916501811106C060E97BE08EE993E0CD
:1016C0000E94EE288091650181119ACF6BEC71E048
:1016D0008EE993E00E94372993CF809112018130E7
:1016E00011F08430F1F480916501811106C062E847
:1016F0007BE08EE993E00E94EE28809165018111E4
:1017000006C06BEC71E08EE993E00E941229809193
:101710006501811106C064E371E08EE993E00E94E7
:10172000372980ED91E0909304018093030144E018
:1017300050E066E371E08BEC91E00E941B2B6C01A2
:10174000892B11F00C94871A8091CF01873509F409
:101750005CC40CF0FFC08B3409F41CC10CF072C0E7
:10176000863409F405C1E4F4882309F4C0C18A323F
:1017700009F4D2C180916501811106C069E174E06C
:101780008EE993E00E94EE288091650181110C940E
:10179000871A609103017091040161507109D7C1EA
:1017A000873409F49AC3883429F780911201882379
:1017B00051F080916501811106C066E478E08EE900
:1017C00093E00E94EE28BE016B5E7F4F8091030183
:1017D000909104010E94A509019799F48D89809345
:1017E0006B0180911201882311F40C94871A809167
:1017F0006501811106C06EE378E08EE993E00E94F6
:10180000EE2880916501811106C06BE378E08EE9D6
:1018100093E00E94EE288091650190916B019031D8
:1018200038F4811105C060E38EE993E00E941A2923
:101830008091650140E150E060916B0181110C9451
:10184000871A97C3843509F4C1C00CF03FC08C34AB
:1018500009F40CC58F3409F08DCF809112018823D3
:1018600051F080916501811106C06FEC77E08EE93F
:1018700093E00E94EE286DE071E080910301909169
:1018800004010E9494090197B9F480910D0190918F
:101890000E010E94FA1E80911201882311F40C940B
:1018A000871A8091650181110C94871A67EC77E0A3
:1018B0008EE993E00E94EE288091650181110C94DD
:1018C000871A60910D0170910E01C0C1853509F430
:1018D00056C3863509F04ECF80916501811106C04F
:1018E00060E378E08EE993E00E94EE28BE01695E35
:1018F0007F4F80910301909104010E949409019708
:10190000C9F48F89988D059720F084E090E0988F36
:101910008F8B80916501811106C068E278E08EE9C5
:1019200093E00E94EE286F896093120182E090E0BC
:101930000E944E0780916501811108C04AE050E085
:10194000609112018EE993E00E94212A0E94DE0735
:101950000C94871A8C3609F489C46CF5873609F41F
:10196000BCC294F4883509F482C0863609F002CFEF
:10197000809149028111F1C08091650165E27BE0AF
:1019800081110C94871AC2C0883609F40ECF8B36A9
:1019900009F0F0CE80916501811106C061EA76E020
:1019A0008EE993E00E942529E0916901F0916A0196
:1019B00009950C94871A853709F4E1C20CF04FC0E1
:1019C0008F3609F44ACF843709F0D4CE80911201C2
:1019D000882351F080916501811106C06FE178E0A4
:1019E0008EE993E00E94EE286FE071E080910301A0
:1019F000909104010E949409019739F580910F019B
:101A000090911001029780F482E090E09093100191
:101A100080930F0180916501811106C067EE77E028
:101A20008EE993E00E94EE2880911201882311F440
:101A30000C94871A8091650181110C94871A6FEDBF
:101A400077E08EE993E00E94EE2880916501609135
:101A50000F017091100181110C94871AF7C087371C
:101A600009F4D3C20CF438CF883709F083CE8091C3
:101A70001201882351F080916501811106C065EA49
:101A800077E08EE993E00E94EE28BE01695E7F4F09
:101A900080910301909104010E9494098130910585
:101AA000E1F42F89388D232B11F0988F8F8B8F893C
:101AB00080930C010E943F2280911201882311F42F
:101AC0000C94871A8091650181110C94871A6DE935
:101AD00077E08EE993E00E94EE2880916501811104
:101AE0000C94871A4AE050E060910C0142C2809148
:101AF0001201813021F0843011F00C94871A80910A
:101B000065016CE67BE081110C94871A8EE993E005
:101B10000E9425290C94871A80911201813021F0AE
:101B2000843011F00C94871A80916501811106C0F0
:101B30006FE57BE08EE993E00E94EE2880916501DD
:101B4000609103017091040181110C94871A8EE950
:101B500093E00E9437290C94871A809145028823CC
:101B600041F08091650168EF7AE081110C94871A49
:101B7000CDCF8DE392E09F938F9381E492E09F938A
:101B80008F9383E492E09F938F938BE391E09F93F5
:101B90008F9380ED91E09F938F930E94292B9C8BD4
:101BA0008B8B0FB6F894DEBF0FBECDBF20916501C1
:101BB000039709F043C1809143028833F1F08B33DE
:101BC000E1F0211106C06CEE7AE08EE993E00E940C
:101BD000EE2880916501811108C040E150E06091DC
:101BE00043028EE993E00E941A2A8091650167ED15
:101BF0007AE081110C94871A89CF4091410250916B
:101C000042024231510588F4BA016B7F633071059D
:101C100061F04530510549F0FA013997379728F0BE
:101C200040315105D9F48833E1F4211106C065E84B
:101C30007AE08EE993E00E94EE2880916501609140
:101C400041027091420281110C94871A4AE050E0DF
:101C50008EE993E00E94392A0C94871A413151058C
:101C600011F380913D0290913E02A0913F02B0910C
:101C700040028F3F9105A105B105F1F0E8F0211177
:101C800006C063E77AE08EE993E00E94EE28809137
:101C9000650181110C94871A40913D0250913E02DA
:101CA00060913F02709140022AE030E08EE993E0BB
:101CB0000E944B2A0C94871A4115510559F402973A
:101CC000A105B10508F454C061E47AE021110C9437
:101CD000871A1CCF4130510579F480569109A1092A
:101CE000B1090897A105B10508F442C06BEF79E08E
:101CF00021110C94871A0ACF6230710599F46C0196
:101D00007D013AE0C31AD108E108F108E5E1CE16F9
:101D1000D104E104F10430F066EA79E021110C9479
:101D2000871AF4CE4430510519F04830510599F422
:101D30006C017D01F1E1CF1AD108E108F10831E42D
:101D4000C316D104E104F10430F021110C94871A78
:101D500063E579E0DBCE4131510551F40497A105EB
:101D6000B10530F062E179E021110C94871ACECEF2
:101D700080910A01882309F45BC08F3F19F08150DC
:101D800080930A0181E080934502211106C06CEE28
:101D900078E08EE993E00E94EE2880916501811140
:101DA00008C040E150E0609143028EE993E00E9458
:101DB0001A2A80916501811106C06DED78E08EE9E7
:101DC00093E00E94EE288091650181110AC0609124
:101DD0004102709142024AE050E08EE993E00E9495
:101DE000332A80916501811106C060ED78E08EE9AB
:101DF00093E00E94EE288091650181110EC0409110
:101E00003D0250913E0260913F027091400220E1FC
:101E100030E08EE993E00E940D2A809165018111E6
:101E20000C94871A8EE993E00E9421290C94871A5A
:101E30006FEA78E021110C94871A68CE211106C050
:101E400066E778E08EE993E00E94EE286B897C8952
:101E500080916501811106C04AE050E08EE993E06F
:101E60000E94E229809165012B893C891216130694
:101E7000A4F4811106C06EE678E08EE993E00E943A
:101E8000EE2880916501811108C040E150E0609129
:101E900043028EE993E00E941A2A809165012B8902
:101EA0003C89223031050CF4B8CF811106C068E6B8
:101EB00078E08EE993E00E94EE288091650181111F
:101EC0000C94871A60914102709142024AE050E0FE
:101ED0008EE993E00E94332AA0CF809112018823DB
:101EE00051F080916501811106C06DE578E08EE9C1
:101EF00093E00E94EE28BE016B5E7F4F809103014C
:101F0000909104010E94A509019799F48D8980930D
:101F1000020180911201882311F40C94871A809198
:101F20006501811106C065E578E08EE993E00E94C5
:101F3000EE2880916501811106C062E578E08EE9A6
:101F400093E00E94EE28809165019091020190310A
:101F500038F4811105C060E38EE993E00E941A29EC
:101F60008091650140E150E06091020181110C9483
:101F7000871A8EE993E00E94212A0C94871A809197
:101F80001201882351F080916501811106C065EB33
:101F900077E08EE993E00E94EE28BE01695E7F4FF4
:101FA00080910301909104010E9494090197E1F44A
:101FB0008F8980934A02823018F081E080934A0230
:101FC00080914A020E943C2280911201882311F4E0
:101FD0000C94871A80916501811112C06DEA77E037
:101FE0008EE993E00E94EE2880916501811108C07E
:101FF0004AE050E060914A028EE993E00E94212A73
:1020000088EC809301010C94871A809149028823FF
:1020100009F483C080914D02811104C080914F0268
:10202000882341F08091650168E677E081110C9486
:10203000871A6CCD80911201882351F0809165013F
:10204000811106C06BE477E08EE993E00E94EE28F0
:1020500010924C0210924E028E010D5E1F4F7E01B7
:1020600081E1E80EF11CB5E4CB2EB1E0DB2EBB2400
:10207000B3941F930F93FF92EF92DF92CF928091D0
:1020800004018F93809103018F930E94292B0FB637
:10209000F894DEBF0FBECDBF019761F0809165015E
:1020A00090914D029111BBCE67E277E081110C94C3
:1020B000871A2CCD29893A8980914C028F5F8093B1
:1020C0004C02B0924D0280910301909104014B8922
:1020D0005C89840F951F9093040180930301809184
:1020E0001201882331F2809165012031310544F4D9
:1020F000811106C06BE471E08EE993E00E94122921
:10210000809165018111B5CF69897A8940E150E0FC
:102110008EE993E00E94E229ACCF809112018823DE
:1021200051F080916501811106C06BE177E08EE985
:1021300093E00E94EE2802EB11E07E0123E1E20E23
:10214000F11C5E0131E1A30EB11CA5E48A2EA1E0D1
:102150009A2EFF92EF92BF92AF929F928F928091B0
:1021600004018F93809103018F930E94292B0FB656
:10217000F894DEBF0FBECDBF0197B1F529893A892A
:10218000FFEFCF1ADF0AF80121938F01809103013D
:10219000909104014B895C89840F951F90930401F1
:1021A00080930301809112018823C9F08091650119
:1021B0002031310544F4811106C06BE471E08EE9F1
:1021C00093E00E94122980916501811108C06989FC
:1021D0007A8940E150E08EE993E00E94E229F9E13A
:1021E000CF16D10409F0B5CF80911201811118C02A
:1021F0000E94FF1E882329F1C114D104D1F020913F
:102200000F0130911001E0906B01009102014C2D03
:1022100062EB71E08BE492E00E94C7250C94871A70
:10222000809165018111E4CF8EE993E00E9421291C
:10223000DFCF809165016AEF76E081110C94871AF7
:1022400065CC80916501811106C069EB76E08EE96D
:1022500093E00E942529809150028F3F11F40C9445
:10226000871A8F5F809350020C94871ABE01695EB3
:102270007F4F80ED91E00E949409019709F0D8C04A
:102280008F89988D8336910549F5809165019091EC
:102290004D02992331F06FE776E081110C94871A93
:1022A00035CC90914F02992331F06DE576E08111A4
:1022B0000C94871A2BCC90914E02911106C06BE2C0
:1022C00076E081110C94871A21CC91E090934F0213
:1022D00064E076E081110C94871A18CC8630910561
:1022E00010F4049711F4188E1F8A8F89988D80FF3F
:1022F00086C08091650190910901953030F465EBBD
:1023000075E081110C94871A01CC909149029923B0
:1023100011F1811106C06AE975E08EE993E00E942F
:10232000EE2880916501811108C040E150E0609184
:1023300049028EE993E00E94212A8F89988D0297A5
:1023400010F00C94871A6091490290E080E00E949E
:102350004E070C94871A909107019530E9F5811189
:1023600006C06AE275E08EE993E00E94252980EFBD
:10237000809349028F89988D21E08530910509F479
:1023800020E02093110160EF029708F44CC0809187
:102390001201882311F40C94871A8091650167E477
:1023A00074E0882309F44FC080916501909149023F
:1023B000903140F4811106C06BE471E08EE993E046
:1023C0000E9412298091650140E150E0609149022C
:1023D00081110C94871ACDCD811106C06AED74E08D
:1023E0008EE993E00E942529809165018111CFCF6C
:1023F0006BE774E08EE993E00E942529C8CF209115
:102400004902211108C0809165016EE574E08111D7
:102410000C94871A7BCB10924902109245020297C6
:1024200008F0B5CF60E090E080E00E944E07AFCFAB
:102430008091650190911201992309F4B5CF811122
:10244000B3CF64E374E08EE993E00E94EE28ACCF52
:1024500080914A028823A1F080910101552019F052
:10246000863008F09DC090919101903409F095C09C
:1024700090919201903F09F090C0833308F090C092
:10248000809101018F5F893C08F07BC2809301013C
:102490001092A102852D8F7309F477C281149104E3
:1024A000A104B10409F457C0809153028F3F29F071
:1024B0008F5F8093530250925202809109018823CA
:1024C00009F449C0815080930901811144C0809171
:1024D0006501811106C061E573E08EE993E00E9419
:1024E000252980914702882351F08091650181114F
:1024F00006C068E273E08EE993E00E94252980918E
:102500004902882351F080916501811106C062E083
:1025100073E08EE993E00E942529109249021092FF
:1025200047021092480280916501811106C065E85A
:1025300072E08EE993E00E9425296091490290E0C3
:1025400080E00E944E076091470281E090E00E9487
:102550004E07109245028091910190914D02911188
:1025600077C481110C94681B80919201811109C07C
:1025700080919301823129F4C0924C0281E08093D2
:102580004E0280919201811170C4809193018F312C
:1025900009F06BC44092670168C4873908F470CFB2
:1025A00090915C02911105C090919E02903F09F4B8
:1025B00067CF85508093010180916501552009F412
:1025C0007DC060EF73E0882309F47CC080919101A5
:1025D000803148F480916501811105C060E38EE986
:1025E00093E00E941A2980916501811108C040E1A1
:1025F00050E0609191018EE993E00E941A2A809147
:102600009201803148F480916501811105C060E339
:102610008EE993E00E941A2980916501811108C01A
:1026200040E150E0609192018EE993E00E941A2A05
:1026300080919301803148F480916501811105C03A
:1026400060E38EE993E00E941A298091650181116F
:1026500008C040E150E0609193018EE993E00E9450
:102660001A2A80916501811105C060E28EE993E02C
:102670000E941A2980919E02803F49F100915C02DC
:10268000802F90E09A8F898FF72CA98DBA8DA7574C
:10269000BD4FEC9180916501E75FE93008F066C0BD
:1026A000F0E0EB5AFC4E0C94152BB1138A13AC13CB
:1026B000A21398136A13A7139D139313811186CF46
:1026C0006DEE73E08EE993E00E94EE287FCF1A8EC4
:1026D000198EDACF64EE73E0882301F1298D3A8DEB
:1026E0002F5F3F4F3A8F298F2631310511F41A8E13
:1026F000198E80915C02E98DFA8D8E171F0609F004
:10270000C4CF809165018111BBCE8EE993E00E9418
:102710002129B6CE6BED73E08111E0CF8EE993E015
:102720000E94EE28DBCF62ED73E08111D7CFF6CFA8
:1027300069EC73E08111D2CFF1CF60EC73E08111CD
:10274000CDCFECCF67EB73E08111C8CFE7CF6EEA56
:1027500073E08111C3CFE2CF65EA73E08111BECF90
:10276000DDCF8111BBCF6CE973E0D8CF1C91107E17
:102770000C910F71E98DFA8DEE0FFF1FF8A3EF8F0B
:10278000F1104CC0103439F4811105C060E28EE9BB
:1027900093E00E941A29EF8DF8A1E35AFD4FE080E3
:1027A000F1808091620190916301E81AF90A53E087
:1027B000F694E7945A95E1F7FAE0EF16F10498F4ED
:1027C00080916501811105C060E28EE993E00E946D
:1027D0001A2980916501811121C060E28EE993E0A0
:1027E0000E941A2904C024E6E216F10490F38091B5
:1027F0006501811113C04AE050E0B7018EE993E012
:102800000E94332A80916501103409F449C781116F
:1028100005C06AE38EE993E00E941A29EF8DF8A1C2
:10282000E35AFD4F8081918190936301809362010F
:1028300080916501103689F148F4112301F11034BB
:1028400009F438C760E281115DC069C0103A21F017
:10285000103C11F01038B1F70A3008F04BC00230CC
:1028600008F472C081114EC0E02FE250FF0BBF018F
:102870004AE050E08EE993E00E94E22954C08111C1
:1028800005C06FE38EE993E00E941A2980916501EB
:102890006AE873E081116CC06FC0033140F403300B
:1028A000D0F4013070F481110FC060E205C0053131
:1028B000D0F760E5811108C08EE993E00E941A29E3
:1028C00003C063E58823C1F38091650164E873E088
:1028D00081114EC051C08111F7CF802F8350990BC9
:1028E000BC01759567954AE050E08EE993E00E943F
:1028F000E229EACF0A3081F00B3009F0A3CF65E47A
:10290000882369F0103601F308F0E6C6112309F4B4
:10291000BDCF103469F5D5C660E58111F3CF8EE9DE
:1029200093E00E941A29103679F2809165011136E0
:1029300078F4112309F4AACF103409F4C2C6811126
:1029400017C06AE773E018C08111DCCF63E5E7CFF9
:10295000103A51F0103C09F4B4C6103881F76EE813
:1029600073E0882349F004C080916501882311F049
:10297000F12CB4CE68E973E08EE993E00E94EE2872
:10298000F7CFF8ECF093010183CD909191015110B4
:10299000E2CD2AE0C216D104FCF091111DC0809155
:1029A0009201811119C0809193018231A9F4809123
:1029B000970180933C0220910B01821769F02091CE
:1029C0004702222339F020914802211103C031E04F
:1029D0003093480280930B0180910701853009F004
:1029E000B0C080914802882309F4ABC0E5E0CE1660
:1029F000D1040CF4B0CD9111A9C090919201903FF7
:102A000009F0A4C090919301903309F09FC0982FD2
:102A10009370913009F090C01092B2011092B301FE
:102A200098EB9093B40190E095958795959587954F
:102A30008093B5010E94FF1E182F882309F469C0F6
:102A4000E0906B01009102012EE130E044E062EB86
:102A500071E08BE492E00E94C725712E80914802BC
:102A60008F5F863109F46AC080934802809191019A
:102A7000803409F06DC080919201982F9E7F903F25
:102A800009F069CD90919301292F2073203309F02B
:102A900062CD282F21702D8F1E8E903329F4ED8D5D
:102AA000FE8DEB5FFE4F108229813A812C3131057A
:102AB00008F051CDED8DFE8DE95FFE4F10829091B3
:102AC0004902891348CD80916501811106C061EFEB
:102AD00071E08EE993E00E94EE28809165018111FA
:102AE00008C040E150E0609192018EE993E00E94BD
:102AF0001A2A80916501811106C067EE71E08EE9A6
:102B000093E00E9425291092490260E090E080E065
:102B10001ECD80916501811106C064E372E08EE9EB
:102B200093E00E942529809150028F3F09F496CFAF
:102B30008F5F8093500292CF712C90CF10924802F9
:102B400095CFF5E0CF16D1040CF405CD712C8ECFC6
:102B5000811101CD80919201982F9E7F903F09F0C5
:102B6000FACC90919301292F2073203309F0F3CCF4
:102B70007110F1CC903309F041C081708B8F1C8EA5
:102B8000EB8DFC8DEB5FFE4F8081823014F48F5F04
:102B90008083EB8DFC8DE95FFE4F8081853074F57D
:102BA0008F5F8083853051F580916501811106C06A
:102BB00065EB71E08EE993E00E94EE28809165015B
:102BC000811108C040E150E0609192018EE993E0EC
:102BD0000E941A2A809165012091920190914902E8
:102BE000291388C0811106C067E871E08EE993E07F
:102BF0000E94252910924D0210924F0280914902A5
:102C0000882379F0382F317039A31AA2E9A1FAA1EB
:102C1000E95FFE4F9081953021F4909192018917E0
:102C200091F090914D0280919101911105C0909188
:102C30004F02992309F495CC81118DCC809192019A
:102C4000803F09F088CC80E48093B20180919201AA
:102C50008093B301809193018093B401809102012C
:102C6000882309F450C0C60101974A97ACF08091BF
:102C70006501811106C062E171E08EE993E00E9476
:102C8000EE2880916501811107C04AE050E0B6014D
:102C90008EE993E00E94E92980919301873309F43A
:102CA00059C098F594E6692E712C13E0803309F031
:102CB00052CC0E94FF1E882309F4B7C0E0906B013C
:102CC000009102019301412F62EB71E08BE492E0ED
:102CD0000E94C7258091440220912E0230912F023C
:102CE000820F932F911D90932F0280932E021092AA
:102CF000440231CC811182CF6EE371E08EE993E022
:102D00000E9425297BCFC601B0CF8B3389F18C334C
:102D100009F021CC81E090911101911101C080E076
:102D20001092B5011092B60190914502992381F05D
:102D3000209143022C3361F4E0914102F091420270
:102D4000EE54FE4F20913D02238391509093450213
:102D500015E007C081E090911101911101C080E060
:102D600013E02EE1622E712C882309F4F4CBA1CF5D
:102D700081E090911101911101C080E01092BF019A
:102D80001092C0011092C1011092C2011092C301B1
:102D90001092C4019091940191709093B50190911B
:102DA0009601977090669093B601909198019093D8
:102DB000B7011092B80190919A0190769161909329
:102DC000B9011092BA0190919C019093BB011092AD
:102DD000BC0190919E01907691619093BD0190917C
:102DE0009F019F779093BE019091A5019093C5019B
:102DF0009091A60193709093C6011092C701909193
:102E00004502992381F0209143022B3361F4E09134
:102E10004102F0914202EE54FE4F20913D02238385
:102E200091509093450216E19CCF809165018111EC
:102E300006C06AEB70E08EE993E00E94252980913C
:102E400050028F3F09F453CF8F5F809350024FCFD2
:102E5000803409F035C180919201811106C08091C2
:102E60009301803111F440926801552009F43AC170
:102E70008091650167EB70E0882309F43FC1809180
:102E8000120180FD03C0552009F463C080916501E3
:102E9000811106C061EB70E08EE993E00E94EE289C
:102EA00089819A818031974248F48091650181112E
:102EB00005C060E28EE993E00E941A2989819A8117
:102EC00020916501883EF3E09F0708F01CC12111A5
:102ED00005C060E38EE993E00E941A2980916501A4
:102EE000811106C06FEA70E08EE993E00E94EE283F
:102EF00089819A818436910548F480916501811118
:102F000005C060E38EE993E00E941A2989819A81C5
:102F10000A9748F480916501811105C060E38EE94C
:102F200093E00E941A2980916501811108C069818E
:102F30007A814AE050E08EE993E00E94332A809142
:102F40006501811106C06CEA70E08EE993E00E9491
:102F5000EE2880911201843018F0552009F45EC3E8
:102F600001E911E0760121E0E21AF10880916501A2
:102F70009801215931402C153D050CF0D9C0909194
:102F80001201992361F0F101908190FF08C0811135
:102F900006C067EA70E08EE993E00E94EE28809117
:102FA0001201882371F0F101808181FF0AC08091B4
:102FB0006501811106C062EA70E08EE993E00E942B
:102FC000EE2880911201882371F0F101808185FF44
:102FD0000AC080916501811106C06DE970E08EE93B
:102FE00093E00E94EE2880911201882371F0F10194
:102FF000808182FF0AC080916501811106C068E965
:1030000070E08EE993E00E94EE28F80171908F0144
:10301000809102018823A9F080911201813089F406
:103020008BA19CA18E0F9F1FE816F90651F4809189
:103030006501811123C262E970E08EE993E00E948C
:10304000EE28FFE0F71548F080916501811110C06E
:1030500060E38EE993E00E941A2980916501811155
:1030600007C040E150E0672D8EE993E00E941A2AE4
:1030700080911201882371F0F101808183FF0AC0E1
:1030800080916501811106C06DE870E08EE993E0E2
:103090000E94EE2880911201882371F0F101808155
:1030A00084FF0AC080916501811106C062E870E06A
:1030B0008EE993E00E94EE28FFEF2F1A3F0A56CFC9
:1030C000882309F45ECA803809F0CFCE809192013E
:1030D0008111CBCE80919301883109F0C6CE409208
:1030E0006601C3CE809112018150833008F0C7CEB3
:1030F000809165018111C3CE64EB70E08EE993E0AD
:103100000E94EE28BCCE21110AC068EE73E00E9436
:10311000DF2A4AE050E08EE993E00E94332A898159
:103120009A8168EE73E00E94DF2A9A838983D6CE63
:10313000552089F1811106C064E770E08EE993E0C3
:103140000E94EE282FE0251548F08091650181113D
:1031500005C060E38EE993E00E941A298091650121
:10316000811105C060E38EE993E00E941A298091E5
:103170006501811105C060E38EE993E00E941A2980
:103180008091650181114AC240E150E0652D8EE9D0
:1031900093E00E941A2A8091650181113FC28EE955
:1031A00093E00E9421293AC280916801853008F499
:1031B00070C0109268011092B2011092B3018DE0BC
:1031C0008093B40180916E01882309F44EC1CE0131
:1031D00001966C01FE0139967F018E01055F1F4F3C
:1031E0009E012B5F3F4FAE01435F5F4FBE01615FAA
:1031F0007F4F8BE492E00E94AA1C8F859889909360
:10320000B5018093B6018D859E859093B70180931B
:10321000B8018D819E812F8138853093B90120932B
:10322000BA019093BB018093BC018B859C859093E0
:10323000BD018093BE0189859A859093BF018093DB
:10324000C00189819A812B813C813093C1012093F7
:10325000C2019093C3018093C401809111018093B6
:10326000C50190914902911101C080E08093C6018F
:103270001092C7011092C80180916501811109C0A7
:1032800080911201843028F467E182EB91E00E9482
:10329000B60980916701853008F458C01092670123
:1032A0001092B2011092B3018EE08093B401B092FB
:1032B000B501A092B6019092B7018092B801109228
:1032C000B9018AE78093BA0182E18093BB01109231
:1032D000BC01809150028093BD0180914702809390
:1032E000BE01809148028093BF018091510280937A
:1032F000C001809145028093C10180914302809377
:10330000C20180914102909142029093C301809347
:10331000C40180913D0290913E0220913F02309184
:1033200040023093C5012093C6019093C70180935A
:10333000C80180916501811109C08091120184301A
:1033400028F467E182EB91E00E94B6098091660162
:10335000853010F40C94830A109266011092B20129
:103360001092B3018FE08093B4018DE58093B50195
:10337000E0901201E092B601809146028093B7017D
:1033800080910A018093B801809109018093B9016D
:1033900080912E0290912F029093BA018093BB01ED
:1033A00080910F01909110019093BC018093BD0119
:1033B00080910D0190910E019093BE018093BF0109
:1033C00080916E018093C00190E080E00E946207CE
:1033D0008093C10182E090E00E9462078093C20165
:1033E00081E090E00E9462078093C3018CE1C82EC7
:1033F00081E0D82E00E110E0FF24F394C8010E9480
:103400006207F60121916F01022E000C330B91E04F
:103410008217130609F090E0F9220F5F1F4F093160
:10342000110561F7F092C40180914A028093C501B1
:10343000809153028093C601809152028093C7010C
:10344000809149028093C8018091650181110C949B
:10345000830AF3E0FE1510F40C94830A67E182EB13
:1034600091E00E94B6090C94830AE5EBF1E085EC4B
:1034700091E011928E179F07E1F7EFCE2FE027150D
:1034800008F4FACDE1CD833611F00C94070BF290DD
:103490001082809164010A30110511F40C94D70A4E
:1034A000811132C080916501811106C065EF7BE01A
:1034B0008EE993E00E94EE2880916501811106C09B
:1034C0006BEC71E08EE993E00E9412298091650116
:1034D000811105C06F2D8EE993E00E941A29809119
:1034E0006501811107C04AE050E0B8018EE993E020
:1034F0000E94E22980916501811106C062EF7BE0A4
:103500008EE993E00E94252981E0809300018BECF5
:1035100091E0909304018093030110926F018BE47A
:1035200092E00E9406264B015C0180913802909146
:103530003902A0913A02B0913B0288159905AA057B
:10354000BB05BCF4809168018F5F80936801809116
:1035500067018F5F80936701809166018F5F809321
:1035600066018092380290923902A0923A02B0929B
:103570003B028091340290913502A0913602B091C5
:103580003702AC01BD01415F514F6F4F7F4F48156E
:1035900059056A057B059CF420910A01243618F42C
:1035A0002F5F20930A01805F914FAF4FBF4F8093F1
:1035B000340290933502A0933602B0933702809183
:1035C000300290913102A0913202B0913302AC01ED
:1035D000BD01415F514F6F4F7F4F481559056A0537
:1035E0007B059CF420910901243118F42F5F20936E
:1035F0000901805F914FAF4FBF4F8093300290938E
:103600003102A0933202B0933302F5E04F2E81E9EC
:1036100091E09C01209530953CA32BA38BE492E094
:103620000E941225782E882309F4BECDC0906B012C
:10363000E090020101E220E731E0AE014F5F5F4F11
:1036400061E971E08BE492E00E9444256C01512C09
:103650008297B4F080916501811106C063EF73E039
:103660008EE993E00E942529809151028F3F19F045
:103670008F5F80935102E1E2CE2ED12C55245A94D3
:1036800070E7272E71E0372EF101CF01805791406E
:103690008C159D0514F00C9428128191582AF5CFB1
:1036A000EF8DF8A1E35AFD4F208131813093630102
:1036B00020936201811105C060E28EE993E00E94CF
:1036C0001A29809165016EE773E0811151C954C9CF
:1036D000803409F0F8CCBFCB103A09F445C9103C4E
:1036E00009F046C9EECF1F920F920FB60F92112428
:1036F000CF92DF92EF92FF922F933F934F935F937E
:103700006F937F938F939F93AF93BF938091780034
:103710002091790030E0322F2227820F932F911DC4
:10372000B0E0A0E020911701222309F493C0109289
:10373000170120919A0320937C0020918C033091F3
:103740008D032F5F3F4F30938D0320938C03409167
:103750008603509187036091880370918903840FD9
:10376000951FA61FB71F8093860390938703A0938E
:103770008803B0938903A901542F44275295507FA1
:10378000452B09F051C04091820350918303609111
:10379000840370918503480F591F6A1F7B1F409354
:1037A0008203509383036093840370938503C090D6
:1037B0001A01D0901B01F12CE12C8C159D05AE0552
:1037C000BF0520F490931B0180931A01C0909803C9
:1037D000D0909903F12CE12CC816D906EA06FB0615
:1037E00020F490939903809398031092860310928B
:1037F00087031092880310928903A4E0220F331FDD
:10380000AA95E1F7232B81F44093940350939503F9
:103810006093960370939703109282031092830330
:1038200010928403109285038EED80937A00BF91ED
:10383000AF919F918F917F916F915F914F913F9148
:103840002F91FF90EF90DF90CF900F900FBE0F90D1
:103850001F90189521E02093170120919B0320933E
:103860007C0020918A0330918B032F5F3F4F309370
:103870008B0320938A0340917E0350917F036091D4
:10388000800370918103840F951FA61FB71F80933B
:103890007E0390937F03A0938003B0938103A901DB
:1038A000542F44275295507F452B09F0BDCF4091AE
:1038B0007A0350917B0360917C0370917D03480FE4
:1038C000591F6A1F7B1F40937A0350937B036093B9
:1038D0007C0370937D03C0901801D0901901F12CE6
:1038E000E12C8C159D05AE05BF0520F490931901C0
:1038F00080931801C0909203D0909303F12CE12C97
:10390000C816D906EA06FB0620F490939303809329
:10391000920310927E0310927F0310928003109204
:10392000810384E0220F331F8A95E1F7232B09F0EE
:103930007BCF40938E0350938F03609390037093DB
:10394000910310927A0310927B0310927C031092E1
:103950007D036ACFCF92DF92EF92FF920F931F9376
:1039600080919D03882309F44EC086E880937A00F5
:1039700080911A0190911B01FB01918380838091BA
:10398000980390919903FA01918380838091940325
:1039900090919503A0919603B0919703F9018083CC
:1039A0009183A283B3838091180190911901F8014A
:1039B000918380838091920390919303F701918387
:1039C000808380918E0390918F03A0919003B0919A
:1039D0009103F60180839183A283B38380EF9FE3F9
:1039E00090931B0180931A011092990310929803EF
:1039F00090931901809318011092930310929203EF
:103A00008EE880937A001F910F91FF90EF90DF90E6
:103A1000CF900895662311F0429A08954298089530
:103A2000662311F05B9A08955B9808958F929F9298
:103A3000AF92BF92EF920F93CF93DF934B015C0154
:103A4000D42FC22F96958795779567957E5E85488A
:103A50009F4FA50194010E94F32A3093790320938C
:103A60007803B90176956795CB01820F931F9093E8
:103A7000770380937603C901F3E096958795FA95CD
:103A8000E1F7860F971F9093750380937403569503
:103A90004795379527953093730320937203C90197
:103AA000880F991F280F391F3093710320937003DB
:103AB00061E082E00E94382661E086E00E943826BC
:103AC00061E085E00E94382661E083E00E943826AC
:103AD000E0929C03429A80919C03882309F4A4C03D
:103AE0005E9880919C03882309F4A0C05D985B9A3E
:103AF00062E088E00E94382661E089E00E94742636
:103B000061E089E00E9438261092B0021092AF0264
:103B100010926F0310926A038FEF809369031092E3
:103B2000680310920303109202031092FD02109298
:103B3000FC021092AE021092AD0282E084BD94E0CD
:103B400095BD99EF97BD1092A8021092A90210920C
:103B5000AA021092AB021092A4021092A502109237
:103B6000A6021092A70216BC21E023BD85BB80935C
:103B70006E008093B00023E02093B1009093B300D7
:103B800083BD1092B2001092B0021092AF0287BBB8
:103B90008093700010926F001092800081E88093F3
:103BA0008100809181008F7B8093810080918000D3
:103BB000806C809380008091820080688093820076
:103BC00080E286BB80916F00806280936F00D0930B
:103BD0009D03DD2301F18C2F806C80939B03802F4C
:103BE000806C80939A0321E030E0C90101C0880F06
:103BF000CA95EAF701C0220F0A95EAF7822B8F7364
:103C000080937E0080919B0380937C0010927B00C8
:103C10008EED80937A00DF91CF910F91EF90BF905E
:103C2000AF909F908F9008955E9A5BCF5D9A5FCF23
:103C30001F920F920FB60F9211248F939F93AF9301
:103C4000BF938091A4029091A502A091A602B09189
:103C5000A7020896A11DB11D8093A4029093A5020E
:103C6000A093A602B093A7028091AC028F5F8093CD
:103C7000AC028D37A8F01092AC028091A80290910E
:103C8000A902A091AA02B091AB020196A11DB11D9B
:103C90008093A8029093A902A093AA02B093AB02CA
:103CA000BF91AF919F918F910F900FBE0F901F907A
:103CB00018951F920F920FB60F9211242F933F93D6
:103CC0008F939F938091AF029091B002019649F03B
:103CD0008091AF029091B00201969093B0028093D0
:103CE000AF0280910303833609F06FC02091AF02C9
:103CF0003091B0028091AD029091AE022817390741
:103D0000C1F02091AF023091B0028091AD0290914C
:103D1000AE022817390708F458C02091AF0230913D
:103D2000B00280911501909116012817390708F407
:103D30004CC081E0809303032091700330917103A4
:103D40008091A202882321F08091A10291E081114B
:103D500090E09093A3028091A302882351F081E028
:103D60008093A10210925C0280EF80939E021092D9
:103D7000A00290916F009F7D90936F0090916F00D3
:103D80009B7F90936F0010927000809184009091BF
:103D90008500820F931F9093890080938800809103
:103DA00080008F7B806880938000809181008F7B72
:103DB00080938100B19A80916F00826080936F0040
:103DC00080919C03882351F05D989F918F913F9142
:103DD0002F910F900FBE0F901F9018955D9AF5CF01
:103DE0008230910510F482E090E090935B02809322
:103DF0005A02089590931601809315010895209119
:103E0000FC029091FD0281E0291380E008959091D9
:103E1000FD029F5F993108F090E02091FC02291784
:103E2000E1F36FB7F8942091030340915A02509147
:103E30005B022223A9F0292F30E0F901ED51FD4F5B
:103E40008083220F331FF901EF54FD4F51834083CC
:103E500010925B0210925A029093FD026FBF089578
:103E6000809301038093FF021092FE021092590288
:103E70001092580283E6809303035093AE0240935E
:103E8000AD0210925B0210925A02E8CF1F920F927D
:103E90000FB60F9211242F933F934F935F936F931D
:103EA0007F938F939F93EF93FF93809103034091B0
:103EB00084005091850060918800709189005B9822
:103EC000843108F0AFC12091720330917303260F43
:103ED000371F309389002093880093B1917080FF41
:103EE000E8C020918000206C209380002091810008
:103EF000206420938100813009F05EC02091AF02E0
:103F00003091B00230935702209356021092700005
:103F1000911192C01092580293B19170B59B59C102
:103F2000209186003091870040E246BB992309F436
:103F300032C19091A302992359F190919F0291115E
:103F400004C09091A002911123C0E0915C02F0E0C6
:103F5000EE0FFF1FE35AFD4F31832083E0915C0297
:103F6000F0E0E757FD4F982F9066908390915C02A8
:103F70009F5F90935C02963111F410925C029091D5
:103F8000A002992329F090919F02915090939F0253
:103F9000809302038F5F80930303FF91EF919F91C2
:103FA0008F917F916F915F914F913F912F910F90E2
:103FB0000FBE0F901F901895833169F422E023BD46
:103FC0001092B20061E070E07093B0026093AF02B3
:103FD00027BB2093700020910003291709F49CCF80
:103FE000909158029260909358029091A302992365
:103FF00009F492CF90919F02911104C09091A00278
:1040000091118ACF9091A002911106C091E09093F6
:10401000A0029BE090939F02E0915C02F0E0EE0F23
:10402000FF1FE35AFD4F51834083E0915C02F0E0B3
:10403000E757FD4F9CEF28C0809358029091A30250
:10404000992309F469CF90919F02911104C0909136
:10405000A002911161CF9091A002911106C091E050
:104060009093A0029BE090939F02E0915C02F0E0AD
:10407000EE0FFF1FE35AFD4F51834083E0915C0236
:10408000F0E0E757FD4F9FEF908390915C029F5FB8
:1040900090935C02963111F410925C029091A00210
:1040A000992309F439CF90919F02915090939F02E8
:1040B00033CF823108F05FC020910103622F61701D
:1040C00020FD0BC0209180002F7B20682093800072
:1040D000209181002F7B209381002091FE022627D2
:1040E0002093FE022091010330E03595279520931F
:1040F000010391113DC09091580290629093580233
:104100009091A3029923A1F190919F02911104C073
:104110009091A00291112CC09091A002911106C023
:1041200091E09093A0029BE090939F02E0915C024B
:10413000F0E0EE0FFF1FE35AFD4F51834083E09103
:104140005C02F0E0E757FD4F9EEF908390915C0298
:104150009F5F90935C02963111F410925C029091F3
:10416000A002992329F090919F02915090939F0271
:1041700060930003D1CE6091FE026111BACF20910D
:1041800080002F7B206820938000209181002F7B6E
:1041900020938100AECF9091A302992309F4F8CE29
:1041A00090919F02911104C09091A0029111F0CEC4
:1041B000E0915C02F0E0EE0FFF1FE35AFD4F318308
:1041C0002083E0915C02F0E0E757FD4F982F906468
:1041D000CCCE9111DDCE9091A302992309F4D8CED3
:1041E00090919F02911104C09091A0029111D0CEA4
:1041F0009091A002911106C091E09093A0029BE0E3
:1042000090939F02E0915C02F0E0EE0FFF1FE35AF3
:10421000FD4F51834083E0915C02F0E0E757FD4F92
:1042200097EFA3CE93B19170B59BC3C04091860028
:104230005091870030E236BB992309F4A2C09091D7
:10424000A302992351F190919F02911104C0909182
:10425000A002911122C0E0915C02F0E0EE0FFF1F7E
:10426000E35AFD4F518340838066E0915C02F0E0A9
:10427000E757FD4F808380915C028F5F80935C02E3
:10428000863111F410925C028091A002882329F0FB
:1042900080919F02815080939F02809158028823D1
:1042A00029F05B9A8091FD028093FC0280911401B9
:1042B000882339F1E0916A0321E02E0F293108F0BB
:1042C00020E080916803821709F49CC0822F90E05F
:1042D0003091FF02FC01E15BFC4F308340915602BC
:1042E00050915702FC01EE0FFF1FEC5FFC4F518312
:1042F0004083309158028A5C9C4FFC0130832093AC
:104300006A039091FD028091FC02981709F4AAC0FB
:104310008F5F893108F080E08093FC0290E0FC011F
:10432000ED51FD4F3081309301033093FF02880F30
:10433000991FFC01EF54FD4F808191811092590229
:104340001092FE028230910508F067C080918800CB
:10435000909189002091700330917103820F931F17
:104360009093890080938800809180008F7B806883
:1043700080938000809181008F7B8093810081E019
:104380000ACE9091A302992309F487CF90919F02BE
:10439000911104C09091A00291117FCFE0915C0235
:1043A000F0E0EE0FFF1FE35AFD4F5183408380641E
:1043B0005CCF911172CF8091A302882309F46DCF55
:1043C00080919F02811104C08091A002811165CF6C
:1043D0008091A002811106C081E08093A0028BE051
:1043E00080939F02E0915C02F0E0EE0FFF1FE35A22
:1043F000FD4F51834083E0915C02F0E0E757FD4FB1
:1044000087EF38CF20916A03E22FF0E0EA5CFC4F9F
:104410008081886080835B9A74CF33E63093030396
:104420009093AE028093AD0280916F008D7F809358
:104430006F00809181008F7B8093810080E286BB3A
:1044400080916F00806280936F00E22FF0E0EA5C61
:10445000FC4F80818068808380919C03882329F0B1
:104460005D9A9BCD10920303DFCF5D9896CD80912E
:1044700003038111FCCF08958093A20208958093D5
:10448000140108951F920F920FB60F9211242F93CB
:104490003F934F935F936F937F938F939F93EF938C
:1044A000FF93209186003091870080918400909145
:1044B000850080916F038111D0C090919C03992356
:1044C00009F451C05E9890919C03992309F44DC062
:1044D0005D9A5B98909169039F3F39F090916903D1
:1044E00090936A039FEF909369034091AF025091BC
:1044F000B0025093570240935602109270004091C0
:10450000760350917703420F531F50936C034093EF
:104510006B0392E090936F0310926D0350938B00A6
:1045200040938A0094E096BB90916F0094609093C2
:104530006F008111A9C09091A1029111A5C0909125
:10454000A2029093A3029091A302992309F49CC024
:1045500091E09093A10210925C0290EF90939E02E2
:104560001092A00291C05E9AAECF5D98B2CF9091AA
:10457000A302992351F190919F02911104C090914F
:10458000A002911122C0E0915C02F0E0EE0FFF1F4B
:10459000E35AFD4F31832083806AE0915C02F0E0B2
:1045A000E757FD4F808380915C028F5F80935C02B0
:1045B000863111F410925C028091A002882329F0C8
:1045C00080919F02815080939F02FF91EF919F9174
:1045D0008F917F916F915F914F913F912F910F90AC
:1045E0000FBE0F901F9018958A3009F04DC0409172
:1045F0006B0350916C036091780370917903460FBF
:10460000571F50936C0340936B0350938B00409360
:104610008A0094E096BB9BE01DC040916E0350E081
:104620005595479540936E0340916B0350916C03F1
:104630006091780370917903460F571F50936C0374
:1046400040936B0350938B0040938A0094E096BB99
:1046500091E0980F90936F0317C0409154025091CE
:104660005502B901641B750B409174035091750399
:104670006417750708F47BCF8A3008F0B5CF823015
:1046800060F6813009F426CF9091A302992351F16D
:1046900090919F02911104C09091A002911122C0AB
:1046A000E0915C02F0E0EE0FFF1FE35AFD4F318313
:1046B0002083806CE0915C02F0E0E757FD4F80833F
:1046C00080915C028F5F80935C02863111F41092BE
:1046D0005C028091A002882329F080919F02815082
:1046E00080939F0230935502209354026ECF1F9205
:1046F0000F920FB60F9211242F933F934F935F9316
:104700006F937F938F939F93AF93BF93EF93FF9399
:1047100040918A0050918B00209184003091850057
:1047200080916F038A30B8F5823008F0F9C081308B
:1047300009F4C4C09091A302992309F4DEC09091BA
:104740009F02911104C09091A0029111D6C0E091F6
:104750005C02F0E0EE0FFF1FE35AFD4F3183208330
:104760008068E0915C02F0E0E757FD4F8083809124
:104770005C028F5F80935C02863111F410925C02C0
:104780008091A002882309F4B8C080919F028150D3
:1047900080939F02B2C08A3009F4E4C08B3051F696
:1047A0006091130170E06F5F7F4FA0917803B0912B
:1047B00079036A9FF0016B9FF00D7A9FF00D112431
:1047C00060916B0370916C036E0F7F1F70938B0071
:1047D00060938A0091E090936F0390916A039F5FCA
:1047E000993108F090E060916803691709F4C1C03D
:1047F000E92FF0E060916E03DF01A15BBC4F6C9389
:104800006091560270915702DF01AA0FBB1FAC5F87
:10481000BC4F11967C936E93EA5CFC4F10826091C2
:104820006D036623D9F16081646060836091A302A7
:104830006623A1F160919F02611104C06091A00202
:1048400061112CC06091A002611106C061E060930B
:10485000A0026BE060939F02E0915C02F0E0EE0F3B
:10486000FF1FE35AFD4F51834083E0915C02F0E06B
:10487000E757FD4F4DEF408340915C024F5F4093FF
:104880005C02463111F410925C024091A002442374
:1048900029F040919F02415040939F0290936903F9
:1048A00092E093BD1092B20041E050E05093B0020C
:1048B0004093AF0297BB909370003CCF80916F0004
:1048C0008B7F80936F0010926F03809169038F3FFD
:1048D00079F08091690380936A03E0916A03F0E0C4
:1048E000EA5CFC4F8081806880838FEF809369034E
:1048F00080919C03882391F05E9AFF91EF91BF9184
:10490000AF919F918F917F916F915F914F913F9167
:104910002F910F900FBE0F901F9018955E98EDCFBE
:1049200090916E039695906890936E0390916D03AD
:10493000905890936D0391E0980F90936F0340917E
:104940006B0350916C036091780370917903460F6B
:10495000571F50936C0340936B0350938B0040930D
:104960008A00E8CE90916D03905890936D039BE080
:10497000E4CFE0916A03F0E0EA5CFC4F908198603C
:1049800090835B9A90916A0389CF80916A03E0914A
:1049900068038E1761F0EF5FE93108F0E0E0F0E0C6
:1049A000EE0FFF1FEC5FFC4F80819181089590E036
:1049B00080E0089580916A03E09168038E1749F0C2
:1049C000EF5FE93108F0E0E0F0E0EA5CFC4F808165
:1049D000089580E0089580916A0390916803891793
:1049E00061F09F5F993108F090E0E92FF0E0E15B22
:1049F000FC4F808190936803089580E00895209192
:104A00006A0390916803291728F081E0291309C0EF
:104A100080E007C030E0275E3F4F81E09217130629
:104A2000B9F3089520916A0380916803821769F0B1
:104A30008F5F893108F080E0E82FF0E0EA5CFC4FFE
:104A4000908197FFF3CF81E0089580E008958091F1
:104A5000680380936A030895CF93DF93CFE6D0E095
:104A600088818B7F888388818F7D88830E9427251A
:104A70000E94372288818D7F888310927000109267
:104A80006E00DF91CF9108952F923F924F925F92E7
:104A90006F927F928F929F92AF92BF92CF92EF923E
:104AA0000F93CF93DF935C013B012A014901C0E0E2
:104AB000202F2150330B1401220E331EC5010E94FA
:104AC000FF248823D9F3C5010E94DA24D82F81144A
:104AD000910441F0982F9F77C01728F5F401EC0F4F
:104AE000F11D9083C11106C0C5010E94C524F201C9
:104AF00091838083C5010E94EB24D7FF19C0EE206B
:104B000009F442C0C01748F5EC2FF0E0D301AE0F16
:104B1000BF1F8C938C1509F1E80DF91D8081806110
:104B200080835B9A1AC0F1018081892B8083DACF60
:104B3000C01720F4F301EC0FF11D8083EE2069F023
:104B400098E02C2D30E035952795C826C0FE1AC078
:104B5000CE2CC22686959150A1F7CF5FD7FFAECF5E
:104B60008C2F90E0DF91CF910F91EF90CF90BF907D
:104B7000AF909F908F907F906F905F904F903F90FD
:104B80002F900895C22EE6CFC017A0F2E6CFCF92A5
:104B9000DF92EF920F931F93CF93DF93D62E172FB1
:104BA000C42EC9010E94F01ECD2DD12FCC0EDD2EBA
:104BB000D11CCC16DD06B1F01991812F0E94071F80
:104BC0000023B9F328E08E2D90E095958795E12696
:104BD000E0FE06C0E02EE82616952150A1F7E9CFA9
:104BE000E82EFACF002351F08E2DDF91CF911F9147
:104BF0000F91EF90DF90CF900C94071FDF91CF9132
:104C00001F910F91EF90DF90CF9008956091A802CF
:104C10007091A9028091AA029091AB02089584300C
:104C200081F028F48230E9F08330F9F0089588307B
:104C300071F0893091F08530B9F4809180008F7DDA
:104C400003C0809180008F778093800008958091C9
:104C5000B0008F778093B00008958091B0008F7D71
:104C6000F9CF84B58F7784BD089584B58F7DFBCF50
:104C7000CF93DF9390E0FC01E950F24F2491825FE3
:104C8000914FFC0184918823C9F090E0880F991F0F
:104C9000FC01E75CF14FA591B491FC01E15DF14F9E
:104CA000C591D49161110DC09FB7F8948C91209556
:104CB00082238C938881282328839FBFDF91CF9103
:104CC0000895623051F49FB7F8943C91822F8095FB
:104CD00083238C93E8812E2BEFCF8FB7F894EC9140
:104CE0002E2B2C938FBFEACF1F93CF93DF93282FC8
:104CF00030E0F901E052F24F8491F901E950F24FAE
:104D0000D491F901E25FF14FC491CC23A9F0162FA1
:104D100081110E940F26EC2FF0E0EE0FFF1FE15DE6
:104D2000F14FA591B4918FB7F894EC91111108C08F
:104D3000D095DE23DC938FBFDF91CF911F91089533
:104D4000DE2BF8CFCF93DF93282F30E0F901E0522C
:104D5000F24F8491F901E950F24FD491F901E25FE9
:104D6000F14FC491CC23A1F081110E940F26EC2FAA
:104D7000F0E0EE0FFF1FEB5DF14FA591B491EC91C8
:104D8000ED2381E090E009F480E0DF91CF91089578
:104D900080E090E0FACFFC01918D228D892F90E088
:104DA000805C9F4F821B91098F7399270895FC01A6
:104DB000918D828D981731F0828DE80FF11D858DD0
:104DC00090E008958FEF9FEF0895FC01918D828D03
:104DD000981761F0A28DAE0FBF2FB11D5D968C911B
:104DE000928D9F5F9F73928F90E008958FEF9FEF5A
:104DF0000895FC01538D448D252F30E0842F90E0E1
:104E0000821B930B541710F0CF96089501970895C5
:104E10008BE798E2892B49F080E090E0892B29F01C
:104E20000E947B2881110C9400000895FC01A48D40
:104E3000A80FB92FB11DA35ABF4F2C91848D90E0BC
:104E400001968F739927848FA689B7892C93A0899F
:104E5000B1898C91837080648C93938D848D981329
:104E600006C00288F389E02D80818F7D80830895BC
:104E7000CF93DF93EC01888D8823B9F0AA89BB8991
:104E8000E889F9898C9185FD03C0808186FD0DC07C
:104E90000FB607FCF7CF8C9185FFF2CF808185FF9D
:104EA000EDCFCE010E941627E9CFDF91CF91089573
:104EB000EF92FF920F931F93CF93DF93EC0181E06A
:104EC000888F9B8D8C8D98131AC0E889F989808111
:104ED00085FF15C09FB7F894EE89FF896083E88944
:104EE000F98980818370806480839FBF81E090E036
:104EF000DF91CF911F910F91FF90EF900895F62EC3
:104F00000B8D10E00F5F1F4F0F731127E02E8C8D5C
:104F10008E110CC00FB607FCFACFE889F9898081A1
:104F200085FFF5CFCE010E941627F1CFEB8DEC0F58
:104F3000FD2FF11DE35AFF4FF0829FB7F8940B8FBE
:104F4000EA89FB8980818062CFCFCF92DF92EF9296
:104F5000FF921F93CF93DF93EC016A017B01122F25
:104F600060E874E88EE190E0A70196010E94F32AC0
:104F70002150310941095109569547953795279593
:104F8000E889F98982E08083211580E1380798F06B
:104F9000E889F989108260E472E48FE090E0A7016B
:104FA00096010E94F32A2150310941095109569571
:104FB000479537952795EC85FD853083EE85FF85F0
:104FC0002083188EEC89FD891083EA89FB89808112
:104FD00080618083EA89FB89808188608083EA8997
:104FE000FB89808180688083EA89FB8980818F7D4D
:104FF0008083DF91CF911F91FF90EF90DF90CF9052
:105000000895CF93DF93EC01E881F9810680F78161
:10501000E02D0995EA89FB8980818F7E8083EA896A
:10502000FB898081877F8083EA89FB8980818F77F4
:105030008083EA89FB8980818F7D80838A8D898F37
:10504000DF91CF9108951F920F920FB60F92112406
:105050002F938F939F93EF93FF93E091AE03F09183
:10506000AF038081E091B403F091B50382FD1BC0D2
:1050700090818091B7038F5F8F732091B80382175F
:1050800041F0E091B703F0E0E256FC4F958F80933A
:10509000B703FF91EF919F918F912F910F900FBECA
:1050A0000F901F9018958081F4CF1F920F920FB62A
:1050B0000F9211242F933F934F935F936F937F939E
:1050C0008F939F93AF93BF93EF93FF938EE993E0FA
:1050D0000E941627FF91EF91BF91AF919F918F9101
:1050E0007F916F915F914F913F912F910F900FBEE4
:1050F0000F901F9018958EE993E00E94CB2621E037
:10510000892B09F420E0822F0895EEE9F3E0138261
:10511000128288EE93E0A0E0B0E084839583A683BA
:10512000B78381E591E09183808385EC90E095875A
:10513000848784EC90E09787868780EC90E0918B61
:10514000808B81EC90E0938B828B82EC90E0958B4E
:10515000848B86EC90E0978B868B118E128E138E4B
:10516000148E0895AF92BF92CF92DF92EF92FF928A
:105170000F931F93CF93DF936C017B018B01040F7F
:10518000151FEB015E01AE18BF08C017D10759F01B
:105190006991D601ED91FC910190F081E02DC6015D
:1051A0000995892B79F7C501DF91CF911F910F9157
:1051B000FF90EF90DF90CF90BF90AF900895FB01EC
:1051C00001900020E9F73197AF01461B570BDC0136
:1051D000ED91FC910280F381E02D0994EF92FF9212
:1051E0000F931F93CF93DF938C017B01D0E0C0E03E
:1051F000F701EC0FFD1F6491662361F0D801ED917A
:10520000FC910190F081E02DC8010995892B11F0E6
:105210002196EECFCE01DF91CF911F910F91FF909C
:10522000EF9008956115710511F00C94DF2890E05E
:1052300080E00895DC01ED91FC910190F081E02D7A
:1052400009946FE571E00C94DF280F931F93CF93BF
:10525000DF93EC010E94EE288C01CE010E942129EF
:10526000800F911FDF91CF911F910F9108950F93A0
:105270001F93CF93DF938C01D0E0C0E061157105DF
:1052800019F00E94DF28EC01C8010E9421298C0F2F
:105290009D1FDF91CF911F910F9108958F929F9243
:1052A000AF92BF92EF92FF920F931F93CF93DF9332
:1052B000CDB7DEB7A1970FB6F894DEBF0FBECDBF56
:1052C0007C01FA01CB0119A2223008F42AE08E01F8
:1052D0000F5D1F4F822E912CB12CA12CBF01A50177
:1052E00094010E94F32AF901CA016A300CF5605D4D
:1052F000D8016E938D01232B242B252B79F790E079
:1053000080E0109721F0BD01C7010E94DF28A1961F
:105310000FB6F894DEBF0FBECDBFDF91CF911F91C6
:105320000F91FF90EF90BF90AF909F908F90089556
:10533000695CDECFCF92DF92EF92FF920F931F93C3
:10534000CF93DF932115310581F4DC01ED91FC91C0
:105350000190F081E02D642FDF91CF911F910F918B
:10536000FF90EF90DF90CF9009942A30310501F53E
:105370002AE077FF1DC06A017B01EC016DE20E940B
:105380001A298C0144275527BA014C195D096E0969
:105390007F092AE0CE010E944E29800F911FDF91E4
:1053A000CF911F910F91FF90EF90DF90CF900895D4
:1053B000DF91CF911F910F91FF90EF90DF90CF90F1
:1053C0000C944E299A01AB01770F660B770B0C9466
:1053D0009A290F931F93CF93DF93EC010E94E22948
:1053E0008C01CE010E942129800F911FDF91CF9166
:1053F0001F910F9108950F931F93CF93DF93EC01AB
:105400000E949A298C01CE010E942129800F911FB0
:10541000DF91CF911F910F9108952115310541F42E
:10542000DC01ED91FC910190F081E02D642F099455
:105430000C944E299A01462F50E070E060E00C94E5
:105440000D2A0F931F93CF93DF93EC010E941A2A2A
:105450008C01CE010E942129800F911FDF91CF91F5
:105460001F910F9108959A01AB0170E060E00C94D8
:105470000D2A0F931F93CF93DF93EC010E94332AE1
:105480008C01CE010E942129800F911FDF91CF91C5
:105490001F910F9108950F931F93CF93DF93EC010A
:1054A0000E940D2A8C01CE010E942129800F911F9C
:1054B000DF91CF911F910F91089508950E94B72A0F
:1054C0000E945D2A0E94C408C8E0D7E20E94200A18
:1054D0002097E1F30E940827F9CF1F920F920FB691
:1054E0000F9211242F933F938F939F93AF93BF936A
:1054F0008091400490914104A0914204B0914304F2
:1055000030913F0426E0230F2D3768F129E8230F5F
:105510000396A11DB11D20933F04809340049093F6
:105520004104A0934204B093430480913B049091C2
:105530003C04A0913D04B0913E040196A11DB11D13
:1055400080933B0490933C04A0933D04B0933E04AD
:10555000BF91AF919F918F913F912F910F900FBE6F
:105560000F901F9018950296A11DB11DD4CF78946D
:1055700084B5836084BD85B5836085BDEEE6F0E0CB
:10558000808181608083E1E8F0E082E08083808137
:1055900081608083E0E8F0E0808181608083E1EBDE
:1055A000F0E0808184608083E0EBF0E080818160C6
:1055B000808386E880937A001092C1000895AA1B28
:1055C000BB1B51E107C0AA1FBB1FA617B70710F0EE
:1055D000A61BB70B881F991F5A95A9F78095909520
:1055E000BC01CD010895A1E21A2EAA1BBB1BFD012F
:1055F0000DC0AA1FBB1FEE1FFF1FA217B307E407B2
:10560000F50720F0A21BB30BE40BF50B661F771F09
:10561000881F991F1A9469F76095709580959095E9
:105620009B01AC01BD01CF010895EE0FFF1F059056
:10563000F491E02D0994FB01DC014150504030F021
:105640008D910190801919F40020B9F7881B990BEE
:105650000895AEE0B0E0EFE2FBE20C94632E85E04B
:105660008C838B899C899A838983AE01495E5F4FC5
:105670006D897E89CE0101960E94CD2C2E96E2E0A6
:105680000C947F2E20FD09C0FC0123FD05C022FFE4
:1056900002C07383628351834083089544FD17C021
:1056A00046FD1DC0DB01FC01AA0FBB1FEE1FFF1F43
:1056B0001094D1F76A0F7B1F8E1F9F1F660F771FF5
:1056C000881F991F620F711D811D911D089533E080
:1056D000660F771F881F991F3150D1F7F3CF34E041
:1056E000F7CF0F931F93CF93DF938C01C8010E94D4
:1056F000E62DEC0197FD08C00E94D22D892BB1F751
:10570000B801CE010E94222ECE01DF91CF911F91D0
:105710000F9108958F929F92AF92BF92EF92FF9256
:105720000F931F93CF93DF938C01D62F7A01B22E64
:105730000E94E62D9C0133272B32310529F02D32B2
:105740003105A9F46894B7F8D15061F480E0DF9195
:10575000CF911F910F91FF90EF90BF90AF909F90CE
:105760008F900895C8010E94E62D97FDEFCFCB2DB5
:10577000CD7F2B2D2073F9F48033E9F4AA24AA9469
:10578000AD0E89F0C8010E94E62D97FD0CC0282FB0
:105790002F7D283561F4C264D25029F0C8010E94DF
:1057A000E62D97FF08C0812C912C54011BC0B6FE3A
:1057B0002BC0C260DA2D812C912C540120ED280FD2
:1057C000283028F1C4FD09C02A3008F1C6FF05C001
:1057D0002F7D3FEE320F3630C8F0B8010E94222EE6
:1057E000C1FFB4CFC7FF08C0B094A0949094809438
:1057F000811C911CA11CB11C2C2FB501A401C70157
:105800000E94422B81E0A3CFC261D4CF27504C2FFE
:10581000C501B4010E944E2B4B015C01C260D15006
:1058200009F3C8010E94E62D97FFC8CFD9CFA0E2A7
:10583000B0E0EDE1FCE20C94582E5C01962E7A016A
:10584000CE0101966C0180E2F60111928A95E9F78A
:10585000F501B381890130E020E0712C812CA0E0BA
:1058600041E050E0F801B3FD8591B3FF8191982F9D
:105870008F01811107C010E000E0C801A096EDE0A3
:105880000C94742E8E3519F42115310541F1A217AF
:1058900013064CF48D3549F18D3229F4811006C080
:1058A000882483941DC0882009F464C0E92FE695FC
:1058B000E695E695EC0DFD2DF11D892F8770BA0157
:1058C00001C0660F8A95EAF78081682B608379169C
:1058D00051F0971510F49F5FE9CF9150E7CFA1E009
:1058E0002F5F3F4FBFCF812CFBCF882019F08E81D7
:1058F00080628E83AA2359F0F6019E012F5D3F4FEF
:105900008081809580833196E217F307C9F7882458
:105910008394C5010E94E62D97FD16C0E82FE695F9
:10592000E695E695EC0DFD2DF11D208130E0AC01F2
:105930004770552702C0359527954A95E2F720FD17
:1059400006C0B5010E94222E882069F094CFE11490
:10595000F10429F0F7018083C70101967C019A9434
:10596000812C9110D6CFE114F10409F486CFF70110
:10597000108283CFE82FE695E695E695EC0DFD2D98
:10598000F11D982F9770BA0101C0660F9A95EAF73A
:105990009081692B6083782EA3CFB0E0A0E0E3ED87
:1059A000FCE20C94562E6C01EB015A01FC011782AB
:1059B0001682512CF601E380FE01E3FC8591E3FEA3
:1059C0008191182FEF018823E9F090E00E94D22DF9
:1059D000892B21F0C6010E94712BECCF153241F4C6
:1059E000FE01E3FC1591E3FE1191EF01153269F41C
:1059F000C6010E94E62D97FD8EC01817D9F2B60198
:105A00000E94222E852D90E08AC000E01A3231F4E7
:105A1000E3FC1591E3FE1191EF0101E0F12C20ED83
:105A2000210F2A3048F101FF37C0FF2059F3183603
:105A3000B1F11C3609F43DC0112321F3612F70E050
:105A400088E690E00E94DB2D892BE1F2912C812CDD
:105A500000FD06C0F50180809180C50102965C01C1
:105A60001E3679F5F6014681578170E060E0202FFF
:105A7000C4010E94422B9ECF02606F2D70E090E027
:105A800080E040E20E944E2BF62EFE01E3FC1591D1
:105A9000E3FE1191EF01C3CFFF24FA94C8CFFE01BA
:105AA000E3FC1591E3FE1191EF01183609F0C4CF24
:105AB00008600460FE01E3FC1591E3FE1191EF0123
:105AC000BBCF1336C1F401FD02C0FF24F394C6011D
:105AD0000E94E62D97FD1FC08114910429F0F40166
