:100000000C9474070C949C070C949C070C949C070C
:100010000C949C070C949C070C949C070C945C1B00
:100020000C949C070C949C070C94381F0C94431C54
:100030000C945A200C949C070C941B1B0C949C074A
:100040000C94EA260C949C070C94A0240C94D224C3
:100050000C949C070C9494180C949C070C949C078B
:100060000C949C070C949C076364696E6F707375A5
:1000700078585B0020726561644572726F723D3022
:10008000780020435243206572726F72003A4F52DB
:100090002D00204352433D002D50453A002D424350
:1000A0003A002D58583A002D53423A003A20002E7B
:1000B0000020005420005220004520002A205265D4
:1000C000667573696E6720746F2077726974652036
:1000D0007061636B6574207768696C652070726508
:1000E00076696F7573207061636B657420776173D7
:1000F0006E27742066696E69736865642C20666C6F
:10010000757368696E6720777269746520616374BE
:10011000696F6E002A2053757270726973653A2098
:10012000726563656976656420303046783378207F
:100130007061636B6574206F662073697A65200057
:100140002064657465637465642C207377697463D7
:1001500068696E6720636F6E74726F6C2066756E6F
:100160006374696F6E616C6974792063616E20627B
:1001700065207377697463686564206F6E202875E5
:1001800073696E67204C312900206465746563745F
:1001900065642C20636F6E74726F6C2066756E637D
:1001A00074696F6E616C6974792077696C6C207208
:1001B000657374617274002A204E6F2061757869CE
:1001C0006C6961727920636F6E74726F6C6C6572AA
:1001D00020616E73776572696E6720746F20616449
:1001E000647265737320307800206465746563748D
:1001F0006564002A205761726E696E673A20616EED
:100200006F7468657220617578696C6961727920B4
:10021000636F6E74726F6C6C657220697320616EAF
:1002200073776572696E6720746F206164647265AC
:100230007373203078002A205265667573696E6783
:1002400020746F20777269746520636F756E7465B2
:10025000722D72657175657374207061636B65745E
:10026000207768696C652070726576696F75732098
:100270007061636B6574207761736E2774206669A3
:100280006E6973686564002A205761726E696E67D3
:100290003A2055706F6E2041546D6567612072651C
:1002A000737461727420617578696C696172792008
:1002B000636F6E74726F6C6C65722066756E6374BA
:1002C000696F6E616C69747920616E6420636F750B
:1002D0006E74657220726571756573742066756ED3
:1002E0006374696F6E616C6974792077696C6C20D6
:1002F00072656D61696E20737769746368656420E7
:100300006F6666002A20537769746368696E672098
:10031000636F6E74726F6C2066756E6374696F6E56
:10032000616C697479206F6666002A20537769745E
:100330006368696E6720636F756E7465722072659D
:1003400071756573742066756E6374696F6E206F66
:100350006666002A205741524E494E473A20746F34
:100360006F206D616E792072656164206572726FB5
:10037000727320646574656374656400203F2000B7
:10038000E280BE5C5F005F2FE280BE005F5F5F00C7
:10039000E280BEE280BEE280BE002D582D0020200B
:1003A000206C772020200020202070652020200055
:1003B0002020205045202020002020206263202083
:1003C0002000202020424320202000202020736293
:1003D0002020200020202053422020200020202008
:1003E000626520202000202020424520202000633C
:1003F00020004320002A20526563656976656420E9
:100400007061636B6574206C6F6E676572207468D1
:10041000616E2052425F53495A45002A20436F6D56
:100420006D616E64206E6F7420756E646572737496
:100430006F6F643A20002A20436F6E74726F6C5F96
:100440006964206973203078002A20436F6E7472CB
:100450006F6C5F69642073657420746F203078005E
:100460002A20434F4E54524F4C5F49442069732019
:10047000616C72656164792030783030002A2059CF
:100480006F75206D6179207769736820746F2072B1
:10049000652D74727920696E2061206665772073FE
:1004A00065636F6E64732028616E64207065726886
:1004B00061707320737769746368206F7468657204
:1004C00020617578696C6961727920636F6E7472EE
:1004D0006F6C6C657273206F666629002A204E6F00
:1004E0002066726565206164647265737320666F4F
:1004F0007220636F6E74726F6C6C657220666F75BC
:100500006E642028796574292E20436F6E74726F93
:100510006C2066756E6374696F6E616C69747920A6
:100520006E6F7420656E61626C6564002A20436F93
:100530006E74726F6C5F494420307846302073755A
:1005400070706F727465642C206E6F2061757869AD
:100550006C6961727920636F6E74726F6C6C657216
:1005600020666F756E6420666F7220307846302C7E
:1005700020737769746368696E6720636F6E747245
:100580006F6C2066756E6374696F6E616C697479E7
:10059000206F6E2030784630206F6E002A20434F47
:1005A0004E54524F4C5F494420697320616C726510
:1005B000616479203078002A204572726F727370FE
:1005C00065726D697474656420286572726F72203B
:1005D0006275646765742920746F6F206C6F773B58
:1005E00020636F6E74726F6C2066756E6374696FD2
:1005F0006E616C6974792063616E6E6F7420656ED4
:1006000061626C6564002A205363686564756C6977
:100610006E6720617474656D707420746F207265EC
:100620007374617274204461696B696E002A207270
:100630006573746172744461696B696E2077616976
:1006400074696E6720746F207265636569766520D2
:1006500073616D706C65207061796C6F6164002AE4
:1006600020726573746172744461696B696E206194
:100670006C7265616479207363686564756C656428
:10068000002A20696E736572744D657373616765C6
:1006900020616C7265616479207363686564756C50
:1006A0006564002A20526573657474696E67202E34
:1006B0002E2E2E002A205265667573696E6720748F
:1006C0006F207772697465207061636B6574207741
:1006D00068696C652070726576696F7573207061EA
:1006E000636B6574207761736E27742066696E6929
:1006F00073686564002A205265667573696E6720A9
:10070000746F20777269746520656D7074792070DC
:1007100061636B6574002A2057726974696E673A69
:1007200020002D2076616C69642064617461206D05
:10073000697373696E672C20777269746520736BB7
:100740006970706564002A2057726974696E672049
:100750006E6578742034304630333020736C6F749B
:100760003A20002A20696E736572744D6573736157
:10077000676520286F7220726573746172744461BA
:10078000696B696E2920616C72656164792073639D
:10079000686564756C65640073657420746F20000F
:1007A0002A204563686F200073657420746F2000F1
:1007B0002A20536F6674776172652D73636F70655D
:1007C000200073657420746F20002A2044656C61DA
:1007D0007954696D656F7574200073657420746F4A
:1007E00020005B757365206F662064656C617920FD
:1007F00030206F722031206E6F74207265636F6DD0
:100800006D656E6465642C20696E637265617369E1
:100810006E6720746F20325D20002A2044656C6171
:100820007920002A20503150322D4553502D496EE9
:1008300074657266616365206877494420002028EA
:10084000706F7765722D6F6E2D72657365742900F8
:1008500020286578742D72657365742900202862DC
:10086000726F776E2D6F75742D6465746563746532
:100870006429002A2052657365742063617573656D
:100880003A204D435553523D0020462D7365726901
:100890006573002A204E4557503150324C49420072
:1008A00032333A30353A31300020004A616E20311F
:1008B000372032303233002A20436F6D70696C6507
:1008C0006420002A20503150324D6F6E69746F726F
:1008D0002D76302E392E33320073657420746F20DC
:1008E000002A20566572626F7365200030780073AD
:1008F000657420746F20002A204372635F6665650B
:1009000064200030780073657420746F20002A2002
:100910004372635F67656E2000206E723A2000208C
:1009200070743A203078002A2049676E6F72696EC1
:100930006720696E737472756374696F6E2C2065BD
:1009400078706563746564203320617267756D65C6
:100950006E74732C2072656365697665643A200055
:100960002A2043757272656E746C79206E6F2077E1
:100970007269746520627564676574206C6566745D
:100980000020746F2076616C7565203078002070CF
:1009900061796C6F6164206279746520002A204956
:1009A0006E6974696174696E672077726974652015
:1009B000666F72207061636B65742D747970652049
:1009C00030780077725F76616C20666F722070619C
:1009D000796C6F61642062797465203137202866F4
:1009E000616E2D6D6F646529206D7573742062656D
:1009F00020696E2072616E676520307830302D304E
:100A00007830330077725F76616C20666F72207089
:100A100061796C6F6164206279746520342F3820AD
:100A20002866616E2D737065656420636F6F6C69F5
:100A30006E672F68656174696E6729206D757374C0
:100A400020626520696E2072616E676520307831A2
:100A5000312D307835310077725F76616C20666FAA
:100A600072207061796C6F616420627974652032E4
:100A70002F3620287461726765742D74656D70203F
:100A8000636F6F6C696E672F68656174696E672943
:100A9000206D75737420626520696E2072616E67C7
:100AA0006520307831302D307832300077725F76C3
:100AB000616C20666F72207061796C6F6164206276
:100AC000797465203120286F7065726174696E6772
:100AD0002D6D6F646529206D7573742062652069C2
:100AE0006E2072616E676520307836302D30783632
:100AF000370077725F76616C20666F722070617963
:100B00006C6F616420627974652030202873746191
:100B100074757329206D7573742062652030206FA1
:100B2000722031002A2077725F76616C203E20307F
:100B30007846463A20002A2077725F6E7220696EEE
:100B400076616C69642C2073686F756C64206265D3
:100B500020302C20312C20322C20342C20362C20FC
:100B60003820286F7220666F72207061636B657425
:100B7000207479706520307833423A203136206F06
:100B800072203137293A2000206973206E6F74205B
:100B900030783338206F722030783342002A207743
:100BA000725F70743A203078002A2050726576693E
:100BB0006F757320706172616D65746572207772F4
:100BC00069746520616374696F6E207374696C6CFD
:100BD0002062757379002A20436F6D6D616E642009
:100BE0007265717569726573206F70657261746981
:100BF0006F6E20617320617578696C69617279200C
:100C0000636F6E74726F6C6C657220284C312900B2
:100C10002A2052656365697665643A20002A20457A
:100C20006D707479206C696E652072656365697694
:100C30006564002A2052656365697665643A2022FE
:100C4000002A204C696E6520746F6F206C6F6E6790
:100C50002C206C61737420706172743A20002A2019
:100C60004669727374206C696E652069676E6F7275
:100C700065643A202D3E003C2D002A204C696E65AB
:100C800020746F6F206C6F6E672C207465726D69B5
:100C90006E617465642C2069676E6F7265643A20BA
:100CA0002D3E003C2D002A204C696E6520746F6F2C
:100CB000206C6F6E672C2069676E6F7265642C20E4
:100CC00069676E6F72696E672072656D61696E64C7
:100CD00065723A202D3E0050202020202020202028
:100CE00020005220002A20526561647920736574C7
:100CF0007570002A204E4557503150324C49420001
:100D00002A204630335844454C41593D002A20465C
:100D100030333044454C41593D002A20434F4E5416
:100D2000524F4C5F49445F44454641554C543D3019
:100D300078002A2053455249414C53504545443D83
:100D4000002A204350555F53504545443D0020281C
:100D5000706F7765722D6F6E2D72657365742900E3
:100D600020286578742D72657365742900202862C7
:100D7000726F776E2D6F75742D646574656374651D
:100D80006429002A20526573657420636175736558
:100D90003A204D435553523D002A20436F756E74DF
:100DA0006572726570656174696E6772657175658B
:100DB00073743D002A20566572626F736974793DC1
:100DC000002A20436F6E74726F6C5F49443D307827
:100DD000002A20503150322D4553502D696E7465D4
:100DE00072666163652068774944200020462D7350
:100DF000657269657300202B636F6E74726F6C008F
:100E000032333A30353A31300020004A616E2031B9
:100E1000372032303233002A20436F6D70696C65A1
:100E20006420002A20503150324D6F6E69746F7209
:100E30002D76302E392E3332002A002A2045455097
:100E4000524F4D20736967206D69736D61746368DB
:100E50002C20696E697469616C697A696E672045D6
:100E60004550524F4D002A20454550524F4D20735A
:100E70006967206D61746368002A20636865636B2D
:100E8000696E6720454550524F4D00000000090033
:100E9000030200000405080000000000000000003C
:100EA0000000010204081020408001020408102004
:100EB00001020408102040804004040404040404D7
:100EC00004020202020202030303030303020203F9
:100ED00000000000250028002B0000000000240076
:100EE00027002A000225FB0911241FBECFEFD8E0FE
:100EF000DEBFCDBF11E0A0E0B1E0E8E2F6E502C060
:100F000005900D92A236B107D9F724E0A2E6B1E030
:100F100001C01D92AB34B207E1F717E0C3E7D7E099
:100F200004C02197FE010E949227C237D107C9F75A
:100F30000E94DB260C94072B0C9400001F93CF9388
:100F4000DF93EC01162F0E94BA2A181739F0612F8F
:100F5000CE01DF91CF911F910C94C22ADF91CF91E6
:100F60001F9108950C94BA2ACF92DF92EF92FF92CC
:100F70000F931F93CF93DF9380911201882331F059
:100F800069E77EE085EA93E00E94A2258BE1E82EE6
:100F900081E0F82E670100E110E0C1E0C8010E9485
:100FA000B207F60121916F01022E000C330B91E084
:100FB0008217130609F090E0C9230F5F1F4F093114
:100FC000110561F7809112018823E9F166E67EE060
:100FD00085EA93E00E946B256C2F70E04AE050E0B8
:100FE00085EA93E00E946626C1112FC0809112010C
:100FF000882331F06BE37EE085EA93E00E94A2252E
:10100000C0E1D0E0F70161917F01CE010E949E070F
:101010002196C931D105B1F760E090E080E00E94EF
:101020009E0760E081E090E00E949E0763E082E01E
:1010300090E0DF91CF911F910F91FF90EF90DF90A3
:10104000CF900C949E07CC23D9F2DF91CF911F91C2
:101050000F91FF90EF90DF90CF9008950F93CF9373
:1010600084B780934E0214BE83B185FB882780F934
:1010700091E0892780936B0126E040E950ED63E021
:1010800070E085EA93E00E944E2469E37EE085EA01
:1010900093E00E94A22563E27EE085EA93E00E944D
:1010A000A22567E17EE085EA93E00E946B256BE074
:1010B0007EE085EA93E00E946B2569E07EE085EAA8
:1010C00093E00E946B2560E07EE085EA93E00E9459
:1010D0006B2566EF7DE085EA93E00E946B256CEE60
:1010E0007DE085EA93E00E946B2585EA93E00E940B
:1010F0009E2561ED7DE085EA93E00E946B254AE044
:1011000050E060916B0185EA93E00E949E260E9468
:10111000B40790E080E00E94B2078093510282E021
:1011200090E00E94B207C82F8093120181E090E006
:101130000E94B20780934F02CC2309F4AEC061EC49
:101140007DE085EA93E00E946B2540E150E06091EC
:10115000510285EA93E00E949E2664EB7DE085EAD9
:1011600093E00E946B254AE050E06091120185EA0D
:1011700093E00E949E2669E97DE085EA93E00E9463
:101180006B254AE050E060914F0285EA93E00E94AF
:101190009E2663E87DE085EA93E00E946B254AE0A5
:1011A00050E060914E0285EA93E00E94972680917C
:1011B0004E0282FF06C06DE67DE085EA93E00E9464
:1011C0006B2580914E0281FF06C060E67DE085EAD6
:1011D00093E00E946B2580914E0280FF06C06EE472
:1011E0007DE085EA93E00E946B2585EA93E00E940A
:1011F0009E2561E47DE085EA93E00E946B252AE06C
:1012000030E040E052E16AE770E085EA93E00E9456
:10121000782662E37DE085EA93E00E946B252AE070
:1012200030E040E950ED63E070E085EA93E00E9431
:1012300078266AE17DE085EA93E00E946B2540E133
:1012400050E070E060E085EA93E00E9466266DE081
:101250007DE085EA93E00E946B254AE050E064E679
:1012600070E085EA93E00E94662660E07DE085EA12
:1012700093E00E946B254AE050E06EE170E085EA61
:1012800093E00E945F2685EA93E00E949E2563EF2B
:101290007CE085EA93E00E94A22541E080916B0109
:1012A000811101C040E007E026E060E875E280E0DF
:1012B00090E00E942B1A80910C010E94351F8091B2
:1012C00052020E94321F80910D0190910E010E94E6
:1012D000F71B65EE7CE085EA93E0CF910F910C94CB
:1012E000A2257F936F9325E231E03F932F939F9345
:1012F0008F930E94A6270F900F900F900F900F9042
:101300000F9008957F936F9328E231E03F932F93DE
:101310009F938F930E94A6270F900F900F900F908E
:101320000F900F900895EF92FF920F931F93CF931A
:10133000DF93F82ED92FE62E80911201882331F009
:1013400062EE7CE085EA93E00E946B2580911201B9
:1013500080FF06C067ED7CE085EA93E00E946B2584
:10136000C0916A010F2D1D2FE00EF12EF11CE01629
:10137000F10629F1F801D1918F01D03128F460E311
:1013800085EA93E00E94972540E150E06D2F85EAC1
:1013900093E00E94972630910201332341F328E025
:1013A0008C2F90E095958795CD27C0FF06C0C32F61
:1013B000C827D6952150A1F7DACFC82FFACF809150
:1013C0000201882371F0C03128F460E385EA93E0DC
:1013D0000E94972540E150E06C2F85EA93E00E943F
:1013E000972685EA93E0DF91CF911F910F91FF90AF
:1013F000EF900C949E250C9405222F923F924F92D1
:101400005F926F927F928F929F92AF92BF92CF9294
:10141000DF92EF92FF920F931F93CF93DF93CDB79D
:10142000DEB7A2970FB6F894DEBF0FBECDBF85EA38
:1014300093E00E9495238C0197FF02C00C94CB1778
:1014400080916C01E0910301F09104010A301105D3
:1014500011F40C949317833610F00C9497179F0196
:101460002F5F3F4F309304012093030100838F5F70
:1014700080936C01DCCF81111AC06AE77CE085EAB9
:1014800093E00E946B256FEC71E085EA93E00E9487
:101490008F256F2D85EA93E00E94972567E77CE012
:1014A00085EA93E00E94A22581E080936401109276
:1014B00000010C94C3171082882381F0A82FB0E09C
:1014C000A253BE4F9C919D3049F4815080936C0192
:1014D0003197F0930401E093030110821091000111
:1014E000123009F56EE57CE085EA93E00E946B25F9
:1014F00080916C016FEC71E08A3050F01092D8014D
:101500006FEC71E085EA93E00E948F256CE271E058
:1015100085EA93E00E948F2560E371E085EA93E01D
:101520000E94B425C4CF113099F4809164018111D7
:10153000BECF61E47CE085EA93E00E946B256FEC0E
:1015400071E085EA93E00E94B42510936401AFCF67
:1015500080911201813011F0843091F463E37CE0DA
:1015600085EA93E00E946B256FEC71E085EA93E0D9
:101570000E948F2563E371E085EA93E00E94B42521
:1015800084ED91E0909304018093030144E050E0E6
:1015900065E371E08FEC91E00E9498276C01892B44
:1015A00011F00C94C3178091D301873509F4F2C36D
:1015B0000CF027C18B3409F480C10CF054C0863480
:1015C00009F42FC19CF4882309F428C28A3209F453
:1015D00035C26BE174E085EA93E00E946B2560916F
:1015E000030170910401615071093AC2873409F412
:1015F0005AC3883471F780911201882331F067EF64
:1016000078E085EA93E00E946B25BE016B5E7F4F18
:1016100080910301909104010E948209019779F45D
:101620008D8980936A0180911201882311F40C94B2
:10163000C3176FEE78E085EA93E00E946B256CEEAD
:1016400078E085EA93E00E946B2580916A01803101
:1016500028F460E385EA93E00E94972540E150E09A
:1016600060916A0157C3843509F467C18CF58C34E5
:1016700009F42EC18F3409F0ACCF80911201882378
:1016800031F06AEC77E085EA93E00E946B256DE02B
:1016900071E080910301909104010E94710901970A
:1016A00091F480910D0190910E010E94F71B8091A1
:1016B0001201882311F40C94C31762EC77E085EAD9
:1016C00093E00E946B2560910D0170910E01F2C1B3
:1016D000853509F425C3863509F07BCF61EE78E0C6
:1016E00085EA93E00E946B25BE01695E7F4F809181
:1016F0000301909104010E9471090197A9F48F8957
:10170000988D059720F084E090E0988F8F8B69ED9D
:1017100078E085EA93E00E946B256F89609312015F
:1017200082E090E00E949E074AE050E06091120142
:1017300085EA93E00E949E2663EC78E085EA93E0D8
:101740000E94A22567EB78E085EA93E00E946B2572
:101750006BEA78E085EA93E00E946B2569EA78E01D
:1017600085EA93E00E946B2560EA78E085EA93E0E1
:101770000E94A22563E978E085EA93E00E946B2548
:1017800069E878E085EA93E00E94A22563E778E0C3
:1017900085EA93E00E946B254AE050E060914E029A
:1017A00085EA93E00E94972680914E0282FF06C050
:1017B0006DE578E085EA93E00E946B2580914E020A
:1017C00081FF06C060E578E085EA93E00E946B2522
:1017D00080914E0280FF06C06EE378E085EA93E0D8
:1017E0000E946B2585EA93E00E949E2563E278E0E3
:1017F00085EA93E00E946B254AE050E060916B011E
:1018000089C28C3609F464C00CF08DC0873609F4A7
:101810004AC20CF04CC0883509F4CEC0863609F0B7
:10182000D8CE8091510266ED7BE0882309F400C197
:101830008091490269EA7BE08111FAC081E492E07B
:101840009F938F9385E492E09F938F9387E492E038
:101850009F938F938AE391E09F938F9384ED91E020
:101860009F938F930E94A6279C8B8B8B0FB6F89427
:10187000DEBF0FBECDBF039709F0DEC180914702E6
:10188000883309F4F3C08B3309F4F0C06DE97BE0D1
:1018900085EA93E00E946B2540E150E060914702A9
:1018A00085EA93E00E94972668E87BE0C1C088360D
:1018B00009F4A1CE8B3609F08CCE63EA76E085EA96
:1018C00093E00E94A225E0916801F09169010995D9
:1018D000BE01695E7F4F80910301909104010E94D7
:1018E0007109019709F0E8C38F89988D83369105B6
:1018F00009F051C38091550261E876E0811198C0EA
:10190000809157026FE576E0811192C08091560276
:101910006DE276E0882309F48BC081E08093570262
:1019200066E076E085C0853709F4FAC1ECF58F36BC
:1019300009F4A3CE843709F04CCE8091120188239C
:1019400031F06AE178E085EA93E00E946B256FE070
:1019500071E080910301909104010E947109019747
:10196000F1F480910F0190911001029760F482E0F0
:1019700090E09093100180930F0162EE77E085EA8A
:1019800093E00E946B2580911201882311F40C943E
:10199000C3176AED77E085EA93E00E946B256091BA
:1019A0000F017091100186C0873709F4F3C10CF460
:1019B00095CE883709F00DCE80911201882331F041
:1019C00060EA77E085EA93E00E946B25BE01695EDC
:1019D0007F4F80910301909104010E947109813031
:1019E0009105B9F42F89388D232B11F0988F8F8BA7
:1019F0008F8980930C010E94351F809112018823EA
:101A000011F40C94C31768E977E085EA93E00E942B
:101A10006B254AE050E060910C017CC1809112017D
:101A2000813021F0843011F00C94C3176DE17CE01B
:101A300085EA93E00E94A2250C94C31780911201BD
:101A4000813021F0843011F00C94C31760E17CE008
:101A500085EA93E00E946B25609103017091040177
:101A600085EA93E00E94B4250C94C3174091450287
:101A7000509146024231510598F49A012B7F233050
:101A8000310571F04530510559F0BA0169507109BD
:101A90006730710528F040315105A1F48833A9F46D
:101AA00066E37BE085EA93E00E946B256091450246
:101AB000709146024AE050E085EA93E00E94B62623
:101AC0000C94C3174131510549F380914102909123
:101AD0004202A0914302B09144028F3F9105A105BB
:101AE000B105B9F0B0F064E27BE085EA93E00E94D2
:101AF0006B254091410250914202609143027091E6
:101B000044022AE030E085EA93E00E94C8260C9463
:101B1000C3174115510509F04CC062EF7AE00297F6
:101B2000A105B10508F084CF80910A01882309F44A
:101B300080C08F3F19F0815080930A0181E080932B
:101B400049026DE979E085EA93E00E946B2540E166
:101B500050E06091470285EA93E00E9497266EE884
:101B600079E085EA93E00E946B25609145027091CF
:101B700046024AE050E085EA93E00E94B02661E820
:101B800079E085EA93E00E946B25409141025091F3
:101B90004202609143027091440220E130E085EA04
:101BA00093E00E948A2685EA93E00E949E250C9489
:101BB000C3174130510561F480569109A109B1095B
:101BC0006CEA7AE00897A105B10508F4ADCF30CFF3
:101BD0002230310571F48C019D010A50110921094F
:101BE000310967E57AE0053111052105310508F075
:101BF0001FCF4430510519F04830510571F48C0164
:101C00009D01015111092109310964E07AE0013493
:101C100011052105310508F00BCF4131510509F0BF
:101C200083CF63EC79E00497A105B10508F47CCF7C
:101C3000FFCE60E679E0FCCE67E279E085EA93E0EA
:101C40000E946B256B897C894AE050E085EA93E02D
:101C50000E945F268B899C891816190674F46FE11F
:101C600079E085EA93E00E946B2540E150E06091C5
:101C7000470285EA93E00E9497268B899C89029708
:101C80000CF491CF69E179E085EA93E00E946B253D
:101C900060914502709146024AE050E085EA93E087
:101CA0000E94B02680CF80911201882331F06EE02F
:101CB00079E085EA93E00E946B25BE016B5E7F4F61
:101CC00080910301909104010E948209019779F4A7
:101CD0008D898093020180911201882311F40C9464
:101CE000C31766E079E085EA93E00E946B2563E024
:101CF00079E085EA93E00E946B25809102018031B2
:101D000028F460E385EA93E00E94972540E150E0E3
:101D10006091020185EA93E00E949E260C94C3170D
:101D200080911201882331F060EB77E085EA93E03F
:101D30000E946B25BE01695E7F4F809103019091E7
:101D400004010E9471090197C1F48F8980935202A6
:101D5000823018F081E080935202809152020E94FA
:101D6000321F80911201882311F40C94C31768EA82
:101D700077E085EA93E00E946B254AE050E06091AD
:101D8000520285EA93E00E949E2688EC809301012E
:101D90000C94C31780915102882309F46DC080917F
:101DA0005502811104C080915702882319F063E61F
:101DB00077E03ECE80911201882331F066E477E02F
:101DC00085EA93E00E946B2510925402109256020D
:101DD0008E010D5E1F4F7E0131E1E30EF11C94E494
:101DE000C92E91E0D92EBB24B3941F930F93FF9279
:101DF000EF92DF92CF92809104018F938091030143
:101E00008F930E94A6270FB6F894DEBF0FBECDBFFA
:101E1000019739F0809155028111C5CE62E277E0D9
:101E200007CE29893A89809154028F5F80935402AA
:101E3000B092550280910301909104014B895C8915
:101E4000840F951F909304018093030180911201E8
:101E5000882359F22031310534F46AE471E085EACF
:101E600093E00E948F2569897A8940E150E085EAF4
:101E700093E00E945F26B9CF80911201882331F050
:101E800066E177E085EA93E00E946B250FEA11E0B6
:101E90007E0123E1E20EF11C5E0131E1A30EB11CD3
:101EA00084E4882E81E0982EFF92EF92BF92AF9249
:101EB0009F928F92809104018F93809103018F9361
:101EC0000E94A6270FB6F894DEBF0FBECDBF0197C4
:101ED00071F529893A89FFEFCF1ADF0AF8012193BA
:101EE0008F0180910301909104014B895C89840FDB
:101EF000951F909304018093030180911201882320
:101F000089F02031310534F46AE471E085EA93E028
:101F10000E948F2569897A8940E150E085EA93E043
:101F20000E945F26F0E2CF16D10409F0BDCF809168
:101F30001201882321F085EA93E00E949E250E94E9
:101F4000FC1B8823B9F0C114D10489F020910F0142
:101F500030911001E0906A01009102014C2D6FEA6E
:101F600071E083E592E00E94A0220C94C31765EF14
:101F700076E05ECD64EB76E085EA93E00E94A225F0
:101F8000809159028F3F11F40C94C3178F5F809397
:101F900059020C94C3178630910510F4049711F47C
:101FA000188E1F8A8F89988D80FF66C080910901E5
:101FB00067EB75E0853008F43BCD809151028823B2
:101FC000D1F06CE975E085EA93E00E946B2540E171
:101FD00050E06091510285EA93E00E949E268F892D
:101FE000988D029708F0CFC76091510290E080E091
:101FF0000E949E07C8C780910701853081F56CE279
:1020000075E085EA93E00E94A22580EF809351025B
:102010008F89988D21E08530910509F420E0209387
:10202000110160EF029708F442C08091120169E447
:1020300074E0882309F4A7C785EA93E00E946B2522
:1020400080915102803130F46AE471E085EA93E0D6
:102050000E948F2540E150E0609151025BCE6CED13
:1020600074E085EA93E00E94A2256DE774E085EABA
:1020700093E00E94A225D9CF20915102211107C0DF
:1020800060E674E085EA93E00E946B257CC71092BD
:10209000510210924C0210924B0210924A0210927E
:1020A0004D0210924902029708F0BFCF60E090E025
:1020B00080E00E949E07B9CF80911201882309F425
:1020C000BFCF66E374E0B8CF809152028823A1F0BD
:1020D00080910101442019F0863008F095C090915C
:1020E0008E01903409F08DC090918F01903F09F0DE
:1020F00088C0833308F088C0809101018F5F893CDC
:1021000008F0EDC1809301011092A902842D8F7710
:1021100009F4E7C181149104A104B10409F44FC08A
:1021200080915B028F3F29F08F5F80935B0240922A
:102130005A0280910901882309F441C0815080939B
:10214000090181113CC063E573E085EA93E00E94D8
:10215000A22580914F02882331F06AE273E085EA7C
:1021600093E00E94A22580915102882331F064E01F
:1021700073E085EA93E00E94A2251092510210922A
:102180004F021092500267E872E085EA93E00E94E5
:10219000A2256091510290E080E00E949E0760912C
:1021A0004F0281E090E00E949E0710924C02109234
:1021B0004B0210924A0210924D02109249028091F5
:1021C0008E01909155029111F7C38111A9C7809199
:1021D0008F01811109C080919001823129F4C09250
:1021E000540281E08093560280918F018111F2C3E5
:1021F000809190018F3109F0EDC385E080936601F5
:10220000E9C3873908F478CF90916402911105C031
:102210009091A602903F09F46FCF85508093010101
:1022200062EF73E0411002C06FEE73E085EA93E065
:102230000E946B2580918E01803128F460E385EA4D
:1022400093E00E94972540E150E060918E0185EA7D
:1022500093E00E94972680918F01803128F460E3FB
:1022600085EA93E00E94972540E150E060918F015C
:1022700085EA93E00E94972680919001803128F4AE
:1022800060E385EA93E00E94972540E150E0609189
:10229000900185EA93E00E94972660E285EA93E048
:1022A0000E9497258091A60210E000E0803F19F07F
:1022B0000091640210E0F52CD801AF56BD4FEC91AF
:1022C000E75FE93008F03DC0F0E0E759FE4E0C94BE
:1022D00092279E1189119B1195118F1172119811DE
:1022E00092118C1166EE73E085EA93E00E946B25F3
:1022F0000F5F1F4F0631110511F410E000E08091CF
:10230000640280171106C1F685EA93E00E949E25BB
:10231000F3CE6DED73E0E8CF64ED73E0E5CF6BECE9
:1023200073E0E2CF62EC73E0DFCF69EB73E0DCCF08
:1023300060EB73E0D9CF67EA73E0D6CF6EE973E064
:10234000D3CF8C91807E898F6C916F716A8F3801A9
:10235000660C771CF1103AC0803429F460E285EAFB
:1023600093E00E949725F301EB59FD4FE080F18047
:102370008091620190916301E81AF90AF3E0F69402
:10238000E794FA95E1F78AE0E816F10458F460E280
:1023900085EA93E00E94972560E285EA93E00E9437
:1023A000972504C094E6E916F104B0F34AE050E042
:1023B000B70185EA93E00E94B026E98DE03409F484
:1023C000A5C66AE385EA93E00E949725F301EB59DD
:1023D000FD4F808191819093630180936201F98D1B
:1023E000F036D9F168F4FF2381F1F03409F05EC0D2
:1023F00060E285EA93E00E94972560E873E069C097
:10240000298D203A29F0203C19F0203809F04EC0DF
:10241000FA8DFA3008F043C063E5F23008F447C0A3
:102420008A8D8250990BBC014AE050E085EA93E026
:102430000E945F26998D903679F1F0F5992351F03D
:102440009034D9F26CE773E044C06FE385EA93E01F
:102450000E9497256CE873E03CC03A8D333138F424
:10246000333070F463E5313030F460E204C08A8DBB
:1024700060E58531D0F785EA93E00E9497250CC08E
:10248000EA8DE350FF0BBF01759567954AE050E078
:1024900085EA93E00E945F2666E873E01AC02A8D01
:1024A00060E52A3021F065E42B3009F060E285EA2E
:1024B00093E00E949725BECFE98D6AE973E0E03A88
:1024C00041F0E03C09F499CF60E973E0E03809F0AD
:1024D000B9CF85EA93E00E946B25F12C09CF88ECF7
:1024E00011CE90918E0141106ACEFAE0CF16D10440
:1024F000FCF091111DC080918F01811119C0809154
:1025000090018231A9F4809194018093400220913E
:102510000B01821769F020914F02222339F020919C
:102520005002211103C021E02093500280930B013F
:1025300080910701853009F0A0C080915002882366
:1025400009F49BC025E0C216D1040CF438CE9111D9
:1025500099C090918F01903F09F094C090919001A3
:10256000903309F08FC0982F9370913009F080C09C
:102570001092AF011092B00198EB9093B10190E0EE
:1025800095958795959587958093B2010E94FC1B40
:10259000182F882309F45DC0E0906A0100910201C0
:1025A0002EE130E044E06FEA71E083E592E00E94C2
:1025B000A022512E809150028F5F863109F45AC0BB
:1025C0008093500280918E01803409F05DC080912B
:1025D0008F01982F9E7F903F09F0F1CD909190014F
:1025E000292F2073203309F0EACDE82FE170ED8F19
:1025F0001E8E903329F4ED8DFE8DEB5FFE4F108221
:1026000029813A812C31310508F0D9CDED8DFE8D2F
:10261000E95FFE4F1082909151028913D0CD63EF94
:1026200071E085EA93E00E946B2540E150E0609103
:102630008F0185EA93E00E94972669EE71E085EAB2
:1026400093E00E94A2251092510260E090E080E0A9
:10265000AACD66E372E085EA93E00E94A22580910C
:1026600059028F3F09F4A6CF8F5F80935902A2CF02
:10267000512CA0CF10925002A5CF35E0C316D10443
:102680000CF49DCD512C9ECF811199CD80918F015D
:10269000982F9E7F903F09F092CD90919001292F25
:1026A0002073203309F08BCD511089CD9033A9F5DB
:1026B00081708B8F1C8EEB8DFC8DEB5FFE4F8081CC
:1026C000823014F48F5F8083EB8DFC8DE95FFE4FC9
:1026D0008081853014F58F5F80838530F1F467EB5E
:1026E00071E085EA93E00E946B2540E150E0609143
:1026F0008F0185EA93E00E94972690918F01809147
:10270000510298136BC069E871E085EA93E00E947A
:10271000A2251092550210925702809151028823EF
:1027200079F0F82FF170FF8F18A2EF8DF8A1E95F13
:10273000FE4F9081953021F490918F018917B9F067
:102740009091550280918E01911105C09091570290
:10275000992309F43ACD811132CD80918F01803FC8
:1027600009F02DCD80919001803309F028CD80E4CF
:102770008093AF0180918F018093B001809190018F
:102780008093B10180910201811112C021E2C21631
:10279000D10471F464E171E085EA93E00E946B2555
:1027A0004AE050E061E270E085EA93E00E9466262C
:1027B000E0919001E053EB3008F001CDF0E0ED51F5
:1027C000FC4E0C949227C814DF10F513DF10DF10B5
:1027D00027142714DF1033149814AE1460E471E04A
:1027E00085EA93E00E94A22598CF552453948091C6
:1027F0001101811101C0512C81E08093B20164E686
:10280000662E712C14E0552009F4D9CC0E94FC1BD3
:10281000882309F4C2C0E0906A010091020193018B
:10282000412F6FEA71E083E592E00E94A02280913F
:1028300048022091320230913302820F932F911D72
:10284000909333028093320210924802B8CC552400
:10285000539480911101811101C0512C5EE1652ECC
:10286000712C13E0D0CF5524539480911101811124
:1028700001C0512C2091910121702093B2018091CF
:1028800093018093B301809195018093B4011092DC
:10289000B501809197018093B6011092B7018091A4
:1028A00099018093B8011092B90180919B018093A6
:1028B000BA0180919C018093BB011092BC011092DF
:1028C000BD011092BE019091A0019093BF011092A2
:1028D000C0011092C1011092C20180914902882367
:1028E00011F1309147023833F1F4E0914502F09153
:1028F0004602409141025091420260914302709120
:102900004402309751F4211108C041155105610569
:10291000710519F090629093BF01E155FE4F43831A
:102920008150809349022EE1622E712C14E16BCF0D
:102930005524539480911101811101C0512C1092A2
:10294000B2011092B3011092B4011092B50110922D
:10295000B6014EE1642E712C18E055CF55245394E6
:1029600080911101811101C0512C1092B20110927D
:10297000B3011092B4011092B5011092B6011092F9
:10298000B7011092B8013EE1632E712C1BE03BCFE2
:1029900094E6692E712C13E039CF6CEB70E085EA78
:1029A00093E00E94A225809159028F3F09F44CCFF9
:1029B0008F5F8093590248CF803409F0F8C080912E
:1029C0008F01811107C080919001803119F485E059
:1029D0008093670169EB70E0411007C0809112019C
:1029E0008150833030F466EB70E085EA93E00E941A
:1029F0006B258091120180FD03C0442009F444C07E
:102A000063EB70E085EA93E00E946B2589819A81EF
:102A10008031974230F461EB70E085EA93E00E94E8
:102A20006B2589819A81883EE3E09E0708F0D2C039
:102A300060E385EA93E00E9497256FEA70E085EAFB
:102A400093E00E946B2589819A818436910528F450
:102A500060E385EA93E00E94972589819A810A972D
:102A600028F460E385EA93E00E94972569817A81E2
:102A70004AE050E085EA93E00E94B0266CEA70E0FC
:102A800085EA93E00E946B2580911201843018F052
:102A9000442009F4FDC20EE811E07601F1E0EF1ADE
:102AA000F108C8018E5891408C159D050CF0A5C009
:102AB00080911201882351F0F101808180FF06C0CE
:102AC00067EA70E085EA93E00E946B25809112012D
:102AD000882351F0F101808181FF06C062EA70E035
:102AE00085EA93E00E946B2580911201882351F0C2
:102AF000F101808185FF06C06DE970E085EA93E011
:102B00000E946B2580911201882351F0F101808190
:102B100082FF06C068E970E085EA93E00E946B25B9
:102B2000F80171908F0180910201882389F08091D2
:102B30001201813069F489A19AA18E0F9F1F8E1511
:102B40009F0531F462E970E085EA93E00E946B250D
:102B5000FFE0F71528F060E385EA93E00E949725EF
:102B600040E150E0672D85EA93E00E94972680912E
:102B70001201882351F0F101808183FF06C06DE8C6
:102B800070E085EA93E00E946B2580911201882312
:102B900051F0F101808184FF06C062E870E085EAAF
:102BA00093E00E946B25FFEF2F1A3F0A7ACF88230C
:102BB00009F41ACB803809F00DCF80918F01811173
:102BC00009CF80919001883109F004CF85E080938E
:102BD000650100CF08EE13E0B8010E945C274AE0CF
:102BE00050E085EA93E00E94B02689819A81B8017D
:102BF0000E945C279A83898320CF4420F9F064E700
:102C000070E085EA93E00E946B252FE0241528F000
:102C100060E385EA93E00E94972560E385EA93E00C
:102C20000E94972560E385EA93E00E94972540E1A2
:102C300050E0642D85EA93E00E94972685EA93E0B0
:102C40000E949E2525C280916701853008F46EC0E0
:102C5000109267011092AF011092B0018DE0809345
:102C6000B10180916B01E2EBF1E0882309F455C1D9
:102C7000CE0101966C01FE0139967F018E01055F40
:102C80001F4F9E012B5F3F4FAE01435F5F4FBE0161
:102C9000615F7F4F83E592E00E94CB198F85988911
:102CA0009093B2018093B3018D859E859093B4017A
:102CB0008093B5018D819E812F8138853093B60137
:102CC0002093B7019093B8018093B9018B859C85BF
:102CD0009093BA018093BB0189859A859093BC013A
:102CE0008093BD0189819A812B813C813093BE0103
:102CF0002093BF019093C0018093C1018091110185
:102D00008093C20190915102911101C080E08093A3
:102D1000C3011092C4011092C50180911201843048
:102D200028F467E18FEA91E00E949309809166019F
:102D3000853008F454C0109266011092AF011092D1
:102D4000B0018EE08093B101B092B201A092B301C4
:102D50009092B4018092B5011092B6018AE78093F7
:102D6000B70182E18093B8011092B90180915902B4
:102D70008093BA0180914F028093BB0180915002F1
:102D80008093BC01809158028093BD0180914902DB
:102D90008093BE01809147028093BF0180914502DC
:102DA000909146029093C0018093C10180914102AD
:102DB0009091420220914302309144023093C2012B
:102DC0002093C3019093C4018093C50180911201A7
:102DD000843028F467E18FEA91E00E9493098091A2
:102DE0006501853008F480C0109265011092AF0132
:102DF0001092B0018FE08093B1018DE58093B20114
:102E0000E0901201E092B30180914E028093B401F0
:102E100080910A018093B501809109018093B601E8
:102E200080913202909133029093B7018093B80160
:102E300080910F01909110019093B9018093BA0194
:102E400080910D0190910E019093BB018093BC0184
:102E500080916B018093BD0190E080E00E94B207F9
:102E60008093BE0182E090E00E94B2078093BF0190
:102E700081E090E00E94B2078093C0018BE1C82EF0
:102E800081E0D82E00E110E0FF24F394C8010E94F5
:102E9000B207F60121916F01022E000C330B91E075
:102EA0008217130609F090E0F9220F5F1F4F0931D6
:102EB000110561F7F092C101809152028093C20125
:102EC00080915B028093C30180915A028093C40178
:102ED000809151028093C501F3E0FE1528F067E16F
:102EE0008FEA91E00E949309A2960FB6F894DEBF94
:102EF0000FBECDBFDF91CF911F910F91FF90EF904B
:102F0000DF90CF90BF90AF909F908F907F906F9009
:102F10005F904F903F902F900895119221E0E63CF2
:102F2000F207D9F7FACE833611F00C945B0AF290CF
:102F30001082809164010A30110511F40C943B0A4F
:102F400081111EC066EA7CE085EA93E00E946B2551
:102F50006FEC71E085EA93E00E948F256F2D85EA82
:102F600093E00E9497254AE050E0B80185EA93E09B
:102F70000E945F2663EA7CE085EA93E00E94A22536
:102F800081E0809300018FEC91E0909304018093A5
:102F9000030110926C0183E592E00E94DF224B0155
:102FA0005C0180913C0290913D02A0913E02B09163
:102FB0003F0288159905AA05BB05BCF480916701FD
:102FC0008F5F80936701809166018F5F80936601B8
:102FD000809165018F5F8093650180923C029092A1
:102FE0003D02A0923E02B0923F0280913802909141
:102FF0003902A0913A02B0913B02AC01BD01415FA0
:10300000514F6F4F7F4F481559056A057B059CF45A
:1030100020910A01243618F42F5F20930A01805F63
:10302000914FAF4FBF4F8093380290933902A093D6
:103030003A02B0933B028091340290913502A09104
:103040003602B0913702AC01BD01415F514F6F4F65
:103050007F4F481559056A057B059CF420910901AD
:10306000243118F42F5F20930901805F914FAF4FF7
:10307000BF4F8093340290933502A0933602B093F1
:1030800037028EE891E09C01209530953AA329A360
:1030900083E592E00E94EB21582E882309F4D3CDDA
:1030A000C0906A01E090020101E22DE631E0AE013C
:1030B0004F5F5F4F6EE871E083E592E00E941D2252
:1030C0006C01412C829794F065EF73E085EA93E000
:1030D0000E94A225809158028F3F19F08F5F809344
:1030E000580211E2C12ED12C44244A94BDE62B2E65
:1030F000B1E03B2EF101CF018D5691408C159D051D
:1031000014F00C9464108191482AF5CFF301EB5927
:10311000FD4F80819181909363018093620168C922
:10312000803409F047CD4BCC1F920F920FB60F920F
:103130001124CF92DF92EF92FF922F933F934F9300
:103140005F936F937F938F939F93AF93BF93809180
:1031500078002091790030E0322F2227820F932FC0
:10316000911DB0E0A0E020911601222309F493C044
:10317000109216012091A20320937C0020919403C9
:10318000309195032F5F3F4F309395032093940325
:1031900040918E0350918F03609190037091910341
:1031A000840F951FA61FB71F80938E0390938F03E4
:1031B000A0939003B0939103A901542F44275295F3
:1031C000507F452B09F051C040918A0350918B03E9
:1031D00060918C0370918D03480F591F6A1F7B1FEC
:1031E00040938A0350938B0360938C0370938D03F9
:1031F000C0901901D0901A01F12CE12C8C159D057D
:10320000AE05BF0520F490931A0180931901C09078
:10321000A003D090A103F12CE12CC816D906EA0630
:10322000FB0620F49093A1038093A00310928E03D9
:1032300010928F031092900310929103A4E0220F3A
:10324000331FAA95E1F7232B81F440939C035093FD
:103250009D0360939E0370939F0310928A031092C4
:103260008B0310928C0310928D038EED80937A0065
:10327000BF91AF919F918F917F916F915F914F918E
:103280003F912F91FF90EF90DF90CF900F900FBE66
:103290000F901F90189521E0209316012091A30311
:1032A00020937C0020919203309193032F5F3F4F36
:1032B00030939303209392034091860350918703A8
:1032C0006091880370918903840F951FA61FB71F13
:1032D0008093860390938703A0938803B093890318
:1032E000A901542F44275295507F452B09F0BDCF9B
:1032F0004091820350918303609184037091850310
:10330000480F591F6A1F7B1F40938203509383030A
:103310006093840370938503C0901701D0901801C7
:10332000F12CE12C8C159D05AE05BF0520F4909382
:10333000180180931701C0909A03D0909B03F12C41
:10334000E12CC816D906EA06FB0620F490939B03ED
:1033500080939A0310928603109287031092880339
:103360001092890384E0220F331F8A95E1F7232B03
:1033700009F07BCF40939603509397036093980393
:103380007093990310928203109283031092840326
:10339000109285036ACFCF92DF92EF92FF920F9344
:1033A0001F938091A403882309F44EC086E880937C
:1033B0007A008091190190911A01FB019183808319
:1033C0008091A0039091A103FA0191838083809161
:1033D0009C0390919D03A0919E03B0919F03F901DE
:1033E00080839183A283B383809117019091180108
:1033F000F8019183808380919A0390919B03F70158
:10340000918380838091960390919703A091980374
:10341000B0919903F60180839183A283B38380EFF7
:103420009FE390931A01809319011092A1031092C7
:10343000A003909318018093170110929B031092A0
:103440009A038EE880937A001F910F91FF90EF907E
:10345000DF90CF900895CF92DF92EF92FF920F937B
:10346000CF93DF936B017C01D42FC22F9695879564
:10347000779567957E5E85489F4FA70196010E94CC
:1034800070273093810320938003B9017695679567
:10349000CB01820F931F90937F0380937E03C9011A
:1034A000F3E096958795FA95E1F7860F971F90932D
:1034B0007D0380937C0356954795379527953093E8
:1034C0007B0320937A03C901880F991F280F391FA6
:1034D000309379032093780361E082E00E94112306
:1034E00061E086E00E94112361E085E00E941123E3
:1034F00061E083E00E941123429A5E9A5D9A5B9A92
:1035000062E088E00E94112361E089E00E944D237F
:1035100061E089E00E9411231092B8021092B70274
:1035200010927703109272038FEF809371031092C1
:10353000700310920B0310920A031092050310926D
:1035400004031092B6021092B50282E084BD94E0AA
:1035500095BD99EF97BD1092B0021092B1021092F2
:10356000B2021092B3021092AC021092AD0210920D
:10357000AE021092AF0216BC21E023BD85BB809342
:103580006E008093B00023E02093B1009093B300CD
:1035900083BD1092B2001092B8021092B70287BB9E
:1035A0008093700010926F001092800081E88093E9
:1035B0008100809181008F7B8093810080918000C9
:1035C000806C80938000809182008068809382006C
:1035D00080E286BB80916F00806280936F00D09301
:1035E000A403DD2301F18C2F806C8093A303802F33
:1035F000806C8093A20321E030E0C90101C0880FF4
:10360000CA95EAF701C0220F0A95EAF7822B8F7359
:1036100080937E008091A30380937C0010927B00B6
:103620008EED80937A00DF91CF910F91FF90EF9014
:10363000DF90CF9008951F920F920FB60F92112432
:103640008F939F93AF93BF938091AC029091AD0203
:10365000A091AE02B091AF020896A11DB11D80935A
:10366000AC029093AD02A093AE02B093AF028091F2
:10367000B4028F5F8093B4028D37A8F01092B40229
:103680008091B0029091B102A091B202B091B302C8
:103690000196A11DB11D8093B0029093B102A09339
:1036A000B202B093B302BF91AF919F918F910F90EF
:1036B0000FBE0F901F9018951F920F920FB60F928A
:1036C00011242F933F938F939F938091B7029091F2
:1036D000B802019649F08091B7029091B802019624
:1036E0009093B8028093B70280910B03833609F060
:1036F0006BC02091B7023091B8028091B5029091D1
:10370000B60228173907C1F02091B7023091B802EC
:103710008091B5029091B6022817390708F454C079
:103720002091B7023091B802809114019091150157
:103730002817390708F448C081E080930B032091D3
:103740007803309179038091AA02882321F0809137
:10375000A90291E0811190E09093AB028091AB02BD
:10376000882351F081E08093A9021092640280EFD7
:103770008093A6021092A80290916F009F7D909373
:103780006F0090916F009B7F90936F00109270007C
:103790008091840090918500820F931F90938900FF
:1037A00080938800809180008F7B80688093800068
:1037B000809181008F7B80938100B19A80916F000E
:1037C000826080936F005D9A9F918F913F912F91BE
:1037D0000F900FBE0F901F9018958230910510F436
:1037E00082E090E090936302809362020895909348
:1037F000150180931401089520910403909105030D
:1038000081E0291380E00895909105039F5F99312D
:1038100008F090E0209104032917E1F36FB7F894C2
:1038200020910B0340916202509163022223A9F080
:10383000292F30E0F901E551FD4F8083220F331F1E
:10384000F901E754FD4F51834083109263021092B7
:103850006202909305036FBF0895809309038093DC
:10386000070310920603109261021092600283E631
:1038700080930B035093B6024093B50210926302FB
:1038800010926202E8CF1F920F920FB60F9211248E
:103890002F933F934F935F936F937F938F939F9358
:1038A000EF93FF9380910B0340918400509185002A
:1038B0006091880070918900843108F0AFC1209137
:1038C0007A0330917B03260F371F309389002093B2
:1038D000880093B1917080FFE8C020918000206C37
:1038E000209380002091810020642093810081300A
:1038F00009F05EC02091B7023091B80230935F02A8
:1039000020935E0210927000911192C0109260029A
:1039100093B19170B59B59C1209186003091870079
:1039200040E246BB992309F432C19091AB0299233E
:1039300059F19091A702911104C09091A8029111A0
:1039400023C0E0916402F0E0EE0FFF1FEB59FD4F42
:1039500031832083E0916402F0E0EF56FD4F982F11
:1039600090669083909164029F5F90936402963179
:1039700011F4109264029091A802992329F0909179
:10398000A70291509093A70280930A038F5F8093C0
:103990000B03FF91EF919F918F917F916F915F91B9
:1039A0004F913F912F910F900FBE0F901F90189540
:1039B000833169F422E023BD1092B20061E070E02F
:1039C0007093B8026093B70227BB209370002091D8
:1039D0000803291709F49CCF90916002926090939C
:1039E00060029091AB02992309F492CF9091A702C3
:1039F000911104C09091A80291118ACF9091A802D0
:103A0000911106C091E09093A8029BE09093A702C9
:103A1000E0916402F0E0EE0FFF1FEB59FD4F518380
:103A20004083E0916402F0E0EF56FD4F9CEF28C028
:103A3000809360029091AB02992309F469CF909131
:103A4000A702911104C09091A802911161CF9091A9
:103A5000A802911106C091E09093A8029BE0909378
:103A6000A702E0916402F0E0EE0FFF1FEB59FD4F5B
:103A700051834083E0916402F0E0EF56FD4F9FEFE9
:103A80009083909164029F5F90936402963111F449
:103A9000109264029091A802992309F439CF909171
:103AA000A70291509093A70233CF823108F05FC0F4
:103AB00020910903622F617020FD0BC020918000CE
:103AC0002F7B206820938000209181002F7B209302
:103AD00081002091060326272093060320910903E5
:103AE00030E0359527952093090391113DC09091C1
:103AF00060029062909360029091AB029923A1F1D1
:103B00009091A702911104C09091A80291112CC02C
:103B10009091A802911106C091E09093A8029BE0B9
:103B20009093A702E0916402F0E0EE0FFF1FEB59C3
:103B3000FD4F51834083E0916402F0E0EF56FD4F6A
:103B40009EEF9083909164029F5F90936402963100
:103B500011F4109264029091A802992329F0909197
:103B6000A70291509093A70260930803D1CE609171
:103B700006036111BACF209180002F7B206820932B
:103B80008000209181002F7B20938100AECF909107
:103B9000AB02992309F4F8CE9091A702911104C0C9
:103BA0009091A8029111F0CEE0916402F0E0EE0F46
:103BB000FF1FEB59FD4F31832083E0916402F0E059
:103BC000EF56FD4F982F9064CCCE9111DDCE9091A1
:103BD000AB02992309F4D8CE9091A702911104C0A9
:103BE0009091A8029111D0CE9091A802911106C097
:103BF00091E09093A8029BE09093A702E091640269
:103C0000F0E0EE0FFF1FEB59FD4F51834083E09131
:103C10006402F0E0EF56FD4F97EFA3CE93B19170A1
:103C2000B59BC3C0409186005091870030E236BBFF
:103C3000992309F4A2C09091AB02992351F190917C
:103C4000A702911104C09091A802911122C0E091A5
:103C50006402F0E0EE0FFF1FEB59FD4F51834083EC
:103C60008066E0916402F0E0EF56FD4F8083809122
:103C700064028F5F80936402863111F410926402B3
:103C80008091A802882329F08091A7028150809317
:103C9000A70280916002882329F05B9A8091050336
:103CA0008093040380911301882339F1E09172031A
:103CB00021E02E0F293108F020E080917003821757
:103CC00009F49CC0822F90E030910703FC01E95A6F
:103CD000FC4F308340915E0250915F02FC01EE0F79
:103CE000FF1FE45FFC4F5183408330916002825C90
:103CF0009C4FFC01308320937203909105038091C7
:103D00000403981709F4A6C08F5F893108F080E09A
:103D10008093040390E0FC01E551FD4F3081309326
:103D2000090330930703880F991FFC01E754FD4FE7
:103D30008081918110926102109206038230910578
:103D400008F067C0809188009091890020917803E5
:103D500030917903820F931F90938900809388009C
:103D6000809180008F7B80688093800080918100AB
:103D70008F7B8093810081E00ACE9091AB029923E2
:103D800009F487CF9091A702911104C09091A802E5
:103D900091117FCFE0916402F0E0EE0FFF1FEB592D
:103DA000FD4F5183408380645CCF911172CF80912D
:103DB000AB02882309F46DCF8091A702811104C062
:103DC0008091A802811165CF8091A802811106C05F
:103DD00081E08093A8028BE08093A702E0916402C7
:103DE000F0E0EE0FFF1FEB59FD4F51834083E09150
:103DF0006402F0E0EF56FD4F87EF38CF2091720359
:103E0000E22FF0E0E25CFC4F8081886080835B9A67
:103E100074CF33E630930B039093B6028093B502D0
:103E200080916F008D7F80936F00809181008F7BE8
:103E30008093810080E286BB80916F0080628093D6
:103E40006F00E22FF0E0E25CFC4F808180688083AD
:103E50005D989FCD10920B03E3CF80910B038111EE
:103E6000FCCF08958093AA020895809313010895CA
:103E70001F920F920FB60F9211242F933F934F93DF
:103E80005F936F937F938F939F93EF93FF93209113
:103E90008600309187008091840090918500809108
:103EA00077038111D3C05E9A5D985B9890917103FE
:103EB0009F3F39F090917103909372039FEF90931D
:103EC00071034091B7025091B80250935F02409342
:103ED0005E021092700040917E0350917F03420F6A
:103EE000531F509374034093730392E090937703AE
:103EF0001092750350938B0040938A0094E096BB18
:103F000090916F00946090936F00811116C0909112
:103F1000A902911112C09091AA029093AB029091C4
:103F2000AB02992351F091E09093A90210926402A0
:103F300090EF9093A6021092A8029091AB02992361
:103F400051F19091A702911104C09091A802911192
:103F500022C0E0916402F0E0EE0FFF1FEB59FD4F2D
:103F600031832083806CE0916402F0E0EF56FD4FD6
:103F70008083809164028F5F80936402863111F4A4
:103F8000109264028091A802882329F08091A702F0
:103F900081508093A70230935D0220935C022EC073
:103FA0009091AB02992351F19091A702911104C015
:103FB0009091A802911122C0E0916402F0E0EE0F0E
:103FC000FF1FEB59FD4F31832083806AE09164022B
:103FD000F0E0EF56FD4F8083809164028F5F809305
:103FE0006402863111F4109264028091A802882341
:103FF00029F08091A70281508093A702FF91EF9151
:104000009F918F917F916F915F914F913F912F91F0
:104010000F900FBE0F901F9018958A3009F08DCF2A
:1040200040917303509174036091800370918103F8
:10403000460F571F509374034093730350938B00A4
:1040400040938A0094E096BB9BE031C040915C02B3
:1040500050915D02B901641B750B40917C03509136
:104060007D036417750708F49BCF823008F41ECFD8
:104070008A3098F64091760350E0559547954093E5
:1040800076034091730350917403609180037091A3
:104090008103460F571F509374034093730350934B
:1040A0008B0040938A0094E096BB91E0980F909328
:1040B000770343CF1F920F920FB60F9211242F93C5
:1040C0003F934F935F936F937F938F939F93AF93A0
:1040D000BF93EF93FF9360918A0070918B004091A2
:1040E00084005091850090917703913061F5809123
:1040F0006F008B7F80936F00109277038091710324
:104100008F3F79F08091710380937203E091720385
:10411000F0E0E25CFC4F8081806880838FEF8093C9
:1041200071035E98FF91EF91BF91AF919F918F9135
:104130007F916F915F914F913F912F910F900FBEA3
:104140000F901F901895A0917303B0917403209164
:104150008003309181039B3009F0BEC08AE0829FCA
:10416000F001839FF00D1124EA0FFB1FF0938B00E9
:10417000E0938A0081E080937703809172038F5FE0
:10418000893108F080E020917003281709F459C0A4
:10419000E82FF0E020917603DF01A95ABC4F2C9361
:1041A00020915E0230915F02DF01AA0FBB1FA45F66
:1041B000BC4F11963C932E93E25CFC4F10822091F1
:1041C0007503222309F4B8C0208124602083209144
:1041D000AB022223A1F12091A702211104C020915A
:1041E000A80221112CC02091A802211106C021E0B3
:1041F0002093A8022BE02093A702E0916402F0E054
:10420000EE0FFF1FEB59FD4F71836083E091640255
:10421000F0E0EF56FD4F2DEF2083209164022F5FD9
:1042200020936402263111F4109264022091A802B6
:10423000222329F02091A70221502093A7025B9A04
:104240000BC0E0917203F0E0E25CFC4F808188607B
:1042500080835B9A809172038093710382E083BDB7
:104260001092B20021E030E03093B8022093B70200
:1042700087BB809370008091AB02882309F452CFF2
:104280008091A702811104C08091A80281114ACFB8
:10429000E0916402F0E0EE0FFF1FEB59FD4F5183F8
:1042A00040839068E0916402F0E0EF56FD4F908308
:1042B000809164028F5F80936402863111F41092C2
:1042C00064028091A802882309F42CCF8091A70270
:1042D00081508093A70226CF8091750360E8680F14
:1042E0002A0F3B1F9A3099F4609375036BE060933B
:1042F0007703309374032093730330938B002093E0
:104300008A00803811F05B9AB6CF5B98B4CF809169
:10431000760386958068809376036093750381E0C9
:10432000890F809377033093740320937303309342
:104330008B0020938A009FCF5B988ECF8091720371
:10434000E09170038E1761F0EF5FE93108F0E0E073
:10435000F0E0EE0FFF1FE45FFC4F80819181089534
:1043600090E080E0089580917203E09170038E17D1
:1043700049F0EF5FE93108F0E0E0F0E0E25CFC4F8B
:104380008081089580E00895809172039091700378
:10439000891761F09F5F993108F090E0E92FF0E014
:1043A000E95AFC4F808190937003089580E008954E
:1043B0002091720390917003291728F081E029134E
:1043C00009C080E007C030E0275E3F4F81E09217D0
:1043D0001306B9F308952091720380917003821738
:1043E00069F08F5F893108F080E0E82FF0E0E25C4F
:1043F000FC4F908197FFF3CF81E0089580E008950E
:1044000080917003809372030895CF93DF93CFE67A
:10441000D0E088818B7F888388818F7D88830E940C
:1044200000220E942D1F88818D7F8883109270004A
:1044300010926E00DF91CF9108952F923F924F928C
:104440005F926F927F928F929F92AF92BF92CF9224
:10445000EF920F93CF93DF935C013B012A01490157
:10446000C0E0202F2150330B1401220E331EC50152
:104470000E94D8218823D9F3C5010E94B321D82FE7
:104480008114910441F0982F9F77C01728F5F4010B
:10449000EC0FF11D9083C11106C0C5010E949E2141
:1044A000F20191838083C5010E94C421D7FF19C006
:1044B000EE2009F442C0C01748F5EC2FF0E0D3011C
:1044C000AE0FBF1F8C938C1509F1E80DF91D80818B
:1044D000806180835B9A1AC0F1018081892B80837F
:1044E000DACFC01720F4F301EC0FF11D8083EE202A
:1044F00069F098E02C2D30E035952795C826C0FE50
:104500001AC0CE2CC22686959150A1F7CF5FD7FF57
:10451000AECF8C2F90E0DF91CF910F91EF90CF90A5
:10452000BF90AF909F908F907F906F905F904F90D3
:104530003F902F900895C22EE6CFC017A0F2E6CF8D
:10454000CF92DF92EF920F931F93CF93DF93D62EEC
:10455000172FC42EC9010E94ED1BCD2DD12FCC0EDB
:10456000DD2ED11CCC16DD06B1F01991812F0E94F1
:10457000041C0023B9F328E08E2D90E095958795D3
:10458000E126E0FE06C0E02EE82616952150A1F7B0
:10459000E9CFE82EFACF002351F08E2DDF91CF9195
:1045A0001F910F91EF90DF90CF900C94041CDF913E
:1045B000CF911F910F91EF90DF90CF900895609170
:1045C000B0027091B1028091B2029091B30208954D
:1045D000843081F028F48230E9F08330F9F00895D6
:1045E000883071F0893091F08530B9F48091800085
:1045F0008F7D03C0809180008F7780938000089525
:104600008091B0008F778093B00008958091B000C2
:104610008F7DF9CF84B58F7784BD089584B58F7D64
:10462000FBCFCF93DF9390E0FC01EE55F14F249147
:104630008754914FFC0184918823C9F090E0880F42
:10464000991FFC01E652F14FA591B491FC01E05392
:10465000F14FC591D49161110DC09FB7F8948C9121
:10466000209582238C938881282328839FBFDF9104
:10467000CF910895623051F49FB7F8943C91822F06
:10468000809583238C93E8812E2BEFCF8FB7F894FE
:10469000EC912E2B2C938FBFEACF1F93CF93DF93F8
:1046A000282F30E0F901E557F14F8491F901EE55DB
:1046B000F14FD491F901E754F14FC491CC23A9F003
:1046C000162F81110E94E822EC2FF0E0EE0FFF1F61
:1046D000E053F14FA591B4918FB7F894EC9111117B
:1046E00008C0D095DE23DC938FBFDF91CF911F915F
:1046F0000895DE2BF8CFFC01918D228D892F90E05B
:10470000805C9F4F821B91098F7399270895FC014C
:10471000918D828D981731F0828DE80FF11D858D76
:1047200090E008958FEF9FEF0895FC01918D828DA9
:10473000981761F0A28DAE0FBF2FB11D5D968C91C1
:10474000928D9F5F9F73928F90E008958FEF9FEF00
:104750000895FC01538D448D252F30E0842F90E087
:10476000821B930B541710F0CF960895019708956C
:1047700088EF94E2892B49F080E090E0892B29F0C2
:104780000E94F82481110C9400000895FC01A48D6E
:10479000A80FB92FB11DA35ABF4F2C91848D90E063
:1047A00001968F739927848FA689B7892C93A08946
:1047B000B1898C9180648C93938D848D981306C0FD
:1047C0000288F389E02D80818F7D80830895CF93C7
:1047D000DF93EC01888D8823B9F0AA89BB89E88929
:1047E000F9898C9185FD03C0808186FD0DC00FB6CF
:1047F00007FCF7CF8C9185FFF2CF808185FFEDCF4D
:10480000CE010E94C623E9CFDF91CF910895EF92A8
:10481000FF920F931F93CF93DF93EC0181E0888F7A
:104820009B8D8C8D981316C0E889F989808185FF4E
:1048300011C0EE89FF896083E889F98980818064ED
:10484000808381E090E0DF91CF911F910F91FF90E5
:10485000EF900895F62E0B8D10E00F5F1F4F0F7332
:104860001127E02E8C8D8E110CC00FB607FCFACFED
:10487000E889F989808185FFF5CFCE010E94C623A2
:10488000F1CFEB8DEC0FFD2FF11DE35AFF4FF082BE
:104890000B8FEA89FB8980818062D2CFCF92DF9231
:1048A000EF92FF921F93CF93DF93EC016A017B019C
:1048B000122F60E874E88EE190E0A70196010E9453
:1048C000702721503109410951095695479537956F
:1048D0002795E889F98982E08083211580E13807EE
:1048E00098F0E889F989108260E472E48FE090E042
:1048F000A70196010E9470272150310941095109F1
:104900005695479537952795EC85FD853083EE853F
:10491000FF852083188EEC89FD891083EA89FB8945
:10492000808188698083EA89FB8980818F7D80838B
:10493000DF91CF911F91FF90EF90DF90CF9008957E
:104940001F920F920FB60F9211242F938F939F9364
:10495000EF93FF93E091B503F091B6038081E0916E
:10496000BB03F091BC0382FD1BC090818091BE030C
:104970008F5F8F732091BF03821741F0E091BE03D8
:10498000F0E0EB55FC4F958F8093BE03FF91EF91C4
:104990009F918F912F910F900FBE0F901F901895A0
:1049A0008081F4CF1F920F920FB60F9211242F9394
:1049B0003F934F935F936F937F938F939F93AF93A7
:1049C000BF93EF93FF9385EA93E00E94C623FF9184
:1049D000EF91BF91AF919F918F917F916F915F9177
:1049E0004F913F912F910F900FBE0F901F901895F0
:1049F00085EA93E00E947B2321E0892B09F420E0E3
:104A0000822F0895E5EAF3E01382128288EE93E0A4
:104A1000A0E0B0E084839583A683B78380E591E02E
:104A20009183808385EC90E09587848784EC90E087
:104A30009787868780EC90E0918B808B81EC90E06B
:104A4000938B828B82EC90E0958B848B86EC90E04C
:104A5000978B868B118E128E138E148E0895AF92C3
:104A6000BF92CF92DF92EF92FF920F931F93CF935B
:104A7000DF936C017B018B01040F151FEB015E01BD
:104A8000AE18BF08C017D10759F06991D601ED9152
:104A9000FC910190F081E02DC6010995892B79F7F1
:104AA000C501DF91CF911F910F91FF90EF90DF90A3
:104AB000CF90BF90AF900895FB0101900020E9F7DF
:104AC0003197AF01461B570BDC01ED91FC91028041
:104AD000F381E02D0994EF92FF920F931F93CF93F0
:104AE000DF938C017B01D0E0C0E0F701EC0FFD1FEC
:104AF0006491662361F0D801ED91FC910190F08101
:104B0000E02DC8010995892B11F02196EECFCE0139
:104B1000DF91CF911F910F91FF90EF900895611554
:104B2000710511F00C945C2590E080E00895DC01A3
:104B3000ED91FC910190F081E02D09946EE571E01A
:104B40000C945C250F931F93CF93DF93EC010E948D
:104B50006B258C01CE010E949E25800F911FDF9155
:104B6000CF911F910F9108950F931F93CF93DF93D0
:104B70008C01D0E0C0E06115710519F00E945C2540
:104B8000EC01C8010E949E258C0F9D1FDF91CF91E3
:104B90001F910F9108958F929F92AF92BF92EF92C3
:104BA000FF920F931F93CF93DF93CDB7DEB7A197FB
:104BB0000FB6F894DEBF0FBECDBF7C01FA01CB016A
:104BC00019A2223008F42AE08E010F5D1F4F822EB9
:104BD000912CB12CA12CBF01A50194010E9470273A
:104BE000F901CA016A300CF5605DD8016E938D0140
:104BF000232B242B252B79F790E080E0109721F0D0
:104C0000BD01C7010E945C25A1960FB6F894DEBFD6
:104C10000FBECDBFDF91CF911F910F91FF90EF900D
:104C2000BF90AF909F908F900895695CDECFCF9238
:104C3000DF92EF92FF920F931F93CF93DF93211593
:104C4000310581F4DC01ED91FC910190F081E02DC2
:104C5000642FDF91CF911F910F91FF90EF90DF9024
:104C6000CF9009942A30310501F52AE077FF1DC065
:104C70006A017B01EC016DE20E9497258C014427BB
:104C80005527BA014C195D096E097F092AE0CE014A
:104C90000E94CB25800F911FDF91CF911F910F9123
:104CA000FF90EF90DF90CF900895DF91CF911F910B
:104CB0000F91FF90EF90DF90CF900C94CB259A014D
:104CC000AB01770F660B770B0C9417260F931F938E
:104CD000CF93DF93EC010E945F268C01CE010E94EE
:104CE0009E25800F911FDF91CF911F910F91089505
:104CF0000F931F93CF93DF93EC010E9417268C0133
:104D0000CE010E949E25800F911FDF91CF911F91B0
:104D10000F9108952115310541F4DC01ED91FC91CD
:104D20000190F081E02D642F09940C94CB259A0119
:104D3000462F50E070E060E00C948A260F931F939A
:104D4000CF93DF93EC010E9497268C01CE010E9445
:104D50009E25800F911FDF91CF911F910F91089594
:104D60009A01AB0170E060E00C948A260F931F93C8
:104D7000CF93DF93EC010E94B0268C01CE010E94FC
:104D80009E25800F911FDF91CF911F910F91089564
:104D90000F931F93CF93DF93EC010E948A268C011F
:104DA000CE010E949E25800F911FDF91CF911F9110
:104DB0000F91089508950E9434270E94DA260E94D8
:104DC0002E08C8EBD3E20E94FD092097E1F30E9470
:104DD000B823F9CF1F920F920FB60F9211242F9381
:104DE0003F938F939F93AF93BF938091470490918C
:104DF0004804A0914904B0914A043091460426E049
:104E0000230F2D3768F129E8230F0396A11DB11D4B
:104E1000209346048093470490934804A093490448
:104E2000B0934A048091420490914304A0914404B9
:104E3000B09145040196A11DB11D80934204909349
:104E40004304A0934404B0934504BF91AF919F9154
:104E50008F913F912F910F900FBE0F901F9018953B
:104E60000296A11DB11DD4CF789484B5836084BD12
:104E700085B5836085BDEEE6F0E08081816080834A
:104E8000E1E8F0E082E08083808181608083E0E877
:104E9000F0E0808181608083E1EBF0E080818460DC
:104EA0008083E0EBF0E080818160808386E88093FE
:104EB0007A001092C1000895AA1BBB1B51E107C0E4
:104EC000AA1FBB1FA617B70710F0A61BB70B881F9A
:104ED000991F5A95A9F780959095BC01CD01089529
:104EE000A1E21A2EAA1BBB1BFD010DC0AA1FBB1FEE
:104EF000EE1FFF1FA217B307E407F50720F0A21B60
:104F0000B30BE40BF50B661F771F881F991F1A94CC
:104F100069F760957095809590959B01AC01BD01F6
:104F2000CF010895EE0FFF1F0590F491E02D099435
:104F3000FB01DC014150504030F08D91019080190F
:104F400019F40020B9F7881B990B0895AEE0B0E082
:104F5000ECEAF7E20C94E02A85E08C838B899C894B
:104F60009A838983AE01495E5F4F6D897E89CE0148
:104F700001960E944A292E96E2E00C94FC2A20FD1C
:104F800009C0FC0123FD05C022FF02C073836283B8
:104F900051834083089544FD17C046FD1DC0DB01C9
:104FA000FC01AA0FBB1FEE1FFF1F1094D1F76A0F61
:104FB0007B1F8E1F9F1F660F771F881F991F620F11
:104FC000711D811D911D089533E0660F771F881FA5
:104FD000991F3150D1F7F3CF34E0F7CF0F931F93E0
:104FE000CF93DF938C01C8010E94632AEC0197FDE7
:104FF00008C00E944F2A892BB1F7B801CE010E9448
:105000009F2ACE01DF91CF911F910F9108958F922A
:105010009F92AF92BF92EF92FF920F931F93CF9305
:10502000DF938C01D62F7A01B22E0E94632A9C0155
:1050300033272B32310529F02D323105A9F468943C
:10504000B7F8D15061F480E0DF91CF911F910F91BB
:10505000FF90EF90BF90AF909F908F900895C80100
:105060000E94632A97FDEFCFCB2DCD7F2B2D207390
:10507000F9F48033E9F4AA24AA94AD0E89F0C801AA
:105080000E94632A97FD0CC0282F2F7D283561F4DC
:10509000C264D25029F0C8010E94632A97FF08C059
:1050A000812C912C54011BC0B6FE2BC0C260DA2D9E
:1050B000812C912C540120ED280F283028F1C4FDBB
:1050C00009C02A3008F1C6FF05C02F7D3FEE320F20
:1050D0003630C8F0B8010E949F2AC1FFB4CFC7FF85
:1050E00008C0B094A09490948094811C911CA11C41
:1050F000B11C2C2FB501A401C7010E94BF2781E07C
:10510000A3CFC261D4CF27504C2FC501B4010E9458
:10511000CB274B015C01C260D15009F3C8010E944A
:10512000632A97FFC8CFD9CFA0E2B0E0EAE9F8E25E
:105130000C94D52A5C01962E7A01CE0101966C0161
:1051400080E2F60111928A95E9F7F501B3818901B0
:1051500030E020E0712C812CA0E041E050E0F8012B
:10516000B3FD8591B3FF8191982F8F01811107C005
:1051700010E000E0C801A096EDE00C94F12A8E3515
:1051800019F42115310541F1A21713064CF48D35A0
:1051900049F18D3229F4811006C0882483941DC002
:1051A000882009F464C0E92FE695E695E695EC0DB4
:1051B000FD2DF11D892F8770BA0101C0660F8A95F8
:1051C000EAF78081682B6083791651F0971510F407
:1051D0009F5FE9CF9150E7CFA1E02F5F3F4FBFCF57
:1051E000812CFBCF882019F08E8180628E83AA23C8
:1051F00059F0F6019E012F5D3F4F8081809580839D
:105200003196E217F307C9F788248394C5010E94F9
:10521000632A97FD16C0E82FE695E695E695EC0D16
:10522000FD2DF11D208130E0AC014770552702C0F3
:10523000359527954A95E2F720FD06C0B5010E94F5
:105240009F2A882069F094CFE114F10429F0F70136
:105250008083C70101967C019A94812C9110D6CF4E
:10526000E114F10409F486CFF701108283CFE82F0F
:10527000E695E695E695EC0DFD2DF11D982F9770BE
:10528000BA0101C0660F9A95EAF79081692B608395
:10529000782EA3CFB0E0A0E0E0E5F9E20C94D32AA9
:1052A0006C01EB015A01FC0117821682512CF601A8
:1052B000E380FE01E3FC8591E3FE8191182FEF016D
:1052C0008823E9F090E00E944F2A892B21F0C60143
:1052D0000E94EE27ECCF153241F4FE01E3FC15915C
:1052E000E3FE1191EF01153269F4C6010E94632AB1
:1052F00097FD8EC01817D9F2B6010E949F2A852DFE
:1053000090E08AC000E01A3231F4E3FC1591E3FE2C
:105310001191EF0101E0F12C20ED210F2A3048F12D
:1053200001FF37C0FF2059F31836B1F11C3609F4DC
:105330003DC0112321F3612F70E088E690E00E94C8
:10534000582A892BE1F2912C812C00FD06C0F50131
:1053500080809180C50102965C011E3679F5F601C8
:105360004681578170E060E0202FC4010E94BF2772
:105370009ECF02606F2D70E090E080E040E20E94DE
:10538000CB27F62EFE01E3FC1591E3FE1191EF0110
:10539000C3CFFF24FA94C8CFFE01E3FC1591E3FECE
:1053A0001191EF01183609F0C4CF08600460FE01C6
:1053B000E3FC1591E3FE1191EF01BBCF1336C1F46D
:1053C00001FD02C0FF24F394C6010E94632A97FDE9
:1053D0001FC08114910429F0F4018083C401019657
:1053E0004C01FA94F110F0CF00FD61CF53945FCFE0
:1053F0001B35B9F49E01A4016F2DC6010E949428AB
:10540000EC01892B89F7F6018381807309F477CF4A
:105410008FEF9FEF511073CFCDB7DEB7EFE00C9455
:10542000EF2AC6010E94EE2797FDF2CF1F36A9F1A1
:1054300030F4143641F0193639F0006405C01337E2
:10544000B9F01537D1F70062202FA4016F2DC601E6
:105450000E9407288111C8CFD6CF8114910429F06A
:10546000F4016082C40101964C01FA94FF2071F0AE
:10547000C6010E94632A3C0197FD08C00E944F2A82
:10548000892B59F3B601C3010E949F2A811491040C
:1054900009F4AACFF4011082A7CF0061D5CF9111F2
:1054A0000C94B72A803219F089508550C8F70895B6
:1054B000FC010590061621F00020D9F7C0010895DF
:1054C0003197CF010895CF93DF93EC012B8120FF1B
:1054D0001AC026FF0CC02F7B2B838E819F810196E3
:1054E0009F838E838A8190E0DF91CF91089522FF80
:1054F00018C0E881F9818081082E000C990B009773
:1055000029F420622B838FEF9FEFEECF3196F98342
:10551000E8832E813F812F5F3F4F3F832E83992762
:10552000E3CFEA85FB85099597FFF3CF2B810196A1
:1055300021F080E2822B8B83E6CF80E1FBCFFB0161
:10554000238120FF11C026FD0FC08F3F980771F007
:1055500082832F7D20642383268137812150310966
:1055600037832683992708958FEF9FEF0895992712
:1055700088270895F999FECF92BD81BDF89A9927A1
:1055800080B50895262FF999FECF1FBA92BD81BD2F
:1055900020BD0FB6F894FA9AF99A0FBE01960895B5
:1055A0002F923F924F925F926F927F928F929F9233
:1055B000AF92BF92CF92DF92EF92FF920F931F9321
:1055C000CF93DF93CDB7DEB7CA1BDB0B0FB6F894D2
:1055D000DEBF0FBECDBF09942A88398848885F8412
:1055E0006E847D848C849B84AA84B984C884DF8083
:1055F000EE80FD800C811B81AA81B981CE0FD11D67
:105600000FB6F894DEBF0FBECDBFED01089517E0D1
:10561000C3E7D7E004C0FE010E9492272196C43759
:08562000D107C9F7F894FFCF90
:1056280002C8D9CF01FFFFFFFF0A0A3D01C40932B2
:1056380000010301C40901F03FF03F5031503253DB
:105648004947303100256400253478002E2E2E007D
:105658003C2D00220031503250002532782532642A
:1056680025327800253278256E00300000000000D1
:1056780007242F25A923E7237B23952387230D0AB6
:02568800000020
:00000001FF
