:100000000C942F070C9457070C9457070C94570720
:100010000C9457070C9457070C9457070C94D51E53
:100020000C9457070C9457070C94BE220C94C21FD3
:100030000C94F3230C9457070C94941E0C945707BC
:100040000C94E92A0C9457070C949F280C94D128FF
:100050000C9457070C94EF1B0C9457070C945707FC
:100060000C9457070C9457076364696E6F7073752F
:1000700078585B0020726561644572726F723D3022
:10008000780020435243206572726F72003A4F52DB
:100090002D00204352433D002D50453A002D424350
:1000A0003A002D58583A002D53423A003A20002E7B
:1000B000005420005220004520002A205265667519
:1000C00073696E6720746F20777269746520706140
:1000D000636B6574207768696C65207072657669FA
:1000E0006F7573207061636B6574207761736E2721
:1000F000742066696E69736865642C20666C75731C
:1001000068696E6720777269746520616374696FCE
:100110006E002A2053757270726973653A20726599
:100120006365697665642030304678337820706185
:10013000636B6574206F662073697A6520002064A4
:10014000657465637465642C20737769746368698A
:100150006E6720636F6E74726F6C2066756E637469
:10016000696F6E616C6974792063616E20626520CD
:100170007377697463686564206F6E20287573698E
:100180006E67204C31290020646574656374656472
:100190002C20636F6E74726F6C2066756E63746969
:1001A0006F6E616C6974792077696C6C207265730D
:1001B00074617274002A204E6F20617578696C69D1
:1001C00061727920636F6E74726F6C6C65722061FE
:1001D0006E73776572696E6720746F2061646472F4
:1001E000657373203078002064657465637465649A
:1001F000002A205761726E696E673A20616E6F74D3
:1002000068657220617578696C6961727920636FC5
:100210006E74726F6C6C657220697320616E737797
:100220006572696E6720746F2061646472657373B0
:10023000203078002A205265667573696E672074D5
:100240006F20777269746520636F756E7465722DA7
:1002500072657175657374207061636B6574207766
:1002600068696C652070726576696F75732070615E
:10027000636B6574207761736E27742066696E699D
:1002800073686564002A20465F6D61782073657429
:1002900020746F20002A205761726E696E673A20C1
:1002A00055706F6E2041546D65676120726573747F
:1002B00061727420617578696C6961727920636F0D
:1002C0006E74726F6C6C65722066756E6374696FA4
:1002D0006E616C69747920616E6420636F756E74F1
:1002E000657220726571756573742066756E6374CE
:1002F000696F6E616C6974792077696C6C207265C6
:100300006D61696E207377697463686564206F66D8
:1003100066002A20537769746368696E6720636F8B
:100320006E74726F6C2066756E6374696F6E616C4B
:10033000697479206F6666002A2053776974636850
:10034000696E6720636F756E746572207265717572
:100350006573742066756E6374696F6E206F666670
:10036000002A205741524E494E473A20746F6F2061
:100370006D616E792072656164206572726F72734F
:1003800020646574656374656400203F2000E2802A
:10039000BE5C5F005F2FE280BE005F5F5F00E280B7
:1003A000BEE280BEE280BE002D582D002020206CD1
:1003B0007720202000202020706520202000202091
:1003C0002050452020200020202062632020200093
:1003D0002020204243202020002020207362202063
:1003E0002000202020534220202000202020626571
:1003F00020202000202020424520202000632000D3
:100400004320002A20526563656976656420706127
:10041000636B6574206C6F6E676572207468616EC3
:100420002052425F53495A45002A20436F6D6D6147
:100430006E64206E6F7420756E64657273746F6F76
:10044000643A20002A20436F6E74726F6C5F696497
:10045000206973203078002A20436F6E74726F6CAD
:100460005F69642073657420746F203078002A20DF
:10047000434F4E54524F4C5F494420697320616C86
:1004800072656164792030783030002A20596F75A8
:10049000206D6179207769736820746F2072652DF3
:1004A00074727920696E20612066657720736563B8
:1004B0006F6E64732028616E64207065726861706D
:1004C0007320737769746368206F74686572206144
:1004D0007578696C6961727920636F6E74726F6C84
:1004E0006C657273206F666629002A204E6F206645
:1004F000726565206164647265737320666F722033
:10050000636F6E74726F6C6C657220666F756E646B
:100510002028796574292E20436F6E74726F6C20C9
:1005200066756E6374696F6E616C697479206E6F45
:100530007420656E61626C6564002A20436F6E747E
:10054000726F6C5F4944203078463020737570704C
:100550006F727465642C206E6F20617578696C69A8
:1005600061727920636F6E74726F6C6C6572206655
:100570006F756E6420666F7220307846302C207361
:100580007769746368696E6720636F6E74726F6CED
:100590002066756E6374696F6E616C697479206F23
:1005A0006E2030784630206F6E002A20434F4E5424
:1005B000524F4C5F494420697320616C72656164DD
:1005C00079203078002A204572726F7273706572DC
:1005D0006D697474656420286572726F722062752B
:1005E000646765742920746F6F206C6F773B20639C
:1005F0006F6E74726F6C2066756E6374696F6E6176
:100600006C6974792063616E6E6F7420656E6162CF
:100610006C6564002A205363686564756C696E6755
:1006200020617474656D707420746F2072657374CA
:10063000617274204461696B696E002A207265736F
:10064000746172744461696B696E20776169746961
:100650006E6720746F2072656365697665207361CB
:100660006D706C65207061796C6F6164002A207216
:100670006573746172744461696B696E20616C7238
:1006800065616479207363686564756C6564002ACC
:1006900020696E736572744D65737361676520615F
:1006A0006C7265616479207363686564756C6564F8
:1006B000002A20526573657474696E672041546D19
:1006C000656761202E2E2E2E002A205265667573D6
:1006D000696E6720746F207772697465207061633A
:1006E0006B6574207768696C652070726576696FD8
:1006F0007573207061636B6574207761736E277406
:100700002066696E6973686564002A2052656675A3
:1007100073696E6720746F20777269746520656DE8
:10072000707479207061636B6574002A2057726958
:1007300074696E673A20002D2076616C69642064CC
:10074000617461206D697373696E672C20777269BB
:10075000746520736B6970706564002A2057726934
:1007600074696E67206E6578742034304678333053
:1007700020736C6F743A20002A20696E736572745E
:100780004D65737361676520286F7220726573749D
:100790006172744461696B696E2920616C72656174
:1007A0006479207363686564756C6564007365744F
:1007B00020746F20002A204563686F2000736574E1
:1007C00020746F20002A20536F6674776172652D44
:1007D00073636F7065200073657420746F20002A46
:1007E0002044656C617954696D656F757420007380
:1007F000657420746F20005B757365206F662064DC
:10080000656C61792030206F722031206E6F74200A
:100810007265636F6D6D656E6465642C20696E63CF
:1008200072656173696E6720746F20325D20002AE3
:100830002044656C6179200073657420746F20001A
:100840002A20566572626F736520003078007365E8
:100850007420746F20002A204372635F66656564AC
:10086000200030780073657420746F20002A2043C4
:1008700072635F67656E2000206E723A2000207000
:10088000743A203078002A2049676E6F72696E676B
:1008900020696E737472756374696F6E2C2065784D
:1008A000706563746564203320617267756D656E71
:1008B00074732C2072656365697665643A20002A3A
:1008C0002043757272656E746C79206E6F2077723A
:1008D00069746520627564676574206C6566740070
:1008E00020746F2076616C7565203078002070610F
:1008F000796C6F6164206279746520002A20496EEA
:100900006974696174696E672077726974652066BD
:100910006F72207061636B65742D7479706520301F
:10092000780077725F76616C20666F7220706179F3
:100930006C6F6164206279746520313720286661AC
:100940006E2D6D6F646529206D757374206265204E
:10095000696E2072616E676520307830302D307896
:1009600030330077725F76616C20666F7220706141
:10097000796C6F6164206279746520342F38202887
:1009800066616E2D737065656420636F6F6C696E50
:10099000672F68656174696E6729206D75737420AF
:1009A000626520696E2072616E6765203078313132
:1009B0002D307835310077725F76616C20666F720A
:1009C000207061796C6F6164206279746520322FC8
:1009D0003620287461726765742D74656D702063AC
:1009E0006F6F6C696E672F68656174696E67292027
:1009F0006D75737420626520696E2072616E676523
:100A000020307831302D307832300077725F766167
:100A10006C20666F72207061796C6F6164206279FE
:100A20007465203120286F7065726174696E672D5E
:100A30006D6F646529206D75737420626520696E21
:100A40002072616E676520307836302D3078363709
:100A50000077725F76616C20666F72207061796CCE
:100A60006F6164206279746520302028737461742A
:100A7000757329206D7573742062652030206F7244
:100A80002031002A2077725F76616C203E2030781A
:100A900046463A20002A2077725F6E7220696E7691
:100AA000616C69642C2073686F756C6420626520CA
:100AB000302C20312C20322C20342C20362C203885
:100AC00020286F7220666F72207061636B657420DE
:100AD0007479706520307833423A203136206F7255
:100AE000203137293A2000206973206E6F7420303E
:100AF000783338206F722030783342002A207772A2
:100B00005F70743A203078002A2050726576696FE1
:100B1000757320706172616D65746572207772699A
:100B2000746520616374696F6E207374696C6C20E6
:100B300062757379002A20436F6D6D616E64207257
:100B400065717569726573206F7065726174696F24
:100B50006E20617320617578696C696172792063B8
:100B60006F6E74726F6C6C657220284C3129002A8C
:100B70002052656365697665643A20002A20456DD8
:100B8000707479206C696E6520726563656976653D
:100B900064002A2052656365697665643A20220004
:100BA0002A204C696E6520746F6F206C6F6E672C05
:100BB000206C61737420706172743A20002A2046A0
:100BC00069727374206C696E652069676E6F7265F7
:100BD000643A202D3E003C2D002A204C696E652091
:100BE000746F6F206C6F6E672C207465726D696E08
:100BF000617465642C2069676E6F7265643A202D9C
:100C00003E003C2D002A204C696E6520746F6F20D9
:100C10006C6F6E672C2069676E6F7265642C20693B
:100C2000676E6F72696E672072656D61696E64656B
:100C3000723A202D3E00502020202020202020200D
:100C4000005220002A205265616479207365747512
:100C500070002A2053455249414C53504545443D6C
:100C6000002A204350555F53504545443D002A20FB
:100C7000566572626F736974793D002A204630337D
:100C80005844454C41593D002A20463033304445B4
:100C90004C41593D002A20436F756E746572726530
:100CA00070656174696E67726571756573743D0016
:100CB0002A20434F4E54524F4C5F49445F444546AF
:100CC00041554C543D3078002A20436F6E74726F4A
:100CD0006C5F49443D3078002A20503150322D4518
:100CE00053502D696E746572666163652041546D61
:100CF000656761487749442076312E002028706F5F
:100D00007765722D6F6E2D726573657429002028CA
:100D10006578742D72657365742900202862726F7E
:100D2000776E2D6F75742D646574656374656429C1
:100D3000002A2052657365742063617573653A20DB
:100D40004D435553523D002046584D5154002046C6
:100D50002D73657269657300204E455750315032CE
:100D60004C494200202B636F6E74726F6C003135FA
:100D70003A31313A35350020004A756C2033312044
:100D800032303233002A20436F6D70696C65642005
:100D9000002A20503150324D6F6E69746F722D767B
:100DA000302E392E3431002A20454550524F4D20E7
:100DB000736967206D69736D617463682C20696E57
:100DC000697469616C697A696E6720454550524F54
:100DD0004D002A20454550524F4D20736967206DC4
:100DE00061746368002A20636865636B696E6720BD
:100DF000454550524F4D000000000900030200001D
:100E000004050800000000000000000000000102CE
:100E10000408102040800102040810200102040888
:100E2000102040804004040404040404040202026C
:100E30000202020303030303030202030000000093
:100E400023002600290000000000250028002B00B8
:100E500000000000240027002A0001292F0A112485
:100E60001FBECFEFD8E0DEBFCDBF11E0A0E0B1E004
:100E7000E6E2FEE502C005900D92A236B107D9F771
:100E800024E0A2E6B1E001C01D92A734B207E1F769
:100E900017E0CEE2D7E004C02197FE010E94912B1B
:100EA000CD32D107C9F70E94DA2A0C94062F0C9490
:100EB00000001F93CF93DF93EC01162F0E94B92EF1
:100EC000181739F0612FCE01DF91CF911F910C944B
:100ED000C12EDF91CF911F9108950C94B92ECF921E
:100EE000DF92EF92FF920F931F93CF93DF93809146
:100EF0001201882331F065EE7DE081EA93E00E94E3
:100F0000A1298CE1E82E81E0F82E670100E110E0D4
:100F1000C1E0C8010E946D07F60121916F01022E08
:100F2000000C330B91E08217130609F090E0C923FF
:100F30000F5F1F4F0931110561F78091120188235E
:100F4000E9F162ED7DE081EA93E00E946A296C2F6D
:100F500070E04AE050E081EA93E00E94652AC11106
:100F60002FC080911201882331F067EA7DE081EA89
:100F700093E00E94A129C0E1D0E0F70161917F01D7
:100F8000CE010E9459072196C931D105B1F760E021
:100F900090E080E00E94590760E081E090E00E94CC
:100FA000590763E082E090E0DF91CF911F910F91AC
:100FB000FF90EF90DF90CF900C945907CC23D9F29B
:100FC000DF91CF911F910F91FF90EF90DF90CF9025
:100FD000089561E97DE081EA93E00E94A12965E836
:100FE0007DE081EA93E00E946A2969E77DE081EA79
:100FF00093E00E946A2967E77DE081EA93E00E941E
:101000006A296EE67DE081EA93E00E946A2964E63F
:101010007DE081EA93E00E946A2968E57DE081EA4B
:1010200093E00E946A296EE47DE081EA93E00E94E9
:101030006A2967E47DE081EA93E00E946A2981EAF7
:1010400093E00E949D2961E37DE081EA93E00E94A4
:101050006A294AE050E06091490281EA93E00E94E7
:10106000962A8091490282FF06C06BE17DE081EA09
:1010700093E00E946A298091490281FF06C06EE0D8
:101080007DE081EA93E00E946A298091490280FF15
:1010900006C06CEF7CE081EA93E00E946A2981EA55
:1010A00093E00E949D2968ED7CE081EA93E00E9434
:1010B0006A294AE050E06091710181EA93E00E9460
:1010C0009D2A68EC7CE081EA93E00E946A2940E175
:1010D00050E060914C0281EA93E00E949D2A60EB0F
:1010E0007CE081EA93E00E946A2940E150E070E0F0
:1010F00060E081EA93E00E94652A65E97CE081EA8C
:1011000093E00E946A294AE050E060914A0281EA35
:1011100093E00E949D2A68E87CE081EA93E00E94C7
:101120006A294AE050E064E670E081EA93E00E94B8
:10113000652A6BE77CE081EA93E00E946A294AE035
:1011400050E06EE170E081EA93E00E94652A6EE66D
:101150007CE081EA93E00E946A294AE050E06091D5
:10116000120181EA93E00E949D2A61E67CE081EA17
:1011700093E00E946A292AE030E040E052E16AE709
:1011800070E081EA93E00E94772A62E57CE081EAE0
:1011900093E00E946A292AE030E040E950ED63E0E4
:1011A00070E081EA93E00C94772AEF92FF920F931C
:1011B0001F9384B78093490214BE62E084E00E94CA
:1011C000B42661E083E00E94B42660E083E00E94E0
:1011D000F02684E00E941E277C0161E083E00E94EB
:1011E000F02684E00E941E278C0160E084E00E94CB
:1011F000B42660E083E00E94B426EF2831F48FEF3C
:10120000012B09F082E080937101809171018111BD
:1012100049C083E080937E0010927B0088B1836098
:1012200088B981EC80937C0086ED80937A00809170
:101230007A0086FDFCCF209178008091790090E0C3
:10124000982F8827820F911D9093700180936F01D2
:1012500088B18C7F88B987EC80937C0086ED809381
:101260007A0080917A0086FDFCCF209178008091F1
:10127000790090E0982F8827820F911D909370013C
:1012800080936F0188B188B910927E0080916F01C0
:101290009091700181529340873C910518F481E050
:1012A0008093710126E040E950ED63E070E081EA4F
:1012B00093E00E9421280E94E9070E946F0790E0B6
:1012C00080E00E946D0780934C0281E090E00E94D4
:1012D0006D0780934A0282E090E00E946D07809340
:1012E000120180917101EE24E394823029F0E12C07
:1012F00007E026E0813011F001E020E041E08111BB
:1013000001C040E060E875E280E090E00E94921D3C
:1013100080910C010E94BB2280914D020E94B82254
:1013200080910D0190910E010E94761F60E08EE485
:1013300092E00E948C1D64E47CE081EA93E01F91BE
:101340000F91FF90EF900C94A1297F936F9326E269
:1013500031E03F932F939F938F930E94A52B0F9083
:101360000F900F900F900F900F9008957F936F93B1
:1013700029E231E03F932F939F938F930E94A52BF7
:101380000F900F900F900F900F900F900895EF9285
:10139000FF920F931F93CF93DF93F82ED92FE62E52
:1013A00080911201882331F061E47CE081EA93E0CE
:1013B0000E946A298091120180FF06C066E37CE0EA
:1013C00081EA93E00E946A29C0916E010F2D1D2FC2
:1013D000E00EF12EF11CE016F10629F1F801D19191
:1013E0008F01D03128F460E381EA93E00E949629CE
:1013F00040E150E06D2F81EA93E00E94962A3091FF
:101400000201332341F328E08C2F90E095958795D6
:10141000CD27C0FF06C0C32FC827D6952150A1F7FE
:10142000DACFC82FFACF80910201882371F0C03142
:1014300028F460E381EA93E00E94962940E150E0BD
:101440006C2F81EA93E00E94962A81EA93E0DF9173
:10145000CF911F910F91FF90EF900C949D290C94C8
:10146000A8252F923F924F925F926F927F928F9218
:101470009F92AF92BF92CF92DF92EF92FF920F9323
:101480001F93CF93DF93CDB7DEB76D970FB6F89468
:10149000DEBF0FBECDBF90917101923049F48091B3
:1014A0006801813009F464C060F1823009F46AC0D7
:1014B0008091680181110C940D1B81EA93E00E94D8
:1014C00061278C0197FF02C00C940D1B8091720163
:1014D000E0910301F09104010A30110511F40C941C
:1014E000C11A833610F00C94C51A9F012F5F3F4F2D
:1014F000309304012093030100838F5F8093720176
:10150000D7CF1C992AC081E08093680161E08EE406
:1015100092E00E94861D60E08EE492E00E948C1DA5
:1015200081EA93E00E947D286D960FB6F894DEBFA5
:101530000FBECDBFDF91CF911F910F91FF90EF9024
:10154000DF90CF90BF90AF909F908F907F906F90E3
:101550005F904F903F902F9008951D99A9CF909341
:10156000680160E08EE492E00E94861D61E0D4CFC5
:101570001D99DACF9093680161E08EE492E00E94B9
:101580008C1DD2CF1D9BD0CF109268012EEC31E084
:1015900030930401209303011092720110926401B0
:1015A0008093000126E040E950ED63E070E081EABD
:1015B00093E00E94212860E08EE492E00E948C1D5E
:1015C00061E08EE492E00E94861D0E94E907ACCFA4
:1015D00081112AC080916801811106C069ED7BE00C
:1015E00081EA93E00E946A2980916801811106C016
:1015F0006EEC71E081EA93E00E948E29809168018F
:10160000811105C06F2D81EA93E00E949629809197
:101610006801811106C066ED7BE081EA93E00E94DB
:10162000A12981E080936401109200010C94051BB4
:101630001082882381F0A82FB0E0A353BE4F9C9165
:101640009D3049F48150809372013197F0930401E9
:10165000E09303011082809100018230A1F5809116
:101660006801811106C06DEB7BE081EA93E00E9486
:101670006A2980916801909172019A3098F46EEC19
:1016800071E08111D1CF81EA93E00E948E2980918F
:1016900068018111C9CF61E371E081EA93E00E94A2
:1016A000B329C2CF1092D701811106C06EEC71E050
:1016B00081EA93E00E948E29809168018111B4CF64
:1016C0006DE271E0E0CF8130C9F480916401811155
:1016D000ABCF80916801811106C060EA7BE081EAAE
:1016E00093E00E946A298091680181119ACF6EEC83
:1016F00071E081EA93E00E94B32993CF80911201B7
:10170000813011F08430F1F480916801811106C0BC
:1017100062E97BE081EA93E00E946A298091680196
:10172000811106C06EEC71E081EA93E00E948E297F
:1017300080916801811106C064E371E081EA93E061
:101740000E94B32983ED91E09093040180930301FB
:1017500044E050E066E371E08EEC91E00E94972B4C
:101760006C01892B11F00C94051B8091D2018735F7
:1017700009F462C40CF0FFC08B3409F41CC10CF0F6
:1017800072C0863409F405C1E4F4882309F4C0C1A9
:101790008A3209F4D2C180916801811106C069E2E0
:1017A00074E081EA93E00E946A29809168018111C6
:1017B0000C94051B60910301709104016150710943
:1017C000D7C1873409F4A0C3883429F78091120166
:1017D000882351F080916801811106C066E578E0A8
:1017E00081EA93E00E946A29BE016B5E7F4F80917F
:1017F0000301909104010E94B609019799F48D8923
:1018000080936E0180911201882311F40C94051BC2
:1018100080916801811106C06EE478E081EA93E06E
:101820000E946A2980916801811106C06BE478E00A
:1018300081EA93E00E946A298091680190916E018B
:10184000903138F4811105C060E381EA93E00E9491
:1018500096298091680140E150E060916E0181110C
:101860000C94051B9DC3843509F4C1C00CF03FC026
:101870008C3409F412C58F3409F08DCF8091120198
:10188000882351F080916801811106C06FED77E0E7
:1018900081EA93E00E946A296DE071E08091030182
:1018A000909104010E94A5090197B9F480910D015E
:1018B00090910E010E94761F80911201882311F4ED
:1018C0000C94051B8091680181110C94051B67ED38
:1018D00077E081EA93E00E946A2980916801811192
:1018E0000C94051B60910D0170910E01C4C18535EA
:1018F00009F45CC3863509F04ECF809168018111EF
:1019000006C060E478E081EA93E00E946A29BE01A3
:10191000695E7F4F80910301909104010E94A509A7
:101920000197C9F48F89988D059720F084E090E0A5
:10193000988F8F8B80916801811106C068E378E0F1
:1019400081EA93E00E946A296F896093120182E024
:1019500090E00E94590780916801811108C04AE017
:1019600050E06091120181EA93E00E949D2A0E945A
:10197000E9070C94051B8C3609F48FC46CF5873687
:1019800009F4C2C294F4883509F482C0863609F09D
:1019900002CF80914C028111F1C08091680165E312
:1019A0007BE081110C94051BC2C0883609F40ECF70
:1019B0008B3609F0F0CE80916801811106C061EB91
:1019C00076E081EA93E00E94A129E0916C01F09118
:1019D0006D0109950C94051B853709F4E7C20CF0DD
:1019E0004FC08F3609F44ACF843709F0D4CE8091A6
:1019F0001201882351F080916801811106C06FE2C5
:101A000078E081EA93E00E946A296FE071E08091BA
:101A10000301909104010E94A509019739F5809175
:101A20000F0190911001029780F482E090E0909372
:101A3000100180930F0180916801811106C067EF4A
:101A400077E081EA93E00E946A298091120188235D
:101A500011F40C94051B8091680181110C94051BF5
:101A60006FEE77E081EA93E00E946A298091680135
:101A700060910F017091100181110C94051BFBC046
:101A8000873709F4D9C20CF438CF883709F083CEF0
:101A900080911201882351F080916801811106C064
:101AA00065EB77E081EA93E00E946A29BE01695EF6
:101AB0007F4F80910301909104010E94A50981301C
:101AC0009105E1F42F89388D232B11F0988F8F8B9E
:101AD0008F8980930C010E94BB2280911201882380
:101AE00011F40C94051B8091680181110C94051B65
:101AF0006DEA77E081EA93E00E946A2980916801AB
:101B000081110C94051B4AE050E060910C0148C221
:101B100080911201813021F0843011F00C94051B6A
:101B2000809168016CE77BE081110C94051B81EAD0
:101B300093E00E94A1290C94051B80911201813031
:101B400021F0843011F00C94051B80916801811103
:101B500006C06FE67BE081EA93E00E946A298091EB
:101B60006801609103017091040181110C94051BBF
:101B700081EA93E00E94B3290C94051B80914802EE
:101B8000882341F08091680168E07BE081110C942A
:101B9000051BCDCF80E492E09F938F9384E492E085
:101BA0009F938F9386E492E09F938F938BE391E0D2
:101BB0009F938F9383ED91E09F938F930E94A52B2A
:101BC0009C019C8B8B8B0FB6F894DEBF0FBECDBFF4
:101BD000909168012330310509F047C18091460298
:101BE0008833F1F08B33E1F0911106C06CEF7AE0AD
:101BF00081EA93E00E946A2980916801811108C0FE
:101C000040E150E06091460281EA93E00E94962A0A
:101C10008091680167EE7AE081110C94051B87CFF3
:101C200020914402309145022231310598F4F901A6
:101C3000EB7FE330F10571F02530310559F0A90152
:101C4000495051094730510528F020313105D9F468
:101C50008833E1F4911106C065E97AE081EA93E006
:101C60000E946A2980916801609144027091450246
:101C700081110C94051B4AE050E081EA93E00E9438
:101C8000B52A0C94051B2131310511F34091400216
:101C90005091410260914202709143024F3F5105C1
:101CA00061057105F1F0E8F0911106C063E87AE092
:101CB00081EA93E00E946A298091680181110C9465
:101CC000051B409140025091410260914202709187
:101CD00043022AE030E081EA93E00E94C72A0C9494
:101CE000051B2115310561F442305105610571056F
:101CF00008F455C061E57AE091110C94051B17CFEB
:101D00002130310581F4405651096109710948308B
:101D100051056105710508F442C06BE07AE091114C
:101D20000C94051B04CF329799F44A015B01EAE059
:101D30008E1A9108A108B108F5E18F169104A1044B
:101D4000B10430F066EB79E091110C94051BEFCEF5
:101D50002430310519F02830310599F44A015B012E
:101D600081E1881A9108A108B108E1E48E16910476
:101D7000A104B10430F091110C94051B63E679E0E5
:101D8000D6CE2131310559F4443051056105710534
:101D900030F062E279E091110C94051BC8CE80917D
:101DA0000A01882309F45BC08F3F19F081508093AA
:101DB0000A0181E080934802911106C06CEF78E03F
:101DC00081EA93E00E946A2980916801811108C02C
:101DD00040E150E06091460281EA93E00E94962A39
:101DE00080916801811106C06DEE78E081EA93E090
:101DF0000E946A298091680181110AC060914402A1
:101E0000709145024AE050E081EA93E00E94AF2AD7
:101E100080916801811106C060EE78E081EA93E06C
:101E20000E946A298091680181110EC04091400290
:101E300050914102609142027091430220E130E0F2
:101E400081EA93E00E94892A8091680181110C94B3
:101E5000051B81EA93E00E949D290C94051B6FEB02
:101E600078E091110C94051B62CE911106C066E8D2
:101E700078E081EA93E00E946A296B897C898091ED
:101E80006801811106C04AE050E081EA93E00E94B7
:101E90005E2A809168012B893C8912161306A4F4EE
:101EA000811106C06EE778E081EA93E00E946A291A
:101EB00080916801811108C040E150E060914602C4
:101EC00081EA93E00E94962A809168012B893C89DF
:101ED000223031050CF4B8CF811106C068E778E0F4
:101EE00081EA93E00E946A298091680181110C9433
:101EF000051B60914402709145024AE050E081EA7E
:101F000093E00E94AF2AA0CF80911201882351F064
:101F100080916801811106C06DE678E081EA93E066
:101F20000E946A29BE016B5E7F4F809103019091F0
:101F300004010E94B609019799F48D8980930201EA
:101F400080911201882311F40C94051B8091680183
:101F5000811106C065E678E081EA93E00E946A2973
:101F600080916801811106C062E678E081EA93E021
:101F70000E946A298091680190910201903138F4A1
:101F8000811105C060E381EA93E00E949629809167
:101F9000680140E150E06091020181110C94051B41
:101FA00081EA93E00E949D2A0C94051B8091120106
:101FB000882351F080916801811106C065EC77E0BB
:101FC00081EA93E00E946A29BE01695E7F4F809199
:101FD0000301909104010E94A5090197E1F48F8902
:101FE00080934D02823018F081E080934D02809101
:101FF0004D020E94B82280911201882311F40C94A2
:10200000051B80916801811112C06DEB77E081EAB8
:1020100093E00E946A2980916801811108C04AE01A
:1020200050E060914D0281EA93E00E949D2A88EC85
:10203000809301010C94051B80914C02882309F4C4
:1020400083C080915002811104C080915202882384
:1020500041F08091680168E777E081110C94051BDD
:1020600066CD80911201882351F080916801811121
:1020700006C06BE577E081EA93E00E946A2910923E
:102080004F02109251028E010D5E1F4F6E01F1E161
:10209000CF0ED11C65E4A62E61E0B62EFF24F3948A
:1020A0001F930F93DF92CF92BF92AF928091040162
:1020B0008F93809103018F930E94A52B0FB6F89404
:1020C000DEBF0FBECDBF019761F080916801909196
:1020D00050029111BBCE67E377E081110C94051B90
:1020E00026CD29893A8980914F028F5F80934F02D4
:1020F000F092500280910301909104014B895C8918
:10210000840F951F90930401809303018091120125
:10211000882331F2809168012031310544F4811126
:1021200006C06BE471E081EA93E00E948E29809101
:1021300068018111B5CF69897A8940E150E081EA6F
:1021400093E00E945E2AACCF80911201882351F067
:1021500080916801811106C06BE277E081EA93E02B
:102160000E946A2905EB11E05E0183E1A80EB11C13
:102170004E0191E1890E911C55E4652E51E0752EBA
:10218000BF92AF929F928F927F926F928091040143
:102190008F93809103018F930E94A52B0FB6F89423
:1021A000DEBF0FBECDBF0197B1F529893A89FFEF98
:1021B000CF1ADF0AF80121938F01809103019091DA
:1021C00004014B895C89840F951F909304018093CF
:1021D0000301809112018823C9F0809168012031A8
:1021E000310544F4811106C06BE471E081EA93E0AB
:1021F0000E948E2980916801811108C069897A89BD
:1022000040E150E081EA93E00E945E2A39E1C31682
:10221000D10409F0B5CF80911201811118C00E943C
:102220007B1F882329F1C114D104D1F020910F0123
:1022300030911001E0906E01009102014C2D65EB90
:1022400071E08EE492E00E9443260C94051B80917D
:1022500068018111E4CF81EA93E00E949D29DFCFDC
:10226000809168016AE077E081110C94051B5FCCD6
:1022700080916801811106C069EC76E081EA93E003
:102280000E94A129809153028F3F11F40C94051BE9
:102290008F5F809353020C94051BBE01695E7F4FD4
:1022A00083ED91E00E94A509019709F0D8C08F89BC
:1022B000988D8336910549F580916801909150027F
:1022C000992331F06FE876E081110C94051B2FCC37
:1022D00090915202992331F06DE676E081110C94D1
:1022E000051B25CC90915102911106C06BE376E05D
:1022F00081110C94051B1BCC91E09093520264E178
:1023000076E081110C94051B12CC8630910510F4F7
:10231000049711F4188E1F8A8F89988D80FF86C0CC
:102320008091680190910901953030F465EC75E079
:1023300081110C94051BFBCB90914C02992311F158
:10234000811106C06AEA75E081EA93E00E946A2979
:1023500080916801811108C040E150E060914C0219
:1023600081EA93E00E949D2A8F89988D029710F050
:102370000C94051B60914C0290E080E00E9459078C
:102380000C94051B909105019530E9F5811106C06B
:102390006AE375E081EA93E00E94A12980EF8093CF
:1023A0004C028F89988D21E08530910509F420E059
:1023B0002093110160EF029708F44CC08091120144
:1023C000882311F40C94051B8091680167E574E083
:1023D000882309F44FC08091680190914C0290319C
:1023E00040F4811106C06BE471E081EA93E00E9441
:1023F0008E298091680140E150E060914C0281118A
:102400000C94051BCDCD811106C06AEE74E081EA03
:1024100093E00E94A129809168018111CFCF6BE8E0
:1024200074E081EA93E00E94A129C8CF20914C0278
:10243000211108C0809168016EE674E081110C944E
:10244000051B75CB10924C0210924802029708F0BF
:10245000B5CF60E090E080E00E945907AFCF809157
:10246000680190911201992309F4B5CF8111B3CF7E
:1024700064E474E081EA93E00E946A29ACCF809121
:102480004D028823A1F080910101FF2019F08630D0
:1024900008F07CC090919401903409F074C0909140
:1024A0009501903F09F06FC0833308F06FC08091B1
:1024B00001018F5F893C08F054C2809301011092A2
:1024C000A4028F2D8F7309F44EC24114510461048C
:1024D000710409F46BC3809156028F3F29F08F5F1E
:1024E00080935602F092550280910901882309F4E5
:1024F0005DC3815080930901811158C380916801A7
:10250000811106C061E673E081EA93E00E94A1298F
:1025100080914A02882351F080916801811106C0A0
:1025200068E373E081EA93E00E94A12980914C0264
:10253000882351F080916801811106C062E173E047
:1025400081EA93E00E94A12910924C0210924A0263
:1025500010924B0280916801811106C065E972E01A
:1025600081EA93E00E94A12960914C0290E080E012
:102570000E94590760914A0281E090E00E94590749
:102580001092480213C3873908F491CF90915F02EB
:10259000911105C09091A102903F09F488CF855018
:1025A0008093010180916801FF2009F47BC060E005
:1025B00074E0882309F47AC080919401803148F452
:1025C00080916801811105C060E381EA93E00E9477
:1025D000962980916801811108C040E150E0609126
:1025E000940181EA93E00E94962A809195018031BE
:1025F00048F480916801811105C060E381EA93E0AD
:102600000E94962980916801811108C040E150E044
:102610006091950181EA93E00E94962A809196014B
:10262000803148F480916801811105C060E381EA3E
:1026300093E00E94962980916801811108C040E1D1
:1026400050E06091960181EA93E00E94962A809181
:102650006801811105C060E281EA93E00E94962939
:102660008091A102B12CA12C803F19F0A0905F02B3
:10267000B12C912ED501A457BD4FEC9180916801EA
:10268000E75FE93008F05EC0F0E0E75BFC4E0C94D9
:10269000912B9D13761398138E1384135B1393134E
:1026A00089137F13811188CF6DEF73E081EA93E086
:1026B0000E946A2981CF64EF73E08823D9F09FEFED
:1026C000A91AB90AE6E1AE16B10411F4B12CA12C95
:1026D00080915F028A151B0469F68091680181115F
:1026E000E6CE81EA93E00E949D29E1CE6BEE73E095
:1026F0008111E5CF81EA93E00E946A29E0CF62EE82
:1027000073E08111DCCFF6CF69ED73E08111D7CF93
:10271000F1CF60ED73E08111D2CFECCF67EC73E0C5
:102720008111CDCFE7CF6EEB73E08111C8CFE2CF3F
:1027300065EB73E08111C3CFDDCF8111C0CF6CEAAF
:1027400073E0D8CF0C91007E6C916F71698FF501A9
:10275000EE0FFF1FFB8FEA8F91104CC0003439F44D
:10276000811105C060E281EA93E00E949629EA8D1A
:10277000FB8DE05AFD4F80809180809162019091A5
:102780006301881A990A93E0969487949A95E1F7E1
:10279000FAE08F16910498F480916801811105C0C8
:1027A00060E281EA93E00E9496298091680181119C
:1027B00021C060E281EA93E00E94962904C024E6E9
:1027C0008216910490F380916801811113C04AE050
:1027D00050E0B40181EA93E00E94AF2A8091680141
:1027E000003409F4D9C7811105C06AE381EA93E096
:1027F0000E949629EA8DFB8DE05AFD4F80819181E0
:10280000909363018093620180916801003691F199
:1028100048F4002309F1003409F4C8C760E28111CB
:1028200061C06DC0003A21F0003C11F00038B1F7F2
:10283000F98DFA3008F04DC0F23008F475C08111FE
:1028400051C0898D8250990BBC014AE050E081EA69
:1028500093E00E945E2A57C0811105C06FE381EAB0
:1028600093E00E949629809168016AE973E08111E2
:102870006FC072C0398D333140F43330D8F4313009
:1028800078F4811110C060E206C0998D9531C8F7C7
:1028900060E5811108C081EA93E00E94962903C097
:1028A00063E58823C1F38091680164E973E08111D5
:1028B0004FC052C08111F7CFE98DE350FF0BBF012C
:1028C000759567954AE050E081EA93E00E945E2AA0
:1028D000EACF298D2A3081F02B3009F09FCF65E4B3
:1028E000882369F00036F9F208F072C7002309F472
:1028F000BACF003469F561C760E58111F3CF81EA91
:1029000093E00E949629003671F2809168010136A9
:1029100078F4002309F4A7CF003409F44EC78111DD
:1029200017C06AE873E018C08111DCCF63E5E7CF18
:10293000003A51F0003C09F440C7003881F76EE9D5
:1029400073E0882349F004C080916801882311F066
:10295000912CB5CE68EA73E081EA93E00E946A297F
:10296000F7CF88ECAACD80919401F1101FC1FAE055
:10297000CF16D1040CF066C0811134C0809195014E
:1029800090E1980F923010F08F3F49F490919601AA
:10299000903329F4909167019F5F90936701807F46
:1029A000803F01F180916701909166019817C0F412
:1029B0008093660180916801811106C065E872E02C
:1029C00081EA93E00E946A2980916801811108C020
:1029D0004AE050E06091660181EA93E00E949D2AFE
:1029E0001092670180914B02882309F4DAC025E038
:1029F000C216D1040CF4DAC090919401911120C058
:102A0000E0919501EF3F21F09E2F9E7F903FC1F412
:102A1000909196019033A1F4E370F0E0EB5FFE4FEC
:102A20009081953069F42091670190916601291396
:102A300007C090916501992339F1915090936501F8
:102A400010E052C08111CECF80919501811196CFB7
:102A500080919601823109F091CF80919A01809303
:102A60003F0290910B01891709F488CF90914A0297
:102A7000992339F090914B02911103C091E090930A
:102A80004B0280930B017ACF1092B5011092B601E0
:102A900098EB9093B70181508093B8010E947B1FFF
:102AA000882309F46BC0E0906E01009102012EE1D1
:102AB00030E044E065EB71E08EE492E00E94432652
:102AC00080914B028F5F80934B02873011F41092FC
:102AD0004B0280914C02882339F08091660181304D
:102AE00019F483E08093650180919401803409F0AA
:102AF0007FC080919501982F9E7F903F19F08F3F66
:102B000009F054C0909196019073903309F04EC033
:102B100029813A812C31310508F048C0E82FE37053
:102B2000F0E0EB5FFE4F108290914C0289133EC0A3
:102B300080916801811106C061EF71E081EA93E044
:102B40000E946A2980916801811108C040E150E02B
:102B50006091950181EA93E00E94962A8091680134
:102B6000811106C067EE71E081EA93E00E94A1291D
:102B700010924C0260E090E080E000CD809168010E
:102B8000811106C064E372E081EA93E00E94A1290A
:102B9000809153028F3F09F493CF8F5F809353024C
:102BA0008FCF35E0C316D1040CF04ACF8091940149
:102BB000909150029111C6C1811106C68091950174
:102BC000811109C080919601823129F4C0924F028F
:102BD00081E080935102809195018111C1C1809162
:102BE00096018F3109F0BCC185E080936A01B8C1BC
:102BF0008111DCCFE09195018E2F8E7F803FB1F661
:102C000080919601982F9073903381F61111CECF59
:102C10008033A9F5E370F0E0EB5FFE4F80818530F3
:102C200074F58F5F8083853051F580916801811143
:102C300006C065EB71E081EA93E00E946A29809109
:102C40006801811108C040E150E06091950181EA7E
:102C500093E00E94962A80916801209195019091BD
:102C60004C02291372C0811106C067E871E081EA45
:102C700093E00E94A129109250021092520290916A
:102C80004C02992341F0E92FE370F0E0EB5FFE4F37
:102C900080818530B1F02091500280919401211102
:102CA00005C020915202222309F486CFE92FE37058
:102CB000F0E0EB5FFE4F2081253009F077CF8111E6
:102CC00075CF80919501981371CF80E48093B50101
:102CD0009093B601809196018093B7018091020193
:102CE0005601882319F081E0A81AB1089AE1A916C3
:102CF000B104ACF080916801811106C062E171E01D
:102D000081EA93E00E946A2980916801811107C0DD
:102D10004AE050E0B60181EA93E00E94652AE09122
:102D20009601E053EB3008F041CFF0E0E656F94E63
:102D30000C94912B8817D615AE16D615D615E1161C
:102D4000E116D615EE1656176D17811198CF6EE362
:102D500071E081EA93E00E94A12991CF11E0809176
:102D60001101811101C010E081E08093B801B4E647
:102D70008B2E912C04E0A02EB12C112309F416CF38
:102D80000E947B1F882309F4CAC0E0906E01009165
:102D9000020194014A2D65EB71E08EE492E00E94FD
:102DA0004326809147022091310230913202820FF6
:102DB000932F911D9093320280933102109247021B
:102DC000F5CE11E080911101811101C010E0FEE10A
:102DD0008F2E912CA3E0AA2EB12CCFCF11E08091A1
:102DE0001101811101C010E04091970141704093A1
:102DF000B801809199018093B90180919B018093E2
:102E0000BA011092BB0180919D018093BC01109288
:102E1000BD0180919F018093BE011092BF018091FE
:102E2000A1018093C0018091A2018093C101109201
:102E3000C2011092C3011092C4019091A601909317
:102E4000C5011092C6011092C7011092C80180916D
:102E50004802882321F120914602283301F5209170
:102E60004402309145028090400290904102A0902F
:102E70004202B09043022115310551F4411108C0BE
:102E800081149104A104B10419F090629093C501DA
:102E90002B543E4FF90183828150809348023EE1DA
:102EA000832E912C44E1A42EB12C67CF11E08091A8
:102EB0001101811101C010E01092B8011092B90106
:102EC0001092BA011092BB011092BC017EE1872ED4
:102ED000912CE8E0AE2EB12C50CF11E08091110181
:102EE000811101C010E01092B8011092B901109246
:102EF000BA011092BB011092BC011092BD01109258
:102F0000BE015EE1852E912C6BE0A62EB12C35CF53
:102F100094E6892E912C23E0A22EB12C31CF809102
:102F20006801811106C06AEB70E081EA93E00E94BB
:102F3000A129809153028F3F09F440CF8F5F809386
:102F400053023CCF803409F036C180919501811144
:102F500007C080919601803119F485E080936B0160
:102F6000FF2009F43BC18091680167EB70E0882382
:102F700009F440C18091120180FD03C0FF2009F4D3
:102F800063C080916801811106C061EB70E081EA45
:102F900093E00E946A2989819A818031974248F49E
:102FA00080916801811105C060E281EA93E00E948E
:102FB000962989819A8120916801883E33E09307A0
:102FC00008F01DC1211105C060E381EA93E00E9471
:102FD000962980916801811106C06FEA70E081EA4C
:102FE00093E00E946A2989819A818436910548F488
:102FF00080916801811105C060E381EA93E00E943D
:10300000962989819A810A9748F4809168018111F3
:1030100005C060E381EA93E00E94962980916801EF
:10302000811108C069817A814AE050E081EA93E029
:103030000E94AF2A80916801811106C06CEA70E09D
:1030400081EA93E00E946A2980911201843018F08D
:10305000FF2009F45FC304E911E0560181E0A81ADA
:10306000B108809168019801245931402C153D0523
:103070000CF0DAC090911201992361F0F101908176
:1030800090FF08C0811106C067EA70E081EA93E012
:103090000E946A2980911201882371F0F1018081D8
:1030A00081FF0AC080916801811106C062EA70E068
:1030B00081EA93E00E946A2980911201882371F0CD
:1030C000F101808185FF0AC080916801811106C0ED
:1030D0006DE970E081EA93E00E946A298091120113
:1030E000882371F0F101808182FF0AC0809168011C
:1030F000811106C068E970E081EA93E00E946A29C4
:10310000F80191908F01809102018823A9F08091AC
:103110001201813089F48C8D9D8D8E0F9F1FA81612
:10312000B90651F480916801811126C262E970E00C
:1031300081EA93E00E946A29FFE0F91548F0809146
:103140006801811110C060E381EA93E00E94962932
:1031500080916801811107C040E150E0692D81EA4A
:1031600093E00E94962A80911201882371F0F10168
:10317000808183FF0AC080916801811106C06DE8DB
:1031800070E081EA93E00E946A298091120188230D
:1031900071F0F101808184FF0AC080916801811182
:1031A00006C062E870E081EA93E00E946A29FFEFBE
:1031B0002F1A3F0A56CF882309F40DCD803809F025
:1031C000CFCE809195018111CBCE8091960188312F
:1031D00009F0C6CE85E080936901C2CE80911201CC
:1031E0008150833008F0C6CE809168018111C2CE33
:1031F00064EB70E081EA93E00E946A29BBCE211162
:103200000AC068EE73E00E945B2B4AE050E081EA5E
:1032100093E00E94AF2A89819A8168EE73E00E9450
:103220005B2B9A838983D5CEFF2089F1811106C05B
:1032300064E770E081EA93E00E946A292FE02F158D
:1032400048F080916801811105C060E381EA93E054
:103250000E94962980916801811105C060E381EA8E
:1032600093E00E94962980916801811105C060E376
:1032700081EA93E00E9496298091680181114AC2F7
:1032800040E150E06F2D81EA93E00E94962A809100
:10329000680181113FC281EA93E00E949D293AC2F0
:1032A00080916B01853008F472C010926B0110920E
:1032B000B5011092B6018DE08093B7018091710144
:1032C000882309F450C1CE0101966C01FE013996A4
:1032D0007F018E01055F1F4F9E012B5F3F4FAE01A7
:1032E000435F5F4FBE01615F7F4F8EE492E00E94BB
:1032F000261D8F8598899093B8018093B9018D859B
:103300009E859093BA018093BB018D819E812F8110
:1033100038853093BC012093BD019093BE0180930A
:10332000BF018B859C859093C0018093C1018985E5
:103330009A859093C2018093C30189819A812B81E0
:103340003C813093C4012093C5019093C6018093C2
:10335000C701809111018093C80190914C02911195
:1033600001C080E08093C901809166018093CA0109
:103370001092CB0180916801811109C080911201E6
:10338000843028F467E185EB91E00E94C7098091C1
:103390006A01853008F458C010926A011092B50194
:1033A0001092B6018EE08093B7017092B8016092DE
:1033B000B9015092BA014092BB011092BC018AE758
:1033C0008093BD0182E18093BE011092BF01809184
:1033D00053028093C00180914A028093C101809181
:1033E0004B028093C201809154028093C30180916B
:1033F00048028093C401809146028093C501809168
:103400004402909145029093C6018093C701809138
:103410004002909141022091420230914302309348
:10342000C8012093C9019093CA018093CB01809178
:103430006801811109C080911201843028F467E18C
:1034400085EB91E00E94C70980916901853010F4F5
:103450000C94940A109269011092B5011092B60171
:103460008FE08093B7018DE58093B801D090120171
:10347000D092B901809149028093BA0180910A01EA
:103480008093BB01809109018093BC01809131023E
:10349000909132029093BD018093BE0180910F0103
:1034A000909110019093BF018093C00180910D0114
:1034B00090910E019093C1018093C201809171019E
:1034C0008093C30190E080E00E946D078093C40167
:1034D00082E090E00E946D078093C50181E090E05A
:1034E0000E946D078093C6018CE1A82E81E0B82E62
:1034F00000E110E0FF24F394C8010E946D07F5017C
:1035000021915F01022E000C330B91E0821713060C
:1035100009F090E0F9220F5F1F4F0931110561F7A3
:10352000F092C70180914D028093C80180915602AC
:103530008093C901809155028093CA0180914C0209
:103540008093CB018091680181110C94940AF3E07F
:10355000FD1510F40C94940A67E185EB91E00E944C
:10356000C7090C94940AE8EBF1E088EC91E0119221
:103570008E179F07E1F7EDCE2FE0291508F4F7CD60
:10358000DECD833611F00C94180BF29010828091EE
:1035900064010A30110511F40C94E80A811132C05B
:1035A00080916801811106C065E07CE081EA93E0CA
:1035B0000E946A2980916801811106C06EEC71E059
:1035C00081EA93E00E948E2980916801811105C0F3
:1035D0006F2D81EA93E00E94962980916801811104
:1035E00007C04AE050E0B80181EA93E00E945E2AF9
:1035F00080916801811106C062E07CE081EA93E07D
:103600000E94A12981E0809300018EEC91E09093CB
:10361000040180930301109272018EE492E00E94F3
:1036200082262B013C0180913B0290913C02A091AB
:103630003D02B0913E0284159505A605B705BCF480
:1036400080916B018F5F80936B0180916A018F5F26
:1036500080936A01809169018F5F80936901409234
:103660003B0250923C0260923D0270923E02809179
:10367000370290913802A0913902B0913A02AC0120
:10368000BD01415F514F6F4F7F4F44155505660592
:1036900077059CF420910A01243618F42F5F2093BB
:1036A0000A01805F914FAF4FBF4F809337029093D5
:1036B0003802A0933902B0933A028091330290917C
:1036C0003402A0913502B0913602AC01BD01415FD8
:1036D000514F6F4F7F4F44155505660577059CF494
:1036E00020910901243118F42F5F20930901805F94
:1036F000914FAF4FBF4F8093330290933402A0930A
:103700003502B093360284E991E09C012095309512
:103710003D8F2C8F8EE492E00E948E25182F8823F7
:1037200009F4BECDC0906E01E090020101E223E7F2
:1037300031E0AE014F5F5F4F64E971E08EE492E0EB
:103740000E94C0256C01F12C8297B4F08091680131
:10375000811106C063E074E081EA93E00E94A12930
:10376000809154028F3F19F08F5F8093540241E2A1
:10377000C42ED12CFF24FA9433E7232E31E0332ECC
:10378000F101CF01835791408C159D0514F00C94E5
:103790003F128191F82AF5CFEA8DFB8DE05AFD4F5B
:1037A000208131813093630120936201811105C032
:1037B00060E281EA93E00E949629809168016EE8B8
:1037C00073E08111C5C8C8C8803409F0F7CCBDCBFF
:1037D000003A09F4B9C8003C09F0BAC8EECF1F920C
:1037E0000F920FB60F921124CF92DF92EF92FF92B9
:1037F0002F933F934F935F936F937F938F939F93F9
:10380000AF93BF93809178002091790030E0322F00
:103810002227820F932F911DB0E0A0E02091170185
:10382000222309F493C01092170120919D03209345
:103830007C0020918F03309190032F5F3F4F309396
:10384000900320938F034091890350918A036091E4
:103850008B0370918C03840F951FA61FB71F809355
:10386000890390938A03A0938B03B0938C03A901DF
:10387000542F44275295507F452B09F051C0409159
:103880008503509186036091870370918803480FE8
:10389000591F6A1F7B1F40938503509386036093D3
:1038A000870370938803C0901A01D0901B01F12CFC
:1038B000E12C8C159D05AE05BF0520F490931B01EE
:1038C00080931A01C0909B03D0909C03F12CE12CB3
:1038D000C816D906EA06FB0620F490939C03809351
:1038E0009B031092890310928A0310928B0310920B
:1038F0008C03A4E0220F331FAA95E1F7232B81F458
:1039000040939703509398036093990370939A039D
:1039100010928503109286031092870310928803F9
:103920008EED80937A00BF91AF919F918F917F919F
:103930006F915F914F913F912F91FF90EF90DF90AA
:10394000CF900F900FBE0F901F90189521E02093FD
:10395000170120919E0320937C0020918D033091CC
:103960008E032F5F3F4F30938E0320938D03409142
:103970008103509182036091830370918403840FCB
:10398000951FA61FB71F8093810390938203A09376
:103990008303B0938403A901542F44275295507F89
:1039A000452B09F0BDCF40917D0350917E0360917E
:1039B0007F0370918003480F591F6A1F7B1F40933C
:1039C0007D0350937E0360937F0370938003C090C8
:1039D0001801D0901901F12CE12C8C159D05AE0534
:1039E000BF0520F49093190180931801C0909503AE
:1039F000D0909603F12CE12CC816D906EA06FB06F6
:103A000020F4909396038093950310928103109273
:103A10008203109283031092840384E0220F331FE9
:103A20008A95E1F7232B09F07BCF409391035093C4
:103A30009203609393037093940310927D0310920A
:103A40007E0310927F03109280036ACFCF92DF92A1
:103A5000EF92FF920F931F938091A003882309F4A4
:103A60004EC086E880937A0080911A0190911B01E4
:103A7000FB019183808380919B0390919C03FA01C9
:103A8000918380838091970390919803A0919903EB
:103A9000B0919A03F90180839183A283B3838091CB
:103AA000180190911901F801918380838091950309
:103AB00090919603F7019183808380919103909177
:103AC0009203A0919303B0919403F60180839183B4
:103AD000A283B38380EF9FE390931B0180931A012D
:103AE00010929C0310929B039093190180931801EC
:103AF00010929603109295038EE880937A001F919E
:103B00000F91FF90EF90DF90CF900895662311F012
:103B1000429A089542980895662311F05B9A089599
:103B20005B9808958F929F92AF92BF92EF920F93FE
:103B3000CF93DF934B015C01D42FC22F96958795CD
:103B4000779567957E5E85489F4FA50194010E94F9
:103B50006F2B30937C0320937B03B9017695679597
:103B6000CB01820F931F90937A0380937903C9014D
:103B7000F3E096958795FA95E1F7860F971F909356
:103B8000780380937703569547953795279530931B
:103B9000760320937503C901880F991F280F391FD9
:103BA000309374032093730361E082E00E94B42693
:103BB00061E086E00E94B42661E085E00E94B426C0
:103BC00061E083E00E94B426E0929F03429A8091D4
:103BD0009F03882309F4A4C05E9880919F038823E3
:103BE00009F4A0C05D985B9A62E088E00E94B42668
:103BF00061E089E00E94F02661E089E00E94B4263D
:103C00001092B3021092B2021092720310926D03DE
:103C10008FEF80936C0310926B0310920603109247
:103C20000503109200031092FF021092B10210924D
:103C3000B00282E084BD94E095BD99EF97BD1092EB
:103C4000AB021092AC021092AD021092AE02109232
:103C5000A7021092A8021092A9021092AA0216BC02
:103C600021E023BD85BB80936E008093B00023E0EC
:103C70002093B1009093B30083BD1092B2001092D4
:103C8000B3021092B20287BB8093700010926F0053
:103C90001092800081E880938100809181008F7B69
:103CA0008093810080918000806C8093800080915F
:103CB000820080688093820080E286BB80916F00E2
:103CC000806280936F00D093A003DD2301F18C2FDD
:103CD000806C80939E03802F806C80939D0321E0F5
:103CE00030E0C90101C0880FCA95EAF701C0220F70
:103CF0000A95EAF7822B8F7380937E0080919E0352
:103D000080937C0010927B008EED80937A00DF918F
:103D1000CF910F91EF90BF90AF909F908F900895AB
:103D20005E9A5BCF5D9A5FCF1F920F920FB60F9294
:103D300011248F939F93AF93BF938091A70290918B
:103D4000A802A091A902B091AA020896A11DB11DD6
:103D50008093A7029093A802A093A902B093AA020D
:103D60008091AF028F5F8093AF028D37A8F01092E1
:103D7000AF028091AB029091AC02A091AD02B091E4
:103D8000AE020196A11DB11D8093AB029093AC02CF
:103D9000A093AD02B093AE02BF91AF919F918F916E
:103DA0000F900FBE0F901F9018951F920F920FB695
:103DB0000F9211242F933F938F939F938091B20280
:103DC0009091B302019649F08091B2029091B302B2
:103DD00001969093B3028093B202809106038336DA
:103DE00009F06FC02091B2023091B3028091B0020D
:103DF0009091B10228173907C1F02091B202309199
:103E0000B3028091B0029091B1022817390708F4EB
:103E100058C02091B2023091B30280911501909167
:103E200016012817390708F44CC081E08093060377
:103E300020917303309174038091A502882321F0AF
:103E40008091A40291E0811190E09093A60280916C
:103E5000A602882351F081E08093A40210925F02B1
:103E600080EF8093A1021092A30290916F009F7D3A
:103E700090936F0090916F009B7F90936F001092D2
:103E800070008091840090918500820F931F909321
:103E9000890080938800809180008F7B8068809368
:103EA0008000809181008F7B80938100B19A809106
:103EB0006F00826080936F0080919F03882351F090
:103EC0005D989F918F913F912F910F900FBE0F9012
:103ED0001F9018955D9AF5CF8230910510F482E01D
:103EE00090E090935E0280935D0208959093160196
:103EF0008093150108952091FF029091000381E0C5
:103F0000291380E00895909100039F5F993108F094
:103F100090E02091FF022917E1F36FB7F894209108
:103F2000060340915D0250915E022223A9F0292FE1
:103F300030E0F901EA51FD4F8083220F331FF90170
:103F4000EC54FD4F5183408310925E0210925D024B
:103F5000909300036FBF089580930403809302033E
:103F60001092010310925C0210925B0283E6809330
:103F700006035093B1024093B00210925E02109279
:103F80005D02E8CF1F920F920FB60F9211242F936C
:103F90003F934F935F936F937F938F939F93EF9391
:103FA000FF938091060340918400509185006091B9
:103FB0008800709189005B98843108F0AFC120912E
:103FC000750330917603260F371F309389002093B5
:103FD000880093B1917080FFE8C020918000206C30
:103FE0002093800020918100206420938100813003
:103FF00009F05EC02091B2023091B30230935A02B0
:104000002093590210927000911192C010925B029D
:1040100093B19170B59B59C1209186003091870072
:1040200040E246BB992309F432C19091A60299233C
:1040300059F19091A202911104C09091A3029111A3
:1040400023C0E0915F02F0E0EE0FFF1FE05AFD4F4A
:1040500031832083E0915F02F0E0E457FD4F982F19
:104060009066908390915F029F5F90935F0296317C
:1040700011F410925F029091A302992329F090917C
:10408000A20291509093A202809305038F5F8093C8
:104090000603FF91EF919F918F917F916F915F91B7
:1040A0004F913F912F910F900FBE0F901F90189539
:1040B000833169F422E023BD1092B20061E070E028
:1040C0007093B3026093B20227BB209370002091DB
:1040D0000303291709F49CCF90915B02926090939F
:1040E0005B029091A602992309F492CF9091A202CB
:1040F000911104C09091A30291118ACF9091A302D3
:10410000911106C091E09093A3029BE09093A202CC
:10411000E0915F02F0E0EE0FFF1FE05AFD4F518388
:104120004083E0915F02F0E0E457FD4F9CEF28C030
:1041300080935B029091A602992309F469CF909134
:10414000A202911104C09091A302911161CF9091AC
:10415000A302911106C091E09093A3029BE090937B
:10416000A202E0915F02F0E0EE0FFF1FE05AFD4F68
:1041700051834083E0915F02F0E0E457FD4F9FEFF1
:10418000908390915F029F5F90935F02963111F44C
:1041900010925F029091A302992309F439CF909174
:1041A000A20291509093A20233CF823108F05FC0F7
:1041B00020910403622F617020FD0BC020918000CC
:1041C0002F7B206820938000209181002F7B2093FB
:1041D00081002091010326272093010320910403ED
:1041E00030E0359527952093040391113DC09091BF
:1041F0005B02906290935B029091A6029923A1F1D9
:104200009091A202911104C09091A30291112CC02F
:104210009091A302911106C091E09093A3029BE0BC
:104220009093A202E0915F02F0E0EE0FFF1FE05AD0
:10423000FD4F51834083E0915F02F0E0E457FD4F72
:104240009EEF908390915F029F5F90935F02963103
:1042500011F410925F029091A302992329F090919A
:10426000A20291509093A20260930303D1CE609179
:1042700001036111BACF209180002F7B2068209329
:104280008000209181002F7B20938100AECF909100
:10429000A602992309F4F8CE9091A202911104C0CC
:1042A0009091A3029111F0CEE0915F02F0E0EE0F49
:1042B000FF1FE05AFD4F31832083E0915F02F0E061
:1042C000E457FD4F982F9064CCCE9111DDCE9091A4
:1042D000A602992309F4D8CE9091A202911104C0AC
:1042E0009091A3029111D0CE9091A302911106C09A
:1042F00091E09093A3029BE09093A202E0915F0271
:10430000F0E0EE0FFF1FE05AFD4F51834083E09134
:104310005F02F0E0E457FD4F97EFA3CE93B19170A9
:10432000B59BC3C0409186005091870030E236BBF8
:10433000992309F4A2C09091A602992351F190917A
:10434000A202911104C09091A302911122C0E091A8
:104350005F02F0E0EE0FFF1FE05AFD4F51834083F4
:104360008066E0915F02F0E0E457FD4F808380912A
:104370005F028F5F80935F02863111F410925F02BB
:104380008091A302882329F08091A202815080931A
:10439000A20280915B02882329F05B9A809100033E
:1043A0008093FF0280911401882339F1E0916D031D
:1043B00021E02E0F293108F020E080916B03821755
:1043C00009F49CC0822F90E030910203FC01EE5A68
:1043D000FC4F30834091590250915A02FC01EE0F7C
:1043E000FF1FE95FFC4F5183408330915B02875C84
:1043F0009C4FFC01308320936D03909100038091CA
:10440000FF02981709F4AAC08F5F893108F080E095
:104410008093FF0290E0FC01EA51FD4F3081309320
:10442000040330930203880F991FFC01EC54FD4FE5
:104430008081918110925C0210920103823091057B
:1044400008F067C0809188009091890020917303E3
:1044500030917403820F931F90938900809388009A
:10446000809180008F7B80688093800080918100A4
:104470008F7B8093810081E00ACE9091A6029923E0
:1044800009F487CF9091A202911104C09091A302E8
:1044900091117FCFE0915F02F0E0EE0FFF1FE05A35
:1044A000FD4F5183408380645CCF911172CF809126
:1044B000A602882309F46DCF8091A202811104C065
:1044C0008091A302811165CF8091A302811106C062
:1044D00081E08093A3028BE08093A202E0915F02CF
:1044E000F0E0EE0FFF1FE05AFD4F51834083E09153
:1044F0005F02F0E0E457FD4F87EF38CF20916D0366
:10450000E22FF0E0E75CFC4F8081886080835B9A5B
:1045100074CF33E6309306039093B1028093B002D8
:1045200080916F008D7F80936F00809181008F7BE1
:104530008093810080E286BB80916F0080628093CF
:104540006F00E22FF0E0E75CFC4F808180688083A1
:1045500080919F03882329F05D9A9BCD10920603DA
:10456000DFCF5D9896CD809106038111FCCF089531
:104570008093A50208958093140108951F920F92CD
:104580000FB60F9211242F933F934F935F936F9326
:104590007F938F939F93EF93FF93209186003091A9
:1045A0008700809184009091850080917203811131
:1045B000D0C090919F03992309F451C05E989091C7
:1045C0009F03992309F44DC05D9A5B9890916C0309
:1045D0009F3F39F090916C0390936D039FEF909300
:1045E0006C034091B2025091B30250935A0240932F
:1045F0005902109270004091790350917A03420F52
:10460000531F50936F0340936E0392E09093720395
:104610001092700350938B0040938A0094E096BBF5
:1046200090916F00946090936F008111A9C0909158
:10463000A4029111A5C09091A5029093A602909119
:10464000A602992309F49CC091E09093A4021092D1
:104650005F0290EF9093A1021092A30291C05E9A24
:10466000AECF5D98B2CF9091A602992351F190916F
:10467000A202911104C09091A302911122C0E09175
:104680005F02F0E0EE0FFF1FE05AFD4F3183208301
:10469000806AE0915F02F0E0E457FD4F80838091F3
:1046A0005F028F5F80935F02863111F410925F0288
:1046B0008091A302882329F08091A20281508093E7
:1046C000A202FF91EF919F918F917F916F915F91E6
:1046D0004F913F912F910F900FBE0F901F90189503
:1046E0008A3009F04DC040916E0350916F03609184
:1046F0007B0370917C03460F571F50936F034093C9
:104700006E0350938B0040938A0094E096BB9BE02D
:104710001DC04091710350E055954795409371033A
:1047200040916E0350916F0360917B0370917C0305
:10473000460F571F50936F0340936E0350938B00A7
:1047400040938A0094E096BB91E0980F9093720397
:1047500017C04091570250915802B901641B750B64
:1047600040917703509178036417750708F47BCF65
:104770008A3008F0B5CF823060F6813009F426CF58
:104780009091A602992351F19091A202911104C037
:104790009091A302911122C0E0915F02F0E0EE0F30
:1047A000FF1FE05AFD4F31832083806CE0915F0250
:1047B000F0E0E457FD4F808380915F028F5F80932C
:1047C0005F02863111F410925F028091A302882368
:1047D00029F08091A20281508093A2023093580266
:1047E000209357026ECF1F920F920FB60F92112493
:1047F0002F933F934F935F936F937F938F939F93E9
:10480000AF93BF93EF93FF9340918A0050918B0039
:104810002091840030918500809172038A30B8F530
:10482000823008F0F9C0813009F4C4C09091A6022A
:10483000992309F4DEC09091A202911104C09091D5
:10484000A3029111D6C0E0915F02F0E0EE0FFF1FCE
:10485000E05AFD4F318320838068E0915F02F0E0F1
:10486000E457FD4F808380915F028F5F80935F02EA
:10487000863111F410925F028091A302882309F41B
:10488000B8C08091A20281508093A202B2C08A3047
:1048900009F4E4C08B3051F66091130170E06F5F52
:1048A0007F4FA0917B03B0917C036A9FF0016B9FC7
:1048B000F00D7A9FF00D112460916E0370916F03DB
:1048C0006E0F7F1F70938B0060938A0091E090932E
:1048D000720390916D039F5F993108F090E06091B1
:1048E0006B03691709F4C1C0E92FF0E0609171030F
:1048F000DF01AE5ABC4F6C936091590270915A021D
:10490000DF01AA0FBB1FA95FBC4F11967C936E936A
:10491000E75CFC4F1082609170036623D9F16081DF
:10492000646060836091A6026623A1F16091A20297
:10493000611104C06091A30261112CC06091A302B7
:10494000611106C061E06093A3026BE06093A20274
:10495000E0915F02F0E0EE0FFF1FE05AFD4F518340
:104960004083E0915F02F0E0E457FD4F4DEF40835C
:1049700040915F024F5F40935F02463111F4109205
:104980005F024091A302442329F04091A2024150CA
:104990004093A20290936C0392E093BD1092B200F8
:1049A00041E050E05093B3024093B20297BB909322
:1049B00070003CCF80916F008B7F80936F001092CE
:1049C000720380916C038F3F79F080916C03809328
:1049D0006D03E0916D03F0E0E75CFC4F808180683F
:1049E00080838FEF80936C0380919F03882391F0E5
:1049F0005E9AFF91EF91BF91AF919F918F917F91BF
:104A00006F915F914F913F912F910F900FBE0F903B
:104A10001F9018955E98EDCF9091710396959068D0
:104A2000909371039091700390589093700391E06C
:104A3000980F9093720340916E0350916F036091B1
:104A40007B0370917C03460F571F50936F03409375
:104A50006E0350938B0040938A00E8CE90917003D0
:104A60009058909370039BE0E4CFE0916D03F0E0E9
:104A7000E75CFC4F9081986090835B9A90916D0306
:104A800089CF80916D03E0916B038E1761F0EF5F2A
:104A9000E93108F0E0E0F0E0EE0FFF1FE95FFC4FC6
:104AA00080819181089590E080E0089580916D0368
:104AB000E0916B038E1749F0EF5FE93108F0E0E019
:104AC000F0E0E75CFC4F8081089580E008958091DC
:104AD0006D0390916B03891761F09F5F993108F026
:104AE00090E0E92FF0E0EE5AFC4F808190936B0349
:104AF000089580E0089520916D0390916B0329172C
:104B000028F081E0291309C080E007C030E0275E6B
:104B10003F4F81E092171306B9F3089520916D037A
:104B200080916B03821769F08F5F893108F080E014
:104B3000E82FF0E0E75CFC4F908197FFF3CF81E036
:104B4000089580E0089580916B0380936D0308952C
:104B5000CF93DF93CFE6D0E088818B7F88838881F5
:104B60008F7D88830E94A3250E94B32288818D7F38
:104B700088831092700010926E00DF91CF9108959B
:104B80002F923F924F925F926F927F928F929F925D
:104B9000AF92BF92CF92EF920F93CF93DF935C01CE
:104BA0003B012A014901C0E0202F2150330B1401A1
:104BB000220E331EC5010E947B258823D9F3C5012F
:104BC0000E945625D82F8114910441F0982F9F7789
:104BD000C01728F5F401EC0FF11D9083C11106C038
:104BE000C5010E944125F20191838083C5010E9485
:104BF0006725D7FF19C0EE2009F442C0C01748F559
:104C0000EC2FF0E0D301AE0FBF1F8C938C1509F190
:104C1000E80DF91D8081806180835B9A1AC0F101E3
:104C20008081892B8083DACFC01720F4F301EC0F49
:104C3000F11D8083EE2069F098E02C2D30E0359551
:104C40002795C826C0FE1AC0CE2CC2268695915044
:104C5000A1F7CF5FD7FFAECF8C2F90E0DF91CF9140
:104C60000F91EF90CF90BF90AF909F908F907F90DB
:104C70006F905F904F903F902F900895C22EE6CF97
:104C8000C017A0F2E6CFCF92DF92EF920F931F935F
:104C9000CF93DF93D62E172FC42EC9010E946C1F0D
:104CA000CD2DD12FCC0EDD2ED11CCC16DD06B1F0D2
:104CB0001991812F0E94831F0023B9F328E08E2DC4
:104CC00090E095958795E126E0FE06C0E02EE82667
:104CD00016952150A1F7E9CFE82EFACF002351F025
:104CE0008E2DDF91CF911F910F91EF90DF90CF909C
:104CF0000C94831FDF91CF911F910F91EF90DF9064
:104D0000CF9008956091AB027091AC028091AD029A
:104D10009091AE020895843081F028F48230E9F059
:104D20008330F9F00895883071F0893091F0853042
:104D3000B9F4809180008F7D03C0809180008F77CF
:104D40008093800008958091B0008F778093B000A9
:104D500008958091B0008F7DF9CF84B58F7784BDA1
:104D6000089584B58F7DFBCFCF93DF9390E0FC0156
:104D7000E25FF14F24918B5D914FFC018491882378
:104D8000C9F090E0880F991FFC01E05BF14FA591FD
:104D9000B491FC01EA5BF14FC591D49161110DC052
:104DA0009FB7F8948C91209582238C938881282337
:104DB00028839FBFDF91CF910895623051F49FB750
:104DC000F8943C91822F809583238C93E8812E2B3D
:104DD000EFCF8FB7F894EC912E2B2C938FBFEACFA7
:104DE0001F93CF93DF93282F30E0F901E950F24F62
:104DF0008491F901E25FF14FD491F901EB5DF14F3C
:104E0000C491CC23A9F0162F81110E948B26EC2F80
:104E1000F0E0EE0FFF1FEA5BF14FA591B4918FB761
:104E2000F894EC91111108C0D095DE23DC938FBF6C
:104E3000DF91CF911F910895DE2BF8CFCF93DF93B1
:104E4000282F30E0F901E950F24F8491F901E25F37
:104E5000F14FD491F901EB5DF14FC491CC23A1F056
:104E600081110E948B26EC2FF0E0EE0FFF1FE45C17
:104E7000F14FA591B491EC91ED2381E090E009F41C
:104E800080E0DF91CF91089580E090E0FACFFC01BF
:104E9000918D228D892F90E0805C9F4F821B91091C
:104EA0008F7399270895FC01918D828D981731F0A9
:104EB000828DE80FF11D858D90E008958FEF9FEFB3
:104EC0000895FC01918D828D981761F0A28DAE0F2F
:104ED000BF2FB11D5D968C91928D9F5F9F73928FB6
:104EE00090E008958FEF9FEF0895FC01538D448D5E
:104EF000252F30E0842F90E0821B930B541710F085
:104F0000CF9608950197089587EF98E2892B49F08D
:104F100080E090E0892B29F00E94F72881110C9401
:104F200000000895FC01A48DA80FB92FB11DA35A4C
:104F3000BF4F2C91848D90E001968F739927848FB9
:104F4000A689B7892C93A089B1898C9183708064DC
:104F50008C93938D848D981306C00288F389E02D7D
:104F600080818F7D80830895CF93DF93EC01888DBE
:104F70008823B9F0AA89BB89E889F9898C9185FDD4
:104F800003C0808186FD0DC00FB607FCF7CF8C9162
:104F900085FFF2CF808185FFEDCFCE010E94922761
:104FA000E9CFDF91CF910895EF92FF920F931F9376
:104FB000CF93DF93EC0181E0888F9B8D8C8D9813CC
:104FC0001AC0E889F989808185FF15C09FB7F894D8
:104FD000EE89FF896083E889F98980818370806424
:104FE00080839FBF81E090E0DF91CF911F910F916F
:104FF000FF90EF900895F62E0B8D10E00F5F1F4F7E
:105000000F731127E02E8C8D8E110CC00FB607FC8C
:10501000FACFE889F989808185FFF5CFCE010E941A
:105020009227F1CFEB8DEC0FFD2FF11DE35AFF4FCF
:10503000F0829FB7F8940B8FEA89FB8980818062A8
:10504000CFCFCF92DF92EF92FF921F93CF93DF9358
:10505000EC016A017B01122F60E874E88EE190E0B8
:10506000A70196010E946F2B215031094109510976
:105070005695479537952795E889F98982E0808389
:10508000211580E1380798F0E889F989108260E4F9
:1050900072E48FE090E0A70196010E946F2B2150EF
:1050A0003109410951095695479537952795EC8562
:1050B000FD853083EE85FF852083188EEC89FD8980
:1050C0001083EA89FB89808180618083EA89FB897A
:1050D000808188608083EA89FB8980818068808301
:1050E000EA89FB8980818F7D8083DF91CF911F9139
:1050F000FF90EF90DF90CF900895CF93DF93EC0176
:10510000E881F9810680F781E02D0995EA89FB891C
:1051100080818F7E8083EA89FB898081877F80837D
:10512000EA89FB8980818F778083EA89FB89808186
:105130008F7D80838A8D898FDF91CF9108951F9213
:105140000F920FB60F9211242F938F939F93EF938B
:10515000FF93E091B103F091B2038081E091B70336
:10516000F091B80382FD1BC090818091BA038F5FDC
:105170008F732091BB03821741F0E091BA03F0E0F6
:10518000EF55FC4F958F8093BA03FF91EF919F915C
:105190008F912F910F900FBE0F901F9018958081C7
:1051A000F4CF1F920F920FB60F9211242F933F93BB
:1051B0004F935F936F937F938F939F93AF93BF931F
:1051C000EF93FF9381EA93E00E949227FF91EF9182
:1051D000BF91AF919F918F917F916F915F914F910F
:1051E0003F912F910F900FBE0F901F90189581EA5D
:1051F00093E00E94472721E0892B09F420E0822FC9
:105200000895E1EAF3E01382128288EE93E0A0E0D1
:10521000B0E084839583A683B78381E591E0918391
:10522000808385EC90E09587848784EC90E0978775
:10523000868780EC90E0918B808B81EC90E0938B63
:10524000828B82EC90E0958B848B86EC90E0978B40
:10525000868B118E128E138E148E0895AF92BF928C
:10526000CF92DF92EF92FF920F931F93CF93DF9332
:105270006C017B018B01040F151FEB015E01AE1861
:10528000BF08C017D10759F06991D601ED91FC9183
:105290000190F081E02DC6010995892B79F7C501B0
:1052A000DF91CF911F910F91FF90EF90DF90CF9002
:1052B000BF90AF900895FB0101900020E9F731976E
:1052C000AF01461B570BDC01ED91FC910280F3818D
:1052D000E02D0994EF92FF920F931F93CF93DF93EA
:1052E0008C017B01D0E0C0E0F701EC0FFD1F649161
:1052F000662361F0D801ED91FC910190F081E02DE1
:10530000C8010995892B11F02196EECFCE01DF91CE
:10531000CF911F910F91FF90EF9008956115710546
:1053200011F00C945B2990E080E00895DC01ED9190
:10533000FC910190F081E02D09946FE571E00C94EF
:105340005B290F931F93CF93DF93EC010E946A298F
:105350008C01CE010E949D29800F911FDF91CF917A
:105360001F910F9108950F931F93CF93DF938C019B
:10537000D0E0C0E06115710519F00E945B29EC01D5
:10538000C8010E949D298C0F9D1FDF91CF911F9115
:105390000F9108958F929F92AF92BF92EF92FF92DA
:1053A0000F931F93CF93DF93CDB7DEB7A1970FB6BF
:1053B000F894DEBF0FBECDBF7C01FA01CB0119A26C
:1053C000223008F42AE08E010F5D1F4F822E912CAF
:1053D000B12CA12CBF01A50194010E946F2BF901F2
:1053E000CA016A300CF5605DD8016E938D01232BE4
:1053F000242B252B79F790E080E0109721F0BD0158
:10540000C7010E945B29A1960FB6F894DEBF0FBEBC
:10541000CDBFDF91CF911F910F91FF90EF90BF9083
:10542000AF909F908F900895695CDECFCF92DF920E
:10543000EF92FF920F931F93CF93DF9321153105C6
:1054400081F4DC01ED91FC910190F081E02D642F5D
:10545000DF91CF911F910F91FF90EF90DF90CF9050
:1054600009942A30310501F52AE077FF1DC06A0151
:105470007B01EC016DE20E9496298C01442755279F
:10548000BA014C195D096E097F092AE0CE010E941C
:10549000CA29800F911FDF91CF911F910F91FF902B
:1054A000EF90DF90CF900895DF91CF911F910F91F2
:1054B000FF90EF90DF90CF900C94CA299A01AB0136
:1054C000770F660B770B0C94162A0F931F93CF93CD
:1054D000DF93EC010E945E2A8C01CE010E949D297F
:1054E000800F911FDF91CF911F910F9108950F931E
:1054F0001F93CF93DF93EC010E94162A8C01CE01FB
:105500000E949D29800F911FDF91CF911F910F91D4
:1055100008952115310541F4DC01ED91FC910190D4
:10552000F081E02D642F09940C94CA299A01462F2A
:1055300050E070E060E00C94892A0F931F93CF93A2
:10554000DF93EC010E94962A8C01CE010E949D29D6
:10555000800F911FDF91CF911F910F9108959A01B4
:10556000AB0170E060E00C94892A0F931F93CF93F6
:10557000DF93EC010E94AF2A8C01CE010E949D298D
:10558000800F911FDF91CF911F910F9108950F937D
:105590001F93CF93DF93EC010E94892A8C01CE01E7
:1055A0000E949D29800F911FDF91CF911F910F9134
:1055B000089508950E94332B0E94D92A0E94D5088D
:1055C000C4E8D7E20E94310A2097E1F30E948427C1
:1055D000F9CF1F920F920FB60F9211242F933F9382
:1055E0008F939F93AF93BF93809143049091440412
:1055F000A0914504B09146043091420426E0230F67
:105600002D3768F129E8230F0396A11DB11D2093C2
:1056100042048093430490934404A0934504B093C0
:10562000460480913E0490913F04A0914004B091C3
:1056300041040196A11DB11D80933E0490933F0447
:10564000A0934004B0934104BF91AF919F918F917B
:105650003F912F910F900FBE0F901F9018950296BB
:10566000A11DB11DD4CF789484B5836084BD85B568
:10567000836085BDEEE6F0E0808181608083E1E8B3
:10568000F0E082E08083808181608083E0E8F0E068
:10569000808181608083E1EBF0E0808184608083A1
:1056A000E0EBF0E080818160808386E880937A007F
:1056B0001092C1000895AA1BBB1B51E107C0AA1F8D
:1056C000BB1FA617B70710F0A61BB70B881F991FA3
:1056D0005A95A9F780959095BC01CD010895A1E256
:1056E0001A2EAA1BBB1BFD010DC0AA1FBB1FEE1F5C
:1056F000FF1FA217B307E407F50720F0A21BB30BA7
:10570000E40BF50B661F771F881F991F1A9469F722
:1057100060957095809590959B01AC01BD01CF017E
:105720000895EE0FFF1F0590F491E02D0994FB0101
:10573000DC014150504030F08D910190801919F4F6
:105740000020B9F7881B990B0895AEE0B0E0EBEAB2
:10575000FBE20C94DF2E85E08C838B899C899A83F5
:105760008983AE01495E5F4F6D897E89CE010196C6
:105770000E94492D2E96E2E00C94FB2E20FD09C0DC
:10578000FC0123FD05C022FF02C0738362835183A5
:105790004083089544FD17C046FD1DC0DB01FC0198
:1057A000AA0FBB1FEE1FFF1F1094D1F76A0F7B1FBC
:1057B0008E1F9F1F660F771F881F991F620F711D15
:1057C000811D911D089533E0660F771F881F991F73
:1057D0003150D1F7F3CF34E0F7CF0F931F93CF932E
:1057E000DF938C01C8010E94622EEC0197FD08C076
:1057F0000E944E2E892BB1F7B801CE010E949E2E39
:10580000CE01DF91CF911F910F9108958F929F92BA
:10581000AF92BF92EF92FF920F931F93CF93DF93BC
:105820008C01D62F7A01B22E0E94622E9C01332762
:105830002B32310529F02D323105A9F46894B7F8DF
:10584000D15061F480E0DF91CF911F910F91FF90D3
:10585000EF90BF90AF909F908F900895C8010E94E5
:10586000622E97FDEFCFCB2DCD7F2B2D2073F9F43A
:105870008033E9F4AA24AA94AD0E89F0C8010E94ED
:10588000622E97FD0CC0282F2F7D283561F4C2644D
:10589000D25029F0C8010E94622E97FF08C0812CC7
:1058A000912C54011BC0B6FE2BC0C260DA2D812C96
:1058B000912C540120ED280F283028F1C4FD09C097
:1058C0002A3008F1C6FF05C02F7D3FEE320F36307B
:1058D000C8F0B8010E949E2EC1FFB4CFC7FF08C018
:1058E000B094A09490948094811C911CA11CB11C34
:1058F0002C2FB501A401C7010E94BE2B81E0A3CFCC
:10590000C261D4CF27504C2FC501B4010E94CA2BCD
:105910004B015C01C260D15009F3C8010E94622EA4
:1059200097FFC8CFD9CFA0E2B0E0E9E9FCE20C9440
:10593000D42E5C01962E7A01CE0101966C0180E294
:10594000F60111928A95E9F7F501B381890130E0FA
:1059500020E0712C812CA0E041E050E0F801B3FD83
:105960008591B3FF8191982F8F01811107C010E0BD
:1059700000E0C801A096EDE00C94F02E8E3519F4ED
:105980002115310541F1A21713064CF48D3549F16B
:105990008D3229F4811006C0882483941DC088208C
:1059A00009F464C0E92FE695E695E695EC0DFD2D2A
:1059B000F11D892F8770BA0101C0660F8A95EAF739
:1059C0008081682B6083791651F0971510F49F5FE2
:1059D000E9CF9150E7CFA1E02F5F3F4FBFCF812CA0
:1059E000FBCF882019F08E8180628E83AA2359F024
:1059F000F6019E012F5D3F4F808180958083319617
:105A0000E217F307C9F788248394C5010E94622E28
:105A100097FD16C0E82FE695E695E695EC0DFD2D71
:105A2000F11D208130E0AC014770552702C035954B
:105A300027954A95E2F720FD06C0B5010E949E2EEB
:105A4000882069F094CFE114F10429F0F7018083F4
:105A5000C70101967C019A94812C9110D6CFE11454
:105A6000F10409F486CFF701108283CFE82FE69581
:105A7000E695E695EC0DFD2DF11D982F9770BA0176
:105A800001C0660F9A95EAF79081692B6083782EA2
:105A9000A3CFB0E0A0E0EFE4FDE20C94D22E6C01C5
:105AA000EB015A01FC0117821682512CF601E380AA
:105AB000FE01E3FC8591E3FE8191182FEF0188231D
:105AC000E9F090E00E944E2E892B21F0C6010E9441
:105AD000ED2BECCF153241F4FE01E3FC1591E3FE12
