:100000000C94310A0C94590A0C94590A0C94590A0C
:100010000C94590A0C94590A0C94590A0C945023C4
:100020000C94590A0C94590A0C942C270C943724DC
:100030000C944E280C94590A0C940F230C94590AD2
:100040000C94DE2E0C94590A0C94942C0C94C62C0F
:100050000C94590A0C9488200C94590A0C94590A4F
:100060000C94590A0C94590A6364696E6F70737525
:1000700078585B0020435243206572726F72003AD9
:100080004F522D003000204352433D002D50453A41
:10009000002D42433A002D58583A002D53423A0061
:1000A0003A2000300030002E0030002000542000A4
:1000B0005220004520002A205265667573696E67DC
:1000C00020746F207772697465207061636B65744A
:1000D000207768696C652070726576696F7573202A
:1000E0007061636B6574207761736E277420666935
:1000F0006E69736865642C20666C757368696E67D9
:1001000020777269746520616374696F6E002A20BC
:1001100053757270726973653A20726563656976AA
:10012000656420303046783378207061636B657485
:10013000206F662073697A652000206465746563AA
:100140007465642C20737769746368696E672063D3
:100150006F6E74726F6C2066756E6374696F6E611A
:100160006C6974792063616E2062652073776974AD
:1001700063686564206F6E20287573696E67204C14
:100180003129002064657465637465642C20636F95
:100190006E74726F6C2066756E6374696F6E616CDD
:1001A0006974792077696C6C2072657374617274FC
:1001B000002A204E6F20617578696C696172792020
:1001C000636F6E74726F6C6C657220616E737765AD
:1001D00072696E6720746F20616464726573732046
:1001E000307800206465746563746564002A205764
:1001F00061726E696E673A20616E6F746865722015
:10020000617578696C6961727920636F6E74726F61
:100210006C6C657220697320616E73776572696EAC
:100220006720746F20616464726573732030780096
:100230002A205265667573696E6720746F20777225
:1002400069746520636F756E7465722D7265717562
:10025000657374207061636B6574207768696C6581
:100260002070726576696F7573207061636B657459
:10027000207761736E27742066696E6973686564A0
:10028000002A205761726E696E673A2055706F6E52
:100290002041546D656761207265737461727420CA
:1002A000617578696C6961727920636F6E74726FC1
:1002B0006C6C65722066756E6374696F6E616C69D3
:1002C000747920616E6420636F756E74657220723C
:1002D0006571756573742066756E6374696F6E61A0
:1002E0006C6974792077696C6C2072656D61696ED8
:1002F000207377697463686564206F6666002A20DE
:10030000537769746368696E6720636F6E74726F88
:100310006C2066756E6374696F6E616C69747920A8
:100320006F6666002A20537769746368696E672078
:10033000636F756E74657220726571756573742074
:1003400066756E6374696F6E206F6666002A20574B
:1003500041524E494E473A20746F6F206D616E795D
:100360002072656164206572726F727320646574B7
:100370006563746564002020206C772020200020B5
:1003800020207065202020002020205045202020A3
:1003900000202020626320202000202020424320D3
:1003A00020200020202073622020200020202053C5
:1003B00042202020002020206265202020002020D4
:1003C000204245202020002A205265636569766519
:1003D00064207061636B6574206C6F6E676572205A
:1003E0007468616E2052425F53495A45002A204387
:1003F0006F6D6D616E64206E6F7420756E646572D2
:1004000073746F6F643A20003A206E6F204448572F
:100410002D77726974652D726571756573742070BE
:10042000656E64696E6700207374696C6C2070651A
:100430006E64696E67003A204448572D777269747C
:10044000652D7265717565737420746F2076616CAB
:100450007565203078002A2043757272656E746C61
:1004600079206E6F207772697465206275646765A4
:1004700074206C6566740030002077696C6C2062B3
:10048000652073657420746F203078002A204967D6
:100490006E6F726564202D2057726974696E6720D3
:1004A000746F207468697320706172616D65746522
:1004B0007220616C72656164792070656E64696E2A
:1004C000672062792033352D72657175657374000C
:1004D0002A2049676E6F726564202D2057726974F7
:1004E000696E6720746F207468697320706172612F
:1004F0006D6574657220616C7265616479207065E8
:100500006E64696E6720627920452D72657175652C
:10051000737400300030003078002A20444857704F
:100520006172616D333520003A206E6F2033412DAA
:1005300077726974652D7265717565737420706565
:100540006E64696E6700207374696C6C2070656EF0
:1005500064696E67003A2033412D77726974652DA6
:100560007265717565737420746F2076616C756542
:10057000203078003A2063757272656E746C792051
:100580006E6F207772697465206275646765742088
:100590006C6566740030003A2077696C6C20626587
:1005A0002073657420746F203078003A2077726968
:1005B000746520636F6D6D616E642069676E6F7224
:1005C0006564202D20452D77726974652D726571E3
:1005D000756573742069732070656E64696E670059
:1005E0003000300030003078002A20506172616D98
:1005F000334120003A206E6F2033362D77726974B4
:10060000652D726571756573742070656E64696EB1
:100610006700207374696C6C2070656E64696E6726
:10062000003A2033362D77726974652D72657175C5
:1006300065737420746F2076616C75652030780066
:100640002A2043757272656E746C79206E6F207704
:100650007269746520627564676574206C65667480
:10066000003000300030002077696C6C206265201B
:1006700073657420746F2030780020777269746518
:1006800020636F6D6D616E642069676E6F72656463
:10069000202D20452D77726974652D726571756501
:1006A00073742069732070656E64696E6700300032
:1006B000300030003078002A20506172616D33368E
:1006C00020003A206E6F2033352D77726974652DC6
:1006D000726571756573742070656E64696E67000C
:1006E0002070656E64696E67003A2033352D77722D
:1006F0006974652D7265717565737420746F2076E9
:10070000616C7565203078002A2043757272656EC1
:10071000746C79206E6F20777269746520627564DD
:10072000676574206C6566740030002077696C6CB6
:100730002062652073657420746F203078003A2041
:10074000777269746520636F6D6D616E642069678F
:100750006E6F726564202D204448572D777269743E
:10076000652D726571756573742069732070656E8F
:1007700064696E67003A20777269746520636F6DF3
:100780006D616E642069676E6F726564202D20450F
:100790002D77726974652D72657175657374206942
:1007A000732070656E64696E670030003000300041
:1007B0003078002A20506172616D3335200030009E
:1007C0003000300030780073657420746F20002A88
:1007D0002043616E6E6F74206368616E6765207080
:1007E0006172616D33412D3277726974652077686B
:1007F000696C652070726576696F757320726571BA
:1008000075657374207374696C6C2070656E6469AF
:100810006E67002A20506172616D33412D3257722C
:100820006974652000300030003000307800736556
:100830007420746F20002A2043616E6E6F742063F1
:1008400068616E676520706172616D33362D327735
:1008500072697465207768696C6520707265766965
:100860006F75732072657175657374207374696C2C
:100870006C2070656E64696E67002A205061726139
:100880006D33362D325772697465200030003000A8
:10089000300030780073657420746F20002A204384
:1008A000616E6E6F74206368616E6765207061723F
:1008B000616D33352D327772697465207768696CA4
:1008C000652070726576696F7573207265717565E4
:1008D0007374207374696C6C2070656E64696E67E4
:1008E000002A20506172616D33352D325772697460
:1008F0006520002A20436F756E746572726571758C
:1009000065737420697320002A20436F756E7465C7
:1009100072726570656174696E6772657175657311
:100920007420697320002A20416C6C20636F756EFF
:100930007465722D72657175657374732073746F4D
:1009400070706564002A2053696E676C6520636F60
:10095000756E746572207265717565737420637944
:10096000636C6520696E69746961746564002A202E
:1009700053696E676C652052657065746974697639
:10098000652072657175657374696E67206F662086
:10099000636F756E7465722076616C756573207710
:1009A000617320616C72656164792061637469763A
:1009B00065002A20537769746368696E67207265E1
:1009C0007065746974697665207265717565737494
:1009D000696E67206F6620636F756E746572732031
:1009E0006F66662C2073696E676C6520636F756E29
:1009F000746572206379636C6520696E69617465E2
:100A000064002A20537769746368696E6720726591
:100A10007065746974697665207265717565737443
:100A2000696E67206F6620636F756E7465727320E0
:100A30006F66662C20776173207374696C6C20611B
:100A400063746976652C206E6F206E6577206379FC
:100A5000636C6520696E6961746564002A20507258
:100A60006576696F75732073696E676C6520636F57
:100A7000756E7465722072657175657374206E6F22
:100A8000742066696E697368656420796574002AEC
:100A90002052657065746974697665207265717538
:100AA000657374696E67206F6620636F756E746519
:100AB000722076616C75657320696E697469617402
:100AC0006564002A205265706574697469766520D2
:100AD00072657175657374696E67206F6620636FE8
:100AE000756E7465722076616C75657320776173BD
:100AF00020616C7265616479206163746976650058
:100B00002A204572726F72737065726D69747465B4
:100B10006420746F6F206C6F773B20636F6E74720C
:100B20006F6C2066756E6374696E616C6974792090
:100B30006E6F7420656E61626C6564002A20436F7D
:100B40006E74726F6C5F6964206973203078002A5C
:100B500020436F6E74726F6C5F69642073657420DC
:100B6000746F203078002A20434F4E54524F4C5F10
:100B7000494420697320616C726561647920307822
:100B80003030002A20596F75206D617920776973A4
:100B90006820746F2072652D74727920696E2061EF
:100BA00020666577207365636F6E64732028616EBD
:100BB000642070657268617073207377697463680C
:100BC00020617578696C6961727920636F6E7472E7
:100BD0006F6C6C657273206F666629002A204E6FF9
:100BE0002066726565206164647265737320666F48
:100BF0007220636F6E74726F6C6C657220666F75B5
:100C00006E642028796574292E20436F6E74726F8C
:100C10006C2066756E6374696F6E616C697479209F
:100C20006E6F7420656E61626C6564002A20436F8C
:100C30006E74726F6C5F4944203078463120737552
:100C400070706F727465642C206E6F2061757869A6
:100C50006C6961727920636F6E74726F6C6C65720F
:100C600020666F756E6420666F7220307846312C76
:100C700020737769746368696E6720636F6E74723E
:100C80006F6C2066756E6374696F6E616C697479E0
:100C9000206F6E2030784631206F6E002A20436F1F
:100CA0006E74726F6C5F49442030784630207375E3
:100CB00070706F727465642C206E6F206175786936
:100CC0006C6961727920636F6E74726F6C6C65729F
:100CD00020666F756E6420666F7220307846302C07
:100CE00020737769746368696E6720636F6E7472CE
:100CF0006F6C2066756E6374696F6E616C69747970
:100D0000206F6E2030784630206F6E002A20434FCF
:100D10004E54524F4C5F494420697320616C726598
:100D2000616479203078002A204572726F72737086
:100D300065726D697474656420286572726F7220C3
:100D40006275646765742920746F6F206C6F773BE0
:100D500020636F6E74726F6C2066756E6374696F5A
:100D60006E616C6974792063616E6E6F7420656E5C
:100D700061626C6564002A20526573657474696EE3
:100D800067202E2E2E2E002A205265667573696EFE
:100D90006720746F207772697465207061636B657A
:100DA00074207768696C652070726576696F7573F9
:100DB000207061636B6574207761736E27742066A1
:100DC000696E6973686564002A2052656675736987
:100DD0006E6720746F20777269746520656D70741A
:100DE00079207061636B6574002A20577269746999
:100DF0006E673A20002A2057726974652072656612
:100E0000757365643B20636F6E74726F6C6C657292
:100E1000206973206F6E0073657420746F20002A40
:100E2000204563686F200073657420746F20002A6A
:100E300020536F6674776172652D73636F706520E0
:100E40000073657420746F20002A2044656C6179FA
:100E500054696D656F7574200073657420746F201C
:100E6000005B757365206F662064656C6179203066
:100E7000206F722031206E6F74207265636F6D6D0C
:100E8000656E6465642C20696E6372656173696E5A
:100E90006720746F20325D20002A2044656C6179E0
:100EA00020002A20503150322D4553502D496E7468
:100EB0006572666163652068774944200020287068
:100EC0006F7765722D6F6E2D7265736574290020C2
:100ED000286578742D726573657429002028627204
:100EE0006F776E2D6F75742D6465746563746564BA
:100EF00029002A2052657365742063617573653A11
:100F0000204D435553523D0020452D736572696550
:100F100073002A204E4557503150324C4942002030
:100F2000002A20436F6D70696C656420002A205090
:100F30003150324D6F6E69746F722D76302E392EAE
:100F400032330073657420746F20002A2056657256
:100F5000626F736520003000307800736574207410
:100F60006F20002A204372635F666565642000304D
:100F70000030780073657420746F20002A2043725B
:100F8000635F67656E2000206E723A203078002023
:100F900070743A203078002A2049676E6F72696E4B
:100FA0006720696E737472756374696F6E2C206547
:100FB00078706563746564203320617267756D6550
:100FC0006E74732C2072656365697665643A2000DF
:100FD0002A2043757272656E746C79206E6F20776B
:100FE0007269746520627564676574206C656674E7
:100FF0000020746F2076616C756520307800207059
:101000006172616D65746572206E72203078002A9D
:1010100020496E6974696174696E672070617261DC
:101020006D6574657220777269746520666F7220D1
:101030007061636B65742D74797065203078002A57
:101040002049676E6F726564202D2057726974693C
:101050006E6720746F207468697320706172616DAF
:101060006574657220616C72656164792070656E6B
:1010700064696E672062792033415F7265717565BE
:101080007374002A2049676E6F726564202D2057A3
:10109000726974696E6720746F2074686973207058
:1010A0006172616D6574657220616C7265616479ED
:1010B0002070656E64696E672062792033365F72D6
:1010C000657175657374002A2049676E6F72656477
:1010D000202D2057726974696E6720746F207468C0
:1010E000697320706172616D6574657220616C72E4
:1010F000656164792070656E64696E67206279202D
:1011000033355F72657175657374002A2049676EA7
:101110006F726564202D2057726974696E67207440
:101120006F207468697320706172616D6574657297
:1011300020616C72656164792070656E64696E67A8
:101140002062792044485733355F72657175657345
:1011500074002076616C756520697320002A205028
:101160006172616D657465722076616C756520745D
:101170006F6F206C6172676520666F7220706163AB
:101180006B657420747970653B2023627974657394
:1011900020697320002A2077725F6E72203E2065DE
:1011A000787065637465643A20307800206F7574D8
:1011B000206F662072616E676520307833352D3080
:1011C000783344002A2077725F70743A20307800B8
:1011D0002A2050726576696F757320706172616D37
:1011E0006574657220777269746520616374696FD4
:1011F0006E207374696C6C2062757379002A2052BA
:10120000656365697665643A20002A20456D7074CF
:1012100079206C696E652072656365697665640026
:101220002A2052656365697665643A2022002A2087
:101230004C696E6520746F6F206C6F6E672C206C2C
:1012400061737420706172743A20002A20466972BA
:101250007374206C696E652069676E6F7265643A9D
:10126000200030003000502020202020202020208E
:10127000005220002A2052656164792073657475DC
:1012800070002A204E4557503150324C4942002AB6
:10129000204630335844454C41593D002A204630C1
:1012A000333044454C41593D002A20434F4E54525F
:1012B0004F4C5F49445F44454641554C543D30785E
:1012C000002A2053455249414C53504545443D0066
:1012D0002A204350555F53504545443D0020287017
:1012E0006F7765722D6F6E2D72657365742900209E
:1012F000286578742D7265736574290020286272E0
:101300006F776E2D6F75742D646574656374656495
:1013100029002A2052657365742063617573653AEC
:10132000204D435553523D002A20436F756E74651E
:1013300072726570656174696E67726571756573E7
:10134000743D002A20566572626F736974793D009E
:101350002A20436F6E74726F6C5F49443D30780091
:101360002A20503150322D4553502D696E746572CC
:10137000666163652068774944200020452D7365C8
:101380007269657300202B636F6E74726F6C00203E
:10139000002A20436F6D70696C656420002A20501C
:1013A0003150324D6F6E69746F722D76302E392E3A
:1013B0003233002A002A20454550524F4D20736990
:1013C00067206D69736D617463682C20696E697440
:1013D00069616C697A696E6720454550524F4D00CE
:1013E0002A20454550524F4D20736967206D617426
:1013F0006368002A20636865636B696E67204545F2
:1014000050524F4D00000000090003020000040587
:1014100008000000000000000000000001020408B5
:10142000102040800102040810200102040810204E
:101430004080400404040404040404020202020282
:10144000020303030303030202030000000025005C
:1014500028002B0000000000240027002A00F62CA2
:10146000BA0C11241FBECFEFD8E0DEBFCDBF12E013
:10147000A0E0B1E0E0E1F6E602C005900D92A232F4
:10148000B107D9F725E0A2E2B2E001C01D92AC306D
:10149000B207E1F71AE0C0E3DAE004C02197FE01E9
:1014A0000E94862FCF32D107C9F70E94CF2E0C940D
:1014B000FB320C9400001F93CF93DF93EC01162FA7
:1014C0000E94AE32181739F0612FCE01DF91CF9113
:1014D0001F910C94B632DF91CF911F9108950C9417
:1014E000AE32CF92DF92EF92FF920F931F93CF9382
:1014F000DF9380911701882331F063EF73E186E673
:1015000094E00E94962D80E2E82E81E0F82E67019B
:1015100000E110E0C1E0C8010E946F0AF6012191CC
:101520006F01022E000C330B91E08217130609F0B5
:1015300090E0C9230F5F1F4F0931110561F78091BA
:1015400017018823E9F160EE73E186E694E00E94DA
:101550005F2D6C2F70E04AE050E086E694E00E9438
:101560005A2EC1112FC080911701882331F065EBED
:1015700073E186E694E00E94962DC0E1D0E0F70189
:1015800061917F01CE010E945B0A2196C931D1058C
:10159000B1F760E090E080E00E945B0A60E081E0EB
:1015A00090E00E945B0A63E082E090E0DF91CF91DF
:1015B0001F910F91FF90EF90DF90CF900C945B0AFA
:1015C000CC23D9F2DF91CF911F910F91FF90EF9033
:1015D000DF90CF9008950F93CF9384B78093130338
:1015E00014BE83B185FB882780F991E08927809319
:1015F0002A0226E040E950ED63E070E086E694E0E0
:101600000E94422C63EB73E186E694E00E94962DE3
:101610006DE973E186E694E00E94962D61E973E13D
:1016200086E694E00E945F2D6AE271E086E694E02F
:101630000E94832D6FE873E186E694E00E945F2D9F
:1016400066E371E086E694E00E94832D65E873E12D
:1016500086E694E00E945F2D6BE773E186E694E0F6
:101660000E945F2D86E694E00E94922D60E673E171
:1016700086E694E00E945F2D4AE050E060912A02E5
:1016800086E694E00E94922E0E94710A90E080E02B
:101690000E946F0A8093160382E090E00E946F0A16
:1016A000C82F8093170181E090E00E946F0A809319
:1016B0001403CC2309F4AEC060E573E186E694E040
:1016C0000E945F2D40E150E06091160386E694E0B1
:1016D0000E94922E63E473E186E694E00E945F2DFF
:1016E0004AE050E06091170186E694E00E94922E55
:1016F00068E273E186E694E00E945F2D4AE050E0E4
:101700006091140386E694E00E94922E62E173E1F8
:1017100086E694E00E945F2D4AE050E0609113035A
:1017200086E694E00E948B2E8091130382FF06C010
:101730006CEF72E186E694E00E945F2D80911303C6
:1017400081FF06C06FEE72E186E694E00E945F2D95
:101750008091130380FF06C06DED72E186E694E090
:101760000E945F2D86E694E00E94922D60ED72E16A
:1017700086E694E00E945F2D2AE030E040E052E1EE
:101780006AE770E086E694E00E946C2E61EC72E1FC
:1017900086E694E00E945F2D2AE030E040E950EDBB
:1017A00063E070E086E694E00E946C2E69EA72E1E4
:1017B00086E694E00E945F2D40E150E070E060E03A
:1017C00086E694E00E945A2E6CE972E186E694E087
:1017D0000E945F2D4AE050E064E670E086E694E007
:1017E0000E945A2E6FE872E186E694E00E945F2D17
:1017F0004AE050E06EE170E086E694E00E94532EED
:1018000086E694E00E94922D62E872E186E694E01A
:101810000E94962D41E080912A02811101C040E092
:1018200007E026E060E875E280E090E00E941F2279
:10183000809112010E942927809117030E94262778
:1018400080911301909114010E94EB2364E772E1EF
:1018500086E694E0CF910F910C94962D7F936F9331
:101860002FE331E03F932F939F938F930E949A2F02
:101870000F900F900F900F900F900F9008957F93FF
:101880006F9322E431E03F932F939F938F930E94B5
:101890009A2F0F900F900F900F900F900F90089528
:1018A000EF92FF920F931F93CF93DF93F82ED92FD0
:1018B000E62E80911701882331F061E772E186E618
:1018C00094E00E945F2D8091170180FF06C066E6BC
:1018D00072E186E694E00E945F2DC09129020F2DEF
:1018E0001D2FE00EF12EF11CE016F10631F1F8018A
:1018F000D1918F01D03130F464E672E186E694E054
:101900000E945F2D40E150E06D2F86E694E00E943A
:101910008B2E30910201332339F328E08C2F90E095
:1019200095958795CD27C0FF06C0C32FC827D695AC
:101930002150A1F7D9CFC82FFACF80910201882377
:1019400079F0C03130F462E672E186E694E00E94FC
:101950005F2D40E150E06C2F86E694E00E948B2ED4
:1019600086E694E0DF91CF911F910F91FF90EF9069
:101970000C94922D0C94F9292F923F924F925F92E2
:101980006F927F928F929F92AF92BF92CF92DF928F
:10199000EF92FF920F931F93CF93DF93CDB7DEB7F4
:1019A000A4970FB6F894DEBF0FBECDBF86E694E0D5
:1019B0000E94892B8C0197FF02C00C94B51F809167
:1019C0002B02E0910301F09104010A30110511F49A
:1019D0000C94811F833610F00C94851F9F012F5F9C
:1019E0003F4F309304012093030100838F5F809366
:1019F0002B02DCCF6AE771E086E694E00E94832D3B
:101A00006EE872E086E694E00E94832D6F2D86E6F4
:101A100094E00E948B2D67E771E086E694E00E94D7
:101A2000A82D109200010C94AD1F1082882381F024
:101A3000A82FB0E0A357BD4F9C919D3049F4815031
:101A400080932B023197F0930401E09303011082FD
:101A500080910001823049F46BE472E186E694E003
:101A60000E945F2D6EE872E0D8CF6EE272E18130A5
:101A7000A9F380911701813011F0843091F460E274
:101A800072E186E694E00E945F2D6EE872E086E6E1
:101A900094E00E94832D63EA71E086E694E00E9460
:101AA000A82D83E992E0909304018093030144E020
:101AB00050E065EA71E08EE892E00E948C2F6C01A4
:101AC000892B11F00C94AD1F80919202893511F48D
:101AD0000C948A160CF0FEC18E3409F440C30CF04D
:101AE00001C1873409F4A7C20CF057C08A3209F447
:101AF0003EC484F4882309F42AC46DEE73E086E6BC
:101B000094E00E945F2D6091030170910401615087
:101B100071093FC4833409F46FC7853471F780912C
:101B2000080360ED71E181111CC480E093E09F9394
:101B30008F9384E093E09F938F9386E093E09F934D
:101B40008F938AEA91E09F938F9383E992E09F932A
:101B50008F930E949A2F9C8B8B8B0FB6F894DEBFCD
:101B60000FBECDBF039709F00FC5809106039BEC14
:101B7000980F993008F413C464EC71E186E694E0A0
:101B80000E945F2D40E150E06091060386E694E0FC
:101B90000E948B2E6CEA71E1E4C38B3409F490C28D
:101BA000E4F5883409F0A9CF80911701882331F03A
:101BB00063E67FE086E694E00E945F2DBE016B5EE7
:101BC0007F4F80910301909104010E943F0C019787
:101BD00079F48D898093290280911701882311F46B
:101BE0000C94AD1F6BE57FE086E694E00E945F2DCC
:101BF00068E57FE086E694E00E945F2D80912902EF
:101C0000803130F466E57FE086E694E00E945F2D47
:101C100040E150E06091290246C28C3409F45BC275
:101C20008D3409F06ACF80911701882331F063E188
:101C300078E086E694E00E945F2DBE016B5E7F4FE8
:101C400080910301909104010E943F0C0197C1F41F
:101C500080910A036FEC77E0811183C38D899E899F
:101C600090930D0180930C0180911701882311F44A
:101C70000C94AD1F67EC77E086E694E00E945F2D40
:101C800064EC77E086E694E00E945F2D80910C0181
:101C900090910D01409730F462EC77E086E694E095
:101CA0000E945F2D80910C0190910D018F3F910555
:101CB00009F030F460EC77E086E694E00E945F2D56
:101CC00080910C0190910D018115904130F46EEBE3
:101CD00077E086E694E00E945F2D60910C017091A0
:101CE0000D0178C3843509F4D5C20CF0B6C0803537
:101CF00009F4FDC60CF412C5813509F457C78235C5
:101D000009F0FBCE80911701882331F067EB76E074
:101D100086E694E00E945F2D64EB76E086E694E030
:101D20000E945F2D80910E0190910F01409730F439
:101D300062EB76E086E694E00E945F2D80910E01D2
:101D400090910F018F3F910509F030F460EB76E040
:101D500086E694E00E945F2D80910E0190910F0124
:101D60008115904130F46EEA76E086E694E00E94B8
:101D70005F2D60910E0170910F0140E150E086E609
:101D800094E00E94AA2EBE016B5E7F4F80910301FA
:101D9000909104010E943F0C019709F086C7809141
:101DA0000603863389F42091040330910503809162
:101DB0000E0190910F012817390731F48091080323
:101DC0006AE776E08111CDC280910A01882309F487
:101DD00069C7815080930A0181E080930D038D894A
:101DE0009E8990930C0380930B03809117018823A5
:101DF00011F40C94AD1F67E676E086E694E00E944D
:101E00005F2D80910B0390910C03409730F465E6B1
:101E100076E086E694E00E945F2D80910B0390911E
:101E20000C038F3F910509F030F463E676E086E617
:101E300094E00E945F2D80910B0390910C0381151B
:101E4000904130F461E676E086E694E00E945F2DF2
:101E500060910B0370910C03BDC2863509F4CBC3AE
:101E60000CF487C4873509F45DC2883509F045CE86
:101E700080911701882331F06FE17EE086E694E0DF
:101E80000E945F2DBE01695E7F4F8091030190919A
:101E900004010E942E0C81309105B9F42F89388DF0
:101EA000232B11F0988F8F8B8F89809312010E94C2
:101EB000292780911701882311F40C94AD1F67E145
:101EC0007EE086E694E00E945F2D4AE050E060915B
:101ED0001201E9C08F3609F421C40CF0CBC1883659
:101EE00009F462CE0CF0E5C0833609F485C50CF028
:101EF0009CC08A3509F001CE80911701882331F00A
:101F000063EB77E086E694E00E945F2D60EB77E07C
:101F100086E694E00E945F2D80911001909111015E
:101F2000409730F46EEA77E086E694E00E945F2DF9
:101F300080911001909111018F3F910509F030F4CB
:101F40006CEA77E086E694E00E945F2D80911001B4
:101F5000909111018115904130F46AEA77E086E6AC
:101F600094E00E945F2D609110017091110140E199
:101F700050E086E694E00E94AA2EBE016B5E7F4F81
:101F800080910301909104010E943F0C019709F098
:101F90006FC68091100190911101209106032533A5
:101FA00069F420910403309105032817390731F4AF
:101FB0002091080365E777E02111D3C180349105B2
:101FC00031F4809112036EE377E08111CAC18091F0
:101FD0000A01882309F449C6815080930A0181E0EF
:101FE000809310038D899E8990930F0380930E0335
:101FF00080911701882311F40C94AD1F6BE277E0F8
:1020000086E694E00E945F2D80910E0390910F036D
:10201000409730F469E277E086E694E00E945F2D15
:1020200060910E0370910F03D5C1853609F477CD09
:10203000873609F062CD80911701882331F06CE773
:102040007FE086E694E00E945F2DBE016B5E7F4FCD
:1020500080910301909104010E943F0C019779F453
:102060008D898093020180911701882311F40C94CB
:10207000AD1F64E77FE086E694E00E945F2D61E794
:102080007FE086E694E00E945F2D8091020180311E
:1020900030F46FE67FE086E694E00E945F2D40E139
:1020A00050E06091020186E694E00E94922E0C942A
:1020B000AD1F8C3681F00CF04CC08B3609F01DCD75
:1020C00066E77DE086E694E00E94962DE091270287
:1020D000F09128020995BE01695E7F4F809103014E
:1020E000909104010E942E0C019709F07DC48F8904
:1020F000988D049710F0188E1F8A8F89988D80FF15
:1021000060C48091090167E27DE0853008F429C14F
:1021100080911603882309F403C46CE07DE086E611
:1021200094E00E945F2D40E150E06091160386E646
:1021300094E00E94922E8F89988D029710F00C9453
:10214000AD1F6091160390E080E00E945B0A0C9442
:10215000AD1F8D3609F467CD8E3609F0CECC809157
:102160001701882331F069EE75E086E694E00E945D
:102170005F2D66EE75E086E694E00E945F2D80910B
:102180000C0190910D01409730F464EE75E086E605
:1021900094E00E945F2D80910C0190910D018F3F82
:1021A000910509F030F462EE75E086E694E00E9455
:1021B0005F2D80910C0190910D018115904130F4BB
:1021C00060EE75E086E694E00E945F2D60910C0160
:1021D00070910D0140E150E086E694E00E94AA2E45
:1021E000BE016B5E7F4F80910301909104010E94BC
:1021F0003F0C019709F076C5809106038A3389F474
:10220000209104033091050380910C0190910D0100
:102210002817390731F4809108036BEA75E08111C2
:10222000A0C080910A01882309F459C58150809388
:102230000A0181E080930A038D89809309038091CC
:102240001701882311F40C94AD1F67E975E086E649
:1022500094E00E945F2D80910903803130F465E99C
:1022600075E086E694E00E945F2D40E150E06091C9
:10227000090319CF853709F47CC20CF049C08137B6
:1022800009F494C40CF433C4823709F43BCD843789
:1022900009F033CC80911701882331F069E97EE0A1
:1022A00086E694E00E945F2D65E171E08091030174
:1022B000909104010E942E0C0197F1F48091150178
:1022C00090911601029760F482E090E090931601DD
:1022D0008093150161E67EE086E694E00E945F2D22
:1022E00080911701882311F40C94AD1F69E57EE0FD
:1022F00086E694E00E945F2D6091150170911601B1
:102300004AE050E086E694E00E94AA2E0C94AD1FAD
:10231000883709F4ADCDA4F4863709F46CC187374A
:1023200009F0EBCB8091170190911603992309F4E2
:102330006AC265EF7DE0882311F40C94AD1F11C0D3
:10234000893709F4E7C48A3709F4D6CDD6CB809112
:102350001701813021F0843011F00C94AD1F6AE038
:1023600072E186E694E00E94962D0C94AD1F809158
:102370001701813021F0843011F00C94AD1F6DEF06
:1023800071E186E694E00E945F2D609103017091F7
:10239000040186E694E00E94A82D0C94AD1F2091C4
:1023A000040330910503482F4553550BFA01EE0FF6
:1023B000FF1FE550FE4F408151814217530768F4DB
:1023C00065E971E186E694E00E945F2D6091040367
:1023D0007091050340E150E095CFEAECE80FE8305A
:1023E00008F04CC0F0E0E950FE4E0C94862FFF112F
:1023F0003A123C123C123E12FF113A123C1212E009
:1024000058E0159FF0011124409100035091010301
:10241000609102037091030304C076956795579508
:102420004795EA95D2F7452B462B472B49F16DE5A9
:1024300071E186E694E00E945F2D4AE050E0612F52
:1024400086E694E00E948B2E62E571E186E694E0D8
:102450000E945F2D4091000350910103609102039F
:102460007091030320E130E086E694E00E94BC2EE8
:102470000C94AD1F13E0C4CF14E0C2CF11E0C0CF65
:10248000853309F059C02034310531F480911203AD
:102490006BE071E1811165CF809110019091110184
:1024A0002817390731F48091100367EC70E181112E
:1024B00058CF80910A01882309F463C0815080932A
:1024C0000A0181E0809308036FE070E186E694E002
:1024D0000E945F2D40E150E06091060386E694E0A3
:1024E0000E948B2E6EEF7FE086E694E00E945F2DC7
:1024F000609104037091050340E150E086E694E0AA
:102500000E94A42E61EF7FE086E694E00E945F2D9A
:102510004091000350910103609102037091030305
:1025200020E130E086E694E00E947E2E86E694E08C
:102530000E94922D0C94AD1F863381F480910E0180
:1025400090910F012817390709F0B3CF80910D033F
:1025500063E870E1882309F4ACCF03CF8A3309F034
:10256000A8CF80910C0190910D012817390709F02F
:10257000A0CF80910A036FE370E1882309F499CF1B
:10258000F0CE60ED7FE0EDCE67E97FE086E694E097
:102590000E945F2D6B897C894AE050E086E694E0DA
:1025A0000E94532E8B899C891816190674F46FE8C3
:1025B0007FE086E694E00E945F2D40E150E060916C
:1025C000060386E694E00E948B2E8B899C890297F5
:1025D0000CF4ACCF67E87FE086E694E00E945F2DC4
:1025E000609104037091050340E150E086E694E0B9
:1025F0000E94A42E9BCF6BE47FE086E694E00E94CD
:102600005F2DBE01695E7F4F8091030190910401AF
:102610000E942E0C0197A9F48F89988D059720F0C0
:1026200084E090E0988F8F8B63E47FE086E694E00F
:102630000E945F2D6F896093170182E090E00E94F5
:102640005B0A4AE050E06091170186E694E00E9440
:10265000922E6DE27FE086E694E00E94962D61E284
:102660007FE086E694E00E945F2D6AE271E086E6F4
:1026700094E00E94832D6FE17FE086E694E00E9463
:102680005F2D66E371E086E694E00E94A82D62E18A
:102690007FE086E694E00E945F2D68E07FE086E6BA
:1026A00094E00E94962D62EF7EE086E694E00E9420
:1026B0005F2D4AE050E06091130386E694E00E94AB
:1026C0008B2E8091130382FF06C06CED7EE086E6C0
:1026D00094E00E945F2D8091130381FF06C06FEC90
:1026E0007EE086E694E00E945F2D8091130380FFD8
:1026F00006C06DEB7EE086E694E00E945F2D86E6E4
:1027000094E00E94922D62EA7EE086E694E00E94C8
:102710005F2D4AE050E060912A02C5CC80911701FC
:10272000882331F069E47EE086E694E00E945F2D24
:1027300063E171E080910301909104010E942E0CED
:10274000019791F480911301909114010E94EB2361
:1027500080911701882311F40C94AD1F61E47EE091
:1027600086E694E00E945F2D609113017091140140
:10277000C7CD80911701882331F06FE27EE086E6B5
:1027800094E00E945F2DCE0147969F938F9384EB38
:1027900091E09F938F93809104018F938091030127
:1027A0008F930E949A2F9C8B8B8B0F900F900F9082
:1027B0000F900F900F9018161906C4F48F8980930C
:1027C0001703823018F081E080931703809117037C
:1027D0000E94262780911701882311F40C94AD1FC5
:1027E00067E27EE086E694E00E945F2D4AE050E0DA
:1027F0006091170386E694E00E94922E88EC809305
:1028000001010C94AD1F882331F069EE7DE086E66E
:1028100094E00E945F2D0EE612E05E0193E1A90EA6
:10282000B11C4E01A1E18A0E911C8DEB682E81E056
:10283000782EBF92AF929F928F927F926F928091EB
:1028400004018F93809103018F930E949A2F0FB6FA
:10285000F894DEBF0FBECDBF019771F529893A8983
:10286000FFEFCF1ADF0AD8012D938D01809103016C
:10287000909104014B895C89840F951F909304010A
:102880008093030180911701882389F0203131055D
:1028900034F463EC71E086E694E00E94832D69894C
:1028A0007A8940E150E086E694E00E94532E80E26F
:1028B000C816D10409F0BDCF80911701882321F0FB
:1028C00086E694E00E94922D0E94F0238823B9F0BE
:1028D000C114D10489F02091150130911601E090C6
:1028E0002902009102014C2D6EE672E088E193E02E
:1028F0000E94942A0C94AD1F68EC7DE032CD67E80D
:102900007DE086E694E00E94962D80911A038F3F29
:1029100011F40C94AD1F8F5F80931A030C94AD1FBC
:1029200080910701853049F56CE97CE086E694E00A
:102930000E94962D80EF809316038F89988D60EF0B
:10294000029768F1809117016FE47BE0882311F40E
:102950000C94AD1F86E694E00E945F2D80911603D3
:10296000803130F463EC71E086E694E00E94832DC0
:1029700040E150E06091160396CB809108018530CC
:1029800099F46CE27CE086E694E00E94962D81EF5B
:10299000809316038F89988D61EF029798F690E0E7
:1029A00080E00E945B0ACECF6CED7BE086E694E08F
:1029B0000E94962D63E87BE086E694E00E94962DC7
:1029C000C1CF20911603211108C066E67BE086E6A0
:1029D00094E00E945F2D0C94AD1F10921603029795
:1029E00008F0B0CF60E0DBCF80911701882309F4B5
:1029F000B5CF6CE37BE0AECFBE01695E7F4F83E96C
:102A000092E00E942E0C019709F058C08F89988D92
:102A100082309105D8F08091090160E07BE085303B
:102A200008F49FCC8091140363EC7AE0811199CC77
:102A300081E0809314036FE87AE086E694E00E94D8
:102A4000962D6091140381E090E07FCB019779F59A
:102A5000209115033091140381E090E0332311F0AD
:102A600090E080E050E0822395236CE57AE0892BAA
:102A700009F077CC332389F01092140362E07AE0F6
:102A800021116FCC62EB79E086E694E00E94962DEE
:102A900081E0809315030C94AD1F6EE679E021115F
:102AA00060CC81E08093150365E479E05ACC109204
:102AB00014031092150366E279E0BFCF68E079E075
:102AC00086E694E00E945F2D4AE050E06091140396
:102AD00086E694E00E94922E63EF78E086E694E02A
:102AE0000E945F2D4AE050E060911503DCCA80919E
:102AF0001701882331F061EE78E086E694E00E94C9
:102B00005F2DBE016B5E7F4F8091030190910401A8
:102B10000E943F0C0197C1F4809110036DE978E0A9
:102B200081111FCC8D899E89909311018093100192
:102B300080911701882311F40C94AD1F65E978E0AA
:102B400086E694E00E945F2D62E978E086E694E0F4
:102B50000E945F2D8091100190911101409730F4F7
:102B600060E978E086E694E00E945F2D8091100194
:102B7000909111018F3F910509F030F46EE878E0F3
:102B800086E694E00E945F2D8091100190911101E2
:102B90008115904130F46CE878E086E694E00E947C
:102BA0005F2D609110017091110114CC809117017B
:102BB000882331F06AE778E086E694E00E945F2D92
:102BC000BE016B5E7F4F80910301909104010E94D2
:102BD0003F0C0197C1F480910D0366E378E0811109
:102BE000C0CB8D899E8990930F0180930E018091B7
:102BF0001701882311F40C94AD1F6EE278E086E68D
:102C000094E00E945F2D6BE278E086E694E00E94FB
:102C10005F2D80910E0190910F01409730F469E291
:102C200078E086E694E00E945F2D80910E019091FD
:102C30000F018F3F910509F030F467E278E086E6F6
:102C400094E00E945F2D80910E0190910F018115FB
:102C5000904130F465E278E086E694E00E945F2DD2
:102C600060910E0170910F01B5CB68E077E079CBF0
:102C70008091100362EC76E0882309F472CB69EE50
:102C800076E086E694E00E94962D60910E037091A6
:102C90000F0340E150E086E694E00E94AA2E60EE29
:102CA00076E05FCB60E476E05CCB80910D0364EF6F
:102CB00075E0882309F455CB61E276E086E694E07E
:102CC0000E94962D60910B0370910C0340E150E03F
:102CD00086E694E00E94AA2E62E176E042CB64E7A9
:102CE00075E03FCB80910A0368E275E0882309F420
:102CF00038CB65E575E086E694E00E94962D40E1CC
:102D000050E06091090386E694E00E94922E66E40A
:102D100075E027CB80911701882331F06AE175E0D7
:102D200086E694E00E945F2D67E175E086E694E018
:102D30000E945F2D65E175E086E694E00E945F2DBC
:102D400063E175E086E694E00E945F2D40E150E08B
:102D500060E470E086E694E00E945A2EBE01695E4F
:102D60007F4F80910301909104010E942E0C0197E6
:102D700009F049C080910603853369F4809104030A
:102D8000909105038034910531F48091080360ED42
:102D900074E08111E6CA8091100190911101803494
:102DA000910531F4809110036CE874E08111D9CA67
:102DB00080910A01882321F1815080930A0181E0EA
:102DC000809312038F8980931103809117018823C8
:102DD00011F40C94AD1F69E774E086E694E00E945C
:102DE0005F2D80911103803130F467E774E086E64F
:102DF00094E00E945F2D4AE050E06091110353C9B6
:102E000066E574E0AECA8091100368E074E0882340
:102E100009F4A7CA66E374E086E694E00E94962D62
:102E200060910E0370910F0340E150E086E694E05C
:102E30000E94AA2E67E274E094CA80911703882347
:102E4000A1F080910101FF2019F0863008F069C1DE
:102E500090914D02903409F061C190914E02903FE3
:102E600009F05CC1833308F05CC1809101018F5F80
:102E7000893C08F0C1C28093010110926A038F2D32
:102E80008F7709F4BBC2411451046104710409F441
:102E900044C080911C038F3F29F08F5F80931C03F7
:102EA000F0921B03809109018823B9F1815080932E
:102EB0000901811132C06DE473E086E694E00E945E
:102EC000962D80911403882331F064E273E086E646
:102ED00094E00E94962D80911603882331F06EEFC6
:102EE00072E086E694E00E94962D109216031092EE
:102EF00014031092150361E872E086E694E00E94E4
:102F0000962D6091160390E080E00E945B0A60912C
:102F1000140381E090E00E945B0A80914D028034AE
:102F200069F480914E02811109C080914F02803175
:102F300011F00C947C2085E08093260263EB70E016
:102F4000F11007C0809117018150833030F460EB9D
:102F500070E086E694E00E945F2D8091170180FD6D
:102F600003C0FF2009F447C06DEA70E086E694E0F4
:102F70000E945F2D89819A818031974230F46BEAFB
:102F800070E086E694E00E945F2D89819A81883EF8
:102F9000E3E09E0708F010C669EA70E086E694E078
:102FA0000E945F2D67EA70E086E694E00E945F2D44
:102FB00089819A818436910530F465EA70E086E66D
:102FC00094E00E945F2D89819A810A9730F463EA28
:102FD00070E086E694E00E945F2D69817A814AE084
:102FE00050E086E694E00E94A42E60EA70E086E657
:102FF00094E00E945F2D80911701843008F0EFC5A6
:103000009DE4C92E92E0D92E5401F1E0AF1AB10827
:10301000C6018D549240881599050CF0E4C5809145
:103020001701882351F0D1018C9180FF06C06BE914
:1030300070E086E694E00E945F2D8091170188235E
:1030400051F0F101808181FF06C066E970E086E6FB
:1030500094E00E945F2D80911701882351F0D101E7
:103060008C9185FF06C061E970E086E694E00E94DD
:103070005F2D80911701882351F0F101808182FF3B
:1030800006C06CE870E086E694E00E945F2DD601F1
:103090000D916D0180910201882389F080911701C3
:1030A000813069F48BA19CA18A0F9B1F8A159B0517
:1030B00031F466E870E086E694E00E945F2D00310E
:1030C00030F464E870E086E694E00E945F2D40E111
:1030D00050E0602F86E694E00E948B2E80911701CD
:1030E000882351F0F101808183FF06C06FE770E013
:1030F00086E694E00E945F2D80911701882351F0AD
:10310000D1018C9184FF06C064E770E086E694E00C
:103110000E945F2DBFEF2B1A3B0A7ACF873908F444
:10312000A4CE90912503911105C090916703903F23
:1031300009F49BCE85508093010165EC71E0F1109C
:1031400002C068EC71E086E694E00E94832D8091D5
:103150004D02803128F460E386E694E00E948B2DD6
:1031600040E150E060914D0286E694E00E948B2E93
:1031700080914E02803128F460E386E694E00E945C
:103180008B2D40E150E060914E0286E694E00E9473
:103190008B2E80914F02803128F460E386E694E024
:1031A0000E948B2D40E150E060914F0286E694E052
:1031B0000E948B2E60E286E694E00E948B2D809127
:1031C0006703B12CA12C803F19F0A0902503B12CEE
:1031D000DA8CD501AE5ABC4FEC91E75FE93008F0CC
:1031E0003FC0F0E0EA50F74E0C94862F2D191819C5
:1031F0002A1924191E19FF18271921191B196EEBFA
:1032000073E086E694E00E945F2DFFEFAF1ABF0ADD
:1032100026E1A216B10411F4B12CA12C8091250352
:103220008A151B04B1F686E694E00E94922D1DCE0D
:1032300065EB73E0E6CF6CEA73E0E3CF63EA73E03B
:10324000E0CF6AE973E0DDCF61E973E0DACF68E8E7
:1032500073E0D7CF6FE773E0D4CF66E773E0D1CFE9
:103260000C91007E6C916F71698FF501EE0FFF1F5D
:10327000F8A3EF8FD1103AC0003429F460E286E65B
:1032800094E00E948B2DEF8DF8A1EA5DFC4FC08089
:10329000D1808091220290912302C81AD90AF3E0CA
:1032A000D694C794FA95E1F7FAE0CF16D10458F412
:1032B00060E286E694E00E948B2D60E286E694E070
:1032C0000E948B2D04C024E6C216D104B0F34AE05C
:1032D00050E0B60186E694E00E94A42E003409F482
:1032E00000C76AE386E694E00E948B2DEF8DF8A17B
:1032F000EA5DFC4F808191819093230280932202AA
:103300000036C9F168F4002371F1003409F05CC0A3
:1033100060E286E694E00E948B2D63EE71E066C069
:10332000003A29F0003C19F0003809F04DC0998DA1
:103330009A3008F042C063E5923008F446C0E98D47
:10334000E250FF0BBF014AE050E086E694E00E94A5
:10335000532E003679F1F0F5002351F00034E9F2F4
:1033600069EE71E043C06FE386E694E00E948B2D26
:1033700069ED71E03BC0398D333138F4333070F48E
:1033800063E5313030F460E204C0498D60E54531D9
:10339000D0F786E694E00E948B2D0CC0898D835077
:1033A000990BBC01759567954AE050E086E694E07C
:1033B0000E94532E6DED71E019C0A98D60E5AA3011
:1033C00021F065E4AB3009F060E286E694E00E940B
:1033D0008B2DBFCF6BEC71E0003A41F0003C09F45B
:1033E0009CCF6FEC71E0003809F0BACF86E694E02C
:1033F0000E94832DD12C09CF88EC3DCD90914D02B8
:10340000F1108BCD3AE083169104FCF091111DC0B0
:1034100080914E02811119C080914F028231A9F42E
:10342000809153028093FF0220910B01821769F073
:1034300020911403222339F020911503211103C098
:1034400021E02093150380930B01809107018530C3
:1034500009F0A0C080911503882309F49BC045E0C2
:10346000841691040CF459CD911199C090914E029B
:10347000903F09F094C090914F02903309F08FC0B3
:10348000982F9370913009F080C010926E021092C4
:103490006F0298EB9093700290E0959587959595C3
:1034A0008795809371020E94F023D82E882309F417
:1034B0005DC0E0902902009102012EE130E044E07D
:1034C0006EE672E088E193E00E94942ADA8E8091A1
:1034D00015038F5F863109F45AC0809315038091DC
:1034E0004D02803409F05DC080914E02982F9E7F7E
:1034F000903F09F012CD90914F02292F2073203375
:1035000009F00BCDA82FA170AD8F1E8E903329F43A
:10351000ED8DFE8DEB5FFE4F108229813A812C31BB
:10352000310508F0FECCED8DFE8DE95FFE4F108277
:10353000909116038913F5CC6DEE71E086E694E068
:103540000E945F2D40E150E060914E0286E694E0DB
:103550000E948B2E63EE71E086E694E00E94962D29
:103560001092160360E090E080E0D5CC60E372E05A
:1035700086E694E00E94962D80911A038F3F09F40D
:10358000A6CF8F5F80931A03A2CF1A8EA0CF10927E
:103590001503A5CF55E0851691040CF4BECC1A8E08
:1035A0009ECF8111BACC80914E02982F9E7F903F82
:1035B00009F0C8CC90914F02292F2073203309F0D5
:1035C000C1CCBA8DB111BECC903399F581708B8F7F
:1035D0001C8EEB8DFC8DEB5FFE4F8081823014F4EE
:1035E0008F5F8083EB8DFC8DE95FFE4F808185309E
:1035F00004F58F5F80838530E1F461EB71E086E64E
:1036000094E00E945F2D40E150E060914E0286E61A
:1036100094E00E948B2E90914E028091160363E8F5
:1036200071E0981711F06AE371E086E694E00E9479
:10363000962D80911603882309F46FCCE82FE17052
:10364000E9A31AA2E9A1FAA1E95FFE4F90819530A2
:1036500009F063CC90914E0289135FCC90E4909373
:103660006E0280936F0280914F028093700280916E
:1036700002016401F1E0CF1AD108811116C0640182
:1036800021E28216910489F46EE071E086E694E00E
:103690000E945F2D4AE050E061E270E086E694E02F
:1036A0000E945A2E40E2C42ED12CE0914F02E053EA
:1036B000EF3008F032CCF0E0E05AF44E0C94862F54
:1036C0006F1BA31BDD1B8D178D17ED1B511CA51C3C
:1036D000D01CFF1C161D5D1D8A1DA11DB81D23E0F9
:1036E000822F90E08C159D0534F482599D4FDC01AA
:1036F0001C922F5FF5CF80911203811104C080913D
:103700001003882319F081E08093750280910D03E6
:10371000882319F081E08093760280910A03882340
:1037200019F081E080937A0280910803882339F0B0
:10373000E0910603F0E0E05CFD4F81E0808324E649
:10374000A22EB12C19C023E0822F90E08C159D058C
:1037500054F4FC01E259FD4F835B9D4FDC018C91D9
:1037600080832F5FF1CF84EB8093750280E180939B
:1037700076023EE1A32EB12C0E94F023882309F4A7
:1037800008C2E09029020091020195014C2D6EE6DD
:1037900072E088E193E00E94942A809107032091CF
:1037A000F1023091F202820F932F911D9093F20259
:1037B0008093F10210920703B0CB23E0822F90E0B8
:1037C0008C159D05B4F6FC01E259FD4F835B9D4FBE
:1037D000DC018C9180832F5FF1CF23E0822F90E07A
:1037E0008C159D0534F482599D4FFC0110832F5F89
:1037F000F5CF80910803882309F451C09091060306
:10380000953309F04CC02091040390910503209357
:103810007102909372029091000390937302815011
:103820008093080381E080930703E6E08091120310
:103830008823B9F0AE2FB0E0A259BD4F80E48C933D
:10384000A1E0AE0FB0E0A259BD4F1C92A2E0AE0FB6
:10385000B0E0ED5FA259BD4F809111038C9310929F
:10386000120380911003882309F483CF90911001F3
:1038700080911101AE2FB0E0A259BD4F9C93A1E001
:10388000AE0FB0E0A259BD4F8C93EE5FF0E0E2596D
:10389000FD4F80910E038083109210036ACFE3E006
:1038A000C5CF23E0822F90E08C159D0534F482591A
:1038B0009D4FDC011C932F5FF5CF80910803882377
:1038C00009F441C0909106039633E9F52091040371
:1038D000909105032093710290937202209100034E
:1038E000909101032093730290937402815080930E
:1038F000080381E080930703E7E080910D038823AC
:1039000009F437CF90910E0180910F01AE2FB0E0F6
:10391000A259BD4F9C93A1E0AE0FB0E0A259BD4F9C
:103920008C9390910B0380910C03A2E0AE0FB0E05A
:10393000A259BD4F9C93ED5FF0E0E259FD4F8083AB
:1039400010920D0316CFE3E0D8CF23E0822F90E052
:103950008C159D0534F482599D4FFC0110832F5F17
:10396000F5CF80910803882309F403CF90910603D3
:10397000973309F0FECE2091040390910503209324
:103980007102909372023091000320910103909193
:103990000203309373022093740290937502B3C0B4
:1039A00023E0822F90E08C159D0534F482599D4FC1
:1039B000DC011C932F5FF5CF80910803882309F465
:1039C000D8CE90910603983309F0D3CE209104030A
:1039D000909105032093710290937202409100032D
:1039E00030910103209102039091030340937302ED
:1039F00030937402209375029093760284C023E082
:103A0000822F90E08C159D0534F482599D4FFC0166
:103A100010832F5FF5CF80910803882309F4A9CE86
:103A200090910603993309F0A4CED0CF23E0822FE2
:103A300090E08C159D0534F482599D4FDC011C9358
:103A40002F5FF5CF809108038823A9F19091060399
:103A50009A3389F520910403909105032093710214
:103A6000909372029091000390937302815080931F
:103A7000080381E080930703E6E080910A0388232E
:103A800009F477CE90910C0180910D01AE2FB0E03A
:103A9000A259BD4F9C93A1E0AE0FB0E0A259BD4F1B
:103AA0008C93EE5FF0E0E259FD4F80910903808333
:103AB00010920A035ECEE3E0E0CF23E0822F90E095
:103AC0008C159D0534F482599D4FFC0110832F5FA6
:103AD000F5CF80910803882309F44BCE909106031B
:103AE0009B3309F046CE2091040390910503209367
:103AF0007102909372022091000390910103209330
:103B000073029093740281508093080381E0809344
:103B100007032FCE23E0822F90E08C159D0534F40F
:103B200082599D4FDC011C932F5FF5CF80910803D4
:103B3000882309F41ECE909106039C3309F019CE18
:103B40001ACF23E0822F90E08C159D0534F4825922
:103B50009D4FFC0110832F5FF5CF809108038823D0
:103B600009F407CE909106039D3309F002CE2ECFC3
:103B7000809150028093710224E0822F90E08C1596
:103B80009D050CF0F6CD82599D4FDC011C932F5FF3
:103B9000F4CF66EB70E086E694E00E94962D80916B
:103BA0001A038F3F09F406CE8F5F80931A0302CE6B
:103BB00085E080932502C2C968EE73E00E94502F11
:103BC0004AE050E086E694E00E94A42E89819A8122
:103BD00068EE73E00E94502F9A838983E3C9FF2027
:103BE00009F441C20DCAFF20F9F06DEE71E086E6DE
:103BF00094E00E94832DEFE0EF1528F060E386E665
:103C000094E00E948B2D60E386E694E00E948B2D69
:103C100060E386E694E00E948B2D40E150E06F2D3A
:103C200086E694E00E948B2E86E694E00E94922D18
:103C30001AC280912602853008F465C010922602CF
:103C400010926E0210926F028DE08093700280914C
:103C50002A02882309F44CC19E012F5F3F4F69015E
:103C6000AE01475F5F4F7A018E01055F1F4F2C5FEA
:103C70003F4F4C5F5F4FBE01615F7F4F88E193E034
:103C80000E94BF218F859889909371028093720260
:103C90008D859E8590937302809374028D819E81A1
:103CA0002F813885309375022093760290937702A6
:103CB000809378028B859C859093790280937A0219
:103CC00089859A8590937B0280937C0289819A8171
:103CD0002B813C8130937D0220937E0290937F0262
:103CE00080938002109281021092820210928302CD
:103CF0001092840280911701843028F467E18EE6E7
:103D000092E00E94500C80912502853008F454C046
:103D10001092250210926E0210926F028EE0809334
:103D2000700270927102609272025092730240921D
:103D30007402109275028AE78093760282E1809382
:103D400077021092780280911A0380937902809111
:103D5000140380937A028091150380937B028091F3
:103D6000190380937C028091080380937D028091E7
:103D7000060380937E028091040390910503909343
:103D80007F02809380028091000390910103209133
:103D900002033091030330938102209382029093B7
:103DA00083028093840280911701843028F467E1B4
:103DB0008EE692E00E94500C80912402853008F437
:103DC0007EC01092240210926E0210926F028FE059
:103DD000809370028DE380937102B0901701B092CE
:103DE0007202809113038093730280910A01809381
:103DF000740280910901809375028091F102909183
:103E0000F20290937602809377028091150190914F
:103E1000160190937802809379028091130190911A
:103E2000140190937A0280937B0280912A028093FE
:103E30007C0290E080E00E946F0A80937D0282E025
:103E400090E00E946F0A80937E0281E090E00E94E1
:103E50006F0A80937F0280E2C82E81E0D82E00E1B5
:103E600010E0FF24F394C8010E946F0AD6012D913F
:103E70006D01022E000C330B91E08217130609F03E
:103E800090E0F9220F5F1F4F0931110561F7F092A1
:103E900080021092810280911C03809382028091A3
:103EA0001B03809383028091160380938402B3E006
:103EB000BB1528F067E18EE692E00E94500CA496B4
:103EC0000FB6F894DEBF0FBECDBFDF91CF911F912B
:103ED0000F91FF90EF90DF90CF90BF90AF909F90A9
:103EE0008F907F906F905F904F903F902F900895AC
:103EF000E1E7F2E085E892E011928E179F07E1F783
:103F0000F9CE833611F00C94150DF29010820A3020
:103F1000110511F40C94FA0C66E471E086E694E065
:103F20000E94832D6EE872E086E694E00E94832D65
:103F30006F2D86E694E00E948B2D4AE050E0B80198
:103F400086E694E00E94532E67E771E086E694E0EF
:103F50000E94A82D81E0809300018EE892E090936A
:103F600004018093030110922B0288E193E00E94E8
:103F7000D32A2B013C018091FB029091FC02A0917D
:103F8000FD02B091FE0284159505A605B705BCF4A7
:103F9000809126028F5F80932602809125028F5F99
:103FA00080932502809124028F5F809324024092A7
:103FB000FB025092FC026092FD027092FE02809120
:103FC000F7029091F802A091F902B091FA02AC01C7
:103FD000BD01415F514F6F4F7F4F44155505660539
:103FE00077059CF420910A01243618F42F5F209362
:103FF0000A01805F914FAF4FBF4F8093F7029093BC
:10400000F802A093F902B093FA028091F302909122
:10401000F402A091F502B091F602AC01BD01415F3E
:10402000514F6F4F7F4F44155505660577059CF43A
:1040300020910901243118F42F5F20930901805F3A
:10404000914FAF4FBF4F8093F3029093F402A09330
:10405000F502B093F6021FEF8DE492E0DC01A0952B
:10406000B095BCA3ABA388E193E00E94DF298A8FBF
:10407000882309F4DECDC0902902E090020101E21C
:104080002CE232E0AE014F5F5F4F6DE472E088E1F9
:1040900093E00E94112A4C01F12C829794F067EC76
:1040A00073E086E694E00E94962D809119038F3F7D
:1040B00019F08F5F8093190301E2802E912CFF2469
:1040C000FA94BCE22B2EB2E03B2EF101CF018C52D0
:1040D00092408815990514F00C941D178191F82AC7
:1040E000F5CFEF8DF8A1EA5DFC4F8081918190932F
:1040F0002302809322020CC9813109F459CD823107
:1041000011F00C949E1785E0809324020C949E1766
:104110001F920F920FB60F921124CF92DF92EF925F
:10412000FF922F933F934F935F936F937F938F9360
:104130009F93AF93BF93809178002091790030E0F6
:10414000322F2227820F932F911DB0E0A0E0209103
:104150001B01222309F493C010921B0120916304D8
:1041600020937C0020915504309156042F5F3F4FDF
:10417000309356042093550440914F0450915004BD
:104180006091510470915204840F951FA61FB71FB0
:1041900080934F0490935004A0935104B093520421
:1041A000A901542F44275295507F452B09F051C047
:1041B00040914B0450914C0460914D0470914E0419
:1041C000480F591F6A1F7B1F40934B0450934C04A8
:1041D00060934D0470934E04C0901E01D0901F0157
:1041E000F12CE12C8C159D05AE05BF0520F49093B4
:1041F0001F0180931E01C0906104D0906204F12CD5
:10420000E12CC816D906EA06FB0620F49093620456
:104210008093610410924F04109250041092510444
:1042200010925204A4E0220F331FAA95E1F7232B2A
:1042300081F440935D0450935E0460935F04709337
:10424000600410924B0410924C0410924D04109292
:104250004E048EED80937A00BF91AF919F918F9124
:104260007F916F915F914F913F912F91FF90EF90D0
:10427000DF90CF900F900FBE0F901F90189521E008
:1042800020931B012091640420937C00209153040F
:10429000309154042F5F3F4F3093540420935304C4
:1042A00040914704509148046091490470914A0438
:1042B000840F951FA61FB71F80934704909348044F
:1042C000A0934904B0934A04A901542F442752955E
:1042D000507F452B09F0BDCF4091430450914404D9
:1042E0006091450470914604480F591F6A1F7B1F57
:1042F00040934304509344046093450470934604F0
:10430000C0901C01D0901D01F12CE12C8C159D0555
:10431000AE05BF0520F490931D0180931C01C09051
:104320005B04D0905C04F12CE12CC816D906EA0697
:10433000FB0620F490935C0480935B041092470486
:10434000109248041092490410924A0484E0220F0B
:10435000331F8A95E1F7232B09F07BCF4093570455
:10436000509358046093590470935A041092430474
:104370001092440410924504109246046ACFCF92E2
:10438000DF92EF92FF920F931F9380916504882331
:1043900009F44EC086E880937A0080911E019091C6
:1043A0001F01FB01918380838091610490916204DD
:1043B000FA019183808380915D0490915E04A091C5
:1043C0005F04B0916004F90180839183A283B38379
:1043D00080911C0190911D01F8019183808380914F
:1043E0005B0490915C04F701918380838091570472
:1043F00090915804A0915904B0915A04F601808319
:104400009183A283B38380EF9FE390931F018093F6
:104410001E01109262041092610490931D0180931A
:104420001C0110925C0410925B048EE880937A0069
:104430001F910F91FF90EF90DF90CF900895CF9252
:10444000DF92EF92FF920F93CF93DF936B017C018A
:10445000D42FC22F96958795779567957E5E854870
:104460009F4FA70196010E94642F3093420420932E
:104470004104B90176956795CB01820F931F909304
:10448000400480933F04C901F3E096958795FA951F
:10449000E1F7860F971F90933E0480933D04569555
:1044A00047953795279530933C0420933B04C901E9
:1044B000880F991F280F391F30933A04209339042D
:1044C00061E082E00E94052B61E086E00E94052BFE
:1044D00061E085E00E94052B61E083E00E94052BEE
:1044E000429A5E9A5D9A5B9A62E088E00E94052B90
:1044F00061E089E00E94412B61E089E00E94052B88
:1045000010927903109278031092380410923304B9
:104510008FEF80933204109231041092CC031092EA
:10452000CB031092C6031092C5031092770310922A
:10453000760382E084BD94E095BD99EF97BD10921B
:10454000710310927203109273031092740310920D
:104550006D0310926E0310926F031092700316BCDD
:1045600021E023BD85BB80936E008093B00023E0E3
:104570002093B1009093B30083BD1092B2001092CB
:1045800079031092780387BB8093700010926F00BC
:104590001092800081E880938100809181008F7B60
:1045A0008093810080918000806C80938000809156
:1045B000820080688093820080E286BB80916F00D9
:1045C000806280936F00D0936504DD2301F18C2F0E
:1045D000806C80936404802F806C8093630421E05E
:1045E00030E0C90101C0880FCA95EAF701C0220F67
:1045F0000A95EAF7822B8F7380937E008091640482
:1046000080937C0010927B008EED80937A00DF9186
:10461000CF910F91FF90EF90DF90CF9008951F9270
:104620000F920FB60F9211248F939F93AF93BF9366
:1046300080916D0390916E03A0916F03B091700310
:104640000896A11DB11D80936D0390936E03A093F6
:104650006F03B0937003809175038F5F8093750330
:104660008D37A8F0109275038091710390917203B9
:10467000A0917303B09174030196A11DB11D8093A5
:10468000710390937203A0937303B0937403BF916B
:10469000AF919F918F910F900FBE0F901F90189523
:1046A0001F920F920FB60F9211242F933F938F9367
:1046B0009F938091780390917903019649F08091BE
:1046C000780390917903019690937903809378030E
:1046D0008091CC03833609F06BC020917803309130
:1046E0007903809176039091770328173907C1F0F9
:1046F000209178033091790380917603909177032C
:104700002817390708F454C02091780330917903B1
:104710008091190190911A012817390708F448C0AF
:1047200081E08093CC032091390430913A04809148
:104730006B03882321F080916A0391E0811190E05E
:1047400090936C0380916C03882351F081E08093F7
:104750006A031092250380EF809367031092690328
:1047600090916F009F7D90936F0090916F009B7F61
:1047700090936F001092700080918400909185005A
:10478000820F931F9093890080938800809180000E
:104790008F7B806880938000809181008F7B8093E5
:1047A0008100B19A80916F00826080936F005D9A62
:1047B0009F918F913F912F910F900FBE0F901F905F
:1047C00018958230910510F482E090E090932403D4
:1047D00080932303089590931A01809319010895FB
:1047E0002091C5039091C60381E0291380E00895CC
:1047F0009091C6039F5F993108F090E02091C50326
:104800002917E1F36FB7F8942091CC03409123036B
:10481000509124032223A9F0292F30E0F901E45517
:10482000FC4F8083220F331FF901E658FC4F518360
:10483000408310922403109223039093C6036FBF0A
:1048400008958093CA038093C8031092C7031092FF
:1048500022031092210383E68093CC0350937703C5
:10486000409376031092240310922303E8CF1F9203
:104870000F920FB60F9211242F933F934F935F9394
:104880006F937F938F939F93EF93FF938091CC03CC
:10489000409184005091850060918800709189005A
:1048A000843108F0AFC120913B0430913C04260FC5
:1048B000371F309389002093880093B1917080FF57
:1048C000E8C020918000206C20938000209181001E
:1048D000206420938100813009F05EC0209178032C
:1048E000309179033093200320931F0310927000BE
:1048F000911192C01092210393B19170B59B59C14F
:10490000209186003091870040E246BB992309F44C
:1049100032C190916C03992359F1909168039111E0
:1049200004C090916903911123C0E0912503F0E048
:10493000EE0FFF1FEA5DFC4F31832083E0912503DA
:10494000F0E0EE5AFC4F982F9066908390912503EB
:104950009F5F90932503963111F410922503909157
:104960006903992329F0909168039150909368030B
:104970008093CB038F5F8093CC03FF91EF919F9146
:104980008F917F916F915F914F913F912F910F90F8
:104990000FBE0F901F901895833169F422E023BD5C
:1049A0001092B20061E070E0709379036093780335
:1049B00027BB209370002091C903291709F49CCFCD
:1049C0009091210392609093210390916C0399231D
:1049D00009F492CF90916803911104C090916903FA
:1049E00091118ACF90916903911106C091E0909343
:1049F00069039BE090936803E0912503F0E0EE0FDC
:104A0000FF1FEA5DFC4F51834083E0912503F0E0F6
:104A1000EE5AFC4F9CEF28C08093210390916C03C9
:104A2000992309F469CF90916803911104C0909182
:104A30006903911161CF90916903911106C091E0D2
:104A4000909369039BE090936803E0912503F0E065
:104A5000EE0FFF1FEA5DFC4F51834083E091250379
:104A6000F0E0EE5AFC4F9FEF9083909125039F5FFB
:104A700090932503963111F41092250390916903C8
:104A8000992309F439CF909168039150909368036A
:104A900033CF823108F05FC02091CA03622F61706A
:104AA00020FD0BC0209180002F7B20682093800088
:104AB000209181002F7B209381002091C70326271E
:104AC0002093C7032091CA0330E0359527952093A2
:104AD000CA0391113DC090912103906290932103EC
:104AE00090916C039923A1F190916803911104C0F6
:104AF0009091690391112CC090916903911106C0A6
:104B000091E0909369039BE090936803E091250303
:104B1000F0E0EE0FFF1FEA5DFC4F51834083E09110
:104B20002503F0E0EE5AFC4F9EEF90839091250311
:104B30009F5F90932503963111F410922503909175
:104B40006903992329F09091680391509093680329
:104B50006093C903D1CE6091C7036111BACF209190
:104B600080002F7B206820938000209181002F7B84
:104B700020938100AECF90916C03992309F4F8CE75
:104B800090916803911104C0909169039111F0CE46
:104B9000E0912503F0E0EE0FFF1FEA5DFC4F31834B
:104BA0002083E0912503F0E0EE5AFC4F982F9064AB
:104BB000CCCE9111DDCE90916C03992309F4D8CE1F
:104BC00090916803911104C0909169039111D0CE26
:104BD00090916903911106C091E0909369039BE065
:104BE00090936803E0912503F0E0EE0FFF1FEA5D6C
:104BF000FC4F51834083E0912503F0E0EE5AFC4FD7
:104C000097EFA3CE93B19170B59BC3C0409186003E
:104C10005091870030E236BB992309F4A2C09091ED
:104C20006C03992351F190916803911104C0909104
:104C30006903911122C0E0912503F0E0EE0FFF1F00
:104C4000EA5DFC4F518340838066E0912503F0E0EC
:104C5000EE5AFC4F8083809125038F5F809325035C
:104C6000863111F41092250380916903882329F07D
:104C70008091680381508093680380912103882389
:104C800029F05B9A8091C6038093C5038091180137
:104C9000882339F1E091330421E02E0F293108F007
:104CA00020E080913104821709F49CC0822F90E0AB
:104CB0003091C803FC01E85EFB4F308340911F0335
:104CC00050912003FC01EE0FFF1FE353FC4F518373
:104CD00040833091210381509C4FFC01308320930D
:104CE00033049091C6038091C503981709F4A6C0B8
:104CF0008F5F893108F080E08093C50390E0FC016C
:104D0000E455FC4F30813093CA033093C803880FB9
:104D1000991FFC01E658FC4F80819181109222037B
:104D20001092C7038230910508F067C08091880017
:104D3000909189002091390430913A04820F931F99
:104D40009093890080938800809180008F7B806899
:104D500080938000809181008F7B8093810081E02F
:104D60000ACE90916C03992309F487CF9091680340
:104D7000911104C09091690391117FCFE0912503B7
:104D8000F0E0EE0FFF1FEA5DFC4F5183408380642B
:104D90005CCF911172CF80916C03882309F46DCFA1
:104DA00080916803811104C080916903811165CFEE
:104DB00080916903811106C081E0809369038BE0D3
:104DC00080936803E0912503F0E0EE0FFF1FEA5D9A
:104DD000FC4F51834083E0912503F0E0EE5AFC4FF5
:104DE00087EF38CF20913304E22FF0E0E150FC4F01
:104DF0008081886080835B9A74CF33E63093CC03E4
:104E0000909377038093760380916F008D7F8093DA
:104E10006F00809181008F7B8093810080E286BB50
:104E200080916F00806280936F00E22FF0E0E1508C
:104E3000FC4F8081806880835D989FCD1092CC0369
:104E4000E3CF8091CC038111FCCF089580936B0355
:104E500008958093180108951F920F920FB60F9234
:104E600011242F933F934F935F936F937F938F936F
:104E70009F93EF93FF93209186003091870080915C
:104E8000840090918500809138048111D3C05E9A8E
:104E90005D985B98909132049F3F39F09091320475
:104EA000909333049FEF9093320440917803509194
:104EB00079035093200340931F0310927000409198
:104EC0003F0450914004420F531F509335044093C8
:104ED000340492E0909338041092360450938B007F
:104EE00040938A0094E096BB90916F0094609093F9
:104EF0006F00811116C090916A03911112C09091B8
:104F00006B0390936C0390916C03992351F091E0A3
:104F100090936A031092250390EF90936703109289
:104F2000690390916C03992351F190916803911159
:104F300004C090916903911122C0E0912503F0E033
:104F4000EE0FFF1FEA5DFC4F31832083806CE09100
:104F50002503F0E0EE5AFC4F8083809125038F5F9C
:104F600080932503863111F4109225038091690303
:104F7000882329F0809168038150809368033093DF
:104F80001E0320931D032EC090916C03992351F1B1
:104F900090916803911104C090916903911122C00E
:104FA000E0912503F0E0EE0FFF1FEA5DFC4F318337
:104FB0002083806AE0912503F0E0EE5AFC4F808365
:104FC000809125038F5F80932503863111F4109221
:104FD000250380916903882329F08091680381501B
:104FE00080936803FF91EF919F918F917F916F91D3
:104FF0005F914F913F912F910F900FBE0F901F9097
:1050000018958A3009F08DCF4091340450913504C1
:105010006091410470914204460F571F509335042C
:105020004093340450938B0040938A0094E096BBE5
:105030009BE031C040911D0350911E03B901641BD8
:10504000750B40913D0450913E046417750708F4B8
:105050009BCF823008F41ECF8A3098F640913704F7
:1050600050E0559547954093370440913404509152
:1050700035046091410470914204460F571F5093CC
:1050800035044093340450938B0040938A0094E09D
:1050900096BB91E0980F9093380443CF1F920F92E4
:1050A0000FB60F9211242F933F934F935F936F93FB
:1050B0007F938F939F93AF93BF93EF93FF936091F1
:1050C0008A0070918B0040918400509185009091EE
:1050D0003804913061F580916F008B7F80936F0071
:1050E00010923804809132048F3F79F0809132041D
:1050F00080933304E0913304F0E0E150FC4F808171
:10510000806880838FEF809332045E98FF91EF91E7
:10511000BF91AF919F918F917F916F915F914F91CF
:105120003F912F910F900FBE0F901F901895A09157
:105130003404B091350420914104309142049B30F5
:1051400009F0BEC08AE0829FF001839FF00D112418
:10515000EA0FFB1FF0938B00E0938A0081E08093BD
:105160003804809133048F5F893108F080E020910A
:105170003104281709F459C0E82FF0E020913704D2
:10518000DF01A85EBB4F2C9320911F0330912003B9
:10519000DF01AA0FBB1FA353BC4F11963C932E9364
:1051A000E150FC4F108220913604222309F4B8C04C
:1051B00020812460208320916C032223A1F120917F
:1051C0006803211104C02091690321112CC0209192
:1051D0006903211106C021E0209369032BE020938D
:1051E0006803E0912503F0E0EE0FFF1FEA5DFC4F3E
:1051F00071836083E0912503F0E0EE5AFC4F2DEFC0
:105200002083209125032F5F20932503263111F45D
:105210001092250320916903222329F0209168032D
:105220002150209368035B9A0BC0E0913304F0E0B7
:10523000E150FC4F8081886080835B9A80913304C9
:105240008093320482E083BD1092B20021E030E00E
:10525000309379032093780387BB8093700080910B
:105260006C03882309F452CF80916803811104C034
:105270008091690381114ACFE0912503F0E0EE0FA0
:10528000FF1FEA5DFC4F518340839068E091250346
:10529000F0E0EE5AFC4F9083809125038F5F80935E
:1052A0002503863111F41092250380916903882328
:1052B00009F42CCF8091680381508093680326CF36
:1052C0008091360460E8680F2A0F3B1F9A3099F4EA
:1052D000609336046BE06093380430933504209378
:1052E000340430938B0020938A00803811F05B9A4D
:1052F000B6CF5B98B4CF8091370486958068809351
:1053000037046093360481E0890F8093380430932A
:1053100035042093340430938B0020938A009FCF70
:105320005B988ECF80913304E09131048E1761F049
:10533000EF5FE93108F0E0E0F0E0EE0FFF1FE3532C
:10534000FC4F80819181089590E080E008958091E4
:105350003304E09131048E1749F0EF5FE93108F032
:10536000E0E0F0E0E150FC4F8081089580E0089596
:105370008091330490913104891761F09F5F9931D6
:1053800008F090E0E92FF0E0E85EFB4F8081909319
:105390003104089580E00895209133049091310400
:1053A000291728F081E0291309C080E007C030E008
:1053B000275E3F4F81E092171306B9F308952091BD
:1053C000330480913104821769F08F5F893108F0CE
:1053D00080E0E82FF0E0E150FC4F908197FFF3CFA1
:1053E00081E0089580E00895809131048093330432
:1053F0000895CF93DF93CFE6D0E088818B7F8883B9
:1054000088818F7D88830E94F4290E9421278881CA
:105410008D7F88831092700010926E00DF91CF9183
:1054200008952F923F924F925F926F927F928F9248
:105430009F92AF92BF92CF92EF920F93CF93DF9351
:105440005C013B012A014901C0E0202F2150330BB0
:105450001401220E331EC5010E94CC298823D9F3E2
:10546000C5010E94A729D82F8114910441F0982FDB
:105470009F77C01728F5F401EC0FF11D9083C1113F
:1054800006C0C5010E949229F20191838083C50163
:105490000E94B829D7FF19C0EE2009F442C0C017F6
:1054A00048F5EC2FF0E0D301AE0FBF1F8C938C15A5
:1054B00009F1E80DF91D8081806180835B9A1AC033
:1054C000F1018081892B8083DACFC01720F4F301AA
:1054D000EC0FF11D8083EE2069F098E02C2D30E078
:1054E00035952795C826C0FE1AC0CE2CC2268695B3
:1054F0009150A1F7CF5FD7FFAECF8C2F90E0DF9117
:10550000CF910F91EF90CF90BF90AF909F908F90E1
:105510007F906F905F904F903F902F900895C22E94
:10552000E6CFC017A0F2E6CFCF92DF92EF920F93B3
:105530001F93CF93DF93D62E172FC42EC9010E943D
:10554000E123CD2DD12FCC0EDD2ED11CCC16DD06C6
:10555000B1F01991812F0E94F8230023B9F328E0BC
:105560008E2D90E095958795E126E0FE06C0E02E11
:10557000E82616952150A1F7E9CFE82EFACF0023AF
:1055800051F08E2DDF91CF911F910F91EF90DF9011
:10559000CF900C94F823DF91CF911F910F91EF9052
:1055A000DF90CF90089560917103709172038091A4
:1055B0007303909174030895843081F028F482304D
:1055C000E9F08330F9F00895883071F0893091F076
:1055D0008530B9F4809180008F7D03C08091800078
:1055E0008F778093800008958091B0008F778093AB
:1055F000B00008958091B0008F7DF9CF84B58F778A
:1056000084BD089584B58F7DFBCFCF93DF9390E069
:10561000FC01E45EFB4E24918D5C9B4EFC01849169
:105620008823C9F090E0880F991FFC01EC5AFB4ECB
:10563000A591B491FC01E65BFB4EC591D49161113B
:105640000DC09FB7F8948C91209582238C9388810C
:10565000282328839FBFDF91CF910895623051F4B2
:105660009FB7F8943C91822F809583238C93E88197
:105670002E2BEFCF8FB7F894EC912E2B2C938FBF5E
:10568000EACF1F93CF93DF93282F30E0F901EB5F30
:10569000FB4E8491F901E45EFB4ED491F901ED5C7F
:1056A000FB4EC491CC23A9F0162F81110E94DC2A55
:1056B000EC2FF0E0EE0FFF1FE65BFB4EA591B491DF
:1056C0008FB7F894EC91111108C0D095DE23DC93CC
:1056D0008FBFDF91CF911F910895DE2BF8CFFC0192
:1056E000918D228D892F90E0805C9F4F821B9109C4
:1056F0008F7399270895FC01918D828D981731F051
:10570000828DE80FF11D858D90E008958FEF9FEF5A
:105710000895FC01918D828D981761F0A28DAE0FD6
:10572000BF2FB11D5D968C91928D9F5F9F73928F5D
:1057300090E008958FEF9FEF0895FC01538D448D05
:10574000252F30E0842F90E0821B930B541710F02C
:10575000CF960895019708958CEE9CE2892B49F02D
:1057600080E090E0892B29F00E94EC2C81110C94B0
:1057700000000895FC01A48DA80FB92FB11DA35AF4
:10578000BF4F2C91848D90E001968F739927848F61
:10579000A689B7892C93A089B1898C9180648C9358
:1057A000938D848D981306C00288F389E02D808143
:1057B0008F7D80830895CF93DF93EC01888D8823BC
:1057C000B9F0AA89BB89E889F9898C9185FD03C064
:1057D000808186FD0DC00FB607FCF7CF8C9185FF49
:1057E000F2CF808185FFEDCFCE010E94BA2BE9CFA9
:1057F000DF91CF910895EF92FF920F931F93CF9374
:10580000DF93EC0181E0888F9B8D8C8D981316C0FF
:10581000E889F989808185FF11C0EE89FF8960835D
:10582000E889F98980818064808381E090E0DF915C
:10583000CF911F910F91FF90EF900895F62E0B8D51
:1058400010E00F5F1F4F0F731127E02E8C8D8E110C
:105850000CC00FB607FCFACFE889F989808185FF73
:10586000F5CFCE010E94BA2BF1CFEB8DEC0FFD2FBF
:10587000F11DE35AFF4FF0820B8FEA89FB8980818B
:105880008062D2CFCF92DF92EF92FF921F93CF939D
:10589000DF93EC016A017B01122F60E874E88EE16E
:1058A00090E0A70196010E94642F2150310941091F
:1058B00051095695479537952795E889F98982E0EA
:1058C0008083211580E1380798F0E889F9891082F2
:1058D00060E472E48FE090E0A70196010E94642FDB
:1058E000215031094109510956954795379527951A
:1058F000EC85FD853083EE85FF852083188EEC894D
:10590000FD891083EA89FB89808188698083EA891F
:10591000FB8980818F7D8083DF91CF911F91FF90E4
:10592000EF90DF90CF9008951F920F920FB60F92D5
:1059300011242F938F939F93EF93FF93E09176041D
:10594000F09177048081E0917C04F0917D0482FDE8
:105950001BC0908180917F048F5F8F7320918004A2
:10596000821741F0E0917F04F0E0EA59FB4F958FF8
:1059700080937F04FF91EF919F918F912F910F90D2
:105980000FBE0F901F9018958081F4CF1F920F9239
:105990000FB60F9211242F933F934F935F936F9302
:1059A0007F938F939F93AF93BF93EF93FF9386E67D
:1059B00094E00E94BA2BFF91EF91BF91AF919F911C
:1059C0008F917F916F915F914F913F912F910F90A8
:1059D0000FBE0F901F90189586E694E00E946F2BE3
:1059E00021E0892B09F420E0822F0895E6E6F4E017
:1059F0001382128288EE93E0A0E0B0E08483958366
:105A0000A683B78381E192E09183808385EC90E067
:105A10009587848784EC90E09787868780EC90E078
:105A2000918B808B81EC90E0938B828B82EC90E069
:105A3000958B848B86EC90E0978B868B118E128EE3
:105A4000138E148E0895AF92BF92CF92DF92EF9291
:105A5000FF920F931F93CF93DF936C017B018B0118
:105A6000040F151FEB015E01AE18BF08C017D10768
:105A700059F06991D601ED91FC910190F081E02DF2
:105A8000C6010995892B79F7C501DF91CF911F9147
:105A90000F91FF90EF90DF90CF90BF90AF9008955F
:105AA000FB0101900020E9F73197AF01461B570B2E
:105AB000DC01ED91FC910280F381E02D0994EF92DD
:105AC000FF920F931F93CF93DF938C017B01D0E064
:105AD000C0E0F701EC0FFD1F6491662361F0D8016F
