:100000000C949B0B0C94C30B0C94C30B0C94C30B60
:100010000C94C30B0C94C30B0C94C30B0C94A4262C
:100020000C94C30B0C94C30B0C94802A0C948B2758
:100030000C94A22B0C94C30B0C9463260C94C30B4E
:100040000C9443320C94C30B0C94F92F0C942B306A
:100050000C94C30B0C94C3230C94C30B0C94C30BD0
:100060000C94C30B0C94C30B6364696E6F7073754F
:1000700078585B0020726561644572726F723D3022
:10008000780020435243206572726F72003A4F52DB
:100090002D00204352433D002D50453A002D424350
:1000A0003A002D58583A002D53423A003A20002E7B
:1000B0000020005420005220004520002A205265D4
:1000C000667573696E6720746F2077726974652036
:1000D0007061636B6574207768696C652070726508
:1000E00076696F7573207061636B657420776173D7
:1000F0006E27742066696E69736865642C20666C6F
:10010000757368696E6720777269746520616374BE
:10011000696F6E002A20417474656D707420746F6D
:100120002072657374617274204461696B696E003A
:100130002A20496E7365727420757365722D737011
:1001400065636966696564206D65737361676500E1
:100150002A2053757270726973653A2072656365FF
:100160006976656420303046783378207061636B3F
:100170006574206F662073697A6520002064657459
:1001800065637465642C20737769746368696E674E
:1001900020636F6E74726F6C2066756E6374696F26
:1001A0006E616C6974792063616E2062652073777B
:1001B000697463686564206F6E20287573696E6763
:1001C000204C3129002064657465637465642C20BB
:1001D000636F6E74726F6C2066756E6374696F6E98
:1001E000616C6974792077696C6C207265737461D5
:1001F0007274002A204E6F20617578696C69617293
:100200007920636F6E74726F6C6C657220616E73AF
:10021000776572696E6720746F20616464726573BC
:100220007320307800206465746563746564002A07
:10023000205761726E696E673A20616E6F746865EF
:100240007220617578696C6961727920636F6E7470
:10025000726F6C6C657220697320616E7377657262
:10026000696E6720746F20616464726573732030F7
:1002700078002A205265667573696E6720746F2056
:10028000777269746520636F756E7465722D72651F
:100290007175657374207061636B6574207768692C
:1002A0006C652070726576696F7573207061636B21
:1002B0006574207761736E27742066696E69736850
:1002C0006564002A205761726E696E673A20557026
:1002D0006F6E2041546D6567612072657374617241
:1002E0007420617578696C6961727920636F6E74CE
:1002F000726F6C6C65722066756E6374696F6E6187
:100300006C69747920616E6420636F756E746572B8
:1003100020726571756573742066756E6374696F9C
:100320006E616C6974792077696C6C2072656D619F
:10033000696E207377697463686564206F66660010
:100340002A20537769746368696E6720636F6E74DF
:10035000726F6C2066756E6374696F6E616C697420
:1003600079206F6666002A20537769746368696E26
:100370006720636F756E7465722072657175657341
:10038000742066756E6374696F6E206F6666002AEE
:10039000205741524E494E473A20746F6F206D618D
:1003A0006E792072656164206572726F7273206469
:1003B0006574656374656400203F2000E280BE5C64
:1003C0005F005F2FE280BE005F5F5F00E280BEE201
:1003D00080BEE280BE002D582D002020206C7720AA
:1003E0002020002020207065202020002020205088
:1003F0004520202000202020626320202000202093
:100400002042432020200020202073622020200052
:100410002020205342202020002020206265202020
:10042000200020202042452020200063200043207F
:10043000002A205265636569766564207061636B8C
:100440006574206C6F6E676572207468616E2052EF
:10045000425F53495A45002A20436F6D6D616E64B7
:10046000206E6F7420756E64657273746F6F643A7A
:1004700020003A206E6F204448572D7772697465CA
:100480002D726571756573742070656E64696E6731
:1004900000207374696C6C2070656E64696E67000F
:1004A0003A204448572D77726974652D72657175CD
:1004B00065737420746F2076616C756520307800E8
:1004C0002A2043757272656E746C79206E6F207786
:1004D0007269746520627564676574206C65667402
:1004E000002077696C6C2062652073657420746FDE
:1004F000203078002A2049676E6F726564202D20B5
:1005000057726974696E6720746F2074686973200C
:10051000706172616D6574657220616C7265616491
:10052000792070656E64696E672062792033352D9D
:1005300072657175657374002A2049676E6F726504
:1005400064202D2057726974696E6720746F20745F
:1005500068697320706172616D6574657220616C89
:1005600072656164792070656E64696E6720627976
:1005700020452D72657175657374003078002A20EE
:10058000444857706172616D333520002A20436FF3
:100590006D6D616E64207265717569726573206F2F
:1005A0007065726174696F6E20617320617578691E
:1005B0006C6961727920636F6E74726F6C6C6572B6
:1005C00020284C3129003A206E6F2033412D77725C
:1005D0006974652D726571756573742070656E64DC
:1005E000696E6700207374696C6C2070656E646955
:1005F0006E67003A2033412D77726974652D7265FC
:10060000717565737420746F2076616C7565203028
:1006100078003A2063757272656E746C79206E6F23
:1006200020777269746520627564676574206C65F3
:100630006674003A2077696C6C206265207365747B
:1006400020746F203078003A2077726974652063D7
:100650006F6D6D616E642069676E6F726564202DC9
:1006600020452D77726974652D7265717565737497
:100670002069732070656E64696E67003078002AA7
:1006800020506172616D334120002A20436F6D6DEF
:10069000616E64207265717569726573206F706533
:1006A000726174696F6E20617320617578696C691D
:1006B00061727920636F6E74726F6C6C6572202842
:1006C0004C3129003A206E6F2033362D77726974D1
:1006D000652D726571756573742070656E64696EE1
:1006E0006700207374696C6C2070656E64696E6756
:1006F000003A2033362D77726974652D72657175F5
:1007000065737420746F2076616C75652030780095
:100710002A2043757272656E746C79206E6F207733
:100720007269746520627564676574206C656674AF
:10073000002077696C6C2062652073657420746F8B
:100740002030780020777269746520636F6D6D6169
:100750006E642069676E6F726564202D20452D7769
:10076000726974652D726571756573742069732083
:1007700070656E64696E67003078002A205061727F
:10078000616D333620002A20436F6D6D616E6420E9
:100790007265717569726573206F706572617469D5
:1007A0006F6E20617320617578696C696172792060
:1007B000636F6E74726F6C6C657220284C31290007
:1007C0003A206E6F2033352D77726974652D72650E
:1007D00071756573742070656E64696E6700207052
:1007E000656E64696E67003A2033352D77726974DF
:1007F000652D7265717565737420746F2076616CF8
:100800007565203078002A2043757272656E746CAD
:1008100079206E6F207772697465206275646765F0
:1008200074206C656674002077696C6C20626520AA
:1008300073657420746F203078003A207772697481
:100840006520636F6D6D616E642069676E6F7265A0
:1008500064202D204448572D77726974652D726588
:1008600071756573742069732070656E64696E6755
:10087000003A20777269746520636F6D6D616E64F4
:100880002069676E6F726564202D20452D7772692F
:1008900074652D7265717565737420697320706558
:1008A0006E64696E67003078002A20506172616D55
:1008B000333520002A20436F6D6D616E64207265B0
:1008C000717569726573206F7065726174696F6E9E
:1008D00020617320617578696C6961727920636F3A
:1008E0006E74726F6C6C657220284C312900307800
:1008F0000073657420746F20002A2043616E6E6F50
:1009000074206368616E676520706172616D334148
:100910002D327772697465207768696C6520707212
:100920006576696F75732072657175657374207370
:1009300074696C6C2070656E64696E67002A205063
:100940006172616D33412D325772697465200030D8
:10095000780073657420746F20002A2043616E6EE6
:100960006F74206368616E676520706172616D33BA
:10097000362D327772697465207768696C652070EE
:10098000726576696F757320726571756573742011
:100990007374696C6C2070656E64696E67002A20E0
:1009A000506172616D33362D325772697465200063
:1009B00030780073657420746F20002A2043616EC4
:1009C0006E6F74206368616E676520706172616D1F
:1009D00033352D327772697465207768696C6520CC
:1009E00070726576696F7573207265717565737461
:1009F000207374696C6C2070656E64696E67002A80
:100A000020506172616D33352D32577269746520E3
:100A1000002A20436F756E74657272657175657317
:100A20007420697320002A20436F756E746572729A
:100A30006570656174696E67726571756573742040
:100A4000697320002A20416C6C20636F756E746599
:100A5000722D72657175657374732073746F707025
:100A60006564002A2053696E676C6520636F756E3C
:100A70007465722072657175657374206379636C37
:100A80006520696E69746961746564002A20536920
:100A90006E676C652052657065746974697665204F
:100AA00072657175657374696E67206F6620636F18
:100AB000756E7465722076616C75657320776173ED
:100AC00020616C7265616479206163746976650088
:100AD0002A20537769746368696E67207265706550
:100AE0007469746976652072657175657374696E71
:100AF00067206F6620636F756E74657273206F6612
:100B0000662C2073696E676C6520636F756E746503
:100B100072206379636C6520696E69617465640035
:100B20002A20537769746368696E672072657065FF
:100B30007469746976652072657175657374696E20
:100B400067206F6620636F756E74657273206F66C1
:100B5000662C20776173207374696C6C20616374F8
:100B60006976652C206E6F206E6577206379636CE3
:100B70006520696E6961746564002A20507265762B
:100B8000696F75732073696E676C6520636F756E2E
:100B90007465722072657175657374206E6F742050
:100BA00066696E697368656420796574002A2052ED
:100BB00065706574697469766520726571756573B1
:100BC00074696E67206F6620636F756E746572203E
:100BD00076616C75657320696E69746961746564AA
:100BE000002A2052657065746974697665207265A3
:100BF0007175657374696E67206F6620636F756EBB
:100C00007465722076616C756573207761732061FD
:100C10006C726561647920616374697665002A206D
:100C20004572726F72737065726D69747465642059
:100C3000746F6F206C6F773B20636F6E74726F6C94
:100C40002066756E6374696E616C697479206E6F6D
:100C50007420656E61626C6564002A20436F6E7457
:100C6000726F6C5F6964206973203078002A2043BA
:100C70006F6E74726F6C5F69642073657420746F3B
:100C8000203078002A20434F4E54524F4C5F494445
:100C900020697320616C726561647920307830302E
:100CA000002A20596F75206D61792077697368205B
:100CB000746F2072652D74727920696E20612066D0
:100CC0006577207365636F6E64732028616E64209E
:100CD0007065726861707320737769746368206FE0
:100CE0007468657220617578696C696172792063D6
:100CF0006F6E74726F6C6C657273206F666629001C
:100D00002A204E6F20667265652061646472657387
:100D10007320666F7220636F6E74726F6C6C657295
:100D200020666F756E642028796574292E20436FC4
:100D30006E74726F6C2066756E6374696F6E616C31
:100D4000697479206E6F7420656E61626C656400F1
:100D50002A20436F6E74726F6C5F4944203078466E
:100D60003120737570706F727465642C206E6F2003
:100D7000617578696C6961727920636F6E74726FE6
:100D80006C6C657220666F756E6420666F722030C1
:100D90007846312C20737769746368696E672063C5
:100DA0006F6E74726F6C2066756E6374696F6E61BE
:100DB0006C697479206F6E2030784631206F6E0038
:100DC0002A20436F6E74726F6C5F494420307846FE
:100DD0003020737570706F727465642C206E6F2094
:100DE000617578696C6961727920636F6E74726F76
:100DF0006C6C657220666F756E6420666F72203051
:100E00007846302C20737769746368696E67206355
:100E10006F6E74726F6C2066756E6374696F6E614D
:100E20006C697479206F6E2030784630206F6E00C8
:100E30002A20434F4E54524F4C5F4944206973203F
:100E4000616C7265616479203078002A2045727285
:100E50006F72737065726D69747465642028657251
:100E6000726F72206275646765742920746F6F20D9
:100E70006C6F773B20636F6E74726F6C2066756E5B
:100E80006374696F6E616C6974792063616E6E6FF3
:100E90007420656E61626C6564002A205363686526
:100EA00064756C696E6720617474656D707420740C
:100EB0006F2072657374617274204461696B696E2E
:100EC000002A20726573746172744461696B696E83
:100ED0002077616974696E6720746F20726563653D
:100EE0006976652073616D706C65207061796C6FD7
:100EF0006164002A20726573746172744461696B65
:100F0000696E20616C7265616479207363686564E1
:100F1000756C6564002A20696E736572744D657323
:100F20007361676520616C726561647920736368C1
:100F30006564756C6564002A205265736574746914
:100F40006E67202E2E2E2E002A205265667573693C
:100F50006E6720746F207772697465207061636BAF
:100F60006574207768696C652070726576696F7545
:100F700073207061636B6574207761736E277420D2
:100F800066696E6973686564002A205265667573C8
:100F9000696E6720746F20777269746520656D7063
:100FA0007479207061636B6574002A2057726974CC
:100FB000696E673A20002D2076616C696420646157
:100FC0007461206D697373696E672C207772697420
:100FD0006520736B6970706564002A2057726974AC
:100FE000696E67206E657874203430463033302067
:100FF000736C6F743A20002A20696E736572744DA9
:1010000065737361676520286F7220726573746100
:1010100072744461696B696E2920616C72656164E8
:1010200079207363686564756C656400736574200A
:10103000746F20002A204563686F20007365742058
:10104000746F20002A20536F6674776172652D7368
:10105000636F7065200073657420746F20002A2010
:1010600044656C617954696D656F757420007365B2
:101070007420746F20005B757365206F6620646553
:101080006C61792030206F722031206E6F74207275
:1010900065636F6D6D656E6465642C20696E637247
:1010A000656173696E6720746F20325D20002A20AD
:1010B00044656C617920002A20503150322D45530F
:1010C000502D496E74657266616365206877494486
:1010D00020002028706F7765722D6F6E2D726573FA
:1010E0006574290020286578742D726573657429EC
:1010F00000202862726F776E2D6F75742D64657491
:10110000656374656429002A2052657365742063E1
:10111000617573653A204D435553523D0020452D6E
:10112000736572696573002A204E455750315032FD
:101130004C49420032303A34343A33360020004AC7
:10114000616E2031392032303233002A20436F6DF6
:1011500070696C656420002A20503150324D6F6EEA
:1011600069746F722D76302E392E333200736574A8
:1011700020746F20002A20566572626F736520000C
:1011800030780073657420746F20002A20437263E6
:101190005F66656564200030780073657420746F45
:1011A00020002A204372635F67656E2000206E7204
:1011B0003A203078002070743A203078002A204994
:1011C000676E6F72696E6720696E7374727563748F
:1011D000696F6E2C206578706563746564203320B8
:1011E000617267756D656E74732C207265636569D5
:1011F0007665643A20002A2043757272656E746CBD
:1012000079206E6F207772697465206275646765F6
:1012100074206C6566740020746F2076616C75654F
:101220002030780020706172616D65746572206E87
:1012300072203078002A20496E6974696174696E81
:101240006720706172616D65746572207772697470
:101250006520666F72207061636B65742D747970A0
:1012600065203078002A2049676E6F726564202DF2
:101270002057726974696E6720746F20746869738F
:1012800020706172616D6574657220616C72656158
:1012900064792070656E64696E67206279203341DD
:1012A0005F72657175657374002A2049676E6F728D
:1012B0006564202D2057726974696E6720746F20F1
:1012C0007468697320706172616D65746572206104
:1012D0006C72656164792070656E64696E67206206
:1012E000792033365F72657175657374002A204901
:1012F000676E6F726564202D2057726974696E671E
:1013000020746F207468697320706172616D6574F8
:10131000657220616C72656164792070656E6469C4
:101320006E672062792033355F72657175657374FD
:10133000002A2049676E6F726564202D20577269FC
:1013400074696E6720746F207468697320706172AD
:10135000616D6574657220616C726561647920707D
:10136000656E64696E672062792044485733355F43
:1013700072657175657374002076616C756520699E
:101380007320002A20506172616D65746572207649
:10139000616C756520746F6F206C61726765206683
:1013A0006F72207061636B657420747970653B2087
:1013B00023627974657320697320002A2077725F35
:1013C0006E72203E2065787065637465643A2030E3
:1013D0007800206F7574206F662072616E676520DB
:1013E000307833352D30783344002A2077725F709F
:1013F000743A203078002A2050726576696F7573D0
:1014000020706172616D65746572207772697465B0
:1014100020616374696F6E207374696C6C206275EF
:101420007379002A20436F6D6D616E64207265715F
:101430007569726573206F7065726174696F6E2073
:10144000617320617578696C6961727920636F6E70
:1014500074726F6C6C657220284C3129002A2052FE
:10146000656365697665643A20002A20456D70746D
:1014700079206C696E6520726563656976656400C4
:101480002A2052656365697665643A2022002A2025
:101490004C696E6520746F6F206C6F6E672C206CCA
:1014A00061737420706172743A20002A2046697258
:1014B0007374206C696E652069676E6F7265643A3B
:1014C000202D3E003C2D002A204C696E6520746F53
:1014D0006F206C6F6E672C207465726D696E61741D
:1014E00065642C2069676E6F7265643A202D3E003A
:1014F0003C2D002A204C696E6520746F6F206C6F44
:101500006E672C2069676E6F7265642C2069676E48
:101510006F72696E672072656D61696E6465723A9B
:10152000202D3E005020202020202020202000526E
:1015300020002A20526561647920736574757000FB
:101540002A204E4557503150324C4942002A2046FD
:1015500030335844454C41593D002A204630333001
:1015600044454C41593D002A20434F4E54524F4C64
:101570005F49445F44454641554C543D3078002A0C
:101580002053455249414C53504545443D002A2083
:101590004350555F53504545443D002028706F77B8
:1015A00065722D6F6E2D7265736574290020286534
:1015B00078742D72657365742900202862726F77C4
:1015C0006E2D6F75742D6465746563746564290090
:1015D0002A2052657365742063617573653A204DE6
:1015E000435553523D002A20436F756E74657272E5
:1015F0006570656174696E67726571756573743D58
:10160000002A20566572626F736974793D002A2042
:10161000436F6E74726F6C5F49443D3078002A20CE
:10162000503150322D4553502D696E74657266618C
:1016300063652068774944200020452D73657269F1
:10164000657300202B636F6E74726F6C0032303ADA
:1016500034343A33360020004A616E20313920326A
:10166000303233002A20436F6D70696C656420004E
:101670002A20503150324D6F6E69746F722D763062
:101680002E392E3332002A002A20454550524F4D24
:1016900020736967206D69736D617463682C2069BC
:1016A0006E697469616C697A696E6720454550524C
:1016B0004F4D002A20454550524F4D2073696720F9
:1016C0006D61746368002A20636865636B696E6787
:1016D00020454550524F4D00000000090003020014
:1016E00000040508000000000000000000000001E8
:1016F00002040810204080010204081020010204A6
:10170000081020408040040404040404040402027D
:1017100002020202030303030303020203000000A8
:1017200000250028002B0000000000240027002ACC
:1017300000005B30220E11241FBECFEFD8E0DEBFC9
:10174000CDBF11E0A0E0B1E0EAEDFCE602C00590FB
:101750000D92AA3FB107D9F725E0AAEFB1E001C089
:101760001D92AA30B207E1F71BE0CAE9DBE004C032
:101770002197FE010E94EB32C939D107C9F70E94B7
:1017800034320C9460360C9400001F93CF93DF9397
:10179000EC01162F0E941336181739F0612FCE0175
:1017A000DF91CF911F910C941B36DF91CF911F9148
:1017B00008950C941336CF92DF92EF92FF920F931D
:1017C0001F93CF93DF9380911801882331F066EC4B
:1017D00076E184E694E00E94FB3081E2E82E81E02D
:1017E000F82E670100E110E0C1E0C8010E94D90BAA
:1017F000F60121916F01022E000C330B91E082174C
:10180000130609F090E0C9230F5F1F4F093111053E
:1018100061F7809118018823E9F163EB76E184E6B2
:1018200094E00E94C4306C2F70E04AE050E084E6FF
:1018300094E00E94BF31C1112FC08091180188230C
:1018400031F068E876E184E694E00E94FB30C0E184
:10185000D0E0F70161917F01CE010E94C50B219676
:10186000C931D105B1F760E090E080E00E94C50B7E
:1018700060E081E090E00E94C50B63E082E090E0D0
:10188000DF91CF911F910F91FF90EF90DF90CF905C
:101890000C94C50BCC23D9F2DF91CF911F910F91FE
:1018A000FF90EF90DF90CF9008950F93CF9384B780
:1018B0008093EC0214BE83B185FB882780F991E008
:1018C00089278093030226E040E950ED63E070E051
:1018D00084E694E00E949D2F66E876E184E694E039
:1018E0000E94FB3060E776E184E694E00E94FB30E2
:1018F00064E676E184E694E00E94C43068E576E12F
:1019000084E694E00E94C43066E576E184E694E0E3
:101910000E94C4306DE476E184E694E00E94C43015
:1019200063E476E184E694E00E94C43069E376E102
:1019300084E694E00E94C43084E694E00E94F7308C
:101940006EE176E184E694E00E94C4304AE050E023
:101950006091030284E694E00E94F7310E94DB0B61
:1019600090E080E00E94D90B8093EF0282E090E04B
:101970000E94D90BC82F8093180181E090E00E944B
:10198000D90B8093ED02CC2309F4AEC06EE076E172
:1019900084E694E00E94C43040E150E06091EF02A0
:1019A00084E694E00E94F73161E076E184E694E019
:1019B0000E94C4304AE050E06091180184E694E04F
:1019C0000E94F73166EE75E184E694E00E94C4302F
:1019D0004AE050E06091ED0284E694E00E94F73125
:1019E00060ED75E184E694E00E94C4304AE050E086
:1019F0006091EC0284E694E00E94F0318091EC0268
:101A000082FF06C06AEB75E184E694E00E94C43070
:101A10008091EC0281FF06C06DEA75E184E694E0F6
:101A20000E94C4308091EC0280FF06C06BE975E132
:101A300084E694E00E94C43084E694E00E94F7308B
:101A40006EE875E184E694E00E94C4302AE030E05C
:101A500040E052E16AE770E084E694E00E94D13110
:101A60006FE775E184E694E00E94C4302AE030E03C
:101A700040E950ED63E070E084E694E00E94D131EB
:101A800067E675E184E694E00E94C43040E150E0EE
:101A900070E060E084E694E00E94BF316AE575E1A1
:101AA00084E694E00E94C4304AE050E064E670E0CE
:101AB00084E694E00E94BF316DE475E184E694E031
:101AC0000E94C4304AE050E06EE170E084E694E0A9
:101AD0000E94B83184E694E00E94F73060E475E13A
:101AE00084E694E00E94FB3041E080910302811182
:101AF00001C040E007E026E060E875E280E090E0A9
:101B00000E947325809112010E947D2A8091F0022B
:101B10000E947A2A80911301909114010E943F271C
:101B200062E375E184E694E0CF910F910C94FB3071
:101B30007F936F932BE231E03F932F939F938F938B
:101B40000E94FF320F900F900F900F900F900F9008
:101B500008957F936F932EE231E03F932F939F93ED
:101B60008F930E94FF320F900F900F900F900F9065
:101B70000F900895EF92FF920F931F93CF93DF93EF
:101B8000F82ED92FE62E80911801882331F06FE2CC
:101B900075E184E694E00E94C4308091180180FFD2
:101BA00006C064E275E184E694E00E94C430C0910E
:101BB00002020F2D1D2FE00EF12EF11CE016F10692
:101BC00029F1F801D1918F01D03128F460E384E646
:101BD00094E00E94F03040E150E06D2F84E694E004
:101BE0000E94F03130910201332341F328E08C2F21
:101BF00090E095958795CD27C0FF06C0C32FC827D5
:101C0000D6952150A1F7DACFC82FFACF80910201E3
:101C1000882371F0C03128F460E384E694E00E94E8
:101C2000F03040E150E06C2F84E694E00E94F03107
:101C300084E694E0DF91CF911F910F91FF90EF9098
:101C40000C94F7300C944D2D2F923F924F925F924F
:101C50006F927F928F929F92AF92BF92CF92DF92BC
:101C6000EF92FF920F931F93CF93DF93CDB7DEB721
:101C7000A4970FB6F894DEBF0FBECDBF84E694E004
:101C80000E94DD2E8C0197FF02C00C94F1228091FE
:101C90000402E0910301F09104010A30110511F4EE
:101CA0000C94B922833610F00C94BD229F012F5F53
:101CB0003F4F309304012093030100838F5F809393
:101CC0000402DCCF81111AC067EC74E184E694E071
:101CD0000E94C43067E672E084E694E00E94E83037
:101CE0006F2D84E694E00E94F03064EC74E184E6A9
:101CF00094E00E94FB3081E08093FC01109200018F
:101D00000C94E9221082882381F0A82FB0E0AA5910
:101D1000BD4F9C919D3049F48150809304023197CE
:101D2000F0930401E093030110821091000112303E
:101D300009F56BEA74E184E694E00E94C430809176
:101D4000040267E672E08A3050F01092700267E693
:101D500072E084E694E00E94E83062E371E084E699
:101D600094E00E94E83066E371E084E694E00E942B
:101D70000D31C4CF113099F48091FC018111BECF97
:101D80006EE874E184E694E00E94C43067E672E095
:101D900084E694E00E940D311093FC01AFCF809156
:101DA0001801813011F0843091F460E874E184E628
:101DB00094E00E94C43067E672E084E694E00E94FA
:101DC000E83069E371E084E694E00E940D318CE62E
:101DD00092E0909304018093030144E050E06BE3B0
:101DE00071E087E692E00E94F1326C01892B11F0DC
:101DF0000C94E92280916B02893511F40C94F71848
:101E00000CF008C28E3409F43AC30CF005C18734D3
:101E100009F4B6C20CF05FC08A3209F440C484F4FD
:101E2000882309F42CC467E574E084E694E00E94FA
:101E3000C43060910301709104016150710941C483
:101E4000833411F40C943717853469F78091EF02CD
:101E500063E274E1882309F41CC48091E10266EF17
:101E600073E1811116C489ED92E09F938F938DEDFC
:101E700092E09F938F938FED92E09F938F9380E4F6
:101E800091E09F938F938CE692E09F938F930E94B3
:101E9000FF329C8B8B8B0FB6F894DEBF0FBECDBF8D
:101EA000039709F014C58091DF029BEC980F9930DD
:101EB00008F40DC46AEE73E184E694E00E94C43035
:101EC00040E150E06091DF0284E694E00E94F0314E
:101ED00062ED73E1DEC38B3409F495C2DCF588341E
:101EE00009F0A1CF80911801882331F06BE871E1EE
:101EF00084E694E00E94C430BE016B5E7F4F809107
:101F00000301909104010E94A90D019779F48D8934
:101F10008093020280911801882311F40C94E92225
:101F200063E871E184E694E00E94C43060E871E106
:101F300084E694E00E94C43080910202803128F44B
:101F400060E384E694E00E94F03040E150E060916C
:101F500002024DC28C3409F461C28D3409F063CFA2
:101F600080911801882331F06DE379E084E694E0F4
:101F70000E94C430BE016B5E7F4F8091030190913F
:101F800004010E94A90D0197C1F48091E30269EF59
:101F900078E081117EC38D899E8990930D01809395
:101FA0000C0180911801882311F40C94E92261EF4F
:101FB00078E084E694E00E94C4306EEE78E084E637
:101FC00094E00E94C43080910C0190910D014097E3
:101FD00028F460E384E694E00E94F03080910C01E4
:101FE00090910D018F3F910509F028F460E384E69C
:101FF00094E00E94F03080910C0190910D018115C8
:10200000904128F460E384E694E00E94F03060910F
:102010000C0170910D017FC3843509F4D0C20CF01E
:10202000BCC0803509F49EC70CF41BC5813511F482
:102030000C940E18823509F0F6CE8091EF0266E816
:1020400077E0882309F425C380911801882331F0B3
:102050006BE777E084E694E00E94C43068E777E0BD
:1020600084E694E00E94C43080910E0190910F01AB
:10207000409728F460E384E694E00E94F030809179
:102080000E0190910F018F3F910509F028F460E354
:1020900084E694E00E94F03080910E0190910F014F
:1020A0008115904128F460E384E694E00E94F030CA
:1020B00060910E0170910F0140E150E084E694E0E0
:1020C0000E940F32BE016B5E7F4F809103019091A1
:1020D00004010E94A90D019711F00C9495188091AC
:1020E000DF02863389F42091DD023091DE02809197
:1020F0000E0190910F012817390731F48091E10208
:1021000064E477E08111C5C280910A01882311F44B
:102110000C9492188F3F19F0815080930A0181E04E
:102120008093E6028D899E899093E5028093E40274
:1021300080911801882311F40C94E92261E377E07F
:1021400084E694E00E94C4308091E4029091E5021C
:10215000409728F460E384E694E00E94F030809198
:10216000E4029091E5028F3F910509F028F460E3C5
:1021700084E694E00E94F0308091E4029091E502C0
:102180008115904128F460E384E694E00E94F030E9
:102190006091E4027091E502BEC2863509F4CEC3B7
:1021A0000CF48AC4873509F452C2883509F03BCE55
:1021B00080911801882331F064E370E184E694E0B3
:1021C0000E94C430BE01695E7F4F809103019091EF
:1021D00004010E94980D81309105B9F42F89388D42
:1021E000232B11F0988F8F8B8F89809312010E947F
:1021F0007D2A80911801882311F40C94E9226CE265
:1022000070E184E694E00E94C4304AE050E06091BE
:102210001201EDC08F3609F424C40CF0C0C1883619
:1022200009F460CE0CF0E9C0833609F420C60CF046
:10223000A1C08A3509F0F7CD8091EF0264EB78E018
:10224000882309F426C280911801882331F069EAB5
:1022500078E084E694E00E94C43066EA78E084E6A0
:1022600094E00E94C4308091100190911101409738
:1022700028F460E384E694E00E94F030809110013D
:10228000909111018F3F910509F028F460E384E6F5
:1022900094E00E94F030809110019091110181151D
:1022A000904128F460E384E694E00E94F03060916D
:1022B00010017091110140E150E084E694E00E9429
:1022C0000932BE016B5E7F4F809103019091040142
:1022D0000E94A90D019709F000C78091100190910B
:1022E00011012091DF02253369F42091DD02309144
:1022F000DE022817390731F42091E10261E778E026
:102300002111C7C18034910531F48091EB026AE359
:1023100078E08111BEC180910A01882309F4DAC6F0
:102320008F3F19F0815080930A0181E08093E90288
:102330008D899E899093E8028093E702809118012D
:10234000882311F40C94E92267E278E084E694E0B3
:102350000E94C4308091E7029091E802409728F4EF
:1023600060E384E694E00E94F0306091E7027091AF
:10237000E802D1C1853609F469CD873609F053CD1D
:1023800080911801882331F062EA71E184E694E0DB
:102390000E94C430BE016B5E7F4F8091030190911B
:1023A00004010E94A90D019779F48D89809302019F
:1023B00080911801882311F40C94E9226AE971E1F3
:1023C00084E694E00E94C43067E971E184E694E019
:1023D0000E94C43080910201803128F460E384E6D9
:1023E00094E00E94F03040E150E06091020184E608
:1023F00094E00E94F7310C94E9228C3679F0CCF508
:102400008B3609F010CD67E37FE084E694E00E940C
:10241000FB30E0910002F09101020995BE01695E76
:102420007F4F80910301909104010E94980D0197C4
:1024300009F015C58F89988D8336910509F06BC415
:102440008091140365E17FE0811123C1809116031F
:1024500063EF7EE081111DC18091150361EC7EE088
:10246000882309F416C181E0809316036AE97EE0AF
:1024700010C18D3609F474CD8E3609F0D4CC80911C
:10248000EF026AE876E0882309F403C1809118011D
:10249000882331F06FE776E084E694E00E94C43050
:1024A0006CE776E084E694E00E94C43080910C01F1
:1024B00090910D01409728F460E384E694E00E9437
:1024C000F03080910C0190910D018F3F910509F042
:1024D00028F460E384E694E00E94F03080910C01DF
:1024E00090910D018115904128F460E384E694E019
:1024F0000E94F03060910C0170910D0140E150E0BC
:1025000084E694E00E940F32BE016B5E7F4F8091A3
:102510000301909104010E94A90D019709F046C69C
:102520008091DF028A3389F42091DD023091DE024E
:1025300080910C0190910D012817390731F4809199
:10254000E10267E476E08111A4C080910A0188234A
:1025500009F429C68F3F19F0815080930A0181E068
:102560008093E3028D898093E20280911801882391
:1025700011F40C94E92263E376E084E694E00E948F
:10258000C4308091E202803128F460E384E694E074
:102590000E94F03040E150E06091E20228CF8537A0
:1025A00009F48AC20CF049C0813709F437C50CF42C
:1025B000D9C4823709F441CD843709F034CC8091F5
:1025C0001801882331F06EEA70E184E694E00E94FD
:1025D000C43065E171E080910301909104010E9493
:1025E000980D0197F1F480911501909116010297D1
:1025F00060F482E090E0909316018093150166E705
:1026000070E184E694E00E94C43080911801882330
:1026100011F40C94E9226EE670E184E694E00E94E5
:10262000C43060911501709116014AE050E084E6D3
:1026300094E00E940F320C94E922883709F4B8CD57
:10264000BCF4863709F47AC1873709F0ECCB809166
:10265000EF02882309F4D0C280911403811105C0D0
:1026600080911603882309F461C267EF7FE011C0EF
:10267000893709F4BCC58A3709F4DECDD4CB809103
:102680001801813021F0843011F00C94E9226AE6BF
:1026900074E184E694E00E94FB300C94E92280917E
:1026A0001801813021F0843011F00C94E9226DE59D
:1026B00074E184E694E00E94C4306091030170915B
:1026C000040184E694E00E940D310C94E9222091EB
:1026D000DD023091DE024901B12CA12C482F455377
:1026E000550BFA01EE0FFF1FEE0FFF1FEF53FE4FCA
:1026F0004081518162817381481559056A057B05C6
:1027000068F46BEB73E184E694E00E94C43060915E
:10271000DD027091DE0240E150E089CFEAECE80F83
:10272000E83008F04CC0F0E0E856FC4E0C94EB3278
:10273000A013DB13DD13DD13DF13A013DB13DD1395
:1027400012E058E0159FF00111244091D9025091F8
:10275000DA026091DB027091DC0204C07695679525
:1027600057954795EA95D2F7452B462B472B49F1CC
:1027700063E873E184E694E00E94C4304AE050E0EC
:10278000612F84E694E00E94F03168E773E184E60B
:1027900094E00E94C4304091D9025091DA026091D5
:1027A000DB027091DC0220E130E084E694E00E94DC
:1027B00021320C94E92213E0C4CF14E0C2CF11E01F
:1027C000C0CF853309F05BC02034310531F48091EE
:1027D000EB0261E373E181115CCF80911001909174
:1027E00011012817390731F48091E9026DEE72E189
:1027F00081114FCF80910A01882309F465C08F3F72
:1028000019F0815080930A0181E08093E10265E331
:1028100072E184E694E00E94C43040E150E06091AF
:10282000DF0284E694E00E94F03164E272E184E623
:1028300094E00E94C4306091DD027091DE0240E1BC
:1028400050E084E694E00E94093267E172E184E698
:1028500094E00E94C4304091D9025091DA02609114
:10286000DB027091DC0220E130E084E694E00E941B
:10287000E33184E694E00E94F7300C94E922863339
:1028800081F480910E0190910F012817390709F00A
:10289000B1CF8091E60269EA72E1882309F4AACFF8
:1028A000F8CE8A3309F0A6CF80910C0190910D01EA
:1028B0002817390709F09ECF8091E30265E672E19F
:1028C000882309F497CFE5CE66EF71E1E2CE6DEB98
:1028D00071E184E694E00E94C4306B897C894AE00F
:1028E00050E084E694E00E94B8318B899C891816E8
:1028F000190674F465EB71E184E694E00E94C4303B
:1029000040E150E06091DF0284E694E00E94F03103
:102910008B899C8902970CF4ACCF6DEA71E184E657
:1029200094E00E94C4306091DD027091DE0240E1CB
:1029300050E084E694E00E9409329BCF65E771E1A4
:1029400084E694E00E94C430BE01695E7F4F8091AE
:102950000301909104010E94980D0197A9F48F89B9
:10296000988D059720F084E090E0988F8F8B6DE62E
:1029700071E184E694E00E94C4306F89609318018D
:1029800082E090E00E94C50B4AE050E0609118019F
:1029900084E694E00E94F73167E571E184E694E013
:1029A0000E94FB306BE471E184E694E00E94C43045
:1029B0006FE371E184E694E00E94C4306DE371E15D
:1029C00084E694E00E94C43064E371E184E694E01C
:1029D0000E94FB3067E271E184E694E00E94C4301B
:1029E0006DE171E184E694E00E94FB3067E071E103
:1029F00084E694E00E94C4304AE050E06091EC022A
:102A000084E694E00E94F0318091EC0282FF06C0DF
:102A100061EF70E184E694E00E94C4308091EC02A2
:102A200081FF06C064EE70E184E694E00E94C43049
:102A30008091EC0280FF06C062ED70E184E694E0D4
:102A40000E94C43084E694E00E94F73067EB70E1A6
:102A500084E694E00E94C4304AE050E060910302B2
:102A6000C6CC80911801882331F06EE570E184E6D0
:102A700094E00E94C43063E171E080910301909181
:102A800004010E94980D019791F480911301909197
:102A900014010E943F2780911801882311F40C949F
:102AA000E92266E570E184E694E00E94C43060911A
:102AB000130170911401B9CD80911801882331F070
:102AC00064E470E184E694E00E94C430BE01695E73
:102AD0007F4F80910301909104010E94980D01970E
:102AE000C1F48F898093F002823018F081E08093E6
:102AF000F0028091F0020E947A2A809118018823C6
:102B000011F40C94E9226CE370E184E694E00E94F5
:102B1000C4304AE050E06091F00284E694E00E9404
:102B2000F73188EC809301010C94E922809118011F
:102B3000882331F06AED7FE084E694E00E94C4309F
:102B40001092F202109215038E010D5E1F4F6E015E
:102B500081E1C80ED11C9BE4A92E91E0B92EFF247F
:102B6000F3941F930F93DF92CF92BF92AF92809115
:102B700004018F93809103018F930E94FF320FB65F
:102B8000F894DEBF0FBECDBF019739F080911403DA
:102B900081116FCE66EB7FE07CCD89899A89E091C7
:102BA000F20221E02E0F2093F202F0E0ED50FD4FF3
:102BB0008083F092140320910301309104014B892A
:102BC0005C89240F351F3093040120930301209169
:102BD0001801222331F2409734F461E571E084E674
:102BE00094E00E94E83069897A8940E150E084E607
:102BF00094E00E94B831B5CF80911801882331F05C
:102C00006AEA7FE084E694E00E94C43007E412E0C0
:102C10005E01E3E1AE0EB11C4E01F1E18F0E911C9D
:102C20008BE4682E81E0782EBF92AF929F928F92B4
:102C30007F926F92809104018F93809103018F9313
:102C40000E94FF320FB6F894DEBF0FBECDBF0197D2
:102C500071F529893A894FEFC41AD40AD8012D9306
:102C60008D0180910301909104014B895C89840F4F
:102C7000951F90930401809303018091180188238C
:102C800089F02031310534F461E571E084E694E0A7
:102C90000E94E83069897A8940E150E084E694E056
:102CA0000E94B831B0E2CB16D10409F0BDCF8091BB
:102CB0001801882321F084E694E00E94F7300E94F6
:102CC00044278823B9F0C114D10489F0209115015B
:102CD00030911601E0900202009102014C2D67E450
:102CE00072E081EF92E00E94E82D0C94E92269E8FD
:102CF0007FE0CFCC68E47FE084E694E00E94FB3084
:102D0000809118038F3F11F40C94E9228F5F809318
:102D100018030C94E922049710F0188E1F8A8F89EB
:102D2000988D80FF7FC0809109016BE47EE0853043
:102D300008F4AFCC8091EF028823E1F060E37EE0FD
:102D400084E694E00E94C43040E150E06091EF02DC
:102D500084E694E00E94F7318F89988D029710F0F5
:102D60000C94E9226091EF0290E080E00E94C50B94
:102D70000C94E92280910701853081F560EC7DE0BB
:102D800084E694E00E94FB3080EF8093EF028F890D
:102D9000988D21E08530910509F420E020931701FA
:102DA00060EF029768F1809118016DE67CE088235E
:102DB00011F40C94E92284E694E00E94C4308091DE
:102DC000EF02803130F461E571E084E694E00E9426
:102DD000E83040E150E06091EF0209CB80910801BA
:102DE000853099F460E57DE084E694E00E94FB3054
:102DF00081EF8093EF028F89988D61EF029798F6AB
:102E000090E080E00E94C50BCECF60E07DE084E6DC
:102E100094E00E94FB3061EA7CE084E694E00E944A
:102E2000FB30C1CF2091EF02211108C064E87CE0A3
:102E300084E694E00E94C4300C94E9221092EF02E0
:102E40001092E9021092E6021092E3021092EB0255
:102E50001092E102029708F0A6CF60E0D1CF8091F6
:102E60001801882309F4ABCF6AE57CE0A4CFBE014A
:102E7000695E7F4F8CE692E00E94980D019709F001
:102E800058C08F89988D82309105D8F080910901C2
:102E90006EE17CE0853008F4FCCB8091ED0261EEC0
:102EA0007BE08111F6CB81E08093ED026DEA7BE05F
:102EB00084E694E00E94FB306091ED0281E090E0B6
:102EC00055CF019779F52091EE023091ED0281E026
:102ED00090E0332311F090E080E050E082239523CE
:102EE0006AE77BE0892B09F0D4CB332389F0109279
:102EF000ED0260E27BE02111CCCB60ED7AE084E66C
:102F000094E00E94FB3081E08093EE020C94E92271
:102F10006CE87AE02111BDCB81E08093EE0263E69C
:102F20007AE0B7CB1092ED021092EE0264E47AE000
:102F3000BFCF66E27AE084E694E00E94C4304AE0C3
:102F400050E06091ED0284E694E00E94F73161E187
:102F50007AE084E694E00E94C4304AE050E0609158
:102F6000EE0245CA80911801882331F06FEF79E0B5
:102F700084E694E00E94C430BE016B5E7F4F809176
:102F80000301909104010E94A90D0197C1F4809161
:102F9000E9026BEB79E081117CCB8D899E8990935E
:102FA00011018093100180911801882311F40C9471
:102FB000E92263EB79E084E694E00E94C43060EBA0
:102FC00079E084E694E00E94C430809110019091F1
:102FD0001101409728F460E384E694E00E94F03009
:102FE00080911001909111018F3F910509F028F413
:102FF00060E384E694E00E94F030809110019091AB
:1030000011018115904128F460E384E694E00E9468
:10301000F03060911001709111017DCB8091180109
:10302000882331F06EE979E084E694E00E94C430B0
:10303000BE016B5E7F4F80910301909104010E945D
:10304000A90D0197C1F48091E6026AE579E081114A
:1030500020CB8D899E8990930F0180930E018091E2
:103060001801882311F40C94E92262E579E084E6E2
:1030700094E00E94C4306FE479E084E694E00E941A
:10308000C43080910E0190910F01409728F460E3C5
:1030900084E694E00E94F03080910E0190910F013F
:1030A0008F3F910509F028F460E384E694E00E94E4
:1030B000F03080910E0190910F018115904128F41C
:1030C00060E384E694E00E94F03060910E0170911C
:1030D0000F0121CB66E078E0DCCA8091E90260EC68
:1030E00077E0882309F4D5CA67EE77E084E694E0B8
:1030F0000E94C4308091E7029091E802409728F442
:1031000060E384E694E00E94F0306091E702709101
:10311000E80240E150E084E694E00E9409326EED5E
:1031200077E0B7CA60E177E0B4CA8091E60264EC68
:1031300076E0882309F4ADCA61EF76E084E694E096
:103140000E94C4308091E4029091E502409728F4F7
:1031500060E384E694E00E94F0308091E402909174
:10316000E5028F3F910509F028F460E384E694E0DE
:103170000E94F0308091E4029091E5028115904127
:1031800028F460E384E694E00E94F0306091E40269
:103190007091E50240E150E084E694E00E9409323B
:1031A00062EE76E076CA62E176E073CA8091E3026D
:1031B00066EC75E0882309F46CCA63EF75E084E679
:1031C00094E00E94C4308091E202803128F460E3F0
:1031D00084E694E00E94F03040E150E06091E20229
:1031E00084E694E00E94F03164EE75E052CA80916A
:1031F000EF02811106C06CE875E084E694E00E945D
:10320000FB3080911801882331F06EE775E084E689
:1032100094E00E94C4306BE775E084E694E00E947D
:10322000C43060E384E694E00E94F03060E384E61A
:1032300094E00E94F03040E150E060E470E084E609
:1032400094E00E94BF31BE01695E7F4F809103010F
:10325000909104010E94980D019709F04AC0809155
:10326000DF02853369F48091DD029091DE028034C3
:10327000910531F48091E10268E375E0811109CA9A
:1032800080911001909111018034910531F4809169
:10329000E90264EF74E08111FCC980910A0188237E
:1032A00029F18F3F19F0815080930A0181E08093CA
:1032B000EB028F898093EA0280911801882311F430
:1032C0000C94E92261EE74E084E694E00E94C4303C
:1032D0008091EA02803128F460E384E694E00E9461
:1032E000F0304AE050E06091EA0281C860EC74E09E
:1032F000D0C98091EB0262E774E0882309F4C9C960
:1033000060EA74E084E694E00E94C4308091EA02AE
:10331000803128F460E384E694E00E94F03040E1DC
:1033200050E06091EA0284E694E00E94F03161E9A5
:1033300074E0AFC98091F0028823A1F0809101016F
:10334000FF2019F0863008F092C090912602903448
:1033500009F08AC090912702903F09F085C083331D
:1033600008F085C0809101018F5F893C08F0EBC1B6
:1033700080930101109268038F2D8F7709F4E5C1C6
:10338000411451046104710409F44FC080911A037F
:103390008F3F29F08F5F80931A03F0921903809179
:1033A0000901882309F441C08150809309018111EA
:1033B0003CC06FE873E084E694E00E94FB308091AB
:1033C000ED02882331F066E673E084E694E00E9423
:1033D000FB308091EF02882331F060E473E084E6F3
:1033E00094E00E94FB301092EF021092ED021092D6
:1033F000EE0263EC72E084E694E00E94FB306091A0
:10340000EF0290E080E00E94C50B6091ED0281E048
:1034100090E00E94C50B1092E9021092E602109211
:10342000E3021092EB021092E10280912602909149
:1034300014039111DAC68111D8C680912702811137
:10344000E8C580912802823109F0E3C5A3EFB2E01C
:10345000E6E2F2E0CF0186529240881599050CF021
:10346000D3C581918D93F6CF873908F47BCF9091A6
:103470002303911105C090916503903F09F472CF29
:103480008550809301016EE274E0F11002C06BE29E
:1034900074E084E694E00E94C4308091260280317A
:1034A00028F460E384E694E00E94F03040E150E0CC
:1034B0006091260284E694E00E94F0318091270218
:1034C000803128F460E384E694E00E94F03040E12B
:1034D00050E06091270284E694E00E94F0318091F0
:1034E0002802803128F460E384E694E00E94F03002
:1034F00040E150E06091280284E694E00E94F031BF
:1035000060E284E694E00E94F03080916503B12C83
:10351000A12C803F19F0A0902303B12CDA8CD501A7
:10352000A05BBC4FEC91E75FE93008F03FC0F0E0F2
:10353000E456F54E0C94EB32D31ABE1AD01ACA1ABE
:10354000C41AA51ACD1AC71AC11A62E274E084E639
:1035500094E00E94C4303FEFA31AB30A46E1A416D8
:10356000B10411F4B12CA12C809123038A151B0402
:10357000B1F684E694E00E94F730F4CE69E174E09D
:10358000E6CF60E174E0E3CF67E074E0E0CF6EEF98
:1035900073E0DDCF65EF73E0DACF6CEE73E0D7CF89
:1035A00063EE73E0D4CF6AED73E0D1CF0C91007E6F
:1035B0006C916F71698F9501220F331F38A32F8F84
:1035C000D1103BC0003429F460E284E694E00E940C
:1035D000F030EF8DF8A1EC5DFC4FC080D180809180
:1035E000FA019091FB01C81AD90AF3E0D694C79466
:1035F000FA95E1F73AE0C316D10458F460E284E6A4
:1036000094E00E94F03060E284E694E00E94F030A2
:1036100004C044E6C416D104B0F34AE050E0B60159
:1036200084E694E00E940932003411F40C94AD2336
:103630006AE384E694E00E94F030EF8DF8A1EC5D3F
:10364000FC4F808191819093FB018093FA010036B9
:10365000C9F168F4002371F1003409F05CC060E244
:1036600084E694E00E94F0306CEB73E066C0003AB0
:1036700029F0003C19F0003809F04DC0B98DBA307E
:1036800008F042C063E5B23008F446C0298D2250EC
:10369000330BB9014AE050E084E694E00E94B8316F
:1036A000003679F1F0F5002351F00034E9F268EBCF
:1036B00073E043C06FE384E694E00E94F03068EC6E
:1036C00073E03BC0598D533138F4533070F463E5E7
:1036D000513030F460E204C0898D60E58531D0F767
:1036E00084E694E00E94F0300CC0A98DA350BB0B7F
:1036F000BD01759567954AE050E084E694E00E942C
:10370000B83162EC73E019C0E98D60E5EA3021F070
:1037100065E4EB3009F060E284E694E00E94F0306A
:10372000BFCF66ED73E0003A41F0003C09F49CCF56
:103730006CEC73E0003809F0BACF84E694E00E94A4
:10374000C430D12C08CF88EC13CE90912602F11012
:103750006CCE5AE085169104FCF091111DC0809149
:103760002702811119C0809128028231A9F4809129
:103770002C028093D80220910B01821769F02091CE
:10378000ED02222339F02091EE02211103C021E045
:103790002093EE0280930B0180910701853009F0A0
:1037A000A0C08091EE02882309F49BC0A5E08A1690
:1037B00091040CF43ACE911199C090912702903F58
:1037C00009F094C090912802903309F08FC0982F8F
:1037D0009370913009F080C0109247021092480215
:1037E00098EB9093490290E09595879595958795EC
:1037F00080934A020E944427D82E882309F45DC092
:10380000E0900202009102012EE130E044E067E422
:1038100072E081EF92E00E94E82DDA8E8091EE0254
:103820008F5F863109F45AC08093EE0280912602A0
:10383000803409F05DC080912702982F9E7F903FD1
:1038400009F0F3CD90912802292F2073203309F03D
:10385000ECCDE82FE170ED8F1E8E903329F4ED8DC5
:10386000FE8DEB5FFE4F108229813A812C313105AC
:1038700008F0DBCDED8DFE8DE95FFE4F108290915B
:10388000EF028913D2CD6FE272E084E694E00E94E9
:10389000C43040E150E06091270284E694E00E9449
:1038A000F03165E272E084E694E00E94FB30109211
:1038B000EF0260E090E080E0ACCD62E772E084E689
:1038C00094E00E94FB30809118038F3F09F4A6CF4B
:1038D0008F5F80931803A2CF1A8EA0CF1092EE02B2
:1038E000A5CFB5E08B1691040CF49FCD1A8E9ECF18
:1038F00081119BCD80912702982F9E7F903F09F0E8
:1039000094CD90912802292F2073203309F08DCD7A
:10391000FA8DF1118ACD9033A9F581708B8F1C8EB1
:10392000EB8DFC8DEB5FFE4F8081823014F48F5F56
:103930008083EB8DFC8DE95FFE4F8081853014F52F
:103940008F5F80838530F1F463EF71E084E694E06B
:103950000E94C43040E150E06091270284E694E088
:103960000E94F031909127028091EF02981377C066
:1039700065EC71E084E694E00E94FB301092140341
:10398000109216038091EF02882379F0282F21707E
:1039900029A31AA2E9A1FAA1E95FFE4F908195300F
:1039A00021F4909127028917B9F090911403809126
:1039B0002602911105C090911603992309F43BCD7D
:1039C000811133CD80912702803F09F02ECD809167
:1039D0002802803309F029CD80E48093470280914A
:1039E00027028093480280912802809349028091A7
:1039F0000201540131E0A31AB108811116C054012B
:103A000041E28416910489F460E571E084E694E073
:103A10000E94C4304AE050E061E270E084E694E045
:103A20000E94BF3160E2A62EB12CE0912802E05343
:103A3000EF3008F0FACCF0E0E05EF24E0C94EB329E
:103A4000361DBC1DD61D151A151AE61D5D1EBA1EA3
:103A5000E51E141F2B1F7A1FA91FC01FD71F6CE75D
:103A600071E084E694E00E94FB308CCF80911403D7
:103A7000811105C090911603992309F449C0209142
:103A8000F20230E0A7E4B2E0E3EFF2E0AF01435F1F
:103A90005240421753071CF491919D93F7CF88230E
:103AA00059F060E371E084E694E00E94FB3080917D
:103AB000140381508093140380911603882381F0AE
:103AC00064E171E084E694E00E94FB30809156024C
:103AD0008062809356028091160381508093160372
:103AE000A090F20255E0C52ED12C0E9444278111EE
:103AF0006FC26CEB70E084E694E00E94FB30809132
:103B000018038F3F09F47DC28F5F8093180379C239
:103B100023E0822F90E08A159B0534F4895B9D4F4A
:103B2000DC011C922F5FF5CF8091EB02811104C064
:103B30008091E902882319F081E080934E02809100
:103B4000E602882319F081E080934F028091E3021E
:103B5000882319F081E0809353028091E102882349
:103B600039F0E091DF02F0E0E75EFD4F81E0808315
:103B700094E6C92ED12CB9CF23E0822F90E08A158C
:103B80009B0554F4FC01E95BFD4F8A5D9D4FDC0110
:103B90008C9180832F5FF1CF84EB80934E0280E184
:103BA00080934F028EE1C82ED12C9FCF23E0822F2D
:103BB00090E08A159B05B4F7FC01E95BFD4F8A5D37
:103BC0009D4FDC018C9180832F5FF1CF23E0822F0A
:103BD00090E08A159B0534F4895B9D4FFC011083AE
:103BE0002F5FF5CF8091E102882309F464C09091A2
:103BF000DF02953309F05FC02091DD029091DE0273
:103C000020934A0290934B029091D90290934C02D8
:103C100081508093E10281E08093E00263E571E0EE
:103C200084E694E00E940D3106E08091EB02882347
:103C3000E9F0E02FF0E0E95BFD4F80E48083E1E014
:103C4000E00FF0E0E95BFD4F1082E2E0E00FF0E012
:103C50000D5FE95BFD4F8091EA0280831092EB02D9
:103C600069E671E084E694E00E940D318091E902FA
:103C7000882309F497CF9091100180911101E02FD2
:103C8000F0E0E95BFD4F9083E1E0E00FF0E0E95BFD
:103C9000FD4F80830E5FE02FF0E0E95BFD4F8091E8
:103CA000E70280831092E9026FE771E084E694E016
:103CB0000E940D3177CF03E0B8CF23E0822F90E050
:103CC0008A159B0534F4895B9D4FDC011C932F5FA3
:103CD000F5CF8091E102882309F44AC09091DF0278
:103CE000963309F045C02091DD029091DE022093C9
:103CF0004A0290934B022091D9029091DA022093CC
:103D00004C0290934D0281508093E10281E08093B8
:103D1000E00263E571E084E694E00E940D31E7E0A3
:103D20008091E602882309F43DCF90910E018091A5
:103D30000F01AE2FB0E0A95BBD4F9C93A1E0AE0F89
:103D4000B0E0A95BBD4F8C939091E4028091E502B5
:103D5000A2E0AE0FB0E0A95BBD4F9C93ED5FF0E039
:103D6000E95BFD4F80831092E60265E971E09ECF2A
:103D7000E3E0D6CF23E0822F90E08A159B0534F450
:103D8000895B9D4FFC0110832F5FF5CF8091E1028D
:103D9000882309F407CF9091DF02973309F002CF0F
:103DA0002091DD029091DE0220934A0290934B0213
:103DB0003091D9022091DA029091DB0230934C02CB
:103DC00020934D0290934E02BBC023E0822F90E0DF
:103DD0008A159B0534F4895B9D4FDC011C932F5F92
:103DE000F5CF8091E102882309F4DCCE9091DF02C7
:103DF000983309F0D7CE2091DD029091DE02209316
:103E00004A0290934B024091D9023091DA022091FC
:103E1000DB029091DC0240934C0230934D022093E0
:103E20004E0290934F028CC023E0822F90E08A15BF
:103E30009B0534F4895B9D4FFC0110832F5FF5CF08
:103E40008091E102882309F4ADCE9091DF0299338D
:103E500009F0A8CED0CF23E0822F90E08A159B05F1
:103E600034F4895B9D4FDC011C932F5FF5CF80916B
:103E7000E1028823E9F19091DF029A33C9F520919C
:103E8000DD029091DE0220934A0290934B029091C2
:103E9000D90290934C0281508093E10281E080939B
:103EA000E00263E571E084E694E00E940D31E6E013
:103EB0008091E302882309F475CE90910C018091E2
:103EC0000D01AE2FB0E0A95BBD4F9C93A1E0AE0FFA
:103ED000B0E0A95BBD4F8C93EE5FF0E0E95BFD4F76
:103EE0008091E20280831092E3026BEA71E0DECE01
:103EF000E3E0DECF23E0822F90E08A159B0534F4C7
:103F0000895B9D4FFC0110832F5FF5CF8091E1020B
:103F1000882309F447CE9091DF029B3309F042CE0B
:103F20002091DD029091DE0220934A0290934B0291
:103F30002091D9029091DA0220934C0290934D0285
:103F400081508093E10281E08093E00263E571E0BB
:103F5000ADCE23E0822F90E08A159B0534F4895B77
:103F60009D4FDC011C932F5FF5CF8091E1028823E8
:103F700009F418CE9091DF029C3309F013CE10CFD4
:103F800023E0822F90E08A159B0534F4895B9D4FD6
:103F9000FC0110832F5FF5CF8091E102882309F4A3
:103FA00001CE9091DF029D3309F0FCCD24CF8091AA
:103FB000290280934A0224E0822F90E08A159B0513
:103FC0000CF0F0CD895B9D4FDC011C932F5FF4CF8B
:103FD000E09002020091020196014A2D67E472E02E
:103FE00081EF92E00E94E82D8091E0022091CA02C8
:103FF0003091CB02820F932F911D9093CB0280932F
:10400000CA021092E00211CA8092F20281E080930B
:10401000150369EB70E0F11007C080911801815021
:10402000833030F466EB70E084E694E00E94C430A4
:104030008091180180FD03C0FF2009F444C063EBA8
:1040400070E084E694E00E94C43089819A818031D6
:10405000974230F461EB70E084E694E00E94C43053
:1040600089819A81883EE3E09E0708F0D2C060E330
:1040700084E694E00E94F0306FEA70E084E694E019
:104080000E94C43089819A818436910528F460E3C6
:1040900084E694E00E94F03089819A810A9728F49E
:1040A00060E384E694E00E94F03069817A814AE01E
:1040B00050E084E694E00E9409326CEA70E084E605
:1040C00094E00E94C43080911801843008F0B6C09A
:1040D00036E2C32E32E0D32E5401F1E0AF1AB1081C
:1040E000C60186529240881599050CF0ABC08091AC
:1040F0001801882351F0D1018C9180FF06C067EA36
:1041000070E084E694E00E94C43080911801882316
:1041100051F0F101808181FF06C062EA70E084E61F
:1041200094E00E94C43080911801882351F0D1019D
:104130008C9185FF06C06DE970E084E694E00E94F2
:10414000C43080911801882351F0F101808182FFF1
:1041500006C068E970E084E694E00E94C430D601AD
:104160000D916D0180910201882389F080911801E1
:10417000813069F48BA19CA18A0F9B1F8A159B0536
:1041800031F462E970E084E694E00E94C4300031CA
:1041900028F460E384E694E00E94F03040E150E0CF
:1041A000602F84E694E00E94F0318091180188230A
:1041B00051F0F101808183FF06C06DE870E084E674
:1041C00094E00E94C43080911801882351F0D101FD
:1041D0008C9184FF06C062E870E084E694E00E945F
:1041E000C430BFEF2B1A3B0A7BCF803409F011CFCC
:1041F0008091270281110DCF80912802803109F032
:10420000B8C285E08093FF0104CF85E08093FE0172
:1042100000CF48EEC42E43E0D42EB6010E94B53242
:104220004AE050E084E694E00E94093289819A8154
:10423000B6010E94B5329A8389831ECFFF2009F40C
:104240004EC246CFFF20F9F064E770E084E694E0C8
:104250000E94C430EFE0EF1528F060E384E694E0BC
:104260000E94F03060E384E694E00E94F03060E366
:1042700084E694E00E94F03040E150E06F2D84E647
:1042800094E00E94F03184E694E00E94F73027C267
:104290008091FF01853008F46CC01092FF011092EC
:1042A0004702109248028DE08093490280910302F8
:1042B000882309F455C19E012F5F3F4F6901AE016C
:1042C000475F5F4F7A018E01055F1F4F2C5F3F4FA5
:1042D0004C5F5F4FBE01615F7F4F81EF92E00E94B4
:1042E000FA248F85988990934A0280934B028D859A
:1042F0009E8590934C0280934D028D819E812F81EB
:10430000388530934E0220934F0290935002809351
:1043100051028B859C85909352028093530289852C
:104320009A85909354028093550289819A812B81BA
:104330003C81309356022093570290935802809309
:1043400059028091170180935A029091EF029111C6
:1043500001C080E080935B0210925C0210925D02CB
:1043600080911801843028F467E187E492E00E948C
:10437000BA0D8091FE01853008F454C01092FE0100
:1043800010924702109248028EE080934902709288
:104390004A0260924B0250924C0240924D0210929F
:1043A0004E028AE780934F0282E18093500210927E
:1043B000510280911803809352028091ED02809304
:1043C00053028091EE0280935402809117038093F0
:1043D00055028091E102809356028091DF02809322
:1043E00057028091DD029091DE02909358028093F3
:1043F00059028091D9029091DA022091DB0230912A
:10440000DC0230935A0220935B0290935C0280930B
:104410005D0280911801843028F467E187E492E01E
:104420000E94BA0D8091FD01853008F480C0109281
:10443000FD0110924702109248028FE080934902DA
:104440008DE380934A02B0901801B0924B028091A4
:10445000EC0280934C0280910A0180934D0280917E
:10446000090180934E028091CA029091CB029093F1
:104470004F02809350028091150190911601909304
:1044800051028093520280911301909114019093F4
:10449000530280935402809103028093550290E06E
:1044A00080E00E94D90B8093560282E090E00E9447
:1044B000D90B8093570281E090E00E94D90B809342
:1044C000580221E2C22E21E0D22E00E110E0FF24AA
:1044D000F394C8010E94D90BD6012D916D01022ED3
:1044E000000C330B91E08217130609F090E0F922DB
:1044F0000F5F1F4F0931110561F7F092590280914A
:10450000F00280935A0280911A0380935B0280919B
:10451000190380935C028091EF0280935D02B3E007
:10452000BB1528F067E187E492E00E94BA0DA496DB
:104530000FB6F894DEBF0FBECDBFDF91CF911F91B4
:104540000F91FF90EF90DF90CF90BF90AF909F9032
:104550008F907F906F905F904F903F902F90089535
:10456000EAE4F2E08EE592E011928E179F07E1F700
:10457000F7CE833611F00C94820EF2901082809167
:10458000FC010A30110511F40C94620E81111EC059
:1045900063EF74E184E694E00E94C43067E672E061
:1045A00084E694E00E94E8306F2D84E694E00E9457
:1045B000F0304AE050E0B80184E694E00E94B8315F
:1045C00060EF74E184E694E00E94FB3081E0809328
:1045D000000187E692E0909304018093030110921A
:1045E000040281EF92E00E94272E2B013C01809172
:1045F000D4029091D502A091D602B091D702841531
:104600009505A605B705BCF48091FF018F5F8093E7
:10461000FF018091FE018F5F8093FE018091FD017B
:104620008F5F8093FD014092D4025092D502609238
:10463000D6027092D7028091D0029091D102A091BF
:10464000D202B091D302AC01BD01415F514F6F4F17
:104650007F4F44155505660577059CF420910A01A6
:10466000243618F42F5F20930A01805F914FAF4FDB
:10467000BF4F8093D0029093D102A093D202B09307
:10468000D3028091CC029091CD02A091CE02B09144
:10469000CF02AC01BD01415F514F6F4F7F4F4415B9
:1046A0005505660577059CF420910901243118F41D
:1046B0002F5F20930901805F914FAF4FBF4F8093D1
:1046C000CC029093CD02A093CE02B093CF021FEF05
:1046D00086E292E0FC01E095F095FCA3EBA381EF6C
:1046E00092E00E94332D8A8F882309F4D1CDC090A7
:1046F0000202E090020101E225E032E0AE014F5FEC
:104700005F4F66E272E081EF92E00E94652D4C01FE
:10471000F12C829794F061E374E084E694E00E94C7
:10472000FB30809117038F3F19F08F5F8093170341
:1047300001E2802E912CFF24FA94B5E02B2EB2E0FA
:104740003B2EF101CF01855092408815990514F058
:104750000C949A198191F82AF5CFEF8DF8A1EC5DB0
:10476000FC4F808191819093FB018093FA010C941E
:104770002F1B813109F449CD823109F04ACC85E003
:104780008093FD0146CC1F920F920FB60F92112419
:10479000CF92DF92EF92FF922F933F934F935F93CD
:1047A0006F937F938F939F93AF93BF938091780084
:1047B0002091790030E0322F2227820F932F911D14
:1047C000B0E0A0E020911C01222309F493C01092D4
:1047D0001C012091610420937C00209153043091AE
:1047E00054042F5F3F4F309354042093530440915F
:1047F0004D0450914E0460914F0470915004840F09
:10480000951FA61FB71F80934D0490934E04A0934D
:104810004F04B0935004A901542F44275295507F60
:10482000452B09F051C04091490450914A046091D0
:104830004B0470914C04480F591F6A1F7B1F409313
:10484000490450934A0460934B0470934C04C09005
:104850001F01D0902001F12CE12C8C159D05AE0597
:10486000BF0520F49093200180931F01C0905F0446
:10487000D0906004F12CE12CC816D906EA06FB069C
:1048800020F49093600480935F0410924D04109282
:104890004E0410924F0410925004A4E0220F331FD4
:1048A000AA95E1F7232B81F440935B0450935C04B9
:1048B00060935D0470935E041092490410924A0460
:1048C00010924B0410924C048EED80937A00BF91AD
:1048D000AF919F918F917F916F915F914F913F9198
:1048E0002F91FF90EF90DF90CF900F900FBE0F9021
:1048F0001F90189521E020931C01209162042093C1
:104900007C0020915104309152042F5F3F4F30932F
:104910005204209351044091450450914604609103
:10492000470470914804840F951FA61FB71F8093FA
:10493000450490934604A0934704B0934804A9010A
:10494000542F44275295507F452B09F0BDCF4091FD
:104950004104509142046091430470914404480F13
:10496000591F6A1F7B1F4093410450934204609378
:10497000430470934404C0901D01D0901E01F12C9B
:10498000E12C8C159D05AE05BF0520F490931E010A
:1049900080931D01C0905904D0905A04F12CE12C51
:1049A000C816D906EA06FB0620F490935A048093B1
:1049B0005904109245041092460410924704109234
:1049C000480484E0220F331F8A95E1F7232B09F076
:1049D0007BCF4093550450935604609357047093D3
:1049E0005804109241041092420410924304109211
:1049F00044046ACFCF92DF92EF92FF920F931F93FE
:104A0000CF93DF93E801D70180916304882309F4F1
:104A100055C086E880937A0080911F019091200113
:104A2000FB019183808380915F0490916004FA017F
:104A30009183808340915B0450915C0460915D049C
:104A400070915E04F9014083518362837383809186
:104A50001D0190911E019983888380915904909142
:104A60005A048D939C938091550490915604A09183
:104A70005704B0915804F60180839183A283B383D5
:104A800080EF9FE39093200180931F0110926004B8
:104A900010925F0490931E0180931D0110925A049E
:104AA000109259048EE880937A00DF91CF911F9184
:104AB0000F91FF90EF90DF90CF900895FB0111824E
:104AC0001082FA0111821082F90110821182128281
:104AD0001382198218821D921C92F6011082118293
:104AE00012821382E2CFCF92DF92EF92FF920F9366
:104AF000CF93DF936B017C01D42FC22F96958795BE
:104B0000779567957E5E85489F4FA70196010E9425
:104B1000C9323093400420933F04B90176956795DC
:104B2000CB01820F931F90933E0480933D04C901F3
:104B3000F3E096958795FA95E1F7860F971F909386
:104B40003C0480933B0456954795379527953093C1
:104B50003A0420933904C901880F991F280F391F7F
:104B6000309338042093370461E082E00E94592E8C
:104B700061E086E00E94592E61E085E00E94592E96
:104B800061E083E00E94592E429A5E9A5D9A5B9A98
:104B900062E088E00E94592E61E089E00E94952E33
:104BA00061E089E00E94592E1092770310927603FB
:104BB00010923604109231048FEF809330041092DB
:104BC0002F041092CA031092C9031092C4031092CA
:104BD000C303109275031092740382E084BD94E0C5
:104BE00095BD99EF97BD10926F03109270031092CC
:104BF00071031092720310926B0310926C03109267
:104C00006D0310926E0316BC21E023BD85BB80931B
:104C10006E008093B00023E02093B1009093B30026
:104C200083BD1092B200109277031092760387BB77
:104C30008093700010926F001092800081E8809342
:104C40008100809181008F7B809381008091800022
:104C5000806C8093800080918200806880938200C5
:104C600080E286BB80916F00806280936F00D0935A
:104C70006304DD2301F18C2F806C80936204802F0C
:104C8000806C8093610421E030E0C90101C0880F8D
:104C9000CA95EAF701C0220F0A95EAF7822B8F73B3
:104CA00080937E008091620480937C0010927B0050
:104CB0008EED80937A00DF91CF910F91FF90EF906E
:104CC000DF90CF9008951F920F920FB60F9211248C
:104CD0008F939F93AF93BF9380916B0390916C03DD
:104CE000A0916D03B0916E030896A11DB11D809334
:104CF0006B0390936C03A0936D03B0936E0380914C
:104D000073038F5F809373038D37A8F01092730342
:104D100080916F0390917003A0917103B091720321
:104D20000196A11DB11D80936F0390937003A09312
:104D30007103B0937203BF91AF919F918F910F90C8
:104D40000FBE0F901F9018951F920F920FB60F92E3
:104D500011242F933F938F939F938091760390918B
:104D60007703019649F0809176039091770301963D
:104D700090937703809376038091CA03833609F07A
:104D80006BC02091760330917703809174039091EA
:104D9000750328173907C1F0209176033091770306
:104DA00080917403909175032817390708F454C053
:104DB000209176033091770380911A0190911B0125
:104DC0002817390708F448C081E08093CA0320916E
:104DD00037043091380480916903882321F0809151
:104DE000680391E0811190E090936A0380916A03D7
:104DF000882351F081E0809368031092230380EFB1
:104E0000809365031092670390916F009F7D90934C
:104E10006F0090916F009B7F90936F0010927000D5
:104E20008091840090918500820F931F9093890058
:104E300080938800809180008F7B806880938000C1
:104E4000809181008F7B80938100B19A80916F0067
:104E5000826080936F005D9A9F918F913F912F9117
:104E60000F900FBE0F901F9018958230910510F48F
:104E700082E090E090932203809321030895909321
:104E80001B0180931A0108952091C3039091C403DC
:104E900081E0291380E008959091C4039F5F9931C8
:104EA00008F090E02091C3032917E1F36FB7F8945D
:104EB0002091CA0340912103509122032223A9F09B
:104EC000292F30E0F901E655FC4F8083220F331F74
:104ED000F901E858FC4F518340831092220310924D
:104EE00021039093C4036FBF08958093C8038093F8
:104EF000C6031092C5031092200310921F0383E68D
:104F00008093CA0350937503409374031092220355
:104F100010922103E8CF1F920F920FB60F92112427
:104F20002F933F934F935F936F937F938F939F93B1
:104F3000EF93FF938091CA034091840050918500C4
:104F40006091880070918900843108F0AFC1209190
:104F5000390430913A04260F371F3093890020938B
:104F6000880093B1917080FFE8C020918000206C90
:104F70002093800020918100206420938100813063
:104F800009F05EC0209176033091770330931E03C1
:104F900020931D0310927000911192C010921F0374
:104FA00093B19170B59B59C12091860030918700D3
:104FB00040E246BB992309F432C190916A039923D8
:104FC00059F190916603911104C09091670391117A
:104FD00023C0E0912303F0E0EE0FFF1FEC5DFC4FD8
:104FE00031832083E0912303F0E0E05BFC4F982FB6
:104FF00090669083909123039F5F90932303963153
:1050000011F41092230390916703992329F0909152
:1050100066039150909366038093C9038F5F8093DA
:10502000CA03FF91EF919F918F917F916F915F9153
:105030004F913F912F910F900FBE0F901F90189599
:10504000833169F422E023BD1092B20061E070E088
:10505000709377036093760327BB209370002091B1
:10506000C703291709F49CCF90911F039260909376
:105070001F0390916A03992309F492CF90916603DC
:10508000911104C09091670391118ACF90916703A9
:10509000911106C091E0909367039BE090936603A3
:1050A000E0912303F0E0EE0FFF1FEC5DFC4F518316
:1050B0004083E0912303F0E0E05BFC4F9CEF28C0CD
:1050C00080931F0390916A03992309F469CF90910B
:1050D0006603911104C090916703911161CF909183
:1050E0006703911106C091E0909367039BE0909352
:1050F0006603E0912303F0E0EE0FFF1FEC5DFC4F31
:1051000051834083E0912303F0E0E05BFC4F9FEF8D
:105110009083909123039F5F90932303963111F422
:105120001092230390916703992309F439CF90914A
:10513000660391509093660333CF823108F05FC0CD
:105140002091C803622F617020FD0BC02091800068
:105150002F7B206820938000209181002F7B20935B
:1051600081002091C50326272093C5032091C80301
:1051700030E0359527952093C80391113DC090915B
:105180001F03906290931F0390916A039923A1F1EA
:1051900090916603911104C09091670391112CC006
:1051A00090916703911106C091E0909367039BE093
:1051B00090936603E0912303F0E0EE0FFF1FEC5D98
:1051C000FC4F51834083E0912303F0E0E05BFC4F10
:1051D0009EEF9083909123039F5F909323039631DA
:1051E00011F41092230390916703992329F0909171
:1051F00066039150909366036093C703D1CE60918C
:10520000C5036111BACF209180002F7B20682093C5
:105210008000209181002F7B20938100AECF909160
:105220006A03992309F4F8CE90916603911104C0A2
:10523000909167039111F0CEE0912303F0E0EE0F1F
:10524000FF1FEC5DFC4F31832083E0912303F0E0EE
:10525000E05BFC4F982F9064CCCE9111DDCE909105
:105260006A03992309F4D8CE90916603911104C082
:10527000909167039111D0CE90916703911106C070
:1052800091E0909367039BE090936603E091230382
:10529000F0E0EE0FFF1FEC5DFC4F51834083E09187
:1052A0002303F0E0E05BFC4F97EFA3CE93B1917046
:1052B000B59BC3C0409186005091870030E236BB59
:1052C000992309F4A2C090916A03992351F1909116
:1052D0006603911104C090916703911122C0E0917F
:1052E0002303F0E0EE0FFF1FEC5DFC4F5183408382
:1052F0008066E0912303F0E0E05BFC4F80838091C7
:1053000023038F5F80932303863111F410922303CC
:1053100080916703882329F08091660381508093F0
:10532000660380911F03882329F05B9A8091C40350
:105330008093C30380911901882339F1E0913104EE
:1053400021E02E0F293108F020E080912F048217F0
:1053500009F49CC0822F90E03091C603FC01EA5E04
:10536000FB4F308340911D0350911E03FC01EE0F53
:10537000FF1FE553FC4F5183408330911F0383503F
:105380009C4FFC013083209331049091C4038091A1
:10539000C303981709F4A6C08F5F893108F080E035
:1053A0008093C30390E0FC01E655FC4F30813093BD
:1053B000C8033093C603880F991FFC01E858FC4FBF
:1053C00080819181109220031092C5038230910553
:1053D00008F067C08091880090918900209137047F
:1053E00030913804820F931F909389008093880036
:1053F000809180008F7B8068809380008091810005
:105400008F7B8093810081E00ACE90916A0399237B
:1054100009F487CF90916603911104C090916703BE
:1054200091117FCFE0912303F0E0EE0FFF1FEC5DC1
:10543000FC4F5183408380645CCF911172CF809187
:105440006A03882309F46DCF80916603811104C03B
:1054500080916703811165CF80916703811106C038
:1054600081E0809367038BE080936603E0912303E0
:10547000F0E0EE0FFF1FEC5DFC4F51834083E091A5
:105480002303F0E0E05BFC4F87EF38CF209131043D
:10549000E22FF0E0E350FC4F8081886080835B9ACC
:1054A00074CF33E63093CA039093750380937403EB
:1054B00080916F008D7F80936F00809181008F7B42
:1054C0008093810080E286BB80916F008062809330
:1054D0006F00E22FF0E0E350FC4F80818068808312
:1054E0005D989FCD1092CA03E3CF8091CA038111CA
:1054F000FCCF08958093690308958093190108955E
:105500001F920F920FB60F9211242F933F934F9338
:105510005F936F937F938F939F93EF93FF9320916C
:105520008600309187008091840090918500809161
:1055300036048111D3C05E9A5D985B9890913004D7
:105540009F3F39F090913004909331049FEF9093F6
:105550003004409176035091770350931E0340939B
:105560001D031092700040913D0450913E04420F83
:10557000531F509333044093320492E090933604C7
:105580001092340450938B0040938A0094E096BBB1
:1055900090916F00946090936F00811116C090916C
:1055A0006803911112C09091690390936A039091DE
:1055B0006A03992351F091E09093680310922303BA
:1055C00090EF909365031092670390916A0399237B
:1055D00051F190916603911104C09091670391116C
:1055E00022C0E0912303F0E0EE0FFF1FEC5DFC4FC3
:1055F00031832083806CE0912303F0E0E05BFC4F7B
:105600008083809123038F5F80932303863111F47D
:105610001092230380916703882329F08091660309
:1056200081508093660330931C0320931B032EC08C
:1056300090916A03992351F190916603911104C0EE
:1056400090916703911122C0E0912303F0E0EE0FE7
:10565000FF1FEC5DFC4F31832083806AE0912303C0
:10566000F0E0E05BFC4F8083809123038F5F8093A9
:105670002303863111F4109223038091670388235A
:1056800029F080916603815080936603FF91EF912A
:105690009F918F917F916F915F914F913F912F914A
:1056A0000F900FBE0F901F9018958A3009F08DCF84
:1056B000409132045091330460913F047091400452
:1056C000460F571F509333044093320450938B007E
:1056D00040938A0094E096BB9BE031C040911B034D
:1056E00050911C03B901641B750B40913B04509110
:1056F0003C046417750708F49BCF823008F41ECF72
:105700008A3098F64091350450E05595479540937E
:105710003504409132045091330460913F047091FC
:105720004004460F571F5093330440933204509364
:105730008B0040938A0094E096BB91E0980F909381
:10574000360443CF1F920F920FB60F9211242F935E
:105750003F934F935F936F937F938F939F93AF93F9
:10576000BF93EF93FF9360918A0070918B004091FB
:1057700084005091850090913604913061F58091BC
:105780006F008B7F80936F001092360480913004FD
:105790008F3F79F08091300480933104E09131049F
:1057A000F0E0E350FC4F8081806880838FEF80932E
:1057B00030045E98FF91EF91BF91AF919F918F91CF
:1057C0007F916F915F914F913F912F910F900FBEFD
:1057D0000F901F901895A0913204B091330420913E
:1057E0003F04309140049B3009F0BEC08AE0829FA4
:1057F000F001839FF00D1124EA0FFB1FF0938B0043
:10580000E0938A0081E080933604809131048F5FB9
:10581000893108F080E020912F04281709F459C03D
:10582000E82FF0E020913504DF01AA5EBB4F2C93F6
:1058300020911D0330911E03DF01AA0FBB1FA5534A
:10584000BC4F11963C932E93E350FC4F1082209155
:105850003404222309F4B8C02081246020832091DD
:105860006A032223A1F120916603211104C0209133
:10587000670321112CC020916703211106C021E08C
:10588000209367032BE020936603E0912303F0E06D
:10589000EE0FFF1FEC5DFC4F71836083E0912303EB
:1058A000F0E0E05BFC4F2DEF2083209123032F5F7E
:1058B00020932303263111F41092230320916703D0
:1058C000222329F0209166032150209366035B9ADE
:1058D0000BC0E0913104F0E0E350FC4F8081886020
:1058E00080835B9A809131048093300482E083BD91
:1058F0001092B20021E030E03093770320937603DA
:1059000087BB8093700080916A03882309F452CF8B
:1059100080916603811104C08091670381114ACF91
:10592000E0912303F0E0EE0FFF1FEC5DFC4F51838D
:1059300040839068E0912303F0E0E05BFC4F9083AC
:10594000809123038F5F80932303863111F410929B
:10595000230380916703882309F42CCF8091660389
:1059600081508093660326CF8091340460E8680FED
:105970002A0F3B1F9A3099F4609334046BE06093D4
:105980003604309333042093320430938B002093F9
:105990008A00803811F05B9AB6CF5B98B4CF8091C3
:1059A000350486958068809335046093340481E0E3
:1059B000890F80933604309333042093320430935C
:1059C0008B0020938A009FCF5B988ECF809131040B
:1059D000E0912F048E1761F0EF5FE93108F0E0E00D
:1059E000F0E0EE0FFF1FE553FC4F80819181089599
:1059F00090E080E0089580913104E0912F048E17AB
:105A000049F0EF5FE93108F0E0E0F0E0E350FC4FEF
:105A10008081089580E008958091310490912F0451
:105A2000891761F09F5F993108F090E0E92FF0E06D
:105A3000EA5EFB4F808190932F04089580E00895E3
:105A40002091310490912F04291728F081E0291327
:105A500009C080E007C030E0275E3F4F81E0921729
:105A60001306B9F308952091310480912F04821711
:105A700069F08F5F893108F080E0E82FF0E0E350B3
:105A8000FC4F908197FFF3CF81E0089580E0089567
:105A900080912F04809331040895CF93DF93CFE654
:105AA000D0E088818B7F888388818F7D88830E9466
:105AB000482D0E94752A88818D7F888310927000FE
:105AC00010926E00DF91CF9108952F923F924F92E6
:105AD0005F926F927F928F929F92AF92BF92CF927E
