:100000000C9460020C9488020C9488020C94880270
:100010000C9488020C9488020C9488020C94DD0FD6
:100020000C9488020C9488020C94CF130C94CA1080
:100030000C9406150C9488020C949C0F0C94880266
:100040000C94A4170C9488020C94881A0C94BA1A75
:100050000C9488020C94F30C0C9488020C94880283
:100060000C9488020C9488026364696E6F707375D7
:1000700078585B0020435243206572726F72003AD9
:100080004F522D002D50453A002D42433A002D5835
:10009000583A002D53423A003A20002E00542000D6
:1000A000522000452000203F2000E280BE5C5F001F
:1000B0005F2FE280BE005F5F5F00E280BEE280BE35
:1000C000E280BE002D582D002020206C77202020BB
:1000D0000020202070652020200020202050452076
:1000E00020200020202062632020200020202042A9
:1000F0004320202000202020736220202000202088
:100100002053422020200020202062652020200053
:100110002020204245202020006320004320002A88
:1001200020536B697070696E6720696E69746961CC
:100130006C207061636B65742077697468207265E8
:1001400061646572726F72203D203078002A204110
:100150006C7761797320736B697070696E67206664
:1001600069727374207061636B65742069662064C2
:10017000656C7461203D3D20302E207265616465A0
:1001800072726F72203D203078002A2052656365BC
:1001900069766564207061636B6574206C6F6E674F
:1001A0006572207468616E2052425F53495A45005F
:1001B0002A20436F6D6D616E64206E6F7420756EC2
:1001C00064657273746F6F643A20002A20526573FD
:1001D000657474696E672041546D656761202E2EC9
:1001E0002E2E002A205265667573696E6720746F23
:1001F00020777269746520656D7074792070616311
:100200006B6574002A205363686564756C696E675A
:100210002077726974653A20002A205265667573EA
:10022000696E6720746F20777269746520706163EE
:100230006B6574207768696C652070726576696F8C
:100240007573207061636B6574207761736E2774BA
:100250002066696E69736865640073657420746FE5
:1002600020002A204563686F200073657420746F36
:1002700020002A20536F6674776172652D73636F57
:100280007065200073657420746F20002A20446517
:100290006C617954696D656F7574200073657420A5
:1002A000746F20005B757365206F662064656C61F8
:1002B000792030206F722031206E6F742072656358
:1002C0006F6D6D656E6465642C20696E6372656127
:1002D00073696E6720746F20325D20002A204465A8
:1002E0006C6179200073657420746F20002A2045AA
:1002F00072726F72206D61736B202848697461633C
:1003000068692064656661756C7420307833422CAE
:100310002050453D2B307830342C2055433D2B3038
:100320007834302C206F74686572206272616E645C
:100330007320307837462920002A204C696E6520CA
:10034000746F6F206C6F6E672C207465726D696EB0
:1003500061746564002A204C696E6520746F6F209B
:100360006C6F6E672C2069676E6F72656400522037
:1003700050202020202020202020002A2052647994
:10038000207365747570002A20503150324D5154DD
:1003900054206272696467652041546D65676148E5
:1003A0007749442076312E002028706F7765722DB2
:1003B0006F6E2D7265736574290020286578742D21
:1003C00072657365742900202862726F776E2D6FD5
:1003D000757429002A2052657365742063617573F2
:1003E000653A204D435553523D00204D2D736572A3
:1003F00069657300204E4557503150324C494200D8
:10040000206D6F64656C6E722000206272616E6494
:10041000200032333A33393A3138002000466562E1
:1004200020203920323032350020636F6D70696CC6
:1004300065642000503150324D6F6E69746F7220C8
:1004400076302E392E3539726333002A20454550D7
:10045000524F4D20696E69740000000009000302CC
:10046000000004050800000000000000000000007B
:10047000010204081020408001020408102001023B
:10048000040810204080400404040404040404020E
:100490000202020202030303030303020203000039
:1004A000000023002600290000000000250028008D
:1004B0002B0000000000240027002A00EA1A1E0575
:1004C00011241FBECFEFD8E0DEBFCDBF11E0A0E00A
:1004D000B1E0EEEFF2E402C005900D92A437B1074F
:1004E000D9F725E0A4E7B1E001C01D92A23EB20712
:1004F000E1F712E0CFE5D2E004C02197FE010E94AF
:10050000FD1DCE35D107C9F70E948D1C0C947221B8
:100510000C9400001F93CF93DF93EC01162F0E94E1
:100520002521181739F0612FCE01DF91CF911F914E
:100530000C942D21DF91CF911F9108950C942521CA
:10054000CF92DF92EF92FF921F93CF93DF9386E1DA
:10055000E82E81E0F82E6701C0E1D0E011E0CE0185
:100560000E949E02F60121916F01022E000C330BB6
:1005700091E08217130609F090E019232196C63105
:10058000D10569F7111130C06BE474E085E495E0A2
:100590000E948A1BC0E1D0E0F70161917F01CE018A
:1005A0000E948A022196C631D105B1F760E090E041
:1005B00080E00E948A0260E081E090E00E948A026E
:1005C00063E083E090E00E948A0260E084E090E0D3
:1005D0000E948A026FE785E090E00E948A0260E054
:1005E00089E090E00E948A0285E090E00E949E02ED
:1005F0008F3F29F46FE785E090E00E948A0289E04E
:1006000090E00E949E028F3F29F460E089E090E034
:100610000E948A0289E090E00E949E02823060F48B
:1006200062E089E090E0DF91CF911F91FF90EF9021
:10063000DF90CF900C948A02DF91CF911F91FF90B1
:10064000EF90DF90CF900895882331F06DE171E055
:1006500085E495E00E949C1B6FE271E085E495E0E3
:100660000E94771B64E374E085E495E00E94531BCD
:1006700069E274E085E495E00E94531B6DE174E04B
:1006800085E495E00E94531B6BE174E085E495E0FE
:100690000E94531B62E174E085E495E00E94531BC5
:1006A0006AE074E085E495E00E94531B4AE050E064
:1006B00060910B0185E495E00E945B1C60E074E0B2
:1006C00085E495E00E94531B4AE050E06091D90216
:1006D00085E495E00E945B1C64EF73E085E495E09F
:1006E0000E94531B6AEE73E085E495E00E94531B61
:1006F00085E495E00E94861B64ED73E085E495E057
:100700000E94531B4AE050E06091D30285E495E0DB
:100710000E945B1C8091D30282FF06C067EC73E0ED
:1007200085E495E00E94531B8091D30281FF06C0AF
:100730006AEB73E085E495E00E94531B8091D3023D
:1007400080FF06C068EA73E085E495E00E94531BD1
:1007500085E495E00E94861B67E873E085E495E0F8
:100760000E94531B4AE050E060917E0185E495E0D1
:100770000C94621CEF92FF920F931F9384B78093A7
:10078000D30214BE62E084E00E949D1861E083E021
:100790000E949D1860E083E00E94D91884E00E94C6
:1007A00007197C0161E083E00E94D91884E00E946F
:1007B00007198C0160E084E00E949D18EF2829F45D
:1007C000012B19F082E080937E0180917E018230BE
:1007D000F1F462E00E949D1860E083E00E94D91865
:1007E00082E00E9407197C0161E083E00E94D91831
:1007F00082E00E9407198C0160E082E00E949D184F
:10080000EF2829F4012B19F083E080937E0160E04A
:1008100083E00E949D1880917E01811149C083E090
:1008200080937E0010927B0088B1836088B981EC50
:1008300080937C0086ED80937A0080917A0086FD1B
:10084000FCCF209178008091790090E0982F882744
:10085000820F911D90937D0180937C0188B18C7FE4
:1008600088B987EC80937C0086ED80937A00809134
:100870007A0086FDFCCF209178008091790090E08D
:10088000982F8827820F911D90937D0180937C0182
:1008900088B188B910927E0080917C0190917D0191
:1008A00081529340873C910518F481E080937E014A
:1008B00026E040E950ED63E070E085E495E00E94B9
:1008C0000A1A0E94A00285E090E00E949E02809396
:1008D000050183E090E00E949E02082F80930B01A7
:1008E00084E090E00E949E028093D9020F3F41F481
:1008F00063E083E090E00E948A0283E080930B0132
:100900008091D9028F3F39F460E084E090E00E944A
:100910008A021092D90281E00E94240380917E0114
:10092000EE24E394823008F4E12C07E026E080FD19
:1009300002C001E020E041E0811101C040E060E838
:1009400075E280E090E00E94980E809106010E947E
:10095000CC138091D4020E94C6138091070190911C
:1009600008010E947E1060E085ED92E00E94900EEA
:100970006BE773E085E495E01F910F91FF90EF9096
:100980000C948A1B7F936F9322E331E03F932F9364
:100990009F938F930E94111E0F900F900F900F90B6
:1009A0000F900F9008957F936F9325E331E03F936D
:1009B0002F939F938F930E94111E0F900F900F9073
:1009C0000F900F900F900895FF920F931F93CF9366
:1009D000DF9320917B0121112BC0062F192FF82EB8
:1009E0006EE673E085E495E00E94531BCF2DD12F76
:1009F0000C0F1D2F111D0C171D0789F0F9908FE0AA
:100A00008F1528F060E385E495E00E947F1B40E1AC
:100A100050E06F2D85E495E00E945B1CECCF85E4EF
:100A200095E0DF91CF911F910F91FF900C94861B61
:100A3000DF91CF911F910F91FF9008950C94BD16F7
:100A40002F923F924F925F926F927F928F929F92DE
:100A5000AF92BF92CF92DF92EF92FF920F931F93CC
:100A6000CF93DF93CDB7DEB763970FB6F894DEBFB1
:100A70000FBECDBF80917E01823048F080917B0116
:100A8000813009F45EC038F1823009F465C080918C
:100A90007B01811134C785E495E00E944A199C01CD
:100AA00097FD2DC790917F01E0910301F091040122
:100AB0002A30310509F401C79C3808F001C7AF019D
:100AC0004F5F5F4F509304014093030120839F5F6A
:100AD00090937F01DCCF1C9918C081E080937B014B
:100AE00061E085ED92E00E948A0E60E085ED92E083
:100AF0000E94900E69E371E085E495E00E949C1BE2
:100B000085E495E00E94661AC2CF1D99C0CF82E0AD
:100B100080937B0160E085ED92E00E948A0E61E0A7
:100B200085ED92E00E94900E69E371E085E495E026
:100B30000E949C1B6AE070E080E090E00E94131825
:100B4000DFCF1D99A4CF82E080937B0161E085ED2A
:100B500092E00E94900E9BCF1D9B99CF10927B013B
:100B600023E432E0309304012093030110927F01CB
:100B7000109276018093000126E040E950ED63E099
:100B800070E085E495E00E940A1A60E085ED92E04D
:100B90000E94900E61E085ED92E00E948A0E81E055
:100BA0000E94240374CF81110DC080917B018111BB
:100BB00006C069E373E085E495E00E948A1B81E04A
:100BC000809376011092000192C61082992361F001
:100BD000A92FB0E0AE5BBD4F8C918D3029F49150C0
:100BE00090937F013197108280910001823051F300
:100BF000813029F4809176018111E4CFE0CF88E43F
:100C000092E0909304018093030144E050E06AE491
:100C100071E083E492E00E94031E6C01892B09F0CD
:100C200066C6198280914702873509F48FC10CF09E
:100C300066C08B3409F423C214F58A3209F457C60E
:100C4000853409F4AFC0882309F451C680917B0133
:100C5000811106C060EB71E085E495E00E94531BB2
:100C600080917B01811143C6609103017091040161
:100C70006150710985E495E00E949C1B38C684355B
:100C800009F4DFC094F58F3409F780917B0181115D
:100C900006C06CE872E085E495E00E94531B67E0B3
:100CA00071E080910301909104010E94C2040197B8
:100CB00099F480910701909108010E947E10809123
:100CC0007B01811106C064E872E085E495E00E9432
:100CD000531B89E08093780180917B01811107C6C5
:100CE0006091070170910801ECC0853509F4F0C0EE
:100CF000863509F0ABCF80E00E942403F8C5843725
:100D000009F49FC00CF042C0853609F44BC0BCF515
:100D1000883509F09BCF80917B01811106C062E686
:100D200072E085E495E00E94531BBE016F5E7F4F29
:100D300080910301909104010E94C20481309105C9
:100D4000A9F429893A89232B11F09A8B898B8989F7
:100D5000809306010E94CC1380917B018111C7C54D
:100D60006AE572E085E495E00E94531B80917B0167
:100D70008111BDC54AE050E0609106015DC08B362F
:100D800009F47DC18F3609F480CF60CF863709F42E
:100D9000B2CF0CF49DC0873709F4D8C0883709F466
:100DA000BACF54CF80917B01811106C06DEE72E005
:100DB00085E495E00E94531BBE016F5E7F4F8091DA
:100DC0000301909104010E94D3040197B1F4898931
:100DD0008F77809305010E94C91380917B01811157
:100DE00006C065EE72E085E495E00E94531B6091B9
:100DF000050185E090E00E948A0280917B018111CB
:100E000006C06FE471E085E495E00E94771B809155
:100E10007B0190910501903138F4811105C060E3A8
:100E200085E495E00E947F1B80917B0140E150E0CA
:100E30006091050181115BC585E495E00E94621C0B
:100E400056C580917B01811106C06CED72E085E48E
:100E500095E00E94531B69E071E08091030190913D
:100E600004010E94C204019721F580917B01209129
:100E7000090130910A012230310570F422E030E09E
:100E800030930A0120930901811110C064EA72E0D5
:100E900085E495E00E94531B80917B01811106C07F
:100EA0006CE972E085E495E00E94531B89E0809331
:100EB000780180917B016091090170910A01811193
:100EC00016C54AE050E085E495E00E947A1C0FC503
:100ED00080917B01811106C062E772E085E495E0B4
:100EE0000E94531BBE016F5E7F4F80910301909162
:100EF00004010E94C2040197C9F489898093D40235
:100F000099E090937801823018F081E08093D402C8
:100F10008091D4020E94C61380917B01811112C07E
:100F20006AE672E085E495E00E94531B80917B01A4
:100F3000811108C04AE050E06091D40285E495E058
:100F40000E94621C88EC80930201D1C40E9483102D
:100F5000882391F102E012E09E012F5F3F4F49018B
:100F60007E0133E1E30EF11C62E5A62E61E0B62EB0
:100F70009F928F92FF92EF92BF92AF928091040165
:100F80008F93809103018F930E94111E0FB6F894E6
:100F9000DEBF0FBECDBF20917B01019701F1C114CF
:100FA000D10409F056C02111A2C463EE71E085E4BA
:100FB00095E00E948A1B9BC480917B01811106C031
:100FC00069E172E085E495E00E948A1B8091D60277
:100FD0008F3F09F48CC48F5F8093D60288C48981C7
:100FE0004091030150910401840F952F911D90931E
:100FF000040180930301C114D10441F4211106C0FE
:1010000064E072E085E495E00E94531B8B89FFEF5A
:10101000CF1ADF0AF80181938F01803150F480915B
:101020007B01811106C06CE571E085E495E00E94CA
:10103000771B80917B01811107C040E150E06B89F3
:1010400085E495E00E945B1C81E4C816D10409F098
:101050008FCF80917B01811104C085E495E00E94CF
:10106000861B2091090130910A01E12C00E04C2DF2
:1010700062E072E085ED92E00E945C1738C48091D6
:101080007B01811106C06BEC71E085E495E00E9464
:101090008A1BE0917901F0917A01099528C4909119
:1010A000010180917B01992309F4E6C09A3009F08F
:1010B000D6C029813A81232B09F0D1C06DE471E0BB
:1010C000882309F4D2C080917B01811107C040E1DF
:1010D00050E0632D85E495E00E94621C809101013F
:1010E000815080930101809178018530E8F1109260
:1010F000780110920202109203028EE080930402A3
:101100001092050289E0809306028BE38093070228
:1011100080917E018093080280910B0180930902E7
:101120008091D90280930A028091D40280930B02AD
:101130008CE980930C028091090190910A019093AF
:101140000D0280930E028091070190910801909307
:101150000F02809310028091D3028093110260E10C
:1011600082E092E00E94E40480917701853008F4E7
:101170005DC01092770110920202109203028FE07C
:10118000809304028091D802809305028091D70257
:1011900080930602109211021092120270921302B2
:1011A00060921402509215024092160280917E01C4
:1011B0008823B9F19E012F5F3F4F6901CE01099647
:1011C0007C018E01055F1F4F2C5F3F4FAE01435FD7
:1011D0005F4FBE01615F7F4F85ED92E00E942A0E56
:1011E0006D817E818F8198850E94CC1C2DE434E333
:1011F00041E558E30E945A1D0E949D1C645E609365
:10120000170269817A818B819C810E94CC1C29E420
:1012100031E147E157E30E945A1D0E949D1C6093F3
:10122000180267E182E092E00E94E40463960FB640
:10123000F894DEBF0FBECDBFDF91CF911F910F910C
:10124000FF90EF90DF90CF90BF90AF909F908F90E6
:101250007F906F905F904F903F902F900895332034
:1012600049F0811130CF6FE171E085E495E00E9493
:10127000531B29CF109201019091D402992309F4B4
:10128000AFC09091E202911105C090912403903F6C
:1012900009F4A6C090910201955090930201332069
:1012A00009F47AC06CE171E0882309F479C0809177
:1012B000C101803148F480917B01811105C060E358
:1012C00085E495E00E947F1B80917B01811108C01D
:1012D00040E150E06091C10185E495E00E945B1C13
:1012E0008091C201803148F480917B01811105C059
:1012F00060E385E495E00E947F1B80917B01811172
:1013000008C040E150E06091C20185E495E00E9490
:101310005B1C8091C301803148F480917B01811175
:1013200005C060E385E495E00E947F1B80917B010E
:10133000811108C040E150E06091C30185E495E06F
:101340000E945B1C80917B01811105C060E285E4F5
:1013500095E00E947F1B80912403F12CE12C803FBB
:1013600019F0E090E202F12CD701A15FBC4FEC91A3
:1013700080917B01E75FE93008F065C1F0E0ED5353
:10138000F64F0C94FD1D1E0BF70A190B0F0B050BE6
:10139000D509140B0A0B000B811189CF69E171E0AB
:1013A00085E495E00E94531B82CF60E171E08823C1
:1013B00009F421C1FFEFEF1AFF0A26E1E216F1045A
:1013C00011F4F12CE12C8091E2028E151F0461F6DC
:1013D00080917B01811104C085E495E00E94861B09
:1013E000809102018F5F893C08F03DC28093020129
:1013F0001092270390917B01332009F453C24114CA
:1014000051046104710449F08091D8028F3F29F0A2
:101410008F5F8093D8023092D702911110C063EA97
:1014200070E085E495E00E94531B80917B0181115F
:1014300006C06DE970E085E495E00E94531B898148
:101440009A818031974248F480917B01811105C0D7
:1014500060E285E495E00E947F1B89819A8120915A
:101460007B01883EE3E09E0708F000C2211105C021
:1014700060E385E495E00E947F1B80917B018111F0
:1014800006C06BE970E085E495E00E94531B8981FA
:101490009A818436910548F480917B01811105C0C1
:1014A00060E385E495E00E947F1B89819A810A9719
:1014B00048F480917B01811105C060E385E495E0EB
:1014C0000E947F1B80917B01811108C069817A8114
:1014D0004AE050E085E495E00E94741C80917B0115
:1014E000811106C068E970E085E495E00E94531B15
:1014F00081ECE82E81E0F82E00E811E080917B017C
:10150000980120583140281539050CF0C4C16801F4
:10151000F801908190FF08C0811106C063E970E076
:1015200085E495E00E94531BF801808181FF0AC089
:1015300080917B01811106C06EE870E085E495E042
:101540000E94531BF801808185FF0AC080917B01B6
:10155000811106C069E870E085E495E00E94531BA4
:10156000F801808182FF0AC080917B01811106C051
:1015700064E870E085E495E00E94531BF701B190A8
:101580007F01FFE0FB1548F080917B01811105C0D0
:1015900060E385E495E00E947F1B80917B018111CF
:1015A00007C040E150E06B2D85E495E00E945B1C94
:1015B000F801808183FF0AC080917B01811106C000
:1015C0006FE770E085E495E00E94531B0F5F1F4FAB
:1015D000F601808184FF92CF80917B0181118ECFB3
:1015E00064E770E085E495E00E94531B87CF81118A
:1015F000E1CE67E071E085E495E00E94531BDACE0E
:101600006EEF70E08111D6CEF6CF65EF70E08111FC
:10161000D1CEF1CF6CEE70E08111CCCEECCF63EE89
:1016200070E08111C7CEE7CF6AED70E08111C2CEC4
:10163000E2CF61ED70E08111BDCEDDCF68EC70E0EE
:101640008111B8CED8CF1C91107E0C910F7167011B
:10165000CC0CDD1CB1104BC0103439F4811105C025
:1016600060E285E495E00E947F1BF601ED51FD4F9D
:10167000A080B1808091740190917501A81AB90A77
:1016800023E0B694A7942A95E1F72AE0A216B104C4
:1016900098F480917B01811105C060E285E495E0BA
:1016A0000E947F1B80917B01811121C060E285E453
:1016B00095E00E947F1B04C034E6A316B10490F3AA
:1016C00080917B01811113C04AE050E0B50185E4AF
:1016D00095E00E94741C80917B01103409F46CC168
:1016E000811105C06AE385E495E00E947F1BF60145
:1016F000ED51FD4F8081918190937501809374012C
:1017000080917B011036E1F1A0F4112359F11034DE
:1017100009F45BC1882309F489C0103809F48FC02B
:1017200008F0C5C0103409F457C1103609F071C073
:101730003EC0103A21F0103C11F0103859F70A3031
:1017400008F04BC0023008F46BC081114DC0E02F8F
:10175000E250FF0BBF014AE050E085E495E00E94B3
:10176000471C4EC0811105C06FE385E495E00E94DF
:101770007F1B80917B0166EB70E081116BC06EC0B6
:10178000033140F40330D0F4013070F481110FC004
:1017900060E205C00531D0F760E5811108C085E43D
:1017A00095E00E947F1B03C063E58823C1F380910D
:1017B0007B0160EB70E081114DC050C08111F7CF0B
:1017C000802F8350990BBC01759567954AE050E0D6
:1017D00085E495E00E94471CEACF0A3051F00B30B7
:1017E00019F565E4882341F0103A81F1103C91F538
:1017F000F3C060E58111F8CF85E495E00E947F1B7E
:101800001036A9F2A8F4112309F4B3CF103409F467
:10181000E3C080917B0181111DC066EA70E01EC0AB
:101820008111E2CF63E5E8CF8111DECF60E2E4CF42
:10183000103A61F0103C09F4CFC0103851F7809194
:101840007B016AEB70E0811105C008C080917B01CB
:10185000882311F0B12CAECD64EC70E085E495E006
:101860000E94531BF7CF20920201C2CD21110AC062
:1018700068EE73E00E94C71D4AE050E085E495E001
:101880000E94741C89819A8168EE73E00E94C71DD2
:101890009A838983F2CD811159C085E495E00E9435
:1018A000861B54C09111CBCD60EA70E0BACD103ADE
:1018B00089F2103C09F0ADCF8FC09C3809F085C982
:1018C00031971082809176012A30310509F46BC975
:1018D00081110AC080917B01811106C065E573E02A
:1018E00085E495E00E948A1B81E08093000183E4F7
:1018F00092E0909304018093030110927F0185EDA3
:1019000092E00E949B172B013C018091CF029091A5
:10191000D002A091D102B091D20284159505A605FE
:10192000B70594F4809178018F5F8093780180915E
:1019300077018F5F809377014092CF025092D0025F
:101940006092D1027092D20258EC252E85ED92E081
:101950000E94A316B82E882309F4C5CBC12CE12C14
:1019600001E420E831E0AE014F5F5F4F61EC71E0D0
:1019700085ED92E00E94D5164C01312C8234910500
:101980007CF080917B01811106C06AE871E085E4FA
:1019900095E00E948A1B41E4842E912C33243A94D2
:1019A000E0E8F1E0CF0180589140881599050CF0EE
:1019B00076CB8191382AF6CFF601ED51FD4F20818B
:1019C00031813093750120937401811105C060E26B
:1019D00085E495E00E947F1B80917B016AEA70E0BC
:1019E000811138CF3BCF1F920F920FB60F92112467
:1019F000CF92DF92EF92FF922F933F934F935F939B
:101A00006F937F938F939F93AF93BF938091780051
:101A10002091790030E0322F2227820F932F911DE1
:101A2000B0E0A0E020911101222309F493C01092AC
:101A300011012091380520937C0020912A053091D6
:101A40002B052F5F3F4F30932B0520932A054091A4
:101A50002405509125056091260570912705840F76
:101A6000951FA61FB71F8093240590932505A0936B
:101A70002605B0932705A901542F44275295507F7E
:101A8000452B09F051C040912005509121056091EE
:101A9000220570912305480F591F6A1F7B1F409331
:101AA0002005509321056093220570932305C09073
:101AB0001401D0901501F12CE12C8C159D05AE057B
:101AC000BF0520F49093150180931401C090360552
:101AD000D0903705F12CE12CC816D906EA06FB0692
:101AE00020F49093370580933605109224051092C8
:101AF00025051092260510922705A4E0220F331F1A
:101B0000AA95E1F7232B81F44093320550933305D6
:101B100060933405709335051092200510922105CD
:101B200010922205109223058EED80937A00BF91CA
:101B3000AF919F918F917F916F915F914F913F9165
:101B40002F91FF90EF90DF90CF900F900FBE0F90EE
:101B50001F90189521E020931101209139052093C1
:101B60007C0020912805309129052F5F3F4F30934D
:101B700029052093280540911C0550911D05609171
:101B80001E0570911F05840F951FA61FB71F809318
:101B90001C0590931D05A0931E05B0931F05A90178
:101BA000542F44275295507F452B09F0BDCF4091CB
:101BB00018055091190560911A0570911B05480F81
:101BC000591F6A1F7B1F4093180550931905609396
:101BD0001A0570931B05C0901201D0901301F12CCF
:101BE000E12C8C159D05AE05BF0520F490931301E3
:101BF00080931201C0903005D0903105F12CE12C7A
:101C0000C816D906EA06FB0620F4909331058093A6
:101C1000300510921C0510921D0510921E051092A1
:101C20001F0584E0220F331F8A95E1F7232B09F06B
:101C30007BCF40932C0550932D0560932E05709318
:101C40002F05109218051092190510921A0510927E
:101C50001B056ACFCF92DF92EF92FF920F931F93F3
:101C600080913B05882309F44EC086E880937A0072
:101C70008091140190911501FB01918380838091E3
:101C8000360590913705FA01918380838091320562
:101C900090913305A0913405B0913505F901808309
:101CA0009183A283B3838091120190911301F80173
:101CB000918380838091300590913105F701918364
:101CC000808380912C0590912D05A0912E05B091D7
:101CD0002F05F60180839183A283B38380EF9FE376
:101CE00090931501809314011092370510923605D8
:101CF00090931301809312011092310510923005D8
:101D00008EE880937A001F910F91FF90EF90DF9003
:101D1000CF900895662311F0429A0895429808954D
:101D20008BB1662319F08C618BB90895837EFCCF4B
:101D30008F929F92AF92BF92EF920F93CF93DF93C8
:101D40004B015C01D42FC22F9695879577956795A7
:101D50007E5E85489F4FA50194010E94DB1D309354
:101D6000170520931605B90176956795CB01820F6B
:101D7000931F9093150580931405C901F3E0969580
:101D80008795FA95E1F7860F971F90931305809337
:101D90001205569547953795279530931105209351
:101DA0001005C901880F991F280F391F30930F059F
:101DB00020930E0561E082E00E949D1861E086E0BC
:101DC0000E949D1861E085E00E949D1861E083E01B
:101DD0000E949D18E0923A05429A80913A05882324
:101DE00009F4A6C05E9880913A05882309F4A2C040
:101DF0005D988BB18C618BB962E088E00E949D1880
:101E000061E089E00E94D91861E089E00E949D1894
:101E1000109236031092350310920D0510920805AA
:101E20008FEF80930705109206051092010410921F
:101E300000041092FB031092FA03109234031092E4
:101E4000330382E084BD94E095BD99EF97BD109275
:101E50002E0310922F031092300310923103109230
:101E60002A0310922B0310922C0310922D0316BC00
:101E700021E023BD85BB80936E008093B00023E0FA
:101E80002093B1009093B30083BD1092B2001092E2
:101E900036031092350387BB8093700010926F0059
:101EA0001092800081E880938100809181008F7B77
:101EB0008093810080918000806C8093800080916D
:101EC000820080688093820080E286BB80916F00F0
:101ED000806280936F00D0933B05DD2301F18C2F4E
:101EE000806C80933905802F806C8093380521E0C9
:101EF00030E0C90101C0880FCA95EAF701C0220F7E
:101F00000A95EAF7822B8F7380937E0080913905C2
:101F100080937C0010927B008EED80937A00DF919D
:101F2000CF910F91EF90BF90AF909F908F900895B9
:101F30005E9A59CF5D9A5DCF1F920F920FB60F92A6
:101F400011248F939F93AF93BF9380912A03909115
:101F50002B03A0912C03B0912D030896A11DB11D58
:101F600080932A0390932B03A0932C03B0932D030B
:101F7000809132038F5F809332038D37A8F01092E7
:101F8000320380912E0390912F03A0913003B091E2
:101F900031030196A11DB11D80932E0390932F0351
:101FA000A0933003B0933103BF91AF919F918F9174
:101FB0000F900FBE0F901F9018951F920F920FB6A3
:101FC0000F9211242F933F938F939F93809135030A
:101FD00090913603019649F0809135039091360334
:101FE00001969093360380933503809101048336E4
:101FF00009F06FC02091350330913603809133038F
:102000009091340328173907C1F02091350330919E
:10201000360380913303909134032817390708F46D
:1020200058C0209135033091360380910F01909173
:1020300010012817390708F44CC081E0809301048F
:1020400020910E0530910F0580912803882321F0FF
:102050008091270391E0811190E090932903809172
:102060002903882351F081E0809327031092E20234
:1020700080EF809324031092260390916F009F7D40
:1020800090936F0090916F009B7F90936F001092E0
:1020900070008091840090918500820F931F90932F
:1020A000890080938800809180008F7B8068809376
:1020B0008000809181008F7B80938100B19A809114
:1020C0006F00826080936F0080913A05882351F001
:1020D0005D989F918F913F912F910F900FBE0F9020
:1020E0001F9018955D9AF5CF8230910510F482E02B
:1020F00090E09093E1028093E002089590931001A4
:1021000080930F0108952091FA039091FB0381E0E1
:10211000291380E008959091FB039F5F913408F0AC
:1021200090E02091FA032917E1F36FB7F89420911A
:1021300001044091E0025091E1022223A9F0292FED
:1021400030E0F901E754FC4F8083220F331FF9017F
:10215000E95CFC4F518340831092E1021092E0024F
:102160009093FB036FBF08958093FF038093FD035B
:102170001092FC031092DF021092DE0283E680933D
:10218000010450933403409333031092E102109200
:10219000E002E8CF1F920F920FB60F9211242F93F7
:1021A0003F934F935F936F937F938F939F93EF939F
:1021B000FF938091010440918400509185006091CB
:1021C0008800709189009BB1937E9BB9843108F09F
:1021D000AFC12091100530911105260F371F3093A4
:1021E00089002093880093B1917080FFE8C020910E
:1021F0008000206C20938000209181002064209337
:102200008100813009F05EC02091350330913603A2
:102210003093DD022093DC0210927000911192C085
:102220001092DE0293B19170B59B59C12091860046
:102230003091870040E246BB992309F432C1909166
:102240002903992359F190912503911104C090918C
:102250002603911123C0E091E202F0E0EE0FFF1F90
:10226000ED51FD4F31832083E091E202F0E0E15F28
:10227000FC4F982F906690839091E2029F5F90931D
:10228000E202963111F41092E20290912603992312
:1022900029F0909125039150909325038093000499
:1022A0008F5F80930104FF91EF919F918F917F91B8
:1022B0006F915F914F913F912F910F900FBE0F90B3
:1022C0001F901895833169F422E023BD1092B2006B
:1022D00061E070E0709336036093350327BB209371
:1022E00070002091FE03291709F49CCF9091DE0223
:1022F00092609093DE0290912903992309F492CF82
:1023000090912503911104C09091260391118ACFD9
:1023100090912603911106C091E0909326039BE0D3
:1023200090932503E091E202F0E0EE0FFF1FED51E4
:10233000FD4F51834083E091E202F0E0E15FFC4F0A
:102340009CEF28C08093DE0290912903992309F421
:1023500069CF90912503911104C0909126039111AA
:1023600061CF90912603911106C091E090932603CE
:102370009BE090932503E091E202F0E0EE0FFF1F57
:10238000ED51FD4F51834083E091E202F0E0E15FC7
:10239000FC4F9FEF90839091E2029F5F9093E20247
:1023A000963111F41092E20290912603992309F4D8
:1023B00039CF9091250391509093250333CF8231EB
:1023C00008F05FC02091FF03622F617020FD0BC0F9
:1023D000209180002F7B2068209380002091810035
:1023E0002F7B209381002091FC0326272093FC0360
:1023F0002091FF0330E0359527952093FF0391113D
:102400003DC09091DE0290629093DE02909129038C
:102410009923A1F190912503911104C09091260375
:1024200091112CC090912603911106C091E09093D8
:1024300026039BE090932503E091E202F0E0EE0F8B
:10244000FF1FED51FD4F51834083E091E202F0E028
:10245000E15FFC4F9EEF90839091E2029F5F90932B
:10246000E202963111F41092E20290912603992330
:1024700029F0909125039150909325036093FE03DA
:10248000D1CE6091FC036111BACF209180002F7BE7
:10249000206820938000209181002F7B2093810071
:1024A000AECF90912903992309F4F8CE909125039A
:1024B000911104C0909126039111F0CEE091E202B7
:1024C000F0E0EE0FFF1FED51FD4F31832083E091CF
:1024D000E202F0E0E15FFC4F982F9064CCCE9111C6
:1024E000DDCE90912903992309F4D8CE909125034C
:1024F000911104C0909126039111D0CE90912603A2
:10250000911106C091E0909326039BE090932503E0
:10251000E091E202F0E0EE0FFF1FED51FD4F51831D
:102520004083E091E202F0E0E15FFC4F97EFA3CE41
:1025300093B19170B59BC5C04091860050918700C2
:1025400030E236BB992309F4A4C090912903992362
:1025500051F190912503911104C09091260391119E
:1025600022C0E091E202F0E0EE0FFF1FED51FD4FBF
:10257000518340838066E091E202F0E0E15FFC4F2E
:1025800080838091E2028F5F8093E202863111F4B2
:102590001092E20280912603882329F0809125037E
:1025A0008150809325038091DE02882339F08BB11E
:1025B0008C618BB98091FB038093FA0380910E01AB
:1025C000882339F1E091080521E02E0F213408F02D
:1025D00020E080910605821709F49CC0822F90E0CC
:1025E0003091FD03FC01EB53FB4F30834091DC0243
:1025F0005091DD02FC01EE0FFF1FEE5FFB4F518398
:1026000040833091DE028C579B4FFC013083209336
:1026100008059091FB038091FA03981709F4ACC068
:102620008F5F813408F080E08093FA0390E0FC0132
:10263000E754FC4F30813093FF033093FD03880F44
:10264000991FFC01E95CFC4F808191811092DF02AF
:102650001092FC038230910508F069C080918800D7
:102660009091890020910E0530910F05820F931FE4
:102670009093890080938800809180008F7B806890
:1026800080938000809181008F7B8093810081E026
:1026900008CE90912903992309F485CF90912503C1
:1026A000911104C09091260391117DCFE091E20237
:1026B000F0E0EE0FFF1FED51FD4F5183408380642A
:1026C0005ACF911170CF80912903882309F46BCFE1
:1026D00080912503811104C080912603811163CF6D
:1026E00080912603811106C081E0809326038BE050
:1026F00080932503E091E202F0E0EE0FFF1FED5121
:10270000FD4F51834083E091E202F0E0E15FFC4F36
:1027100087EF36CF20910805E22FF0E0EC57FB4F12
:102720008081886080838BB18C618BB972CF33E6F6
:1027300030930104909334038093330380916F00AE
:102740008D7F80936F00809181008F7B80938100CB
:1027500080E286BB80916F00806280936F00E22FE1
:10276000F0E0EC57FB4F80818068808380913A05D0
:10277000882329F05D9A97CD10920104DFCF5D98F0
:1027800092CD809101048111FCCF0895809328039C
:10279000089580930C01089580930E0108951F926F
:1027A0000F920FB60F9211242F933F934F935F9385
:1027B0006F937F938F939F93EF93FF932091860066
:1027C00030918700809184009091850080910D0563
:1027D0008111D2C090913A05992309F453C05E98B3
:1027E00090913A05992309F44FC05D9A9BB1937E6D
:1027F0009BB9909107059F3F39F090910705909301
:1028000008059FEF909307054091350350913603DB
:102810005093DD024093DC02109270004091140549
:1028200050911505420F531F50930A054093090517
:1028300092E090930D0510920B0550938B004093FE
:102840008A0094E096BB90916F00946090936F0023
:102850008111A9C0909127039111A5C090912803DF
:102860009093290390912903992309F49CC091E046
:10287000909327031092E20290EF9093240310921A
:10288000260391C05E9AACCF5D98B0CF909129039A
:10289000992351F190912503911104C09091260341
:1028A000911122C0E091E202F0E0EE0FFF1FED5126
:1028B000FD4F31832083806AE091E202F0E0E15F26
:1028C000FC4F80838091E2028F5F8093E202863129
:1028D00011F41092E20280912603882329F080915E
:1028E0002503815080932503FF91EF919F918F9154
:1028F0007F916F915F914F913F912F910F900FBEFC
:102900000F901F9018958A3009F04DC0409109052D
:1029100050910A056091160570911705460F571FD3
:1029200050930A054093090550938B0040938A0009
:1029300094E096BB9BE01DC040910C0550E055957E
:10294000479540930C054091090550910A05609107
:10295000160570911705460F571F50930A054093AF
:10296000090550938B0040938A0094E096BB91E058
:10297000980F90930D0517C04091DA025091DB0239
:10298000B901641B750B4091120550911305641732
:10299000750708F47BCF8A3008F0B5CF823060F637
:1029A000813009F426CF90912903992351F1909118
:1029B0002503911104C090912603911122C0E0914A
:1029C000E202F0E0EE0FFF1FED51FD4F3183208357
:1029D000806CE091E202F0E0E15FFC4F8083809147
:1029E000E2028F5F8093E202863111F41092E202DC
:1029F00080912603882329F08091250381508093BC
:102A000025033093DB022093DA026ECF1F920F92E0
:102A10000FB60F9211242F933F934F935F936F93B1
:102A20007F938F939F93AF93BF93EF93FF934091C7
:102A30008A0050918B002091840030918500809114
:102A40000D058A30B8F5823008F0F9C0813009F4FC
:102A5000C4C090912903992309F4DEC09091250305
:102A6000911104C0909126039111D6C0E091E20229
:102A7000F0E0EE0FFF1FED51FD4F318320838068A2
:102A8000E091E202F0E0E15FFC4F80838091E2029E
:102A90008F5F8093E202863111F41092E2028091FE
:102AA0002603882309F4B8C08091250381508093C0
:102AB0002503B2C08A3009F4E4C08B3051F660912E
:102AC0000D0170E06F5F7F4FA0911605B091170563
:102AD0006A9FF0016B9FF00D7A9FF00D11246091B9
:102AE000090570910A056E0F7F1F70938B0060932C
:102AF0008A0091E090930D05909108059F5F9134B5
:102B000008F090E060910605691709F4C1C0E92F4B
:102B1000F0E060910C05DF01AB53BB4F6C9360910B
:102B2000DC027091DD02DF01AA0FBB1FAE5FBB4F5D
:102B300011967C936E93EC57FB4F108260910B05BE
:102B40006623D9F160816460608360912903662304
:102B5000A1F160912503611104C060912603611108
:102B60002CC060912603611106C061E060932603CA
:102B70006BE060932503E091E202F0E0EE0FFF1FAF
:102B8000ED51FD4F51834083E091E202F0E0E15FBF
:102B9000FC4F4DEF40834091E2024F5F4093E202D1
:102BA000463111F41092E20240912603442329F0A9
:102BB000409125034150409325039093070592E0EF
:102BC00093BD1092B20041E050E050933603409321
:102BD000350397BB909370003CCF80916F008B7F43
:102BE00080936F0010920D05809107058F3F79F05B
:102BF0008091070580930805E0910805F0E0EC5707
:102C0000FB4F8081806880838FEF809307058091E0
:102C10003A05882391F05E9AFF91EF91BF91AF91B1
:102C20009F918F917F916F915F914F913F912F91E4
:102C30000F900FBE0F901F9018955E98EDCF90915A
:102C40000C059695906890930C0590910B05905803
:102C500090930B0591E0980F90930D054091090515
:102C600050910A056091160570911705460F571F80
:102C700050930A054093090550938B0040938A00B6
:102C8000E8CE90910B05905890930B059BE0E4CF14
:102C9000E0910805F0E0EC57FB4F9081986090833D
:102CA0009BB19C619BB99091080587CF80910805E5
:102CB000E09106058E1761F0EF5FE13408F0E0E087
:102CC000F0E0EE0FFF1FEE5FFB4F808191810895D2
:102CD00090E080E0089580910805E09106058E1748
:102CE00049F0EF5FE13408F0E0E0F0E0EC57FB4F33
:102CF0008081089580E008958091080590910605EF
:102D0000891761F09F5F913408F090E0E92FF0E0BF
:102D1000EB53FB4F808190930605089580E0089562
:102D20002091080590910605291728F081E02913C4
:102D300009C080E007C030E02F5B3F4F81E0921771
:102D40001306B9F3089520910805809106058217AE
:102D500069F08F5F813408F080E0E82FF0E0EC57F5
:102D6000FB4F908197FFF3CF81E0089580E00895B5
:102D700080910605809308050895CF93DF93CFE6F1
:102D8000D0E088818B7F888388818F7D88830E94B3
:102D9000B8160E94C11388818D7F888310927000BD
:102DA00010926E00DF91CF9108952F923F924F9233
:102DB0005F926F927F928F929F92AF92BF92CF92CB
:102DC000EF920F93CF93DF935C013B012A014901FE
:102DD000C0E0202F2150330B1401220E331EC501F9
:102DE0000E9490168823D9F3C5010E946B16D82F34
:102DF0008114910449F080910C01C01740F5F40151
:102E0000EC0FF11D8D238083C11106C0C5010E9406
:102E10005616F20191838083C5010E947C16D7FF6C
:102E20001CC0EE2009F445C0C01760F5EC2FF0E09F
:102E3000D301AE0FBF1F8C938C1521F1E80DF91D46
:102E40008081806180838BB18C618BB91BC0982F8E
:102E50009D23F1018081892BD6CFC01720F4F30187
:102E6000EC0FF11D8083EE2069F098E02C2D30E00E
:102E700035952795C826C0FE1AC0CE2CC226869549
:102E80009150A1F7CF5FD7FFAACF8C2F90E0DF91B1
:102E9000CF910F91EF90CF90BF90AF909F908F9078
:102EA0007F906F905F904F903F902F900895C22E2B
:102EB000E6CFC017A0F2E6CFCF92DF92EF920F934A
:102EC0001F93CF93DF93D62E172FC42EC9010E94D4
:102ED0007410CD2DD12FCC0EDD2ED11CCC16DD06DD
:102EE000B1F01991812F0E948B100023B9F328E0D3
:102EF0008E2D90E095958795E126E0FE06C0E02EA8
:102F0000E82616952150A1F7E9CFE82EFACF002345
:102F100051F08E2DDF91CF911F910F91EF90DF90A7
:102F2000CF900C948B10DF91CF911F910F91EF9068
:102F3000DF90CF90089560912E0370912F038091C0
:102F400030039091310308951F920F920FB60F92A4
:102F500011242F933F938F939F93AF93BF938091AF
:102F6000410590914205A0914305B09144053091EF
:102F7000400526E0230F2D3768F129E8230F03963B
:102F8000A11DB11D209340058093410590934205FA
:102F9000A0934305B093440580913C0590913D0575
:102FA000A0913E05B0913F050196A11DB11D8093F2
:102FB0003C0590933D05A0933E05B0933F05BF911E
:102FC000AF919F918F913F912F910F900FBE0F90D6
:102FD0001F9018950296A11DB11DD4CF3FB7F8944C
:102FE00080913C0590913D05A0913E05B0913F0533
:102FF00026B5A89B05C02F3F19F00196A11DB11D54
:103000003FBFBA2FA92F982F8827BC01CD01620F8F
:10301000711D811D911D43E0660F771F881F991F49
:103020004A95D1F708958F929F92AF92BF92CF9217
:10303000DF92EF92FF926B017C010E94EE174B0131
:103040005C01C114D104E104F104E9F00E949C1C6C
:103050000E94EE17681979098A099B09683E734036
:103060008105910570F321E0C21AD108E108F10849
:1030700088EE880E83E0981EA11CB11CC114D104F7
:10308000E104F10429F7FF90EF90DF90CF90BF901B
:10309000AF909F908F900895789484B5836084BD9D
:1030A00085B5836085BDEEE6F0E080818160808338
:1030B000E1E8F0E082E08083808181608083E0E865
:1030C000F0E0808181608083E1EBF0E080818460CA
:1030D0008083E0EBF0E080818160808386E88093EC
:1030E0007A001092C1000895843081F028F4823073
:1030F000E9F08330F9F00895883071F0893091F06B
:103100008530B9F4809180008F7D03C0809180006C
:103110008F778093800008958091B0008F7780939F
:10312000B00008958091B0008F7DF9CF84B58F777E
:1031300084BD089584B58F7DFBCFCF93DF9390E05E
:10314000FC01E059FB4F249189579B4FFC0184916E
:103150008823C9F090E0880F991FFC01EE54FB4FC3
:10316000A591B491FC01E855FB4FC591D491611133
:103170000DC09FB7F8948C91209582238C93888101
:10318000282328839FBFDF91CF910895623051F4A7
:103190009FB7F8943C91822F809583238C93E8818C
:1031A0002E2BEFCF8FB7F894EC912E2B2C938FBF53
:1031B000EACF1F93CF93DF93282F30E0F901E75A2E
:1031C000FB4F8491F901E059FB4FD491F901E95784
:1031D000FB4FC491CC23A9F0162F81110E947418C3
:1031E000EC2FF0E0EE0FFF1FE855FB4FA591B491D7
:1031F0008FB7F894EC91111108C0D095DE23DC93C1
:103200008FBFDF91CF911F910895DE2BF8CFCF9321
:10321000DF93282F30E0F901E75AFB4F8491F90141
:10322000E059FB4FD491F901E957FB4FC491CC23EE
:10323000A1F081110E947418EC2FF0E0EE0FFF1F37
:10324000E256FB4FA591B491EC91ED2381E090E023
:1032500009F480E0DF91CF91089580E090E0FACF0B
:10326000FC01918D228D892F90E0805C9F4F821B05
:1032700091098F7399270895FC01918D828D98177C
:1032800031F0828DE80FF11D858D90E008958FEF6C
:103290009FEF0895FC01918D828D981761F0A28DAA
:1032A000AE0FBF2FB11D5D968C91928D9F5F9F7366
:1032B000928F90E008958FEF9FEF0895FC01538D5A
:1032C000448D252F30E0842F90E0821B930B541700
:1032D00010F0CF9608950197089580EE9AE1892B1A
:1032E00049F080E090E0892B29F00E94E01A8111DA
:1032F0000C9400000895FC01A48DA80FB92FB11DF6
:10330000A35ABF4F2C91848D90E001968F7399271B
:10331000848FA689B7892C93A089B1898C918370F9
:1033200080648C93938D848D981306C00288F389F2
:10333000E02D80818F7D80830895CF93DF93EC0112
:10334000888D8823B9F0AA89BB89E889F9898C918D
:1033500085FD03C0808186FD0DC00FB607FCF7CF49
:103360008C9185FFF2CF808185FFEDCFCE010E9449
:103370007B19E9CFDF91CF910895EF92FF920F93E0
:103380001F93CF93DF93EC0181E0888F9B8D8C8D11
:1033900098131AC0E889F989808185FF15C09FB705
:1033A000F894EE89FF896083E889F98980818370C8
:1033B000806480839FBF81E090E0DF91CF911F9177
:1033C0000F91FF90EF900895F62E0B8D10E00F5F98
:1033D0001F4F0F731127E02E8C8D8E110CC00FB66E
:1033E00007FCFACFE889F989808185FFF5CFCE0106
:1033F0000E947B19F1CFEB8DEC0FFD2FF11DE35AED
:10340000FF4FF0829FB7F8940B8FEA89FB89808188
:103410008062CFCFCF92DF92EF92FF921F93CF9334
:10342000DF93EC016A017B01122F60E874E88EE102
:1034300090E0A70196010E94DB1D2150310941094E
:1034400051095695479537952795E889F98982E07E
:103450008083211580E1380798F0E889F989108286
:1034600060E472E48FE090E0A70196010E94DB1D0A
:1034700021503109410951095695479537952795AE
:10348000EC85FD853083EE85FF852083188EEC89E1
:10349000FD891083EA89FB89808180618083EA89C4
:1034A000FB89808188608083EA89FB8980818068CC
:1034B0008083EA89FB8980818F7D8083DF91CF9132
:1034C0001F91FF90EF90DF90CF900895CF93DF93FF
:1034D000EC01E881F9810680F781E02D0995EA8900
:1034E000FB8980818F7E8083EA89FB898081877F49
:1034F0008083EA89FB8980818F778083EA89FB89D1
:1035000080818F7D80838A8D898FDF91CF9108950F
:103510001F920F920FB60F9211242F938F939F93A8
:10352000EF93FF93E0915505F09156058081E0916E
:103530005B05F0915C0582FD1BC0908180915E056A
:103540008F5F8F7320915F05821741F0E0915E05D8
:10355000F0E0EB5BFA4F958F80935E05FF91EF9162
:103560009F918F912F910F900FBE0F901F901895E4
:103570008081F4CF1F920F920FB60F9211242F93D8
:103580003F934F935F936F937F938F939F93AF93EB
:10359000BF93EF93FF9385E495E00E947B19FF9121
:1035A000EF91BF91AF919F918F917F916F915F91BB
:1035B0004F913F912F910F900FBE0F901F90189534
:1035C00085E495E00E94301921E0892B09F420E080
:1035D000822F0895E5E4F5E01382128288EE93E0ED
:1035E000A0E0B0E084839583A683B78382E691E070
:1035F0009183808385EC90E09587848784EC90E0CC
:103600009787868780EC90E0918B808B81EC90E0AF
:10361000938B828B82EC90E0958B848B86EC90E090
:10362000978B868B118E128E138E148E0895AF9207
:10363000BF92CF92DF92EF92FF920F931F93CF939F
:10364000DF936C017B018B01040F151FEB015E0101
:10365000AE18BF08C017D10759F06991D601ED9196
:10366000FC910190F081E02DC6010995892B79F735
:10367000C501DF91CF911F910F91FF90EF90DF90E7
:10368000CF90BF90AF900895FB0101900020E9F723
:103690003197AF01461B570BDC01ED91FC91028085
:1036A000F381E02D0994EF92FF920F931F93CF9334
:1036B000DF938C017B01D0E0C0E0F701EC0FFD1F30
:1036C0006491662361F0D801ED91FC910190F08145
:1036D000E02DC8010995892B11F02196EECFCE017E
:1036E000DF91CF911F910F91FF90EF900895611599
:1036F000710511F00C94441B90E080E00895DC010A
:10370000ED91FC910190F081E02D099460E771E06A
:103710000C94441B0F931F93CF93DF93EC010E94F3
:10372000531B8C01CE010E94861B800F911FDF91DD
:10373000CF911F910F9108950F931F93CF93DF9314
:103740008C01D0E0C0E06115710519F00E94441BA6
:10375000EC01C8010E94861B8C0F9D1FDF91CF9149
:103760001F910F9108958F929F92AF92BF92EF9207
:10377000FF920F931F93CF93DF93CDB7DEB7A1973F
:103780000FB6F894DEBF0FBECDBF7C01FA01CB01AE
:1037900019A2223008F42AE08E010F5D1F4F822EFD
:1037A000912CB12CA12CBF01A50194010E94DB1D1D
:1037B000F901CA016A300CF5605DD8016E938D0184
:1037C000232B242B252B79F790E080E0109721F014
:1037D000BD01C7010E94441BA1960FB6F894DEBF3D
:1037E0000FBECDBFDF91CF911F910F91FF90EF9052
:1037F000BF90AF909F908F900895695CDECFCF927D
:10380000DF92EF92FF920F931F93CF93DF932115D7
:10381000310581F4DC01ED91FC910190F081E02D06
:10382000642FDF91CF911F910F91FF90EF90DF9068
:10383000CF9009942A30310501F52AE077FF1DC0A9
:103840006A017B01EC016DE20E947F1B8C01442721
:103850005527BA014C195D096E097F092AE0CE018E
:103860000E94B31B800F911FDF91CF911F910F9189
:10387000FF90EF90DF90CF900895DF91CF911F914F
:103880000F91FF90EF90DF90CF900C94B31B9A01B3
:10389000AB01770F660B770B0C94FF1B21153105DD
:1038A00041F4DC01ED91FC910190F081E02D642F59
:1038B00009940C94B31B9A01462F50E070E060E02D
:1038C0000C944E1C0F931F93CF93DF93EC010E9437
:1038D0005B1C8C01CE010E94861B800F911FDF9123
:1038E000CF911F910F9108959A01AB0170E060E0B4
:1038F0000C944E1C0F931F93CF93DF93EC010E9407
:10390000741C8C01CE010E94861B800F911FDF91D9
:10391000CF911F910F91089508950E944C180E9415
:103920008C1C0E94BA03CDE6D9E10E9420052097A5
:10393000E1F30E946D19F9CF08950E94391D88F0B6
:103940009F5798F0B92F9927B751B0F0E1F0660F63
:10395000771F881F991F1AF0BA95C9F714C0B130A4
:1039600091F00E94531DB1E008950C94531D672FF0
:10397000782F8827B85F39F0B93FCCF386957795D3
:103980006795B395D9F73EF49095809570956195BC
:103990007F4F8F4F9F4F0895E89409C097FB3EF4E7
:1039A00090958095709561957F4F8F4F9F4F99238C
:1039B000A9F0F92F96E9BB279395F695879577950A
:1039C0006795B795F111F8CFFAF4BB0F11F460FFCA
:1039D0001BC06F5F7F4F8F4F9F4F16C0882311F022
:1039E00096E911C0772321F09EE8872F762F05C036
:1039F000662371F096E8862F70E060E02AF09A95D1
:103A0000660F771F881FDAF7880F9695879597F9C5
:103A1000089597F99F6780E870E060E008959FEF50
:103A200080EC089500240A94161617061806090655
:103A3000089500240A941216130614060506089524
:103A4000092E0394000C11F4882352F0BB0F40F4AC
:103A5000BF2B11F460FF04C06F5F7F4F8F4F9F4FEC
:103A6000089557FD9058440F551F59F05F3F71F06E
:103A70004795880F97FB991F61F09F3F79F08795D5
:103A80000895121613061406551FF2CF4695F1DF5E
:103A900008C0161617061806991FF1CF86957105EE
:103AA000610508940895E894BB2766277727CB0122
:103AB00097F908950E946D1D0C94201D0E94121DFF
:103AC00038F00E94191D20F0952311F00C94091D67
:103AD0000C940F1D11240C94541D0E94311D70F381
:103AE000959FC1F3950F50E0551F629FF001729FA3
:103AF000BB27F00DB11D639FAA27F00DB11DAA1FB2
:103B0000649F6627B00DA11D661F829F2227B00DFE
:103B1000A11D621F739FB00DA11D621F839FA00D89
:103B2000611D221F749F3327A00D611D231F849FD9
:103B3000600D211D822F762F6A2F11249F57504030
:103B40009AF0F1F088234AF0EE0FFF1FBB1F661FAB
:103B5000771F881F91505040A9F79E3F510580F074
:103B60000C94091D0C94541D5F3FE4F3983ED4F36C
:103B7000869577956795B795F795E7959F5FC1F718
:103B8000FE2B880F911D9695879597F90895AA1B8E
:103B9000BB1B51E107C0AA1FBB1FA617B70710F038
:103BA000A61BB70B881F991F5A95A9F7809590956A
:103BB000BC01CD010895A1E21A2EAA1BBB1BFD0179
:103BC0000DC0AA1FBB1FEE1FFF1FA217B307E407FC
:103BD000F50720F0A21BB30BE40BF50B661F771F54
:103BE000881F991F1A9469F7609570958095909534
:103BF0009B01AC01BD01CF010895EE0FFF1F0590A1
:103C0000F491E02D0994FB01DC014150504030F06B
:103C10008D910190801919F40020B9F7881B990B38
:103C20000895AEE0B0E0E7E1FEE10C944B2185E0C1
:103C30008C838B899C899A838983AE01495E5F4F0F
:103C40006D897E89CE0101960E94B51F2E96E2E015
:103C50000C94672120FD09C0FC0123FD05C022FF53
:103C600002C07383628351834083089544FD17C06B
:103C700046FD1DC0DB01FC01AA0FBB1FEE1FFF1F8D
:103C80001094D1F76A0F7B1F8E1F9F1F660F771F3F
:103C9000881F991F620F711D811D911D089533E0CA
:103CA000660F771F881F991F3150D1F7F3CF34E08B
:103CB000F7CF0F931F93CF93DF938C01C8010E941E
:103CC000CE20EC0197FD08C00E94BA20892BB1F7E5
:103CD000B801CE010E940A21CE01DF91CF911F9140
:103CE0000F9108958F929F92AF92BF92EF92FF92A1
:103CF0000F931F93CF93DF938C01D62F7A01B22EAF
:103D00000E94CE209C0133272B32310529F02D3221
:103D10003105A9F46894B7F8D15061F480E0DF91DF
:103D2000CF911F910F91FF90EF90BF90AF909F9018
:103D30008F900895C8010E94CE2097FDEFCFCB2D24
:103D4000CD7F2B2D2073F9F48033E9F4AA24AA94B3
:103D5000AD0E89F0C8010E94CE2097FD0CC0282F1F
:103D60002F7D283561F4C264D25029F0C8010E9429
:103D7000CE2097FF08C0812C912C54011BC0B6FEA9
:103D80002BC0C260DA2D812C912C540120ED280F1C
:103D9000283028F1C4FD09C02A3008F1C6FF05C04B
:103DA0002F7D3FEE320F3630C8F0B8010E940A2155
:103DB000C1FFB4CFC7FF08C0B094A0949094809482
:103DC000811C911CA11CB11C2C2FB501A401C701A1
:103DD0000E942A1E81E0A3CFC261D4CF27504C2F6E
:103DE000C501B4010E94361E4B015C01C260D15076
:103DF00009F3C8010E94CE2097FFC8CFD9CFA0E217
:103E0000B0E0E5E0FFE10C9440215C01962E7A01E0
:103E1000CE0101966C0180E2F60111928A95E9F7D4
:103E2000F501B381890130E020E0712C812CA0E004
:103E300041E050E0F801B3FD8591B3FF8191982FE7
:103E40008F01811107C010E000E0C801A096EDE0ED
:103E50000C945C218E3519F42115310541F1A2171E
:103E600013064CF48D3549F18D3229F4811006C0CA
:103E7000882483941DC0882009F464C0E92FE69546
:103E8000E695E695EC0DFD2DF11D892F8770BA01A1
:103E900001C0660F8A95EAF78081682B60837916E6
:103EA00051F0971510F49F5FE9CF9150E7CFA1E053
:103EB0002F5F3F4FBFCF812CFBCF882019F08E8121
:103EC00080628E83AA2359F0F6019E012F5D3F4F39
:103ED0008081809580833196E217F307C9F78824A3
:103EE0008394C5010E94CE2097FD16C0E82FE69569
:103EF000E695E695EC0DFD2DF11D208130E0AC013D
:103F00004770552702C0359527954A95E2F720FD61
:103F100006C0B5010E940A21882069F094CFE114FF
:103F2000F10429F0F7018083C70101967C019A947E
:103F3000812C9110D6CFE114F10409F486CFF7015A
:103F4000108283CFE82FE695E695E695EC0DFD2DE2
:103F5000F11D982F9770BA0101C0660F9A95EAF784
:103F60009081692B6083782EA3CFB0E0A0E0EBEBCB
:103F7000FFE10C943E216C01EB015A01FC01178218
:103F80001682512CF601E380FE01E3FC8591E3FEED
:103F90008191182FEF018823E9F090E00E94BA2068
:103FA000892B21F0C6010E94591EECCF153241F435
:103FB000FE01E3FC1591E3FE1191EF01153269F466
:103FC000C6010E94CE2097FD8EC01817D9F2B60107
:103FD0000E940A21852D90E08AC000E01A3231F457
:103FE000E3FC1591E3FE1191EF0101E0F12C20EDCE
:103FF000210F2A3048F101FF37C0FF2059F318364E
:10400000B1F11C3609F43DC0112321F3612F70E09A
:1040100088E690E00E94C320892BE1F2912C812C4C
:1040200000FD06C0F50180809180C50102965C010B
:104030001E3679F5F6014681578170E060E0202F49
:10404000C4010E942A1E9ECF02606F2D70E090E096
:1040500080E040E20E94361EF62EFE01E3FC159140
:10406000E3FE1191EF01C3CFFF24FA94C8CFFE0104
:10407000E3FC1591E3FE1191EF01183609F0C4CF6E
:1040800008600460FE01E3FC1591E3FE1191EF016D
:10409000BBCF1336C1F401FD02C0FF24F394C60167
:1040A0000E94CE2097FD1FC08114910429F0F401D5
:1040B0008083C40101964C01FA94F110F0CF00FD09
:1040C00061CF53945FCF1B35B9F49E01A4016F2DCE
:1040D000C6010E94FF1EEC01892B89F7F60183813E
:1040E000807309F477CF8FEF9FEF511073CFCDB767
:1040F000DEB7EFE00C945A21C6010E94591E97FDCD
:10410000F2CF1F36A9F130F4143641F0193639F0E8
:10411000006405C01337B9F01537D1F70062202FBE
:10412000A4016F2DC6010E94721E8111C8CFD6CF87
:104130008114910429F0F4016082C40101964C01BC
:10414000FA94FF2071F0C6010E94CE203C0197FD39
:1041500008C00E94BA20892B59F3B601C3010E94FE
:104160000A218114910409F4AACFF4011082A7CF87
:104170000061D5CF91110C942221803219F0895021
:104180008550C8F70895FC010590061621F000201F
:10419000D9F7C00108953197CF010895CF93DF93E8
:1041A000EC012B8120FF1AC026FF0CC02F7B2B8334
:1041B0008E819F8101969F838E838A8190E0DF911B
:1041C000CF91089522FF18C0E881F9818081082EDF
:1041D000000C990B009729F420622B838FEF9FEF3F
:1041E000EECF3196F983E8832E813F812F5F3F4FD9
:1041F0003F832E839927E3CFEA85FB85099597FFB7
:10420000F3CF2B81019621F080E2822B8B83E6CFC6
:1042100080E1FBCFFB01238120FF11C026FD0FC0F1
:104220008F3F980771F082832F7D2064238326813E
:1042300037812150310937832683992708958FEFDD
:104240009FEF0895992788270895F999FECF92BD89
:1042500081BDF89A992780B50895262FF999FECF48
:104260001FBA92BD81BD20BD0FB6F894FA9AF99A93
:104270000FBE019608952F923F924F925F926F92D8
:104280007F928F929F92AF92BF92CF92DF92EF92E6
:10429000FF920F931F93CF93DF93CDB7DEB7CA1B67
:1042A000DB0B0FB6F894DEBF0FBECDBF09942A8892
:1042B000398848885F846E847D848C849B84AA843A
:1042C000B984C884DF80EE80FD800C811B81AA81C7
:1042D000B981CE0FD11D0FB6F894DEBF0FBECDBF92
:1042E000ED01089512E0CFE5D2E004C0FE010E9486
:0E42F000FD1D2196C036D107C9F7F894FFCF07
:1042FE00020AC843027F01C4093200037F0901C4C8
:10430E000901F03FF03F503150322D4D002A202848
:10431E00746F2062652069676E6F72656429002A6A
:10432E002000256400253478002A205061757369B9
:10433E006E672073657269616C00315032500030C7
:10434E00780025326868782568686E0030000000B5
:10435E000000BD19171B5E199D1930194A193C1919
:04436E000D0A000034
:00000001FF
